{"contracts/HYAXUpgradeableV2.sol":{"HYAXUpgradeableV2":{"abi":[{"anonymous":false,"inputs":[{"indexed":true,"internalType":"address","name":"owner","type":"address"},{"indexed":true,"internalType":"address","name":"spender","type":"address"},{"indexed":false,"internalType":"uint256","name":"value","type":"uint256"}],"name":"Approval","type":"event"},{"anonymous":false,"inputs":[{"indexed":false,"internalType":"address","name":"sender","type":"address"},{"indexed":false,"internalType":"address","name":"_investorAddress","type":"address"},{"indexed":false,"internalType":"bool","name":"_isBlacklisted","type":"bool"}],"name":"BlacklistStatusUpdated","type":"event"},{"anonymous":false,"inputs":[{"indexed":false,"internalType":"uint8","name":"version","type":"uint8"}],"name":"Initialized","type":"event"},{"anonymous":false,"inputs":[{"indexed":false,"internalType":"enum HYAXUpgradeableV2.TokenType","name":"tokenType","type":"uint8"},{"indexed":false,"internalType":"address","name":"sender","type":"address"},{"indexed":false,"internalType":"uint256","name":"tokenAmount","type":"uint256"},{"indexed":false,"internalType":"uint256","name":"totalInvestmentInUsd","type":"uint256"},{"indexed":false,"internalType":"uint256","name":"hyaxAmount","type":"uint256"}],"name":"InvestFromCryptoToken","type":"event"},{"anonymous":false,"inputs":[{"indexed":false,"internalType":"address","name":"sender","type":"address"},{"indexed":false,"internalType":"uint256","name":"maticAmount","type":"uint256"},{"indexed":false,"internalType":"uint256","name":"totalInvestmentInUsd","type":"uint256"},{"indexed":false,"internalType":"uint256","name":"hyaxAmount","type":"uint256"}],"name":"InvestFromMatic","type":"event"},{"anonymous":false,"inputs":[{"indexed":false,"internalType":"address","name":"sender","type":"address"},{"indexed":false,"internalType":"address","name":"_investorAddress","type":"address"}],"name":"InvestorAddedToWhiteList","type":"event"},{"anonymous":false,"inputs":[{"indexed":true,"internalType":"address","name":"previousOwner","type":"address"},{"indexed":true,"internalType":"address","name":"newOwner","type":"address"}],"name":"OwnershipTransferred","type":"event"},{"anonymous":false,"inputs":[{"indexed":false,"internalType":"address","name":"account","type":"address"}],"name":"Paused","type":"event"},{"anonymous":false,"inputs":[{"indexed":false,"internalType":"address","name":"sender","type":"address"},{"indexed":false,"internalType":"address","name":"_QualifiedInvestorAddress","type":"address"},{"indexed":false,"internalType":"bool","name":"_isQualifiedInvestor","type":"bool"}],"name":"QualifiedInvestorStatusUpdated","type":"event"},{"anonymous":false,"inputs":[{"indexed":false,"internalType":"address","name":"sender","type":"address"},{"indexed":false,"internalType":"uint256","name":"amount","type":"uint256"}],"name":"TokenIssuance","type":"event"},{"anonymous":false,"inputs":[{"indexed":true,"internalType":"address","name":"from","type":"address"},{"indexed":true,"internalType":"address","name":"to","type":"address"},{"indexed":false,"internalType":"uint256","name":"value","type":"uint256"}],"name":"Transfer","type":"event"},{"anonymous":false,"inputs":[{"indexed":false,"internalType":"address","name":"account","type":"address"}],"name":"Unpaused","type":"event"},{"anonymous":false,"inputs":[{"indexed":false,"internalType":"uint256","name":"_newHyaxPrice","type":"uint256"}],"name":"UpdatedHyaxPrice","type":"event"},{"anonymous":false,"inputs":[{"indexed":false,"internalType":"address","name":"_newMaticPriceFeedAddress","type":"address"}],"name":"UpdatedMaticPriceFeedAddress","type":"event"},{"anonymous":false,"inputs":[{"indexed":false,"internalType":"uint256","name":"_newMaximumInvestmentAllowedInUSD","type":"uint256"}],"name":"UpdatedMaximumInvestmentAllowedInUSD","type":"event"},{"anonymous":false,"inputs":[{"indexed":false,"internalType":"uint256","name":"_newMinimumInvestmentAllowedInUSD","type":"uint256"}],"name":"UpdatedMinimumInvestmentAllowedInUSD","type":"event"},{"anonymous":false,"inputs":[{"indexed":false,"internalType":"address","name":"_newTreasuryAddress","type":"address"}],"name":"UpdatedTreasuryAddress","type":"event"},{"anonymous":false,"inputs":[{"indexed":false,"internalType":"address","name":"_newUsdcPriceFeedAddress","type":"address"}],"name":"UpdatedUsdcPriceFeedAddress","type":"event"},{"anonymous":false,"inputs":[{"indexed":false,"internalType":"address","name":"_newUsdcTokenAddress","type":"address"}],"name":"UpdatedUsdcTokenAddress","type":"event"},{"anonymous":false,"inputs":[{"indexed":false,"internalType":"address","name":"_newUsdtPriceFeedAddress","type":"address"}],"name":"UpdatedUsdtPriceFeedAddress","type":"event"},{"anonymous":false,"inputs":[{"indexed":false,"internalType":"address","name":"_newUsdtTokenAddress","type":"address"}],"name":"UpdatedUsdtTokenAddress","type":"event"},{"anonymous":false,"inputs":[{"indexed":false,"internalType":"address","name":"_newWbtcPriceFeedAddress","type":"address"}],"name":"UpdatedWbtcPriceFeedAddress","type":"event"},{"anonymous":false,"inputs":[{"indexed":false,"internalType":"address","name":"_newWbtcTokenAddress","type":"address"}],"name":"UpdatedWbtcTokenAddress","type":"event"},{"anonymous":false,"inputs":[{"indexed":false,"internalType":"address","name":"_newWethPriceFeedAddress","type":"address"}],"name":"UpdatedWethPriceFeedAddress","type":"event"},{"anonymous":false,"inputs":[{"indexed":false,"internalType":"address","name":"_newWethTokenAddress","type":"address"}],"name":"UpdatedWethTokenAddress","type":"event"},{"anonymous":false,"inputs":[{"indexed":false,"internalType":"address","name":"_newWhiteListerAddress","type":"address"}],"name":"UpdatedWhiteListerAddress","type":"event"},{"anonymous":false,"inputs":[{"indexed":false,"internalType":"address","name":"sender","type":"address"},{"indexed":false,"internalType":"address","name":"_investorAddress","type":"address"},{"indexed":false,"internalType":"bool","name":"_isWhiteListed","type":"bool"}],"name":"WhitelistStatusUpdated","type":"event"},{"inputs":[],"name":"MAX_PRICE_AGE","outputs":[{"internalType":"uint256","name":"","type":"uint256"}],"stateMutability":"view","type":"function"},{"inputs":[{"internalType":"address","name":"_investorAddress","type":"address"}],"name":"addToWhiteList","outputs":[],"stateMutability":"nonpayable","type":"function"},{"inputs":[{"internalType":"address","name":"owner","type":"address"},{"internalType":"address","name":"spender","type":"address"}],"name":"allowance","outputs":[{"internalType":"uint256","name":"","type":"uint256"}],"stateMutability":"view","type":"function"},{"inputs":[{"internalType":"address","name":"spender","type":"address"},{"internalType":"uint256","name":"amount","type":"uint256"}],"name":"approve","outputs":[{"internalType":"bool","name":"","type":"bool"}],"stateMutability":"nonpayable","type":"function"},{"inputs":[{"internalType":"address","name":"account","type":"address"}],"name":"balanceOf","outputs":[{"internalType":"uint256","name":"","type":"uint256"}],"stateMutability":"view","type":"function"},{"inputs":[{"internalType":"uint256","name":"_amount","type":"uint256"},{"internalType":"uint256","name":"_currentCryptocurrencyPrice","type":"uint256"}],"name":"calculateTotalHyaxTokenToReturn","outputs":[{"internalType":"uint256","name":"totalInvestmentInUsd","type":"uint256"},{"internalType":"uint256","name":"totalHyaxTokenToReturn","type":"uint256"}],"stateMutability":"view","type":"function"},{"inputs":[],"name":"decimals","outputs":[{"internalType":"uint8","name":"","type":"uint8"}],"stateMutability":"view","type":"function"},{"inputs":[{"internalType":"address","name":"spender","type":"address"},{"internalType":"uint256","name":"subtractedValue","type":"uint256"}],"name":"decreaseAllowance","outputs":[{"internalType":"bool","name":"","type":"bool"}],"stateMutability":"nonpayable","type":"function"},{"inputs":[{"internalType":"enum HYAXUpgradeableV2.TokenType","name":"tokenType","type":"uint8"}],"name":"getCurrentTokenPrice","outputs":[{"internalType":"uint256","name":"","type":"uint256"}],"stateMutability":"view","type":"function"},{"inputs":[],"name":"hyaxPrice","outputs":[{"internalType":"uint256","name":"","type":"uint256"}],"stateMutability":"view","type":"function"},{"inputs":[{"internalType":"address","name":"spender","type":"address"},{"internalType":"uint256","name":"addedValue","type":"uint256"}],"name":"increaseAllowance","outputs":[{"internalType":"bool","name":"","type":"bool"}],"stateMutability":"nonpayable","type":"function"},{"inputs":[],"name":"initialize","outputs":[],"stateMutability":"nonpayable","type":"function"},{"inputs":[{"internalType":"enum HYAXUpgradeableV2.TokenType","name":"tokenType","type":"uint8"},{"internalType":"uint256","name":"_amount","type":"uint256"}],"name":"investFromCryptoToken","outputs":[{"internalType":"bool","name":"","type":"bool"}],"stateMutability":"nonpayable","type":"function"},{"inputs":[],"name":"investFromMatic","outputs":[{"internalType":"bool","name":"","type":"bool"}],"stateMutability":"payable","type":"function"},{"inputs":[{"internalType":"address","name":"","type":"address"}],"name":"investorData","outputs":[{"internalType":"bool","name":"isWhiteListed","type":"bool"},{"internalType":"bool","name":"isBlacklisted","type":"bool"},{"internalType":"bool","name":"isQualifiedInvestor","type":"bool"},{"internalType":"uint256","name":"totalHyaxBoughtByInvestor","type":"uint256"},{"internalType":"uint256","name":"totalUsdDepositedByInvestor","type":"uint256"}],"stateMutability":"view","type":"function"},{"inputs":[],"name":"maticPriceFeedAddress","outputs":[{"internalType":"address","name":"","type":"address"}],"stateMutability":"view","type":"function"},{"inputs":[],"name":"maximumInvestmentAllowedInUSD","outputs":[{"internalType":"uint256","name":"","type":"uint256"}],"stateMutability":"view","type":"function"},{"inputs":[],"name":"minimumInvestmentAllowedInUSD","outputs":[{"internalType":"uint256","name":"","type":"uint256"}],"stateMutability":"view","type":"function"},{"inputs":[],"name":"name","outputs":[{"internalType":"string","name":"","type":"string"}],"stateMutability":"view","type":"function"},{"inputs":[],"name":"newFunction","outputs":[{"internalType":"string","name":"","type":"string"}],"stateMutability":"pure","type":"function"},{"inputs":[],"name":"owner","outputs":[{"internalType":"address","name":"","type":"address"}],"stateMutability":"view","type":"function"},{"inputs":[],"name":"pause","outputs":[],"stateMutability":"nonpayable","type":"function"},{"inputs":[],"name":"paused","outputs":[{"internalType":"bool","name":"","type":"bool"}],"stateMutability":"view","type":"function"},{"inputs":[],"name":"renounceOwnership","outputs":[],"stateMutability":"nonpayable","type":"function"},{"inputs":[],"name":"symbol","outputs":[{"internalType":"string","name":"","type":"string"}],"stateMutability":"view","type":"function"},{"inputs":[{"internalType":"uint256","name":"_amount","type":"uint256"}],"name":"tokenIssuance","outputs":[],"stateMutability":"nonpayable","type":"function"},{"inputs":[],"name":"totalSupply","outputs":[{"internalType":"uint256","name":"","type":"uint256"}],"stateMutability":"view","type":"function"},{"inputs":[{"internalType":"address","name":"to","type":"address"},{"internalType":"uint256","name":"amount","type":"uint256"}],"name":"transfer","outputs":[{"internalType":"bool","name":"","type":"bool"}],"stateMutability":"nonpayable","type":"function"},{"inputs":[{"internalType":"address","name":"from","type":"address"},{"internalType":"address","name":"to","type":"address"},{"internalType":"uint256","name":"amount","type":"uint256"}],"name":"transferFrom","outputs":[{"internalType":"bool","name":"","type":"bool"}],"stateMutability":"nonpayable","type":"function"},{"inputs":[{"internalType":"address","name":"newOwner","type":"address"}],"name":"transferOwnership","outputs":[],"stateMutability":"nonpayable","type":"function"},{"inputs":[],"name":"treasuryAddress","outputs":[{"internalType":"address","name":"","type":"address"}],"stateMutability":"view","type":"function"},{"inputs":[],"name":"unpause","outputs":[],"stateMutability":"nonpayable","type":"function"},{"inputs":[{"internalType":"address","name":"_investorAddress","type":"address"},{"internalType":"bool","name":"_newStatus","type":"bool"}],"name":"updateBlacklistStatus","outputs":[],"stateMutability":"nonpayable","type":"function"},{"inputs":[{"internalType":"uint256","name":"_newHyaxPrice","type":"uint256"}],"name":"updateHyaxPrice","outputs":[],"stateMutability":"nonpayable","type":"function"},{"inputs":[{"internalType":"uint256","name":"_newMaximumInvestmentAllowedInUSD","type":"uint256"}],"name":"updateMaximumInvestmentAllowedInUSD","outputs":[],"stateMutability":"nonpayable","type":"function"},{"inputs":[{"internalType":"uint256","name":"_newMinimumInvestmentAllowedInUSD","type":"uint256"}],"name":"updateMinimumInvestmentAllowedInUSD","outputs":[],"stateMutability":"nonpayable","type":"function"},{"inputs":[{"internalType":"enum HYAXUpgradeableV2.TokenType","name":"tokenType","type":"uint8"},{"internalType":"address","name":"newPriceFeedAddress","type":"address"}],"name":"updatePriceFeedAddress","outputs":[],"stateMutability":"nonpayable","type":"function"},{"inputs":[{"internalType":"address","name":"_qualifiedInvestorAddress","type":"address"},{"internalType":"bool","name":"_newStatus","type":"bool"}],"name":"updateQualifiedInvestorStatus","outputs":[],"stateMutability":"nonpayable","type":"function"},{"inputs":[{"internalType":"enum HYAXUpgradeableV2.TokenType","name":"tokenType","type":"uint8"},{"internalType":"address","name":"newTokenAddress","type":"address"}],"name":"updateTokenAddress","outputs":[],"stateMutability":"nonpayable","type":"function"},{"inputs":[{"internalType":"address","name":"_newTreasuryAddress","type":"address"}],"name":"updateTreasuryAddress","outputs":[],"stateMutability":"nonpayable","type":"function"},{"inputs":[{"internalType":"address","name":"_newWhiteListerAddress","type":"address"}],"name":"updateWhiteListerAddress","outputs":[],"stateMutability":"nonpayable","type":"function"},{"inputs":[{"internalType":"address","name":"_investorAddress","type":"address"},{"internalType":"bool","name":"_newStatus","type":"bool"}],"name":"updateWhitelistStatus","outputs":[],"stateMutability":"nonpayable","type":"function"},{"inputs":[],"name":"usdcPriceFeedAddress","outputs":[{"internalType":"address","name":"","type":"address"}],"stateMutability":"view","type":"function"},{"inputs":[],"name":"usdcToken","outputs":[{"internalType":"contract IERC20","name":"","type":"address"}],"stateMutability":"view","type":"function"},{"inputs":[],"name":"usdcTokenAddress","outputs":[{"internalType":"address","name":"","type":"address"}],"stateMutability":"view","type":"function"},{"inputs":[],"name":"usdtPriceFeedAddress","outputs":[{"internalType":"address","name":"","type":"address"}],"stateMutability":"view","type":"function"},{"inputs":[],"name":"usdtToken","outputs":[{"internalType":"contract IERC20","name":"","type":"address"}],"stateMutability":"view","type":"function"},{"inputs":[],"name":"usdtTokenAddress","outputs":[{"internalType":"address","name":"","type":"address"}],"stateMutability":"view","type":"function"},{"inputs":[{"internalType":"uint256","name":"_totalInvestmentInUsd","type":"uint256"},{"internalType":"address","name":"_investorAddress","type":"address"}],"name":"validateMaximumInvestedAmountAndInvestorLimit","outputs":[],"stateMutability":"view","type":"function"},{"inputs":[],"name":"wbtcPriceFeedAddress","outputs":[{"internalType":"address","name":"","type":"address"}],"stateMutability":"view","type":"function"},{"inputs":[],"name":"wbtcToken","outputs":[{"internalType":"contract IERC20","name":"","type":"address"}],"stateMutability":"view","type":"function"},{"inputs":[],"name":"wbtcTokenAddress","outputs":[{"internalType":"address","name":"","type":"address"}],"stateMutability":"view","type":"function"},{"inputs":[],"name":"wethPriceFeedAddress","outputs":[{"internalType":"address","name":"","type":"address"}],"stateMutability":"view","type":"function"},{"inputs":[],"name":"wethToken","outputs":[{"internalType":"contract IERC20","name":"","type":"address"}],"stateMutability":"view","type":"function"},{"inputs":[],"name":"wethTokenAddress","outputs":[{"internalType":"address","name":"","type":"address"}],"stateMutability":"view","type":"function"},{"inputs":[],"name":"whiteListerAddress","outputs":[{"internalType":"address","name":"","type":"address"}],"stateMutability":"view","type":"function"},{"stateMutability":"payable","type":"receive"}],"evm":{"bytecode":{"linkReferences":{},"object":"608060405234801561001057600080fd5b50614a32806100206000396000f3fe60806040526004361061036f5760003560e01c806370a08231116101c6578063a457c2d7116100f7578063c07732a311610095578063de1f53461161006f578063de1f534614610a10578063f2fde38b14610a93578063f7a47f8114610ab3578063fb2dc76e14610ad457600080fd5b8063c07732a3146109af578063c5f956af146109cf578063dd62ed3e146109f057600080fd5b8063b2c568f3116100d1578063b2c568f31461092f578063b40ed4491461094f578063b83608061461096f578063bb6f98fb1461098f57600080fd5b8063a457c2d7146108ce578063a9059cbb146108ee578063a98ad46c1461090e57600080fd5b8063841e4561116101645780638da5cb5b1161013e5780638da5cb5b1461086457806395d89b41146108825780639d741e5d146108975780639d7f7e86146108b857600080fd5b8063841e4561146107fa5780638456cb591461081a5780638c945e631461082f57600080fd5b806377b53ece116101a057806377b53ece1461078d5780638049bcb6146107ae5780638116de2b146107c55780638129fc1c146107e557600080fd5b806370a0823114610722578063715018a614610758578063731de5141461076d57600080fd5b8063377c779f116102a05780634b57b0be1161023e5780635c975abb116102185780635c975abb146106a95780635ec2562a146106c1578063653c3a47146106e157806365699d281461070157600080fd5b80634b57b0be146106465780634c526bdb146106675780635ae9384e1461068857600080fd5b80633de6f3791161027a5780633de6f379146105d05780633f4ba83a146105f057806340b5ea9c1461060557806347ee03941461062657600080fd5b8063377c779f1461059157806339509351146105a85780633b14f359146105c857600080fd5b80631b28d63e1161030d57806327614df8116102e757806327614df81461051d5780632a241ad31461053e578063313ce56714610555578063367f44fb1461057157600080fd5b80631b28d63e146104a257806323b872dd146104dd57806323c66f9a146104fd57600080fd5b80630f9dad71116103495780630f9dad711461042157806311eac85514610442578063128ef0221461046357806318160ddd1461048357600080fd5b806306fdde031461038d57806308cd468f146103b8578063095ea7b3146103f157600080fd5b366103885761037c610af5565b610386600160fb55565b005b600080fd5b34801561039957600080fd5b506103a2610b5a565b6040516103af91906140bb565b60405180910390f35b3480156103c457600080fd5b5061013a546103d9906001600160a01b031681565b6040516001600160a01b0390911681526020016103af565b3480156103fd57600080fd5b5061041161040c36600461410a565b610bec565b60405190151581526020016103af565b34801561042d57600080fd5b50610141546103d9906001600160a01b031681565b34801561044e57600080fd5b50610138546103d9906001600160a01b031681565b34801561046f57600080fd5b5061038661047e366004614134565b610c06565b34801561048f57600080fd5b506035545b6040519081526020016103af565b3480156104ae57600080fd5b506040805180820190915260128152712732bb90333ab731ba34b7b71034b7102b1960711b60208201526103a2565b3480156104e957600080fd5b506104116104f836600461414d565b610e2a565b34801561050957600080fd5b50610386610518366004614198565b610e4e565b34801561052957600080fd5b50610140546103d9906001600160a01b031681565b34801561054a57600080fd5b5061049461012e5481565b34801561056157600080fd5b50604051601281526020016103af565b34801561057d57600080fd5b5061038661058c3660046141d9565b6115ab565b34801561059d57600080fd5b5061049461012d5481565b3480156105b457600080fd5b506104116105c336600461410a565b611825565b610411611847565b3480156105dc57600080fd5b506103866105eb366004614198565b611b0c565b3480156105fc57600080fd5b50610386611f66565b34801561061157600080fd5b50610136546103d9906001600160a01b031681565b34801561063257600080fd5b50610386610641366004614210565b611f78565b34801561065257600080fd5b50610144546103d9906001600160a01b031681565b34801561067357600080fd5b5061013d546103d9906001600160a01b031681565b34801561069457600080fd5b50610142546103d9906001600160a01b031681565b3480156106b557600080fd5b5060655460ff16610411565b3480156106cd57600080fd5b506103866106dc366004614134565b612196565b3480156106ed57600080fd5b506103866106fc366004614210565b61224b565b34801561070d57600080fd5b50610130546103d9906001600160a01b031681565b34801561072e57600080fd5b5061049461073d366004614210565b6001600160a01b031660009081526033602052604090205490565b34801561076457600080fd5b50610386612398565b34801561077957600080fd5b50610411610788366004614232565b6123aa565b34801561079957600080fd5b50610135546103d9906001600160a01b031681565b3480156107ba57600080fd5b5061049461012f5481565b3480156107d157600080fd5b506103866107e036600461424e565b6128ad565b3480156107f157600080fd5b50610386612986565b34801561080657600080fd5b50610386610815366004614210565b612d2e565b34801561082657600080fd5b50610386612e78565b34801561083b57600080fd5b5061084f61084a366004614271565b612e88565b604080519283526020830191909152016103af565b34801561087057600080fd5b5060c9546001600160a01b03166103d9565b34801561088e57600080fd5b506103a2612fe5565b3480156108a357600080fd5b50610139546103d9906001600160a01b031681565b3480156108c457600080fd5b50610494610e1081565b3480156108da57600080fd5b506104116108e936600461410a565b612ff4565b3480156108fa57600080fd5b5061041161090936600461410a565b61306f565b34801561091a57600080fd5b5061013c546103d9906001600160a01b031681565b34801561093b57600080fd5b5061038661094a366004614134565b61307d565b34801561095b57600080fd5b5061038661096a366004614134565b61312b565b34801561097b57600080fd5b5061038661098a3660046141d9565b6132ff565b34801561099b57600080fd5b506104946109aa366004614293565b613480565b3480156109bb57600080fd5b506103866109ca3660046141d9565b613631565b3480156109db57600080fd5b50610131546103d9906001600160a01b031681565b3480156109fc57600080fd5b50610494610a0b3660046142ae565b6137a6565b348015610a1c57600080fd5b50610a62610a2b366004614210565b6101326020526000908152604090208054600182015460029092015460ff8083169361010084048216936201000090049091169185565b6040516103af9594939291909415158552921515602085015290151560408401526060830152608082015260a00190565b348015610a9f57600080fd5b50610386610aae366004614210565b6137d1565b348015610abf57600080fd5b5061013e546103d9906001600160a01b031681565b348015610ae057600080fd5b50610133546103d9906001600160a01b031681565b600260fb5403610b4c5760405162461bcd60e51b815260206004820152601f60248201527f5265656e7472616e637947756172643a207265656e7472616e742063616c6c0060448201526064015b60405180910390fd5b600260fb55565b600160fb55565b606060368054610b69906142ca565b80601f0160208091040260200160405190810160405280929190818152602001828054610b95906142ca565b8015610be25780601f10610bb757610100808354040283529160200191610be2565b820191906000526020600020905b815481529060010190602001808311610bc557829003601f168201915b5050505050905090565b600033610bfa8185856138be565b60019150505b92915050565b610c0e6139e2565b610c16610af5565b610c226012600a6143f8565b811015610c975760405162461bcd60e51b815260206004820152603760248201527f416d6f756e74206f66204859415820746f6b656e7320746f206973737565206d60448201527f757374206265206174206c65617374203120746f6b656e0000000000000000006064820152608401610b43565b610ca36012600a6143f8565b610cb190633b9aca00614407565b811115610d265760405162461bcd60e51b815260206004820152603f60248201527f416d6f756e74206f66204859415820746f6b656e7320746f206973737565206160448201527f7420612074696d65206d757374206265206d6178696d756d2031303030204d006064820152608401610b43565b610d326012600a6143f8565b610d41906402540be400614407565b81610d4b60355490565b610d55919061441e565b1115610dc95760405162461bcd60e51b815260206004820152603b60248201527f416d6f756e74206f66204859415820746f6b656e7320746f206973737565207360448201527f75727061736573207468652031302c303030204d20746f6b656e7300000000006064820152608401610b43565b610de4610dde60c9546001600160a01b031690565b82613a3c565b60408051338152602081018390527f455064bbf1374d9e833b8d9db24c56b24dbf79cc1a94a30665cae7093963d5a8910160405180910390a1610e27600160fb55565b50565b600033610e38858285613b09565b610e43858585613b83565b506001949350505050565b610e566139e2565b6001600160a01b038116610ecb5760405162461bcd60e51b815260206004820152603660248201527f5468652070726963652064617461206665656420616464726573732063616e6e6044820152756f7420626520746865207a65726f206164647265737360501b6064820152608401610b43565b8060008080856004811115610ee257610ee2614431565b03610fa657610133546001600160a01b0390811690851603610f6e576040805162461bcd60e51b81526020600482015260248101919091527f4d41544943207072696365206665656420616464726573732068617320616c7260448201527f65616479206265656e206d6f64696669656420746f20746861742076616c75656064820152608401610b43565b6040516a1350551250c80bc81554d160aa1b6020820152602b015b60405160208183030381529060405280519060200120915061128a565b6001856004811115610fba57610fba614431565b0361105057610136546001600160a01b03908116908516036110325760405162461bcd60e51b815260206004820152603f60248201527f55534443207072696365206665656420616464726573732068617320616c726560448201526000805160206149dd8339815191526064820152608401610b43565b604051691554d110c80bc81554d160b21b6020820152602a01610f89565b600285600481111561106457611064614431565b036110fa5761013a546001600160a01b03908116908516036110dc5760405162461bcd60e51b815260206004820152603f60248201527f55534454207072696365206665656420616464726573732068617320616c726560448201526000805160206149dd8339815191526064820152608401610b43565b604051691554d115080bc81554d160b21b6020820152602a01610f89565b600385600481111561110e5761110e614431565b036111a45761013e546001600160a01b03908116908516036111865760405162461bcd60e51b815260206004820152603f60248201527f57425443207072696365206665656420616464726573732068617320616c726560448201526000805160206149dd8339815191526064820152608401610b43565b6040516915d09510c80bc81554d160b21b6020820152602a01610f89565b60048560048111156111b8576111b8614431565b0361124d57610142546001600160a01b03908116908516036112305760405162461bcd60e51b815260206004820152603f60248201527f57455448207072696365206665656420616464726573732068617320616c726560448201526000805160206149dd8339815191526064820152608401610b43565b60405168115512080bc81554d160ba1b6020820152602901610f89565b60405162461bcd60e51b8152602060048201526012602482015271496e76616c696420746f6b656e207479706560701b6044820152606401610b43565b826001600160a01b0316637284e4166040518163ffffffff1660e01b8152600401600060405180830381865afa9250505080156112e957506040513d6000823e601f3d908101601f191682016040526112e6919081019061445d565b60015b6113055760405162461bcd60e51b8152600401610b439061450a565b806040516020016113169190614576565b60405160208183030381529060405280519060200120915081831461134d5760405162461bcd60e51b8152600401610b439061450a565b50600085600481111561136257611362614431565b036113cc5761013380546001600160a01b0386166001600160a01b031991821681179092556101348054909116821790556040519081527fee9bc8d900b5d69f934ec4a3986b3bfda61add54821456c3f7e943e87cf48f52906020015b60405180910390a16115a4565b60018560048111156113e0576113e0614431565b036114415761013680546001600160a01b0386166001600160a01b031991821681179092556101378054909116821790556040519081527f0a0bc5dadd9d9c881861f6da8998bebef8eabcb5f3d6651187c5d1899e327965906020016113bf565b600285600481111561145557611455614431565b036114b65761013a80546001600160a01b0386166001600160a01b0319918216811790925561013b8054909116821790556040519081527f1e5bfe0b7fe6fcdc586b9e3a4fbdc0bdb1346d36173963ba38c897137ba16031906020016113bf565b60038560048111156114ca576114ca614431565b0361152b5761013e80546001600160a01b0386166001600160a01b0319918216811790925561013f8054909116821790556040519081527f2171c3cfa3d86551d618c9da7164a608dd795715bf61402d9ccb45cf5433a076906020016113bf565b600485600481111561153f5761153f614431565b036115a45761014280546001600160a01b0386166001600160a01b031991821681179092556101438054909116821790556040519081527fc21be1e8c8d6de83e19ad6de75cd885eefac75be87e532a0a04d02147004e5209060200160405180910390a15b5050505050565b60c9546001600160a01b03163314806115cf5750610130546001600160a01b031633145b6115eb5760405162461bcd60e51b8152600401610b4390614592565b6001600160a01b03821661167f5760405162461bcd60e51b815260206004820152604f60248201527f496e766573746f72206164647265737320746f20757064617465207175616c6960448201527f6669656420696e766573746f72207374617475732063616e6e6f74206265207460648201526e6865207a65726f206164647265737360881b608482015260a401610b43565b6001600160a01b0382166000908152610132602052604090205460ff1661170e5760405162461bcd60e51b815260206004820152603e60248201527f496e766573746f722061646472657373206d757374206265206669727374206160448201527f6464656420746f2074686520696e766573746f722077686974656c69737400006064820152608401610b43565b6001600160a01b038216600090815261013260205260409020548115156201000090910460ff161515036117aa5760405162461bcd60e51b815260206004820152603d60248201527f5468617420696e766573746f7220616464726573732068617320616c7265616460448201527f79206265656e207570646174656420746f2074686174207374617475730000006064820152608401610b43565b6001600160a01b03821660008181526101326020908152604091829020805462ff000019166201000086151590810291909117909155825133815291820193909352908101919091527f3c53852fbea2a3e8d261e1a5412fcd1099cd0af0faf615db2a4cab4831106256906060015b60405180910390a15050565b600033610bfa81858561183883836137a6565b611842919061441e565b6138be565b336000908152610132602052604081205460ff166118775760405162461bcd60e51b8152600401610b43906145ef565b3360009081526101326020526040902054610100900460ff16156118ad5760405162461bcd60e51b8152600401610b4390614643565b6118b5610af5565b60008061192a34306001600160a01b031663bb6f98fb60006040518263ffffffff1660e01b81526004016118e991906146b5565b602060405180830381865afa158015611906573d6000803e3d6000fd5b505050506040513d601f19601f8201168201806040525081019061084a91906146c3565b9150915061193882336128ad565b610131546040516001600160a01b03909116903480156108fc02916000818181858888f193505050506119de5760405162461bcd60e51b815260206004820152604260248201527f54686572652077617320616e206572726f72206f6e2073656e64696e6720746860448201527f65204d4154494320696e766573746d656e7420746f2074686520747265617375606482015261727960f01b608482015260a401610b43565b60405163a9059cbb60e01b815233600482015260248101829052309063a9059cbb906044016020604051808303816000875af1158015611a22573d6000803e3d6000fd5b505050506040513d601f19601f82011682018060405250810190611a4691906146dc565b611a625760405162461bcd60e51b8152600401610b43906146f9565b336000908152610132602052604081206002018054849290611a8590849061441e565b9091555050336000908152610132602052604081206001018054839290611aad90849061441e565b909155505060408051338152346020820152908101839052606081018290527fe036cb252631bb3e3fbcb1aa359dd09f94f0dac1fe6de828e8bae3f5028331c59060800160405180910390a1600192505050611b09600160fb55565b90565b611b146139e2565b6001600160a01b038116611b7f5760405162461bcd60e51b815260206004820152602c60248201527f54686520746f6b656e20616464726573732063616e6e6f74206265207468652060448201526b7a65726f206164647265737360a01b6064820152608401610b43565b6001826004811115611b9357611b93614431565b03611c7d57610135546001600160a01b0390811690821603611c1a5760405162461bcd60e51b815260206004820152603a60248201527f5553444320746f6b656e20616464726573732068617320616c7265616479206260448201527965656e206d6f64696669656420746f20746861742076616c756560301b6064820152608401610b43565b61013580546001600160a01b0383166001600160a01b031991821681179092556101388054909116821790556040519081527f8b3f52c1d10699944ebee74ee29dca11c9c86bb0dbedef4abd6e737f613d4d3a9060200160405180910390a15050565b6002826004811115611c9157611c91614431565b03611d7457610139546001600160a01b0390811690821603611d185760405162461bcd60e51b815260206004820152603a60248201527f5553445420746f6b656e20616464726573732068617320616c7265616479206260448201527965656e206d6f64696669656420746f20746861742076616c756560301b6064820152608401610b43565b61013980546001600160a01b0383166001600160a01b0319918216811790925561013c8054909116821790556040519081527f1c2d8a05be2c8eca524d44cc224513d7e19ca97ac309c3e23bee450f8578ca1990602001611819565b6003826004811115611d8857611d88614431565b03611e6b5761013d546001600160a01b0390811690821603611e0f5760405162461bcd60e51b815260206004820152603a60248201527f5742544320746f6b656e20616464726573732068617320616c7265616479206260448201527965656e206d6f64696669656420746f20746861742076616c756560301b6064820152608401610b43565b61013d80546001600160a01b0383166001600160a01b031991821681179092556101408054909116821790556040519081527f95082f719648371f180ca4f9bad55a2ae7c2d029bbf93e360584ca6ea06327ea90602001611819565b6004826004811115611e7f57611e7f614431565b0361124d57610141546001600160a01b0390811690821603611f065760405162461bcd60e51b815260206004820152603a60248201527f5745544820746f6b656e20616464726573732068617320616c7265616479206260448201527965656e206d6f64696669656420746f20746861742076616c756560301b6064820152608401610b43565b61014180546001600160a01b0383166001600160a01b031991821681179092556101448054909116821790556040519081527ff5fd160f565ac0e80215e9eced5afbfcd47389e99858fac6a3d93f2ec38ff6d690602001611819565b5050565b611f6e6139e2565b611f76613d39565b565b60c9546001600160a01b0316331480611f9c5750610130546001600160a01b031633145b611fb85760405162461bcd60e51b8152600401610b4390614592565b6001600160a01b0381166120405760405162461bcd60e51b815260206004820152604360248201527f496e766573746f72206164647265737320746f2061646420746f20746865207760448201527f686974656c6973742063616e6e6f7420626520746865207a65726f206164647260648201526265737360e81b608482015260a401610b43565b6001600160a01b0381166000908152610132602052604090205460ff16156120d05760405162461bcd60e51b815260206004820152603d60248201527f5468617420696e766573746f7220616464726573732068617320616c7265616460448201527f79206265656e20616464656420746f207468652077686974656c6973740000006064820152608401610b43565b6040805160a08101825260006020808301828152838501838152606085018481526080860185815260018088526001600160a01b038a1680885261013287529689902088518154965195511515620100000262ff0000199615156101000261ff00199215159290921661ffff19909816979097171794909416949094178355905192820192909255905160029091015583513381529081019190915290917f8419b79dc227f7841e7bf32cea35c3f90fe5b3da68cde93adef3c32745c587de9101611819565b61219e6139e2565b6000811161220e5760405162461bcd60e51b815260206004820152603760248201527f4e6577206d6178696d756d20616d6f756e7420746f20696e766573742c206d7560448201527673742062652067726561746572207468616e207a65726f60481b6064820152608401610b43565b61012f8190556040518181527f29d434ec19958e7ce86ca2870f5927ab4f948d916dcffc568c1343c1e1f76566906020015b60405180910390a150565b6122536139e2565b6001600160a01b0381166122c45760405162461bcd60e51b815260206004820152603260248201527f5468652077686974656c697374657220616464726573732063616e6e6f7420626044820152716520746865207a65726f206164647265737360701b6064820152608401610b43565b610130546001600160a01b03908116908216036123495760405162461bcd60e51b815260206004820152603b60248201527f77686974656c697374657220616464726573732068617320616c72656164792060448201527f6265656e206d6f64696669656420746f20746861742076616c756500000000006064820152608401610b43565b61013080546001600160a01b0319166001600160a01b0383169081179091556040519081527f32359536720adedfb2b6c6dd7685519f09fdf93ce7824b68d5b2f56354fdebec90602001612240565b6123a06139e2565b611f766000613d8b565b336000908152610132602052604081205460ff166123da5760405162461bcd60e51b8152600401610b43906145ef565b3360009081526101326020526040902054610100900460ff16156124105760405162461bcd60e51b8152600401610b4390614643565b612418610af5565b600080600185600481111561242f5761242f614431565b036124b0576101385460405163bb6f98fb60e01b81526001600160a01b039091169250309063bb6f98fb906124689088906004016146b5565b602060405180830381865afa158015612485573d6000803e3d6000fd5b505050506040513d601f19601f820116820180604052508101906124a991906146c3565b9050612597565b60028560048111156124c4576124c4614431565b036124fd5761013c5460405163bb6f98fb60e01b81526001600160a01b039091169250309063bb6f98fb906124689088906004016146b5565b600385600481111561251157612511614431565b0361254a576101405460405163bb6f98fb60e01b81526001600160a01b039091169250309063bb6f98fb906124689088906004016146b5565b600485600481111561255e5761255e614431565b0361124d576101445460405163bb6f98fb60e01b81526001600160a01b039091169250309063bb6f98fb906124689088906004016146b5565b6000806125a48684612e88565b915091506125b282336128ad565b6040516323b872dd60e01b8152336004820152306024820152604481018790526001600160a01b038516906323b872dd906064016020604051808303816000875af1158015612605573d6000803e3d6000fd5b505050506040513d601f19601f8201168201806040525081019061262991906146dc565b6126925760405162461bcd60e51b815260206004820152603460248201527f54686572652077617320616e206572726f72206f6e20726563656976696e67206044820152731d1a19481d1bdad95b881a5b9d995cdd1b595b9d60621b6064820152608401610b43565b6101315460405163a9059cbb60e01b81526001600160a01b039182166004820152602481018890529085169063a9059cbb906044016020604051808303816000875af11580156126e6573d6000803e3d6000fd5b505050506040513d601f19601f8201168201806040525081019061270a91906146dc565b6127875760405162461bcd60e51b815260206004820152604260248201527f54686572652077617320616e206572726f72206f6e2073656e64696e6720746860448201527f6520746f6b656e20696e766573746d656e7420746f2074686520747265617375606482015261727960f01b608482015260a401610b43565b60405163a9059cbb60e01b815233600482015260248101829052309063a9059cbb906044016020604051808303816000875af11580156127cb573d6000803e3d6000fd5b505050506040513d601f19601f820116820180604052508101906127ef91906146dc565b61280b5760405162461bcd60e51b8152600401610b43906146f9565b33600090815261013260205260408120600201805484929061282e90849061441e565b909155505033600090815261013260205260408120600101805483929061285690849061441e565b90915550506040517f3b60324b6db90922773bde8799e6d3b7d574474a0fb52a6d340bd2ee92b5edbc9061289390899033908a9087908790614760565b60405180910390a16001945050505050610c00600160fb55565b6001600160a01b038116600090815261013260205260408120600201546128d4908461441e565b905061012f54811115612981576001600160a01b0382166000908152610132602052604090205462010000900460ff166129815760405162461bcd60e51b815260206004820152604260248201527f546f20627579207468617420616d6f756e74206f66204859415820697473207260448201527f6571756972656420746f2062652061207175616c696669656420696e7665737460648201526137b960f11b608482015260a401610b43565b505050565b600054610100900460ff16158080156129a65750600054600160ff909116105b806129c05750303b1580156129c0575060005460ff166001145b612a235760405162461bcd60e51b815260206004820152602e60248201527f496e697469616c697a61626c653a20636f6e747261637420697320616c72656160448201526d191e481a5b9a5d1a585b1a5e995960921b6064820152608401610b43565b6000805460ff191660011790558015612a46576000805461ff0019166101001790555b612a8d60405180604001604052806009815260200168242ca0ac2a37b5b2b760b91b81525060405180604001604052806004815260200163090b282b60e31b815250613ddd565b612a95613e0e565b612a9d613e3d565b612aa5613e6c565b612ac833612ab56012600a6143f8565b612ac390631dcd6500614407565b613a3c565b620927c061012d55612adc6012600a6143f8565b612ae7906001614407565b61012e55612af76012600a6143f8565b612b0390612710614407565b61012f5561013080546001600160a01b03199081167301c2f012de19e6436744c3f81f56e9e70c93a8c3179091556101318054821673350441f8a82680a785ffa9d3efea60bb4ca417f817905561013380548216721382149eba3441043c1c66972b4772963f5d439081179091556101348054831690911790556101358054821673f68054bfe5d45432ffca28ffa1f3d685d0456ddc90811790915561013680548316731b8739bb4cdf0089d07097a9ae5bd274b29c6f16908117909155610137805484169091179055610138805483169091179055610139805482167370e02fb82b6bc04f64099689b0599e14b44d4fbb90811790915561013a80548316733ac23dcb4ecfcbd24579e1f34542524d0e4edea890811790915561013b80548416909117905561013c80548316909117905561013d80548216733c8df3c48b3884da2ff25e17524282d60f9c3b9390811790915561013e8054831673e7656e23fe8077d438aefbec2fabdf2d8e070c4f90811790915561013f8054841690911790556101408054831690911790556101418054821673524a89ed77d5827320e35e12bca96830c6b7960a9081179091556101428054831673f0d50568e3a7e8259e16663972b11910f89bd8e790811790915561014380548416909117905561014480549092161790558015610e27576000805461ff0019169055604051600181527f7f26b83ff96e1f2b6a682f133852f6798a09c465da95921460cefb384740249890602001612240565b612d366139e2565b6001600160a01b038116612da45760405162461bcd60e51b815260206004820152602f60248201527f54686520747265617375727920616464726573732063616e6e6f74206265207460448201526e6865207a65726f206164647265737360881b6064820152608401610b43565b610131546001600160a01b0390811690821603612e295760405162461bcd60e51b815260206004820152603860248201527f547265617375727920616464726573732068617320616c72656164792062656560448201527f6e206d6f64696669656420746f20746861742076616c756500000000000000006064820152608401610b43565b61013180546001600160a01b0319166001600160a01b0383169081179091556040519081527f2e1e696cfb265fa16e1170d24ef04cb2262772bde00ecf34d80bae6722487b7f90602001612240565b612e806139e2565b611f76613e9b565b6000806305f5e100612e9a8486614407565b612ea4919061479a565b61012d54909250612eb9836305f5e100614407565b612ec3919061479a565b905061012e54821015612f485760405162461bcd60e51b815260206004820152604160248201527f54686520616d6f756e7420746f20696e76657374206d7573742062652067726560448201527f61746572207468616e20746865206d696e696d756d2065737461626c697368656064820152601960fa1b608482015260a401610b43565b30600090815260336020526040902054811115612fde5760405162461bcd60e51b815260206004820152604860248201527f54686520696e766573746d656e74206d6164652072657475726e7320616e206160448201527f6d6f756e74206f6620485941582067726561746572207468616e2074686520616064820152677661696c61626c6560c01b608482015260a401610b43565b9250929050565b606060378054610b69906142ca565b6000338161300282866137a6565b9050838110156130625760405162461bcd60e51b815260206004820152602560248201527f45524332303a2064656372656173656420616c6c6f77616e63652062656c6f77604482015264207a65726f60d81b6064820152608401610b43565b610e4382868684036138be565b600033610bfa818585613b83565b6130856139e2565b600081116130f55760405162461bcd60e51b815260206004820152603760248201527f4e6577206d696e696d756e20616d6f756e7420746f20696e766573742c206d7560448201527673742062652067726561746572207468616e207a65726f60481b6064820152608401610b43565b61012e8190556040518181527fee60eb8e40a2ec796bfe3ca896b9221af9764fc0987bf0508ca755266d9c85f890602001612240565b6131336139e2565b61012d5481036131a05760405162461bcd60e51b815260206004820152603260248201527f485941582070726963652068617320616c7265616479206265656e206d6f64696044820152716669656420746f20746861742076616c756560701b6064820152608401610b43565b6207a1208110156132305760405162461bcd60e51b815260206004820152604e60248201527f5072696365206f66204859415820746f6b656e206d757374206265206174206c60448201527f656173742055534420302e3030352c207468617420697320353030303030207760648201526d697468203820646563696d616c7360901b608482015260a401610b43565b64174876e8008111156132c95760405162461bcd60e51b815260206004820152605560248201527f5072696365206f66204859415820746f6b656e206d757374206265206174206d60448201527f6178696d756d2055534420313030302c2074686174206973203130303030303060648201527430303030302077697468203820646563696d616c7360581b608482015260a401610b43565b61012d8190556040518181527f4f6f7bbbb2b0dde2246ee6650672d1b55a5be5b52f8dd2e8d595f4bd47e1c91390602001612240565b60c9546001600160a01b03163314806133235750610130546001600160a01b031633145b61333f5760405162461bcd60e51b8152600401610b4390614592565b6001600160a01b0382166133ca5760405162461bcd60e51b815260206004820152604660248201527f496e766573746f72206164647265737320746f2075706461746520626c61636b60448201527f6c697374207374617475732063616e6e6f7420626520746865207a65726f206160648201526564647265737360d01b608482015260a401610b43565b6001600160a01b0382166000908152610132602052604090205481151561010090910460ff1615150361340f5760405162461bcd60e51b8152600401610b43906147bc565b6001600160a01b03821660008181526101326020908152604091829020805461ff00191661010086151590810291909117909155825133815291820193909352908101919091527f89a9c56967d4535d54c90bffd7cbd09f6d2a4c8e26b9e7f033f199d144e12b4e90606001611819565b6000808083600481111561349657613496614431565b036134ae5750610134546001600160a01b031661355a565b60018360048111156134c2576134c2614431565b036134da5750610137546001600160a01b031661355a565b60028360048111156134ee576134ee614431565b03613506575061013b546001600160a01b031661355a565b600383600481111561351a5761351a614431565b03613532575061013f546001600160a01b031661355a565b600483600481111561354657613546614431565b0361124d5750610143546001600160a01b03165b806001600160a01b031663feaf968c6040518163ffffffff1660e01b815260040160a060405180830381865afa9250505080156135b4575060408051601f3d908101601f191682019092526135b191810190614833565b60015b61361f5760405162461bcd60e51b815260206004820152603660248201527f54686572652077617320616e206572726f72206f627461696e696e67207468656044820152752070726963652066726f6d20746865206f7261636c6560501b6064820152608401610b43565b50919695505050505050565b50919050565b60c9546001600160a01b03163314806136555750610130546001600160a01b031633145b6136715760405162461bcd60e51b8152600401610b4390614592565b6001600160a01b0382166136fc5760405162461bcd60e51b815260206004820152604660248201527f496e766573746f72206164647265737320746f2075706461746520776869746560448201527f6c697374207374617475732063616e6e6f7420626520746865207a65726f206160648201526564647265737360d01b608482015260a401610b43565b6001600160a01b0382166000908152610132602052604090205481151560ff90911615150361373d5760405162461bcd60e51b8152600401610b43906147bc565b6001600160a01b03821660008181526101326020908152604091829020805460ff1916851515908117909155825133815291820193909352908101919091527f70bbee4e66e3fd40f7da099410cfd723ed4a0b4fec11f6cc968e850db827a88b90606001611819565b6001600160a01b03918216600090815260346020908152604080832093909416825291909152205490565b6137d96139e2565b6001600160a01b03811661383e5760405162461bcd60e51b815260206004820152602660248201527f4f776e61626c653a206e6577206f776e657220697320746865207a65726f206160448201526564647265737360d01b6064820152608401610b43565b306001600160a01b038216036138b55760405162461bcd60e51b815260206004820152603660248201527f4f776e61626c653a206e6577206f776e65722063616e6e6f74206265207468656044820152752073616d6520636f6e7472616374206164647265737360501b6064820152608401610b43565b610e2781613d8b565b6001600160a01b0383166139205760405162461bcd60e51b8152602060048201526024808201527f45524332303a20617070726f76652066726f6d20746865207a65726f206164646044820152637265737360e01b6064820152608401610b43565b6001600160a01b0382166139815760405162461bcd60e51b815260206004820152602260248201527f45524332303a20617070726f766520746f20746865207a65726f206164647265604482015261737360f01b6064820152608401610b43565b6001600160a01b0383811660008181526034602090815260408083209487168084529482529182902085905590518481527f8c5be1e5ebec7d5bd14f71427d1e84f3dd0314c0f7b2291e5b200ac8c7c3b925910160405180910390a3505050565b60c9546001600160a01b03163314611f765760405162461bcd60e51b815260206004820181905260248201527f4f776e61626c653a2063616c6c6572206973206e6f7420746865206f776e65726044820152606401610b43565b6001600160a01b038216613a925760405162461bcd60e51b815260206004820152601f60248201527f45524332303a206d696e7420746f20746865207a65726f2061646472657373006044820152606401610b43565b613a9e60008383613ed8565b8060356000828254613ab0919061441e565b90915550506001600160a01b0382166000818152603360209081526040808320805486019055518481527fddf252ad1be2c89b69c2b068fc378daa952ba7f163c4a11628f55a4df523b3ef910160405180910390a35050565b6000613b1584846137a6565b90506000198114613b7d5781811015613b705760405162461bcd60e51b815260206004820152601d60248201527f45524332303a20696e73756666696369656e7420616c6c6f77616e63650000006044820152606401610b43565b613b7d84848484036138be565b50505050565b6001600160a01b038316613be75760405162461bcd60e51b815260206004820152602560248201527f45524332303a207472616e736665722066726f6d20746865207a65726f206164604482015264647265737360d81b6064820152608401610b43565b6001600160a01b038216613c495760405162461bcd60e51b815260206004820152602360248201527f45524332303a207472616e7366657220746f20746865207a65726f206164647260448201526265737360e81b6064820152608401610b43565b613c54838383613ed8565b6001600160a01b03831660009081526033602052604090205481811015613ccc5760405162461bcd60e51b815260206004820152602660248201527f45524332303a207472616e7366657220616d6f756e7420657863656564732062604482015265616c616e636560d01b6064820152608401610b43565b6001600160a01b0380851660008181526033602052604080822086860390559286168082529083902080548601905591517fddf252ad1be2c89b69c2b068fc378daa952ba7f163c4a11628f55a4df523b3ef90613d2c9086815260200190565b60405180910390a3613b7d565b613d41613f3e565b6065805460ff191690557f5db9ee0a495bf2e6ff9c91a7834c1ba4fdd244a5e8aa4e537bd38aeae4b073aa335b6040516001600160a01b03909116815260200160405180910390a1565b60c980546001600160a01b038381166001600160a01b0319831681179093556040519116919082907f8be0079c531659141344cd1fd0a4f28419497f9722a3daafe3b4186f6b6457e090600090a35050565b600054610100900460ff16613e045760405162461bcd60e51b8152600401610b4390614883565b611f628282613f87565b600054610100900460ff16613e355760405162461bcd60e51b8152600401610b4390614883565b611f76613fc7565b600054610100900460ff16613e645760405162461bcd60e51b8152600401610b4390614883565b611f76613ff7565b600054610100900460ff16613e935760405162461bcd60e51b8152600401610b4390614883565b611f7661401e565b613ea3614051565b6065805460ff191660011790557f62e78cea01bee320cd4e420270b5ea74000d11b0c9f74754ebdbfc544b05a258613d6e3390565b60655460ff16156129815760405162461bcd60e51b815260206004820152602a60248201527f45524332305061757361626c653a20746f6b656e207472616e736665722077686044820152691a5b19481c185d5cd95960b21b6064820152608401610b43565b60655460ff16611f765760405162461bcd60e51b815260206004820152601460248201527314185d5cd8589b194e881b9bdd081c185d5cd95960621b6044820152606401610b43565b600054610100900460ff16613fae5760405162461bcd60e51b8152600401610b4390614883565b6036613fba838261491c565b506037612981828261491c565b600054610100900460ff16613fee5760405162461bcd60e51b8152600401610b4390614883565b611f7633613d8b565b600054610100900460ff16610b535760405162461bcd60e51b8152600401610b4390614883565b600054610100900460ff166140455760405162461bcd60e51b8152600401610b4390614883565b6065805460ff19169055565b60655460ff1615611f765760405162461bcd60e51b815260206004820152601060248201526f14185d5cd8589b194e881c185d5cd95960821b6044820152606401610b43565b60005b838110156140b257818101518382015260200161409a565b50506000910152565b60208152600082518060208401526140da816040850160208701614097565b601f01601f19169190910160400192915050565b80356001600160a01b038116811461410557600080fd5b919050565b6000806040838503121561411d57600080fd5b614126836140ee565b946020939093013593505050565b60006020828403121561414657600080fd5b5035919050565b60008060006060848603121561416257600080fd5b61416b846140ee565b9250614179602085016140ee565b9150604084013590509250925092565b80356005811061410557600080fd5b600080604083850312156141ab57600080fd5b6141b483614189565b91506141c2602084016140ee565b90509250929050565b8015158114610e2757600080fd5b600080604083850312156141ec57600080fd5b6141f5836140ee565b91506020830135614205816141cb565b809150509250929050565b60006020828403121561422257600080fd5b61422b826140ee565b9392505050565b6000806040838503121561424557600080fd5b61412683614189565b6000806040838503121561426157600080fd5b823591506141c2602084016140ee565b6000806040838503121561428457600080fd5b50508035926020909101359150565b6000602082840312156142a557600080fd5b61422b82614189565b600080604083850312156142c157600080fd5b6141b4836140ee565b600181811c908216806142de57607f821691505b60208210810361362b57634e487b7160e01b600052602260045260246000fd5b634e487b7160e01b600052601160045260246000fd5b600181815b8085111561434f578160001904821115614335576143356142fe565b8085161561434257918102915b93841c9390800290614319565b509250929050565b60008261436657506001610c00565b8161437357506000610c00565b81600181146143895760028114614393576143af565b6001915050610c00565b60ff8411156143a4576143a46142fe565b50506001821b610c00565b5060208310610133831016604e8410600b84101617156143d2575081810a610c00565b6143dc8383614314565b80600019048211156143f0576143f06142fe565b029392505050565b600061422b60ff841683614357565b8082028115828204841417610c0057610c006142fe565b80820180821115610c0057610c006142fe565b634e487b7160e01b600052602160045260246000fd5b634e487b7160e01b600052604160045260246000fd5b60006020828403121561446f57600080fd5b815167ffffffffffffffff8082111561448757600080fd5b818401915084601f83011261449b57600080fd5b8151818111156144ad576144ad614447565b604051601f8201601f19908116603f011681019083821181831017156144d5576144d5614447565b816040528281528760208487010111156144ee57600080fd5b6144ff836020830160208801614097565b979650505050505050565b60208082526046908201527f546865206e6577206164647265737320646f6573206e6f74207365656d20746f60408201527f2062656c6f6e6720746f2074686520636f72726563742070726963652064617460608201526518481999595960d21b608082015260a00190565b60008251614588818460208701614097565b9190910192915050565b6020808252603f908201527f46756e6374696f6e207265736572766564206f6e6c7920666f7220746865207760408201527f686974656c69737465722061646472657373206f7220746865206f776e657200606082015260800190565b60208082526034908201527f496e766573746f72206164647265737320686173206e6f74206265656e206164604082015273191959081d1bc81d1a19481dda1a5d195b1a5cdd60621b606082015260800190565b60208082526030908201527f496e766573746f72206164647265737320686173206265656e2061646465642060408201526f1d1bc81d1a1948189b1858dadb1a5cdd60821b606082015260800190565b600581106146b157634e487b7160e01b600052602160045260246000fd5b9052565b60208101610c008284614693565b6000602082840312156146d557600080fd5b5051919050565b6000602082840312156146ee57600080fd5b815161422b816141cb565b60208082526041908201527f54686572652077617320616e206572726f72206f6e2073656e64696e6720626160408201527f636b20746865204859415820546f6b656e20746f2074686520696e766573746f6060820152603960f91b608082015260a00190565b60a0810161476e8288614693565b6001600160a01b0395909516602082015260408101939093526060830191909152608090910152919050565b6000826147b757634e487b7160e01b600052601260045260246000fd5b500490565b60208082526038908201527f496e766573746f7220616464726573732068617320616c72656164792062656560408201527f6e207570646174656420746f2074686174207374617475730000000000000000606082015260800190565b805169ffffffffffffffffffff8116811461410557600080fd5b600080600080600060a0868803121561484b57600080fd5b61485486614819565b945060208601519350604086015192506060860151915061487760808701614819565b90509295509295909350565b6020808252602b908201527f496e697469616c697a61626c653a20636f6e7472616374206973206e6f74206960408201526a6e697469616c697a696e6760a81b606082015260800190565b601f82111561298157600081815260208120601f850160051c810160208610156148f55750805b601f850160051c820191505b8181101561491457828155600101614901565b505050505050565b815167ffffffffffffffff81111561493657614936614447565b61494a8161494484546142ca565b846148ce565b602080601f83116001811461497f57600084156149675750858301515b600019600386901b1c1916600185901b178555614914565b600085815260208120601f198616915b828110156149ae5788860151825594840194600190910190840161498f565b50858210156149cc5787850151600019600388901b60f8161c191681555b5050505050600190811b0190555056fe616479206265656e206d6f64696669656420746f20746861742076616c756500a26469706673582212204c399be4730e04edeed641c6f06ed8865870d9416e0e867af4dcea70e6f0be7b64736f6c63430008140033","opcodes":"PUSH1 0x80 PUSH1 0x40 MSTORE CALLVALUE DUP1 ISZERO PUSH2 0x10 JUMPI PUSH1 0x0 DUP1 REVERT JUMPDEST POP PUSH2 0x4A32 DUP1 PUSH2 0x20 PUSH1 0x0 CODECOPY PUSH1 0x0 RETURN INVALID PUSH1 0x80 PUSH1 0x40 MSTORE PUSH1 0x4 CALLDATASIZE LT PUSH2 0x36F JUMPI PUSH1 0x0 CALLDATALOAD PUSH1 0xE0 SHR DUP1 PUSH4 0x70A08231 GT PUSH2 0x1C6 JUMPI DUP1 PUSH4 0xA457C2D7 GT PUSH2 0xF7 JUMPI DUP1 PUSH4 0xC07732A3 GT PUSH2 0x95 JUMPI DUP1 PUSH4 0xDE1F5346 GT PUSH2 0x6F JUMPI DUP1 PUSH4 0xDE1F5346 EQ PUSH2 0xA10 JUMPI DUP1 PUSH4 0xF2FDE38B EQ PUSH2 0xA93 JUMPI DUP1 PUSH4 0xF7A47F81 EQ PUSH2 0xAB3 JUMPI DUP1 PUSH4 0xFB2DC76E EQ PUSH2 0xAD4 JUMPI PUSH1 0x0 DUP1 REVERT JUMPDEST DUP1 PUSH4 0xC07732A3 EQ PUSH2 0x9AF JUMPI DUP1 PUSH4 0xC5F956AF EQ PUSH2 0x9CF JUMPI DUP1 PUSH4 0xDD62ED3E EQ PUSH2 0x9F0 JUMPI PUSH1 0x0 DUP1 REVERT JUMPDEST DUP1 PUSH4 0xB2C568F3 GT PUSH2 0xD1 JUMPI DUP1 PUSH4 0xB2C568F3 EQ PUSH2 0x92F JUMPI DUP1 PUSH4 0xB40ED449 EQ PUSH2 0x94F JUMPI DUP1 PUSH4 0xB8360806 EQ PUSH2 0x96F JUMPI DUP1 PUSH4 0xBB6F98FB EQ PUSH2 0x98F JUMPI PUSH1 0x0 DUP1 REVERT JUMPDEST DUP1 PUSH4 0xA457C2D7 EQ PUSH2 0x8CE JUMPI DUP1 PUSH4 0xA9059CBB EQ PUSH2 0x8EE JUMPI DUP1 PUSH4 0xA98AD46C EQ PUSH2 0x90E JUMPI PUSH1 0x0 DUP1 REVERT JUMPDEST DUP1 PUSH4 0x841E4561 GT PUSH2 0x164 JUMPI DUP1 PUSH4 0x8DA5CB5B GT PUSH2 0x13E JUMPI DUP1 PUSH4 0x8DA5CB5B EQ PUSH2 0x864 JUMPI DUP1 PUSH4 0x95D89B41 EQ PUSH2 0x882 JUMPI DUP1 PUSH4 0x9D741E5D EQ PUSH2 0x897 JUMPI DUP1 PUSH4 0x9D7F7E86 EQ PUSH2 0x8B8 JUMPI PUSH1 0x0 DUP1 REVERT JUMPDEST DUP1 PUSH4 0x841E4561 EQ PUSH2 0x7FA JUMPI DUP1 PUSH4 0x8456CB59 EQ PUSH2 0x81A JUMPI DUP1 PUSH4 0x8C945E63 EQ PUSH2 0x82F JUMPI PUSH1 0x0 DUP1 REVERT JUMPDEST DUP1 PUSH4 0x77B53ECE GT PUSH2 0x1A0 JUMPI DUP1 PUSH4 0x77B53ECE EQ PUSH2 0x78D JUMPI DUP1 PUSH4 0x8049BCB6 EQ PUSH2 0x7AE JUMPI DUP1 PUSH4 0x8116DE2B EQ PUSH2 0x7C5 JUMPI DUP1 PUSH4 0x8129FC1C EQ PUSH2 0x7E5 JUMPI PUSH1 0x0 DUP1 REVERT JUMPDEST DUP1 PUSH4 0x70A08231 EQ PUSH2 0x722 JUMPI DUP1 PUSH4 0x715018A6 EQ PUSH2 0x758 JUMPI DUP1 PUSH4 0x731DE514 EQ PUSH2 0x76D JUMPI PUSH1 0x0 DUP1 REVERT JUMPDEST DUP1 PUSH4 0x377C779F GT PUSH2 0x2A0 JUMPI DUP1 PUSH4 0x4B57B0BE GT PUSH2 0x23E JUMPI DUP1 PUSH4 0x5C975ABB GT PUSH2 0x218 JUMPI DUP1 PUSH4 0x5C975ABB EQ PUSH2 0x6A9 JUMPI DUP1 PUSH4 0x5EC2562A EQ PUSH2 0x6C1 JUMPI DUP1 PUSH4 0x653C3A47 EQ PUSH2 0x6E1 JUMPI DUP1 PUSH4 0x65699D28 EQ PUSH2 0x701 JUMPI PUSH1 0x0 DUP1 REVERT JUMPDEST DUP1 PUSH4 0x4B57B0BE EQ PUSH2 0x646 JUMPI DUP1 PUSH4 0x4C526BDB EQ PUSH2 0x667 JUMPI DUP1 PUSH4 0x5AE9384E EQ PUSH2 0x688 JUMPI PUSH1 0x0 DUP1 REVERT JUMPDEST DUP1 PUSH4 0x3DE6F379 GT PUSH2 0x27A JUMPI DUP1 PUSH4 0x3DE6F379 EQ PUSH2 0x5D0 JUMPI DUP1 PUSH4 0x3F4BA83A EQ PUSH2 0x5F0 JUMPI DUP1 PUSH4 0x40B5EA9C EQ PUSH2 0x605 JUMPI DUP1 PUSH4 0x47EE0394 EQ PUSH2 0x626 JUMPI PUSH1 0x0 DUP1 REVERT JUMPDEST DUP1 PUSH4 0x377C779F EQ PUSH2 0x591 JUMPI DUP1 PUSH4 0x39509351 EQ PUSH2 0x5A8 JUMPI DUP1 PUSH4 0x3B14F359 EQ PUSH2 0x5C8 JUMPI PUSH1 0x0 DUP1 REVERT JUMPDEST DUP1 PUSH4 0x1B28D63E GT PUSH2 0x30D JUMPI DUP1 PUSH4 0x27614DF8 GT PUSH2 0x2E7 JUMPI DUP1 PUSH4 0x27614DF8 EQ PUSH2 0x51D JUMPI DUP1 PUSH4 0x2A241AD3 EQ PUSH2 0x53E JUMPI DUP1 PUSH4 0x313CE567 EQ PUSH2 0x555 JUMPI DUP1 PUSH4 0x367F44FB EQ PUSH2 0x571 JUMPI PUSH1 0x0 DUP1 REVERT JUMPDEST DUP1 PUSH4 0x1B28D63E EQ PUSH2 0x4A2 JUMPI DUP1 PUSH4 0x23B872DD EQ PUSH2 0x4DD JUMPI DUP1 PUSH4 0x23C66F9A EQ PUSH2 0x4FD JUMPI PUSH1 0x0 DUP1 REVERT JUMPDEST DUP1 PUSH4 0xF9DAD71 GT PUSH2 0x349 JUMPI DUP1 PUSH4 0xF9DAD71 EQ PUSH2 0x421 JUMPI DUP1 PUSH4 0x11EAC855 EQ PUSH2 0x442 JUMPI DUP1 PUSH4 0x128EF022 EQ PUSH2 0x463 JUMPI DUP1 PUSH4 0x18160DDD EQ PUSH2 0x483 JUMPI PUSH1 0x0 DUP1 REVERT JUMPDEST DUP1 PUSH4 0x6FDDE03 EQ PUSH2 0x38D JUMPI DUP1 PUSH4 0x8CD468F EQ PUSH2 0x3B8 JUMPI DUP1 PUSH4 0x95EA7B3 EQ PUSH2 0x3F1 JUMPI PUSH1 0x0 DUP1 REVERT JUMPDEST CALLDATASIZE PUSH2 0x388 JUMPI PUSH2 0x37C PUSH2 0xAF5 JUMP JUMPDEST PUSH2 0x386 PUSH1 0x1 PUSH1 0xFB SSTORE JUMP JUMPDEST STOP JUMPDEST PUSH1 0x0 DUP1 REVERT JUMPDEST CALLVALUE DUP1 ISZERO PUSH2 0x399 JUMPI PUSH1 0x0 DUP1 REVERT JUMPDEST POP PUSH2 0x3A2 PUSH2 0xB5A JUMP JUMPDEST PUSH1 0x40 MLOAD PUSH2 0x3AF SWAP2 SWAP1 PUSH2 0x40BB JUMP JUMPDEST PUSH1 0x40 MLOAD DUP1 SWAP2 SUB SWAP1 RETURN JUMPDEST CALLVALUE DUP1 ISZERO PUSH2 0x3C4 JUMPI PUSH1 0x0 DUP1 REVERT JUMPDEST POP PUSH2 0x13A SLOAD PUSH2 0x3D9 SWAP1 PUSH1 0x1 PUSH1 0x1 PUSH1 0xA0 SHL SUB AND DUP2 JUMP JUMPDEST PUSH1 0x40 MLOAD PUSH1 0x1 PUSH1 0x1 PUSH1 0xA0 SHL SUB SWAP1 SWAP2 AND DUP2 MSTORE PUSH1 0x20 ADD PUSH2 0x3AF JUMP JUMPDEST CALLVALUE DUP1 ISZERO PUSH2 0x3FD JUMPI PUSH1 0x0 DUP1 REVERT JUMPDEST POP PUSH2 0x411 PUSH2 0x40C CALLDATASIZE PUSH1 0x4 PUSH2 0x410A JUMP JUMPDEST PUSH2 0xBEC JUMP JUMPDEST PUSH1 0x40 MLOAD SWAP1 ISZERO ISZERO DUP2 MSTORE PUSH1 0x20 ADD PUSH2 0x3AF JUMP JUMPDEST CALLVALUE DUP1 ISZERO PUSH2 0x42D JUMPI PUSH1 0x0 DUP1 REVERT JUMPDEST POP PUSH2 0x141 SLOAD PUSH2 0x3D9 SWAP1 PUSH1 0x1 PUSH1 0x1 PUSH1 0xA0 SHL SUB AND DUP2 JUMP JUMPDEST CALLVALUE DUP1 ISZERO PUSH2 0x44E JUMPI PUSH1 0x0 DUP1 REVERT JUMPDEST POP PUSH2 0x138 SLOAD PUSH2 0x3D9 SWAP1 PUSH1 0x1 PUSH1 0x1 PUSH1 0xA0 SHL SUB AND DUP2 JUMP JUMPDEST CALLVALUE DUP1 ISZERO PUSH2 0x46F JUMPI PUSH1 0x0 DUP1 REVERT JUMPDEST POP PUSH2 0x386 PUSH2 0x47E CALLDATASIZE PUSH1 0x4 PUSH2 0x4134 JUMP JUMPDEST PUSH2 0xC06 JUMP JUMPDEST CALLVALUE DUP1 ISZERO PUSH2 0x48F JUMPI PUSH1 0x0 DUP1 REVERT JUMPDEST POP PUSH1 0x35 SLOAD JUMPDEST PUSH1 0x40 MLOAD SWAP1 DUP2 MSTORE PUSH1 0x20 ADD PUSH2 0x3AF JUMP JUMPDEST CALLVALUE DUP1 ISZERO PUSH2 0x4AE JUMPI PUSH1 0x0 DUP1 REVERT JUMPDEST POP PUSH1 0x40 DUP1 MLOAD DUP1 DUP3 ADD SWAP1 SWAP2 MSTORE PUSH1 0x12 DUP2 MSTORE PUSH18 0x2732BB90333AB731BA34B7B71034B7102B19 PUSH1 0x71 SHL PUSH1 0x20 DUP3 ADD MSTORE PUSH2 0x3A2 JUMP JUMPDEST CALLVALUE DUP1 ISZERO PUSH2 0x4E9 JUMPI PUSH1 0x0 DUP1 REVERT JUMPDEST POP PUSH2 0x411 PUSH2 0x4F8 CALLDATASIZE PUSH1 0x4 PUSH2 0x414D JUMP JUMPDEST PUSH2 0xE2A JUMP JUMPDEST CALLVALUE DUP1 ISZERO PUSH2 0x509 JUMPI PUSH1 0x0 DUP1 REVERT JUMPDEST POP PUSH2 0x386 PUSH2 0x518 CALLDATASIZE PUSH1 0x4 PUSH2 0x4198 JUMP JUMPDEST PUSH2 0xE4E JUMP JUMPDEST CALLVALUE DUP1 ISZERO PUSH2 0x529 JUMPI PUSH1 0x0 DUP1 REVERT JUMPDEST POP PUSH2 0x140 SLOAD PUSH2 0x3D9 SWAP1 PUSH1 0x1 PUSH1 0x1 PUSH1 0xA0 SHL SUB AND DUP2 JUMP JUMPDEST CALLVALUE DUP1 ISZERO PUSH2 0x54A JUMPI PUSH1 0x0 DUP1 REVERT JUMPDEST POP PUSH2 0x494 PUSH2 0x12E SLOAD DUP2 JUMP JUMPDEST CALLVALUE DUP1 ISZERO PUSH2 0x561 JUMPI PUSH1 0x0 DUP1 REVERT JUMPDEST POP PUSH1 0x40 MLOAD PUSH1 0x12 DUP2 MSTORE PUSH1 0x20 ADD PUSH2 0x3AF JUMP JUMPDEST CALLVALUE DUP1 ISZERO PUSH2 0x57D JUMPI PUSH1 0x0 DUP1 REVERT JUMPDEST POP PUSH2 0x386 PUSH2 0x58C CALLDATASIZE PUSH1 0x4 PUSH2 0x41D9 JUMP JUMPDEST PUSH2 0x15AB JUMP JUMPDEST CALLVALUE DUP1 ISZERO PUSH2 0x59D JUMPI PUSH1 0x0 DUP1 REVERT JUMPDEST POP PUSH2 0x494 PUSH2 0x12D SLOAD DUP2 JUMP JUMPDEST CALLVALUE DUP1 ISZERO PUSH2 0x5B4 JUMPI PUSH1 0x0 DUP1 REVERT JUMPDEST POP PUSH2 0x411 PUSH2 0x5C3 CALLDATASIZE PUSH1 0x4 PUSH2 0x410A JUMP JUMPDEST PUSH2 0x1825 JUMP JUMPDEST PUSH2 0x411 PUSH2 0x1847 JUMP JUMPDEST CALLVALUE DUP1 ISZERO PUSH2 0x5DC JUMPI PUSH1 0x0 DUP1 REVERT JUMPDEST POP PUSH2 0x386 PUSH2 0x5EB CALLDATASIZE PUSH1 0x4 PUSH2 0x4198 JUMP JUMPDEST PUSH2 0x1B0C JUMP JUMPDEST CALLVALUE DUP1 ISZERO PUSH2 0x5FC JUMPI PUSH1 0x0 DUP1 REVERT JUMPDEST POP PUSH2 0x386 PUSH2 0x1F66 JUMP JUMPDEST CALLVALUE DUP1 ISZERO PUSH2 0x611 JUMPI PUSH1 0x0 DUP1 REVERT JUMPDEST POP PUSH2 0x136 SLOAD PUSH2 0x3D9 SWAP1 PUSH1 0x1 PUSH1 0x1 PUSH1 0xA0 SHL SUB AND DUP2 JUMP JUMPDEST CALLVALUE DUP1 ISZERO PUSH2 0x632 JUMPI PUSH1 0x0 DUP1 REVERT JUMPDEST POP PUSH2 0x386 PUSH2 0x641 CALLDATASIZE PUSH1 0x4 PUSH2 0x4210 JUMP JUMPDEST PUSH2 0x1F78 JUMP JUMPDEST CALLVALUE DUP1 ISZERO PUSH2 0x652 JUMPI PUSH1 0x0 DUP1 REVERT JUMPDEST POP PUSH2 0x144 SLOAD PUSH2 0x3D9 SWAP1 PUSH1 0x1 PUSH1 0x1 PUSH1 0xA0 SHL SUB AND DUP2 JUMP JUMPDEST CALLVALUE DUP1 ISZERO PUSH2 0x673 JUMPI PUSH1 0x0 DUP1 REVERT JUMPDEST POP PUSH2 0x13D SLOAD PUSH2 0x3D9 SWAP1 PUSH1 0x1 PUSH1 0x1 PUSH1 0xA0 SHL SUB AND DUP2 JUMP JUMPDEST CALLVALUE DUP1 ISZERO PUSH2 0x694 JUMPI PUSH1 0x0 DUP1 REVERT JUMPDEST POP PUSH2 0x142 SLOAD PUSH2 0x3D9 SWAP1 PUSH1 0x1 PUSH1 0x1 PUSH1 0xA0 SHL SUB AND DUP2 JUMP JUMPDEST CALLVALUE DUP1 ISZERO PUSH2 0x6B5 JUMPI PUSH1 0x0 DUP1 REVERT JUMPDEST POP PUSH1 0x65 SLOAD PUSH1 0xFF AND PUSH2 0x411 JUMP JUMPDEST CALLVALUE DUP1 ISZERO PUSH2 0x6CD JUMPI PUSH1 0x0 DUP1 REVERT JUMPDEST POP PUSH2 0x386 PUSH2 0x6DC CALLDATASIZE PUSH1 0x4 PUSH2 0x4134 JUMP JUMPDEST PUSH2 0x2196 JUMP JUMPDEST CALLVALUE DUP1 ISZERO PUSH2 0x6ED JUMPI PUSH1 0x0 DUP1 REVERT JUMPDEST POP PUSH2 0x386 PUSH2 0x6FC CALLDATASIZE PUSH1 0x4 PUSH2 0x4210 JUMP JUMPDEST PUSH2 0x224B JUMP JUMPDEST CALLVALUE DUP1 ISZERO PUSH2 0x70D JUMPI PUSH1 0x0 DUP1 REVERT JUMPDEST POP PUSH2 0x130 SLOAD PUSH2 0x3D9 SWAP1 PUSH1 0x1 PUSH1 0x1 PUSH1 0xA0 SHL SUB AND DUP2 JUMP JUMPDEST CALLVALUE DUP1 ISZERO PUSH2 0x72E JUMPI PUSH1 0x0 DUP1 REVERT JUMPDEST POP PUSH2 0x494 PUSH2 0x73D CALLDATASIZE PUSH1 0x4 PUSH2 0x4210 JUMP JUMPDEST PUSH1 0x1 PUSH1 0x1 PUSH1 0xA0 SHL SUB AND PUSH1 0x0 SWAP1 DUP2 MSTORE PUSH1 0x33 PUSH1 0x20 MSTORE PUSH1 0x40 SWAP1 KECCAK256 SLOAD SWAP1 JUMP JUMPDEST CALLVALUE DUP1 ISZERO PUSH2 0x764 JUMPI PUSH1 0x0 DUP1 REVERT JUMPDEST POP PUSH2 0x386 PUSH2 0x2398 JUMP JUMPDEST CALLVALUE DUP1 ISZERO PUSH2 0x779 JUMPI PUSH1 0x0 DUP1 REVERT JUMPDEST POP PUSH2 0x411 PUSH2 0x788 CALLDATASIZE PUSH1 0x4 PUSH2 0x4232 JUMP JUMPDEST PUSH2 0x23AA JUMP JUMPDEST CALLVALUE DUP1 ISZERO PUSH2 0x799 JUMPI PUSH1 0x0 DUP1 REVERT JUMPDEST POP PUSH2 0x135 SLOAD PUSH2 0x3D9 SWAP1 PUSH1 0x1 PUSH1 0x1 PUSH1 0xA0 SHL SUB AND DUP2 JUMP JUMPDEST CALLVALUE DUP1 ISZERO PUSH2 0x7BA JUMPI PUSH1 0x0 DUP1 REVERT JUMPDEST POP PUSH2 0x494 PUSH2 0x12F SLOAD DUP2 JUMP JUMPDEST CALLVALUE DUP1 ISZERO PUSH2 0x7D1 JUMPI PUSH1 0x0 DUP1 REVERT JUMPDEST POP PUSH2 0x386 PUSH2 0x7E0 CALLDATASIZE PUSH1 0x4 PUSH2 0x424E JUMP JUMPDEST PUSH2 0x28AD JUMP JUMPDEST CALLVALUE DUP1 ISZERO PUSH2 0x7F1 JUMPI PUSH1 0x0 DUP1 REVERT JUMPDEST POP PUSH2 0x386 PUSH2 0x2986 JUMP JUMPDEST CALLVALUE DUP1 ISZERO PUSH2 0x806 JUMPI PUSH1 0x0 DUP1 REVERT JUMPDEST POP PUSH2 0x386 PUSH2 0x815 CALLDATASIZE PUSH1 0x4 PUSH2 0x4210 JUMP JUMPDEST PUSH2 0x2D2E JUMP JUMPDEST CALLVALUE DUP1 ISZERO PUSH2 0x826 JUMPI PUSH1 0x0 DUP1 REVERT JUMPDEST POP PUSH2 0x386 PUSH2 0x2E78 JUMP JUMPDEST CALLVALUE DUP1 ISZERO PUSH2 0x83B JUMPI PUSH1 0x0 DUP1 REVERT JUMPDEST POP PUSH2 0x84F PUSH2 0x84A CALLDATASIZE PUSH1 0x4 PUSH2 0x4271 JUMP JUMPDEST PUSH2 0x2E88 JUMP JUMPDEST PUSH1 0x40 DUP1 MLOAD SWAP3 DUP4 MSTORE PUSH1 0x20 DUP4 ADD SWAP2 SWAP1 SWAP2 MSTORE ADD PUSH2 0x3AF JUMP JUMPDEST CALLVALUE DUP1 ISZERO PUSH2 0x870 JUMPI PUSH1 0x0 DUP1 REVERT JUMPDEST POP PUSH1 0xC9 SLOAD PUSH1 0x1 PUSH1 0x1 PUSH1 0xA0 SHL SUB AND PUSH2 0x3D9 JUMP JUMPDEST CALLVALUE DUP1 ISZERO PUSH2 0x88E JUMPI PUSH1 0x0 DUP1 REVERT JUMPDEST POP PUSH2 0x3A2 PUSH2 0x2FE5 JUMP JUMPDEST CALLVALUE DUP1 ISZERO PUSH2 0x8A3 JUMPI PUSH1 0x0 DUP1 REVERT JUMPDEST POP PUSH2 0x139 SLOAD PUSH2 0x3D9 SWAP1 PUSH1 0x1 PUSH1 0x1 PUSH1 0xA0 SHL SUB AND DUP2 JUMP JUMPDEST CALLVALUE DUP1 ISZERO PUSH2 0x8C4 JUMPI PUSH1 0x0 DUP1 REVERT JUMPDEST POP PUSH2 0x494 PUSH2 0xE10 DUP2 JUMP JUMPDEST CALLVALUE DUP1 ISZERO PUSH2 0x8DA JUMPI PUSH1 0x0 DUP1 REVERT JUMPDEST POP PUSH2 0x411 PUSH2 0x8E9 CALLDATASIZE PUSH1 0x4 PUSH2 0x410A JUMP JUMPDEST PUSH2 0x2FF4 JUMP JUMPDEST CALLVALUE DUP1 ISZERO PUSH2 0x8FA JUMPI PUSH1 0x0 DUP1 REVERT JUMPDEST POP PUSH2 0x411 PUSH2 0x909 CALLDATASIZE PUSH1 0x4 PUSH2 0x410A JUMP JUMPDEST PUSH2 0x306F JUMP JUMPDEST CALLVALUE DUP1 ISZERO PUSH2 0x91A JUMPI PUSH1 0x0 DUP1 REVERT JUMPDEST POP PUSH2 0x13C SLOAD PUSH2 0x3D9 SWAP1 PUSH1 0x1 PUSH1 0x1 PUSH1 0xA0 SHL SUB AND DUP2 JUMP JUMPDEST CALLVALUE DUP1 ISZERO PUSH2 0x93B JUMPI PUSH1 0x0 DUP1 REVERT JUMPDEST POP PUSH2 0x386 PUSH2 0x94A CALLDATASIZE PUSH1 0x4 PUSH2 0x4134 JUMP JUMPDEST PUSH2 0x307D JUMP JUMPDEST CALLVALUE DUP1 ISZERO PUSH2 0x95B JUMPI PUSH1 0x0 DUP1 REVERT JUMPDEST POP PUSH2 0x386 PUSH2 0x96A CALLDATASIZE PUSH1 0x4 PUSH2 0x4134 JUMP JUMPDEST PUSH2 0x312B JUMP JUMPDEST CALLVALUE DUP1 ISZERO PUSH2 0x97B JUMPI PUSH1 0x0 DUP1 REVERT JUMPDEST POP PUSH2 0x386 PUSH2 0x98A CALLDATASIZE PUSH1 0x4 PUSH2 0x41D9 JUMP JUMPDEST PUSH2 0x32FF JUMP JUMPDEST CALLVALUE DUP1 ISZERO PUSH2 0x99B JUMPI PUSH1 0x0 DUP1 REVERT JUMPDEST POP PUSH2 0x494 PUSH2 0x9AA CALLDATASIZE PUSH1 0x4 PUSH2 0x4293 JUMP JUMPDEST PUSH2 0x3480 JUMP JUMPDEST CALLVALUE DUP1 ISZERO PUSH2 0x9BB JUMPI PUSH1 0x0 DUP1 REVERT JUMPDEST POP PUSH2 0x386 PUSH2 0x9CA CALLDATASIZE PUSH1 0x4 PUSH2 0x41D9 JUMP JUMPDEST PUSH2 0x3631 JUMP JUMPDEST CALLVALUE DUP1 ISZERO PUSH2 0x9DB JUMPI PUSH1 0x0 DUP1 REVERT JUMPDEST POP PUSH2 0x131 SLOAD PUSH2 0x3D9 SWAP1 PUSH1 0x1 PUSH1 0x1 PUSH1 0xA0 SHL SUB AND DUP2 JUMP JUMPDEST CALLVALUE DUP1 ISZERO PUSH2 0x9FC JUMPI PUSH1 0x0 DUP1 REVERT JUMPDEST POP PUSH2 0x494 PUSH2 0xA0B CALLDATASIZE PUSH1 0x4 PUSH2 0x42AE JUMP JUMPDEST PUSH2 0x37A6 JUMP JUMPDEST CALLVALUE DUP1 ISZERO PUSH2 0xA1C JUMPI PUSH1 0x0 DUP1 REVERT JUMPDEST POP PUSH2 0xA62 PUSH2 0xA2B CALLDATASIZE PUSH1 0x4 PUSH2 0x4210 JUMP JUMPDEST PUSH2 0x132 PUSH1 0x20 MSTORE PUSH1 0x0 SWAP1 DUP2 MSTORE PUSH1 0x40 SWAP1 KECCAK256 DUP1 SLOAD PUSH1 0x1 DUP3 ADD SLOAD PUSH1 0x2 SWAP1 SWAP3 ADD SLOAD PUSH1 0xFF DUP1 DUP4 AND SWAP4 PUSH2 0x100 DUP5 DIV DUP3 AND SWAP4 PUSH3 0x10000 SWAP1 DIV SWAP1 SWAP2 AND SWAP2 DUP6 JUMP JUMPDEST PUSH1 0x40 MLOAD PUSH2 0x3AF SWAP6 SWAP5 SWAP4 SWAP3 SWAP2 SWAP1 SWAP5 ISZERO ISZERO DUP6 MSTORE SWAP3 ISZERO ISZERO PUSH1 0x20 DUP6 ADD MSTORE SWAP1 ISZERO ISZERO PUSH1 0x40 DUP5 ADD MSTORE PUSH1 0x60 DUP4 ADD MSTORE PUSH1 0x80 DUP3 ADD MSTORE PUSH1 0xA0 ADD SWAP1 JUMP JUMPDEST CALLVALUE DUP1 ISZERO PUSH2 0xA9F JUMPI PUSH1 0x0 DUP1 REVERT JUMPDEST POP PUSH2 0x386 PUSH2 0xAAE CALLDATASIZE PUSH1 0x4 PUSH2 0x4210 JUMP JUMPDEST PUSH2 0x37D1 JUMP JUMPDEST CALLVALUE DUP1 ISZERO PUSH2 0xABF JUMPI PUSH1 0x0 DUP1 REVERT JUMPDEST POP PUSH2 0x13E SLOAD PUSH2 0x3D9 SWAP1 PUSH1 0x1 PUSH1 0x1 PUSH1 0xA0 SHL SUB AND DUP2 JUMP JUMPDEST CALLVALUE DUP1 ISZERO PUSH2 0xAE0 JUMPI PUSH1 0x0 DUP1 REVERT JUMPDEST POP PUSH2 0x133 SLOAD PUSH2 0x3D9 SWAP1 PUSH1 0x1 PUSH1 0x1 PUSH1 0xA0 SHL SUB AND DUP2 JUMP JUMPDEST PUSH1 0x2 PUSH1 0xFB SLOAD SUB PUSH2 0xB4C JUMPI PUSH1 0x40 MLOAD PUSH3 0x461BCD PUSH1 0xE5 SHL DUP2 MSTORE PUSH1 0x20 PUSH1 0x4 DUP3 ADD MSTORE PUSH1 0x1F PUSH1 0x24 DUP3 ADD MSTORE PUSH32 0x5265656E7472616E637947756172643A207265656E7472616E742063616C6C00 PUSH1 0x44 DUP3 ADD MSTORE PUSH1 0x64 ADD JUMPDEST PUSH1 0x40 MLOAD DUP1 SWAP2 SUB SWAP1 REVERT JUMPDEST PUSH1 0x2 PUSH1 0xFB SSTORE JUMP JUMPDEST PUSH1 0x1 PUSH1 0xFB SSTORE JUMP JUMPDEST PUSH1 0x60 PUSH1 0x36 DUP1 SLOAD PUSH2 0xB69 SWAP1 PUSH2 0x42CA JUMP JUMPDEST DUP1 PUSH1 0x1F ADD PUSH1 0x20 DUP1 SWAP2 DIV MUL PUSH1 0x20 ADD PUSH1 0x40 MLOAD SWAP1 DUP2 ADD PUSH1 0x40 MSTORE DUP1 SWAP3 SWAP2 SWAP1 DUP2 DUP2 MSTORE PUSH1 0x20 ADD DUP3 DUP1 SLOAD PUSH2 0xB95 SWAP1 PUSH2 0x42CA JUMP JUMPDEST DUP1 ISZERO PUSH2 0xBE2 JUMPI DUP1 PUSH1 0x1F LT PUSH2 0xBB7 JUMPI PUSH2 0x100 DUP1 DUP4 SLOAD DIV MUL DUP4 MSTORE SWAP2 PUSH1 0x20 ADD SWAP2 PUSH2 0xBE2 JUMP JUMPDEST DUP3 ADD SWAP2 SWAP1 PUSH1 0x0 MSTORE PUSH1 0x20 PUSH1 0x0 KECCAK256 SWAP1 JUMPDEST DUP2 SLOAD DUP2 MSTORE SWAP1 PUSH1 0x1 ADD SWAP1 PUSH1 0x20 ADD DUP1 DUP4 GT PUSH2 0xBC5 JUMPI DUP3 SWAP1 SUB PUSH1 0x1F AND DUP3 ADD SWAP2 JUMPDEST POP POP POP POP POP SWAP1 POP SWAP1 JUMP JUMPDEST PUSH1 0x0 CALLER PUSH2 0xBFA DUP2 DUP6 DUP6 PUSH2 0x38BE JUMP JUMPDEST PUSH1 0x1 SWAP2 POP POP JUMPDEST SWAP3 SWAP2 POP POP JUMP JUMPDEST PUSH2 0xC0E PUSH2 0x39E2 JUMP JUMPDEST PUSH2 0xC16 PUSH2 0xAF5 JUMP JUMPDEST PUSH2 0xC22 PUSH1 0x12 PUSH1 0xA PUSH2 0x43F8 JUMP JUMPDEST DUP2 LT ISZERO PUSH2 0xC97 JUMPI PUSH1 0x40 MLOAD PUSH3 0x461BCD PUSH1 0xE5 SHL DUP2 MSTORE PUSH1 0x20 PUSH1 0x4 DUP3 ADD MSTORE PUSH1 0x37 PUSH1 0x24 DUP3 ADD MSTORE PUSH32 0x416D6F756E74206F66204859415820746F6B656E7320746F206973737565206D PUSH1 0x44 DUP3 ADD MSTORE PUSH32 0x757374206265206174206C65617374203120746F6B656E000000000000000000 PUSH1 0x64 DUP3 ADD MSTORE PUSH1 0x84 ADD PUSH2 0xB43 JUMP JUMPDEST PUSH2 0xCA3 PUSH1 0x12 PUSH1 0xA PUSH2 0x43F8 JUMP JUMPDEST PUSH2 0xCB1 SWAP1 PUSH4 0x3B9ACA00 PUSH2 0x4407 JUMP JUMPDEST DUP2 GT ISZERO PUSH2 0xD26 JUMPI PUSH1 0x40 MLOAD PUSH3 0x461BCD PUSH1 0xE5 SHL DUP2 MSTORE PUSH1 0x20 PUSH1 0x4 DUP3 ADD MSTORE PUSH1 0x3F PUSH1 0x24 DUP3 ADD MSTORE PUSH32 0x416D6F756E74206F66204859415820746F6B656E7320746F2069737375652061 PUSH1 0x44 DUP3 ADD MSTORE PUSH32 0x7420612074696D65206D757374206265206D6178696D756D2031303030204D00 PUSH1 0x64 DUP3 ADD MSTORE PUSH1 0x84 ADD PUSH2 0xB43 JUMP JUMPDEST PUSH2 0xD32 PUSH1 0x12 PUSH1 0xA PUSH2 0x43F8 JUMP JUMPDEST PUSH2 0xD41 SWAP1 PUSH5 0x2540BE400 PUSH2 0x4407 JUMP JUMPDEST DUP2 PUSH2 0xD4B PUSH1 0x35 SLOAD SWAP1 JUMP JUMPDEST PUSH2 0xD55 SWAP2 SWAP1 PUSH2 0x441E JUMP JUMPDEST GT ISZERO PUSH2 0xDC9 JUMPI PUSH1 0x40 MLOAD PUSH3 0x461BCD PUSH1 0xE5 SHL DUP2 MSTORE PUSH1 0x20 PUSH1 0x4 DUP3 ADD MSTORE PUSH1 0x3B PUSH1 0x24 DUP3 ADD MSTORE PUSH32 0x416D6F756E74206F66204859415820746F6B656E7320746F2069737375652073 PUSH1 0x44 DUP3 ADD MSTORE PUSH32 0x75727061736573207468652031302C303030204D20746F6B656E730000000000 PUSH1 0x64 DUP3 ADD MSTORE PUSH1 0x84 ADD PUSH2 0xB43 JUMP JUMPDEST PUSH2 0xDE4 PUSH2 0xDDE PUSH1 0xC9 SLOAD PUSH1 0x1 PUSH1 0x1 PUSH1 0xA0 SHL SUB AND SWAP1 JUMP JUMPDEST DUP3 PUSH2 0x3A3C JUMP JUMPDEST PUSH1 0x40 DUP1 MLOAD CALLER DUP2 MSTORE PUSH1 0x20 DUP2 ADD DUP4 SWAP1 MSTORE PUSH32 0x455064BBF1374D9E833B8D9DB24C56B24DBF79CC1A94A30665CAE7093963D5A8 SWAP2 ADD PUSH1 0x40 MLOAD DUP1 SWAP2 SUB SWAP1 LOG1 PUSH2 0xE27 PUSH1 0x1 PUSH1 0xFB SSTORE JUMP JUMPDEST POP JUMP JUMPDEST PUSH1 0x0 CALLER PUSH2 0xE38 DUP6 DUP3 DUP6 PUSH2 0x3B09 JUMP JUMPDEST PUSH2 0xE43 DUP6 DUP6 DUP6 PUSH2 0x3B83 JUMP JUMPDEST POP PUSH1 0x1 SWAP5 SWAP4 POP POP POP POP JUMP JUMPDEST PUSH2 0xE56 PUSH2 0x39E2 JUMP JUMPDEST PUSH1 0x1 PUSH1 0x1 PUSH1 0xA0 SHL SUB DUP2 AND PUSH2 0xECB JUMPI PUSH1 0x40 MLOAD PUSH3 0x461BCD PUSH1 0xE5 SHL DUP2 MSTORE PUSH1 0x20 PUSH1 0x4 DUP3 ADD MSTORE PUSH1 0x36 PUSH1 0x24 DUP3 ADD MSTORE PUSH32 0x5468652070726963652064617461206665656420616464726573732063616E6E PUSH1 0x44 DUP3 ADD MSTORE PUSH22 0x6F7420626520746865207A65726F2061646472657373 PUSH1 0x50 SHL PUSH1 0x64 DUP3 ADD MSTORE PUSH1 0x84 ADD PUSH2 0xB43 JUMP JUMPDEST DUP1 PUSH1 0x0 DUP1 DUP1 DUP6 PUSH1 0x4 DUP2 GT ISZERO PUSH2 0xEE2 JUMPI PUSH2 0xEE2 PUSH2 0x4431 JUMP JUMPDEST SUB PUSH2 0xFA6 JUMPI PUSH2 0x133 SLOAD PUSH1 0x1 PUSH1 0x1 PUSH1 0xA0 SHL SUB SWAP1 DUP2 AND SWAP1 DUP6 AND SUB PUSH2 0xF6E JUMPI PUSH1 0x40 DUP1 MLOAD PUSH3 0x461BCD PUSH1 0xE5 SHL DUP2 MSTORE PUSH1 0x20 PUSH1 0x4 DUP3 ADD MSTORE PUSH1 0x24 DUP2 ADD SWAP2 SWAP1 SWAP2 MSTORE PUSH32 0x4D41544943207072696365206665656420616464726573732068617320616C72 PUSH1 0x44 DUP3 ADD MSTORE PUSH32 0x65616479206265656E206D6F64696669656420746F20746861742076616C7565 PUSH1 0x64 DUP3 ADD MSTORE PUSH1 0x84 ADD PUSH2 0xB43 JUMP JUMPDEST PUSH1 0x40 MLOAD PUSH11 0x1350551250C80BC81554D1 PUSH1 0xAA SHL PUSH1 0x20 DUP3 ADD MSTORE PUSH1 0x2B ADD JUMPDEST PUSH1 0x40 MLOAD PUSH1 0x20 DUP2 DUP4 SUB SUB DUP2 MSTORE SWAP1 PUSH1 0x40 MSTORE DUP1 MLOAD SWAP1 PUSH1 0x20 ADD KECCAK256 SWAP2 POP PUSH2 0x128A JUMP JUMPDEST PUSH1 0x1 DUP6 PUSH1 0x4 DUP2 GT ISZERO PUSH2 0xFBA JUMPI PUSH2 0xFBA PUSH2 0x4431 JUMP JUMPDEST SUB PUSH2 0x1050 JUMPI PUSH2 0x136 SLOAD PUSH1 0x1 PUSH1 0x1 PUSH1 0xA0 SHL SUB SWAP1 DUP2 AND SWAP1 DUP6 AND SUB PUSH2 0x1032 JUMPI PUSH1 0x40 MLOAD PUSH3 0x461BCD PUSH1 0xE5 SHL DUP2 MSTORE PUSH1 0x20 PUSH1 0x4 DUP3 ADD MSTORE PUSH1 0x3F PUSH1 0x24 DUP3 ADD MSTORE PUSH32 0x55534443207072696365206665656420616464726573732068617320616C7265 PUSH1 0x44 DUP3 ADD MSTORE PUSH1 0x0 DUP1 MLOAD PUSH1 0x20 PUSH2 0x49DD DUP4 CODECOPY DUP2 MLOAD SWAP2 MSTORE PUSH1 0x64 DUP3 ADD MSTORE PUSH1 0x84 ADD PUSH2 0xB43 JUMP JUMPDEST PUSH1 0x40 MLOAD PUSH10 0x1554D110C80BC81554D1 PUSH1 0xB2 SHL PUSH1 0x20 DUP3 ADD MSTORE PUSH1 0x2A ADD PUSH2 0xF89 JUMP JUMPDEST PUSH1 0x2 DUP6 PUSH1 0x4 DUP2 GT ISZERO PUSH2 0x1064 JUMPI PUSH2 0x1064 PUSH2 0x4431 JUMP JUMPDEST SUB PUSH2 0x10FA JUMPI PUSH2 0x13A SLOAD PUSH1 0x1 PUSH1 0x1 PUSH1 0xA0 SHL SUB SWAP1 DUP2 AND SWAP1 DUP6 AND SUB PUSH2 0x10DC JUMPI PUSH1 0x40 MLOAD PUSH3 0x461BCD PUSH1 0xE5 SHL DUP2 MSTORE PUSH1 0x20 PUSH1 0x4 DUP3 ADD MSTORE PUSH1 0x3F PUSH1 0x24 DUP3 ADD MSTORE PUSH32 0x55534454207072696365206665656420616464726573732068617320616C7265 PUSH1 0x44 DUP3 ADD MSTORE PUSH1 0x0 DUP1 MLOAD PUSH1 0x20 PUSH2 0x49DD DUP4 CODECOPY DUP2 MLOAD SWAP2 MSTORE PUSH1 0x64 DUP3 ADD MSTORE PUSH1 0x84 ADD PUSH2 0xB43 JUMP JUMPDEST PUSH1 0x40 MLOAD PUSH10 0x1554D115080BC81554D1 PUSH1 0xB2 SHL PUSH1 0x20 DUP3 ADD MSTORE PUSH1 0x2A ADD PUSH2 0xF89 JUMP JUMPDEST PUSH1 0x3 DUP6 PUSH1 0x4 DUP2 GT ISZERO PUSH2 0x110E JUMPI PUSH2 0x110E PUSH2 0x4431 JUMP JUMPDEST SUB PUSH2 0x11A4 JUMPI PUSH2 0x13E SLOAD PUSH1 0x1 PUSH1 0x1 PUSH1 0xA0 SHL SUB SWAP1 DUP2 AND SWAP1 DUP6 AND SUB PUSH2 0x1186 JUMPI PUSH1 0x40 MLOAD PUSH3 0x461BCD PUSH1 0xE5 SHL DUP2 MSTORE PUSH1 0x20 PUSH1 0x4 DUP3 ADD MSTORE PUSH1 0x3F PUSH1 0x24 DUP3 ADD MSTORE PUSH32 0x57425443207072696365206665656420616464726573732068617320616C7265 PUSH1 0x44 DUP3 ADD MSTORE PUSH1 0x0 DUP1 MLOAD PUSH1 0x20 PUSH2 0x49DD DUP4 CODECOPY DUP2 MLOAD SWAP2 MSTORE PUSH1 0x64 DUP3 ADD MSTORE PUSH1 0x84 ADD PUSH2 0xB43 JUMP JUMPDEST PUSH1 0x40 MLOAD PUSH10 0x15D09510C80BC81554D1 PUSH1 0xB2 SHL PUSH1 0x20 DUP3 ADD MSTORE PUSH1 0x2A ADD PUSH2 0xF89 JUMP JUMPDEST PUSH1 0x4 DUP6 PUSH1 0x4 DUP2 GT ISZERO PUSH2 0x11B8 JUMPI PUSH2 0x11B8 PUSH2 0x4431 JUMP JUMPDEST SUB PUSH2 0x124D JUMPI PUSH2 0x142 SLOAD PUSH1 0x1 PUSH1 0x1 PUSH1 0xA0 SHL SUB SWAP1 DUP2 AND SWAP1 DUP6 AND SUB PUSH2 0x1230 JUMPI PUSH1 0x40 MLOAD PUSH3 0x461BCD PUSH1 0xE5 SHL DUP2 MSTORE PUSH1 0x20 PUSH1 0x4 DUP3 ADD MSTORE PUSH1 0x3F PUSH1 0x24 DUP3 ADD MSTORE PUSH32 0x57455448207072696365206665656420616464726573732068617320616C7265 PUSH1 0x44 DUP3 ADD MSTORE PUSH1 0x0 DUP1 MLOAD PUSH1 0x20 PUSH2 0x49DD DUP4 CODECOPY DUP2 MLOAD SWAP2 MSTORE PUSH1 0x64 DUP3 ADD MSTORE PUSH1 0x84 ADD PUSH2 0xB43 JUMP JUMPDEST PUSH1 0x40 MLOAD PUSH9 0x115512080BC81554D1 PUSH1 0xBA SHL PUSH1 0x20 DUP3 ADD MSTORE PUSH1 0x29 ADD PUSH2 0xF89 JUMP JUMPDEST PUSH1 0x40 MLOAD PUSH3 0x461BCD PUSH1 0xE5 SHL DUP2 MSTORE PUSH1 0x20 PUSH1 0x4 DUP3 ADD MSTORE PUSH1 0x12 PUSH1 0x24 DUP3 ADD MSTORE PUSH18 0x496E76616C696420746F6B656E2074797065 PUSH1 0x70 SHL PUSH1 0x44 DUP3 ADD MSTORE PUSH1 0x64 ADD PUSH2 0xB43 JUMP JUMPDEST DUP3 PUSH1 0x1 PUSH1 0x1 PUSH1 0xA0 SHL SUB AND PUSH4 0x7284E416 PUSH1 0x40 MLOAD DUP2 PUSH4 0xFFFFFFFF AND PUSH1 0xE0 SHL DUP2 MSTORE PUSH1 0x4 ADD PUSH1 0x0 PUSH1 0x40 MLOAD DUP1 DUP4 SUB DUP2 DUP7 GAS STATICCALL SWAP3 POP POP POP DUP1 ISZERO PUSH2 0x12E9 JUMPI POP PUSH1 0x40 MLOAD RETURNDATASIZE PUSH1 0x0 DUP3 RETURNDATACOPY PUSH1 0x1F RETURNDATASIZE SWAP1 DUP2 ADD PUSH1 0x1F NOT AND DUP3 ADD PUSH1 0x40 MSTORE PUSH2 0x12E6 SWAP2 SWAP1 DUP2 ADD SWAP1 PUSH2 0x445D JUMP JUMPDEST PUSH1 0x1 JUMPDEST PUSH2 0x1305 JUMPI PUSH1 0x40 MLOAD PUSH3 0x461BCD PUSH1 0xE5 SHL DUP2 MSTORE PUSH1 0x4 ADD PUSH2 0xB43 SWAP1 PUSH2 0x450A JUMP JUMPDEST DUP1 PUSH1 0x40 MLOAD PUSH1 0x20 ADD PUSH2 0x1316 SWAP2 SWAP1 PUSH2 0x4576 JUMP JUMPDEST PUSH1 0x40 MLOAD PUSH1 0x20 DUP2 DUP4 SUB SUB DUP2 MSTORE SWAP1 PUSH1 0x40 MSTORE DUP1 MLOAD SWAP1 PUSH1 0x20 ADD KECCAK256 SWAP2 POP DUP2 DUP4 EQ PUSH2 0x134D JUMPI PUSH1 0x40 MLOAD PUSH3 0x461BCD PUSH1 0xE5 SHL DUP2 MSTORE PUSH1 0x4 ADD PUSH2 0xB43 SWAP1 PUSH2 0x450A JUMP JUMPDEST POP PUSH1 0x0 DUP6 PUSH1 0x4 DUP2 GT ISZERO PUSH2 0x1362 JUMPI PUSH2 0x1362 PUSH2 0x4431 JUMP JUMPDEST SUB PUSH2 0x13CC JUMPI PUSH2 0x133 DUP1 SLOAD PUSH1 0x1 PUSH1 0x1 PUSH1 0xA0 SHL SUB DUP7 AND PUSH1 0x1 PUSH1 0x1 PUSH1 0xA0 SHL SUB NOT SWAP2 DUP3 AND DUP2 OR SWAP1 SWAP3 SSTORE PUSH2 0x134 DUP1 SLOAD SWAP1 SWAP2 AND DUP3 OR SWAP1 SSTORE PUSH1 0x40 MLOAD SWAP1 DUP2 MSTORE PUSH32 0xEE9BC8D900B5D69F934EC4A3986B3BFDA61ADD54821456C3F7E943E87CF48F52 SWAP1 PUSH1 0x20 ADD JUMPDEST PUSH1 0x40 MLOAD DUP1 SWAP2 SUB SWAP1 LOG1 PUSH2 0x15A4 JUMP JUMPDEST PUSH1 0x1 DUP6 PUSH1 0x4 DUP2 GT ISZERO PUSH2 0x13E0 JUMPI PUSH2 0x13E0 PUSH2 0x4431 JUMP JUMPDEST SUB PUSH2 0x1441 JUMPI PUSH2 0x136 DUP1 SLOAD PUSH1 0x1 PUSH1 0x1 PUSH1 0xA0 SHL SUB DUP7 AND PUSH1 0x1 PUSH1 0x1 PUSH1 0xA0 SHL SUB NOT SWAP2 DUP3 AND DUP2 OR SWAP1 SWAP3 SSTORE PUSH2 0x137 DUP1 SLOAD SWAP1 SWAP2 AND DUP3 OR SWAP1 SSTORE PUSH1 0x40 MLOAD SWAP1 DUP2 MSTORE PUSH32 0xA0BC5DADD9D9C881861F6DA8998BEBEF8EABCB5F3D6651187C5D1899E327965 SWAP1 PUSH1 0x20 ADD PUSH2 0x13BF JUMP JUMPDEST PUSH1 0x2 DUP6 PUSH1 0x4 DUP2 GT ISZERO PUSH2 0x1455 JUMPI PUSH2 0x1455 PUSH2 0x4431 JUMP JUMPDEST SUB PUSH2 0x14B6 JUMPI PUSH2 0x13A DUP1 SLOAD PUSH1 0x1 PUSH1 0x1 PUSH1 0xA0 SHL SUB DUP7 AND PUSH1 0x1 PUSH1 0x1 PUSH1 0xA0 SHL SUB NOT SWAP2 DUP3 AND DUP2 OR SWAP1 SWAP3 SSTORE PUSH2 0x13B DUP1 SLOAD SWAP1 SWAP2 AND DUP3 OR SWAP1 SSTORE PUSH1 0x40 MLOAD SWAP1 DUP2 MSTORE PUSH32 0x1E5BFE0B7FE6FCDC586B9E3A4FBDC0BDB1346D36173963BA38C897137BA16031 SWAP1 PUSH1 0x20 ADD PUSH2 0x13BF JUMP JUMPDEST PUSH1 0x3 DUP6 PUSH1 0x4 DUP2 GT ISZERO PUSH2 0x14CA JUMPI PUSH2 0x14CA PUSH2 0x4431 JUMP JUMPDEST SUB PUSH2 0x152B JUMPI PUSH2 0x13E DUP1 SLOAD PUSH1 0x1 PUSH1 0x1 PUSH1 0xA0 SHL SUB DUP7 AND PUSH1 0x1 PUSH1 0x1 PUSH1 0xA0 SHL SUB NOT SWAP2 DUP3 AND DUP2 OR SWAP1 SWAP3 SSTORE PUSH2 0x13F DUP1 SLOAD SWAP1 SWAP2 AND DUP3 OR SWAP1 SSTORE PUSH1 0x40 MLOAD SWAP1 DUP2 MSTORE PUSH32 0x2171C3CFA3D86551D618C9DA7164A608DD795715BF61402D9CCB45CF5433A076 SWAP1 PUSH1 0x20 ADD PUSH2 0x13BF JUMP JUMPDEST PUSH1 0x4 DUP6 PUSH1 0x4 DUP2 GT ISZERO PUSH2 0x153F JUMPI PUSH2 0x153F PUSH2 0x4431 JUMP JUMPDEST SUB PUSH2 0x15A4 JUMPI PUSH2 0x142 DUP1 SLOAD PUSH1 0x1 PUSH1 0x1 PUSH1 0xA0 SHL SUB DUP7 AND PUSH1 0x1 PUSH1 0x1 PUSH1 0xA0 SHL SUB NOT SWAP2 DUP3 AND DUP2 OR SWAP1 SWAP3 SSTORE PUSH2 0x143 DUP1 SLOAD SWAP1 SWAP2 AND DUP3 OR SWAP1 SSTORE PUSH1 0x40 MLOAD SWAP1 DUP2 MSTORE PUSH32 0xC21BE1E8C8D6DE83E19AD6DE75CD885EEFAC75BE87E532A0A04D02147004E520 SWAP1 PUSH1 0x20 ADD PUSH1 0x40 MLOAD DUP1 SWAP2 SUB SWAP1 LOG1 JUMPDEST POP POP POP POP POP JUMP JUMPDEST PUSH1 0xC9 SLOAD PUSH1 0x1 PUSH1 0x1 PUSH1 0xA0 SHL SUB AND CALLER EQ DUP1 PUSH2 0x15CF JUMPI POP PUSH2 0x130 SLOAD PUSH1 0x1 PUSH1 0x1 PUSH1 0xA0 SHL SUB AND CALLER EQ JUMPDEST PUSH2 0x15EB JUMPI PUSH1 0x40 MLOAD PUSH3 0x461BCD PUSH1 0xE5 SHL DUP2 MSTORE PUSH1 0x4 ADD PUSH2 0xB43 SWAP1 PUSH2 0x4592 JUMP JUMPDEST PUSH1 0x1 PUSH1 0x1 PUSH1 0xA0 SHL SUB DUP3 AND PUSH2 0x167F JUMPI PUSH1 0x40 MLOAD PUSH3 0x461BCD PUSH1 0xE5 SHL DUP2 MSTORE PUSH1 0x20 PUSH1 0x4 DUP3 ADD MSTORE PUSH1 0x4F PUSH1 0x24 DUP3 ADD MSTORE PUSH32 0x496E766573746F72206164647265737320746F20757064617465207175616C69 PUSH1 0x44 DUP3 ADD MSTORE PUSH32 0x6669656420696E766573746F72207374617475732063616E6E6F742062652074 PUSH1 0x64 DUP3 ADD MSTORE PUSH15 0x6865207A65726F2061646472657373 PUSH1 0x88 SHL PUSH1 0x84 DUP3 ADD MSTORE PUSH1 0xA4 ADD PUSH2 0xB43 JUMP JUMPDEST PUSH1 0x1 PUSH1 0x1 PUSH1 0xA0 SHL SUB DUP3 AND PUSH1 0x0 SWAP1 DUP2 MSTORE PUSH2 0x132 PUSH1 0x20 MSTORE PUSH1 0x40 SWAP1 KECCAK256 SLOAD PUSH1 0xFF AND PUSH2 0x170E JUMPI PUSH1 0x40 MLOAD PUSH3 0x461BCD PUSH1 0xE5 SHL DUP2 MSTORE PUSH1 0x20 PUSH1 0x4 DUP3 ADD MSTORE PUSH1 0x3E PUSH1 0x24 DUP3 ADD MSTORE PUSH32 0x496E766573746F722061646472657373206D7573742062652066697273742061 PUSH1 0x44 DUP3 ADD MSTORE PUSH32 0x6464656420746F2074686520696E766573746F722077686974656C6973740000 PUSH1 0x64 DUP3 ADD MSTORE PUSH1 0x84 ADD PUSH2 0xB43 JUMP JUMPDEST PUSH1 0x1 PUSH1 0x1 PUSH1 0xA0 SHL SUB DUP3 AND PUSH1 0x0 SWAP1 DUP2 MSTORE PUSH2 0x132 PUSH1 0x20 MSTORE PUSH1 0x40 SWAP1 KECCAK256 SLOAD DUP2 ISZERO ISZERO PUSH3 0x10000 SWAP1 SWAP2 DIV PUSH1 0xFF AND ISZERO ISZERO SUB PUSH2 0x17AA JUMPI PUSH1 0x40 MLOAD PUSH3 0x461BCD PUSH1 0xE5 SHL DUP2 MSTORE PUSH1 0x20 PUSH1 0x4 DUP3 ADD MSTORE PUSH1 0x3D PUSH1 0x24 DUP3 ADD MSTORE PUSH32 0x5468617420696E766573746F7220616464726573732068617320616C72656164 PUSH1 0x44 DUP3 ADD MSTORE PUSH32 0x79206265656E207570646174656420746F207468617420737461747573000000 PUSH1 0x64 DUP3 ADD MSTORE PUSH1 0x84 ADD PUSH2 0xB43 JUMP JUMPDEST PUSH1 0x1 PUSH1 0x1 PUSH1 0xA0 SHL SUB DUP3 AND PUSH1 0x0 DUP2 DUP2 MSTORE PUSH2 0x132 PUSH1 0x20 SWAP1 DUP2 MSTORE PUSH1 0x40 SWAP2 DUP3 SWAP1 KECCAK256 DUP1 SLOAD PUSH3 0xFF0000 NOT AND PUSH3 0x10000 DUP7 ISZERO ISZERO SWAP1 DUP2 MUL SWAP2 SWAP1 SWAP2 OR SWAP1 SWAP2 SSTORE DUP3 MLOAD CALLER DUP2 MSTORE SWAP2 DUP3 ADD SWAP4 SWAP1 SWAP4 MSTORE SWAP1 DUP2 ADD SWAP2 SWAP1 SWAP2 MSTORE PUSH32 0x3C53852FBEA2A3E8D261E1A5412FCD1099CD0AF0FAF615DB2A4CAB4831106256 SWAP1 PUSH1 0x60 ADD JUMPDEST PUSH1 0x40 MLOAD DUP1 SWAP2 SUB SWAP1 LOG1 POP POP JUMP JUMPDEST PUSH1 0x0 CALLER PUSH2 0xBFA DUP2 DUP6 DUP6 PUSH2 0x1838 DUP4 DUP4 PUSH2 0x37A6 JUMP JUMPDEST PUSH2 0x1842 SWAP2 SWAP1 PUSH2 0x441E JUMP JUMPDEST PUSH2 0x38BE JUMP JUMPDEST CALLER PUSH1 0x0 SWAP1 DUP2 MSTORE PUSH2 0x132 PUSH1 0x20 MSTORE PUSH1 0x40 DUP2 KECCAK256 SLOAD PUSH1 0xFF AND PUSH2 0x1877 JUMPI PUSH1 0x40 MLOAD PUSH3 0x461BCD PUSH1 0xE5 SHL DUP2 MSTORE PUSH1 0x4 ADD PUSH2 0xB43 SWAP1 PUSH2 0x45EF JUMP JUMPDEST CALLER PUSH1 0x0 SWAP1 DUP2 MSTORE PUSH2 0x132 PUSH1 0x20 MSTORE PUSH1 0x40 SWAP1 KECCAK256 SLOAD PUSH2 0x100 SWAP1 DIV PUSH1 0xFF AND ISZERO PUSH2 0x18AD JUMPI PUSH1 0x40 MLOAD PUSH3 0x461BCD PUSH1 0xE5 SHL DUP2 MSTORE PUSH1 0x4 ADD PUSH2 0xB43 SWAP1 PUSH2 0x4643 JUMP JUMPDEST PUSH2 0x18B5 PUSH2 0xAF5 JUMP JUMPDEST PUSH1 0x0 DUP1 PUSH2 0x192A CALLVALUE ADDRESS PUSH1 0x1 PUSH1 0x1 PUSH1 0xA0 SHL SUB AND PUSH4 0xBB6F98FB PUSH1 0x0 PUSH1 0x40 MLOAD DUP3 PUSH4 0xFFFFFFFF AND PUSH1 0xE0 SHL DUP2 MSTORE PUSH1 0x4 ADD PUSH2 0x18E9 SWAP2 SWAP1 PUSH2 0x46B5 JUMP JUMPDEST PUSH1 0x20 PUSH1 0x40 MLOAD DUP1 DUP4 SUB DUP2 DUP7 GAS STATICCALL ISZERO DUP1 ISZERO PUSH2 0x1906 JUMPI RETURNDATASIZE PUSH1 0x0 DUP1 RETURNDATACOPY RETURNDATASIZE PUSH1 0x0 REVERT JUMPDEST POP POP POP POP PUSH1 0x40 MLOAD RETURNDATASIZE PUSH1 0x1F NOT PUSH1 0x1F DUP3 ADD AND DUP3 ADD DUP1 PUSH1 0x40 MSTORE POP DUP2 ADD SWAP1 PUSH2 0x84A SWAP2 SWAP1 PUSH2 0x46C3 JUMP JUMPDEST SWAP2 POP SWAP2 POP PUSH2 0x1938 DUP3 CALLER PUSH2 0x28AD JUMP JUMPDEST PUSH2 0x131 SLOAD PUSH1 0x40 MLOAD PUSH1 0x1 PUSH1 0x1 PUSH1 0xA0 SHL SUB SWAP1 SWAP2 AND SWAP1 CALLVALUE DUP1 ISZERO PUSH2 0x8FC MUL SWAP2 PUSH1 0x0 DUP2 DUP2 DUP2 DUP6 DUP9 DUP9 CALL SWAP4 POP POP POP POP PUSH2 0x19DE JUMPI PUSH1 0x40 MLOAD PUSH3 0x461BCD PUSH1 0xE5 SHL DUP2 MSTORE PUSH1 0x20 PUSH1 0x4 DUP3 ADD MSTORE PUSH1 0x42 PUSH1 0x24 DUP3 ADD MSTORE PUSH32 0x54686572652077617320616E206572726F72206F6E2073656E64696E67207468 PUSH1 0x44 DUP3 ADD MSTORE PUSH32 0x65204D4154494320696E766573746D656E7420746F2074686520747265617375 PUSH1 0x64 DUP3 ADD MSTORE PUSH2 0x7279 PUSH1 0xF0 SHL PUSH1 0x84 DUP3 ADD MSTORE PUSH1 0xA4 ADD PUSH2 0xB43 JUMP JUMPDEST PUSH1 0x40 MLOAD PUSH4 0xA9059CBB PUSH1 0xE0 SHL DUP2 MSTORE CALLER PUSH1 0x4 DUP3 ADD MSTORE PUSH1 0x24 DUP2 ADD DUP3 SWAP1 MSTORE ADDRESS SWAP1 PUSH4 0xA9059CBB SWAP1 PUSH1 0x44 ADD PUSH1 0x20 PUSH1 0x40 MLOAD DUP1 DUP4 SUB DUP2 PUSH1 0x0 DUP8 GAS CALL ISZERO DUP1 ISZERO PUSH2 0x1A22 JUMPI RETURNDATASIZE PUSH1 0x0 DUP1 RETURNDATACOPY RETURNDATASIZE PUSH1 0x0 REVERT JUMPDEST POP POP POP POP PUSH1 0x40 MLOAD RETURNDATASIZE PUSH1 0x1F NOT PUSH1 0x1F DUP3 ADD AND DUP3 ADD DUP1 PUSH1 0x40 MSTORE POP DUP2 ADD SWAP1 PUSH2 0x1A46 SWAP2 SWAP1 PUSH2 0x46DC JUMP JUMPDEST PUSH2 0x1A62 JUMPI PUSH1 0x40 MLOAD PUSH3 0x461BCD PUSH1 0xE5 SHL DUP2 MSTORE PUSH1 0x4 ADD PUSH2 0xB43 SWAP1 PUSH2 0x46F9 JUMP JUMPDEST CALLER PUSH1 0x0 SWAP1 DUP2 MSTORE PUSH2 0x132 PUSH1 0x20 MSTORE PUSH1 0x40 DUP2 KECCAK256 PUSH1 0x2 ADD DUP1 SLOAD DUP5 SWAP3 SWAP1 PUSH2 0x1A85 SWAP1 DUP5 SWAP1 PUSH2 0x441E JUMP JUMPDEST SWAP1 SWAP2 SSTORE POP POP CALLER PUSH1 0x0 SWAP1 DUP2 MSTORE PUSH2 0x132 PUSH1 0x20 MSTORE PUSH1 0x40 DUP2 KECCAK256 PUSH1 0x1 ADD DUP1 SLOAD DUP4 SWAP3 SWAP1 PUSH2 0x1AAD SWAP1 DUP5 SWAP1 PUSH2 0x441E JUMP JUMPDEST SWAP1 SWAP2 SSTORE POP POP PUSH1 0x40 DUP1 MLOAD CALLER DUP2 MSTORE CALLVALUE PUSH1 0x20 DUP3 ADD MSTORE SWAP1 DUP2 ADD DUP4 SWAP1 MSTORE PUSH1 0x60 DUP2 ADD DUP3 SWAP1 MSTORE PUSH32 0xE036CB252631BB3E3FBCB1AA359DD09F94F0DAC1FE6DE828E8BAE3F5028331C5 SWAP1 PUSH1 0x80 ADD PUSH1 0x40 MLOAD DUP1 SWAP2 SUB SWAP1 LOG1 PUSH1 0x1 SWAP3 POP POP POP PUSH2 0x1B09 PUSH1 0x1 PUSH1 0xFB SSTORE JUMP JUMPDEST SWAP1 JUMP JUMPDEST PUSH2 0x1B14 PUSH2 0x39E2 JUMP JUMPDEST PUSH1 0x1 PUSH1 0x1 PUSH1 0xA0 SHL SUB DUP2 AND PUSH2 0x1B7F JUMPI PUSH1 0x40 MLOAD PUSH3 0x461BCD PUSH1 0xE5 SHL DUP2 MSTORE PUSH1 0x20 PUSH1 0x4 DUP3 ADD MSTORE PUSH1 0x2C PUSH1 0x24 DUP3 ADD MSTORE PUSH32 0x54686520746F6B656E20616464726573732063616E6E6F742062652074686520 PUSH1 0x44 DUP3 ADD MSTORE PUSH12 0x7A65726F2061646472657373 PUSH1 0xA0 SHL PUSH1 0x64 DUP3 ADD MSTORE PUSH1 0x84 ADD PUSH2 0xB43 JUMP JUMPDEST PUSH1 0x1 DUP3 PUSH1 0x4 DUP2 GT ISZERO PUSH2 0x1B93 JUMPI PUSH2 0x1B93 PUSH2 0x4431 JUMP JUMPDEST SUB PUSH2 0x1C7D JUMPI PUSH2 0x135 SLOAD PUSH1 0x1 PUSH1 0x1 PUSH1 0xA0 SHL SUB SWAP1 DUP2 AND SWAP1 DUP3 AND SUB PUSH2 0x1C1A JUMPI PUSH1 0x40 MLOAD PUSH3 0x461BCD PUSH1 0xE5 SHL DUP2 MSTORE PUSH1 0x20 PUSH1 0x4 DUP3 ADD MSTORE PUSH1 0x3A PUSH1 0x24 DUP3 ADD MSTORE PUSH32 0x5553444320746F6B656E20616464726573732068617320616C72656164792062 PUSH1 0x44 DUP3 ADD MSTORE PUSH26 0x65656E206D6F64696669656420746F20746861742076616C7565 PUSH1 0x30 SHL PUSH1 0x64 DUP3 ADD MSTORE PUSH1 0x84 ADD PUSH2 0xB43 JUMP JUMPDEST PUSH2 0x135 DUP1 SLOAD PUSH1 0x1 PUSH1 0x1 PUSH1 0xA0 SHL SUB DUP4 AND PUSH1 0x1 PUSH1 0x1 PUSH1 0xA0 SHL SUB NOT SWAP2 DUP3 AND DUP2 OR SWAP1 SWAP3 SSTORE PUSH2 0x138 DUP1 SLOAD SWAP1 SWAP2 AND DUP3 OR SWAP1 SSTORE PUSH1 0x40 MLOAD SWAP1 DUP2 MSTORE PUSH32 0x8B3F52C1D10699944EBEE74EE29DCA11C9C86BB0DBEDEF4ABD6E737F613D4D3A SWAP1 PUSH1 0x20 ADD PUSH1 0x40 MLOAD DUP1 SWAP2 SUB SWAP1 LOG1 POP POP JUMP JUMPDEST PUSH1 0x2 DUP3 PUSH1 0x4 DUP2 GT ISZERO PUSH2 0x1C91 JUMPI PUSH2 0x1C91 PUSH2 0x4431 JUMP JUMPDEST SUB PUSH2 0x1D74 JUMPI PUSH2 0x139 SLOAD PUSH1 0x1 PUSH1 0x1 PUSH1 0xA0 SHL SUB SWAP1 DUP2 AND SWAP1 DUP3 AND SUB PUSH2 0x1D18 JUMPI PUSH1 0x40 MLOAD PUSH3 0x461BCD PUSH1 0xE5 SHL DUP2 MSTORE PUSH1 0x20 PUSH1 0x4 DUP3 ADD MSTORE PUSH1 0x3A PUSH1 0x24 DUP3 ADD MSTORE PUSH32 0x5553445420746F6B656E20616464726573732068617320616C72656164792062 PUSH1 0x44 DUP3 ADD MSTORE PUSH26 0x65656E206D6F64696669656420746F20746861742076616C7565 PUSH1 0x30 SHL PUSH1 0x64 DUP3 ADD MSTORE PUSH1 0x84 ADD PUSH2 0xB43 JUMP JUMPDEST PUSH2 0x139 DUP1 SLOAD PUSH1 0x1 PUSH1 0x1 PUSH1 0xA0 SHL SUB DUP4 AND PUSH1 0x1 PUSH1 0x1 PUSH1 0xA0 SHL SUB NOT SWAP2 DUP3 AND DUP2 OR SWAP1 SWAP3 SSTORE PUSH2 0x13C DUP1 SLOAD SWAP1 SWAP2 AND DUP3 OR SWAP1 SSTORE PUSH1 0x40 MLOAD SWAP1 DUP2 MSTORE PUSH32 0x1C2D8A05BE2C8ECA524D44CC224513D7E19CA97AC309C3E23BEE450F8578CA19 SWAP1 PUSH1 0x20 ADD PUSH2 0x1819 JUMP JUMPDEST PUSH1 0x3 DUP3 PUSH1 0x4 DUP2 GT ISZERO PUSH2 0x1D88 JUMPI PUSH2 0x1D88 PUSH2 0x4431 JUMP JUMPDEST SUB PUSH2 0x1E6B JUMPI PUSH2 0x13D SLOAD PUSH1 0x1 PUSH1 0x1 PUSH1 0xA0 SHL SUB SWAP1 DUP2 AND SWAP1 DUP3 AND SUB PUSH2 0x1E0F JUMPI PUSH1 0x40 MLOAD PUSH3 0x461BCD PUSH1 0xE5 SHL DUP2 MSTORE PUSH1 0x20 PUSH1 0x4 DUP3 ADD MSTORE PUSH1 0x3A PUSH1 0x24 DUP3 ADD MSTORE PUSH32 0x5742544320746F6B656E20616464726573732068617320616C72656164792062 PUSH1 0x44 DUP3 ADD MSTORE PUSH26 0x65656E206D6F64696669656420746F20746861742076616C7565 PUSH1 0x30 SHL PUSH1 0x64 DUP3 ADD MSTORE PUSH1 0x84 ADD PUSH2 0xB43 JUMP JUMPDEST PUSH2 0x13D DUP1 SLOAD PUSH1 0x1 PUSH1 0x1 PUSH1 0xA0 SHL SUB DUP4 AND PUSH1 0x1 PUSH1 0x1 PUSH1 0xA0 SHL SUB NOT SWAP2 DUP3 AND DUP2 OR SWAP1 SWAP3 SSTORE PUSH2 0x140 DUP1 SLOAD SWAP1 SWAP2 AND DUP3 OR SWAP1 SSTORE PUSH1 0x40 MLOAD SWAP1 DUP2 MSTORE PUSH32 0x95082F719648371F180CA4F9BAD55A2AE7C2D029BBF93E360584CA6EA06327EA SWAP1 PUSH1 0x20 ADD PUSH2 0x1819 JUMP JUMPDEST PUSH1 0x4 DUP3 PUSH1 0x4 DUP2 GT ISZERO PUSH2 0x1E7F JUMPI PUSH2 0x1E7F PUSH2 0x4431 JUMP JUMPDEST SUB PUSH2 0x124D JUMPI PUSH2 0x141 SLOAD PUSH1 0x1 PUSH1 0x1 PUSH1 0xA0 SHL SUB SWAP1 DUP2 AND SWAP1 DUP3 AND SUB PUSH2 0x1F06 JUMPI PUSH1 0x40 MLOAD PUSH3 0x461BCD PUSH1 0xE5 SHL DUP2 MSTORE PUSH1 0x20 PUSH1 0x4 DUP3 ADD MSTORE PUSH1 0x3A PUSH1 0x24 DUP3 ADD MSTORE PUSH32 0x5745544820746F6B656E20616464726573732068617320616C72656164792062 PUSH1 0x44 DUP3 ADD MSTORE PUSH26 0x65656E206D6F64696669656420746F20746861742076616C7565 PUSH1 0x30 SHL PUSH1 0x64 DUP3 ADD MSTORE PUSH1 0x84 ADD PUSH2 0xB43 JUMP JUMPDEST PUSH2 0x141 DUP1 SLOAD PUSH1 0x1 PUSH1 0x1 PUSH1 0xA0 SHL SUB DUP4 AND PUSH1 0x1 PUSH1 0x1 PUSH1 0xA0 SHL SUB NOT SWAP2 DUP3 AND DUP2 OR SWAP1 SWAP3 SSTORE PUSH2 0x144 DUP1 SLOAD SWAP1 SWAP2 AND DUP3 OR SWAP1 SSTORE PUSH1 0x40 MLOAD SWAP1 DUP2 MSTORE PUSH32 0xF5FD160F565AC0E80215E9ECED5AFBFCD47389E99858FAC6A3D93F2EC38FF6D6 SWAP1 PUSH1 0x20 ADD PUSH2 0x1819 JUMP JUMPDEST POP POP JUMP JUMPDEST PUSH2 0x1F6E PUSH2 0x39E2 JUMP JUMPDEST PUSH2 0x1F76 PUSH2 0x3D39 JUMP JUMPDEST JUMP JUMPDEST PUSH1 0xC9 SLOAD PUSH1 0x1 PUSH1 0x1 PUSH1 0xA0 SHL SUB AND CALLER EQ DUP1 PUSH2 0x1F9C JUMPI POP PUSH2 0x130 SLOAD PUSH1 0x1 PUSH1 0x1 PUSH1 0xA0 SHL SUB AND CALLER EQ JUMPDEST PUSH2 0x1FB8 JUMPI PUSH1 0x40 MLOAD PUSH3 0x461BCD PUSH1 0xE5 SHL DUP2 MSTORE PUSH1 0x4 ADD PUSH2 0xB43 SWAP1 PUSH2 0x4592 JUMP JUMPDEST PUSH1 0x1 PUSH1 0x1 PUSH1 0xA0 SHL SUB DUP2 AND PUSH2 0x2040 JUMPI PUSH1 0x40 MLOAD PUSH3 0x461BCD PUSH1 0xE5 SHL DUP2 MSTORE PUSH1 0x20 PUSH1 0x4 DUP3 ADD MSTORE PUSH1 0x43 PUSH1 0x24 DUP3 ADD MSTORE PUSH32 0x496E766573746F72206164647265737320746F2061646420746F207468652077 PUSH1 0x44 DUP3 ADD MSTORE PUSH32 0x686974656C6973742063616E6E6F7420626520746865207A65726F2061646472 PUSH1 0x64 DUP3 ADD MSTORE PUSH3 0x657373 PUSH1 0xE8 SHL PUSH1 0x84 DUP3 ADD MSTORE PUSH1 0xA4 ADD PUSH2 0xB43 JUMP JUMPDEST PUSH1 0x1 PUSH1 0x1 PUSH1 0xA0 SHL SUB DUP2 AND PUSH1 0x0 SWAP1 DUP2 MSTORE PUSH2 0x132 PUSH1 0x20 MSTORE PUSH1 0x40 SWAP1 KECCAK256 SLOAD PUSH1 0xFF AND ISZERO PUSH2 0x20D0 JUMPI PUSH1 0x40 MLOAD PUSH3 0x461BCD PUSH1 0xE5 SHL DUP2 MSTORE PUSH1 0x20 PUSH1 0x4 DUP3 ADD MSTORE PUSH1 0x3D PUSH1 0x24 DUP3 ADD MSTORE PUSH32 0x5468617420696E766573746F7220616464726573732068617320616C72656164 PUSH1 0x44 DUP3 ADD MSTORE PUSH32 0x79206265656E20616464656420746F207468652077686974656C697374000000 PUSH1 0x64 DUP3 ADD MSTORE PUSH1 0x84 ADD PUSH2 0xB43 JUMP JUMPDEST PUSH1 0x40 DUP1 MLOAD PUSH1 0xA0 DUP2 ADD DUP3 MSTORE PUSH1 0x0 PUSH1 0x20 DUP1 DUP4 ADD DUP3 DUP2 MSTORE DUP4 DUP6 ADD DUP4 DUP2 MSTORE PUSH1 0x60 DUP6 ADD DUP5 DUP2 MSTORE PUSH1 0x80 DUP7 ADD DUP6 DUP2 MSTORE PUSH1 0x1 DUP1 DUP9 MSTORE PUSH1 0x1 PUSH1 0x1 PUSH1 0xA0 SHL SUB DUP11 AND DUP1 DUP9 MSTORE PUSH2 0x132 DUP8 MSTORE SWAP7 DUP10 SWAP1 KECCAK256 DUP9 MLOAD DUP2 SLOAD SWAP7 MLOAD SWAP6 MLOAD ISZERO ISZERO PUSH3 0x10000 MUL PUSH3 0xFF0000 NOT SWAP7 ISZERO ISZERO PUSH2 0x100 MUL PUSH2 0xFF00 NOT SWAP3 ISZERO ISZERO SWAP3 SWAP1 SWAP3 AND PUSH2 0xFFFF NOT SWAP1 SWAP9 AND SWAP8 SWAP1 SWAP8 OR OR SWAP5 SWAP1 SWAP5 AND SWAP5 SWAP1 SWAP5 OR DUP4 SSTORE SWAP1 MLOAD SWAP3 DUP3 ADD SWAP3 SWAP1 SWAP3 SSTORE SWAP1 MLOAD PUSH1 0x2 SWAP1 SWAP2 ADD SSTORE DUP4 MLOAD CALLER DUP2 MSTORE SWAP1 DUP2 ADD SWAP2 SWAP1 SWAP2 MSTORE SWAP1 SWAP2 PUSH32 0x8419B79DC227F7841E7BF32CEA35C3F90FE5B3DA68CDE93ADEF3C32745C587DE SWAP2 ADD PUSH2 0x1819 JUMP JUMPDEST PUSH2 0x219E PUSH2 0x39E2 JUMP JUMPDEST PUSH1 0x0 DUP2 GT PUSH2 0x220E JUMPI PUSH1 0x40 MLOAD PUSH3 0x461BCD PUSH1 0xE5 SHL DUP2 MSTORE PUSH1 0x20 PUSH1 0x4 DUP3 ADD MSTORE PUSH1 0x37 PUSH1 0x24 DUP3 ADD MSTORE PUSH32 0x4E6577206D6178696D756D20616D6F756E7420746F20696E766573742C206D75 PUSH1 0x44 DUP3 ADD MSTORE PUSH23 0x73742062652067726561746572207468616E207A65726F PUSH1 0x48 SHL PUSH1 0x64 DUP3 ADD MSTORE PUSH1 0x84 ADD PUSH2 0xB43 JUMP JUMPDEST PUSH2 0x12F DUP2 SWAP1 SSTORE PUSH1 0x40 MLOAD DUP2 DUP2 MSTORE PUSH32 0x29D434EC19958E7CE86CA2870F5927AB4F948D916DCFFC568C1343C1E1F76566 SWAP1 PUSH1 0x20 ADD JUMPDEST PUSH1 0x40 MLOAD DUP1 SWAP2 SUB SWAP1 LOG1 POP JUMP JUMPDEST PUSH2 0x2253 PUSH2 0x39E2 JUMP JUMPDEST PUSH1 0x1 PUSH1 0x1 PUSH1 0xA0 SHL SUB DUP2 AND PUSH2 0x22C4 JUMPI PUSH1 0x40 MLOAD PUSH3 0x461BCD PUSH1 0xE5 SHL DUP2 MSTORE PUSH1 0x20 PUSH1 0x4 DUP3 ADD MSTORE PUSH1 0x32 PUSH1 0x24 DUP3 ADD MSTORE PUSH32 0x5468652077686974656C697374657220616464726573732063616E6E6F742062 PUSH1 0x44 DUP3 ADD MSTORE PUSH18 0x6520746865207A65726F2061646472657373 PUSH1 0x70 SHL PUSH1 0x64 DUP3 ADD MSTORE PUSH1 0x84 ADD PUSH2 0xB43 JUMP JUMPDEST PUSH2 0x130 SLOAD PUSH1 0x1 PUSH1 0x1 PUSH1 0xA0 SHL SUB SWAP1 DUP2 AND SWAP1 DUP3 AND SUB PUSH2 0x2349 JUMPI PUSH1 0x40 MLOAD PUSH3 0x461BCD PUSH1 0xE5 SHL DUP2 MSTORE PUSH1 0x20 PUSH1 0x4 DUP3 ADD MSTORE PUSH1 0x3B PUSH1 0x24 DUP3 ADD MSTORE PUSH32 0x77686974656C697374657220616464726573732068617320616C726561647920 PUSH1 0x44 DUP3 ADD MSTORE PUSH32 0x6265656E206D6F64696669656420746F20746861742076616C75650000000000 PUSH1 0x64 DUP3 ADD MSTORE PUSH1 0x84 ADD PUSH2 0xB43 JUMP JUMPDEST PUSH2 0x130 DUP1 SLOAD PUSH1 0x1 PUSH1 0x1 PUSH1 0xA0 SHL SUB NOT AND PUSH1 0x1 PUSH1 0x1 PUSH1 0xA0 SHL SUB DUP4 AND SWAP1 DUP2 OR SWAP1 SWAP2 SSTORE PUSH1 0x40 MLOAD SWAP1 DUP2 MSTORE PUSH32 0x32359536720ADEDFB2B6C6DD7685519F09FDF93CE7824B68D5B2F56354FDEBEC SWAP1 PUSH1 0x20 ADD PUSH2 0x2240 JUMP JUMPDEST PUSH2 0x23A0 PUSH2 0x39E2 JUMP JUMPDEST PUSH2 0x1F76 PUSH1 0x0 PUSH2 0x3D8B JUMP JUMPDEST CALLER PUSH1 0x0 SWAP1 DUP2 MSTORE PUSH2 0x132 PUSH1 0x20 MSTORE PUSH1 0x40 DUP2 KECCAK256 SLOAD PUSH1 0xFF AND PUSH2 0x23DA JUMPI PUSH1 0x40 MLOAD PUSH3 0x461BCD PUSH1 0xE5 SHL DUP2 MSTORE PUSH1 0x4 ADD PUSH2 0xB43 SWAP1 PUSH2 0x45EF JUMP JUMPDEST CALLER PUSH1 0x0 SWAP1 DUP2 MSTORE PUSH2 0x132 PUSH1 0x20 MSTORE PUSH1 0x40 SWAP1 KECCAK256 SLOAD PUSH2 0x100 SWAP1 DIV PUSH1 0xFF AND ISZERO PUSH2 0x2410 JUMPI PUSH1 0x40 MLOAD PUSH3 0x461BCD PUSH1 0xE5 SHL DUP2 MSTORE PUSH1 0x4 ADD PUSH2 0xB43 SWAP1 PUSH2 0x4643 JUMP JUMPDEST PUSH2 0x2418 PUSH2 0xAF5 JUMP JUMPDEST PUSH1 0x0 DUP1 PUSH1 0x1 DUP6 PUSH1 0x4 DUP2 GT ISZERO PUSH2 0x242F JUMPI PUSH2 0x242F PUSH2 0x4431 JUMP JUMPDEST SUB PUSH2 0x24B0 JUMPI PUSH2 0x138 SLOAD PUSH1 0x40 MLOAD PUSH4 0xBB6F98FB PUSH1 0xE0 SHL DUP2 MSTORE PUSH1 0x1 PUSH1 0x1 PUSH1 0xA0 SHL SUB SWAP1 SWAP2 AND SWAP3 POP ADDRESS SWAP1 PUSH4 0xBB6F98FB SWAP1 PUSH2 0x2468 SWAP1 DUP9 SWAP1 PUSH1 0x4 ADD PUSH2 0x46B5 JUMP JUMPDEST PUSH1 0x20 PUSH1 0x40 MLOAD DUP1 DUP4 SUB DUP2 DUP7 GAS STATICCALL ISZERO DUP1 ISZERO PUSH2 0x2485 JUMPI RETURNDATASIZE PUSH1 0x0 DUP1 RETURNDATACOPY RETURNDATASIZE PUSH1 0x0 REVERT JUMPDEST POP POP POP POP PUSH1 0x40 MLOAD RETURNDATASIZE PUSH1 0x1F NOT PUSH1 0x1F DUP3 ADD AND DUP3 ADD DUP1 PUSH1 0x40 MSTORE POP DUP2 ADD SWAP1 PUSH2 0x24A9 SWAP2 SWAP1 PUSH2 0x46C3 JUMP JUMPDEST SWAP1 POP PUSH2 0x2597 JUMP JUMPDEST PUSH1 0x2 DUP6 PUSH1 0x4 DUP2 GT ISZERO PUSH2 0x24C4 JUMPI PUSH2 0x24C4 PUSH2 0x4431 JUMP JUMPDEST SUB PUSH2 0x24FD JUMPI PUSH2 0x13C SLOAD PUSH1 0x40 MLOAD PUSH4 0xBB6F98FB PUSH1 0xE0 SHL DUP2 MSTORE PUSH1 0x1 PUSH1 0x1 PUSH1 0xA0 SHL SUB SWAP1 SWAP2 AND SWAP3 POP ADDRESS SWAP1 PUSH4 0xBB6F98FB SWAP1 PUSH2 0x2468 SWAP1 DUP9 SWAP1 PUSH1 0x4 ADD PUSH2 0x46B5 JUMP JUMPDEST PUSH1 0x3 DUP6 PUSH1 0x4 DUP2 GT ISZERO PUSH2 0x2511 JUMPI PUSH2 0x2511 PUSH2 0x4431 JUMP JUMPDEST SUB PUSH2 0x254A JUMPI PUSH2 0x140 SLOAD PUSH1 0x40 MLOAD PUSH4 0xBB6F98FB PUSH1 0xE0 SHL DUP2 MSTORE PUSH1 0x1 PUSH1 0x1 PUSH1 0xA0 SHL SUB SWAP1 SWAP2 AND SWAP3 POP ADDRESS SWAP1 PUSH4 0xBB6F98FB SWAP1 PUSH2 0x2468 SWAP1 DUP9 SWAP1 PUSH1 0x4 ADD PUSH2 0x46B5 JUMP JUMPDEST PUSH1 0x4 DUP6 PUSH1 0x4 DUP2 GT ISZERO PUSH2 0x255E JUMPI PUSH2 0x255E PUSH2 0x4431 JUMP JUMPDEST SUB PUSH2 0x124D JUMPI PUSH2 0x144 SLOAD PUSH1 0x40 MLOAD PUSH4 0xBB6F98FB PUSH1 0xE0 SHL DUP2 MSTORE PUSH1 0x1 PUSH1 0x1 PUSH1 0xA0 SHL SUB SWAP1 SWAP2 AND SWAP3 POP ADDRESS SWAP1 PUSH4 0xBB6F98FB SWAP1 PUSH2 0x2468 SWAP1 DUP9 SWAP1 PUSH1 0x4 ADD PUSH2 0x46B5 JUMP JUMPDEST PUSH1 0x0 DUP1 PUSH2 0x25A4 DUP7 DUP5 PUSH2 0x2E88 JUMP JUMPDEST SWAP2 POP SWAP2 POP PUSH2 0x25B2 DUP3 CALLER PUSH2 0x28AD JUMP JUMPDEST PUSH1 0x40 MLOAD PUSH4 0x23B872DD PUSH1 0xE0 SHL DUP2 MSTORE CALLER PUSH1 0x4 DUP3 ADD MSTORE ADDRESS PUSH1 0x24 DUP3 ADD MSTORE PUSH1 0x44 DUP2 ADD DUP8 SWAP1 MSTORE PUSH1 0x1 PUSH1 0x1 PUSH1 0xA0 SHL SUB DUP6 AND SWAP1 PUSH4 0x23B872DD SWAP1 PUSH1 0x64 ADD PUSH1 0x20 PUSH1 0x40 MLOAD DUP1 DUP4 SUB DUP2 PUSH1 0x0 DUP8 GAS CALL ISZERO DUP1 ISZERO PUSH2 0x2605 JUMPI RETURNDATASIZE PUSH1 0x0 DUP1 RETURNDATACOPY RETURNDATASIZE PUSH1 0x0 REVERT JUMPDEST POP POP POP POP PUSH1 0x40 MLOAD RETURNDATASIZE PUSH1 0x1F NOT PUSH1 0x1F DUP3 ADD AND DUP3 ADD DUP1 PUSH1 0x40 MSTORE POP DUP2 ADD SWAP1 PUSH2 0x2629 SWAP2 SWAP1 PUSH2 0x46DC JUMP JUMPDEST PUSH2 0x2692 JUMPI PUSH1 0x40 MLOAD PUSH3 0x461BCD PUSH1 0xE5 SHL DUP2 MSTORE PUSH1 0x20 PUSH1 0x4 DUP3 ADD MSTORE PUSH1 0x34 PUSH1 0x24 DUP3 ADD MSTORE PUSH32 0x54686572652077617320616E206572726F72206F6E20726563656976696E6720 PUSH1 0x44 DUP3 ADD MSTORE PUSH20 0x1D1A19481D1BDAD95B881A5B9D995CDD1B595B9D PUSH1 0x62 SHL PUSH1 0x64 DUP3 ADD MSTORE PUSH1 0x84 ADD PUSH2 0xB43 JUMP JUMPDEST PUSH2 0x131 SLOAD PUSH1 0x40 MLOAD PUSH4 0xA9059CBB PUSH1 0xE0 SHL DUP2 MSTORE PUSH1 0x1 PUSH1 0x1 PUSH1 0xA0 SHL SUB SWAP2 DUP3 AND PUSH1 0x4 DUP3 ADD MSTORE PUSH1 0x24 DUP2 ADD DUP9 SWAP1 MSTORE SWAP1 DUP6 AND SWAP1 PUSH4 0xA9059CBB SWAP1 PUSH1 0x44 ADD PUSH1 0x20 PUSH1 0x40 MLOAD DUP1 DUP4 SUB DUP2 PUSH1 0x0 DUP8 GAS CALL ISZERO DUP1 ISZERO PUSH2 0x26E6 JUMPI RETURNDATASIZE PUSH1 0x0 DUP1 RETURNDATACOPY RETURNDATASIZE PUSH1 0x0 REVERT JUMPDEST POP POP POP POP PUSH1 0x40 MLOAD RETURNDATASIZE PUSH1 0x1F NOT PUSH1 0x1F DUP3 ADD AND DUP3 ADD DUP1 PUSH1 0x40 MSTORE POP DUP2 ADD SWAP1 PUSH2 0x270A SWAP2 SWAP1 PUSH2 0x46DC JUMP JUMPDEST PUSH2 0x2787 JUMPI PUSH1 0x40 MLOAD PUSH3 0x461BCD PUSH1 0xE5 SHL DUP2 MSTORE PUSH1 0x20 PUSH1 0x4 DUP3 ADD MSTORE PUSH1 0x42 PUSH1 0x24 DUP3 ADD MSTORE PUSH32 0x54686572652077617320616E206572726F72206F6E2073656E64696E67207468 PUSH1 0x44 DUP3 ADD MSTORE PUSH32 0x6520746F6B656E20696E766573746D656E7420746F2074686520747265617375 PUSH1 0x64 DUP3 ADD MSTORE PUSH2 0x7279 PUSH1 0xF0 SHL PUSH1 0x84 DUP3 ADD MSTORE PUSH1 0xA4 ADD PUSH2 0xB43 JUMP JUMPDEST PUSH1 0x40 MLOAD PUSH4 0xA9059CBB PUSH1 0xE0 SHL DUP2 MSTORE CALLER PUSH1 0x4 DUP3 ADD MSTORE PUSH1 0x24 DUP2 ADD DUP3 SWAP1 MSTORE ADDRESS SWAP1 PUSH4 0xA9059CBB SWAP1 PUSH1 0x44 ADD PUSH1 0x20 PUSH1 0x40 MLOAD DUP1 DUP4 SUB DUP2 PUSH1 0x0 DUP8 GAS CALL ISZERO DUP1 ISZERO PUSH2 0x27CB JUMPI RETURNDATASIZE PUSH1 0x0 DUP1 RETURNDATACOPY RETURNDATASIZE PUSH1 0x0 REVERT JUMPDEST POP POP POP POP PUSH1 0x40 MLOAD RETURNDATASIZE PUSH1 0x1F NOT PUSH1 0x1F DUP3 ADD AND DUP3 ADD DUP1 PUSH1 0x40 MSTORE POP DUP2 ADD SWAP1 PUSH2 0x27EF SWAP2 SWAP1 PUSH2 0x46DC JUMP JUMPDEST PUSH2 0x280B JUMPI PUSH1 0x40 MLOAD PUSH3 0x461BCD PUSH1 0xE5 SHL DUP2 MSTORE PUSH1 0x4 ADD PUSH2 0xB43 SWAP1 PUSH2 0x46F9 JUMP JUMPDEST CALLER PUSH1 0x0 SWAP1 DUP2 MSTORE PUSH2 0x132 PUSH1 0x20 MSTORE PUSH1 0x40 DUP2 KECCAK256 PUSH1 0x2 ADD DUP1 SLOAD DUP5 SWAP3 SWAP1 PUSH2 0x282E SWAP1 DUP5 SWAP1 PUSH2 0x441E JUMP JUMPDEST SWAP1 SWAP2 SSTORE POP POP CALLER PUSH1 0x0 SWAP1 DUP2 MSTORE PUSH2 0x132 PUSH1 0x20 MSTORE PUSH1 0x40 DUP2 KECCAK256 PUSH1 0x1 ADD DUP1 SLOAD DUP4 SWAP3 SWAP1 PUSH2 0x2856 SWAP1 DUP5 SWAP1 PUSH2 0x441E JUMP JUMPDEST SWAP1 SWAP2 SSTORE POP POP PUSH1 0x40 MLOAD PUSH32 0x3B60324B6DB90922773BDE8799E6D3B7D574474A0FB52A6D340BD2EE92B5EDBC SWAP1 PUSH2 0x2893 SWAP1 DUP10 SWAP1 CALLER SWAP1 DUP11 SWAP1 DUP8 SWAP1 DUP8 SWAP1 PUSH2 0x4760 JUMP JUMPDEST PUSH1 0x40 MLOAD DUP1 SWAP2 SUB SWAP1 LOG1 PUSH1 0x1 SWAP5 POP POP POP POP POP PUSH2 0xC00 PUSH1 0x1 PUSH1 0xFB SSTORE JUMP JUMPDEST PUSH1 0x1 PUSH1 0x1 PUSH1 0xA0 SHL SUB DUP2 AND PUSH1 0x0 SWAP1 DUP2 MSTORE PUSH2 0x132 PUSH1 0x20 MSTORE PUSH1 0x40 DUP2 KECCAK256 PUSH1 0x2 ADD SLOAD PUSH2 0x28D4 SWAP1 DUP5 PUSH2 0x441E JUMP JUMPDEST SWAP1 POP PUSH2 0x12F SLOAD DUP2 GT ISZERO PUSH2 0x2981 JUMPI PUSH1 0x1 PUSH1 0x1 PUSH1 0xA0 SHL SUB DUP3 AND PUSH1 0x0 SWAP1 DUP2 MSTORE PUSH2 0x132 PUSH1 0x20 MSTORE PUSH1 0x40 SWAP1 KECCAK256 SLOAD PUSH3 0x10000 SWAP1 DIV PUSH1 0xFF AND PUSH2 0x2981 JUMPI PUSH1 0x40 MLOAD PUSH3 0x461BCD PUSH1 0xE5 SHL DUP2 MSTORE PUSH1 0x20 PUSH1 0x4 DUP3 ADD MSTORE PUSH1 0x42 PUSH1 0x24 DUP3 ADD MSTORE PUSH32 0x546F20627579207468617420616D6F756E74206F662048594158206974732072 PUSH1 0x44 DUP3 ADD MSTORE PUSH32 0x6571756972656420746F2062652061207175616C696669656420696E76657374 PUSH1 0x64 DUP3 ADD MSTORE PUSH2 0x37B9 PUSH1 0xF1 SHL PUSH1 0x84 DUP3 ADD MSTORE PUSH1 0xA4 ADD PUSH2 0xB43 JUMP JUMPDEST POP POP POP JUMP JUMPDEST PUSH1 0x0 SLOAD PUSH2 0x100 SWAP1 DIV PUSH1 0xFF AND ISZERO DUP1 DUP1 ISZERO PUSH2 0x29A6 JUMPI POP PUSH1 0x0 SLOAD PUSH1 0x1 PUSH1 0xFF SWAP1 SWAP2 AND LT JUMPDEST DUP1 PUSH2 0x29C0 JUMPI POP ADDRESS EXTCODESIZE ISZERO DUP1 ISZERO PUSH2 0x29C0 JUMPI POP PUSH1 0x0 SLOAD PUSH1 0xFF AND PUSH1 0x1 EQ JUMPDEST PUSH2 0x2A23 JUMPI PUSH1 0x40 MLOAD PUSH3 0x461BCD PUSH1 0xE5 SHL DUP2 MSTORE PUSH1 0x20 PUSH1 0x4 DUP3 ADD MSTORE PUSH1 0x2E PUSH1 0x24 DUP3 ADD MSTORE PUSH32 0x496E697469616C697A61626C653A20636F6E747261637420697320616C726561 PUSH1 0x44 DUP3 ADD MSTORE PUSH14 0x191E481A5B9A5D1A585B1A5E9959 PUSH1 0x92 SHL PUSH1 0x64 DUP3 ADD MSTORE PUSH1 0x84 ADD PUSH2 0xB43 JUMP JUMPDEST PUSH1 0x0 DUP1 SLOAD PUSH1 0xFF NOT AND PUSH1 0x1 OR SWAP1 SSTORE DUP1 ISZERO PUSH2 0x2A46 JUMPI PUSH1 0x0 DUP1 SLOAD PUSH2 0xFF00 NOT AND PUSH2 0x100 OR SWAP1 SSTORE JUMPDEST PUSH2 0x2A8D PUSH1 0x40 MLOAD DUP1 PUSH1 0x40 ADD PUSH1 0x40 MSTORE DUP1 PUSH1 0x9 DUP2 MSTORE PUSH1 0x20 ADD PUSH9 0x242CA0AC2A37B5B2B7 PUSH1 0xB9 SHL DUP2 MSTORE POP PUSH1 0x40 MLOAD DUP1 PUSH1 0x40 ADD PUSH1 0x40 MSTORE DUP1 PUSH1 0x4 DUP2 MSTORE PUSH1 0x20 ADD PUSH4 0x90B282B PUSH1 0xE3 SHL DUP2 MSTORE POP PUSH2 0x3DDD JUMP JUMPDEST PUSH2 0x2A95 PUSH2 0x3E0E JUMP JUMPDEST PUSH2 0x2A9D PUSH2 0x3E3D JUMP JUMPDEST PUSH2 0x2AA5 PUSH2 0x3E6C JUMP JUMPDEST PUSH2 0x2AC8 CALLER PUSH2 0x2AB5 PUSH1 0x12 PUSH1 0xA PUSH2 0x43F8 JUMP JUMPDEST PUSH2 0x2AC3 SWAP1 PUSH4 0x1DCD6500 PUSH2 0x4407 JUMP JUMPDEST PUSH2 0x3A3C JUMP JUMPDEST PUSH3 0x927C0 PUSH2 0x12D SSTORE PUSH2 0x2ADC PUSH1 0x12 PUSH1 0xA PUSH2 0x43F8 JUMP JUMPDEST PUSH2 0x2AE7 SWAP1 PUSH1 0x1 PUSH2 0x4407 JUMP JUMPDEST PUSH2 0x12E SSTORE PUSH2 0x2AF7 PUSH1 0x12 PUSH1 0xA PUSH2 0x43F8 JUMP JUMPDEST PUSH2 0x2B03 SWAP1 PUSH2 0x2710 PUSH2 0x4407 JUMP JUMPDEST PUSH2 0x12F SSTORE PUSH2 0x130 DUP1 SLOAD PUSH1 0x1 PUSH1 0x1 PUSH1 0xA0 SHL SUB NOT SWAP1 DUP2 AND PUSH20 0x1C2F012DE19E6436744C3F81F56E9E70C93A8C3 OR SWAP1 SWAP2 SSTORE PUSH2 0x131 DUP1 SLOAD DUP3 AND PUSH20 0x350441F8A82680A785FFA9D3EFEA60BB4CA417F8 OR SWAP1 SSTORE PUSH2 0x133 DUP1 SLOAD DUP3 AND PUSH19 0x1382149EBA3441043C1C66972B4772963F5D43 SWAP1 DUP2 OR SWAP1 SWAP2 SSTORE PUSH2 0x134 DUP1 SLOAD DUP4 AND SWAP1 SWAP2 OR SWAP1 SSTORE PUSH2 0x135 DUP1 SLOAD DUP3 AND PUSH20 0xF68054BFE5D45432FFCA28FFA1F3D685D0456DDC SWAP1 DUP2 OR SWAP1 SWAP2 SSTORE PUSH2 0x136 DUP1 SLOAD DUP4 AND PUSH20 0x1B8739BB4CDF0089D07097A9AE5BD274B29C6F16 SWAP1 DUP2 OR SWAP1 SWAP2 SSTORE PUSH2 0x137 DUP1 SLOAD DUP5 AND SWAP1 SWAP2 OR SWAP1 SSTORE PUSH2 0x138 DUP1 SLOAD DUP4 AND SWAP1 SWAP2 OR SWAP1 SSTORE PUSH2 0x139 DUP1 SLOAD DUP3 AND PUSH20 0x70E02FB82B6BC04F64099689B0599E14B44D4FBB SWAP1 DUP2 OR SWAP1 SWAP2 SSTORE PUSH2 0x13A DUP1 SLOAD DUP4 AND PUSH20 0x3AC23DCB4ECFCBD24579E1F34542524D0E4EDEA8 SWAP1 DUP2 OR SWAP1 SWAP2 SSTORE PUSH2 0x13B DUP1 SLOAD DUP5 AND SWAP1 SWAP2 OR SWAP1 SSTORE PUSH2 0x13C DUP1 SLOAD DUP4 AND SWAP1 SWAP2 OR SWAP1 SSTORE PUSH2 0x13D DUP1 SLOAD DUP3 AND PUSH20 0x3C8DF3C48B3884DA2FF25E17524282D60F9C3B93 SWAP1 DUP2 OR SWAP1 SWAP2 SSTORE PUSH2 0x13E DUP1 SLOAD DUP4 AND PUSH20 0xE7656E23FE8077D438AEFBEC2FABDF2D8E070C4F SWAP1 DUP2 OR SWAP1 SWAP2 SSTORE PUSH2 0x13F DUP1 SLOAD DUP5 AND SWAP1 SWAP2 OR SWAP1 SSTORE PUSH2 0x140 DUP1 SLOAD DUP4 AND SWAP1 SWAP2 OR SWAP1 SSTORE PUSH2 0x141 DUP1 SLOAD DUP3 AND PUSH20 0x524A89ED77D5827320E35E12BCA96830C6B7960A SWAP1 DUP2 OR SWAP1 SWAP2 SSTORE PUSH2 0x142 DUP1 SLOAD DUP4 AND PUSH20 0xF0D50568E3A7E8259E16663972B11910F89BD8E7 SWAP1 DUP2 OR SWAP1 SWAP2 SSTORE PUSH2 0x143 DUP1 SLOAD DUP5 AND SWAP1 SWAP2 OR SWAP1 SSTORE PUSH2 0x144 DUP1 SLOAD SWAP1 SWAP3 AND OR SWAP1 SSTORE DUP1 ISZERO PUSH2 0xE27 JUMPI PUSH1 0x0 DUP1 SLOAD PUSH2 0xFF00 NOT AND SWAP1 SSTORE PUSH1 0x40 MLOAD PUSH1 0x1 DUP2 MSTORE PUSH32 0x7F26B83FF96E1F2B6A682F133852F6798A09C465DA95921460CEFB3847402498 SWAP1 PUSH1 0x20 ADD PUSH2 0x2240 JUMP JUMPDEST PUSH2 0x2D36 PUSH2 0x39E2 JUMP JUMPDEST PUSH1 0x1 PUSH1 0x1 PUSH1 0xA0 SHL SUB DUP2 AND PUSH2 0x2DA4 JUMPI PUSH1 0x40 MLOAD PUSH3 0x461BCD PUSH1 0xE5 SHL DUP2 MSTORE PUSH1 0x20 PUSH1 0x4 DUP3 ADD MSTORE PUSH1 0x2F PUSH1 0x24 DUP3 ADD MSTORE PUSH32 0x54686520747265617375727920616464726573732063616E6E6F742062652074 PUSH1 0x44 DUP3 ADD MSTORE PUSH15 0x6865207A65726F2061646472657373 PUSH1 0x88 SHL PUSH1 0x64 DUP3 ADD MSTORE PUSH1 0x84 ADD PUSH2 0xB43 JUMP JUMPDEST PUSH2 0x131 SLOAD PUSH1 0x1 PUSH1 0x1 PUSH1 0xA0 SHL SUB SWAP1 DUP2 AND SWAP1 DUP3 AND SUB PUSH2 0x2E29 JUMPI PUSH1 0x40 MLOAD PUSH3 0x461BCD PUSH1 0xE5 SHL DUP2 MSTORE PUSH1 0x20 PUSH1 0x4 DUP3 ADD MSTORE PUSH1 0x38 PUSH1 0x24 DUP3 ADD MSTORE PUSH32 0x547265617375727920616464726573732068617320616C726561647920626565 PUSH1 0x44 DUP3 ADD MSTORE PUSH32 0x6E206D6F64696669656420746F20746861742076616C75650000000000000000 PUSH1 0x64 DUP3 ADD MSTORE PUSH1 0x84 ADD PUSH2 0xB43 JUMP JUMPDEST PUSH2 0x131 DUP1 SLOAD PUSH1 0x1 PUSH1 0x1 PUSH1 0xA0 SHL SUB NOT AND PUSH1 0x1 PUSH1 0x1 PUSH1 0xA0 SHL SUB DUP4 AND SWAP1 DUP2 OR SWAP1 SWAP2 SSTORE PUSH1 0x40 MLOAD SWAP1 DUP2 MSTORE PUSH32 0x2E1E696CFB265FA16E1170D24EF04CB2262772BDE00ECF34D80BAE6722487B7F SWAP1 PUSH1 0x20 ADD PUSH2 0x2240 JUMP JUMPDEST PUSH2 0x2E80 PUSH2 0x39E2 JUMP JUMPDEST PUSH2 0x1F76 PUSH2 0x3E9B JUMP JUMPDEST PUSH1 0x0 DUP1 PUSH4 0x5F5E100 PUSH2 0x2E9A DUP5 DUP7 PUSH2 0x4407 JUMP JUMPDEST PUSH2 0x2EA4 SWAP2 SWAP1 PUSH2 0x479A JUMP JUMPDEST PUSH2 0x12D SLOAD SWAP1 SWAP3 POP PUSH2 0x2EB9 DUP4 PUSH4 0x5F5E100 PUSH2 0x4407 JUMP JUMPDEST PUSH2 0x2EC3 SWAP2 SWAP1 PUSH2 0x479A JUMP JUMPDEST SWAP1 POP PUSH2 0x12E SLOAD DUP3 LT ISZERO PUSH2 0x2F48 JUMPI PUSH1 0x40 MLOAD PUSH3 0x461BCD PUSH1 0xE5 SHL DUP2 MSTORE PUSH1 0x20 PUSH1 0x4 DUP3 ADD MSTORE PUSH1 0x41 PUSH1 0x24 DUP3 ADD MSTORE PUSH32 0x54686520616D6F756E7420746F20696E76657374206D75737420626520677265 PUSH1 0x44 DUP3 ADD MSTORE PUSH32 0x61746572207468616E20746865206D696E696D756D2065737461626C69736865 PUSH1 0x64 DUP3 ADD MSTORE PUSH1 0x19 PUSH1 0xFA SHL PUSH1 0x84 DUP3 ADD MSTORE PUSH1 0xA4 ADD PUSH2 0xB43 JUMP JUMPDEST ADDRESS PUSH1 0x0 SWAP1 DUP2 MSTORE PUSH1 0x33 PUSH1 0x20 MSTORE PUSH1 0x40 SWAP1 KECCAK256 SLOAD DUP2 GT ISZERO PUSH2 0x2FDE JUMPI PUSH1 0x40 MLOAD PUSH3 0x461BCD PUSH1 0xE5 SHL DUP2 MSTORE PUSH1 0x20 PUSH1 0x4 DUP3 ADD MSTORE PUSH1 0x48 PUSH1 0x24 DUP3 ADD MSTORE PUSH32 0x54686520696E766573746D656E74206D6164652072657475726E7320616E2061 PUSH1 0x44 DUP3 ADD MSTORE PUSH32 0x6D6F756E74206F6620485941582067726561746572207468616E207468652061 PUSH1 0x64 DUP3 ADD MSTORE PUSH8 0x7661696C61626C65 PUSH1 0xC0 SHL PUSH1 0x84 DUP3 ADD MSTORE PUSH1 0xA4 ADD PUSH2 0xB43 JUMP JUMPDEST SWAP3 POP SWAP3 SWAP1 POP JUMP JUMPDEST PUSH1 0x60 PUSH1 0x37 DUP1 SLOAD PUSH2 0xB69 SWAP1 PUSH2 0x42CA JUMP JUMPDEST PUSH1 0x0 CALLER DUP2 PUSH2 0x3002 DUP3 DUP7 PUSH2 0x37A6 JUMP JUMPDEST SWAP1 POP DUP4 DUP2 LT ISZERO PUSH2 0x3062 JUMPI PUSH1 0x40 MLOAD PUSH3 0x461BCD PUSH1 0xE5 SHL DUP2 MSTORE PUSH1 0x20 PUSH1 0x4 DUP3 ADD MSTORE PUSH1 0x25 PUSH1 0x24 DUP3 ADD MSTORE PUSH32 0x45524332303A2064656372656173656420616C6C6F77616E63652062656C6F77 PUSH1 0x44 DUP3 ADD MSTORE PUSH5 0x207A65726F PUSH1 0xD8 SHL PUSH1 0x64 DUP3 ADD MSTORE PUSH1 0x84 ADD PUSH2 0xB43 JUMP JUMPDEST PUSH2 0xE43 DUP3 DUP7 DUP7 DUP5 SUB PUSH2 0x38BE JUMP JUMPDEST PUSH1 0x0 CALLER PUSH2 0xBFA DUP2 DUP6 DUP6 PUSH2 0x3B83 JUMP JUMPDEST PUSH2 0x3085 PUSH2 0x39E2 JUMP JUMPDEST PUSH1 0x0 DUP2 GT PUSH2 0x30F5 JUMPI PUSH1 0x40 MLOAD PUSH3 0x461BCD PUSH1 0xE5 SHL DUP2 MSTORE PUSH1 0x20 PUSH1 0x4 DUP3 ADD MSTORE PUSH1 0x37 PUSH1 0x24 DUP3 ADD MSTORE PUSH32 0x4E6577206D696E696D756E20616D6F756E7420746F20696E766573742C206D75 PUSH1 0x44 DUP3 ADD MSTORE PUSH23 0x73742062652067726561746572207468616E207A65726F PUSH1 0x48 SHL PUSH1 0x64 DUP3 ADD MSTORE PUSH1 0x84 ADD PUSH2 0xB43 JUMP JUMPDEST PUSH2 0x12E DUP2 SWAP1 SSTORE PUSH1 0x40 MLOAD DUP2 DUP2 MSTORE PUSH32 0xEE60EB8E40A2EC796BFE3CA896B9221AF9764FC0987BF0508CA755266D9C85F8 SWAP1 PUSH1 0x20 ADD PUSH2 0x2240 JUMP JUMPDEST PUSH2 0x3133 PUSH2 0x39E2 JUMP JUMPDEST PUSH2 0x12D SLOAD DUP2 SUB PUSH2 0x31A0 JUMPI PUSH1 0x40 MLOAD PUSH3 0x461BCD PUSH1 0xE5 SHL DUP2 MSTORE PUSH1 0x20 PUSH1 0x4 DUP3 ADD MSTORE PUSH1 0x32 PUSH1 0x24 DUP3 ADD MSTORE PUSH32 0x485941582070726963652068617320616C7265616479206265656E206D6F6469 PUSH1 0x44 DUP3 ADD MSTORE PUSH18 0x6669656420746F20746861742076616C7565 PUSH1 0x70 SHL PUSH1 0x64 DUP3 ADD MSTORE PUSH1 0x84 ADD PUSH2 0xB43 JUMP JUMPDEST PUSH3 0x7A120 DUP2 LT ISZERO PUSH2 0x3230 JUMPI PUSH1 0x40 MLOAD PUSH3 0x461BCD PUSH1 0xE5 SHL DUP2 MSTORE PUSH1 0x20 PUSH1 0x4 DUP3 ADD MSTORE PUSH1 0x4E PUSH1 0x24 DUP3 ADD MSTORE PUSH32 0x5072696365206F66204859415820746F6B656E206D757374206265206174206C PUSH1 0x44 DUP3 ADD MSTORE PUSH32 0x656173742055534420302E3030352C2074686174206973203530303030302077 PUSH1 0x64 DUP3 ADD MSTORE PUSH14 0x697468203820646563696D616C73 PUSH1 0x90 SHL PUSH1 0x84 DUP3 ADD MSTORE PUSH1 0xA4 ADD PUSH2 0xB43 JUMP JUMPDEST PUSH5 0x174876E800 DUP2 GT ISZERO PUSH2 0x32C9 JUMPI PUSH1 0x40 MLOAD PUSH3 0x461BCD PUSH1 0xE5 SHL DUP2 MSTORE PUSH1 0x20 PUSH1 0x4 DUP3 ADD MSTORE PUSH1 0x55 PUSH1 0x24 DUP3 ADD MSTORE PUSH32 0x5072696365206F66204859415820746F6B656E206D757374206265206174206D PUSH1 0x44 DUP3 ADD MSTORE PUSH32 0x6178696D756D2055534420313030302C20746861742069732031303030303030 PUSH1 0x64 DUP3 ADD MSTORE PUSH21 0x30303030302077697468203820646563696D616C73 PUSH1 0x58 SHL PUSH1 0x84 DUP3 ADD MSTORE PUSH1 0xA4 ADD PUSH2 0xB43 JUMP JUMPDEST PUSH2 0x12D DUP2 SWAP1 SSTORE PUSH1 0x40 MLOAD DUP2 DUP2 MSTORE PUSH32 0x4F6F7BBBB2B0DDE2246EE6650672D1B55A5BE5B52F8DD2E8D595F4BD47E1C913 SWAP1 PUSH1 0x20 ADD PUSH2 0x2240 JUMP JUMPDEST PUSH1 0xC9 SLOAD PUSH1 0x1 PUSH1 0x1 PUSH1 0xA0 SHL SUB AND CALLER EQ DUP1 PUSH2 0x3323 JUMPI POP PUSH2 0x130 SLOAD PUSH1 0x1 PUSH1 0x1 PUSH1 0xA0 SHL SUB AND CALLER EQ JUMPDEST PUSH2 0x333F JUMPI PUSH1 0x40 MLOAD PUSH3 0x461BCD PUSH1 0xE5 SHL DUP2 MSTORE PUSH1 0x4 ADD PUSH2 0xB43 SWAP1 PUSH2 0x4592 JUMP JUMPDEST PUSH1 0x1 PUSH1 0x1 PUSH1 0xA0 SHL SUB DUP3 AND PUSH2 0x33CA JUMPI PUSH1 0x40 MLOAD PUSH3 0x461BCD PUSH1 0xE5 SHL DUP2 MSTORE PUSH1 0x20 PUSH1 0x4 DUP3 ADD MSTORE PUSH1 0x46 PUSH1 0x24 DUP3 ADD MSTORE PUSH32 0x496E766573746F72206164647265737320746F2075706461746520626C61636B PUSH1 0x44 DUP3 ADD MSTORE PUSH32 0x6C697374207374617475732063616E6E6F7420626520746865207A65726F2061 PUSH1 0x64 DUP3 ADD MSTORE PUSH6 0x646472657373 PUSH1 0xD0 SHL PUSH1 0x84 DUP3 ADD MSTORE PUSH1 0xA4 ADD PUSH2 0xB43 JUMP JUMPDEST PUSH1 0x1 PUSH1 0x1 PUSH1 0xA0 SHL SUB DUP3 AND PUSH1 0x0 SWAP1 DUP2 MSTORE PUSH2 0x132 PUSH1 0x20 MSTORE PUSH1 0x40 SWAP1 KECCAK256 SLOAD DUP2 ISZERO ISZERO PUSH2 0x100 SWAP1 SWAP2 DIV PUSH1 0xFF AND ISZERO ISZERO SUB PUSH2 0x340F JUMPI PUSH1 0x40 MLOAD PUSH3 0x461BCD PUSH1 0xE5 SHL DUP2 MSTORE PUSH1 0x4 ADD PUSH2 0xB43 SWAP1 PUSH2 0x47BC JUMP JUMPDEST PUSH1 0x1 PUSH1 0x1 PUSH1 0xA0 SHL SUB DUP3 AND PUSH1 0x0 DUP2 DUP2 MSTORE PUSH2 0x132 PUSH1 0x20 SWAP1 DUP2 MSTORE PUSH1 0x40 SWAP2 DUP3 SWAP1 KECCAK256 DUP1 SLOAD PUSH2 0xFF00 NOT AND PUSH2 0x100 DUP7 ISZERO ISZERO SWAP1 DUP2 MUL SWAP2 SWAP1 SWAP2 OR SWAP1 SWAP2 SSTORE DUP3 MLOAD CALLER DUP2 MSTORE SWAP2 DUP3 ADD SWAP4 SWAP1 SWAP4 MSTORE SWAP1 DUP2 ADD SWAP2 SWAP1 SWAP2 MSTORE PUSH32 0x89A9C56967D4535D54C90BFFD7CBD09F6D2A4C8E26B9E7F033F199D144E12B4E SWAP1 PUSH1 0x60 ADD PUSH2 0x1819 JUMP JUMPDEST PUSH1 0x0 DUP1 DUP1 DUP4 PUSH1 0x4 DUP2 GT ISZERO PUSH2 0x3496 JUMPI PUSH2 0x3496 PUSH2 0x4431 JUMP JUMPDEST SUB PUSH2 0x34AE JUMPI POP PUSH2 0x134 SLOAD PUSH1 0x1 PUSH1 0x1 PUSH1 0xA0 SHL SUB AND PUSH2 0x355A JUMP JUMPDEST PUSH1 0x1 DUP4 PUSH1 0x4 DUP2 GT ISZERO PUSH2 0x34C2 JUMPI PUSH2 0x34C2 PUSH2 0x4431 JUMP JUMPDEST SUB PUSH2 0x34DA JUMPI POP PUSH2 0x137 SLOAD PUSH1 0x1 PUSH1 0x1 PUSH1 0xA0 SHL SUB AND PUSH2 0x355A JUMP JUMPDEST PUSH1 0x2 DUP4 PUSH1 0x4 DUP2 GT ISZERO PUSH2 0x34EE JUMPI PUSH2 0x34EE PUSH2 0x4431 JUMP JUMPDEST SUB PUSH2 0x3506 JUMPI POP PUSH2 0x13B SLOAD PUSH1 0x1 PUSH1 0x1 PUSH1 0xA0 SHL SUB AND PUSH2 0x355A JUMP JUMPDEST PUSH1 0x3 DUP4 PUSH1 0x4 DUP2 GT ISZERO PUSH2 0x351A JUMPI PUSH2 0x351A PUSH2 0x4431 JUMP JUMPDEST SUB PUSH2 0x3532 JUMPI POP PUSH2 0x13F SLOAD PUSH1 0x1 PUSH1 0x1 PUSH1 0xA0 SHL SUB AND PUSH2 0x355A JUMP JUMPDEST PUSH1 0x4 DUP4 PUSH1 0x4 DUP2 GT ISZERO PUSH2 0x3546 JUMPI PUSH2 0x3546 PUSH2 0x4431 JUMP JUMPDEST SUB PUSH2 0x124D JUMPI POP PUSH2 0x143 SLOAD PUSH1 0x1 PUSH1 0x1 PUSH1 0xA0 SHL SUB AND JUMPDEST DUP1 PUSH1 0x1 PUSH1 0x1 PUSH1 0xA0 SHL SUB AND PUSH4 0xFEAF968C PUSH1 0x40 MLOAD DUP2 PUSH4 0xFFFFFFFF AND PUSH1 0xE0 SHL DUP2 MSTORE PUSH1 0x4 ADD PUSH1 0xA0 PUSH1 0x40 MLOAD DUP1 DUP4 SUB DUP2 DUP7 GAS STATICCALL SWAP3 POP POP POP DUP1 ISZERO PUSH2 0x35B4 JUMPI POP PUSH1 0x40 DUP1 MLOAD PUSH1 0x1F RETURNDATASIZE SWAP1 DUP2 ADD PUSH1 0x1F NOT AND DUP3 ADD SWAP1 SWAP3 MSTORE PUSH2 0x35B1 SWAP2 DUP2 ADD SWAP1 PUSH2 0x4833 JUMP JUMPDEST PUSH1 0x1 JUMPDEST PUSH2 0x361F JUMPI PUSH1 0x40 MLOAD PUSH3 0x461BCD PUSH1 0xE5 SHL DUP2 MSTORE PUSH1 0x20 PUSH1 0x4 DUP3 ADD MSTORE PUSH1 0x36 PUSH1 0x24 DUP3 ADD MSTORE PUSH32 0x54686572652077617320616E206572726F72206F627461696E696E6720746865 PUSH1 0x44 DUP3 ADD MSTORE PUSH22 0x2070726963652066726F6D20746865206F7261636C65 PUSH1 0x50 SHL PUSH1 0x64 DUP3 ADD MSTORE PUSH1 0x84 ADD PUSH2 0xB43 JUMP JUMPDEST POP SWAP2 SWAP7 SWAP6 POP POP POP POP POP POP JUMP JUMPDEST POP SWAP2 SWAP1 POP JUMP JUMPDEST PUSH1 0xC9 SLOAD PUSH1 0x1 PUSH1 0x1 PUSH1 0xA0 SHL SUB AND CALLER EQ DUP1 PUSH2 0x3655 JUMPI POP PUSH2 0x130 SLOAD PUSH1 0x1 PUSH1 0x1 PUSH1 0xA0 SHL SUB AND CALLER EQ JUMPDEST PUSH2 0x3671 JUMPI PUSH1 0x40 MLOAD PUSH3 0x461BCD PUSH1 0xE5 SHL DUP2 MSTORE PUSH1 0x4 ADD PUSH2 0xB43 SWAP1 PUSH2 0x4592 JUMP JUMPDEST PUSH1 0x1 PUSH1 0x1 PUSH1 0xA0 SHL SUB DUP3 AND PUSH2 0x36FC JUMPI PUSH1 0x40 MLOAD PUSH3 0x461BCD PUSH1 0xE5 SHL DUP2 MSTORE PUSH1 0x20 PUSH1 0x4 DUP3 ADD MSTORE PUSH1 0x46 PUSH1 0x24 DUP3 ADD MSTORE PUSH32 0x496E766573746F72206164647265737320746F20757064617465207768697465 PUSH1 0x44 DUP3 ADD MSTORE PUSH32 0x6C697374207374617475732063616E6E6F7420626520746865207A65726F2061 PUSH1 0x64 DUP3 ADD MSTORE PUSH6 0x646472657373 PUSH1 0xD0 SHL PUSH1 0x84 DUP3 ADD MSTORE PUSH1 0xA4 ADD PUSH2 0xB43 JUMP JUMPDEST PUSH1 0x1 PUSH1 0x1 PUSH1 0xA0 SHL SUB DUP3 AND PUSH1 0x0 SWAP1 DUP2 MSTORE PUSH2 0x132 PUSH1 0x20 MSTORE PUSH1 0x40 SWAP1 KECCAK256 SLOAD DUP2 ISZERO ISZERO PUSH1 0xFF SWAP1 SWAP2 AND ISZERO ISZERO SUB PUSH2 0x373D JUMPI PUSH1 0x40 MLOAD PUSH3 0x461BCD PUSH1 0xE5 SHL DUP2 MSTORE PUSH1 0x4 ADD PUSH2 0xB43 SWAP1 PUSH2 0x47BC JUMP JUMPDEST PUSH1 0x1 PUSH1 0x1 PUSH1 0xA0 SHL SUB DUP3 AND PUSH1 0x0 DUP2 DUP2 MSTORE PUSH2 0x132 PUSH1 0x20 SWAP1 DUP2 MSTORE PUSH1 0x40 SWAP2 DUP3 SWAP1 KECCAK256 DUP1 SLOAD PUSH1 0xFF NOT AND DUP6 ISZERO ISZERO SWAP1 DUP2 OR SWAP1 SWAP2 SSTORE DUP3 MLOAD CALLER DUP2 MSTORE SWAP2 DUP3 ADD SWAP4 SWAP1 SWAP4 MSTORE SWAP1 DUP2 ADD SWAP2 SWAP1 SWAP2 MSTORE PUSH32 0x70BBEE4E66E3FD40F7DA099410CFD723ED4A0B4FEC11F6CC968E850DB827A88B SWAP1 PUSH1 0x60 ADD PUSH2 0x1819 JUMP JUMPDEST PUSH1 0x1 PUSH1 0x1 PUSH1 0xA0 SHL SUB SWAP2 DUP3 AND PUSH1 0x0 SWAP1 DUP2 MSTORE PUSH1 0x34 PUSH1 0x20 SWAP1 DUP2 MSTORE PUSH1 0x40 DUP1 DUP4 KECCAK256 SWAP4 SWAP1 SWAP5 AND DUP3 MSTORE SWAP2 SWAP1 SWAP2 MSTORE KECCAK256 SLOAD SWAP1 JUMP JUMPDEST PUSH2 0x37D9 PUSH2 0x39E2 JUMP JUMPDEST PUSH1 0x1 PUSH1 0x1 PUSH1 0xA0 SHL SUB DUP2 AND PUSH2 0x383E JUMPI PUSH1 0x40 MLOAD PUSH3 0x461BCD PUSH1 0xE5 SHL DUP2 MSTORE PUSH1 0x20 PUSH1 0x4 DUP3 ADD MSTORE PUSH1 0x26 PUSH1 0x24 DUP3 ADD MSTORE PUSH32 0x4F776E61626C653A206E6577206F776E657220697320746865207A65726F2061 PUSH1 0x44 DUP3 ADD MSTORE PUSH6 0x646472657373 PUSH1 0xD0 SHL PUSH1 0x64 DUP3 ADD MSTORE PUSH1 0x84 ADD PUSH2 0xB43 JUMP JUMPDEST ADDRESS PUSH1 0x1 PUSH1 0x1 PUSH1 0xA0 SHL SUB DUP3 AND SUB PUSH2 0x38B5 JUMPI PUSH1 0x40 MLOAD PUSH3 0x461BCD PUSH1 0xE5 SHL DUP2 MSTORE PUSH1 0x20 PUSH1 0x4 DUP3 ADD MSTORE PUSH1 0x36 PUSH1 0x24 DUP3 ADD MSTORE PUSH32 0x4F776E61626C653A206E6577206F776E65722063616E6E6F7420626520746865 PUSH1 0x44 DUP3 ADD MSTORE PUSH22 0x2073616D6520636F6E74726163742061646472657373 PUSH1 0x50 SHL PUSH1 0x64 DUP3 ADD MSTORE PUSH1 0x84 ADD PUSH2 0xB43 JUMP JUMPDEST PUSH2 0xE27 DUP2 PUSH2 0x3D8B JUMP JUMPDEST PUSH1 0x1 PUSH1 0x1 PUSH1 0xA0 SHL SUB DUP4 AND PUSH2 0x3920 JUMPI PUSH1 0x40 MLOAD PUSH3 0x461BCD PUSH1 0xE5 SHL DUP2 MSTORE PUSH1 0x20 PUSH1 0x4 DUP3 ADD MSTORE PUSH1 0x24 DUP1 DUP3 ADD MSTORE PUSH32 0x45524332303A20617070726F76652066726F6D20746865207A65726F20616464 PUSH1 0x44 DUP3 ADD MSTORE PUSH4 0x72657373 PUSH1 0xE0 SHL PUSH1 0x64 DUP3 ADD MSTORE PUSH1 0x84 ADD PUSH2 0xB43 JUMP JUMPDEST PUSH1 0x1 PUSH1 0x1 PUSH1 0xA0 SHL SUB DUP3 AND PUSH2 0x3981 JUMPI PUSH1 0x40 MLOAD PUSH3 0x461BCD PUSH1 0xE5 SHL DUP2 MSTORE PUSH1 0x20 PUSH1 0x4 DUP3 ADD MSTORE PUSH1 0x22 PUSH1 0x24 DUP3 ADD MSTORE PUSH32 0x45524332303A20617070726F766520746F20746865207A65726F206164647265 PUSH1 0x44 DUP3 ADD MSTORE PUSH2 0x7373 PUSH1 0xF0 SHL PUSH1 0x64 DUP3 ADD MSTORE PUSH1 0x84 ADD PUSH2 0xB43 JUMP JUMPDEST PUSH1 0x1 PUSH1 0x1 PUSH1 0xA0 SHL SUB DUP4 DUP2 AND PUSH1 0x0 DUP2 DUP2 MSTORE PUSH1 0x34 PUSH1 0x20 SWAP1 DUP2 MSTORE PUSH1 0x40 DUP1 DUP4 KECCAK256 SWAP5 DUP8 AND DUP1 DUP5 MSTORE SWAP5 DUP3 MSTORE SWAP2 DUP3 SWAP1 KECCAK256 DUP6 SWAP1 SSTORE SWAP1 MLOAD DUP5 DUP2 MSTORE PUSH32 0x8C5BE1E5EBEC7D5BD14F71427D1E84F3DD0314C0F7B2291E5B200AC8C7C3B925 SWAP2 ADD PUSH1 0x40 MLOAD DUP1 SWAP2 SUB SWAP1 LOG3 POP POP POP JUMP JUMPDEST PUSH1 0xC9 SLOAD PUSH1 0x1 PUSH1 0x1 PUSH1 0xA0 SHL SUB AND CALLER EQ PUSH2 0x1F76 JUMPI PUSH1 0x40 MLOAD PUSH3 0x461BCD PUSH1 0xE5 SHL DUP2 MSTORE PUSH1 0x20 PUSH1 0x4 DUP3 ADD DUP2 SWAP1 MSTORE PUSH1 0x24 DUP3 ADD MSTORE PUSH32 0x4F776E61626C653A2063616C6C6572206973206E6F7420746865206F776E6572 PUSH1 0x44 DUP3 ADD MSTORE PUSH1 0x64 ADD PUSH2 0xB43 JUMP JUMPDEST PUSH1 0x1 PUSH1 0x1 PUSH1 0xA0 SHL SUB DUP3 AND PUSH2 0x3A92 JUMPI PUSH1 0x40 MLOAD PUSH3 0x461BCD PUSH1 0xE5 SHL DUP2 MSTORE PUSH1 0x20 PUSH1 0x4 DUP3 ADD MSTORE PUSH1 0x1F PUSH1 0x24 DUP3 ADD MSTORE PUSH32 0x45524332303A206D696E7420746F20746865207A65726F206164647265737300 PUSH1 0x44 DUP3 ADD MSTORE PUSH1 0x64 ADD PUSH2 0xB43 JUMP JUMPDEST PUSH2 0x3A9E PUSH1 0x0 DUP4 DUP4 PUSH2 0x3ED8 JUMP JUMPDEST DUP1 PUSH1 0x35 PUSH1 0x0 DUP3 DUP3 SLOAD PUSH2 0x3AB0 SWAP2 SWAP1 PUSH2 0x441E JUMP JUMPDEST SWAP1 SWAP2 SSTORE POP POP PUSH1 0x1 PUSH1 0x1 PUSH1 0xA0 SHL SUB DUP3 AND PUSH1 0x0 DUP2 DUP2 MSTORE PUSH1 0x33 PUSH1 0x20 SWAP1 DUP2 MSTORE PUSH1 0x40 DUP1 DUP4 KECCAK256 DUP1 SLOAD DUP7 ADD SWAP1 SSTORE MLOAD DUP5 DUP2 MSTORE PUSH32 0xDDF252AD1BE2C89B69C2B068FC378DAA952BA7F163C4A11628F55A4DF523B3EF SWAP2 ADD PUSH1 0x40 MLOAD DUP1 SWAP2 SUB SWAP1 LOG3 POP POP JUMP JUMPDEST PUSH1 0x0 PUSH2 0x3B15 DUP5 DUP5 PUSH2 0x37A6 JUMP JUMPDEST SWAP1 POP PUSH1 0x0 NOT DUP2 EQ PUSH2 0x3B7D JUMPI DUP2 DUP2 LT ISZERO PUSH2 0x3B70 JUMPI PUSH1 0x40 MLOAD PUSH3 0x461BCD PUSH1 0xE5 SHL DUP2 MSTORE PUSH1 0x20 PUSH1 0x4 DUP3 ADD MSTORE PUSH1 0x1D PUSH1 0x24 DUP3 ADD MSTORE PUSH32 0x45524332303A20696E73756666696369656E7420616C6C6F77616E6365000000 PUSH1 0x44 DUP3 ADD MSTORE PUSH1 0x64 ADD PUSH2 0xB43 JUMP JUMPDEST PUSH2 0x3B7D DUP5 DUP5 DUP5 DUP5 SUB PUSH2 0x38BE JUMP JUMPDEST POP POP POP POP JUMP JUMPDEST PUSH1 0x1 PUSH1 0x1 PUSH1 0xA0 SHL SUB DUP4 AND PUSH2 0x3BE7 JUMPI PUSH1 0x40 MLOAD PUSH3 0x461BCD PUSH1 0xE5 SHL DUP2 MSTORE PUSH1 0x20 PUSH1 0x4 DUP3 ADD MSTORE PUSH1 0x25 PUSH1 0x24 DUP3 ADD MSTORE PUSH32 0x45524332303A207472616E736665722066726F6D20746865207A65726F206164 PUSH1 0x44 DUP3 ADD MSTORE PUSH5 0x6472657373 PUSH1 0xD8 SHL PUSH1 0x64 DUP3 ADD MSTORE PUSH1 0x84 ADD PUSH2 0xB43 JUMP JUMPDEST PUSH1 0x1 PUSH1 0x1 PUSH1 0xA0 SHL SUB DUP3 AND PUSH2 0x3C49 JUMPI PUSH1 0x40 MLOAD PUSH3 0x461BCD PUSH1 0xE5 SHL DUP2 MSTORE PUSH1 0x20 PUSH1 0x4 DUP3 ADD MSTORE PUSH1 0x23 PUSH1 0x24 DUP3 ADD MSTORE PUSH32 0x45524332303A207472616E7366657220746F20746865207A65726F2061646472 PUSH1 0x44 DUP3 ADD MSTORE PUSH3 0x657373 PUSH1 0xE8 SHL PUSH1 0x64 DUP3 ADD MSTORE PUSH1 0x84 ADD PUSH2 0xB43 JUMP JUMPDEST PUSH2 0x3C54 DUP4 DUP4 DUP4 PUSH2 0x3ED8 JUMP JUMPDEST PUSH1 0x1 PUSH1 0x1 PUSH1 0xA0 SHL SUB DUP4 AND PUSH1 0x0 SWAP1 DUP2 MSTORE PUSH1 0x33 PUSH1 0x20 MSTORE PUSH1 0x40 SWAP1 KECCAK256 SLOAD DUP2 DUP2 LT ISZERO PUSH2 0x3CCC JUMPI PUSH1 0x40 MLOAD PUSH3 0x461BCD PUSH1 0xE5 SHL DUP2 MSTORE PUSH1 0x20 PUSH1 0x4 DUP3 ADD MSTORE PUSH1 0x26 PUSH1 0x24 DUP3 ADD MSTORE PUSH32 0x45524332303A207472616E7366657220616D6F756E7420657863656564732062 PUSH1 0x44 DUP3 ADD MSTORE PUSH6 0x616C616E6365 PUSH1 0xD0 SHL PUSH1 0x64 DUP3 ADD MSTORE PUSH1 0x84 ADD PUSH2 0xB43 JUMP JUMPDEST PUSH1 0x1 PUSH1 0x1 PUSH1 0xA0 SHL SUB DUP1 DUP6 AND PUSH1 0x0 DUP2 DUP2 MSTORE PUSH1 0x33 PUSH1 0x20 MSTORE PUSH1 0x40 DUP1 DUP3 KECCAK256 DUP7 DUP7 SUB SWAP1 SSTORE SWAP3 DUP7 AND DUP1 DUP3 MSTORE SWAP1 DUP4 SWAP1 KECCAK256 DUP1 SLOAD DUP7 ADD SWAP1 SSTORE SWAP2 MLOAD PUSH32 0xDDF252AD1BE2C89B69C2B068FC378DAA952BA7F163C4A11628F55A4DF523B3EF SWAP1 PUSH2 0x3D2C SWAP1 DUP7 DUP2 MSTORE PUSH1 0x20 ADD SWAP1 JUMP JUMPDEST PUSH1 0x40 MLOAD DUP1 SWAP2 SUB SWAP1 LOG3 PUSH2 0x3B7D JUMP JUMPDEST PUSH2 0x3D41 PUSH2 0x3F3E JUMP JUMPDEST PUSH1 0x65 DUP1 SLOAD PUSH1 0xFF NOT AND SWAP1 SSTORE PUSH32 0x5DB9EE0A495BF2E6FF9C91A7834C1BA4FDD244A5E8AA4E537BD38AEAE4B073AA CALLER JUMPDEST PUSH1 0x40 MLOAD PUSH1 0x1 PUSH1 0x1 PUSH1 0xA0 SHL SUB SWAP1 SWAP2 AND DUP2 MSTORE PUSH1 0x20 ADD PUSH1 0x40 MLOAD DUP1 SWAP2 SUB SWAP1 LOG1 JUMP JUMPDEST PUSH1 0xC9 DUP1 SLOAD PUSH1 0x1 PUSH1 0x1 PUSH1 0xA0 SHL SUB DUP4 DUP2 AND PUSH1 0x1 PUSH1 0x1 PUSH1 0xA0 SHL SUB NOT DUP4 AND DUP2 OR SWAP1 SWAP4 SSTORE PUSH1 0x40 MLOAD SWAP2 AND SWAP2 SWAP1 DUP3 SWAP1 PUSH32 0x8BE0079C531659141344CD1FD0A4F28419497F9722A3DAAFE3B4186F6B6457E0 SWAP1 PUSH1 0x0 SWAP1 LOG3 POP POP JUMP JUMPDEST PUSH1 0x0 SLOAD PUSH2 0x100 SWAP1 DIV PUSH1 0xFF AND PUSH2 0x3E04 JUMPI PUSH1 0x40 MLOAD PUSH3 0x461BCD PUSH1 0xE5 SHL DUP2 MSTORE PUSH1 0x4 ADD PUSH2 0xB43 SWAP1 PUSH2 0x4883 JUMP JUMPDEST PUSH2 0x1F62 DUP3 DUP3 PUSH2 0x3F87 JUMP JUMPDEST PUSH1 0x0 SLOAD PUSH2 0x100 SWAP1 DIV PUSH1 0xFF AND PUSH2 0x3E35 JUMPI PUSH1 0x40 MLOAD PUSH3 0x461BCD PUSH1 0xE5 SHL DUP2 MSTORE PUSH1 0x4 ADD PUSH2 0xB43 SWAP1 PUSH2 0x4883 JUMP JUMPDEST PUSH2 0x1F76 PUSH2 0x3FC7 JUMP JUMPDEST PUSH1 0x0 SLOAD PUSH2 0x100 SWAP1 DIV PUSH1 0xFF AND PUSH2 0x3E64 JUMPI PUSH1 0x40 MLOAD PUSH3 0x461BCD PUSH1 0xE5 SHL DUP2 MSTORE PUSH1 0x4 ADD PUSH2 0xB43 SWAP1 PUSH2 0x4883 JUMP JUMPDEST PUSH2 0x1F76 PUSH2 0x3FF7 JUMP JUMPDEST PUSH1 0x0 SLOAD PUSH2 0x100 SWAP1 DIV PUSH1 0xFF AND PUSH2 0x3E93 JUMPI PUSH1 0x40 MLOAD PUSH3 0x461BCD PUSH1 0xE5 SHL DUP2 MSTORE PUSH1 0x4 ADD PUSH2 0xB43 SWAP1 PUSH2 0x4883 JUMP JUMPDEST PUSH2 0x1F76 PUSH2 0x401E JUMP JUMPDEST PUSH2 0x3EA3 PUSH2 0x4051 JUMP JUMPDEST PUSH1 0x65 DUP1 SLOAD PUSH1 0xFF NOT AND PUSH1 0x1 OR SWAP1 SSTORE PUSH32 0x62E78CEA01BEE320CD4E420270B5EA74000D11B0C9F74754EBDBFC544B05A258 PUSH2 0x3D6E CALLER SWAP1 JUMP JUMPDEST PUSH1 0x65 SLOAD PUSH1 0xFF AND ISZERO PUSH2 0x2981 JUMPI PUSH1 0x40 MLOAD PUSH3 0x461BCD PUSH1 0xE5 SHL DUP2 MSTORE PUSH1 0x20 PUSH1 0x4 DUP3 ADD MSTORE PUSH1 0x2A PUSH1 0x24 DUP3 ADD MSTORE PUSH32 0x45524332305061757361626C653A20746F6B656E207472616E73666572207768 PUSH1 0x44 DUP3 ADD MSTORE PUSH10 0x1A5B19481C185D5CD959 PUSH1 0xB2 SHL PUSH1 0x64 DUP3 ADD MSTORE PUSH1 0x84 ADD PUSH2 0xB43 JUMP JUMPDEST PUSH1 0x65 SLOAD PUSH1 0xFF AND PUSH2 0x1F76 JUMPI PUSH1 0x40 MLOAD PUSH3 0x461BCD PUSH1 0xE5 SHL DUP2 MSTORE PUSH1 0x20 PUSH1 0x4 DUP3 ADD MSTORE PUSH1 0x14 PUSH1 0x24 DUP3 ADD MSTORE PUSH20 0x14185D5CD8589B194E881B9BDD081C185D5CD959 PUSH1 0x62 SHL PUSH1 0x44 DUP3 ADD MSTORE PUSH1 0x64 ADD PUSH2 0xB43 JUMP JUMPDEST PUSH1 0x0 SLOAD PUSH2 0x100 SWAP1 DIV PUSH1 0xFF AND PUSH2 0x3FAE JUMPI PUSH1 0x40 MLOAD PUSH3 0x461BCD PUSH1 0xE5 SHL DUP2 MSTORE PUSH1 0x4 ADD PUSH2 0xB43 SWAP1 PUSH2 0x4883 JUMP JUMPDEST PUSH1 0x36 PUSH2 0x3FBA DUP4 DUP3 PUSH2 0x491C JUMP JUMPDEST POP PUSH1 0x37 PUSH2 0x2981 DUP3 DUP3 PUSH2 0x491C JUMP JUMPDEST PUSH1 0x0 SLOAD PUSH2 0x100 SWAP1 DIV PUSH1 0xFF AND PUSH2 0x3FEE JUMPI PUSH1 0x40 MLOAD PUSH3 0x461BCD PUSH1 0xE5 SHL DUP2 MSTORE PUSH1 0x4 ADD PUSH2 0xB43 SWAP1 PUSH2 0x4883 JUMP JUMPDEST PUSH2 0x1F76 CALLER PUSH2 0x3D8B JUMP JUMPDEST PUSH1 0x0 SLOAD PUSH2 0x100 SWAP1 DIV PUSH1 0xFF AND PUSH2 0xB53 JUMPI PUSH1 0x40 MLOAD PUSH3 0x461BCD PUSH1 0xE5 SHL DUP2 MSTORE PUSH1 0x4 ADD PUSH2 0xB43 SWAP1 PUSH2 0x4883 JUMP JUMPDEST PUSH1 0x0 SLOAD PUSH2 0x100 SWAP1 DIV PUSH1 0xFF AND PUSH2 0x4045 JUMPI PUSH1 0x40 MLOAD PUSH3 0x461BCD PUSH1 0xE5 SHL DUP2 MSTORE PUSH1 0x4 ADD PUSH2 0xB43 SWAP1 PUSH2 0x4883 JUMP JUMPDEST PUSH1 0x65 DUP1 SLOAD PUSH1 0xFF NOT AND SWAP1 SSTORE JUMP JUMPDEST PUSH1 0x65 SLOAD PUSH1 0xFF AND ISZERO PUSH2 0x1F76 JUMPI PUSH1 0x40 MLOAD PUSH3 0x461BCD PUSH1 0xE5 SHL DUP2 MSTORE PUSH1 0x20 PUSH1 0x4 DUP3 ADD MSTORE PUSH1 0x10 PUSH1 0x24 DUP3 ADD MSTORE PUSH16 0x14185D5CD8589B194E881C185D5CD959 PUSH1 0x82 SHL PUSH1 0x44 DUP3 ADD MSTORE PUSH1 0x64 ADD PUSH2 0xB43 JUMP JUMPDEST PUSH1 0x0 JUMPDEST DUP4 DUP2 LT ISZERO PUSH2 0x40B2 JUMPI DUP2 DUP2 ADD MLOAD DUP4 DUP3 ADD MSTORE PUSH1 0x20 ADD PUSH2 0x409A JUMP JUMPDEST POP POP PUSH1 0x0 SWAP2 ADD MSTORE JUMP JUMPDEST PUSH1 0x20 DUP2 MSTORE PUSH1 0x0 DUP3 MLOAD DUP1 PUSH1 0x20 DUP5 ADD MSTORE PUSH2 0x40DA DUP2 PUSH1 0x40 DUP6 ADD PUSH1 0x20 DUP8 ADD PUSH2 0x4097 JUMP JUMPDEST PUSH1 0x1F ADD PUSH1 0x1F NOT AND SWAP2 SWAP1 SWAP2 ADD PUSH1 0x40 ADD SWAP3 SWAP2 POP POP JUMP JUMPDEST DUP1 CALLDATALOAD PUSH1 0x1 PUSH1 0x1 PUSH1 0xA0 SHL SUB DUP2 AND DUP2 EQ PUSH2 0x4105 JUMPI PUSH1 0x0 DUP1 REVERT JUMPDEST SWAP2 SWAP1 POP JUMP JUMPDEST PUSH1 0x0 DUP1 PUSH1 0x40 DUP4 DUP6 SUB SLT ISZERO PUSH2 0x411D JUMPI PUSH1 0x0 DUP1 REVERT JUMPDEST PUSH2 0x4126 DUP4 PUSH2 0x40EE JUMP JUMPDEST SWAP5 PUSH1 0x20 SWAP4 SWAP1 SWAP4 ADD CALLDATALOAD SWAP4 POP POP POP JUMP JUMPDEST PUSH1 0x0 PUSH1 0x20 DUP3 DUP5 SUB SLT ISZERO PUSH2 0x4146 JUMPI PUSH1 0x0 DUP1 REVERT JUMPDEST POP CALLDATALOAD SWAP2 SWAP1 POP JUMP JUMPDEST PUSH1 0x0 DUP1 PUSH1 0x0 PUSH1 0x60 DUP5 DUP7 SUB SLT ISZERO PUSH2 0x4162 JUMPI PUSH1 0x0 DUP1 REVERT JUMPDEST PUSH2 0x416B DUP5 PUSH2 0x40EE JUMP JUMPDEST SWAP3 POP PUSH2 0x4179 PUSH1 0x20 DUP6 ADD PUSH2 0x40EE JUMP JUMPDEST SWAP2 POP PUSH1 0x40 DUP5 ADD CALLDATALOAD SWAP1 POP SWAP3 POP SWAP3 POP SWAP3 JUMP JUMPDEST DUP1 CALLDATALOAD PUSH1 0x5 DUP2 LT PUSH2 0x4105 JUMPI PUSH1 0x0 DUP1 REVERT JUMPDEST PUSH1 0x0 DUP1 PUSH1 0x40 DUP4 DUP6 SUB SLT ISZERO PUSH2 0x41AB JUMPI PUSH1 0x0 DUP1 REVERT JUMPDEST PUSH2 0x41B4 DUP4 PUSH2 0x4189 JUMP JUMPDEST SWAP2 POP PUSH2 0x41C2 PUSH1 0x20 DUP5 ADD PUSH2 0x40EE JUMP JUMPDEST SWAP1 POP SWAP3 POP SWAP3 SWAP1 POP JUMP JUMPDEST DUP1 ISZERO ISZERO DUP2 EQ PUSH2 0xE27 JUMPI PUSH1 0x0 DUP1 REVERT JUMPDEST PUSH1 0x0 DUP1 PUSH1 0x40 DUP4 DUP6 SUB SLT ISZERO PUSH2 0x41EC JUMPI PUSH1 0x0 DUP1 REVERT JUMPDEST PUSH2 0x41F5 DUP4 PUSH2 0x40EE JUMP JUMPDEST SWAP2 POP PUSH1 0x20 DUP4 ADD CALLDATALOAD PUSH2 0x4205 DUP2 PUSH2 0x41CB JUMP JUMPDEST DUP1 SWAP2 POP POP SWAP3 POP SWAP3 SWAP1 POP JUMP JUMPDEST PUSH1 0x0 PUSH1 0x20 DUP3 DUP5 SUB SLT ISZERO PUSH2 0x4222 JUMPI PUSH1 0x0 DUP1 REVERT JUMPDEST PUSH2 0x422B DUP3 PUSH2 0x40EE JUMP JUMPDEST SWAP4 SWAP3 POP POP POP JUMP JUMPDEST PUSH1 0x0 DUP1 PUSH1 0x40 DUP4 DUP6 SUB SLT ISZERO PUSH2 0x4245 JUMPI PUSH1 0x0 DUP1 REVERT JUMPDEST PUSH2 0x4126 DUP4 PUSH2 0x4189 JUMP JUMPDEST PUSH1 0x0 DUP1 PUSH1 0x40 DUP4 DUP6 SUB SLT ISZERO PUSH2 0x4261 JUMPI PUSH1 0x0 DUP1 REVERT JUMPDEST DUP3 CALLDATALOAD SWAP2 POP PUSH2 0x41C2 PUSH1 0x20 DUP5 ADD PUSH2 0x40EE JUMP JUMPDEST PUSH1 0x0 DUP1 PUSH1 0x40 DUP4 DUP6 SUB SLT ISZERO PUSH2 0x4284 JUMPI PUSH1 0x0 DUP1 REVERT JUMPDEST POP POP DUP1 CALLDATALOAD SWAP3 PUSH1 0x20 SWAP1 SWAP2 ADD CALLDATALOAD SWAP2 POP JUMP JUMPDEST PUSH1 0x0 PUSH1 0x20 DUP3 DUP5 SUB SLT ISZERO PUSH2 0x42A5 JUMPI PUSH1 0x0 DUP1 REVERT JUMPDEST PUSH2 0x422B DUP3 PUSH2 0x4189 JUMP JUMPDEST PUSH1 0x0 DUP1 PUSH1 0x40 DUP4 DUP6 SUB SLT ISZERO PUSH2 0x42C1 JUMPI PUSH1 0x0 DUP1 REVERT JUMPDEST PUSH2 0x41B4 DUP4 PUSH2 0x40EE JUMP JUMPDEST PUSH1 0x1 DUP2 DUP2 SHR SWAP1 DUP3 AND DUP1 PUSH2 0x42DE JUMPI PUSH1 0x7F DUP3 AND SWAP2 POP JUMPDEST PUSH1 0x20 DUP3 LT DUP2 SUB PUSH2 0x362B JUMPI PUSH4 0x4E487B71 PUSH1 0xE0 SHL PUSH1 0x0 MSTORE PUSH1 0x22 PUSH1 0x4 MSTORE PUSH1 0x24 PUSH1 0x0 REVERT JUMPDEST PUSH4 0x4E487B71 PUSH1 0xE0 SHL PUSH1 0x0 MSTORE PUSH1 0x11 PUSH1 0x4 MSTORE PUSH1 0x24 PUSH1 0x0 REVERT JUMPDEST PUSH1 0x1 DUP2 DUP2 JUMPDEST DUP1 DUP6 GT ISZERO PUSH2 0x434F JUMPI DUP2 PUSH1 0x0 NOT DIV DUP3 GT ISZERO PUSH2 0x4335 JUMPI PUSH2 0x4335 PUSH2 0x42FE JUMP JUMPDEST DUP1 DUP6 AND ISZERO PUSH2 0x4342 JUMPI SWAP2 DUP2 MUL SWAP2 JUMPDEST SWAP4 DUP5 SHR SWAP4 SWAP1 DUP1 MUL SWAP1 PUSH2 0x4319 JUMP JUMPDEST POP SWAP3 POP SWAP3 SWAP1 POP JUMP JUMPDEST PUSH1 0x0 DUP3 PUSH2 0x4366 JUMPI POP PUSH1 0x1 PUSH2 0xC00 JUMP JUMPDEST DUP2 PUSH2 0x4373 JUMPI POP PUSH1 0x0 PUSH2 0xC00 JUMP JUMPDEST DUP2 PUSH1 0x1 DUP2 EQ PUSH2 0x4389 JUMPI PUSH1 0x2 DUP2 EQ PUSH2 0x4393 JUMPI PUSH2 0x43AF JUMP JUMPDEST PUSH1 0x1 SWAP2 POP POP PUSH2 0xC00 JUMP JUMPDEST PUSH1 0xFF DUP5 GT ISZERO PUSH2 0x43A4 JUMPI PUSH2 0x43A4 PUSH2 0x42FE JUMP JUMPDEST POP POP PUSH1 0x1 DUP3 SHL PUSH2 0xC00 JUMP JUMPDEST POP PUSH1 0x20 DUP4 LT PUSH2 0x133 DUP4 LT AND PUSH1 0x4E DUP5 LT PUSH1 0xB DUP5 LT AND OR ISZERO PUSH2 0x43D2 JUMPI POP DUP2 DUP2 EXP PUSH2 0xC00 JUMP JUMPDEST PUSH2 0x43DC DUP4 DUP4 PUSH2 0x4314 JUMP JUMPDEST DUP1 PUSH1 0x0 NOT DIV DUP3 GT ISZERO PUSH2 0x43F0 JUMPI PUSH2 0x43F0 PUSH2 0x42FE JUMP JUMPDEST MUL SWAP4 SWAP3 POP POP POP JUMP JUMPDEST PUSH1 0x0 PUSH2 0x422B PUSH1 0xFF DUP5 AND DUP4 PUSH2 0x4357 JUMP JUMPDEST DUP1 DUP3 MUL DUP2 ISZERO DUP3 DUP3 DIV DUP5 EQ OR PUSH2 0xC00 JUMPI PUSH2 0xC00 PUSH2 0x42FE JUMP JUMPDEST DUP1 DUP3 ADD DUP1 DUP3 GT ISZERO PUSH2 0xC00 JUMPI PUSH2 0xC00 PUSH2 0x42FE JUMP JUMPDEST PUSH4 0x4E487B71 PUSH1 0xE0 SHL PUSH1 0x0 MSTORE PUSH1 0x21 PUSH1 0x4 MSTORE PUSH1 0x24 PUSH1 0x0 REVERT JUMPDEST PUSH4 0x4E487B71 PUSH1 0xE0 SHL PUSH1 0x0 MSTORE PUSH1 0x41 PUSH1 0x4 MSTORE PUSH1 0x24 PUSH1 0x0 REVERT JUMPDEST PUSH1 0x0 PUSH1 0x20 DUP3 DUP5 SUB SLT ISZERO PUSH2 0x446F JUMPI PUSH1 0x0 DUP1 REVERT JUMPDEST DUP2 MLOAD PUSH8 0xFFFFFFFFFFFFFFFF DUP1 DUP3 GT ISZERO PUSH2 0x4487 JUMPI PUSH1 0x0 DUP1 REVERT JUMPDEST DUP2 DUP5 ADD SWAP2 POP DUP5 PUSH1 0x1F DUP4 ADD SLT PUSH2 0x449B JUMPI PUSH1 0x0 DUP1 REVERT JUMPDEST DUP2 MLOAD DUP2 DUP2 GT ISZERO PUSH2 0x44AD JUMPI PUSH2 0x44AD PUSH2 0x4447 JUMP JUMPDEST PUSH1 0x40 MLOAD PUSH1 0x1F DUP3 ADD PUSH1 0x1F NOT SWAP1 DUP2 AND PUSH1 0x3F ADD AND DUP2 ADD SWAP1 DUP4 DUP3 GT DUP2 DUP4 LT OR ISZERO PUSH2 0x44D5 JUMPI PUSH2 0x44D5 PUSH2 0x4447 JUMP JUMPDEST DUP2 PUSH1 0x40 MSTORE DUP3 DUP2 MSTORE DUP8 PUSH1 0x20 DUP5 DUP8 ADD ADD GT ISZERO PUSH2 0x44EE JUMPI PUSH1 0x0 DUP1 REVERT JUMPDEST PUSH2 0x44FF DUP4 PUSH1 0x20 DUP4 ADD PUSH1 0x20 DUP9 ADD PUSH2 0x4097 JUMP JUMPDEST SWAP8 SWAP7 POP POP POP POP POP POP POP JUMP JUMPDEST PUSH1 0x20 DUP1 DUP3 MSTORE PUSH1 0x46 SWAP1 DUP3 ADD MSTORE PUSH32 0x546865206E6577206164647265737320646F6573206E6F74207365656D20746F PUSH1 0x40 DUP3 ADD MSTORE PUSH32 0x2062656C6F6E6720746F2074686520636F727265637420707269636520646174 PUSH1 0x60 DUP3 ADD MSTORE PUSH6 0x184819995959 PUSH1 0xD2 SHL PUSH1 0x80 DUP3 ADD MSTORE PUSH1 0xA0 ADD SWAP1 JUMP JUMPDEST PUSH1 0x0 DUP3 MLOAD PUSH2 0x4588 DUP2 DUP5 PUSH1 0x20 DUP8 ADD PUSH2 0x4097 JUMP JUMPDEST SWAP2 SWAP1 SWAP2 ADD SWAP3 SWAP2 POP POP JUMP JUMPDEST PUSH1 0x20 DUP1 DUP3 MSTORE PUSH1 0x3F SWAP1 DUP3 ADD MSTORE PUSH32 0x46756E6374696F6E207265736572766564206F6E6C7920666F72207468652077 PUSH1 0x40 DUP3 ADD MSTORE PUSH32 0x686974656C69737465722061646472657373206F7220746865206F776E657200 PUSH1 0x60 DUP3 ADD MSTORE PUSH1 0x80 ADD SWAP1 JUMP JUMPDEST PUSH1 0x20 DUP1 DUP3 MSTORE PUSH1 0x34 SWAP1 DUP3 ADD MSTORE PUSH32 0x496E766573746F72206164647265737320686173206E6F74206265656E206164 PUSH1 0x40 DUP3 ADD MSTORE PUSH20 0x191959081D1BC81D1A19481DDA1A5D195B1A5CDD PUSH1 0x62 SHL PUSH1 0x60 DUP3 ADD MSTORE PUSH1 0x80 ADD SWAP1 JUMP JUMPDEST PUSH1 0x20 DUP1 DUP3 MSTORE PUSH1 0x30 SWAP1 DUP3 ADD MSTORE PUSH32 0x496E766573746F72206164647265737320686173206265656E20616464656420 PUSH1 0x40 DUP3 ADD MSTORE PUSH16 0x1D1BC81D1A1948189B1858DADB1A5CDD PUSH1 0x82 SHL PUSH1 0x60 DUP3 ADD MSTORE PUSH1 0x80 ADD SWAP1 JUMP JUMPDEST PUSH1 0x5 DUP2 LT PUSH2 0x46B1 JUMPI PUSH4 0x4E487B71 PUSH1 0xE0 SHL PUSH1 0x0 MSTORE PUSH1 0x21 PUSH1 0x4 MSTORE PUSH1 0x24 PUSH1 0x0 REVERT JUMPDEST SWAP1 MSTORE JUMP JUMPDEST PUSH1 0x20 DUP2 ADD PUSH2 0xC00 DUP3 DUP5 PUSH2 0x4693 JUMP JUMPDEST PUSH1 0x0 PUSH1 0x20 DUP3 DUP5 SUB SLT ISZERO PUSH2 0x46D5 JUMPI PUSH1 0x0 DUP1 REVERT JUMPDEST POP MLOAD SWAP2 SWAP1 POP JUMP JUMPDEST PUSH1 0x0 PUSH1 0x20 DUP3 DUP5 SUB SLT ISZERO PUSH2 0x46EE JUMPI PUSH1 0x0 DUP1 REVERT JUMPDEST DUP2 MLOAD PUSH2 0x422B DUP2 PUSH2 0x41CB JUMP JUMPDEST PUSH1 0x20 DUP1 DUP3 MSTORE PUSH1 0x41 SWAP1 DUP3 ADD MSTORE PUSH32 0x54686572652077617320616E206572726F72206F6E2073656E64696E67206261 PUSH1 0x40 DUP3 ADD MSTORE PUSH32 0x636B20746865204859415820546F6B656E20746F2074686520696E766573746F PUSH1 0x60 DUP3 ADD MSTORE PUSH1 0x39 PUSH1 0xF9 SHL PUSH1 0x80 DUP3 ADD MSTORE PUSH1 0xA0 ADD SWAP1 JUMP JUMPDEST PUSH1 0xA0 DUP2 ADD PUSH2 0x476E DUP3 DUP9 PUSH2 0x4693 JUMP JUMPDEST PUSH1 0x1 PUSH1 0x1 PUSH1 0xA0 SHL SUB SWAP6 SWAP1 SWAP6 AND PUSH1 0x20 DUP3 ADD MSTORE PUSH1 0x40 DUP2 ADD SWAP4 SWAP1 SWAP4 MSTORE PUSH1 0x60 DUP4 ADD SWAP2 SWAP1 SWAP2 MSTORE PUSH1 0x80 SWAP1 SWAP2 ADD MSTORE SWAP2 SWAP1 POP JUMP JUMPDEST PUSH1 0x0 DUP3 PUSH2 0x47B7 JUMPI PUSH4 0x4E487B71 PUSH1 0xE0 SHL PUSH1 0x0 MSTORE PUSH1 0x12 PUSH1 0x4 MSTORE PUSH1 0x24 PUSH1 0x0 REVERT JUMPDEST POP DIV SWAP1 JUMP JUMPDEST PUSH1 0x20 DUP1 DUP3 MSTORE PUSH1 0x38 SWAP1 DUP3 ADD MSTORE PUSH32 0x496E766573746F7220616464726573732068617320616C726561647920626565 PUSH1 0x40 DUP3 ADD MSTORE PUSH32 0x6E207570646174656420746F2074686174207374617475730000000000000000 PUSH1 0x60 DUP3 ADD MSTORE PUSH1 0x80 ADD SWAP1 JUMP JUMPDEST DUP1 MLOAD PUSH10 0xFFFFFFFFFFFFFFFFFFFF DUP2 AND DUP2 EQ PUSH2 0x4105 JUMPI PUSH1 0x0 DUP1 REVERT JUMPDEST PUSH1 0x0 DUP1 PUSH1 0x0 DUP1 PUSH1 0x0 PUSH1 0xA0 DUP7 DUP9 SUB SLT ISZERO PUSH2 0x484B JUMPI PUSH1 0x0 DUP1 REVERT JUMPDEST PUSH2 0x4854 DUP7 PUSH2 0x4819 JUMP JUMPDEST SWAP5 POP PUSH1 0x20 DUP7 ADD MLOAD SWAP4 POP PUSH1 0x40 DUP7 ADD MLOAD SWAP3 POP PUSH1 0x60 DUP7 ADD MLOAD SWAP2 POP PUSH2 0x4877 PUSH1 0x80 DUP8 ADD PUSH2 0x4819 JUMP JUMPDEST SWAP1 POP SWAP3 SWAP6 POP SWAP3 SWAP6 SWAP1 SWAP4 POP JUMP JUMPDEST PUSH1 0x20 DUP1 DUP3 MSTORE PUSH1 0x2B SWAP1 DUP3 ADD MSTORE PUSH32 0x496E697469616C697A61626C653A20636F6E7472616374206973206E6F742069 PUSH1 0x40 DUP3 ADD MSTORE PUSH11 0x6E697469616C697A696E67 PUSH1 0xA8 SHL PUSH1 0x60 DUP3 ADD MSTORE PUSH1 0x80 ADD SWAP1 JUMP JUMPDEST PUSH1 0x1F DUP3 GT ISZERO PUSH2 0x2981 JUMPI PUSH1 0x0 DUP2 DUP2 MSTORE PUSH1 0x20 DUP2 KECCAK256 PUSH1 0x1F DUP6 ADD PUSH1 0x5 SHR DUP2 ADD PUSH1 0x20 DUP7 LT ISZERO PUSH2 0x48F5 JUMPI POP DUP1 JUMPDEST PUSH1 0x1F DUP6 ADD PUSH1 0x5 SHR DUP3 ADD SWAP2 POP JUMPDEST DUP2 DUP2 LT ISZERO PUSH2 0x4914 JUMPI DUP3 DUP2 SSTORE PUSH1 0x1 ADD PUSH2 0x4901 JUMP JUMPDEST POP POP POP POP POP POP JUMP JUMPDEST DUP2 MLOAD PUSH8 0xFFFFFFFFFFFFFFFF DUP2 GT ISZERO PUSH2 0x4936 JUMPI PUSH2 0x4936 PUSH2 0x4447 JUMP JUMPDEST PUSH2 0x494A DUP2 PUSH2 0x4944 DUP5 SLOAD PUSH2 0x42CA JUMP JUMPDEST DUP5 PUSH2 0x48CE JUMP JUMPDEST PUSH1 0x20 DUP1 PUSH1 0x1F DUP4 GT PUSH1 0x1 DUP2 EQ PUSH2 0x497F JUMPI PUSH1 0x0 DUP5 ISZERO PUSH2 0x4967 JUMPI POP DUP6 DUP4 ADD MLOAD JUMPDEST PUSH1 0x0 NOT PUSH1 0x3 DUP7 SWAP1 SHL SHR NOT AND PUSH1 0x1 DUP6 SWAP1 SHL OR DUP6 SSTORE PUSH2 0x4914 JUMP JUMPDEST PUSH1 0x0 DUP6 DUP2 MSTORE PUSH1 0x20 DUP2 KECCAK256 PUSH1 0x1F NOT DUP7 AND SWAP2 JUMPDEST DUP3 DUP2 LT ISZERO PUSH2 0x49AE JUMPI DUP9 DUP7 ADD MLOAD DUP3 SSTORE SWAP5 DUP5 ADD SWAP5 PUSH1 0x1 SWAP1 SWAP2 ADD SWAP1 DUP5 ADD PUSH2 0x498F JUMP JUMPDEST POP DUP6 DUP3 LT ISZERO PUSH2 0x49CC JUMPI DUP8 DUP6 ADD MLOAD PUSH1 0x0 NOT PUSH1 0x3 DUP9 SWAP1 SHL PUSH1 0xF8 AND SHR NOT AND DUP2 SSTORE JUMPDEST POP POP POP POP POP PUSH1 0x1 SWAP1 DUP2 SHL ADD SWAP1 SSTORE POP JUMP INVALID PUSH2 0x6479 KECCAK256 PUSH3 0x65656E KECCAK256 PUSH14 0x6F64696669656420746F20746861 PUSH21 0x2076616C756500A26469706673582212204C399BE4 PUSH20 0xE04EDEED641C6F06ED8865870D9416E0E867AF4 0xDC 0xEA PUSH17 0xE6F0BE7B64736F6C634300081400330000 "},"methodIdentifiers":{"MAX_PRICE_AGE()":"9d7f7e86","addToWhiteList(address)":"47ee0394","allowance(address,address)":"dd62ed3e","approve(address,uint256)":"095ea7b3","balanceOf(address)":"70a08231","calculateTotalHyaxTokenToReturn(uint256,uint256)":"8c945e63","decimals()":"313ce567","decreaseAllowance(address,uint256)":"a457c2d7","getCurrentTokenPrice(uint8)":"bb6f98fb","hyaxPrice()":"377c779f","increaseAllowance(address,uint256)":"39509351","initialize()":"8129fc1c","investFromCryptoToken(uint8,uint256)":"731de514","investFromMatic()":"3b14f359","investorData(address)":"de1f5346","maticPriceFeedAddress()":"fb2dc76e","maximumInvestmentAllowedInUSD()":"8049bcb6","minimumInvestmentAllowedInUSD()":"2a241ad3","name()":"06fdde03","newFunction()":"1b28d63e","owner()":"8da5cb5b","pause()":"8456cb59","paused()":"5c975abb","renounceOwnership()":"715018a6","symbol()":"95d89b41","tokenIssuance(uint256)":"128ef022","totalSupply()":"18160ddd","transfer(address,uint256)":"a9059cbb","transferFrom(address,address,uint256)":"23b872dd","transferOwnership(address)":"f2fde38b","treasuryAddress()":"c5f956af","unpause()":"3f4ba83a","updateBlacklistStatus(address,bool)":"b8360806","updateHyaxPrice(uint256)":"b40ed449","updateMaximumInvestmentAllowedInUSD(uint256)":"5ec2562a","updateMinimumInvestmentAllowedInUSD(uint256)":"b2c568f3","updatePriceFeedAddress(uint8,address)":"23c66f9a","updateQualifiedInvestorStatus(address,bool)":"367f44fb","updateTokenAddress(uint8,address)":"3de6f379","updateTreasuryAddress(address)":"841e4561","updateWhiteListerAddress(address)":"653c3a47","updateWhitelistStatus(address,bool)":"c07732a3","usdcPriceFeedAddress()":"40b5ea9c","usdcToken()":"11eac855","usdcTokenAddress()":"77b53ece","usdtPriceFeedAddress()":"08cd468f","usdtToken()":"a98ad46c","usdtTokenAddress()":"9d741e5d","validateMaximumInvestedAmountAndInvestorLimit(uint256,address)":"8116de2b","wbtcPriceFeedAddress()":"f7a47f81","wbtcToken()":"27614df8","wbtcTokenAddress()":"4c526bdb","wethPriceFeedAddress()":"5ae9384e","wethToken()":"4b57b0be","wethTokenAddress()":"0f9dad71","whiteListerAddress()":"65699d28"}},"storageLayout":{"storage":[{"astId":184,"contract":"contracts/HYAXUpgradeableV2.sol:HYAXUpgradeableV2","label":"_initialized","offset":0,"slot":"0","type":"t_uint8"},{"astId":187,"contract":"contracts/HYAXUpgradeableV2.sol:HYAXUpgradeableV2","label":"_initializing","offset":1,"slot":"0","type":"t_bool"},{"astId":1703,"contract":"contracts/HYAXUpgradeableV2.sol:HYAXUpgradeableV2","label":"__gap","offset":0,"slot":"1","type":"t_array(t_uint256)50_storage"},{"astId":576,"contract":"contracts/HYAXUpgradeableV2.sol:HYAXUpgradeableV2","label":"_balances","offset":0,"slot":"51","type":"t_mapping(t_address,t_uint256)"},{"astId":582,"contract":"contracts/HYAXUpgradeableV2.sol:HYAXUpgradeableV2","label":"_allowances","offset":0,"slot":"52","type":"t_mapping(t_address,t_mapping(t_address,t_uint256))"},{"astId":584,"contract":"contracts/HYAXUpgradeableV2.sol:HYAXUpgradeableV2","label":"_totalSupply","offset":0,"slot":"53","type":"t_uint256"},{"astId":586,"contract":"contracts/HYAXUpgradeableV2.sol:HYAXUpgradeableV2","label":"_name","offset":0,"slot":"54","type":"t_string_storage"},{"astId":588,"contract":"contracts/HYAXUpgradeableV2.sol:HYAXUpgradeableV2","label":"_symbol","offset":0,"slot":"55","type":"t_string_storage"},{"astId":1168,"contract":"contracts/HYAXUpgradeableV2.sol:HYAXUpgradeableV2","label":"__gap","offset":0,"slot":"56","type":"t_array(t_uint256)45_storage"},{"astId":367,"contract":"contracts/HYAXUpgradeableV2.sol:HYAXUpgradeableV2","label":"_paused","offset":0,"slot":"101","type":"t_bool"},{"astId":472,"contract":"contracts/HYAXUpgradeableV2.sol:HYAXUpgradeableV2","label":"__gap","offset":0,"slot":"102","type":"t_array(t_uint256)49_storage"},{"astId":1306,"contract":"contracts/HYAXUpgradeableV2.sol:HYAXUpgradeableV2","label":"__gap","offset":0,"slot":"151","type":"t_array(t_uint256)50_storage"},{"astId":56,"contract":"contracts/HYAXUpgradeableV2.sol:HYAXUpgradeableV2","label":"_owner","offset":0,"slot":"201","type":"t_address"},{"astId":176,"contract":"contracts/HYAXUpgradeableV2.sol:HYAXUpgradeableV2","label":"__gap","offset":0,"slot":"202","type":"t_array(t_uint256)49_storage"},{"astId":487,"contract":"contracts/HYAXUpgradeableV2.sol:HYAXUpgradeableV2","label":"_status","offset":0,"slot":"251","type":"t_uint256"},{"astId":556,"contract":"contracts/HYAXUpgradeableV2.sol:HYAXUpgradeableV2","label":"__gap","offset":0,"slot":"252","type":"t_array(t_uint256)49_storage"},{"astId":4374,"contract":"contracts/HYAXUpgradeableV2.sol:HYAXUpgradeableV2","label":"hyaxPrice","offset":0,"slot":"301","type":"t_uint256"},{"astId":4377,"contract":"contracts/HYAXUpgradeableV2.sol:HYAXUpgradeableV2","label":"minimumInvestmentAllowedInUSD","offset":0,"slot":"302","type":"t_uint256"},{"astId":4380,"contract":"contracts/HYAXUpgradeableV2.sol:HYAXUpgradeableV2","label":"maximumInvestmentAllowedInUSD","offset":0,"slot":"303","type":"t_uint256"},{"astId":4383,"contract":"contracts/HYAXUpgradeableV2.sol:HYAXUpgradeableV2","label":"whiteListerAddress","offset":0,"slot":"304","type":"t_address"},{"astId":4386,"contract":"contracts/HYAXUpgradeableV2.sol:HYAXUpgradeableV2","label":"treasuryAddress","offset":0,"slot":"305","type":"t_address"},{"astId":4403,"contract":"contracts/HYAXUpgradeableV2.sol:HYAXUpgradeableV2","label":"investorData","offset":0,"slot":"306","type":"t_mapping(t_address,t_struct(InvestorData)4398_storage)"},{"astId":4412,"contract":"contracts/HYAXUpgradeableV2.sol:HYAXUpgradeableV2","label":"maticPriceFeedAddress","offset":0,"slot":"307","type":"t_address"},{"astId":4416,"contract":"contracts/HYAXUpgradeableV2.sol:HYAXUpgradeableV2","label":"dataFeedMatic","offset":0,"slot":"308","type":"t_contract(AggregatorV3Interface)45"},{"astId":4419,"contract":"contracts/HYAXUpgradeableV2.sol:HYAXUpgradeableV2","label":"usdcTokenAddress","offset":0,"slot":"309","type":"t_address"},{"astId":4422,"contract":"contracts/HYAXUpgradeableV2.sol:HYAXUpgradeableV2","label":"usdcPriceFeedAddress","offset":0,"slot":"310","type":"t_address"},{"astId":4426,"contract":"contracts/HYAXUpgradeableV2.sol:HYAXUpgradeableV2","label":"dataFeedUsdc","offset":0,"slot":"311","type":"t_contract(AggregatorV3Interface)45"},{"astId":4430,"contract":"contracts/HYAXUpgradeableV2.sol:HYAXUpgradeableV2","label":"usdcToken","offset":0,"slot":"312","type":"t_contract(IERC20)1782"},{"astId":4433,"contract":"contracts/HYAXUpgradeableV2.sol:HYAXUpgradeableV2","label":"usdtTokenAddress","offset":0,"slot":"313","type":"t_address"},{"astId":4436,"contract":"contracts/HYAXUpgradeableV2.sol:HYAXUpgradeableV2","label":"usdtPriceFeedAddress","offset":0,"slot":"314","type":"t_address"},{"astId":4440,"contract":"contracts/HYAXUpgradeableV2.sol:HYAXUpgradeableV2","label":"dataFeedUsdt","offset":0,"slot":"315","type":"t_contract(AggregatorV3Interface)45"},{"astId":4444,"contract":"contracts/HYAXUpgradeableV2.sol:HYAXUpgradeableV2","label":"usdtToken","offset":0,"slot":"316","type":"t_contract(IERC20)1782"},{"astId":4447,"contract":"contracts/HYAXUpgradeableV2.sol:HYAXUpgradeableV2","label":"wbtcTokenAddress","offset":0,"slot":"317","type":"t_address"},{"astId":4450,"contract":"contracts/HYAXUpgradeableV2.sol:HYAXUpgradeableV2","label":"wbtcPriceFeedAddress","offset":0,"slot":"318","type":"t_address"},{"astId":4454,"contract":"contracts/HYAXUpgradeableV2.sol:HYAXUpgradeableV2","label":"dataFeedWbtc","offset":0,"slot":"319","type":"t_contract(AggregatorV3Interface)45"},{"astId":4458,"contract":"contracts/HYAXUpgradeableV2.sol:HYAXUpgradeableV2","label":"wbtcToken","offset":0,"slot":"320","type":"t_contract(IERC20)1782"},{"astId":4461,"contract":"contracts/HYAXUpgradeableV2.sol:HYAXUpgradeableV2","label":"wethTokenAddress","offset":0,"slot":"321","type":"t_address"},{"astId":4464,"contract":"contracts/HYAXUpgradeableV2.sol:HYAXUpgradeableV2","label":"wethPriceFeedAddress","offset":0,"slot":"322","type":"t_address"},{"astId":4468,"contract":"contracts/HYAXUpgradeableV2.sol:HYAXUpgradeableV2","label":"dataFeedWeth","offset":0,"slot":"323","type":"t_contract(AggregatorV3Interface)45"},{"astId":4472,"contract":"contracts/HYAXUpgradeableV2.sol:HYAXUpgradeableV2","label":"wethToken","offset":0,"slot":"324","type":"t_contract(IERC20)1782"},{"astId":4481,"contract":"contracts/HYAXUpgradeableV2.sol:HYAXUpgradeableV2","label":"__gap","offset":0,"slot":"325","type":"t_array(t_uint256)50_storage"}],"types":{"t_address":{"encoding":"inplace","label":"address","numberOfBytes":"20"},"t_array(t_uint256)45_storage":{"base":"t_uint256","encoding":"inplace","label":"uint256[45]","numberOfBytes":"1440"},"t_array(t_uint256)49_storage":{"base":"t_uint256","encoding":"inplace","label":"uint256[49]","numberOfBytes":"1568"},"t_array(t_uint256)50_storage":{"base":"t_uint256","encoding":"inplace","label":"uint256[50]","numberOfBytes":"1600"},"t_bool":{"encoding":"inplace","label":"bool","numberOfBytes":"1"},"t_contract(AggregatorV3Interface)45":{"encoding":"inplace","label":"contract AggregatorV3Interface","numberOfBytes":"20"},"t_contract(IERC20)1782":{"encoding":"inplace","label":"contract IERC20","numberOfBytes":"20"},"t_mapping(t_address,t_mapping(t_address,t_uint256))":{"encoding":"mapping","key":"t_address","label":"mapping(address => mapping(address => uint256))","numberOfBytes":"32","value":"t_mapping(t_address,t_uint256)"},"t_mapping(t_address,t_struct(InvestorData)4398_storage)":{"encoding":"mapping","key":"t_address","label":"mapping(address => struct HYAXUpgradeableV2.InvestorData)","numberOfBytes":"32","value":"t_struct(InvestorData)4398_storage"},"t_mapping(t_address,t_uint256)":{"encoding":"mapping","key":"t_address","label":"mapping(address => uint256)","numberOfBytes":"32","value":"t_uint256"},"t_string_storage":{"encoding":"bytes","label":"string","numberOfBytes":"32"},"t_struct(InvestorData)4398_storage":{"encoding":"inplace","label":"struct HYAXUpgradeableV2.InvestorData","members":[{"astId":4389,"contract":"contracts/HYAXUpgradeableV2.sol:HYAXUpgradeableV2","label":"isWhiteListed","offset":0,"slot":"0","type":"t_bool"},{"astId":4391,"contract":"contracts/HYAXUpgradeableV2.sol:HYAXUpgradeableV2","label":"isBlacklisted","offset":1,"slot":"0","type":"t_bool"},{"astId":4393,"contract":"contracts/HYAXUpgradeableV2.sol:HYAXUpgradeableV2","label":"isQualifiedInvestor","offset":2,"slot":"0","type":"t_bool"},{"astId":4395,"contract":"contracts/HYAXUpgradeableV2.sol:HYAXUpgradeableV2","label":"totalHyaxBoughtByInvestor","offset":0,"slot":"1","type":"t_uint256"},{"astId":4397,"contract":"contracts/HYAXUpgradeableV2.sol:HYAXUpgradeableV2","label":"totalUsdDepositedByInvestor","offset":0,"slot":"2","type":"t_uint256"}],"numberOfBytes":"96"},"t_uint256":{"encoding":"inplace","label":"uint256","numberOfBytes":"32"},"t_uint8":{"encoding":"inplace","label":"uint8","numberOfBytes":"1"}}}}}}