{"contracts/HYAXLocal.sol":{"HYAXLocal":{"abi":[{"inputs":[],"stateMutability":"nonpayable","type":"constructor"},{"inputs":[{"internalType":"address","name":"spender","type":"address"},{"internalType":"uint256","name":"allowance","type":"uint256"},{"internalType":"uint256","name":"needed","type":"uint256"}],"name":"ERC20InsufficientAllowance","type":"error"},{"inputs":[{"internalType":"address","name":"sender","type":"address"},{"internalType":"uint256","name":"balance","type":"uint256"},{"internalType":"uint256","name":"needed","type":"uint256"}],"name":"ERC20InsufficientBalance","type":"error"},{"inputs":[{"internalType":"address","name":"approver","type":"address"}],"name":"ERC20InvalidApprover","type":"error"},{"inputs":[{"internalType":"address","name":"receiver","type":"address"}],"name":"ERC20InvalidReceiver","type":"error"},{"inputs":[{"internalType":"address","name":"sender","type":"address"}],"name":"ERC20InvalidSender","type":"error"},{"inputs":[{"internalType":"address","name":"spender","type":"address"}],"name":"ERC20InvalidSpender","type":"error"},{"inputs":[],"name":"EnforcedPause","type":"error"},{"inputs":[],"name":"ExpectedPause","type":"error"},{"inputs":[{"internalType":"address","name":"owner","type":"address"}],"name":"OwnableInvalidOwner","type":"error"},{"inputs":[{"internalType":"address","name":"account","type":"address"}],"name":"OwnableUnauthorizedAccount","type":"error"},{"anonymous":false,"inputs":[{"indexed":true,"internalType":"address","name":"owner","type":"address"},{"indexed":true,"internalType":"address","name":"spender","type":"address"},{"indexed":false,"internalType":"uint256","name":"value","type":"uint256"}],"name":"Approval","type":"event"},{"anonymous":false,"inputs":[{"indexed":false,"internalType":"uint8","name":"version","type":"uint8"}],"name":"Initialized","type":"event"},{"anonymous":false,"inputs":[{"indexed":false,"internalType":"enum HYAXLocal.TokenType","name":"tokenType","type":"uint8"},{"indexed":false,"internalType":"address","name":"sender","type":"address"},{"indexed":false,"internalType":"uint256","name":"tokenAmount","type":"uint256"},{"indexed":false,"internalType":"uint256","name":"totalInvestmentInUsd","type":"uint256"},{"indexed":false,"internalType":"uint256","name":"hyaxAmount","type":"uint256"}],"name":"InvestFromCryptoToken","type":"event"},{"anonymous":false,"inputs":[{"indexed":false,"internalType":"address","name":"sender","type":"address"},{"indexed":false,"internalType":"uint256","name":"maticAmount","type":"uint256"},{"indexed":false,"internalType":"uint256","name":"totalInvestmentInUsd","type":"uint256"},{"indexed":false,"internalType":"uint256","name":"hyaxAmount","type":"uint256"}],"name":"InvestFromMatic","type":"event"},{"anonymous":false,"inputs":[{"indexed":false,"internalType":"address","name":"sender","type":"address"},{"indexed":false,"internalType":"uint256","name":"usdcAmount","type":"uint256"},{"indexed":false,"internalType":"uint256","name":"totalInvestmentInUsd","type":"uint256"},{"indexed":false,"internalType":"uint256","name":"hyaxAmount","type":"uint256"}],"name":"InvestFromUsdc","type":"event"},{"anonymous":false,"inputs":[{"indexed":false,"internalType":"address","name":"sender","type":"address"},{"indexed":false,"internalType":"uint256","name":"usdtAmount","type":"uint256"},{"indexed":false,"internalType":"uint256","name":"totalInvestmentInUsd","type":"uint256"},{"indexed":false,"internalType":"uint256","name":"hyaxAmount","type":"uint256"}],"name":"InvestFromUsdt","type":"event"},{"anonymous":false,"inputs":[{"indexed":false,"internalType":"address","name":"sender","type":"address"},{"indexed":false,"internalType":"uint256","name":"wbtcAmount","type":"uint256"},{"indexed":false,"internalType":"uint256","name":"totalInvestmentInUsd","type":"uint256"},{"indexed":false,"internalType":"uint256","name":"hyaxAmount","type":"uint256"}],"name":"InvestFromWbtc","type":"event"},{"anonymous":false,"inputs":[{"indexed":false,"internalType":"address","name":"sender","type":"address"},{"indexed":false,"internalType":"uint256","name":"wethAmount","type":"uint256"},{"indexed":false,"internalType":"uint256","name":"totalInvestmentInUsd","type":"uint256"},{"indexed":false,"internalType":"uint256","name":"hyaxAmount","type":"uint256"}],"name":"InvestFromWeth","type":"event"},{"anonymous":false,"inputs":[{"indexed":false,"internalType":"address","name":"sender","type":"address"},{"indexed":false,"internalType":"address","name":"_QualifiedInvestorAddress","type":"address"}],"name":"InvestorAddedToQualifiedInvestorList","type":"event"},{"anonymous":false,"inputs":[{"indexed":false,"internalType":"address","name":"sender","type":"address"},{"indexed":false,"internalType":"address","name":"_investorAddress","type":"address"}],"name":"InvestorAddedToWhiteList","type":"event"},{"anonymous":false,"inputs":[{"indexed":false,"internalType":"address","name":"sender","type":"address"},{"indexed":false,"internalType":"address","name":"_QualifiedInvestorAddress","type":"address"}],"name":"InvestorRemovedFromQualifiedInvestorList","type":"event"},{"anonymous":false,"inputs":[{"indexed":false,"internalType":"address","name":"sender","type":"address"},{"indexed":false,"internalType":"address","name":"_investorAddress","type":"address"}],"name":"InvestorRemovedFromWhiteList","type":"event"},{"anonymous":false,"inputs":[{"indexed":true,"internalType":"address","name":"previousOwner","type":"address"},{"indexed":true,"internalType":"address","name":"newOwner","type":"address"}],"name":"OwnershipTransferred","type":"event"},{"anonymous":false,"inputs":[{"indexed":false,"internalType":"address","name":"account","type":"address"}],"name":"Paused","type":"event"},{"anonymous":false,"inputs":[{"indexed":false,"internalType":"address","name":"sender","type":"address"},{"indexed":false,"internalType":"uint256","name":"amount","type":"uint256"}],"name":"TokenIssuance","type":"event"},{"anonymous":false,"inputs":[{"indexed":true,"internalType":"address","name":"from","type":"address"},{"indexed":true,"internalType":"address","name":"to","type":"address"},{"indexed":false,"internalType":"uint256","name":"value","type":"uint256"}],"name":"Transfer","type":"event"},{"anonymous":false,"inputs":[{"indexed":false,"internalType":"address","name":"account","type":"address"}],"name":"Unpaused","type":"event"},{"anonymous":false,"inputs":[{"indexed":false,"internalType":"uint256","name":"_newHyaxPrice","type":"uint256"}],"name":"UpdatedHyaxPrice","type":"event"},{"anonymous":false,"inputs":[{"indexed":false,"internalType":"address","name":"_newMaticPriceFeedAddress","type":"address"}],"name":"UpdatedMaticPriceFeedAddress","type":"event"},{"anonymous":false,"inputs":[{"indexed":false,"internalType":"uint256","name":"_newMaximumInvestmentAllowedInUSD","type":"uint256"}],"name":"UpdatedMaximumInvestmentAllowedInUSD","type":"event"},{"anonymous":false,"inputs":[{"indexed":false,"internalType":"uint256","name":"_newMinimumInvestmentAllowedInUSD","type":"uint256"}],"name":"UpdatedMinimumInvestmentAllowedInUSD","type":"event"},{"anonymous":false,"inputs":[{"indexed":false,"internalType":"address","name":"_newTreasuryAddress","type":"address"}],"name":"UpdatedTreasuryAddress","type":"event"},{"anonymous":false,"inputs":[{"indexed":false,"internalType":"address","name":"_newUsdcPriceFeedAddress","type":"address"}],"name":"UpdatedUsdcPriceFeedAddress","type":"event"},{"anonymous":false,"inputs":[{"indexed":false,"internalType":"address","name":"_newUsdcTokenAddress","type":"address"}],"name":"UpdatedUsdcTokenAddress","type":"event"},{"anonymous":false,"inputs":[{"indexed":false,"internalType":"address","name":"_newUsdtPriceFeedAddress","type":"address"}],"name":"UpdatedUsdtPriceFeedAddress","type":"event"},{"anonymous":false,"inputs":[{"indexed":false,"internalType":"address","name":"_newUsdtTokenAddress","type":"address"}],"name":"UpdatedUsdtTokenAddress","type":"event"},{"anonymous":false,"inputs":[{"indexed":false,"internalType":"address","name":"_newWbtcPriceFeedAddress","type":"address"}],"name":"UpdatedWbtcPriceFeedAddress","type":"event"},{"anonymous":false,"inputs":[{"indexed":false,"internalType":"address","name":"_newWbtcTokenAddress","type":"address"}],"name":"UpdatedWbtcTokenAddress","type":"event"},{"anonymous":false,"inputs":[{"indexed":false,"internalType":"address","name":"_newWethPriceFeedAddress","type":"address"}],"name":"UpdatedWethPriceFeedAddress","type":"event"},{"anonymous":false,"inputs":[{"indexed":false,"internalType":"address","name":"_newWethTokenAddress","type":"address"}],"name":"UpdatedWethTokenAddress","type":"event"},{"anonymous":false,"inputs":[{"indexed":false,"internalType":"address","name":"_newWhiteListerAddress","type":"address"}],"name":"UpdatedWhiteListerAddress","type":"event"},{"inputs":[{"internalType":"address","name":"_qualifiedInvestorAddress","type":"address"}],"name":"addToQualifiedInvestorList","outputs":[],"stateMutability":"nonpayable","type":"function"},{"inputs":[{"internalType":"address","name":"_investorAddress","type":"address"}],"name":"addToWhiteList","outputs":[],"stateMutability":"nonpayable","type":"function"},{"inputs":[{"internalType":"address","name":"owner","type":"address"},{"internalType":"address","name":"spender","type":"address"}],"name":"allowance","outputs":[{"internalType":"uint256","name":"","type":"uint256"}],"stateMutability":"view","type":"function"},{"inputs":[{"internalType":"address","name":"spender","type":"address"},{"internalType":"uint256","name":"value","type":"uint256"}],"name":"approve","outputs":[{"internalType":"bool","name":"","type":"bool"}],"stateMutability":"nonpayable","type":"function"},{"inputs":[{"internalType":"address","name":"account","type":"address"}],"name":"balanceOf","outputs":[{"internalType":"uint256","name":"","type":"uint256"}],"stateMutability":"view","type":"function"},{"inputs":[{"internalType":"uint256","name":"_amount","type":"uint256"},{"internalType":"uint256","name":"_currentCryptocurrencyPrice","type":"uint256"}],"name":"calculateTotalHyaxTokenToReturn","outputs":[{"internalType":"uint256","name":"totalInvestmentInUsd","type":"uint256"},{"internalType":"uint256","name":"totalHyaxTokenToReturn","type":"uint256"}],"stateMutability":"view","type":"function"},{"inputs":[],"name":"decimals","outputs":[{"internalType":"uint8","name":"","type":"uint8"}],"stateMutability":"view","type":"function"},{"inputs":[],"name":"getCurrentMaticPrice","outputs":[{"internalType":"uint256","name":"","type":"uint256"}],"stateMutability":"view","type":"function"},{"inputs":[],"name":"getCurrentUsdcPrice","outputs":[{"internalType":"uint256","name":"","type":"uint256"}],"stateMutability":"view","type":"function"},{"inputs":[],"name":"getCurrentUsdtPrice","outputs":[{"internalType":"uint256","name":"","type":"uint256"}],"stateMutability":"view","type":"function"},{"inputs":[],"name":"getCurrentWbtcPrice","outputs":[{"internalType":"uint256","name":"","type":"uint256"}],"stateMutability":"view","type":"function"},{"inputs":[],"name":"getCurrentWethPrice","outputs":[{"internalType":"uint256","name":"","type":"uint256"}],"stateMutability":"view","type":"function"},{"inputs":[],"name":"hyaxPrice","outputs":[{"internalType":"uint256","name":"","type":"uint256"}],"stateMutability":"view","type":"function"},{"inputs":[{"internalType":"enum HYAXLocal.TokenType","name":"tokenType","type":"uint8"},{"internalType":"uint256","name":"_amount","type":"uint256"}],"name":"investFromCryptoToken","outputs":[{"internalType":"bool","name":"","type":"bool"}],"stateMutability":"nonpayable","type":"function"},{"inputs":[],"name":"investFromMatic","outputs":[{"internalType":"bool","name":"","type":"bool"}],"stateMutability":"payable","type":"function"},{"inputs":[{"internalType":"address","name":"","type":"address"}],"name":"investorData","outputs":[{"internalType":"bool","name":"isWhiteListed","type":"bool"},{"internalType":"bool","name":"isQualifiedInvestor","type":"bool"},{"internalType":"uint256","name":"totalHyaxBoughtByInvestor","type":"uint256"},{"internalType":"uint256","name":"totalUsdDepositedByInvestor","type":"uint256"}],"stateMutability":"view","type":"function"},{"inputs":[],"name":"maticPriceFeedAddress","outputs":[{"internalType":"address","name":"","type":"address"}],"stateMutability":"view","type":"function"},{"inputs":[],"name":"maximumInvestmentAllowedInUSD","outputs":[{"internalType":"uint256","name":"","type":"uint256"}],"stateMutability":"view","type":"function"},{"inputs":[],"name":"minimumInvestmentAllowedInUSD","outputs":[{"internalType":"uint256","name":"","type":"uint256"}],"stateMutability":"view","type":"function"},{"inputs":[],"name":"name","outputs":[{"internalType":"string","name":"","type":"string"}],"stateMutability":"view","type":"function"},{"inputs":[],"name":"owner","outputs":[{"internalType":"address","name":"","type":"address"}],"stateMutability":"view","type":"function"},{"inputs":[],"name":"pause","outputs":[],"stateMutability":"nonpayable","type":"function"},{"inputs":[],"name":"paused","outputs":[{"internalType":"bool","name":"","type":"bool"}],"stateMutability":"view","type":"function"},{"inputs":[{"internalType":"address","name":"_qualifiedInvestorAddress","type":"address"}],"name":"removeFromQualifiedInvestorList","outputs":[],"stateMutability":"nonpayable","type":"function"},{"inputs":[{"internalType":"address","name":"_investorAddress","type":"address"}],"name":"removeFromWhiteList","outputs":[],"stateMutability":"nonpayable","type":"function"},{"inputs":[],"name":"renounceOwnership","outputs":[],"stateMutability":"nonpayable","type":"function"},{"inputs":[],"name":"symbol","outputs":[{"internalType":"string","name":"","type":"string"}],"stateMutability":"view","type":"function"},{"inputs":[{"internalType":"uint256","name":"_amount","type":"uint256"}],"name":"tokenIssuance","outputs":[],"stateMutability":"nonpayable","type":"function"},{"inputs":[],"name":"totalSupply","outputs":[{"internalType":"uint256","name":"","type":"uint256"}],"stateMutability":"view","type":"function"},{"inputs":[{"internalType":"address","name":"to","type":"address"},{"internalType":"uint256","name":"value","type":"uint256"}],"name":"transfer","outputs":[{"internalType":"bool","name":"","type":"bool"}],"stateMutability":"nonpayable","type":"function"},{"inputs":[{"internalType":"address","name":"from","type":"address"},{"internalType":"address","name":"to","type":"address"},{"internalType":"uint256","name":"value","type":"uint256"}],"name":"transferFrom","outputs":[{"internalType":"bool","name":"","type":"bool"}],"stateMutability":"nonpayable","type":"function"},{"inputs":[{"internalType":"address","name":"newOwner","type":"address"}],"name":"transferOwnership","outputs":[],"stateMutability":"nonpayable","type":"function"},{"inputs":[],"name":"treasuryAddress","outputs":[{"internalType":"address","name":"","type":"address"}],"stateMutability":"view","type":"function"},{"inputs":[],"name":"unpause","outputs":[],"stateMutability":"nonpayable","type":"function"},{"inputs":[{"internalType":"uint256","name":"_newHyaxPrice","type":"uint256"}],"name":"updateHyaxPrice","outputs":[],"stateMutability":"nonpayable","type":"function"},{"inputs":[{"internalType":"address","name":"_newMaticPriceFeedAddress","type":"address"}],"name":"updateMaticPriceFeedAddress","outputs":[],"stateMutability":"nonpayable","type":"function"},{"inputs":[{"internalType":"uint256","name":"_newMaximumInvestmentAllowedInUSD","type":"uint256"}],"name":"updateMaximumInvestmentAllowedInUSD","outputs":[],"stateMutability":"nonpayable","type":"function"},{"inputs":[{"internalType":"uint256","name":"_newMinimumInvestmentAllowedInUSD","type":"uint256"}],"name":"updateMinimumInvestmentAllowedInUSD","outputs":[],"stateMutability":"nonpayable","type":"function"},{"inputs":[{"internalType":"address","name":"_newTreasuryAddress","type":"address"}],"name":"updateTreasuryAddress","outputs":[],"stateMutability":"nonpayable","type":"function"},{"inputs":[{"internalType":"address","name":"_newUsdcPriceFeedAddress","type":"address"}],"name":"updateUsdcPriceFeedAddress","outputs":[],"stateMutability":"nonpayable","type":"function"},{"inputs":[{"internalType":"address","name":"_newUsdcTokenAddress","type":"address"}],"name":"updateUsdcTokenAddress","outputs":[],"stateMutability":"nonpayable","type":"function"},{"inputs":[{"internalType":"address","name":"_newUsdtPriceFeedAddress","type":"address"}],"name":"updateUsdtPriceFeedAddress","outputs":[],"stateMutability":"nonpayable","type":"function"},{"inputs":[{"internalType":"address","name":"_newUsdtTokenAddress","type":"address"}],"name":"updateUsdtTokenAddress","outputs":[],"stateMutability":"nonpayable","type":"function"},{"inputs":[{"internalType":"address","name":"_newWbtcPriceFeedAddress","type":"address"}],"name":"updateWbtcPriceFeedAddress","outputs":[],"stateMutability":"nonpayable","type":"function"},{"inputs":[{"internalType":"address","name":"_newWbtcTokenAddress","type":"address"}],"name":"updateWbtcTokenAddress","outputs":[],"stateMutability":"nonpayable","type":"function"},{"inputs":[{"internalType":"address","name":"_newWethPriceFeedAddress","type":"address"}],"name":"updateWethPriceFeedAddress","outputs":[],"stateMutability":"nonpayable","type":"function"},{"inputs":[{"internalType":"address","name":"_newWethTokenAddress","type":"address"}],"name":"updateWethTokenAddress","outputs":[],"stateMutability":"nonpayable","type":"function"},{"inputs":[{"internalType":"address","name":"_newWhiteListerAddress","type":"address"}],"name":"updateWhiteListerAddress","outputs":[],"stateMutability":"nonpayable","type":"function"},{"inputs":[],"name":"usdcPriceFeedAddress","outputs":[{"internalType":"address","name":"","type":"address"}],"stateMutability":"view","type":"function"},{"inputs":[],"name":"usdcToken","outputs":[{"internalType":"contract ERC20TokenInterface","name":"","type":"address"}],"stateMutability":"view","type":"function"},{"inputs":[],"name":"usdcTokenAddress","outputs":[{"internalType":"address","name":"","type":"address"}],"stateMutability":"view","type":"function"},{"inputs":[],"name":"usdtPriceFeedAddress","outputs":[{"internalType":"address","name":"","type":"address"}],"stateMutability":"view","type":"function"},{"inputs":[],"name":"usdtToken","outputs":[{"internalType":"contract ERC20TokenInterface","name":"","type":"address"}],"stateMutability":"view","type":"function"},{"inputs":[],"name":"usdtTokenAddress","outputs":[{"internalType":"address","name":"","type":"address"}],"stateMutability":"view","type":"function"},{"inputs":[{"internalType":"uint256","name":"_totalInvestmentInUsd","type":"uint256"},{"internalType":"address","name":"_investorAddress","type":"address"}],"name":"validateMaximumInvestedAmountAndInvestorLimit","outputs":[],"stateMutability":"view","type":"function"},{"inputs":[],"name":"wbtcPriceFeedAddress","outputs":[{"internalType":"address","name":"","type":"address"}],"stateMutability":"view","type":"function"},{"inputs":[],"name":"wbtcToken","outputs":[{"internalType":"contract ERC20TokenInterface","name":"","type":"address"}],"stateMutability":"view","type":"function"},{"inputs":[],"name":"wbtcTokenAddress","outputs":[{"internalType":"address","name":"","type":"address"}],"stateMutability":"view","type":"function"},{"inputs":[],"name":"wethPriceFeedAddress","outputs":[{"internalType":"address","name":"","type":"address"}],"stateMutability":"view","type":"function"},{"inputs":[],"name":"wethToken","outputs":[{"internalType":"contract ERC20TokenInterface","name":"","type":"address"}],"stateMutability":"view","type":"function"},{"inputs":[],"name":"wethTokenAddress","outputs":[{"internalType":"address","name":"","type":"address"}],"stateMutability":"view","type":"function"},{"inputs":[],"name":"whiteListerAddress","outputs":[{"internalType":"address","name":"","type":"address"}],"stateMutability":"view","type":"function"},{"stateMutability":"payable","type":"receive"}],"evm":{"bytecode":{"linkReferences":{},"object":"60806040523480156200001157600080fd5b503360405180604001604052806009815260200168242ca0ac2a37b5b2b760b91b81525060405180604001604052806004815260200163090b282b60e31b8152508160039081620000639190620005b1565b506004620000728282620005b1565b50506005805460ff19169055506001600160a01b038116620000af57604051631e4fbdf760e01b8152600060048201526024015b60405180910390fd5b620000ba81620002ff565b50620000e433620000ce6012600a62000792565b620000de90631dcd6500620007aa565b62000359565b620927c0603855620000f96012600a62000792565b62000106906001620007aa565b603955620001176012600a62000792565b6200012590612710620007aa565b603a55603b80546001600160a01b03199081167301c2f012de19e6436744c3f81f56e9e70c93a8c317909155603c8054821673350441f8a82680a785ffa9d3efea60bb4ca417f8179055603e80548216721382149eba3441043c1c66972b4772963f5d43908117909155603f80548316909117905560408054821673f68054bfe5d45432ffca28ffa1f3d685d0456ddc908117909155604180548316731b8739bb4cdf0089d07097a9ae5bd274b29c6f16908117909155604280548416909117905560438054831690911790556044805482167370e02fb82b6bc04f64099689b0599e14b44d4fbb908117909155604580548316733ac23dcb4ecfcbd24579e1f34542524d0e4edea890811790915560468054841690911790556047805483169091179055604880548216733c8df3c48b3884da2ff25e17524282d60f9c3b9390811790915560498054831673e7656e23fe8077d438aefbec2fabdf2d8e070c4f908117909155604a805484169091179055604b805483169091179055604c8054821673524a89ed77d5827320e35e12bca96830c6b7960a908117909155604d8054831673f0d50568e3a7e8259e16663972b11910f89bd8e7908117909155604e805484169091179055604f8054909216179055620007da565b600580546001600160a01b03838116610100818102610100600160a81b031985161790945560405193909204169182907f8be0079c531659141344cd1fd0a4f28419497f9722a3daafe3b4186f6b6457e090600090a35050565b6001600160a01b038216620003855760405163ec442f0560e01b815260006004820152602401620000a6565b620003936000838362000397565b5050565b620003a1620003b3565b620003ae838383620003da565b505050565b60055460ff1615620003d85760405163d93c066560e01b815260040160405180910390fd5b565b6001600160a01b03831662000409578060026000828254620003fd9190620007c4565b909155506200047d9050565b6001600160a01b038316600090815260208190526040902054818110156200045e5760405163391434e360e21b81526001600160a01b03851660048201526024810182905260448101839052606401620000a6565b6001600160a01b03841660009081526020819052604090209082900390555b6001600160a01b0382166200049b57600280548290039055620004ba565b6001600160a01b03821660009081526020819052604090208054820190555b816001600160a01b0316836001600160a01b03167fddf252ad1be2c89b69c2b068fc378daa952ba7f163c4a11628f55a4df523b3ef836040516200050091815260200190565b60405180910390a3505050565b634e487b7160e01b600052604160045260246000fd5b600181811c908216806200053857607f821691505b6020821081036200055957634e487b7160e01b600052602260045260246000fd5b50919050565b601f821115620003ae57600081815260208120601f850160051c81016020861015620005885750805b601f850160051c820191505b81811015620005a95782815560010162000594565b505050505050565b81516001600160401b03811115620005cd57620005cd6200050d565b620005e581620005de845462000523565b846200055f565b602080601f8311600181146200061d5760008415620006045750858301515b600019600386901b1c1916600185901b178555620005a9565b600085815260208120601f198616915b828110156200064e578886015182559484019460019091019084016200062d565b50858210156200066d5787850151600019600388901b60f8161c191681555b5050505050600190811b01905550565b634e487b7160e01b600052601160045260246000fd5b600181815b80851115620006d4578160001904821115620006b857620006b86200067d565b80851615620006c657918102915b93841c939080029062000698565b509250929050565b600082620006ed575060016200078c565b81620006fc575060006200078c565b8160018114620007155760028114620007205762000740565b60019150506200078c565b60ff8411156200073457620007346200067d565b50506001821b6200078c565b5060208310610133831016604e8410600b841016171562000765575081810a6200078c565b62000771838362000693565b80600019048211156200078857620007886200067d565b0290505b92915050565b6000620007a360ff841683620006dc565b9392505050565b80820281158282048414176200078c576200078c6200067d565b808201808211156200078c576200078c6200067d565b61495480620007ea6000396000f3fe6080604052600436106103315760003560e01c806365699d28116101a75780639d741e5d116100ed578063dd0b49ed11610090578063dd0b49ed146109c0578063dd62ed3e146109e0578063de1f534614610a00578063e0ec608714610a6a578063f2fde38b14610a8a578063f7a47f8114610aaa578063fb2dc76e14610aca578063fc77056f14610aea57600080fd5b80639d741e5d146108cb578063a9059cbb146108eb578063a98ad46c1461090b578063b2c568f31461092b578063b40ed4491461094b578063bbdd2a541461096b578063c5f956af1461098b578063d39f4561146109ab57600080fd5b80638116de2b116101555780638116de2b146107d757806381eb121a146107f7578063841e4561146108175780638456cb59146108375780638c945e631461084c5780638da5cb5b146108815780638f7c71671461089657806395d89b41146108b657600080fd5b806365699d28146106f657806370a0823114610716578063715018a61461074c578063731de5141461076157806377b53ece146107815780637ce5643a146107a15780638049bcb6146107c157600080fd5b80632eb930861161027757806349dd3e881161021a57806349dd3e88146105fe5780634b57b0be1461061e5780634c526bdb1461063e5780634c97cf7c1461065e5780635ae9384e1461067e5780635c975abb1461069e5780635ec2562a146106b6578063653c3a47146106d657600080fd5b80632eb9308614610545578063313ce5671461055a578063377c779f146105765780633b14f3591461058c5780633ebda614146105945780633f4ba83a146105a957806340b5ea9c146105be57806347ee0394146105de57600080fd5b806311eac855116102df57806311eac8551461045a578063128ef0221461047a57806318160ddd1461049a5780631b1741e0146104af5780631e534be6146104cf57806323b872dd146104ef57806327614df81461050f5780632a241ad31461052f57600080fd5b806301bf66481461034f57806306fdde031461036f57806308cd468f1461039a578063095ea7b3146103c75780630aeee261146103f75780630f3d57e21461041a5780630f9dad711461043a57600080fd5b3661034a5761033e610aff565b6103486001600655565b005b600080fd5b34801561035b57600080fd5b5061034861036a366004613fd0565b610b5d565b34801561037b57600080fd5b50610384610d20565b6040516103919190614016565b60405180910390f35b3480156103a657600080fd5b506045546103ba906001600160a01b031681565b6040516103919190614049565b3480156103d357600080fd5b506103e76103e236600461405d565b610db2565b6040519015158152602001610391565b34801561040357600080fd5b5061040c610dcc565b604051908152602001610391565b34801561042657600080fd5b50610348610435366004613fd0565b610e9f565b34801561044657600080fd5b50604c546103ba906001600160a01b031681565b34801561046657600080fd5b506043546103ba906001600160a01b031681565b34801561048657600080fd5b50610348610495366004614087565b6110a7565b3480156104a657600080fd5b5060025461040c565b3480156104bb57600080fd5b506103486104ca366004613fd0565b6112bb565b3480156104db57600080fd5b506103486104ea366004613fd0565b6114b6565b3480156104fb57600080fd5b506103e761050a3660046140a0565b6115ac565b34801561051b57600080fd5b50604b546103ba906001600160a01b031681565b34801561053b57600080fd5b5061040c60395481565b34801561055157600080fd5b5061040c6115d0565b34801561056657600080fd5b5060405160128152602001610391565b34801561058257600080fd5b5061040c60385481565b6103e7611696565b3480156105a057600080fd5b5061040c6118b8565b3480156105b557600080fd5b5061034861197e565b3480156105ca57600080fd5b506041546103ba906001600160a01b031681565b3480156105ea57600080fd5b506103486105f9366004613fd0565b611990565b34801561060a57600080fd5b50610348610619366004613fd0565b611b98565b34801561062a57600080fd5b50604f546103ba906001600160a01b031681565b34801561064a57600080fd5b506048546103ba906001600160a01b031681565b34801561066a57600080fd5b50610348610679366004613fd0565b611c93565b34801561068a57600080fd5b50604d546103ba906001600160a01b031681565b3480156106aa57600080fd5b5060055460ff166103e7565b3480156106c257600080fd5b506103486106d1366004614087565b611d8e565b3480156106e257600080fd5b506103486106f1366004613fd0565b611f52565b34801561070257600080fd5b50603b546103ba906001600160a01b031681565b34801561072257600080fd5b5061040c610731366004613fd0565b6001600160a01b031660009081526020819052604090205490565b34801561075857600080fd5b5061034861209c565b34801561076d57600080fd5b506103e761077c3660046140dc565b6120ae565b34801561078d57600080fd5b506040546103ba906001600160a01b031681565b3480156107ad57600080fd5b506103486107bc366004613fd0565b61261f565b3480156107cd57600080fd5b5061040c603a5481565b3480156107e357600080fd5b506103486107f23660046140fe565b6127fd565b34801561080357600080fd5b50610348610812366004613fd0565b6128d2565b34801561082357600080fd5b50610348610832366004613fd0565b612ace565b34801561084357600080fd5b50610348612c0f565b34801561085857600080fd5b5061086c61086736600461412a565b612c1f565b60408051928352602083019190915201610391565b34801561088d57600080fd5b506103ba612d7a565b3480156108a257600080fd5b506103486108b1366004613fd0565b612d8e565b3480156108c257600080fd5b50610384612fff565b3480156108d757600080fd5b506044546103ba906001600160a01b031681565b3480156108f757600080fd5b506103e761090636600461405d565b61300e565b34801561091757600080fd5b506047546103ba906001600160a01b031681565b34801561093757600080fd5b50610348610946366004614087565b61301c565b34801561095757600080fd5b50610348610966366004614087565b6131e1565b34801561097757600080fd5b50610348610986366004613fd0565b6133b3565b34801561099757600080fd5b50603c546103ba906001600160a01b031681565b3480156109b757600080fd5b5061040c6134ae565b3480156109cc57600080fd5b506103486109db366004613fd0565b613574565b3480156109ec57600080fd5b5061040c6109fb36600461414c565b613785565b348015610a0c57600080fd5b50610a48610a1b366004613fd0565b603d6020526000908152604090208054600182015460029092015460ff8083169361010090930416919084565b6040805194151585529215156020850152918301526060820152608001610391565b348015610a7657600080fd5b50610348610a85366004613fd0565b6137b0565b348015610a9657600080fd5b50610348610aa5366004613fd0565b6139ac565b348015610ab657600080fd5b506049546103ba906001600160a01b031681565b348015610ad657600080fd5b50603e546103ba906001600160a01b031681565b348015610af657600080fd5b5061040c613a9a565b600260065403610b565760405162461bcd60e51b815260206004820152601f60248201527f5265656e7472616e637947756172643a207265656e7472616e742063616c6c0060448201526064015b60405180910390fd5b6002600655565b610b65612d7a565b6001600160a01b0316336001600160a01b03161480610b8e5750603b546001600160a01b031633145b610baa5760405162461bcd60e51b8152600401610b4d90614176565b6001600160a01b038116610c395760405162461bcd60e51b815260206004820152604a60248201527f496e766573746f72206164647265737320746f2072656d6f76652066726f6d2060448201527f746865207768697465206c6973742063616e206e6f7420626520746865207a65606482015269726f206164647265737360b01b608482015260a401610b4d565b6001600160a01b0381166000908152603d602052604090205460ff16610cc35760405162461bcd60e51b815260206004820152603960248201527f5468617420696e766573746f722061646472657373206973206e6f74207265676044820152781a5cdd195c9959081bdb881d1a19481dda1a5d19481b1a5cdd603a1b6064820152608401610b4d565b6001600160a01b0381166000908152603d602052604090819020805460ff19169055517f41b8ea78b0816bef99ff095d54fbe2cef1f50003e09ce81445df1f89d957994490610d1590339084906141d4565b60405180910390a150565b606060038054610d2f906141ee565b80601f0160208091040260200160405190810160405280929190818152602001828054610d5b906141ee565b8015610da85780601f10610d7d57610100808354040283529160200191610da8565b820191906000526020600020905b815481529060010190602001808311610d8b57829003601f168201915b5050505050905090565b600033610dc0818585613b60565b60019150505b92915050565b603f5460408051633fabe5a360e21b815290516000926001600160a01b03169163feaf968c9160048083019260a09291908290030181865afa925050508015610e32575060408051601f3d908101601f19168201909252610e2f91810190614242565b60015b610e925760405162461bcd60e51b815260206004820152603c60248201526000805160206148bf83398151915260448201527f204d415449432070726963652066726f6d20746865206f7261636c65000000006064820152608401610b4d565b5091949350505050565b90565b610ea7613b6d565b6001600160a01b038116610ecd5760405162461bcd60e51b8152600401610b4d90614292565b6041546001600160a01b0390811690821603610f3f5760405162461bcd60e51b815260206004820152603f60248201527f55534443207072696365206665656420616464726573732068617320616c726560448201526000805160206148ff8339815191526064820152608401610b4d565b6000819050806001600160a01b0316637284e4166040518163ffffffff1660e01b8152600401600060405180830381865afa925050508015610fa357506040513d6000823e601f3d908101601f19168201604052610fa091908101906142ff565b60015b610fbf5760405162461bcd60e51b8152600401610b4d906143ac565b604051691554d110c80bc81554d160b21b6020820152600090602a016040516020818303038152906040528051906020012090506000826040516020016110069190614401565b60405160208183030381529060405280519060200120905080821461103d5760405162461bcd60e51b8152600401610b4d906143ac565b505050604180546001600160a01b0384166001600160a01b031991821681179092556042805490911690911790556040517f0a0bc5dadd9d9c881861f6da8998bebef8eabcb5f3d6651187c5d1899e3279659061109b908490614049565b60405180910390a15050565b6110af613b6d565b6110b7610aff565b6110c36012600a614517565b8110156111325760405162461bcd60e51b815260206004820152603760248201527f416d6f756e74206f66204859415820746f6b656e7320746f206973737565206d6044820152763ab9ba1031329030ba103632b0b9ba1018903a37b5b2b760491b6064820152608401610b4d565b61113e6012600a614517565b61114c90633b9aca00614526565b8111156111c15760405162461bcd60e51b815260206004820152603f60248201527f416d6f756e74206f66204859415820746f6b656e7320746f206973737565206160448201527f7420612074696d65206d757374206265206d6178696d756d2031303030204d006064820152608401610b4d565b6111cd6012600a614517565b6111dc906402540be400614526565b816111e660025490565b6111f0919061453d565b11156112645760405162461bcd60e51b815260206004820152603b60248201527f416d6f756e74206f66204859415820746f6b656e7320746f206973737565207360448201527f75727061736573207468652031302c303030204d20746f6b656e7300000000006064820152608401610b4d565b61127561126f612d7a565b82613b9f565b7f455064bbf1374d9e833b8d9db24c56b24dbf79cc1a94a30665cae7093963d5a833826040516112a6929190614550565b60405180910390a16112b86001600655565b50565b6112c3613b6d565b6001600160a01b0381166112e95760405162461bcd60e51b8152600401610b4d90614292565b604d546001600160a01b039081169082160361135b5760405162461bcd60e51b815260206004820152603f60248201527f57455448207072696365206665656420616464726573732068617320616c726560448201526000805160206148ff8339815191526064820152608401610b4d565b6000819050806001600160a01b0316637284e4166040518163ffffffff1660e01b8152600401600060405180830381865afa9250505080156113bf57506040513d6000823e601f3d908101601f191682016040526113bc91908101906142ff565b60015b6113db5760405162461bcd60e51b8152600401610b4d90614569565b60405168115512080bc81554d160ba1b60208201526000906029016040516020818303038152906040528051906020012090506000826040516020016114219190614401565b6040516020818303038152906040528051906020012090508082146114585760405162461bcd60e51b8152600401610b4d90614569565b505050604d80546001600160a01b0384166001600160a01b03199182168117909255604e805490911690911790556040517fc21be1e8c8d6de83e19ad6de75cd885eefac75be87e532a0a04d02147004e5209061109b908490614049565b6114be613b6d565b6001600160a01b0381166114e45760405162461bcd60e51b8152600401610b4d906145b5565b6040546001600160a01b03908116908216036115565760405162461bcd60e51b815260206004820152603a60248201527f5553444320746f6b656e20616464726573732068617320616c72656164792062604482015260008051602061489f8339815191526064820152608401610b4d565b604080546001600160a01b0383166001600160a01b03199182168117835560438054909216179055517f8b3f52c1d10699944ebee74ee29dca11c9c86bb0dbedef4abd6e737f613d4d3a90610d15908390614049565b6000336115ba858285613bd9565b6115c5858585613c2c565b506001949350505050565b60465460408051633fabe5a360e21b815290516000926001600160a01b03169163feaf968c9160048083019260a09291908290030181865afa925050508015611636575060408051601f3d908101601f1916820190925261163391810190614242565b60015b610e925760405162461bcd60e51b815260206004820152603b60248201526000805160206148bf83398151915260448201527f20555344542070726963652066726f6d20746865206f7261636c6500000000006064820152608401610b4d565b336000908152603d602052604081205460ff166116c55760405162461bcd60e51b8152600401610b4d90614602565b6116cd610aff565b6000806116dc34610867610dcc565b915091506116ea82336127fd565b603c546040516001600160a01b03909116903480156108fc02916000818181858888f1935050505061178f5760405162461bcd60e51b815260206004820152604260248201527f54686572652077617320616e206572726f72206f6e2073656e64696e6720746860448201527f65204d4154494320696e766573746d656e7420746f2074686520747265617375606482015261727960f01b608482015260a401610b4d565b60405163a9059cbb60e01b8152309063a9059cbb906117b49033908590600401614550565b6020604051808303816000875af11580156117d3573d6000803e3d6000fd5b505050506040513d601f19601f820116820180604052508101906117f79190614657565b6118135760405162461bcd60e51b8152600401610b4d90614679565b336000908152603d60205260408120600201805484929061183590849061453d565b9091555050336000908152603d60205260408120600101805483929061185c90849061453d565b909155505060408051338152346020820152908101839052606081018290527fe036cb252631bb3e3fbcb1aa359dd09f94f0dac1fe6de828e8bae3f5028331c59060800160405180910390a1600192505050610e9c6001600655565b604e5460408051633fabe5a360e21b815290516000926001600160a01b03169163feaf968c9160048083019260a09291908290030181865afa92505050801561191e575060408051601f3d908101601f1916820190925261191b91810190614242565b60015b610e925760405162461bcd60e51b815260206004820152603b60248201526000805160206148bf83398151915260448201527f20574554482070726963652066726f6d20746865206f7261636c6500000000006064820152608401610b4d565b611986613b6d565b61198e613c8b565b565b611998612d7a565b6001600160a01b0316336001600160a01b031614806119c15750603b546001600160a01b031633145b6119dd5760405162461bcd60e51b8152600401610b4d90614176565b6001600160a01b038116611a675760405162461bcd60e51b815260206004820152604560248201527f496e766573746f72206164647265737320746f2061646420746f20746865207760448201527f68697465206c6973742063616e206e6f7420626520746865207a65726f206164606482015264647265737360d81b608482015260a401610b4d565b6001600160a01b0381166000908152603d602052604090205460ff1615611af65760405162461bcd60e51b815260206004820152603e60248201527f5468617420696e766573746f7220616464726573732068617320616c7265616460448201527f79206265656e20616464656420746f20746865207768697465206c69737400006064820152608401610b4d565b60408051608081018252600060208083018281528385018381526060850184815260018087526001600160a01b0389168652603d9094529386902085518154935161ffff1990941690151561ff00191617610100931515939093029290921782555191810191909155905160029091015590517f8419b79dc227f7841e7bf32cea35c3f90fe5b3da68cde93adef3c32745c587de9061109b90339085906141d4565b611ba0613b6d565b6001600160a01b038116611bc65760405162461bcd60e51b8152600401610b4d906145b5565b604c546001600160a01b0390811690821603611c385760405162461bcd60e51b815260206004820152603a60248201527f5745544820746f6b656e20616464726573732068617320616c72656164792062604482015260008051602061489f8339815191526064820152608401610b4d565b604c80546001600160a01b0383166001600160a01b03199182168117909255604f805490911690911790556040517ff5fd160f565ac0e80215e9eced5afbfcd47389e99858fac6a3d93f2ec38ff6d690610d15908390614049565b611c9b613b6d565b6001600160a01b038116611cc15760405162461bcd60e51b8152600401610b4d906145b5565b6044546001600160a01b0390811690821603611d335760405162461bcd60e51b815260206004820152603a60248201527f5553445420746f6b656e20616464726573732068617320616c72656164792062604482015260008051602061489f8339815191526064820152608401610b4d565b604480546001600160a01b0383166001600160a01b031991821681179092556047805490911690911790556040517f1c2d8a05be2c8eca524d44cc224513d7e19ca97ac309c3e23bee450f8578ca1990610d15908390614049565b611d96613b6d565b60008111611e065760405162461bcd60e51b815260206004820152603760248201527f4e6577206d6178696d756d20616d6f756e7420746f20696e766573742c206d7560448201527673742062652067726561746572207468616e207a65726f60481b6064820152608401610b4d565b603a548103611e8b5760405162461bcd60e51b815260206004820152604560248201527f4e6577206d6178696d756d20616d6f756e7420746f20696e766573742c20686160448201527f7320616c7265616479206265656e206d6f64696669656420746f20746861742060648201526476616c756560d81b608482015260a401610b4d565b603954811015611f1d5760405162461bcd60e51b815260206004820152605160248201527f4e6577206d6178696d756d20616d6f756e7420746f20696e766573742c206d7560448201527f73742062652067726561746572207468616e20746865206d696e696d756d20696064820152701b9d995cdd1b595b9d08185b1b1bddd959607a1b608482015260a401610b4d565b603a8190556040518181527f29d434ec19958e7ce86ca2870f5927ab4f948d916dcffc568c1343c1e1f7656690602001610d15565b611f5a613b6d565b6001600160a01b038116611fcd5760405162461bcd60e51b815260206004820152603460248201527f546865207768697465206c697374657220616464726573732063616e206e6f7460448201527320626520746865207a65726f206164647265737360601b6064820152608401610b4d565b603b546001600160a01b03908116908216036120515760405162461bcd60e51b815260206004820152603c60248201527f5768697465206c697374657220616464726573732068617320616c726561647960448201527f206265656e206d6f64696669656420746f20746861742076616c7565000000006064820152608401610b4d565b603b80546001600160a01b0319166001600160a01b0383161790556040517f32359536720adedfb2b6c6dd7685519f09fdf93ce7824b68d5b2f56354fdebec90610d15908390614049565b6120a4613b6d565b61198e6000613cd7565b336000908152603d602052604081205460ff166120dd5760405162461bcd60e51b8152600401610b4d90614602565b6120e5610aff565b60008060018560048111156120fc576120fc6146e0565b0361218257604360009054906101000a90046001600160a01b03169150306001600160a01b031663d39f45616040518163ffffffff1660e01b8152600401602060405180830381865afa158015612157573d6000803e3d6000fd5b505050506040513d601f19601f8201168201806040525081019061217b91906146f6565b905061230c565b6002856004811115612196576121966146e0565b036121f157604760009054906101000a90046001600160a01b03169150306001600160a01b0316632eb930866040518163ffffffff1660e01b8152600401602060405180830381865afa158015612157573d6000803e3d6000fd5b6003856004811115612205576122056146e0565b0361226057604b60009054906101000a90046001600160a01b03169150306001600160a01b031663fc77056f6040518163ffffffff1660e01b8152600401602060405180830381865afa158015612157573d6000803e3d6000fd5b6004856004811115612274576122746146e0565b036122cf57604f60009054906101000a90046001600160a01b03169150306001600160a01b0316633ebda6146040518163ffffffff1660e01b8152600401602060405180830381865afa158015612157573d6000803e3d6000fd5b60405162461bcd60e51b8152602060048201526012602482015271496e76616c696420746f6b656e207479706560701b6044820152606401610b4d565b6000806123198684612c1f565b9150915061232782336127fd565b6040516323b872dd60e01b8152336004820152306024820152604481018790526001600160a01b038516906323b872dd906064016020604051808303816000875af115801561237a573d6000803e3d6000fd5b505050506040513d601f19601f8201168201806040525081019061239e9190614657565b6124075760405162461bcd60e51b815260206004820152603460248201527f54686572652077617320616e206572726f72206f6e20726563656976696e67206044820152731d1a19481d1bdad95b881a5b9d995cdd1b595b9d60621b6064820152608401610b4d565b603c5460405163a9059cbb60e01b81526001600160a01b038681169263a9059cbb9261243b92909116908a90600401614550565b6020604051808303816000875af115801561245a573d6000803e3d6000fd5b505050506040513d601f19601f8201168201806040525081019061247e9190614657565b6124fb5760405162461bcd60e51b815260206004820152604260248201527f54686572652077617320616e206572726f72206f6e2073656e64696e6720746860448201527f6520746f6b656e20696e766573746d656e7420746f2074686520747265617375606482015261727960f01b608482015260a401610b4d565b60405163a9059cbb60e01b8152309063a9059cbb906125209033908590600401614550565b6020604051808303816000875af115801561253f573d6000803e3d6000fd5b505050506040513d601f19601f820116820180604052508101906125639190614657565b61257f5760405162461bcd60e51b8152600401610b4d90614679565b336000908152603d6020526040812060020180548492906125a190849061453d565b9091555050336000908152603d6020526040812060010180548392906125c890849061453d565b90915550506040517f3b60324b6db90922773bde8799e6d3b7d574474a0fb52a6d340bd2ee92b5edbc9061260590899033908a908790879061470f565b60405180910390a16001945050505050610dc66001600655565b612627612d7a565b6001600160a01b0316336001600160a01b031614806126505750603b546001600160a01b031633145b61266c5760405162461bcd60e51b8152600401610b4d90614176565b6001600160a01b0381166127085760405162461bcd60e51b815260206004820152605760248201527f496e766573746f72206164647265737320746f2072656d6f76652066726f6d2060448201527f746865207175616c696669656420696e766573746f72206c6973742063616e206064820152766e6f7420626520746865207a65726f206164647265737360481b608482015260a401610b4d565b6001600160a01b0381166000908152603d6020526040902054610100900460ff166127aa5760405162461bcd60e51b815260206004820152604660248201527f5468617420696e766573746f722061646472657373206973206e6f742072656760448201527f69737465726564206f6e20746865207175616c696669656420696e766573746f6064820152651c881b1a5cdd60d21b608482015260a401610b4d565b6001600160a01b0381166000908152603d602052604090819020805461ff0019169055517f2ac92c349a800ca8b882e6d59e4f5c08ca2db952c08627c6cd4ab754a93b7ba390610d1590339084906141d4565b6001600160a01b0381166000908152603d6020526040812060020154612823908461453d565b9050603a548111156128cd576001600160a01b0382166000908152603d6020526040902054610100900460ff166128cd5760405162461bcd60e51b815260206004820152604260248201527f546f20627579207468617420616d6f756e74206f66204859415820697473207260448201527f6571756972656420746f2062652061207175616c696669656420696e7665737460648201526137b960f11b608482015260a401610b4d565b505050565b6128da613b6d565b6001600160a01b0381166129005760405162461bcd60e51b8152600401610b4d90614292565b6045546001600160a01b03908116908216036129725760405162461bcd60e51b815260206004820152603f60248201527f55534454207072696365206665656420616464726573732068617320616c726560448201526000805160206148ff8339815191526064820152608401610b4d565b6000819050806001600160a01b0316637284e4166040518163ffffffff1660e01b8152600401600060405180830381865afa9250505080156129d657506040513d6000823e601f3d908101601f191682016040526129d391908101906142ff565b60015b6129f25760405162461bcd60e51b8152600401610b4d9061475b565b604051691554d115080bc81554d160b21b6020820152600090602a01604051602081830303815290604052805190602001209050600082604051602001612a399190614401565b604051602081830303815290604052805190602001209050808214612a705760405162461bcd60e51b8152600401610b4d9061475b565b505050604580546001600160a01b0384166001600160a01b031991821681179092556046805490911690911790556040517f1e5bfe0b7fe6fcdc586b9e3a4fbdc0bdb1346d36173963ba38c897137ba160319061109b908490614049565b612ad6613b6d565b6001600160a01b038116612b455760405162461bcd60e51b815260206004820152603060248201527f54686520747265617375727920616464726573732063616e206e6f742062652060448201526f746865207a65726f206164647265737360801b6064820152608401610b4d565b603c546001600160a01b0390811690821603612bc45760405162461bcd60e51b815260206004820152603860248201527f547265617375727920616464726573732068617320616c7265616479206265656044820152776e206d6f64696669656420746f20746861742076616c756560401b6064820152608401610b4d565b603c80546001600160a01b0319166001600160a01b0383161790556040517f2e1e696cfb265fa16e1170d24ef04cb2262772bde00ecf34d80bae6722487b7f90610d15908390614049565b612c17613b6d565b61198e613d31565b6000806305f5e100612c318486614526565b612c3b91906147b0565b603854909250612c4f836305f5e100614526565b612c5991906147b0565b9050603954821015612cdd5760405162461bcd60e51b815260206004820152604160248201527f54686520616d6f756e7420746f20696e76657374206d7573742062652067726560448201527f61746572207468616e20746865206d696e696d756d2065737461626c697368656064820152601960fa1b608482015260a401610b4d565b30600090815260208190526040902054811115612d735760405162461bcd60e51b815260206004820152604860248201527f54686520696e766573746d656e74206d6164652072657475726e7320616e206160448201527f6d6f756e74206f6620485941582067726561746572207468616e2074686520616064820152677661696c61626c6560c01b608482015260a401610b4d565b9250929050565b60055461010090046001600160a01b031690565b612d96612d7a565b6001600160a01b0316336001600160a01b03161480612dbf5750603b546001600160a01b031633145b612ddb5760405162461bcd60e51b8152600401610b4d90614176565b6001600160a01b038116612e725760405162461bcd60e51b815260206004820152605260248201527f496e766573746f72206164647265737320746f2061646420746f20746865207160448201527f75616c696669656420696e766573746f72206c6973742063616e206e6f7420626064820152716520746865207a65726f206164647265737360701b608482015260a401610b4d565b6001600160a01b0381166000908152603d602052604090205460ff16612f005760405162461bcd60e51b815260206004820152603f60248201527f496e766573746f722061646472657373206d757374206265206669727374206160448201527f6464656420746f2074686520696e766573746f72207768697465206c697374006064820152608401610b4d565b6001600160a01b0381166000908152603d6020526040902054610100900460ff1615612fa85760405162461bcd60e51b815260206004820152604b60248201527f5468617420696e766573746f7220616464726573732068617320616c7265616460448201527f79206265656e20616464656420746f20746865207175616c696669656420696e60648201526a1d995cdd1bdc881b1a5cdd60aa1b608482015260a401610b4d565b6001600160a01b0381166000908152603d602052604090819020805461ff001916610100179055517f037cd19042487ae926a661f12fdfb1b8737056255a7c1bcf9708313301a7aded90610d1590339084906141d4565b606060048054610d2f906141ee565b600033610dc0818585613c2c565b613024613b6d565b600081116130945760405162461bcd60e51b815260206004820152603760248201527f4e6577206d696e696d756e20616d6f756e7420746f20696e766573742c206d7560448201527673742062652067726561746572207468616e207a65726f60481b6064820152608401610b4d565b603954810361311d5760405162461bcd60e51b815260206004820152604960248201527f4d696e696d756d20696e766573746d656e7420616c6c6f77656420696e20555360448201527f442068617320616c7265616479206265656e206d6f64696669656420746f20746064820152686861742076616c756560b81b608482015260a401610b4d565b603a548111156131ac5760405162461bcd60e51b815260206004820152604e60248201527f4e6577206d696e696d756e20616d6f756e7420746f20696e766573742c206d7560448201527f7374206265206c657373207468616e20746865206d6178696d756d20696e766560648201526d1cdd1b595b9d08185b1b1bddd95960921b608482015260a401610b4d565b60398190556040518181527fee60eb8e40a2ec796bfe3ca896b9221af9764fc0987bf0508ca755266d9c85f890602001610d15565b6131e9613b6d565b60385481036132555760405162461bcd60e51b815260206004820152603260248201527f485941582070726963652068617320616c7265616479206265656e206d6f64696044820152716669656420746f20746861742076616c756560701b6064820152608401610b4d565b6207a1208110156132e55760405162461bcd60e51b815260206004820152604e60248201527f5072696365206f66204859415820746f6b656e206d757374206265206174206c60448201527f656173742055534420302e3030352c207468617420697320353030303030207760648201526d697468203820646563696d616c7360901b608482015260a401610b4d565b64174876e80081111561337e5760405162461bcd60e51b815260206004820152605560248201527f5072696365206f66204859415820746f6b656e206d757374206265206174206d60448201527f6178696d756d2055534420313030302c2074686174206973203130303030303060648201527430303030302077697468203820646563696d616c7360581b608482015260a401610b4d565b60388190556040518181527f4f6f7bbbb2b0dde2246ee6650672d1b55a5be5b52f8dd2e8d595f4bd47e1c91390602001610d15565b6133bb613b6d565b6001600160a01b0381166133e15760405162461bcd60e51b8152600401610b4d906145b5565b6048546001600160a01b03908116908216036134535760405162461bcd60e51b815260206004820152603a60248201527f5742544320746f6b656e20616464726573732068617320616c72656164792062604482015260008051602061489f8339815191526064820152608401610b4d565b604880546001600160a01b0383166001600160a01b03199182168117909255604b805490911690911790556040517f95082f719648371f180ca4f9bad55a2ae7c2d029bbf93e360584ca6ea06327ea90610d15908390614049565b60425460408051633fabe5a360e21b815290516000926001600160a01b03169163feaf968c9160048083019260a09291908290030181865afa925050508015613514575060408051601f3d908101601f1916820190925261351191810190614242565b60015b610e925760405162461bcd60e51b815260206004820152603b60248201526000805160206148bf83398151915260448201527f20555344432070726963652066726f6d20746865206f7261636c6500000000006064820152608401610b4d565b61357c613b6d565b6001600160a01b0381166135a25760405162461bcd60e51b8152600401610b4d90614292565b603e546001600160a01b0390811690821603613628576040805162461bcd60e51b81526020600482015260248101919091527f4d41544943207072696365206665656420616464726573732068617320616c7260448201527f65616479206265656e206d6f64696669656420746f20746861742076616c75656064820152608401610b4d565b6000819050806001600160a01b0316637284e4166040518163ffffffff1660e01b8152600401600060405180830381865afa92505050801561368c57506040513d6000823e601f3d908101601f1916820160405261368991908101906142ff565b60015b6136a85760405162461bcd60e51b8152600401610b4d906147d2565b6040516a1350551250c80bc81554d160aa1b6020820152600090602b016040516020818303038152906040528051906020012090506000826040516020016136f09190614401565b6040516020818303038152906040528051906020012090508082146137275760405162461bcd60e51b8152600401610b4d906147d2565b505050603e80546001600160a01b0384166001600160a01b03199182168117909255603f805490911690911790556040517fee9bc8d900b5d69f934ec4a3986b3bfda61add54821456c3f7e943e87cf48f529061109b908490614049565b6001600160a01b03918216600090815260016020908152604080832093909416825291909152205490565b6137b8613b6d565b6001600160a01b0381166137de5760405162461bcd60e51b8152600401610b4d90614292565b6049546001600160a01b03908116908216036138505760405162461bcd60e51b815260206004820152603f60248201527f57425443207072696365206665656420616464726573732068617320616c726560448201526000805160206148ff8339815191526064820152608401610b4d565b6000819050806001600160a01b0316637284e4166040518163ffffffff1660e01b8152600401600060405180830381865afa9250505080156138b457506040513d6000823e601f3d908101601f191682016040526138b191908101906142ff565b60015b6138d05760405162461bcd60e51b8152600401610b4d90614828565b6040516915d09510c80bc81554d160b21b6020820152600090602a016040516020818303038152906040528051906020012090506000826040516020016139179190614401565b60405160208183030381529060405280519060200120905080821461394e5760405162461bcd60e51b8152600401610b4d90614828565b505050604980546001600160a01b0384166001600160a01b03199182168117909255604a805490911690911790556040517f2171c3cfa3d86551d618c9da7164a608dd795715bf61402d9ccb45cf5433a0769061109b908490614049565b6139b4613b6d565b6001600160a01b038116613a195760405162461bcd60e51b815260206004820152602660248201527f4f776e61626c653a206e6577206f776e657220697320746865207a65726f206160448201526564647265737360d01b6064820152608401610b4d565b306001600160a01b03821603613a915760405162461bcd60e51b815260206004820152603760248201527f4f776e61626c653a206e6577206f776e65722063616e206e6f74206265207468604482015276652073616d6520636f6e7472616374206164647265737360481b6064820152608401610b4d565b6112b881613cd7565b604a5460408051633fabe5a360e21b815290516000926001600160a01b03169163feaf968c9160048083019260a09291908290030181865afa925050508015613b00575060408051601f3d908101601f19168201909252613afd91810190614242565b60015b610e925760405162461bcd60e51b815260206004820152603b60248201526000805160206148bf83398151915260448201527f20574254432070726963652066726f6d20746865206f7261636c6500000000006064820152608401610b4d565b6128cd8383836001613d6e565b33613b76612d7a565b6001600160a01b03161461198e573360405163118cdaa760e01b8152600401610b4d9190614049565b6001600160a01b038216613bc957600060405163ec442f0560e01b8152600401610b4d9190614049565b613bd560008383613e43565b5050565b6000613be58484613785565b90506000198114613c265781811015613c1757828183604051637dc7a0d960e11b8152600401610b4d9392919061487d565b613c2684848484036000613d6e565b50505050565b6001600160a01b038316613c56576000604051634b637e8f60e11b8152600401610b4d9190614049565b6001600160a01b038216613c8057600060405163ec442f0560e01b8152600401610b4d9190614049565b6128cd838383613e43565b613c93613e56565b6005805460ff191690557f5db9ee0a495bf2e6ff9c91a7834c1ba4fdd244a5e8aa4e537bd38aeae4b073aa335b604051613ccd9190614049565b60405180910390a1565b600580546001600160a01b03838116610100818102610100600160a81b031985161790945560405193909204169182907f8be0079c531659141344cd1fd0a4f28419497f9722a3daafe3b4186f6b6457e090600090a35050565b613d39613e79565b6005805460ff191660011790557f62e78cea01bee320cd4e420270b5ea74000d11b0c9f74754ebdbfc544b05a258613cc03390565b6001600160a01b038416613d9857600060405163e602df0560e01b8152600401610b4d9190614049565b6001600160a01b038316613dc2576000604051634a1406b160e11b8152600401610b4d9190614049565b6001600160a01b0380851660009081526001602090815260408083209387168352929052208290558015613c2657826001600160a01b0316846001600160a01b03167f8c5be1e5ebec7d5bd14f71427d1e84f3dd0314c0f7b2291e5b200ac8c7c3b92584604051613e3591815260200190565b60405180910390a350505050565b613e4b613e79565b6128cd838383613e9d565b60055460ff1661198e57604051638dfc202b60e01b815260040160405180910390fd5b60055460ff161561198e5760405163d93c066560e01b815260040160405180910390fd5b6001600160a01b038316613ec8578060026000828254613ebd919061453d565b90915550613f279050565b6001600160a01b03831660009081526020819052604090205481811015613f085783818360405163391434e360e21b8152600401610b4d9392919061487d565b6001600160a01b03841660009081526020819052604090209082900390555b6001600160a01b038216613f4357600280548290039055613f62565b6001600160a01b03821660009081526020819052604090208054820190555b816001600160a01b0316836001600160a01b03167fddf252ad1be2c89b69c2b068fc378daa952ba7f163c4a11628f55a4df523b3ef83604051613fa791815260200190565b60405180910390a3505050565b80356001600160a01b0381168114613fcb57600080fd5b919050565b600060208284031215613fe257600080fd5b613feb82613fb4565b9392505050565b60005b8381101561400d578181015183820152602001613ff5565b50506000910152565b6020815260008251806020840152614035816040850160208701613ff2565b601f01601f19169190910160400192915050565b6001600160a01b0391909116815260200190565b6000806040838503121561407057600080fd5b61407983613fb4565b946020939093013593505050565b60006020828403121561409957600080fd5b5035919050565b6000806000606084860312156140b557600080fd5b6140be84613fb4565b92506140cc60208501613fb4565b9150604084013590509250925092565b600080604083850312156140ef57600080fd5b82356005811061407957600080fd5b6000806040838503121561411157600080fd5b8235915061412160208401613fb4565b90509250929050565b6000806040838503121561413d57600080fd5b50508035926020909101359150565b6000806040838503121561415f57600080fd5b61416883613fb4565b915061412160208401613fb4565b602080825260409082018190527f46756e6374696f6e207265736572766564206f6e6c7920666f72207468652077908201527f68697465206c69737465722061646472657373206f7220746865206f776e6572606082015260800190565b6001600160a01b0392831681529116602082015260400190565b600181811c9082168061420257607f821691505b60208210810361422257634e487b7160e01b600052602260045260246000fd5b50919050565b805169ffffffffffffffffffff81168114613fcb57600080fd5b600080600080600060a0868803121561425a57600080fd5b61426386614228565b945060208601519350604086015192506060860151915061428660808701614228565b90509295509295909350565b60208082526037908201527f5468652070726963652064617461206665656420616464726573732063616e206040820152766e6f7420626520746865207a65726f206164647265737360481b606082015260800190565b634e487b7160e01b600052604160045260246000fd5b60006020828403121561431157600080fd5b815167ffffffffffffffff8082111561432957600080fd5b818401915084601f83011261433d57600080fd5b81518181111561434f5761434f6142e9565b604051601f8201601f19908116603f01168101908382118183101715614377576143776142e9565b8160405282815287602084870101111561439057600080fd5b6143a1836020830160208801613ff2565b979650505050505050565b60208082526041908201526000805160206148df83398151915260408201527f2062656c6f6e6720746f206120555344432070726963652064617461206665656060820152601960fa1b608082015260a00190565b60008251614413818460208701613ff2565b9190910192915050565b634e487b7160e01b600052601160045260246000fd5b600181815b8085111561446e5781600019048211156144545761445461441d565b8085161561446157918102915b93841c9390800290614438565b509250929050565b60008261448557506001610dc6565b8161449257506000610dc6565b81600181146144a857600281146144b2576144ce565b6001915050610dc6565b60ff8411156144c3576144c361441d565b50506001821b610dc6565b5060208310610133831016604e8410600b84101617156144f1575081810a610dc6565b6144fb8383614433565b806000190482111561450f5761450f61441d565b029392505050565b6000613feb60ff841683614476565b8082028115828204841417610dc657610dc661441d565b80820180821115610dc657610dc661441d565b6001600160a01b03929092168252602082015260400190565b602080825260409082018190526000805160206148df833981519152908201527f2062656c6f6e6720746f20612045544820707269636520646174612066656564606082015260800190565b6020808252602d908201527f54686520746f6b656e20616464726573732063616e206e6f742062652074686560408201526c207a65726f206164647265737360981b606082015260800190565b60208082526035908201527f496e766573746f72206164647265737320686173206e6f74206265656e206164604082015274191959081d1bc81d1a19481dda1a5d19481b1a5cdd605a1b606082015260800190565b60006020828403121561466957600080fd5b81518015158114613feb57600080fd5b60208082526041908201527f54686572652077617320616e206572726f72206f6e2073656e64696e6720626160408201527f636b20746865204859415820546f6b656e20746f2074686520696e766573746f6060820152603960f91b608082015260a00190565b634e487b7160e01b600052602160045260246000fd5b60006020828403121561470857600080fd5b5051919050565b60a081016005871061473157634e487b7160e01b600052602160045260246000fd5b9581526001600160a01b039490941660208501526040840192909252606083015260809091015290565b60208082526041908201526000805160206148df83398151915260408201527f2062656c6f6e6720746f206120555344542070726963652064617461206665656060820152601960fa1b608082015260a00190565b6000826147cd57634e487b7160e01b600052601260045260246000fd5b500490565b60208082526042908201526000805160206148df83398151915260408201527f2062656c6f6e6720746f2061204d415449432070726963652064617461206665606082015261195960f21b608082015260a00190565b60208082526041908201526000805160206148df83398151915260408201527f2062656c6f6e6720746f206120574254432070726963652064617461206665656060820152601960fa1b608082015260a00190565b6001600160a01b03939093168352602083019190915260408201526060019056fe65656e206d6f64696669656420746f20746861742076616c756500000000000054686572652077617320616e206572726f72206f627461696e696e6720746865546865206e6577206164647265737320646f6573206e6f74207365656d20746f616479206265656e206d6f64696669656420746f20746861742076616c756500a2646970667358221220ef645e830bb7eaac5563b781a0202aa9512a9f445b9bc203e4192ad80a952e3a64736f6c63430008140033","opcodes":"PUSH1 0x80 PUSH1 0x40 MSTORE CALLVALUE DUP1 ISZERO PUSH3 0x11 JUMPI PUSH1 0x0 DUP1 REVERT JUMPDEST POP CALLER PUSH1 0x40 MLOAD DUP1 PUSH1 0x40 ADD PUSH1 0x40 MSTORE DUP1 PUSH1 0x9 DUP2 MSTORE PUSH1 0x20 ADD PUSH9 0x242CA0AC2A37B5B2B7 PUSH1 0xB9 SHL DUP2 MSTORE POP PUSH1 0x40 MLOAD DUP1 PUSH1 0x40 ADD PUSH1 0x40 MSTORE DUP1 PUSH1 0x4 DUP2 MSTORE PUSH1 0x20 ADD PUSH4 0x90B282B PUSH1 0xE3 SHL DUP2 MSTORE POP DUP2 PUSH1 0x3 SWAP1 DUP2 PUSH3 0x63 SWAP2 SWAP1 PUSH3 0x5B1 JUMP JUMPDEST POP PUSH1 0x4 PUSH3 0x72 DUP3 DUP3 PUSH3 0x5B1 JUMP JUMPDEST POP POP PUSH1 0x5 DUP1 SLOAD PUSH1 0xFF NOT AND SWAP1 SSTORE POP PUSH1 0x1 PUSH1 0x1 PUSH1 0xA0 SHL SUB DUP2 AND PUSH3 0xAF JUMPI PUSH1 0x40 MLOAD PUSH4 0x1E4FBDF7 PUSH1 0xE0 SHL DUP2 MSTORE PUSH1 0x0 PUSH1 0x4 DUP3 ADD MSTORE PUSH1 0x24 ADD JUMPDEST PUSH1 0x40 MLOAD DUP1 SWAP2 SUB SWAP1 REVERT JUMPDEST PUSH3 0xBA DUP2 PUSH3 0x2FF JUMP JUMPDEST POP PUSH3 0xE4 CALLER PUSH3 0xCE PUSH1 0x12 PUSH1 0xA PUSH3 0x792 JUMP JUMPDEST PUSH3 0xDE SWAP1 PUSH4 0x1DCD6500 PUSH3 0x7AA JUMP JUMPDEST PUSH3 0x359 JUMP JUMPDEST PUSH3 0x927C0 PUSH1 0x38 SSTORE PUSH3 0xF9 PUSH1 0x12 PUSH1 0xA PUSH3 0x792 JUMP JUMPDEST PUSH3 0x106 SWAP1 PUSH1 0x1 PUSH3 0x7AA JUMP JUMPDEST PUSH1 0x39 SSTORE PUSH3 0x117 PUSH1 0x12 PUSH1 0xA PUSH3 0x792 JUMP JUMPDEST PUSH3 0x125 SWAP1 PUSH2 0x2710 PUSH3 0x7AA JUMP JUMPDEST PUSH1 0x3A SSTORE PUSH1 0x3B DUP1 SLOAD PUSH1 0x1 PUSH1 0x1 PUSH1 0xA0 SHL SUB NOT SWAP1 DUP2 AND PUSH20 0x1C2F012DE19E6436744C3F81F56E9E70C93A8C3 OR SWAP1 SWAP2 SSTORE PUSH1 0x3C DUP1 SLOAD DUP3 AND PUSH20 0x350441F8A82680A785FFA9D3EFEA60BB4CA417F8 OR SWAP1 SSTORE PUSH1 0x3E DUP1 SLOAD DUP3 AND PUSH19 0x1382149EBA3441043C1C66972B4772963F5D43 SWAP1 DUP2 OR SWAP1 SWAP2 SSTORE PUSH1 0x3F DUP1 SLOAD DUP4 AND SWAP1 SWAP2 OR SWAP1 SSTORE PUSH1 0x40 DUP1 SLOAD DUP3 AND PUSH20 0xF68054BFE5D45432FFCA28FFA1F3D685D0456DDC SWAP1 DUP2 OR SWAP1 SWAP2 SSTORE PUSH1 0x41 DUP1 SLOAD DUP4 AND PUSH20 0x1B8739BB4CDF0089D07097A9AE5BD274B29C6F16 SWAP1 DUP2 OR SWAP1 SWAP2 SSTORE PUSH1 0x42 DUP1 SLOAD DUP5 AND SWAP1 SWAP2 OR SWAP1 SSTORE PUSH1 0x43 DUP1 SLOAD DUP4 AND SWAP1 SWAP2 OR SWAP1 SSTORE PUSH1 0x44 DUP1 SLOAD DUP3 AND PUSH20 0x70E02FB82B6BC04F64099689B0599E14B44D4FBB SWAP1 DUP2 OR SWAP1 SWAP2 SSTORE PUSH1 0x45 DUP1 SLOAD DUP4 AND PUSH20 0x3AC23DCB4ECFCBD24579E1F34542524D0E4EDEA8 SWAP1 DUP2 OR SWAP1 SWAP2 SSTORE PUSH1 0x46 DUP1 SLOAD DUP5 AND SWAP1 SWAP2 OR SWAP1 SSTORE PUSH1 0x47 DUP1 SLOAD DUP4 AND SWAP1 SWAP2 OR SWAP1 SSTORE PUSH1 0x48 DUP1 SLOAD DUP3 AND PUSH20 0x3C8DF3C48B3884DA2FF25E17524282D60F9C3B93 SWAP1 DUP2 OR SWAP1 SWAP2 SSTORE PUSH1 0x49 DUP1 SLOAD DUP4 AND PUSH20 0xE7656E23FE8077D438AEFBEC2FABDF2D8E070C4F SWAP1 DUP2 OR SWAP1 SWAP2 SSTORE PUSH1 0x4A DUP1 SLOAD DUP5 AND SWAP1 SWAP2 OR SWAP1 SSTORE PUSH1 0x4B DUP1 SLOAD DUP4 AND SWAP1 SWAP2 OR SWAP1 SSTORE PUSH1 0x4C DUP1 SLOAD DUP3 AND PUSH20 0x524A89ED77D5827320E35E12BCA96830C6B7960A SWAP1 DUP2 OR SWAP1 SWAP2 SSTORE PUSH1 0x4D DUP1 SLOAD DUP4 AND PUSH20 0xF0D50568E3A7E8259E16663972B11910F89BD8E7 SWAP1 DUP2 OR SWAP1 SWAP2 SSTORE PUSH1 0x4E DUP1 SLOAD DUP5 AND SWAP1 SWAP2 OR SWAP1 SSTORE PUSH1 0x4F DUP1 SLOAD SWAP1 SWAP3 AND OR SWAP1 SSTORE PUSH3 0x7DA JUMP JUMPDEST PUSH1 0x5 DUP1 SLOAD PUSH1 0x1 PUSH1 0x1 PUSH1 0xA0 SHL SUB DUP4 DUP2 AND PUSH2 0x100 DUP2 DUP2 MUL PUSH2 0x100 PUSH1 0x1 PUSH1 0xA8 SHL SUB NOT DUP6 AND OR SWAP1 SWAP5 SSTORE PUSH1 0x40 MLOAD SWAP4 SWAP1 SWAP3 DIV AND SWAP2 DUP3 SWAP1 PUSH32 0x8BE0079C531659141344CD1FD0A4F28419497F9722A3DAAFE3B4186F6B6457E0 SWAP1 PUSH1 0x0 SWAP1 LOG3 POP POP JUMP JUMPDEST PUSH1 0x1 PUSH1 0x1 PUSH1 0xA0 SHL SUB DUP3 AND PUSH3 0x385 JUMPI PUSH1 0x40 MLOAD PUSH4 0xEC442F05 PUSH1 0xE0 SHL DUP2 MSTORE PUSH1 0x0 PUSH1 0x4 DUP3 ADD MSTORE PUSH1 0x24 ADD PUSH3 0xA6 JUMP JUMPDEST PUSH3 0x393 PUSH1 0x0 DUP4 DUP4 PUSH3 0x397 JUMP JUMPDEST POP POP JUMP JUMPDEST PUSH3 0x3A1 PUSH3 0x3B3 JUMP JUMPDEST PUSH3 0x3AE DUP4 DUP4 DUP4 PUSH3 0x3DA JUMP JUMPDEST POP POP POP JUMP JUMPDEST PUSH1 0x5 SLOAD PUSH1 0xFF AND ISZERO PUSH3 0x3D8 JUMPI PUSH1 0x40 MLOAD PUSH4 0xD93C0665 PUSH1 0xE0 SHL DUP2 MSTORE PUSH1 0x4 ADD PUSH1 0x40 MLOAD DUP1 SWAP2 SUB SWAP1 REVERT JUMPDEST JUMP JUMPDEST PUSH1 0x1 PUSH1 0x1 PUSH1 0xA0 SHL SUB DUP4 AND PUSH3 0x409 JUMPI DUP1 PUSH1 0x2 PUSH1 0x0 DUP3 DUP3 SLOAD PUSH3 0x3FD SWAP2 SWAP1 PUSH3 0x7C4 JUMP JUMPDEST SWAP1 SWAP2 SSTORE POP PUSH3 0x47D SWAP1 POP JUMP JUMPDEST PUSH1 0x1 PUSH1 0x1 PUSH1 0xA0 SHL SUB DUP4 AND PUSH1 0x0 SWAP1 DUP2 MSTORE PUSH1 0x20 DUP2 SWAP1 MSTORE PUSH1 0x40 SWAP1 KECCAK256 SLOAD DUP2 DUP2 LT ISZERO PUSH3 0x45E JUMPI PUSH1 0x40 MLOAD PUSH4 0x391434E3 PUSH1 0xE2 SHL DUP2 MSTORE PUSH1 0x1 PUSH1 0x1 PUSH1 0xA0 SHL SUB DUP6 AND PUSH1 0x4 DUP3 ADD MSTORE PUSH1 0x24 DUP2 ADD DUP3 SWAP1 MSTORE PUSH1 0x44 DUP2 ADD DUP4 SWAP1 MSTORE PUSH1 0x64 ADD PUSH3 0xA6 JUMP JUMPDEST PUSH1 0x1 PUSH1 0x1 PUSH1 0xA0 SHL SUB DUP5 AND PUSH1 0x0 SWAP1 DUP2 MSTORE PUSH1 0x20 DUP2 SWAP1 MSTORE PUSH1 0x40 SWAP1 KECCAK256 SWAP1 DUP3 SWAP1 SUB SWAP1 SSTORE JUMPDEST PUSH1 0x1 PUSH1 0x1 PUSH1 0xA0 SHL SUB DUP3 AND PUSH3 0x49B JUMPI PUSH1 0x2 DUP1 SLOAD DUP3 SWAP1 SUB SWAP1 SSTORE PUSH3 0x4BA JUMP JUMPDEST PUSH1 0x1 PUSH1 0x1 PUSH1 0xA0 SHL SUB DUP3 AND PUSH1 0x0 SWAP1 DUP2 MSTORE PUSH1 0x20 DUP2 SWAP1 MSTORE PUSH1 0x40 SWAP1 KECCAK256 DUP1 SLOAD DUP3 ADD SWAP1 SSTORE JUMPDEST DUP2 PUSH1 0x1 PUSH1 0x1 PUSH1 0xA0 SHL SUB AND DUP4 PUSH1 0x1 PUSH1 0x1 PUSH1 0xA0 SHL SUB AND PUSH32 0xDDF252AD1BE2C89B69C2B068FC378DAA952BA7F163C4A11628F55A4DF523B3EF DUP4 PUSH1 0x40 MLOAD PUSH3 0x500 SWAP2 DUP2 MSTORE PUSH1 0x20 ADD SWAP1 JUMP JUMPDEST PUSH1 0x40 MLOAD DUP1 SWAP2 SUB SWAP1 LOG3 POP POP POP JUMP JUMPDEST PUSH4 0x4E487B71 PUSH1 0xE0 SHL PUSH1 0x0 MSTORE PUSH1 0x41 PUSH1 0x4 MSTORE PUSH1 0x24 PUSH1 0x0 REVERT JUMPDEST PUSH1 0x1 DUP2 DUP2 SHR SWAP1 DUP3 AND DUP1 PUSH3 0x538 JUMPI PUSH1 0x7F DUP3 AND SWAP2 POP JUMPDEST PUSH1 0x20 DUP3 LT DUP2 SUB PUSH3 0x559 JUMPI PUSH4 0x4E487B71 PUSH1 0xE0 SHL PUSH1 0x0 MSTORE PUSH1 0x22 PUSH1 0x4 MSTORE PUSH1 0x24 PUSH1 0x0 REVERT JUMPDEST POP SWAP2 SWAP1 POP JUMP JUMPDEST PUSH1 0x1F DUP3 GT ISZERO PUSH3 0x3AE JUMPI PUSH1 0x0 DUP2 DUP2 MSTORE PUSH1 0x20 DUP2 KECCAK256 PUSH1 0x1F DUP6 ADD PUSH1 0x5 SHR DUP2 ADD PUSH1 0x20 DUP7 LT ISZERO PUSH3 0x588 JUMPI POP DUP1 JUMPDEST PUSH1 0x1F DUP6 ADD PUSH1 0x5 SHR DUP3 ADD SWAP2 POP JUMPDEST DUP2 DUP2 LT ISZERO PUSH3 0x5A9 JUMPI DUP3 DUP2 SSTORE PUSH1 0x1 ADD PUSH3 0x594 JUMP JUMPDEST POP POP POP POP POP POP JUMP JUMPDEST DUP2 MLOAD PUSH1 0x1 PUSH1 0x1 PUSH1 0x40 SHL SUB DUP2 GT ISZERO PUSH3 0x5CD JUMPI PUSH3 0x5CD PUSH3 0x50D JUMP JUMPDEST PUSH3 0x5E5 DUP2 PUSH3 0x5DE DUP5 SLOAD PUSH3 0x523 JUMP JUMPDEST DUP5 PUSH3 0x55F JUMP JUMPDEST PUSH1 0x20 DUP1 PUSH1 0x1F DUP4 GT PUSH1 0x1 DUP2 EQ PUSH3 0x61D JUMPI PUSH1 0x0 DUP5 ISZERO PUSH3 0x604 JUMPI POP DUP6 DUP4 ADD MLOAD JUMPDEST PUSH1 0x0 NOT PUSH1 0x3 DUP7 SWAP1 SHL SHR NOT AND PUSH1 0x1 DUP6 SWAP1 SHL OR DUP6 SSTORE PUSH3 0x5A9 JUMP JUMPDEST PUSH1 0x0 DUP6 DUP2 MSTORE PUSH1 0x20 DUP2 KECCAK256 PUSH1 0x1F NOT DUP7 AND SWAP2 JUMPDEST DUP3 DUP2 LT ISZERO PUSH3 0x64E JUMPI DUP9 DUP7 ADD MLOAD DUP3 SSTORE SWAP5 DUP5 ADD SWAP5 PUSH1 0x1 SWAP1 SWAP2 ADD SWAP1 DUP5 ADD PUSH3 0x62D JUMP JUMPDEST POP DUP6 DUP3 LT ISZERO PUSH3 0x66D JUMPI DUP8 DUP6 ADD MLOAD PUSH1 0x0 NOT PUSH1 0x3 DUP9 SWAP1 SHL PUSH1 0xF8 AND SHR NOT AND DUP2 SSTORE JUMPDEST POP POP POP POP POP PUSH1 0x1 SWAP1 DUP2 SHL ADD SWAP1 SSTORE POP JUMP JUMPDEST PUSH4 0x4E487B71 PUSH1 0xE0 SHL PUSH1 0x0 MSTORE PUSH1 0x11 PUSH1 0x4 MSTORE PUSH1 0x24 PUSH1 0x0 REVERT JUMPDEST PUSH1 0x1 DUP2 DUP2 JUMPDEST DUP1 DUP6 GT ISZERO PUSH3 0x6D4 JUMPI DUP2 PUSH1 0x0 NOT DIV DUP3 GT ISZERO PUSH3 0x6B8 JUMPI PUSH3 0x6B8 PUSH3 0x67D JUMP JUMPDEST DUP1 DUP6 AND ISZERO PUSH3 0x6C6 JUMPI SWAP2 DUP2 MUL SWAP2 JUMPDEST SWAP4 DUP5 SHR SWAP4 SWAP1 DUP1 MUL SWAP1 PUSH3 0x698 JUMP JUMPDEST POP SWAP3 POP SWAP3 SWAP1 POP JUMP JUMPDEST PUSH1 0x0 DUP3 PUSH3 0x6ED JUMPI POP PUSH1 0x1 PUSH3 0x78C JUMP JUMPDEST DUP2 PUSH3 0x6FC JUMPI POP PUSH1 0x0 PUSH3 0x78C JUMP JUMPDEST DUP2 PUSH1 0x1 DUP2 EQ PUSH3 0x715 JUMPI PUSH1 0x2 DUP2 EQ PUSH3 0x720 JUMPI PUSH3 0x740 JUMP JUMPDEST PUSH1 0x1 SWAP2 POP POP PUSH3 0x78C JUMP JUMPDEST PUSH1 0xFF DUP5 GT ISZERO PUSH3 0x734 JUMPI PUSH3 0x734 PUSH3 0x67D JUMP JUMPDEST POP POP PUSH1 0x1 DUP3 SHL PUSH3 0x78C JUMP JUMPDEST POP PUSH1 0x20 DUP4 LT PUSH2 0x133 DUP4 LT AND PUSH1 0x4E DUP5 LT PUSH1 0xB DUP5 LT AND OR ISZERO PUSH3 0x765 JUMPI POP DUP2 DUP2 EXP PUSH3 0x78C JUMP JUMPDEST PUSH3 0x771 DUP4 DUP4 PUSH3 0x693 JUMP JUMPDEST DUP1 PUSH1 0x0 NOT DIV DUP3 GT ISZERO PUSH3 0x788 JUMPI PUSH3 0x788 PUSH3 0x67D JUMP JUMPDEST MUL SWAP1 POP JUMPDEST SWAP3 SWAP2 POP POP JUMP JUMPDEST PUSH1 0x0 PUSH3 0x7A3 PUSH1 0xFF DUP5 AND DUP4 PUSH3 0x6DC JUMP JUMPDEST SWAP4 SWAP3 POP POP POP JUMP JUMPDEST DUP1 DUP3 MUL DUP2 ISZERO DUP3 DUP3 DIV DUP5 EQ OR PUSH3 0x78C JUMPI PUSH3 0x78C PUSH3 0x67D JUMP JUMPDEST DUP1 DUP3 ADD DUP1 DUP3 GT ISZERO PUSH3 0x78C JUMPI PUSH3 0x78C PUSH3 0x67D JUMP JUMPDEST PUSH2 0x4954 DUP1 PUSH3 0x7EA PUSH1 0x0 CODECOPY PUSH1 0x0 RETURN INVALID PUSH1 0x80 PUSH1 0x40 MSTORE PUSH1 0x4 CALLDATASIZE LT PUSH2 0x331 JUMPI PUSH1 0x0 CALLDATALOAD PUSH1 0xE0 SHR DUP1 PUSH4 0x65699D28 GT PUSH2 0x1A7 JUMPI DUP1 PUSH4 0x9D741E5D GT PUSH2 0xED JUMPI DUP1 PUSH4 0xDD0B49ED GT PUSH2 0x90 JUMPI DUP1 PUSH4 0xDD0B49ED EQ PUSH2 0x9C0 JUMPI DUP1 PUSH4 0xDD62ED3E EQ PUSH2 0x9E0 JUMPI DUP1 PUSH4 0xDE1F5346 EQ PUSH2 0xA00 JUMPI DUP1 PUSH4 0xE0EC6087 EQ PUSH2 0xA6A JUMPI DUP1 PUSH4 0xF2FDE38B EQ PUSH2 0xA8A JUMPI DUP1 PUSH4 0xF7A47F81 EQ PUSH2 0xAAA JUMPI DUP1 PUSH4 0xFB2DC76E EQ PUSH2 0xACA JUMPI DUP1 PUSH4 0xFC77056F EQ PUSH2 0xAEA JUMPI PUSH1 0x0 DUP1 REVERT JUMPDEST DUP1 PUSH4 0x9D741E5D EQ PUSH2 0x8CB JUMPI DUP1 PUSH4 0xA9059CBB EQ PUSH2 0x8EB JUMPI DUP1 PUSH4 0xA98AD46C EQ PUSH2 0x90B JUMPI DUP1 PUSH4 0xB2C568F3 EQ PUSH2 0x92B JUMPI DUP1 PUSH4 0xB40ED449 EQ PUSH2 0x94B JUMPI DUP1 PUSH4 0xBBDD2A54 EQ PUSH2 0x96B JUMPI DUP1 PUSH4 0xC5F956AF EQ PUSH2 0x98B JUMPI DUP1 PUSH4 0xD39F4561 EQ PUSH2 0x9AB JUMPI PUSH1 0x0 DUP1 REVERT JUMPDEST DUP1 PUSH4 0x8116DE2B GT PUSH2 0x155 JUMPI DUP1 PUSH4 0x8116DE2B EQ PUSH2 0x7D7 JUMPI DUP1 PUSH4 0x81EB121A EQ PUSH2 0x7F7 JUMPI DUP1 PUSH4 0x841E4561 EQ PUSH2 0x817 JUMPI DUP1 PUSH4 0x8456CB59 EQ PUSH2 0x837 JUMPI DUP1 PUSH4 0x8C945E63 EQ PUSH2 0x84C JUMPI DUP1 PUSH4 0x8DA5CB5B EQ PUSH2 0x881 JUMPI DUP1 PUSH4 0x8F7C7167 EQ PUSH2 0x896 JUMPI DUP1 PUSH4 0x95D89B41 EQ PUSH2 0x8B6 JUMPI PUSH1 0x0 DUP1 REVERT JUMPDEST DUP1 PUSH4 0x65699D28 EQ PUSH2 0x6F6 JUMPI DUP1 PUSH4 0x70A08231 EQ PUSH2 0x716 JUMPI DUP1 PUSH4 0x715018A6 EQ PUSH2 0x74C JUMPI DUP1 PUSH4 0x731DE514 EQ PUSH2 0x761 JUMPI DUP1 PUSH4 0x77B53ECE EQ PUSH2 0x781 JUMPI DUP1 PUSH4 0x7CE5643A EQ PUSH2 0x7A1 JUMPI DUP1 PUSH4 0x8049BCB6 EQ PUSH2 0x7C1 JUMPI PUSH1 0x0 DUP1 REVERT JUMPDEST DUP1 PUSH4 0x2EB93086 GT PUSH2 0x277 JUMPI DUP1 PUSH4 0x49DD3E88 GT PUSH2 0x21A JUMPI DUP1 PUSH4 0x49DD3E88 EQ PUSH2 0x5FE JUMPI DUP1 PUSH4 0x4B57B0BE EQ PUSH2 0x61E JUMPI DUP1 PUSH4 0x4C526BDB EQ PUSH2 0x63E JUMPI DUP1 PUSH4 0x4C97CF7C EQ PUSH2 0x65E JUMPI DUP1 PUSH4 0x5AE9384E EQ PUSH2 0x67E JUMPI DUP1 PUSH4 0x5C975ABB EQ PUSH2 0x69E JUMPI DUP1 PUSH4 0x5EC2562A EQ PUSH2 0x6B6 JUMPI DUP1 PUSH4 0x653C3A47 EQ PUSH2 0x6D6 JUMPI PUSH1 0x0 DUP1 REVERT JUMPDEST DUP1 PUSH4 0x2EB93086 EQ PUSH2 0x545 JUMPI DUP1 PUSH4 0x313CE567 EQ PUSH2 0x55A JUMPI DUP1 PUSH4 0x377C779F EQ PUSH2 0x576 JUMPI DUP1 PUSH4 0x3B14F359 EQ PUSH2 0x58C JUMPI DUP1 PUSH4 0x3EBDA614 EQ PUSH2 0x594 JUMPI DUP1 PUSH4 0x3F4BA83A EQ PUSH2 0x5A9 JUMPI DUP1 PUSH4 0x40B5EA9C EQ PUSH2 0x5BE JUMPI DUP1 PUSH4 0x47EE0394 EQ PUSH2 0x5DE JUMPI PUSH1 0x0 DUP1 REVERT JUMPDEST DUP1 PUSH4 0x11EAC855 GT PUSH2 0x2DF JUMPI DUP1 PUSH4 0x11EAC855 EQ PUSH2 0x45A JUMPI DUP1 PUSH4 0x128EF022 EQ PUSH2 0x47A JUMPI DUP1 PUSH4 0x18160DDD EQ PUSH2 0x49A JUMPI DUP1 PUSH4 0x1B1741E0 EQ PUSH2 0x4AF JUMPI DUP1 PUSH4 0x1E534BE6 EQ PUSH2 0x4CF JUMPI DUP1 PUSH4 0x23B872DD EQ PUSH2 0x4EF JUMPI DUP1 PUSH4 0x27614DF8 EQ PUSH2 0x50F JUMPI DUP1 PUSH4 0x2A241AD3 EQ PUSH2 0x52F JUMPI PUSH1 0x0 DUP1 REVERT JUMPDEST DUP1 PUSH4 0x1BF6648 EQ PUSH2 0x34F JUMPI DUP1 PUSH4 0x6FDDE03 EQ PUSH2 0x36F JUMPI DUP1 PUSH4 0x8CD468F EQ PUSH2 0x39A JUMPI DUP1 PUSH4 0x95EA7B3 EQ PUSH2 0x3C7 JUMPI DUP1 PUSH4 0xAEEE261 EQ PUSH2 0x3F7 JUMPI DUP1 PUSH4 0xF3D57E2 EQ PUSH2 0x41A JUMPI DUP1 PUSH4 0xF9DAD71 EQ PUSH2 0x43A JUMPI PUSH1 0x0 DUP1 REVERT JUMPDEST CALLDATASIZE PUSH2 0x34A JUMPI PUSH2 0x33E PUSH2 0xAFF JUMP JUMPDEST PUSH2 0x348 PUSH1 0x1 PUSH1 0x6 SSTORE JUMP JUMPDEST STOP JUMPDEST PUSH1 0x0 DUP1 REVERT JUMPDEST CALLVALUE DUP1 ISZERO PUSH2 0x35B JUMPI PUSH1 0x0 DUP1 REVERT JUMPDEST POP PUSH2 0x348 PUSH2 0x36A CALLDATASIZE PUSH1 0x4 PUSH2 0x3FD0 JUMP JUMPDEST PUSH2 0xB5D JUMP JUMPDEST CALLVALUE DUP1 ISZERO PUSH2 0x37B JUMPI PUSH1 0x0 DUP1 REVERT JUMPDEST POP PUSH2 0x384 PUSH2 0xD20 JUMP JUMPDEST PUSH1 0x40 MLOAD PUSH2 0x391 SWAP2 SWAP1 PUSH2 0x4016 JUMP JUMPDEST PUSH1 0x40 MLOAD DUP1 SWAP2 SUB SWAP1 RETURN JUMPDEST CALLVALUE DUP1 ISZERO PUSH2 0x3A6 JUMPI PUSH1 0x0 DUP1 REVERT JUMPDEST POP PUSH1 0x45 SLOAD PUSH2 0x3BA SWAP1 PUSH1 0x1 PUSH1 0x1 PUSH1 0xA0 SHL SUB AND DUP2 JUMP JUMPDEST PUSH1 0x40 MLOAD PUSH2 0x391 SWAP2 SWAP1 PUSH2 0x4049 JUMP JUMPDEST CALLVALUE DUP1 ISZERO PUSH2 0x3D3 JUMPI PUSH1 0x0 DUP1 REVERT JUMPDEST POP PUSH2 0x3E7 PUSH2 0x3E2 CALLDATASIZE PUSH1 0x4 PUSH2 0x405D JUMP JUMPDEST PUSH2 0xDB2 JUMP JUMPDEST PUSH1 0x40 MLOAD SWAP1 ISZERO ISZERO DUP2 MSTORE PUSH1 0x20 ADD PUSH2 0x391 JUMP JUMPDEST CALLVALUE DUP1 ISZERO PUSH2 0x403 JUMPI PUSH1 0x0 DUP1 REVERT JUMPDEST POP PUSH2 0x40C PUSH2 0xDCC JUMP JUMPDEST PUSH1 0x40 MLOAD SWAP1 DUP2 MSTORE PUSH1 0x20 ADD PUSH2 0x391 JUMP JUMPDEST CALLVALUE DUP1 ISZERO PUSH2 0x426 JUMPI PUSH1 0x0 DUP1 REVERT JUMPDEST POP PUSH2 0x348 PUSH2 0x435 CALLDATASIZE PUSH1 0x4 PUSH2 0x3FD0 JUMP JUMPDEST PUSH2 0xE9F JUMP JUMPDEST CALLVALUE DUP1 ISZERO PUSH2 0x446 JUMPI PUSH1 0x0 DUP1 REVERT JUMPDEST POP PUSH1 0x4C SLOAD PUSH2 0x3BA SWAP1 PUSH1 0x1 PUSH1 0x1 PUSH1 0xA0 SHL SUB AND DUP2 JUMP JUMPDEST CALLVALUE DUP1 ISZERO PUSH2 0x466 JUMPI PUSH1 0x0 DUP1 REVERT JUMPDEST POP PUSH1 0x43 SLOAD PUSH2 0x3BA SWAP1 PUSH1 0x1 PUSH1 0x1 PUSH1 0xA0 SHL SUB AND DUP2 JUMP JUMPDEST CALLVALUE DUP1 ISZERO PUSH2 0x486 JUMPI PUSH1 0x0 DUP1 REVERT JUMPDEST POP PUSH2 0x348 PUSH2 0x495 CALLDATASIZE PUSH1 0x4 PUSH2 0x4087 JUMP JUMPDEST PUSH2 0x10A7 JUMP JUMPDEST CALLVALUE DUP1 ISZERO PUSH2 0x4A6 JUMPI PUSH1 0x0 DUP1 REVERT JUMPDEST POP PUSH1 0x2 SLOAD PUSH2 0x40C JUMP JUMPDEST CALLVALUE DUP1 ISZERO PUSH2 0x4BB JUMPI PUSH1 0x0 DUP1 REVERT JUMPDEST POP PUSH2 0x348 PUSH2 0x4CA CALLDATASIZE PUSH1 0x4 PUSH2 0x3FD0 JUMP JUMPDEST PUSH2 0x12BB JUMP JUMPDEST CALLVALUE DUP1 ISZERO PUSH2 0x4DB JUMPI PUSH1 0x0 DUP1 REVERT JUMPDEST POP PUSH2 0x348 PUSH2 0x4EA CALLDATASIZE PUSH1 0x4 PUSH2 0x3FD0 JUMP JUMPDEST PUSH2 0x14B6 JUMP JUMPDEST CALLVALUE DUP1 ISZERO PUSH2 0x4FB JUMPI PUSH1 0x0 DUP1 REVERT JUMPDEST POP PUSH2 0x3E7 PUSH2 0x50A CALLDATASIZE PUSH1 0x4 PUSH2 0x40A0 JUMP JUMPDEST PUSH2 0x15AC JUMP JUMPDEST CALLVALUE DUP1 ISZERO PUSH2 0x51B JUMPI PUSH1 0x0 DUP1 REVERT JUMPDEST POP PUSH1 0x4B SLOAD PUSH2 0x3BA SWAP1 PUSH1 0x1 PUSH1 0x1 PUSH1 0xA0 SHL SUB AND DUP2 JUMP JUMPDEST CALLVALUE DUP1 ISZERO PUSH2 0x53B JUMPI PUSH1 0x0 DUP1 REVERT JUMPDEST POP PUSH2 0x40C PUSH1 0x39 SLOAD DUP2 JUMP JUMPDEST CALLVALUE DUP1 ISZERO PUSH2 0x551 JUMPI PUSH1 0x0 DUP1 REVERT JUMPDEST POP PUSH2 0x40C PUSH2 0x15D0 JUMP JUMPDEST CALLVALUE DUP1 ISZERO PUSH2 0x566 JUMPI PUSH1 0x0 DUP1 REVERT JUMPDEST POP PUSH1 0x40 MLOAD PUSH1 0x12 DUP2 MSTORE PUSH1 0x20 ADD PUSH2 0x391 JUMP JUMPDEST CALLVALUE DUP1 ISZERO PUSH2 0x582 JUMPI PUSH1 0x0 DUP1 REVERT JUMPDEST POP PUSH2 0x40C PUSH1 0x38 SLOAD DUP2 JUMP JUMPDEST PUSH2 0x3E7 PUSH2 0x1696 JUMP JUMPDEST CALLVALUE DUP1 ISZERO PUSH2 0x5A0 JUMPI PUSH1 0x0 DUP1 REVERT JUMPDEST POP PUSH2 0x40C PUSH2 0x18B8 JUMP JUMPDEST CALLVALUE DUP1 ISZERO PUSH2 0x5B5 JUMPI PUSH1 0x0 DUP1 REVERT JUMPDEST POP PUSH2 0x348 PUSH2 0x197E JUMP JUMPDEST CALLVALUE DUP1 ISZERO PUSH2 0x5CA JUMPI PUSH1 0x0 DUP1 REVERT JUMPDEST POP PUSH1 0x41 SLOAD PUSH2 0x3BA SWAP1 PUSH1 0x1 PUSH1 0x1 PUSH1 0xA0 SHL SUB AND DUP2 JUMP JUMPDEST CALLVALUE DUP1 ISZERO PUSH2 0x5EA JUMPI PUSH1 0x0 DUP1 REVERT JUMPDEST POP PUSH2 0x348 PUSH2 0x5F9 CALLDATASIZE PUSH1 0x4 PUSH2 0x3FD0 JUMP JUMPDEST PUSH2 0x1990 JUMP JUMPDEST CALLVALUE DUP1 ISZERO PUSH2 0x60A JUMPI PUSH1 0x0 DUP1 REVERT JUMPDEST POP PUSH2 0x348 PUSH2 0x619 CALLDATASIZE PUSH1 0x4 PUSH2 0x3FD0 JUMP JUMPDEST PUSH2 0x1B98 JUMP JUMPDEST CALLVALUE DUP1 ISZERO PUSH2 0x62A JUMPI PUSH1 0x0 DUP1 REVERT JUMPDEST POP PUSH1 0x4F SLOAD PUSH2 0x3BA SWAP1 PUSH1 0x1 PUSH1 0x1 PUSH1 0xA0 SHL SUB AND DUP2 JUMP JUMPDEST CALLVALUE DUP1 ISZERO PUSH2 0x64A JUMPI PUSH1 0x0 DUP1 REVERT JUMPDEST POP PUSH1 0x48 SLOAD PUSH2 0x3BA SWAP1 PUSH1 0x1 PUSH1 0x1 PUSH1 0xA0 SHL SUB AND DUP2 JUMP JUMPDEST CALLVALUE DUP1 ISZERO PUSH2 0x66A JUMPI PUSH1 0x0 DUP1 REVERT JUMPDEST POP PUSH2 0x348 PUSH2 0x679 CALLDATASIZE PUSH1 0x4 PUSH2 0x3FD0 JUMP JUMPDEST PUSH2 0x1C93 JUMP JUMPDEST CALLVALUE DUP1 ISZERO PUSH2 0x68A JUMPI PUSH1 0x0 DUP1 REVERT JUMPDEST POP PUSH1 0x4D SLOAD PUSH2 0x3BA SWAP1 PUSH1 0x1 PUSH1 0x1 PUSH1 0xA0 SHL SUB AND DUP2 JUMP JUMPDEST CALLVALUE DUP1 ISZERO PUSH2 0x6AA JUMPI PUSH1 0x0 DUP1 REVERT JUMPDEST POP PUSH1 0x5 SLOAD PUSH1 0xFF AND PUSH2 0x3E7 JUMP JUMPDEST CALLVALUE DUP1 ISZERO PUSH2 0x6C2 JUMPI PUSH1 0x0 DUP1 REVERT JUMPDEST POP PUSH2 0x348 PUSH2 0x6D1 CALLDATASIZE PUSH1 0x4 PUSH2 0x4087 JUMP JUMPDEST PUSH2 0x1D8E JUMP JUMPDEST CALLVALUE DUP1 ISZERO PUSH2 0x6E2 JUMPI PUSH1 0x0 DUP1 REVERT JUMPDEST POP PUSH2 0x348 PUSH2 0x6F1 CALLDATASIZE PUSH1 0x4 PUSH2 0x3FD0 JUMP JUMPDEST PUSH2 0x1F52 JUMP JUMPDEST CALLVALUE DUP1 ISZERO PUSH2 0x702 JUMPI PUSH1 0x0 DUP1 REVERT JUMPDEST POP PUSH1 0x3B SLOAD PUSH2 0x3BA SWAP1 PUSH1 0x1 PUSH1 0x1 PUSH1 0xA0 SHL SUB AND DUP2 JUMP JUMPDEST CALLVALUE DUP1 ISZERO PUSH2 0x722 JUMPI PUSH1 0x0 DUP1 REVERT JUMPDEST POP PUSH2 0x40C PUSH2 0x731 CALLDATASIZE PUSH1 0x4 PUSH2 0x3FD0 JUMP JUMPDEST PUSH1 0x1 PUSH1 0x1 PUSH1 0xA0 SHL SUB AND PUSH1 0x0 SWAP1 DUP2 MSTORE PUSH1 0x20 DUP2 SWAP1 MSTORE PUSH1 0x40 SWAP1 KECCAK256 SLOAD SWAP1 JUMP JUMPDEST CALLVALUE DUP1 ISZERO PUSH2 0x758 JUMPI PUSH1 0x0 DUP1 REVERT JUMPDEST POP PUSH2 0x348 PUSH2 0x209C JUMP JUMPDEST CALLVALUE DUP1 ISZERO PUSH2 0x76D JUMPI PUSH1 0x0 DUP1 REVERT JUMPDEST POP PUSH2 0x3E7 PUSH2 0x77C CALLDATASIZE PUSH1 0x4 PUSH2 0x40DC JUMP JUMPDEST PUSH2 0x20AE JUMP JUMPDEST CALLVALUE DUP1 ISZERO PUSH2 0x78D JUMPI PUSH1 0x0 DUP1 REVERT JUMPDEST POP PUSH1 0x40 SLOAD PUSH2 0x3BA SWAP1 PUSH1 0x1 PUSH1 0x1 PUSH1 0xA0 SHL SUB AND DUP2 JUMP JUMPDEST CALLVALUE DUP1 ISZERO PUSH2 0x7AD JUMPI PUSH1 0x0 DUP1 REVERT JUMPDEST POP PUSH2 0x348 PUSH2 0x7BC CALLDATASIZE PUSH1 0x4 PUSH2 0x3FD0 JUMP JUMPDEST PUSH2 0x261F JUMP JUMPDEST CALLVALUE DUP1 ISZERO PUSH2 0x7CD JUMPI PUSH1 0x0 DUP1 REVERT JUMPDEST POP PUSH2 0x40C PUSH1 0x3A SLOAD DUP2 JUMP JUMPDEST CALLVALUE DUP1 ISZERO PUSH2 0x7E3 JUMPI PUSH1 0x0 DUP1 REVERT JUMPDEST POP PUSH2 0x348 PUSH2 0x7F2 CALLDATASIZE PUSH1 0x4 PUSH2 0x40FE JUMP JUMPDEST PUSH2 0x27FD JUMP JUMPDEST CALLVALUE DUP1 ISZERO PUSH2 0x803 JUMPI PUSH1 0x0 DUP1 REVERT JUMPDEST POP PUSH2 0x348 PUSH2 0x812 CALLDATASIZE PUSH1 0x4 PUSH2 0x3FD0 JUMP JUMPDEST PUSH2 0x28D2 JUMP JUMPDEST CALLVALUE DUP1 ISZERO PUSH2 0x823 JUMPI PUSH1 0x0 DUP1 REVERT JUMPDEST POP PUSH2 0x348 PUSH2 0x832 CALLDATASIZE PUSH1 0x4 PUSH2 0x3FD0 JUMP JUMPDEST PUSH2 0x2ACE JUMP JUMPDEST CALLVALUE DUP1 ISZERO PUSH2 0x843 JUMPI PUSH1 0x0 DUP1 REVERT JUMPDEST POP PUSH2 0x348 PUSH2 0x2C0F JUMP JUMPDEST CALLVALUE DUP1 ISZERO PUSH2 0x858 JUMPI PUSH1 0x0 DUP1 REVERT JUMPDEST POP PUSH2 0x86C PUSH2 0x867 CALLDATASIZE PUSH1 0x4 PUSH2 0x412A JUMP JUMPDEST PUSH2 0x2C1F JUMP JUMPDEST PUSH1 0x40 DUP1 MLOAD SWAP3 DUP4 MSTORE PUSH1 0x20 DUP4 ADD SWAP2 SWAP1 SWAP2 MSTORE ADD PUSH2 0x391 JUMP JUMPDEST CALLVALUE DUP1 ISZERO PUSH2 0x88D JUMPI PUSH1 0x0 DUP1 REVERT JUMPDEST POP PUSH2 0x3BA PUSH2 0x2D7A JUMP JUMPDEST CALLVALUE DUP1 ISZERO PUSH2 0x8A2 JUMPI PUSH1 0x0 DUP1 REVERT JUMPDEST POP PUSH2 0x348 PUSH2 0x8B1 CALLDATASIZE PUSH1 0x4 PUSH2 0x3FD0 JUMP JUMPDEST PUSH2 0x2D8E JUMP JUMPDEST CALLVALUE DUP1 ISZERO PUSH2 0x8C2 JUMPI PUSH1 0x0 DUP1 REVERT JUMPDEST POP PUSH2 0x384 PUSH2 0x2FFF JUMP JUMPDEST CALLVALUE DUP1 ISZERO PUSH2 0x8D7 JUMPI PUSH1 0x0 DUP1 REVERT JUMPDEST POP PUSH1 0x44 SLOAD PUSH2 0x3BA SWAP1 PUSH1 0x1 PUSH1 0x1 PUSH1 0xA0 SHL SUB AND DUP2 JUMP JUMPDEST CALLVALUE DUP1 ISZERO PUSH2 0x8F7 JUMPI PUSH1 0x0 DUP1 REVERT JUMPDEST POP PUSH2 0x3E7 PUSH2 0x906 CALLDATASIZE PUSH1 0x4 PUSH2 0x405D JUMP JUMPDEST PUSH2 0x300E JUMP JUMPDEST CALLVALUE DUP1 ISZERO PUSH2 0x917 JUMPI PUSH1 0x0 DUP1 REVERT JUMPDEST POP PUSH1 0x47 SLOAD PUSH2 0x3BA SWAP1 PUSH1 0x1 PUSH1 0x1 PUSH1 0xA0 SHL SUB AND DUP2 JUMP JUMPDEST CALLVALUE DUP1 ISZERO PUSH2 0x937 JUMPI PUSH1 0x0 DUP1 REVERT JUMPDEST POP PUSH2 0x348 PUSH2 0x946 CALLDATASIZE PUSH1 0x4 PUSH2 0x4087 JUMP JUMPDEST PUSH2 0x301C JUMP JUMPDEST CALLVALUE DUP1 ISZERO PUSH2 0x957 JUMPI PUSH1 0x0 DUP1 REVERT JUMPDEST POP PUSH2 0x348 PUSH2 0x966 CALLDATASIZE PUSH1 0x4 PUSH2 0x4087 JUMP JUMPDEST PUSH2 0x31E1 JUMP JUMPDEST CALLVALUE DUP1 ISZERO PUSH2 0x977 JUMPI PUSH1 0x0 DUP1 REVERT JUMPDEST POP PUSH2 0x348 PUSH2 0x986 CALLDATASIZE PUSH1 0x4 PUSH2 0x3FD0 JUMP JUMPDEST PUSH2 0x33B3 JUMP JUMPDEST CALLVALUE DUP1 ISZERO PUSH2 0x997 JUMPI PUSH1 0x0 DUP1 REVERT JUMPDEST POP PUSH1 0x3C SLOAD PUSH2 0x3BA SWAP1 PUSH1 0x1 PUSH1 0x1 PUSH1 0xA0 SHL SUB AND DUP2 JUMP JUMPDEST CALLVALUE DUP1 ISZERO PUSH2 0x9B7 JUMPI PUSH1 0x0 DUP1 REVERT JUMPDEST POP PUSH2 0x40C PUSH2 0x34AE JUMP JUMPDEST CALLVALUE DUP1 ISZERO PUSH2 0x9CC JUMPI PUSH1 0x0 DUP1 REVERT JUMPDEST POP PUSH2 0x348 PUSH2 0x9DB CALLDATASIZE PUSH1 0x4 PUSH2 0x3FD0 JUMP JUMPDEST PUSH2 0x3574 JUMP JUMPDEST CALLVALUE DUP1 ISZERO PUSH2 0x9EC JUMPI PUSH1 0x0 DUP1 REVERT JUMPDEST POP PUSH2 0x40C PUSH2 0x9FB CALLDATASIZE PUSH1 0x4 PUSH2 0x414C JUMP JUMPDEST PUSH2 0x3785 JUMP JUMPDEST CALLVALUE DUP1 ISZERO PUSH2 0xA0C JUMPI PUSH1 0x0 DUP1 REVERT JUMPDEST POP PUSH2 0xA48 PUSH2 0xA1B CALLDATASIZE PUSH1 0x4 PUSH2 0x3FD0 JUMP JUMPDEST PUSH1 0x3D PUSH1 0x20 MSTORE PUSH1 0x0 SWAP1 DUP2 MSTORE PUSH1 0x40 SWAP1 KECCAK256 DUP1 SLOAD PUSH1 0x1 DUP3 ADD SLOAD PUSH1 0x2 SWAP1 SWAP3 ADD SLOAD PUSH1 0xFF DUP1 DUP4 AND SWAP4 PUSH2 0x100 SWAP1 SWAP4 DIV AND SWAP2 SWAP1 DUP5 JUMP JUMPDEST PUSH1 0x40 DUP1 MLOAD SWAP5 ISZERO ISZERO DUP6 MSTORE SWAP3 ISZERO ISZERO PUSH1 0x20 DUP6 ADD MSTORE SWAP2 DUP4 ADD MSTORE PUSH1 0x60 DUP3 ADD MSTORE PUSH1 0x80 ADD PUSH2 0x391 JUMP JUMPDEST CALLVALUE DUP1 ISZERO PUSH2 0xA76 JUMPI PUSH1 0x0 DUP1 REVERT JUMPDEST POP PUSH2 0x348 PUSH2 0xA85 CALLDATASIZE PUSH1 0x4 PUSH2 0x3FD0 JUMP JUMPDEST PUSH2 0x37B0 JUMP JUMPDEST CALLVALUE DUP1 ISZERO PUSH2 0xA96 JUMPI PUSH1 0x0 DUP1 REVERT JUMPDEST POP PUSH2 0x348 PUSH2 0xAA5 CALLDATASIZE PUSH1 0x4 PUSH2 0x3FD0 JUMP JUMPDEST PUSH2 0x39AC JUMP JUMPDEST CALLVALUE DUP1 ISZERO PUSH2 0xAB6 JUMPI PUSH1 0x0 DUP1 REVERT JUMPDEST POP PUSH1 0x49 SLOAD PUSH2 0x3BA SWAP1 PUSH1 0x1 PUSH1 0x1 PUSH1 0xA0 SHL SUB AND DUP2 JUMP JUMPDEST CALLVALUE DUP1 ISZERO PUSH2 0xAD6 JUMPI PUSH1 0x0 DUP1 REVERT JUMPDEST POP PUSH1 0x3E SLOAD PUSH2 0x3BA SWAP1 PUSH1 0x1 PUSH1 0x1 PUSH1 0xA0 SHL SUB AND DUP2 JUMP JUMPDEST CALLVALUE DUP1 ISZERO PUSH2 0xAF6 JUMPI PUSH1 0x0 DUP1 REVERT JUMPDEST POP PUSH2 0x40C PUSH2 0x3A9A JUMP JUMPDEST PUSH1 0x2 PUSH1 0x6 SLOAD SUB PUSH2 0xB56 JUMPI PUSH1 0x40 MLOAD PUSH3 0x461BCD PUSH1 0xE5 SHL DUP2 MSTORE PUSH1 0x20 PUSH1 0x4 DUP3 ADD MSTORE PUSH1 0x1F PUSH1 0x24 DUP3 ADD MSTORE PUSH32 0x5265656E7472616E637947756172643A207265656E7472616E742063616C6C00 PUSH1 0x44 DUP3 ADD MSTORE PUSH1 0x64 ADD JUMPDEST PUSH1 0x40 MLOAD DUP1 SWAP2 SUB SWAP1 REVERT JUMPDEST PUSH1 0x2 PUSH1 0x6 SSTORE JUMP JUMPDEST PUSH2 0xB65 PUSH2 0x2D7A JUMP JUMPDEST PUSH1 0x1 PUSH1 0x1 PUSH1 0xA0 SHL SUB AND CALLER PUSH1 0x1 PUSH1 0x1 PUSH1 0xA0 SHL SUB AND EQ DUP1 PUSH2 0xB8E JUMPI POP PUSH1 0x3B SLOAD PUSH1 0x1 PUSH1 0x1 PUSH1 0xA0 SHL SUB AND CALLER EQ JUMPDEST PUSH2 0xBAA JUMPI PUSH1 0x40 MLOAD PUSH3 0x461BCD PUSH1 0xE5 SHL DUP2 MSTORE PUSH1 0x4 ADD PUSH2 0xB4D SWAP1 PUSH2 0x4176 JUMP JUMPDEST PUSH1 0x1 PUSH1 0x1 PUSH1 0xA0 SHL SUB DUP2 AND PUSH2 0xC39 JUMPI PUSH1 0x40 MLOAD PUSH3 0x461BCD PUSH1 0xE5 SHL DUP2 MSTORE PUSH1 0x20 PUSH1 0x4 DUP3 ADD MSTORE PUSH1 0x4A PUSH1 0x24 DUP3 ADD MSTORE PUSH32 0x496E766573746F72206164647265737320746F2072656D6F76652066726F6D20 PUSH1 0x44 DUP3 ADD MSTORE PUSH32 0x746865207768697465206C6973742063616E206E6F7420626520746865207A65 PUSH1 0x64 DUP3 ADD MSTORE PUSH10 0x726F2061646472657373 PUSH1 0xB0 SHL PUSH1 0x84 DUP3 ADD MSTORE PUSH1 0xA4 ADD PUSH2 0xB4D JUMP JUMPDEST PUSH1 0x1 PUSH1 0x1 PUSH1 0xA0 SHL SUB DUP2 AND PUSH1 0x0 SWAP1 DUP2 MSTORE PUSH1 0x3D PUSH1 0x20 MSTORE PUSH1 0x40 SWAP1 KECCAK256 SLOAD PUSH1 0xFF AND PUSH2 0xCC3 JUMPI PUSH1 0x40 MLOAD PUSH3 0x461BCD PUSH1 0xE5 SHL DUP2 MSTORE PUSH1 0x20 PUSH1 0x4 DUP3 ADD MSTORE PUSH1 0x39 PUSH1 0x24 DUP3 ADD MSTORE PUSH32 0x5468617420696E766573746F722061646472657373206973206E6F7420726567 PUSH1 0x44 DUP3 ADD MSTORE PUSH25 0x1A5CDD195C9959081BDB881D1A19481DDA1A5D19481B1A5CDD PUSH1 0x3A SHL PUSH1 0x64 DUP3 ADD MSTORE PUSH1 0x84 ADD PUSH2 0xB4D JUMP JUMPDEST PUSH1 0x1 PUSH1 0x1 PUSH1 0xA0 SHL SUB DUP2 AND PUSH1 0x0 SWAP1 DUP2 MSTORE PUSH1 0x3D PUSH1 0x20 MSTORE PUSH1 0x40 SWAP1 DUP2 SWAP1 KECCAK256 DUP1 SLOAD PUSH1 0xFF NOT AND SWAP1 SSTORE MLOAD PUSH32 0x41B8EA78B0816BEF99FF095D54FBE2CEF1F50003E09CE81445DF1F89D9579944 SWAP1 PUSH2 0xD15 SWAP1 CALLER SWAP1 DUP5 SWAP1 PUSH2 0x41D4 JUMP JUMPDEST PUSH1 0x40 MLOAD DUP1 SWAP2 SUB SWAP1 LOG1 POP JUMP JUMPDEST PUSH1 0x60 PUSH1 0x3 DUP1 SLOAD PUSH2 0xD2F SWAP1 PUSH2 0x41EE JUMP JUMPDEST DUP1 PUSH1 0x1F ADD PUSH1 0x20 DUP1 SWAP2 DIV MUL PUSH1 0x20 ADD PUSH1 0x40 MLOAD SWAP1 DUP2 ADD PUSH1 0x40 MSTORE DUP1 SWAP3 SWAP2 SWAP1 DUP2 DUP2 MSTORE PUSH1 0x20 ADD DUP3 DUP1 SLOAD PUSH2 0xD5B SWAP1 PUSH2 0x41EE JUMP JUMPDEST DUP1 ISZERO PUSH2 0xDA8 JUMPI DUP1 PUSH1 0x1F LT PUSH2 0xD7D JUMPI PUSH2 0x100 DUP1 DUP4 SLOAD DIV MUL DUP4 MSTORE SWAP2 PUSH1 0x20 ADD SWAP2 PUSH2 0xDA8 JUMP JUMPDEST DUP3 ADD SWAP2 SWAP1 PUSH1 0x0 MSTORE PUSH1 0x20 PUSH1 0x0 KECCAK256 SWAP1 JUMPDEST DUP2 SLOAD DUP2 MSTORE SWAP1 PUSH1 0x1 ADD SWAP1 PUSH1 0x20 ADD DUP1 DUP4 GT PUSH2 0xD8B JUMPI DUP3 SWAP1 SUB PUSH1 0x1F AND DUP3 ADD SWAP2 JUMPDEST POP POP POP POP POP SWAP1 POP SWAP1 JUMP JUMPDEST PUSH1 0x0 CALLER PUSH2 0xDC0 DUP2 DUP6 DUP6 PUSH2 0x3B60 JUMP JUMPDEST PUSH1 0x1 SWAP2 POP POP JUMPDEST SWAP3 SWAP2 POP POP JUMP JUMPDEST PUSH1 0x3F SLOAD PUSH1 0x40 DUP1 MLOAD PUSH4 0x3FABE5A3 PUSH1 0xE2 SHL DUP2 MSTORE SWAP1 MLOAD PUSH1 0x0 SWAP3 PUSH1 0x1 PUSH1 0x1 PUSH1 0xA0 SHL SUB AND SWAP2 PUSH4 0xFEAF968C SWAP2 PUSH1 0x4 DUP1 DUP4 ADD SWAP3 PUSH1 0xA0 SWAP3 SWAP2 SWAP1 DUP3 SWAP1 SUB ADD DUP2 DUP7 GAS STATICCALL SWAP3 POP POP POP DUP1 ISZERO PUSH2 0xE32 JUMPI POP PUSH1 0x40 DUP1 MLOAD PUSH1 0x1F RETURNDATASIZE SWAP1 DUP2 ADD PUSH1 0x1F NOT AND DUP3 ADD SWAP1 SWAP3 MSTORE PUSH2 0xE2F SWAP2 DUP2 ADD SWAP1 PUSH2 0x4242 JUMP JUMPDEST PUSH1 0x1 JUMPDEST PUSH2 0xE92 JUMPI PUSH1 0x40 MLOAD PUSH3 0x461BCD PUSH1 0xE5 SHL DUP2 MSTORE PUSH1 0x20 PUSH1 0x4 DUP3 ADD MSTORE PUSH1 0x3C PUSH1 0x24 DUP3 ADD MSTORE PUSH1 0x0 DUP1 MLOAD PUSH1 0x20 PUSH2 0x48BF DUP4 CODECOPY DUP2 MLOAD SWAP2 MSTORE PUSH1 0x44 DUP3 ADD MSTORE PUSH32 0x204D415449432070726963652066726F6D20746865206F7261636C6500000000 PUSH1 0x64 DUP3 ADD MSTORE PUSH1 0x84 ADD PUSH2 0xB4D JUMP JUMPDEST POP SWAP2 SWAP5 SWAP4 POP POP POP POP JUMP JUMPDEST SWAP1 JUMP JUMPDEST PUSH2 0xEA7 PUSH2 0x3B6D JUMP JUMPDEST PUSH1 0x1 PUSH1 0x1 PUSH1 0xA0 SHL SUB DUP2 AND PUSH2 0xECD JUMPI PUSH1 0x40 MLOAD PUSH3 0x461BCD PUSH1 0xE5 SHL DUP2 MSTORE PUSH1 0x4 ADD PUSH2 0xB4D SWAP1 PUSH2 0x4292 JUMP JUMPDEST PUSH1 0x41 SLOAD PUSH1 0x1 PUSH1 0x1 PUSH1 0xA0 SHL SUB SWAP1 DUP2 AND SWAP1 DUP3 AND SUB PUSH2 0xF3F JUMPI PUSH1 0x40 MLOAD PUSH3 0x461BCD PUSH1 0xE5 SHL DUP2 MSTORE PUSH1 0x20 PUSH1 0x4 DUP3 ADD MSTORE PUSH1 0x3F PUSH1 0x24 DUP3 ADD MSTORE PUSH32 0x55534443207072696365206665656420616464726573732068617320616C7265 PUSH1 0x44 DUP3 ADD MSTORE PUSH1 0x0 DUP1 MLOAD PUSH1 0x20 PUSH2 0x48FF DUP4 CODECOPY DUP2 MLOAD SWAP2 MSTORE PUSH1 0x64 DUP3 ADD MSTORE PUSH1 0x84 ADD PUSH2 0xB4D JUMP JUMPDEST PUSH1 0x0 DUP2 SWAP1 POP DUP1 PUSH1 0x1 PUSH1 0x1 PUSH1 0xA0 SHL SUB AND PUSH4 0x7284E416 PUSH1 0x40 MLOAD DUP2 PUSH4 0xFFFFFFFF AND PUSH1 0xE0 SHL DUP2 MSTORE PUSH1 0x4 ADD PUSH1 0x0 PUSH1 0x40 MLOAD DUP1 DUP4 SUB DUP2 DUP7 GAS STATICCALL SWAP3 POP POP POP DUP1 ISZERO PUSH2 0xFA3 JUMPI POP PUSH1 0x40 MLOAD RETURNDATASIZE PUSH1 0x0 DUP3 RETURNDATACOPY PUSH1 0x1F RETURNDATASIZE SWAP1 DUP2 ADD PUSH1 0x1F NOT AND DUP3 ADD PUSH1 0x40 MSTORE PUSH2 0xFA0 SWAP2 SWAP1 DUP2 ADD SWAP1 PUSH2 0x42FF JUMP JUMPDEST PUSH1 0x1 JUMPDEST PUSH2 0xFBF JUMPI PUSH1 0x40 MLOAD PUSH3 0x461BCD PUSH1 0xE5 SHL DUP2 MSTORE PUSH1 0x4 ADD PUSH2 0xB4D SWAP1 PUSH2 0x43AC JUMP JUMPDEST PUSH1 0x40 MLOAD PUSH10 0x1554D110C80BC81554D1 PUSH1 0xB2 SHL PUSH1 0x20 DUP3 ADD MSTORE PUSH1 0x0 SWAP1 PUSH1 0x2A ADD PUSH1 0x40 MLOAD PUSH1 0x20 DUP2 DUP4 SUB SUB DUP2 MSTORE SWAP1 PUSH1 0x40 MSTORE DUP1 MLOAD SWAP1 PUSH1 0x20 ADD KECCAK256 SWAP1 POP PUSH1 0x0 DUP3 PUSH1 0x40 MLOAD PUSH1 0x20 ADD PUSH2 0x1006 SWAP2 SWAP1 PUSH2 0x4401 JUMP JUMPDEST PUSH1 0x40 MLOAD PUSH1 0x20 DUP2 DUP4 SUB SUB DUP2 MSTORE SWAP1 PUSH1 0x40 MSTORE DUP1 MLOAD SWAP1 PUSH1 0x20 ADD KECCAK256 SWAP1 POP DUP1 DUP3 EQ PUSH2 0x103D JUMPI PUSH1 0x40 MLOAD PUSH3 0x461BCD PUSH1 0xE5 SHL DUP2 MSTORE PUSH1 0x4 ADD PUSH2 0xB4D SWAP1 PUSH2 0x43AC JUMP JUMPDEST POP POP POP PUSH1 0x41 DUP1 SLOAD PUSH1 0x1 PUSH1 0x1 PUSH1 0xA0 SHL SUB DUP5 AND PUSH1 0x1 PUSH1 0x1 PUSH1 0xA0 SHL SUB NOT SWAP2 DUP3 AND DUP2 OR SWAP1 SWAP3 SSTORE PUSH1 0x42 DUP1 SLOAD SWAP1 SWAP2 AND SWAP1 SWAP2 OR SWAP1 SSTORE PUSH1 0x40 MLOAD PUSH32 0xA0BC5DADD9D9C881861F6DA8998BEBEF8EABCB5F3D6651187C5D1899E327965 SWAP1 PUSH2 0x109B SWAP1 DUP5 SWAP1 PUSH2 0x4049 JUMP JUMPDEST PUSH1 0x40 MLOAD DUP1 SWAP2 SUB SWAP1 LOG1 POP POP JUMP JUMPDEST PUSH2 0x10AF PUSH2 0x3B6D JUMP JUMPDEST PUSH2 0x10B7 PUSH2 0xAFF JUMP JUMPDEST PUSH2 0x10C3 PUSH1 0x12 PUSH1 0xA PUSH2 0x4517 JUMP JUMPDEST DUP2 LT ISZERO PUSH2 0x1132 JUMPI PUSH1 0x40 MLOAD PUSH3 0x461BCD PUSH1 0xE5 SHL DUP2 MSTORE PUSH1 0x20 PUSH1 0x4 DUP3 ADD MSTORE PUSH1 0x37 PUSH1 0x24 DUP3 ADD MSTORE PUSH32 0x416D6F756E74206F66204859415820746F6B656E7320746F206973737565206D PUSH1 0x44 DUP3 ADD MSTORE PUSH23 0x3AB9BA1031329030BA103632B0B9BA1018903A37B5B2B7 PUSH1 0x49 SHL PUSH1 0x64 DUP3 ADD MSTORE PUSH1 0x84 ADD PUSH2 0xB4D JUMP JUMPDEST PUSH2 0x113E PUSH1 0x12 PUSH1 0xA PUSH2 0x4517 JUMP JUMPDEST PUSH2 0x114C SWAP1 PUSH4 0x3B9ACA00 PUSH2 0x4526 JUMP JUMPDEST DUP2 GT ISZERO PUSH2 0x11C1 JUMPI PUSH1 0x40 MLOAD PUSH3 0x461BCD PUSH1 0xE5 SHL DUP2 MSTORE PUSH1 0x20 PUSH1 0x4 DUP3 ADD MSTORE PUSH1 0x3F PUSH1 0x24 DUP3 ADD MSTORE PUSH32 0x416D6F756E74206F66204859415820746F6B656E7320746F2069737375652061 PUSH1 0x44 DUP3 ADD MSTORE PUSH32 0x7420612074696D65206D757374206265206D6178696D756D2031303030204D00 PUSH1 0x64 DUP3 ADD MSTORE PUSH1 0x84 ADD PUSH2 0xB4D JUMP JUMPDEST PUSH2 0x11CD PUSH1 0x12 PUSH1 0xA PUSH2 0x4517 JUMP JUMPDEST PUSH2 0x11DC SWAP1 PUSH5 0x2540BE400 PUSH2 0x4526 JUMP JUMPDEST DUP2 PUSH2 0x11E6 PUSH1 0x2 SLOAD SWAP1 JUMP JUMPDEST PUSH2 0x11F0 SWAP2 SWAP1 PUSH2 0x453D JUMP JUMPDEST GT ISZERO PUSH2 0x1264 JUMPI PUSH1 0x40 MLOAD PUSH3 0x461BCD PUSH1 0xE5 SHL DUP2 MSTORE PUSH1 0x20 PUSH1 0x4 DUP3 ADD MSTORE PUSH1 0x3B PUSH1 0x24 DUP3 ADD MSTORE PUSH32 0x416D6F756E74206F66204859415820746F6B656E7320746F2069737375652073 PUSH1 0x44 DUP3 ADD MSTORE PUSH32 0x75727061736573207468652031302C303030204D20746F6B656E730000000000 PUSH1 0x64 DUP3 ADD MSTORE PUSH1 0x84 ADD PUSH2 0xB4D JUMP JUMPDEST PUSH2 0x1275 PUSH2 0x126F PUSH2 0x2D7A JUMP JUMPDEST DUP3 PUSH2 0x3B9F JUMP JUMPDEST PUSH32 0x455064BBF1374D9E833B8D9DB24C56B24DBF79CC1A94A30665CAE7093963D5A8 CALLER DUP3 PUSH1 0x40 MLOAD PUSH2 0x12A6 SWAP3 SWAP2 SWAP1 PUSH2 0x4550 JUMP JUMPDEST PUSH1 0x40 MLOAD DUP1 SWAP2 SUB SWAP1 LOG1 PUSH2 0x12B8 PUSH1 0x1 PUSH1 0x6 SSTORE JUMP JUMPDEST POP JUMP JUMPDEST PUSH2 0x12C3 PUSH2 0x3B6D JUMP JUMPDEST PUSH1 0x1 PUSH1 0x1 PUSH1 0xA0 SHL SUB DUP2 AND PUSH2 0x12E9 JUMPI PUSH1 0x40 MLOAD PUSH3 0x461BCD PUSH1 0xE5 SHL DUP2 MSTORE PUSH1 0x4 ADD PUSH2 0xB4D SWAP1 PUSH2 0x4292 JUMP JUMPDEST PUSH1 0x4D SLOAD PUSH1 0x1 PUSH1 0x1 PUSH1 0xA0 SHL SUB SWAP1 DUP2 AND SWAP1 DUP3 AND SUB PUSH2 0x135B JUMPI PUSH1 0x40 MLOAD PUSH3 0x461BCD PUSH1 0xE5 SHL DUP2 MSTORE PUSH1 0x20 PUSH1 0x4 DUP3 ADD MSTORE PUSH1 0x3F PUSH1 0x24 DUP3 ADD MSTORE PUSH32 0x57455448207072696365206665656420616464726573732068617320616C7265 PUSH1 0x44 DUP3 ADD MSTORE PUSH1 0x0 DUP1 MLOAD PUSH1 0x20 PUSH2 0x48FF DUP4 CODECOPY DUP2 MLOAD SWAP2 MSTORE PUSH1 0x64 DUP3 ADD MSTORE PUSH1 0x84 ADD PUSH2 0xB4D JUMP JUMPDEST PUSH1 0x0 DUP2 SWAP1 POP DUP1 PUSH1 0x1 PUSH1 0x1 PUSH1 0xA0 SHL SUB AND PUSH4 0x7284E416 PUSH1 0x40 MLOAD DUP2 PUSH4 0xFFFFFFFF AND PUSH1 0xE0 SHL DUP2 MSTORE PUSH1 0x4 ADD PUSH1 0x0 PUSH1 0x40 MLOAD DUP1 DUP4 SUB DUP2 DUP7 GAS STATICCALL SWAP3 POP POP POP DUP1 ISZERO PUSH2 0x13BF JUMPI POP PUSH1 0x40 MLOAD RETURNDATASIZE PUSH1 0x0 DUP3 RETURNDATACOPY PUSH1 0x1F RETURNDATASIZE SWAP1 DUP2 ADD PUSH1 0x1F NOT AND DUP3 ADD PUSH1 0x40 MSTORE PUSH2 0x13BC SWAP2 SWAP1 DUP2 ADD SWAP1 PUSH2 0x42FF JUMP JUMPDEST PUSH1 0x1 JUMPDEST PUSH2 0x13DB JUMPI PUSH1 0x40 MLOAD PUSH3 0x461BCD PUSH1 0xE5 SHL DUP2 MSTORE PUSH1 0x4 ADD PUSH2 0xB4D SWAP1 PUSH2 0x4569 JUMP JUMPDEST PUSH1 0x40 MLOAD PUSH9 0x115512080BC81554D1 PUSH1 0xBA SHL PUSH1 0x20 DUP3 ADD MSTORE PUSH1 0x0 SWAP1 PUSH1 0x29 ADD PUSH1 0x40 MLOAD PUSH1 0x20 DUP2 DUP4 SUB SUB DUP2 MSTORE SWAP1 PUSH1 0x40 MSTORE DUP1 MLOAD SWAP1 PUSH1 0x20 ADD KECCAK256 SWAP1 POP PUSH1 0x0 DUP3 PUSH1 0x40 MLOAD PUSH1 0x20 ADD PUSH2 0x1421 SWAP2 SWAP1 PUSH2 0x4401 JUMP JUMPDEST PUSH1 0x40 MLOAD PUSH1 0x20 DUP2 DUP4 SUB SUB DUP2 MSTORE SWAP1 PUSH1 0x40 MSTORE DUP1 MLOAD SWAP1 PUSH1 0x20 ADD KECCAK256 SWAP1 POP DUP1 DUP3 EQ PUSH2 0x1458 JUMPI PUSH1 0x40 MLOAD PUSH3 0x461BCD PUSH1 0xE5 SHL DUP2 MSTORE PUSH1 0x4 ADD PUSH2 0xB4D SWAP1 PUSH2 0x4569 JUMP JUMPDEST POP POP POP PUSH1 0x4D DUP1 SLOAD PUSH1 0x1 PUSH1 0x1 PUSH1 0xA0 SHL SUB DUP5 AND PUSH1 0x1 PUSH1 0x1 PUSH1 0xA0 SHL SUB NOT SWAP2 DUP3 AND DUP2 OR SWAP1 SWAP3 SSTORE PUSH1 0x4E DUP1 SLOAD SWAP1 SWAP2 AND SWAP1 SWAP2 OR SWAP1 SSTORE PUSH1 0x40 MLOAD PUSH32 0xC21BE1E8C8D6DE83E19AD6DE75CD885EEFAC75BE87E532A0A04D02147004E520 SWAP1 PUSH2 0x109B SWAP1 DUP5 SWAP1 PUSH2 0x4049 JUMP JUMPDEST PUSH2 0x14BE PUSH2 0x3B6D JUMP JUMPDEST PUSH1 0x1 PUSH1 0x1 PUSH1 0xA0 SHL SUB DUP2 AND PUSH2 0x14E4 JUMPI PUSH1 0x40 MLOAD PUSH3 0x461BCD PUSH1 0xE5 SHL DUP2 MSTORE PUSH1 0x4 ADD PUSH2 0xB4D SWAP1 PUSH2 0x45B5 JUMP JUMPDEST PUSH1 0x40 SLOAD PUSH1 0x1 PUSH1 0x1 PUSH1 0xA0 SHL SUB SWAP1 DUP2 AND SWAP1 DUP3 AND SUB PUSH2 0x1556 JUMPI PUSH1 0x40 MLOAD PUSH3 0x461BCD PUSH1 0xE5 SHL DUP2 MSTORE PUSH1 0x20 PUSH1 0x4 DUP3 ADD MSTORE PUSH1 0x3A PUSH1 0x24 DUP3 ADD MSTORE PUSH32 0x5553444320746F6B656E20616464726573732068617320616C72656164792062 PUSH1 0x44 DUP3 ADD MSTORE PUSH1 0x0 DUP1 MLOAD PUSH1 0x20 PUSH2 0x489F DUP4 CODECOPY DUP2 MLOAD SWAP2 MSTORE PUSH1 0x64 DUP3 ADD MSTORE PUSH1 0x84 ADD PUSH2 0xB4D JUMP JUMPDEST PUSH1 0x40 DUP1 SLOAD PUSH1 0x1 PUSH1 0x1 PUSH1 0xA0 SHL SUB DUP4 AND PUSH1 0x1 PUSH1 0x1 PUSH1 0xA0 SHL SUB NOT SWAP2 DUP3 AND DUP2 OR DUP4 SSTORE PUSH1 0x43 DUP1 SLOAD SWAP1 SWAP3 AND OR SWAP1 SSTORE MLOAD PUSH32 0x8B3F52C1D10699944EBEE74EE29DCA11C9C86BB0DBEDEF4ABD6E737F613D4D3A SWAP1 PUSH2 0xD15 SWAP1 DUP4 SWAP1 PUSH2 0x4049 JUMP JUMPDEST PUSH1 0x0 CALLER PUSH2 0x15BA DUP6 DUP3 DUP6 PUSH2 0x3BD9 JUMP JUMPDEST PUSH2 0x15C5 DUP6 DUP6 DUP6 PUSH2 0x3C2C JUMP JUMPDEST POP PUSH1 0x1 SWAP5 SWAP4 POP POP POP POP JUMP JUMPDEST PUSH1 0x46 SLOAD PUSH1 0x40 DUP1 MLOAD PUSH4 0x3FABE5A3 PUSH1 0xE2 SHL DUP2 MSTORE SWAP1 MLOAD PUSH1 0x0 SWAP3 PUSH1 0x1 PUSH1 0x1 PUSH1 0xA0 SHL SUB AND SWAP2 PUSH4 0xFEAF968C SWAP2 PUSH1 0x4 DUP1 DUP4 ADD SWAP3 PUSH1 0xA0 SWAP3 SWAP2 SWAP1 DUP3 SWAP1 SUB ADD DUP2 DUP7 GAS STATICCALL SWAP3 POP POP POP DUP1 ISZERO PUSH2 0x1636 JUMPI POP PUSH1 0x40 DUP1 MLOAD PUSH1 0x1F RETURNDATASIZE SWAP1 DUP2 ADD PUSH1 0x1F NOT AND DUP3 ADD SWAP1 SWAP3 MSTORE PUSH2 0x1633 SWAP2 DUP2 ADD SWAP1 PUSH2 0x4242 JUMP JUMPDEST PUSH1 0x1 JUMPDEST PUSH2 0xE92 JUMPI PUSH1 0x40 MLOAD PUSH3 0x461BCD PUSH1 0xE5 SHL DUP2 MSTORE PUSH1 0x20 PUSH1 0x4 DUP3 ADD MSTORE PUSH1 0x3B PUSH1 0x24 DUP3 ADD MSTORE PUSH1 0x0 DUP1 MLOAD PUSH1 0x20 PUSH2 0x48BF DUP4 CODECOPY DUP2 MLOAD SWAP2 MSTORE PUSH1 0x44 DUP3 ADD MSTORE PUSH32 0x20555344542070726963652066726F6D20746865206F7261636C650000000000 PUSH1 0x64 DUP3 ADD MSTORE PUSH1 0x84 ADD PUSH2 0xB4D JUMP JUMPDEST CALLER PUSH1 0x0 SWAP1 DUP2 MSTORE PUSH1 0x3D PUSH1 0x20 MSTORE PUSH1 0x40 DUP2 KECCAK256 SLOAD PUSH1 0xFF AND PUSH2 0x16C5 JUMPI PUSH1 0x40 MLOAD PUSH3 0x461BCD PUSH1 0xE5 SHL DUP2 MSTORE PUSH1 0x4 ADD PUSH2 0xB4D SWAP1 PUSH2 0x4602 JUMP JUMPDEST PUSH2 0x16CD PUSH2 0xAFF JUMP JUMPDEST PUSH1 0x0 DUP1 PUSH2 0x16DC CALLVALUE PUSH2 0x867 PUSH2 0xDCC JUMP JUMPDEST SWAP2 POP SWAP2 POP PUSH2 0x16EA DUP3 CALLER PUSH2 0x27FD JUMP JUMPDEST PUSH1 0x3C SLOAD PUSH1 0x40 MLOAD PUSH1 0x1 PUSH1 0x1 PUSH1 0xA0 SHL SUB SWAP1 SWAP2 AND SWAP1 CALLVALUE DUP1 ISZERO PUSH2 0x8FC MUL SWAP2 PUSH1 0x0 DUP2 DUP2 DUP2 DUP6 DUP9 DUP9 CALL SWAP4 POP POP POP POP PUSH2 0x178F JUMPI PUSH1 0x40 MLOAD PUSH3 0x461BCD PUSH1 0xE5 SHL DUP2 MSTORE PUSH1 0x20 PUSH1 0x4 DUP3 ADD MSTORE PUSH1 0x42 PUSH1 0x24 DUP3 ADD MSTORE PUSH32 0x54686572652077617320616E206572726F72206F6E2073656E64696E67207468 PUSH1 0x44 DUP3 ADD MSTORE PUSH32 0x65204D4154494320696E766573746D656E7420746F2074686520747265617375 PUSH1 0x64 DUP3 ADD MSTORE PUSH2 0x7279 PUSH1 0xF0 SHL PUSH1 0x84 DUP3 ADD MSTORE PUSH1 0xA4 ADD PUSH2 0xB4D JUMP JUMPDEST PUSH1 0x40 MLOAD PUSH4 0xA9059CBB PUSH1 0xE0 SHL DUP2 MSTORE ADDRESS SWAP1 PUSH4 0xA9059CBB SWAP1 PUSH2 0x17B4 SWAP1 CALLER SWAP1 DUP6 SWAP1 PUSH1 0x4 ADD PUSH2 0x4550 JUMP JUMPDEST PUSH1 0x20 PUSH1 0x40 MLOAD DUP1 DUP4 SUB DUP2 PUSH1 0x0 DUP8 GAS CALL ISZERO DUP1 ISZERO PUSH2 0x17D3 JUMPI RETURNDATASIZE PUSH1 0x0 DUP1 RETURNDATACOPY RETURNDATASIZE PUSH1 0x0 REVERT JUMPDEST POP POP POP POP PUSH1 0x40 MLOAD RETURNDATASIZE PUSH1 0x1F NOT PUSH1 0x1F DUP3 ADD AND DUP3 ADD DUP1 PUSH1 0x40 MSTORE POP DUP2 ADD SWAP1 PUSH2 0x17F7 SWAP2 SWAP1 PUSH2 0x4657 JUMP JUMPDEST PUSH2 0x1813 JUMPI PUSH1 0x40 MLOAD PUSH3 0x461BCD PUSH1 0xE5 SHL DUP2 MSTORE PUSH1 0x4 ADD PUSH2 0xB4D SWAP1 PUSH2 0x4679 JUMP JUMPDEST CALLER PUSH1 0x0 SWAP1 DUP2 MSTORE PUSH1 0x3D PUSH1 0x20 MSTORE PUSH1 0x40 DUP2 KECCAK256 PUSH1 0x2 ADD DUP1 SLOAD DUP5 SWAP3 SWAP1 PUSH2 0x1835 SWAP1 DUP5 SWAP1 PUSH2 0x453D JUMP JUMPDEST SWAP1 SWAP2 SSTORE POP POP CALLER PUSH1 0x0 SWAP1 DUP2 MSTORE PUSH1 0x3D PUSH1 0x20 MSTORE PUSH1 0x40 DUP2 KECCAK256 PUSH1 0x1 ADD DUP1 SLOAD DUP4 SWAP3 SWAP1 PUSH2 0x185C SWAP1 DUP5 SWAP1 PUSH2 0x453D JUMP JUMPDEST SWAP1 SWAP2 SSTORE POP POP PUSH1 0x40 DUP1 MLOAD CALLER DUP2 MSTORE CALLVALUE PUSH1 0x20 DUP3 ADD MSTORE SWAP1 DUP2 ADD DUP4 SWAP1 MSTORE PUSH1 0x60 DUP2 ADD DUP3 SWAP1 MSTORE PUSH32 0xE036CB252631BB3E3FBCB1AA359DD09F94F0DAC1FE6DE828E8BAE3F5028331C5 SWAP1 PUSH1 0x80 ADD PUSH1 0x40 MLOAD DUP1 SWAP2 SUB SWAP1 LOG1 PUSH1 0x1 SWAP3 POP POP POP PUSH2 0xE9C PUSH1 0x1 PUSH1 0x6 SSTORE JUMP JUMPDEST PUSH1 0x4E SLOAD PUSH1 0x40 DUP1 MLOAD PUSH4 0x3FABE5A3 PUSH1 0xE2 SHL DUP2 MSTORE SWAP1 MLOAD PUSH1 0x0 SWAP3 PUSH1 0x1 PUSH1 0x1 PUSH1 0xA0 SHL SUB AND SWAP2 PUSH4 0xFEAF968C SWAP2 PUSH1 0x4 DUP1 DUP4 ADD SWAP3 PUSH1 0xA0 SWAP3 SWAP2 SWAP1 DUP3 SWAP1 SUB ADD DUP2 DUP7 GAS STATICCALL SWAP3 POP POP POP DUP1 ISZERO PUSH2 0x191E JUMPI POP PUSH1 0x40 DUP1 MLOAD PUSH1 0x1F RETURNDATASIZE SWAP1 DUP2 ADD PUSH1 0x1F NOT AND DUP3 ADD SWAP1 SWAP3 MSTORE PUSH2 0x191B SWAP2 DUP2 ADD SWAP1 PUSH2 0x4242 JUMP JUMPDEST PUSH1 0x1 JUMPDEST PUSH2 0xE92 JUMPI PUSH1 0x40 MLOAD PUSH3 0x461BCD PUSH1 0xE5 SHL DUP2 MSTORE PUSH1 0x20 PUSH1 0x4 DUP3 ADD MSTORE PUSH1 0x3B PUSH1 0x24 DUP3 ADD MSTORE PUSH1 0x0 DUP1 MLOAD PUSH1 0x20 PUSH2 0x48BF DUP4 CODECOPY DUP2 MLOAD SWAP2 MSTORE PUSH1 0x44 DUP3 ADD MSTORE PUSH32 0x20574554482070726963652066726F6D20746865206F7261636C650000000000 PUSH1 0x64 DUP3 ADD MSTORE PUSH1 0x84 ADD PUSH2 0xB4D JUMP JUMPDEST PUSH2 0x1986 PUSH2 0x3B6D JUMP JUMPDEST PUSH2 0x198E PUSH2 0x3C8B JUMP JUMPDEST JUMP JUMPDEST PUSH2 0x1998 PUSH2 0x2D7A JUMP JUMPDEST PUSH1 0x1 PUSH1 0x1 PUSH1 0xA0 SHL SUB AND CALLER PUSH1 0x1 PUSH1 0x1 PUSH1 0xA0 SHL SUB AND EQ DUP1 PUSH2 0x19C1 JUMPI POP PUSH1 0x3B SLOAD PUSH1 0x1 PUSH1 0x1 PUSH1 0xA0 SHL SUB AND CALLER EQ JUMPDEST PUSH2 0x19DD JUMPI PUSH1 0x40 MLOAD PUSH3 0x461BCD PUSH1 0xE5 SHL DUP2 MSTORE PUSH1 0x4 ADD PUSH2 0xB4D SWAP1 PUSH2 0x4176 JUMP JUMPDEST PUSH1 0x1 PUSH1 0x1 PUSH1 0xA0 SHL SUB DUP2 AND PUSH2 0x1A67 JUMPI PUSH1 0x40 MLOAD PUSH3 0x461BCD PUSH1 0xE5 SHL DUP2 MSTORE PUSH1 0x20 PUSH1 0x4 DUP3 ADD MSTORE PUSH1 0x45 PUSH1 0x24 DUP3 ADD MSTORE PUSH32 0x496E766573746F72206164647265737320746F2061646420746F207468652077 PUSH1 0x44 DUP3 ADD MSTORE PUSH32 0x68697465206C6973742063616E206E6F7420626520746865207A65726F206164 PUSH1 0x64 DUP3 ADD MSTORE PUSH5 0x6472657373 PUSH1 0xD8 SHL PUSH1 0x84 DUP3 ADD MSTORE PUSH1 0xA4 ADD PUSH2 0xB4D JUMP JUMPDEST PUSH1 0x1 PUSH1 0x1 PUSH1 0xA0 SHL SUB DUP2 AND PUSH1 0x0 SWAP1 DUP2 MSTORE PUSH1 0x3D PUSH1 0x20 MSTORE PUSH1 0x40 SWAP1 KECCAK256 SLOAD PUSH1 0xFF AND ISZERO PUSH2 0x1AF6 JUMPI PUSH1 0x40 MLOAD PUSH3 0x461BCD PUSH1 0xE5 SHL DUP2 MSTORE PUSH1 0x20 PUSH1 0x4 DUP3 ADD MSTORE PUSH1 0x3E PUSH1 0x24 DUP3 ADD MSTORE PUSH32 0x5468617420696E766573746F7220616464726573732068617320616C72656164 PUSH1 0x44 DUP3 ADD MSTORE PUSH32 0x79206265656E20616464656420746F20746865207768697465206C6973740000 PUSH1 0x64 DUP3 ADD MSTORE PUSH1 0x84 ADD PUSH2 0xB4D JUMP JUMPDEST PUSH1 0x40 DUP1 MLOAD PUSH1 0x80 DUP2 ADD DUP3 MSTORE PUSH1 0x0 PUSH1 0x20 DUP1 DUP4 ADD DUP3 DUP2 MSTORE DUP4 DUP6 ADD DUP4 DUP2 MSTORE PUSH1 0x60 DUP6 ADD DUP5 DUP2 MSTORE PUSH1 0x1 DUP1 DUP8 MSTORE PUSH1 0x1 PUSH1 0x1 PUSH1 0xA0 SHL SUB DUP10 AND DUP7 MSTORE PUSH1 0x3D SWAP1 SWAP5 MSTORE SWAP4 DUP7 SWAP1 KECCAK256 DUP6 MLOAD DUP2 SLOAD SWAP4 MLOAD PUSH2 0xFFFF NOT SWAP1 SWAP5 AND SWAP1 ISZERO ISZERO PUSH2 0xFF00 NOT AND OR PUSH2 0x100 SWAP4 ISZERO ISZERO SWAP4 SWAP1 SWAP4 MUL SWAP3 SWAP1 SWAP3 OR DUP3 SSTORE MLOAD SWAP2 DUP2 ADD SWAP2 SWAP1 SWAP2 SSTORE SWAP1 MLOAD PUSH1 0x2 SWAP1 SWAP2 ADD SSTORE SWAP1 MLOAD PUSH32 0x8419B79DC227F7841E7BF32CEA35C3F90FE5B3DA68CDE93ADEF3C32745C587DE SWAP1 PUSH2 0x109B SWAP1 CALLER SWAP1 DUP6 SWAP1 PUSH2 0x41D4 JUMP JUMPDEST PUSH2 0x1BA0 PUSH2 0x3B6D JUMP JUMPDEST PUSH1 0x1 PUSH1 0x1 PUSH1 0xA0 SHL SUB DUP2 AND PUSH2 0x1BC6 JUMPI PUSH1 0x40 MLOAD PUSH3 0x461BCD PUSH1 0xE5 SHL DUP2 MSTORE PUSH1 0x4 ADD PUSH2 0xB4D SWAP1 PUSH2 0x45B5 JUMP JUMPDEST PUSH1 0x4C SLOAD PUSH1 0x1 PUSH1 0x1 PUSH1 0xA0 SHL SUB SWAP1 DUP2 AND SWAP1 DUP3 AND SUB PUSH2 0x1C38 JUMPI PUSH1 0x40 MLOAD PUSH3 0x461BCD PUSH1 0xE5 SHL DUP2 MSTORE PUSH1 0x20 PUSH1 0x4 DUP3 ADD MSTORE PUSH1 0x3A PUSH1 0x24 DUP3 ADD MSTORE PUSH32 0x5745544820746F6B656E20616464726573732068617320616C72656164792062 PUSH1 0x44 DUP3 ADD MSTORE PUSH1 0x0 DUP1 MLOAD PUSH1 0x20 PUSH2 0x489F DUP4 CODECOPY DUP2 MLOAD SWAP2 MSTORE PUSH1 0x64 DUP3 ADD MSTORE PUSH1 0x84 ADD PUSH2 0xB4D JUMP JUMPDEST PUSH1 0x4C DUP1 SLOAD PUSH1 0x1 PUSH1 0x1 PUSH1 0xA0 SHL SUB DUP4 AND PUSH1 0x1 PUSH1 0x1 PUSH1 0xA0 SHL SUB NOT SWAP2 DUP3 AND DUP2 OR SWAP1 SWAP3 SSTORE PUSH1 0x4F DUP1 SLOAD SWAP1 SWAP2 AND SWAP1 SWAP2 OR SWAP1 SSTORE PUSH1 0x40 MLOAD PUSH32 0xF5FD160F565AC0E80215E9ECED5AFBFCD47389E99858FAC6A3D93F2EC38FF6D6 SWAP1 PUSH2 0xD15 SWAP1 DUP4 SWAP1 PUSH2 0x4049 JUMP JUMPDEST PUSH2 0x1C9B PUSH2 0x3B6D JUMP JUMPDEST PUSH1 0x1 PUSH1 0x1 PUSH1 0xA0 SHL SUB DUP2 AND PUSH2 0x1CC1 JUMPI PUSH1 0x40 MLOAD PUSH3 0x461BCD PUSH1 0xE5 SHL DUP2 MSTORE PUSH1 0x4 ADD PUSH2 0xB4D SWAP1 PUSH2 0x45B5 JUMP JUMPDEST PUSH1 0x44 SLOAD PUSH1 0x1 PUSH1 0x1 PUSH1 0xA0 SHL SUB SWAP1 DUP2 AND SWAP1 DUP3 AND SUB PUSH2 0x1D33 JUMPI PUSH1 0x40 MLOAD PUSH3 0x461BCD PUSH1 0xE5 SHL DUP2 MSTORE PUSH1 0x20 PUSH1 0x4 DUP3 ADD MSTORE PUSH1 0x3A PUSH1 0x24 DUP3 ADD MSTORE PUSH32 0x5553445420746F6B656E20616464726573732068617320616C72656164792062 PUSH1 0x44 DUP3 ADD MSTORE PUSH1 0x0 DUP1 MLOAD PUSH1 0x20 PUSH2 0x489F DUP4 CODECOPY DUP2 MLOAD SWAP2 MSTORE PUSH1 0x64 DUP3 ADD MSTORE PUSH1 0x84 ADD PUSH2 0xB4D JUMP JUMPDEST PUSH1 0x44 DUP1 SLOAD PUSH1 0x1 PUSH1 0x1 PUSH1 0xA0 SHL SUB DUP4 AND PUSH1 0x1 PUSH1 0x1 PUSH1 0xA0 SHL SUB NOT SWAP2 DUP3 AND DUP2 OR SWAP1 SWAP3 SSTORE PUSH1 0x47 DUP1 SLOAD SWAP1 SWAP2 AND SWAP1 SWAP2 OR SWAP1 SSTORE PUSH1 0x40 MLOAD PUSH32 0x1C2D8A05BE2C8ECA524D44CC224513D7E19CA97AC309C3E23BEE450F8578CA19 SWAP1 PUSH2 0xD15 SWAP1 DUP4 SWAP1 PUSH2 0x4049 JUMP JUMPDEST PUSH2 0x1D96 PUSH2 0x3B6D JUMP JUMPDEST PUSH1 0x0 DUP2 GT PUSH2 0x1E06 JUMPI PUSH1 0x40 MLOAD PUSH3 0x461BCD PUSH1 0xE5 SHL DUP2 MSTORE PUSH1 0x20 PUSH1 0x4 DUP3 ADD MSTORE PUSH1 0x37 PUSH1 0x24 DUP3 ADD MSTORE PUSH32 0x4E6577206D6178696D756D20616D6F756E7420746F20696E766573742C206D75 PUSH1 0x44 DUP3 ADD MSTORE PUSH23 0x73742062652067726561746572207468616E207A65726F PUSH1 0x48 SHL PUSH1 0x64 DUP3 ADD MSTORE PUSH1 0x84 ADD PUSH2 0xB4D JUMP JUMPDEST PUSH1 0x3A SLOAD DUP2 SUB PUSH2 0x1E8B JUMPI PUSH1 0x40 MLOAD PUSH3 0x461BCD PUSH1 0xE5 SHL DUP2 MSTORE PUSH1 0x20 PUSH1 0x4 DUP3 ADD MSTORE PUSH1 0x45 PUSH1 0x24 DUP3 ADD MSTORE PUSH32 0x4E6577206D6178696D756D20616D6F756E7420746F20696E766573742C206861 PUSH1 0x44 DUP3 ADD MSTORE PUSH32 0x7320616C7265616479206265656E206D6F64696669656420746F207468617420 PUSH1 0x64 DUP3 ADD MSTORE PUSH5 0x76616C7565 PUSH1 0xD8 SHL PUSH1 0x84 DUP3 ADD MSTORE PUSH1 0xA4 ADD PUSH2 0xB4D JUMP JUMPDEST PUSH1 0x39 SLOAD DUP2 LT ISZERO PUSH2 0x1F1D JUMPI PUSH1 0x40 MLOAD PUSH3 0x461BCD PUSH1 0xE5 SHL DUP2 MSTORE PUSH1 0x20 PUSH1 0x4 DUP3 ADD MSTORE PUSH1 0x51 PUSH1 0x24 DUP3 ADD MSTORE PUSH32 0x4E6577206D6178696D756D20616D6F756E7420746F20696E766573742C206D75 PUSH1 0x44 DUP3 ADD MSTORE PUSH32 0x73742062652067726561746572207468616E20746865206D696E696D756D2069 PUSH1 0x64 DUP3 ADD MSTORE PUSH17 0x1B9D995CDD1B595B9D08185B1B1BDDD959 PUSH1 0x7A SHL PUSH1 0x84 DUP3 ADD MSTORE PUSH1 0xA4 ADD PUSH2 0xB4D JUMP JUMPDEST PUSH1 0x3A DUP2 SWAP1 SSTORE PUSH1 0x40 MLOAD DUP2 DUP2 MSTORE PUSH32 0x29D434EC19958E7CE86CA2870F5927AB4F948D916DCFFC568C1343C1E1F76566 SWAP1 PUSH1 0x20 ADD PUSH2 0xD15 JUMP JUMPDEST PUSH2 0x1F5A PUSH2 0x3B6D JUMP JUMPDEST PUSH1 0x1 PUSH1 0x1 PUSH1 0xA0 SHL SUB DUP2 AND PUSH2 0x1FCD JUMPI PUSH1 0x40 MLOAD PUSH3 0x461BCD PUSH1 0xE5 SHL DUP2 MSTORE PUSH1 0x20 PUSH1 0x4 DUP3 ADD MSTORE PUSH1 0x34 PUSH1 0x24 DUP3 ADD MSTORE PUSH32 0x546865207768697465206C697374657220616464726573732063616E206E6F74 PUSH1 0x44 DUP3 ADD MSTORE PUSH20 0x20626520746865207A65726F2061646472657373 PUSH1 0x60 SHL PUSH1 0x64 DUP3 ADD MSTORE PUSH1 0x84 ADD PUSH2 0xB4D JUMP JUMPDEST PUSH1 0x3B SLOAD PUSH1 0x1 PUSH1 0x1 PUSH1 0xA0 SHL SUB SWAP1 DUP2 AND SWAP1 DUP3 AND SUB PUSH2 0x2051 JUMPI PUSH1 0x40 MLOAD PUSH3 0x461BCD PUSH1 0xE5 SHL DUP2 MSTORE PUSH1 0x20 PUSH1 0x4 DUP3 ADD MSTORE PUSH1 0x3C PUSH1 0x24 DUP3 ADD MSTORE PUSH32 0x5768697465206C697374657220616464726573732068617320616C7265616479 PUSH1 0x44 DUP3 ADD MSTORE PUSH32 0x206265656E206D6F64696669656420746F20746861742076616C756500000000 PUSH1 0x64 DUP3 ADD MSTORE PUSH1 0x84 ADD PUSH2 0xB4D JUMP JUMPDEST PUSH1 0x3B DUP1 SLOAD PUSH1 0x1 PUSH1 0x1 PUSH1 0xA0 SHL SUB NOT AND PUSH1 0x1 PUSH1 0x1 PUSH1 0xA0 SHL SUB DUP4 AND OR SWAP1 SSTORE PUSH1 0x40 MLOAD PUSH32 0x32359536720ADEDFB2B6C6DD7685519F09FDF93CE7824B68D5B2F56354FDEBEC SWAP1 PUSH2 0xD15 SWAP1 DUP4 SWAP1 PUSH2 0x4049 JUMP JUMPDEST PUSH2 0x20A4 PUSH2 0x3B6D JUMP JUMPDEST PUSH2 0x198E PUSH1 0x0 PUSH2 0x3CD7 JUMP JUMPDEST CALLER PUSH1 0x0 SWAP1 DUP2 MSTORE PUSH1 0x3D PUSH1 0x20 MSTORE PUSH1 0x40 DUP2 KECCAK256 SLOAD PUSH1 0xFF AND PUSH2 0x20DD JUMPI PUSH1 0x40 MLOAD PUSH3 0x461BCD PUSH1 0xE5 SHL DUP2 MSTORE PUSH1 0x4 ADD PUSH2 0xB4D SWAP1 PUSH2 0x4602 JUMP JUMPDEST PUSH2 0x20E5 PUSH2 0xAFF JUMP JUMPDEST PUSH1 0x0 DUP1 PUSH1 0x1 DUP6 PUSH1 0x4 DUP2 GT ISZERO PUSH2 0x20FC JUMPI PUSH2 0x20FC PUSH2 0x46E0 JUMP JUMPDEST SUB PUSH2 0x2182 JUMPI PUSH1 0x43 PUSH1 0x0 SWAP1 SLOAD SWAP1 PUSH2 0x100 EXP SWAP1 DIV PUSH1 0x1 PUSH1 0x1 PUSH1 0xA0 SHL SUB AND SWAP2 POP ADDRESS PUSH1 0x1 PUSH1 0x1 PUSH1 0xA0 SHL SUB AND PUSH4 0xD39F4561 PUSH1 0x40 MLOAD DUP2 PUSH4 0xFFFFFFFF AND PUSH1 0xE0 SHL DUP2 MSTORE PUSH1 0x4 ADD PUSH1 0x20 PUSH1 0x40 MLOAD DUP1 DUP4 SUB DUP2 DUP7 GAS STATICCALL ISZERO DUP1 ISZERO PUSH2 0x2157 JUMPI RETURNDATASIZE PUSH1 0x0 DUP1 RETURNDATACOPY RETURNDATASIZE PUSH1 0x0 REVERT JUMPDEST POP POP POP POP PUSH1 0x40 MLOAD RETURNDATASIZE PUSH1 0x1F NOT PUSH1 0x1F DUP3 ADD AND DUP3 ADD DUP1 PUSH1 0x40 MSTORE POP DUP2 ADD SWAP1 PUSH2 0x217B SWAP2 SWAP1 PUSH2 0x46F6 JUMP JUMPDEST SWAP1 POP PUSH2 0x230C JUMP JUMPDEST PUSH1 0x2 DUP6 PUSH1 0x4 DUP2 GT ISZERO PUSH2 0x2196 JUMPI PUSH2 0x2196 PUSH2 0x46E0 JUMP JUMPDEST SUB PUSH2 0x21F1 JUMPI PUSH1 0x47 PUSH1 0x0 SWAP1 SLOAD SWAP1 PUSH2 0x100 EXP SWAP1 DIV PUSH1 0x1 PUSH1 0x1 PUSH1 0xA0 SHL SUB AND SWAP2 POP ADDRESS PUSH1 0x1 PUSH1 0x1 PUSH1 0xA0 SHL SUB AND PUSH4 0x2EB93086 PUSH1 0x40 MLOAD DUP2 PUSH4 0xFFFFFFFF AND PUSH1 0xE0 SHL DUP2 MSTORE PUSH1 0x4 ADD PUSH1 0x20 PUSH1 0x40 MLOAD DUP1 DUP4 SUB DUP2 DUP7 GAS STATICCALL ISZERO DUP1 ISZERO PUSH2 0x2157 JUMPI RETURNDATASIZE PUSH1 0x0 DUP1 RETURNDATACOPY RETURNDATASIZE PUSH1 0x0 REVERT JUMPDEST PUSH1 0x3 DUP6 PUSH1 0x4 DUP2 GT ISZERO PUSH2 0x2205 JUMPI PUSH2 0x2205 PUSH2 0x46E0 JUMP JUMPDEST SUB PUSH2 0x2260 JUMPI PUSH1 0x4B PUSH1 0x0 SWAP1 SLOAD SWAP1 PUSH2 0x100 EXP SWAP1 DIV PUSH1 0x1 PUSH1 0x1 PUSH1 0xA0 SHL SUB AND SWAP2 POP ADDRESS PUSH1 0x1 PUSH1 0x1 PUSH1 0xA0 SHL SUB AND PUSH4 0xFC77056F PUSH1 0x40 MLOAD DUP2 PUSH4 0xFFFFFFFF AND PUSH1 0xE0 SHL DUP2 MSTORE PUSH1 0x4 ADD PUSH1 0x20 PUSH1 0x40 MLOAD DUP1 DUP4 SUB DUP2 DUP7 GAS STATICCALL ISZERO DUP1 ISZERO PUSH2 0x2157 JUMPI RETURNDATASIZE PUSH1 0x0 DUP1 RETURNDATACOPY RETURNDATASIZE PUSH1 0x0 REVERT JUMPDEST PUSH1 0x4 DUP6 PUSH1 0x4 DUP2 GT ISZERO PUSH2 0x2274 JUMPI PUSH2 0x2274 PUSH2 0x46E0 JUMP JUMPDEST SUB PUSH2 0x22CF JUMPI PUSH1 0x4F PUSH1 0x0 SWAP1 SLOAD SWAP1 PUSH2 0x100 EXP SWAP1 DIV PUSH1 0x1 PUSH1 0x1 PUSH1 0xA0 SHL SUB AND SWAP2 POP ADDRESS PUSH1 0x1 PUSH1 0x1 PUSH1 0xA0 SHL SUB AND PUSH4 0x3EBDA614 PUSH1 0x40 MLOAD DUP2 PUSH4 0xFFFFFFFF AND PUSH1 0xE0 SHL DUP2 MSTORE PUSH1 0x4 ADD PUSH1 0x20 PUSH1 0x40 MLOAD DUP1 DUP4 SUB DUP2 DUP7 GAS STATICCALL ISZERO DUP1 ISZERO PUSH2 0x2157 JUMPI RETURNDATASIZE PUSH1 0x0 DUP1 RETURNDATACOPY RETURNDATASIZE PUSH1 0x0 REVERT JUMPDEST PUSH1 0x40 MLOAD PUSH3 0x461BCD PUSH1 0xE5 SHL DUP2 MSTORE PUSH1 0x20 PUSH1 0x4 DUP3 ADD MSTORE PUSH1 0x12 PUSH1 0x24 DUP3 ADD MSTORE PUSH18 0x496E76616C696420746F6B656E2074797065 PUSH1 0x70 SHL PUSH1 0x44 DUP3 ADD MSTORE PUSH1 0x64 ADD PUSH2 0xB4D JUMP JUMPDEST PUSH1 0x0 DUP1 PUSH2 0x2319 DUP7 DUP5 PUSH2 0x2C1F JUMP JUMPDEST SWAP2 POP SWAP2 POP PUSH2 0x2327 DUP3 CALLER PUSH2 0x27FD JUMP JUMPDEST PUSH1 0x40 MLOAD PUSH4 0x23B872DD PUSH1 0xE0 SHL DUP2 MSTORE CALLER PUSH1 0x4 DUP3 ADD MSTORE ADDRESS PUSH1 0x24 DUP3 ADD MSTORE PUSH1 0x44 DUP2 ADD DUP8 SWAP1 MSTORE PUSH1 0x1 PUSH1 0x1 PUSH1 0xA0 SHL SUB DUP6 AND SWAP1 PUSH4 0x23B872DD SWAP1 PUSH1 0x64 ADD PUSH1 0x20 PUSH1 0x40 MLOAD DUP1 DUP4 SUB DUP2 PUSH1 0x0 DUP8 GAS CALL ISZERO DUP1 ISZERO PUSH2 0x237A JUMPI RETURNDATASIZE PUSH1 0x0 DUP1 RETURNDATACOPY RETURNDATASIZE PUSH1 0x0 REVERT JUMPDEST POP POP POP POP PUSH1 0x40 MLOAD RETURNDATASIZE PUSH1 0x1F NOT PUSH1 0x1F DUP3 ADD AND DUP3 ADD DUP1 PUSH1 0x40 MSTORE POP DUP2 ADD SWAP1 PUSH2 0x239E SWAP2 SWAP1 PUSH2 0x4657 JUMP JUMPDEST PUSH2 0x2407 JUMPI PUSH1 0x40 MLOAD PUSH3 0x461BCD PUSH1 0xE5 SHL DUP2 MSTORE PUSH1 0x20 PUSH1 0x4 DUP3 ADD MSTORE PUSH1 0x34 PUSH1 0x24 DUP3 ADD MSTORE PUSH32 0x54686572652077617320616E206572726F72206F6E20726563656976696E6720 PUSH1 0x44 DUP3 ADD MSTORE PUSH20 0x1D1A19481D1BDAD95B881A5B9D995CDD1B595B9D PUSH1 0x62 SHL PUSH1 0x64 DUP3 ADD MSTORE PUSH1 0x84 ADD PUSH2 0xB4D JUMP JUMPDEST PUSH1 0x3C SLOAD PUSH1 0x40 MLOAD PUSH4 0xA9059CBB PUSH1 0xE0 SHL DUP2 MSTORE PUSH1 0x1 PUSH1 0x1 PUSH1 0xA0 SHL SUB DUP7 DUP2 AND SWAP3 PUSH4 0xA9059CBB SWAP3 PUSH2 0x243B SWAP3 SWAP1 SWAP2 AND SWAP1 DUP11 SWAP1 PUSH1 0x4 ADD PUSH2 0x4550 JUMP JUMPDEST PUSH1 0x20 PUSH1 0x40 MLOAD DUP1 DUP4 SUB DUP2 PUSH1 0x0 DUP8 GAS CALL ISZERO DUP1 ISZERO PUSH2 0x245A JUMPI RETURNDATASIZE PUSH1 0x0 DUP1 RETURNDATACOPY RETURNDATASIZE PUSH1 0x0 REVERT JUMPDEST POP POP POP POP PUSH1 0x40 MLOAD RETURNDATASIZE PUSH1 0x1F NOT PUSH1 0x1F DUP3 ADD AND DUP3 ADD DUP1 PUSH1 0x40 MSTORE POP DUP2 ADD SWAP1 PUSH2 0x247E SWAP2 SWAP1 PUSH2 0x4657 JUMP JUMPDEST PUSH2 0x24FB JUMPI PUSH1 0x40 MLOAD PUSH3 0x461BCD PUSH1 0xE5 SHL DUP2 MSTORE PUSH1 0x20 PUSH1 0x4 DUP3 ADD MSTORE PUSH1 0x42 PUSH1 0x24 DUP3 ADD MSTORE PUSH32 0x54686572652077617320616E206572726F72206F6E2073656E64696E67207468 PUSH1 0x44 DUP3 ADD MSTORE PUSH32 0x6520746F6B656E20696E766573746D656E7420746F2074686520747265617375 PUSH1 0x64 DUP3 ADD MSTORE PUSH2 0x7279 PUSH1 0xF0 SHL PUSH1 0x84 DUP3 ADD MSTORE PUSH1 0xA4 ADD PUSH2 0xB4D JUMP JUMPDEST PUSH1 0x40 MLOAD PUSH4 0xA9059CBB PUSH1 0xE0 SHL DUP2 MSTORE ADDRESS SWAP1 PUSH4 0xA9059CBB SWAP1 PUSH2 0x2520 SWAP1 CALLER SWAP1 DUP6 SWAP1 PUSH1 0x4 ADD PUSH2 0x4550 JUMP JUMPDEST PUSH1 0x20 PUSH1 0x40 MLOAD DUP1 DUP4 SUB DUP2 PUSH1 0x0 DUP8 GAS CALL ISZERO DUP1 ISZERO PUSH2 0x253F JUMPI RETURNDATASIZE PUSH1 0x0 DUP1 RETURNDATACOPY RETURNDATASIZE PUSH1 0x0 REVERT JUMPDEST POP POP POP POP PUSH1 0x40 MLOAD RETURNDATASIZE PUSH1 0x1F NOT PUSH1 0x1F DUP3 ADD AND DUP3 ADD DUP1 PUSH1 0x40 MSTORE POP DUP2 ADD SWAP1 PUSH2 0x2563 SWAP2 SWAP1 PUSH2 0x4657 JUMP JUMPDEST PUSH2 0x257F JUMPI PUSH1 0x40 MLOAD PUSH3 0x461BCD PUSH1 0xE5 SHL DUP2 MSTORE PUSH1 0x4 ADD PUSH2 0xB4D SWAP1 PUSH2 0x4679 JUMP JUMPDEST CALLER PUSH1 0x0 SWAP1 DUP2 MSTORE PUSH1 0x3D PUSH1 0x20 MSTORE PUSH1 0x40 DUP2 KECCAK256 PUSH1 0x2 ADD DUP1 SLOAD DUP5 SWAP3 SWAP1 PUSH2 0x25A1 SWAP1 DUP5 SWAP1 PUSH2 0x453D JUMP JUMPDEST SWAP1 SWAP2 SSTORE POP POP CALLER PUSH1 0x0 SWAP1 DUP2 MSTORE PUSH1 0x3D PUSH1 0x20 MSTORE PUSH1 0x40 DUP2 KECCAK256 PUSH1 0x1 ADD DUP1 SLOAD DUP4 SWAP3 SWAP1 PUSH2 0x25C8 SWAP1 DUP5 SWAP1 PUSH2 0x453D JUMP JUMPDEST SWAP1 SWAP2 SSTORE POP POP PUSH1 0x40 MLOAD PUSH32 0x3B60324B6DB90922773BDE8799E6D3B7D574474A0FB52A6D340BD2EE92B5EDBC SWAP1 PUSH2 0x2605 SWAP1 DUP10 SWAP1 CALLER SWAP1 DUP11 SWAP1 DUP8 SWAP1 DUP8 SWAP1 PUSH2 0x470F JUMP JUMPDEST PUSH1 0x40 MLOAD DUP1 SWAP2 SUB SWAP1 LOG1 PUSH1 0x1 SWAP5 POP POP POP POP POP PUSH2 0xDC6 PUSH1 0x1 PUSH1 0x6 SSTORE JUMP JUMPDEST PUSH2 0x2627 PUSH2 0x2D7A JUMP JUMPDEST PUSH1 0x1 PUSH1 0x1 PUSH1 0xA0 SHL SUB AND CALLER PUSH1 0x1 PUSH1 0x1 PUSH1 0xA0 SHL SUB AND EQ DUP1 PUSH2 0x2650 JUMPI POP PUSH1 0x3B SLOAD PUSH1 0x1 PUSH1 0x1 PUSH1 0xA0 SHL SUB AND CALLER EQ JUMPDEST PUSH2 0x266C JUMPI PUSH1 0x40 MLOAD PUSH3 0x461BCD PUSH1 0xE5 SHL DUP2 MSTORE PUSH1 0x4 ADD PUSH2 0xB4D SWAP1 PUSH2 0x4176 JUMP JUMPDEST PUSH1 0x1 PUSH1 0x1 PUSH1 0xA0 SHL SUB DUP2 AND PUSH2 0x2708 JUMPI PUSH1 0x40 MLOAD PUSH3 0x461BCD PUSH1 0xE5 SHL DUP2 MSTORE PUSH1 0x20 PUSH1 0x4 DUP3 ADD MSTORE PUSH1 0x57 PUSH1 0x24 DUP3 ADD MSTORE PUSH32 0x496E766573746F72206164647265737320746F2072656D6F76652066726F6D20 PUSH1 0x44 DUP3 ADD MSTORE PUSH32 0x746865207175616C696669656420696E766573746F72206C6973742063616E20 PUSH1 0x64 DUP3 ADD MSTORE PUSH23 0x6E6F7420626520746865207A65726F2061646472657373 PUSH1 0x48 SHL PUSH1 0x84 DUP3 ADD MSTORE PUSH1 0xA4 ADD PUSH2 0xB4D JUMP JUMPDEST PUSH1 0x1 PUSH1 0x1 PUSH1 0xA0 SHL SUB DUP2 AND PUSH1 0x0 SWAP1 DUP2 MSTORE PUSH1 0x3D PUSH1 0x20 MSTORE PUSH1 0x40 SWAP1 KECCAK256 SLOAD PUSH2 0x100 SWAP1 DIV PUSH1 0xFF AND PUSH2 0x27AA JUMPI PUSH1 0x40 MLOAD PUSH3 0x461BCD PUSH1 0xE5 SHL DUP2 MSTORE PUSH1 0x20 PUSH1 0x4 DUP3 ADD MSTORE PUSH1 0x46 PUSH1 0x24 DUP3 ADD MSTORE PUSH32 0x5468617420696E766573746F722061646472657373206973206E6F7420726567 PUSH1 0x44 DUP3 ADD MSTORE PUSH32 0x69737465726564206F6E20746865207175616C696669656420696E766573746F PUSH1 0x64 DUP3 ADD MSTORE PUSH6 0x1C881B1A5CDD PUSH1 0xD2 SHL PUSH1 0x84 DUP3 ADD MSTORE PUSH1 0xA4 ADD PUSH2 0xB4D JUMP JUMPDEST PUSH1 0x1 PUSH1 0x1 PUSH1 0xA0 SHL SUB DUP2 AND PUSH1 0x0 SWAP1 DUP2 MSTORE PUSH1 0x3D PUSH1 0x20 MSTORE PUSH1 0x40 SWAP1 DUP2 SWAP1 KECCAK256 DUP1 SLOAD PUSH2 0xFF00 NOT AND SWAP1 SSTORE MLOAD PUSH32 0x2AC92C349A800CA8B882E6D59E4F5C08CA2DB952C08627C6CD4AB754A93B7BA3 SWAP1 PUSH2 0xD15 SWAP1 CALLER SWAP1 DUP5 SWAP1 PUSH2 0x41D4 JUMP JUMPDEST PUSH1 0x1 PUSH1 0x1 PUSH1 0xA0 SHL SUB DUP2 AND PUSH1 0x0 SWAP1 DUP2 MSTORE PUSH1 0x3D PUSH1 0x20 MSTORE PUSH1 0x40 DUP2 KECCAK256 PUSH1 0x2 ADD SLOAD PUSH2 0x2823 SWAP1 DUP5 PUSH2 0x453D JUMP JUMPDEST SWAP1 POP PUSH1 0x3A SLOAD DUP2 GT ISZERO PUSH2 0x28CD JUMPI PUSH1 0x1 PUSH1 0x1 PUSH1 0xA0 SHL SUB DUP3 AND PUSH1 0x0 SWAP1 DUP2 MSTORE PUSH1 0x3D PUSH1 0x20 MSTORE PUSH1 0x40 SWAP1 KECCAK256 SLOAD PUSH2 0x100 SWAP1 DIV PUSH1 0xFF AND PUSH2 0x28CD JUMPI PUSH1 0x40 MLOAD PUSH3 0x461BCD PUSH1 0xE5 SHL DUP2 MSTORE PUSH1 0x20 PUSH1 0x4 DUP3 ADD MSTORE PUSH1 0x42 PUSH1 0x24 DUP3 ADD MSTORE PUSH32 0x546F20627579207468617420616D6F756E74206F662048594158206974732072 PUSH1 0x44 DUP3 ADD MSTORE PUSH32 0x6571756972656420746F2062652061207175616C696669656420696E76657374 PUSH1 0x64 DUP3 ADD MSTORE PUSH2 0x37B9 PUSH1 0xF1 SHL PUSH1 0x84 DUP3 ADD MSTORE PUSH1 0xA4 ADD PUSH2 0xB4D JUMP JUMPDEST POP POP POP JUMP JUMPDEST PUSH2 0x28DA PUSH2 0x3B6D JUMP JUMPDEST PUSH1 0x1 PUSH1 0x1 PUSH1 0xA0 SHL SUB DUP2 AND PUSH2 0x2900 JUMPI PUSH1 0x40 MLOAD PUSH3 0x461BCD PUSH1 0xE5 SHL DUP2 MSTORE PUSH1 0x4 ADD PUSH2 0xB4D SWAP1 PUSH2 0x4292 JUMP JUMPDEST PUSH1 0x45 SLOAD PUSH1 0x1 PUSH1 0x1 PUSH1 0xA0 SHL SUB SWAP1 DUP2 AND SWAP1 DUP3 AND SUB PUSH2 0x2972 JUMPI PUSH1 0x40 MLOAD PUSH3 0x461BCD PUSH1 0xE5 SHL DUP2 MSTORE PUSH1 0x20 PUSH1 0x4 DUP3 ADD MSTORE PUSH1 0x3F PUSH1 0x24 DUP3 ADD MSTORE PUSH32 0x55534454207072696365206665656420616464726573732068617320616C7265 PUSH1 0x44 DUP3 ADD MSTORE PUSH1 0x0 DUP1 MLOAD PUSH1 0x20 PUSH2 0x48FF DUP4 CODECOPY DUP2 MLOAD SWAP2 MSTORE PUSH1 0x64 DUP3 ADD MSTORE PUSH1 0x84 ADD PUSH2 0xB4D JUMP JUMPDEST PUSH1 0x0 DUP2 SWAP1 POP DUP1 PUSH1 0x1 PUSH1 0x1 PUSH1 0xA0 SHL SUB AND PUSH4 0x7284E416 PUSH1 0x40 MLOAD DUP2 PUSH4 0xFFFFFFFF AND PUSH1 0xE0 SHL DUP2 MSTORE PUSH1 0x4 ADD PUSH1 0x0 PUSH1 0x40 MLOAD DUP1 DUP4 SUB DUP2 DUP7 GAS STATICCALL SWAP3 POP POP POP DUP1 ISZERO PUSH2 0x29D6 JUMPI POP PUSH1 0x40 MLOAD RETURNDATASIZE PUSH1 0x0 DUP3 RETURNDATACOPY PUSH1 0x1F RETURNDATASIZE SWAP1 DUP2 ADD PUSH1 0x1F NOT AND DUP3 ADD PUSH1 0x40 MSTORE PUSH2 0x29D3 SWAP2 SWAP1 DUP2 ADD SWAP1 PUSH2 0x42FF JUMP JUMPDEST PUSH1 0x1 JUMPDEST PUSH2 0x29F2 JUMPI PUSH1 0x40 MLOAD PUSH3 0x461BCD PUSH1 0xE5 SHL DUP2 MSTORE PUSH1 0x4 ADD PUSH2 0xB4D SWAP1 PUSH2 0x475B JUMP JUMPDEST PUSH1 0x40 MLOAD PUSH10 0x1554D115080BC81554D1 PUSH1 0xB2 SHL PUSH1 0x20 DUP3 ADD MSTORE PUSH1 0x0 SWAP1 PUSH1 0x2A ADD PUSH1 0x40 MLOAD PUSH1 0x20 DUP2 DUP4 SUB SUB DUP2 MSTORE SWAP1 PUSH1 0x40 MSTORE DUP1 MLOAD SWAP1 PUSH1 0x20 ADD KECCAK256 SWAP1 POP PUSH1 0x0 DUP3 PUSH1 0x40 MLOAD PUSH1 0x20 ADD PUSH2 0x2A39 SWAP2 SWAP1 PUSH2 0x4401 JUMP JUMPDEST PUSH1 0x40 MLOAD PUSH1 0x20 DUP2 DUP4 SUB SUB DUP2 MSTORE SWAP1 PUSH1 0x40 MSTORE DUP1 MLOAD SWAP1 PUSH1 0x20 ADD KECCAK256 SWAP1 POP DUP1 DUP3 EQ PUSH2 0x2A70 JUMPI PUSH1 0x40 MLOAD PUSH3 0x461BCD PUSH1 0xE5 SHL DUP2 MSTORE PUSH1 0x4 ADD PUSH2 0xB4D SWAP1 PUSH2 0x475B JUMP JUMPDEST POP POP POP PUSH1 0x45 DUP1 SLOAD PUSH1 0x1 PUSH1 0x1 PUSH1 0xA0 SHL SUB DUP5 AND PUSH1 0x1 PUSH1 0x1 PUSH1 0xA0 SHL SUB NOT SWAP2 DUP3 AND DUP2 OR SWAP1 SWAP3 SSTORE PUSH1 0x46 DUP1 SLOAD SWAP1 SWAP2 AND SWAP1 SWAP2 OR SWAP1 SSTORE PUSH1 0x40 MLOAD PUSH32 0x1E5BFE0B7FE6FCDC586B9E3A4FBDC0BDB1346D36173963BA38C897137BA16031 SWAP1 PUSH2 0x109B SWAP1 DUP5 SWAP1 PUSH2 0x4049 JUMP JUMPDEST PUSH2 0x2AD6 PUSH2 0x3B6D JUMP JUMPDEST PUSH1 0x1 PUSH1 0x1 PUSH1 0xA0 SHL SUB DUP2 AND PUSH2 0x2B45 JUMPI PUSH1 0x40 MLOAD PUSH3 0x461BCD PUSH1 0xE5 SHL DUP2 MSTORE PUSH1 0x20 PUSH1 0x4 DUP3 ADD MSTORE PUSH1 0x30 PUSH1 0x24 DUP3 ADD MSTORE PUSH32 0x54686520747265617375727920616464726573732063616E206E6F7420626520 PUSH1 0x44 DUP3 ADD MSTORE PUSH16 0x746865207A65726F2061646472657373 PUSH1 0x80 SHL PUSH1 0x64 DUP3 ADD MSTORE PUSH1 0x84 ADD PUSH2 0xB4D JUMP JUMPDEST PUSH1 0x3C SLOAD PUSH1 0x1 PUSH1 0x1 PUSH1 0xA0 SHL SUB SWAP1 DUP2 AND SWAP1 DUP3 AND SUB PUSH2 0x2BC4 JUMPI PUSH1 0x40 MLOAD PUSH3 0x461BCD PUSH1 0xE5 SHL DUP2 MSTORE PUSH1 0x20 PUSH1 0x4 DUP3 ADD MSTORE PUSH1 0x38 PUSH1 0x24 DUP3 ADD MSTORE PUSH32 0x547265617375727920616464726573732068617320616C726561647920626565 PUSH1 0x44 DUP3 ADD MSTORE PUSH24 0x6E206D6F64696669656420746F20746861742076616C7565 PUSH1 0x40 SHL PUSH1 0x64 DUP3 ADD MSTORE PUSH1 0x84 ADD PUSH2 0xB4D JUMP JUMPDEST PUSH1 0x3C DUP1 SLOAD PUSH1 0x1 PUSH1 0x1 PUSH1 0xA0 SHL SUB NOT AND PUSH1 0x1 PUSH1 0x1 PUSH1 0xA0 SHL SUB DUP4 AND OR SWAP1 SSTORE PUSH1 0x40 MLOAD PUSH32 0x2E1E696CFB265FA16E1170D24EF04CB2262772BDE00ECF34D80BAE6722487B7F SWAP1 PUSH2 0xD15 SWAP1 DUP4 SWAP1 PUSH2 0x4049 JUMP JUMPDEST PUSH2 0x2C17 PUSH2 0x3B6D JUMP JUMPDEST PUSH2 0x198E PUSH2 0x3D31 JUMP JUMPDEST PUSH1 0x0 DUP1 PUSH4 0x5F5E100 PUSH2 0x2C31 DUP5 DUP7 PUSH2 0x4526 JUMP JUMPDEST PUSH2 0x2C3B SWAP2 SWAP1 PUSH2 0x47B0 JUMP JUMPDEST PUSH1 0x38 SLOAD SWAP1 SWAP3 POP PUSH2 0x2C4F DUP4 PUSH4 0x5F5E100 PUSH2 0x4526 JUMP JUMPDEST PUSH2 0x2C59 SWAP2 SWAP1 PUSH2 0x47B0 JUMP JUMPDEST SWAP1 POP PUSH1 0x39 SLOAD DUP3 LT ISZERO PUSH2 0x2CDD JUMPI PUSH1 0x40 MLOAD PUSH3 0x461BCD PUSH1 0xE5 SHL DUP2 MSTORE PUSH1 0x20 PUSH1 0x4 DUP3 ADD MSTORE PUSH1 0x41 PUSH1 0x24 DUP3 ADD MSTORE PUSH32 0x54686520616D6F756E7420746F20696E76657374206D75737420626520677265 PUSH1 0x44 DUP3 ADD MSTORE PUSH32 0x61746572207468616E20746865206D696E696D756D2065737461626C69736865 PUSH1 0x64 DUP3 ADD MSTORE PUSH1 0x19 PUSH1 0xFA SHL PUSH1 0x84 DUP3 ADD MSTORE PUSH1 0xA4 ADD PUSH2 0xB4D JUMP JUMPDEST ADDRESS PUSH1 0x0 SWAP1 DUP2 MSTORE PUSH1 0x20 DUP2 SWAP1 MSTORE PUSH1 0x40 SWAP1 KECCAK256 SLOAD DUP2 GT ISZERO PUSH2 0x2D73 JUMPI PUSH1 0x40 MLOAD PUSH3 0x461BCD PUSH1 0xE5 SHL DUP2 MSTORE PUSH1 0x20 PUSH1 0x4 DUP3 ADD MSTORE PUSH1 0x48 PUSH1 0x24 DUP3 ADD MSTORE PUSH32 0x54686520696E766573746D656E74206D6164652072657475726E7320616E2061 PUSH1 0x44 DUP3 ADD MSTORE PUSH32 0x6D6F756E74206F6620485941582067726561746572207468616E207468652061 PUSH1 0x64 DUP3 ADD MSTORE PUSH8 0x7661696C61626C65 PUSH1 0xC0 SHL PUSH1 0x84 DUP3 ADD MSTORE PUSH1 0xA4 ADD PUSH2 0xB4D JUMP JUMPDEST SWAP3 POP SWAP3 SWAP1 POP JUMP JUMPDEST PUSH1 0x5 SLOAD PUSH2 0x100 SWAP1 DIV PUSH1 0x1 PUSH1 0x1 PUSH1 0xA0 SHL SUB AND SWAP1 JUMP JUMPDEST PUSH2 0x2D96 PUSH2 0x2D7A JUMP JUMPDEST PUSH1 0x1 PUSH1 0x1 PUSH1 0xA0 SHL SUB AND CALLER PUSH1 0x1 PUSH1 0x1 PUSH1 0xA0 SHL SUB AND EQ DUP1 PUSH2 0x2DBF JUMPI POP PUSH1 0x3B SLOAD PUSH1 0x1 PUSH1 0x1 PUSH1 0xA0 SHL SUB AND CALLER EQ JUMPDEST PUSH2 0x2DDB JUMPI PUSH1 0x40 MLOAD PUSH3 0x461BCD PUSH1 0xE5 SHL DUP2 MSTORE PUSH1 0x4 ADD PUSH2 0xB4D SWAP1 PUSH2 0x4176 JUMP JUMPDEST PUSH1 0x1 PUSH1 0x1 PUSH1 0xA0 SHL SUB DUP2 AND PUSH2 0x2E72 JUMPI PUSH1 0x40 MLOAD PUSH3 0x461BCD PUSH1 0xE5 SHL DUP2 MSTORE PUSH1 0x20 PUSH1 0x4 DUP3 ADD MSTORE PUSH1 0x52 PUSH1 0x24 DUP3 ADD MSTORE PUSH32 0x496E766573746F72206164647265737320746F2061646420746F207468652071 PUSH1 0x44 DUP3 ADD MSTORE PUSH32 0x75616C696669656420696E766573746F72206C6973742063616E206E6F742062 PUSH1 0x64 DUP3 ADD MSTORE PUSH18 0x6520746865207A65726F2061646472657373 PUSH1 0x70 SHL PUSH1 0x84 DUP3 ADD MSTORE PUSH1 0xA4 ADD PUSH2 0xB4D JUMP JUMPDEST PUSH1 0x1 PUSH1 0x1 PUSH1 0xA0 SHL SUB DUP2 AND PUSH1 0x0 SWAP1 DUP2 MSTORE PUSH1 0x3D PUSH1 0x20 MSTORE PUSH1 0x40 SWAP1 KECCAK256 SLOAD PUSH1 0xFF AND PUSH2 0x2F00 JUMPI PUSH1 0x40 MLOAD PUSH3 0x461BCD PUSH1 0xE5 SHL DUP2 MSTORE PUSH1 0x20 PUSH1 0x4 DUP3 ADD MSTORE PUSH1 0x3F PUSH1 0x24 DUP3 ADD MSTORE PUSH32 0x496E766573746F722061646472657373206D7573742062652066697273742061 PUSH1 0x44 DUP3 ADD MSTORE PUSH32 0x6464656420746F2074686520696E766573746F72207768697465206C69737400 PUSH1 0x64 DUP3 ADD MSTORE PUSH1 0x84 ADD PUSH2 0xB4D JUMP JUMPDEST PUSH1 0x1 PUSH1 0x1 PUSH1 0xA0 SHL SUB DUP2 AND PUSH1 0x0 SWAP1 DUP2 MSTORE PUSH1 0x3D PUSH1 0x20 MSTORE PUSH1 0x40 SWAP1 KECCAK256 SLOAD PUSH2 0x100 SWAP1 DIV PUSH1 0xFF AND ISZERO PUSH2 0x2FA8 JUMPI PUSH1 0x40 MLOAD PUSH3 0x461BCD PUSH1 0xE5 SHL DUP2 MSTORE PUSH1 0x20 PUSH1 0x4 DUP3 ADD MSTORE PUSH1 0x4B PUSH1 0x24 DUP3 ADD MSTORE PUSH32 0x5468617420696E766573746F7220616464726573732068617320616C72656164 PUSH1 0x44 DUP3 ADD MSTORE PUSH32 0x79206265656E20616464656420746F20746865207175616C696669656420696E PUSH1 0x64 DUP3 ADD MSTORE PUSH11 0x1D995CDD1BDC881B1A5CDD PUSH1 0xAA SHL PUSH1 0x84 DUP3 ADD MSTORE PUSH1 0xA4 ADD PUSH2 0xB4D JUMP JUMPDEST PUSH1 0x1 PUSH1 0x1 PUSH1 0xA0 SHL SUB DUP2 AND PUSH1 0x0 SWAP1 DUP2 MSTORE PUSH1 0x3D PUSH1 0x20 MSTORE PUSH1 0x40 SWAP1 DUP2 SWAP1 KECCAK256 DUP1 SLOAD PUSH2 0xFF00 NOT AND PUSH2 0x100 OR SWAP1 SSTORE MLOAD PUSH32 0x37CD19042487AE926A661F12FDFB1B8737056255A7C1BCF9708313301A7ADED SWAP1 PUSH2 0xD15 SWAP1 CALLER SWAP1 DUP5 SWAP1 PUSH2 0x41D4 JUMP JUMPDEST PUSH1 0x60 PUSH1 0x4 DUP1 SLOAD PUSH2 0xD2F SWAP1 PUSH2 0x41EE JUMP JUMPDEST PUSH1 0x0 CALLER PUSH2 0xDC0 DUP2 DUP6 DUP6 PUSH2 0x3C2C JUMP JUMPDEST PUSH2 0x3024 PUSH2 0x3B6D JUMP JUMPDEST PUSH1 0x0 DUP2 GT PUSH2 0x3094 JUMPI PUSH1 0x40 MLOAD PUSH3 0x461BCD PUSH1 0xE5 SHL DUP2 MSTORE PUSH1 0x20 PUSH1 0x4 DUP3 ADD MSTORE PUSH1 0x37 PUSH1 0x24 DUP3 ADD MSTORE PUSH32 0x4E6577206D696E696D756E20616D6F756E7420746F20696E766573742C206D75 PUSH1 0x44 DUP3 ADD MSTORE PUSH23 0x73742062652067726561746572207468616E207A65726F PUSH1 0x48 SHL PUSH1 0x64 DUP3 ADD MSTORE PUSH1 0x84 ADD PUSH2 0xB4D JUMP JUMPDEST PUSH1 0x39 SLOAD DUP2 SUB PUSH2 0x311D JUMPI PUSH1 0x40 MLOAD PUSH3 0x461BCD PUSH1 0xE5 SHL DUP2 MSTORE PUSH1 0x20 PUSH1 0x4 DUP3 ADD MSTORE PUSH1 0x49 PUSH1 0x24 DUP3 ADD MSTORE PUSH32 0x4D696E696D756D20696E766573746D656E7420616C6C6F77656420696E205553 PUSH1 0x44 DUP3 ADD MSTORE PUSH32 0x442068617320616C7265616479206265656E206D6F64696669656420746F2074 PUSH1 0x64 DUP3 ADD MSTORE PUSH9 0x6861742076616C7565 PUSH1 0xB8 SHL PUSH1 0x84 DUP3 ADD MSTORE PUSH1 0xA4 ADD PUSH2 0xB4D JUMP JUMPDEST PUSH1 0x3A SLOAD DUP2 GT ISZERO PUSH2 0x31AC JUMPI PUSH1 0x40 MLOAD PUSH3 0x461BCD PUSH1 0xE5 SHL DUP2 MSTORE PUSH1 0x20 PUSH1 0x4 DUP3 ADD MSTORE PUSH1 0x4E PUSH1 0x24 DUP3 ADD MSTORE PUSH32 0x4E6577206D696E696D756E20616D6F756E7420746F20696E766573742C206D75 PUSH1 0x44 DUP3 ADD MSTORE PUSH32 0x7374206265206C657373207468616E20746865206D6178696D756D20696E7665 PUSH1 0x64 DUP3 ADD MSTORE PUSH14 0x1CDD1B595B9D08185B1B1BDDD959 PUSH1 0x92 SHL PUSH1 0x84 DUP3 ADD MSTORE PUSH1 0xA4 ADD PUSH2 0xB4D JUMP JUMPDEST PUSH1 0x39 DUP2 SWAP1 SSTORE PUSH1 0x40 MLOAD DUP2 DUP2 MSTORE PUSH32 0xEE60EB8E40A2EC796BFE3CA896B9221AF9764FC0987BF0508CA755266D9C85F8 SWAP1 PUSH1 0x20 ADD PUSH2 0xD15 JUMP JUMPDEST PUSH2 0x31E9 PUSH2 0x3B6D JUMP JUMPDEST PUSH1 0x38 SLOAD DUP2 SUB PUSH2 0x3255 JUMPI PUSH1 0x40 MLOAD PUSH3 0x461BCD PUSH1 0xE5 SHL DUP2 MSTORE PUSH1 0x20 PUSH1 0x4 DUP3 ADD MSTORE PUSH1 0x32 PUSH1 0x24 DUP3 ADD MSTORE PUSH32 0x485941582070726963652068617320616C7265616479206265656E206D6F6469 PUSH1 0x44 DUP3 ADD MSTORE PUSH18 0x6669656420746F20746861742076616C7565 PUSH1 0x70 SHL PUSH1 0x64 DUP3 ADD MSTORE PUSH1 0x84 ADD PUSH2 0xB4D JUMP JUMPDEST PUSH3 0x7A120 DUP2 LT ISZERO PUSH2 0x32E5 JUMPI PUSH1 0x40 MLOAD PUSH3 0x461BCD PUSH1 0xE5 SHL DUP2 MSTORE PUSH1 0x20 PUSH1 0x4 DUP3 ADD MSTORE PUSH1 0x4E PUSH1 0x24 DUP3 ADD MSTORE PUSH32 0x5072696365206F66204859415820746F6B656E206D757374206265206174206C PUSH1 0x44 DUP3 ADD MSTORE PUSH32 0x656173742055534420302E3030352C2074686174206973203530303030302077 PUSH1 0x64 DUP3 ADD MSTORE PUSH14 0x697468203820646563696D616C73 PUSH1 0x90 SHL PUSH1 0x84 DUP3 ADD MSTORE PUSH1 0xA4 ADD PUSH2 0xB4D JUMP JUMPDEST PUSH5 0x174876E800 DUP2 GT ISZERO PUSH2 0x337E JUMPI PUSH1 0x40 MLOAD PUSH3 0x461BCD PUSH1 0xE5 SHL DUP2 MSTORE PUSH1 0x20 PUSH1 0x4 DUP3 ADD MSTORE PUSH1 0x55 PUSH1 0x24 DUP3 ADD MSTORE PUSH32 0x5072696365206F66204859415820746F6B656E206D757374206265206174206D PUSH1 0x44 DUP3 ADD MSTORE PUSH32 0x6178696D756D2055534420313030302C20746861742069732031303030303030 PUSH1 0x64 DUP3 ADD MSTORE PUSH21 0x30303030302077697468203820646563696D616C73 PUSH1 0x58 SHL PUSH1 0x84 DUP3 ADD MSTORE PUSH1 0xA4 ADD PUSH2 0xB4D JUMP JUMPDEST PUSH1 0x38 DUP2 SWAP1 SSTORE PUSH1 0x40 MLOAD DUP2 DUP2 MSTORE PUSH32 0x4F6F7BBBB2B0DDE2246EE6650672D1B55A5BE5B52F8DD2E8D595F4BD47E1C913 SWAP1 PUSH1 0x20 ADD PUSH2 0xD15 JUMP JUMPDEST PUSH2 0x33BB PUSH2 0x3B6D JUMP JUMPDEST PUSH1 0x1 PUSH1 0x1 PUSH1 0xA0 SHL SUB DUP2 AND PUSH2 0x33E1 JUMPI PUSH1 0x40 MLOAD PUSH3 0x461BCD PUSH1 0xE5 SHL DUP2 MSTORE PUSH1 0x4 ADD PUSH2 0xB4D SWAP1 PUSH2 0x45B5 JUMP JUMPDEST PUSH1 0x48 SLOAD PUSH1 0x1 PUSH1 0x1 PUSH1 0xA0 SHL SUB SWAP1 DUP2 AND SWAP1 DUP3 AND SUB PUSH2 0x3453 JUMPI PUSH1 0x40 MLOAD PUSH3 0x461BCD PUSH1 0xE5 SHL DUP2 MSTORE PUSH1 0x20 PUSH1 0x4 DUP3 ADD MSTORE PUSH1 0x3A PUSH1 0x24 DUP3 ADD MSTORE PUSH32 0x5742544320746F6B656E20616464726573732068617320616C72656164792062 PUSH1 0x44 DUP3 ADD MSTORE PUSH1 0x0 DUP1 MLOAD PUSH1 0x20 PUSH2 0x489F DUP4 CODECOPY DUP2 MLOAD SWAP2 MSTORE PUSH1 0x64 DUP3 ADD MSTORE PUSH1 0x84 ADD PUSH2 0xB4D JUMP JUMPDEST PUSH1 0x48 DUP1 SLOAD PUSH1 0x1 PUSH1 0x1 PUSH1 0xA0 SHL SUB DUP4 AND PUSH1 0x1 PUSH1 0x1 PUSH1 0xA0 SHL SUB NOT SWAP2 DUP3 AND DUP2 OR SWAP1 SWAP3 SSTORE PUSH1 0x4B DUP1 SLOAD SWAP1 SWAP2 AND SWAP1 SWAP2 OR SWAP1 SSTORE PUSH1 0x40 MLOAD PUSH32 0x95082F719648371F180CA4F9BAD55A2AE7C2D029BBF93E360584CA6EA06327EA SWAP1 PUSH2 0xD15 SWAP1 DUP4 SWAP1 PUSH2 0x4049 JUMP JUMPDEST PUSH1 0x42 SLOAD PUSH1 0x40 DUP1 MLOAD PUSH4 0x3FABE5A3 PUSH1 0xE2 SHL DUP2 MSTORE SWAP1 MLOAD PUSH1 0x0 SWAP3 PUSH1 0x1 PUSH1 0x1 PUSH1 0xA0 SHL SUB AND SWAP2 PUSH4 0xFEAF968C SWAP2 PUSH1 0x4 DUP1 DUP4 ADD SWAP3 PUSH1 0xA0 SWAP3 SWAP2 SWAP1 DUP3 SWAP1 SUB ADD DUP2 DUP7 GAS STATICCALL SWAP3 POP POP POP DUP1 ISZERO PUSH2 0x3514 JUMPI POP PUSH1 0x40 DUP1 MLOAD PUSH1 0x1F RETURNDATASIZE SWAP1 DUP2 ADD PUSH1 0x1F NOT AND DUP3 ADD SWAP1 SWAP3 MSTORE PUSH2 0x3511 SWAP2 DUP2 ADD SWAP1 PUSH2 0x4242 JUMP JUMPDEST PUSH1 0x1 JUMPDEST PUSH2 0xE92 JUMPI PUSH1 0x40 MLOAD PUSH3 0x461BCD PUSH1 0xE5 SHL DUP2 MSTORE PUSH1 0x20 PUSH1 0x4 DUP3 ADD MSTORE PUSH1 0x3B PUSH1 0x24 DUP3 ADD MSTORE PUSH1 0x0 DUP1 MLOAD PUSH1 0x20 PUSH2 0x48BF DUP4 CODECOPY DUP2 MLOAD SWAP2 MSTORE PUSH1 0x44 DUP3 ADD MSTORE PUSH32 0x20555344432070726963652066726F6D20746865206F7261636C650000000000 PUSH1 0x64 DUP3 ADD MSTORE PUSH1 0x84 ADD PUSH2 0xB4D JUMP JUMPDEST PUSH2 0x357C PUSH2 0x3B6D JUMP JUMPDEST PUSH1 0x1 PUSH1 0x1 PUSH1 0xA0 SHL SUB DUP2 AND PUSH2 0x35A2 JUMPI PUSH1 0x40 MLOAD PUSH3 0x461BCD PUSH1 0xE5 SHL DUP2 MSTORE PUSH1 0x4 ADD PUSH2 0xB4D SWAP1 PUSH2 0x4292 JUMP JUMPDEST PUSH1 0x3E SLOAD PUSH1 0x1 PUSH1 0x1 PUSH1 0xA0 SHL SUB SWAP1 DUP2 AND SWAP1 DUP3 AND SUB PUSH2 0x3628 JUMPI PUSH1 0x40 DUP1 MLOAD PUSH3 0x461BCD PUSH1 0xE5 SHL DUP2 MSTORE PUSH1 0x20 PUSH1 0x4 DUP3 ADD MSTORE PUSH1 0x24 DUP2 ADD SWAP2 SWAP1 SWAP2 MSTORE PUSH32 0x4D41544943207072696365206665656420616464726573732068617320616C72 PUSH1 0x44 DUP3 ADD MSTORE PUSH32 0x65616479206265656E206D6F64696669656420746F20746861742076616C7565 PUSH1 0x64 DUP3 ADD MSTORE PUSH1 0x84 ADD PUSH2 0xB4D JUMP JUMPDEST PUSH1 0x0 DUP2 SWAP1 POP DUP1 PUSH1 0x1 PUSH1 0x1 PUSH1 0xA0 SHL SUB AND PUSH4 0x7284E416 PUSH1 0x40 MLOAD DUP2 PUSH4 0xFFFFFFFF AND PUSH1 0xE0 SHL DUP2 MSTORE PUSH1 0x4 ADD PUSH1 0x0 PUSH1 0x40 MLOAD DUP1 DUP4 SUB DUP2 DUP7 GAS STATICCALL SWAP3 POP POP POP DUP1 ISZERO PUSH2 0x368C JUMPI POP PUSH1 0x40 MLOAD RETURNDATASIZE PUSH1 0x0 DUP3 RETURNDATACOPY PUSH1 0x1F RETURNDATASIZE SWAP1 DUP2 ADD PUSH1 0x1F NOT AND DUP3 ADD PUSH1 0x40 MSTORE PUSH2 0x3689 SWAP2 SWAP1 DUP2 ADD SWAP1 PUSH2 0x42FF JUMP JUMPDEST PUSH1 0x1 JUMPDEST PUSH2 0x36A8 JUMPI PUSH1 0x40 MLOAD PUSH3 0x461BCD PUSH1 0xE5 SHL DUP2 MSTORE PUSH1 0x4 ADD PUSH2 0xB4D SWAP1 PUSH2 0x47D2 JUMP JUMPDEST PUSH1 0x40 MLOAD PUSH11 0x1350551250C80BC81554D1 PUSH1 0xAA SHL PUSH1 0x20 DUP3 ADD MSTORE PUSH1 0x0 SWAP1 PUSH1 0x2B ADD PUSH1 0x40 MLOAD PUSH1 0x20 DUP2 DUP4 SUB SUB DUP2 MSTORE SWAP1 PUSH1 0x40 MSTORE DUP1 MLOAD SWAP1 PUSH1 0x20 ADD KECCAK256 SWAP1 POP PUSH1 0x0 DUP3 PUSH1 0x40 MLOAD PUSH1 0x20 ADD PUSH2 0x36F0 SWAP2 SWAP1 PUSH2 0x4401 JUMP JUMPDEST PUSH1 0x40 MLOAD PUSH1 0x20 DUP2 DUP4 SUB SUB DUP2 MSTORE SWAP1 PUSH1 0x40 MSTORE DUP1 MLOAD SWAP1 PUSH1 0x20 ADD KECCAK256 SWAP1 POP DUP1 DUP3 EQ PUSH2 0x3727 JUMPI PUSH1 0x40 MLOAD PUSH3 0x461BCD PUSH1 0xE5 SHL DUP2 MSTORE PUSH1 0x4 ADD PUSH2 0xB4D SWAP1 PUSH2 0x47D2 JUMP JUMPDEST POP POP POP PUSH1 0x3E DUP1 SLOAD PUSH1 0x1 PUSH1 0x1 PUSH1 0xA0 SHL SUB DUP5 AND PUSH1 0x1 PUSH1 0x1 PUSH1 0xA0 SHL SUB NOT SWAP2 DUP3 AND DUP2 OR SWAP1 SWAP3 SSTORE PUSH1 0x3F DUP1 SLOAD SWAP1 SWAP2 AND SWAP1 SWAP2 OR SWAP1 SSTORE PUSH1 0x40 MLOAD PUSH32 0xEE9BC8D900B5D69F934EC4A3986B3BFDA61ADD54821456C3F7E943E87CF48F52 SWAP1 PUSH2 0x109B SWAP1 DUP5 SWAP1 PUSH2 0x4049 JUMP JUMPDEST PUSH1 0x1 PUSH1 0x1 PUSH1 0xA0 SHL SUB SWAP2 DUP3 AND PUSH1 0x0 SWAP1 DUP2 MSTORE PUSH1 0x1 PUSH1 0x20 SWAP1 DUP2 MSTORE PUSH1 0x40 DUP1 DUP4 KECCAK256 SWAP4 SWAP1 SWAP5 AND DUP3 MSTORE SWAP2 SWAP1 SWAP2 MSTORE KECCAK256 SLOAD SWAP1 JUMP JUMPDEST PUSH2 0x37B8 PUSH2 0x3B6D JUMP JUMPDEST PUSH1 0x1 PUSH1 0x1 PUSH1 0xA0 SHL SUB DUP2 AND PUSH2 0x37DE JUMPI PUSH1 0x40 MLOAD PUSH3 0x461BCD PUSH1 0xE5 SHL DUP2 MSTORE PUSH1 0x4 ADD PUSH2 0xB4D SWAP1 PUSH2 0x4292 JUMP JUMPDEST PUSH1 0x49 SLOAD PUSH1 0x1 PUSH1 0x1 PUSH1 0xA0 SHL SUB SWAP1 DUP2 AND SWAP1 DUP3 AND SUB PUSH2 0x3850 JUMPI PUSH1 0x40 MLOAD PUSH3 0x461BCD PUSH1 0xE5 SHL DUP2 MSTORE PUSH1 0x20 PUSH1 0x4 DUP3 ADD MSTORE PUSH1 0x3F PUSH1 0x24 DUP3 ADD MSTORE PUSH32 0x57425443207072696365206665656420616464726573732068617320616C7265 PUSH1 0x44 DUP3 ADD MSTORE PUSH1 0x0 DUP1 MLOAD PUSH1 0x20 PUSH2 0x48FF DUP4 CODECOPY DUP2 MLOAD SWAP2 MSTORE PUSH1 0x64 DUP3 ADD MSTORE PUSH1 0x84 ADD PUSH2 0xB4D JUMP JUMPDEST PUSH1 0x0 DUP2 SWAP1 POP DUP1 PUSH1 0x1 PUSH1 0x1 PUSH1 0xA0 SHL SUB AND PUSH4 0x7284E416 PUSH1 0x40 MLOAD DUP2 PUSH4 0xFFFFFFFF AND PUSH1 0xE0 SHL DUP2 MSTORE PUSH1 0x4 ADD PUSH1 0x0 PUSH1 0x40 MLOAD DUP1 DUP4 SUB DUP2 DUP7 GAS STATICCALL SWAP3 POP POP POP DUP1 ISZERO PUSH2 0x38B4 JUMPI POP PUSH1 0x40 MLOAD RETURNDATASIZE PUSH1 0x0 DUP3 RETURNDATACOPY PUSH1 0x1F RETURNDATASIZE SWAP1 DUP2 ADD PUSH1 0x1F NOT AND DUP3 ADD PUSH1 0x40 MSTORE PUSH2 0x38B1 SWAP2 SWAP1 DUP2 ADD SWAP1 PUSH2 0x42FF JUMP JUMPDEST PUSH1 0x1 JUMPDEST PUSH2 0x38D0 JUMPI PUSH1 0x40 MLOAD PUSH3 0x461BCD PUSH1 0xE5 SHL DUP2 MSTORE PUSH1 0x4 ADD PUSH2 0xB4D SWAP1 PUSH2 0x4828 JUMP JUMPDEST PUSH1 0x40 MLOAD PUSH10 0x15D09510C80BC81554D1 PUSH1 0xB2 SHL PUSH1 0x20 DUP3 ADD MSTORE PUSH1 0x0 SWAP1 PUSH1 0x2A ADD PUSH1 0x40 MLOAD PUSH1 0x20 DUP2 DUP4 SUB SUB DUP2 MSTORE SWAP1 PUSH1 0x40 MSTORE DUP1 MLOAD SWAP1 PUSH1 0x20 ADD KECCAK256 SWAP1 POP PUSH1 0x0 DUP3 PUSH1 0x40 MLOAD PUSH1 0x20 ADD PUSH2 0x3917 SWAP2 SWAP1 PUSH2 0x4401 JUMP JUMPDEST PUSH1 0x40 MLOAD PUSH1 0x20 DUP2 DUP4 SUB SUB DUP2 MSTORE SWAP1 PUSH1 0x40 MSTORE DUP1 MLOAD SWAP1 PUSH1 0x20 ADD KECCAK256 SWAP1 POP DUP1 DUP3 EQ PUSH2 0x394E JUMPI PUSH1 0x40 MLOAD PUSH3 0x461BCD PUSH1 0xE5 SHL DUP2 MSTORE PUSH1 0x4 ADD PUSH2 0xB4D SWAP1 PUSH2 0x4828 JUMP JUMPDEST POP POP POP PUSH1 0x49 DUP1 SLOAD PUSH1 0x1 PUSH1 0x1 PUSH1 0xA0 SHL SUB DUP5 AND PUSH1 0x1 PUSH1 0x1 PUSH1 0xA0 SHL SUB NOT SWAP2 DUP3 AND DUP2 OR SWAP1 SWAP3 SSTORE PUSH1 0x4A DUP1 SLOAD SWAP1 SWAP2 AND SWAP1 SWAP2 OR SWAP1 SSTORE PUSH1 0x40 MLOAD PUSH32 0x2171C3CFA3D86551D618C9DA7164A608DD795715BF61402D9CCB45CF5433A076 SWAP1 PUSH2 0x109B SWAP1 DUP5 SWAP1 PUSH2 0x4049 JUMP JUMPDEST PUSH2 0x39B4 PUSH2 0x3B6D JUMP JUMPDEST PUSH1 0x1 PUSH1 0x1 PUSH1 0xA0 SHL SUB DUP2 AND PUSH2 0x3A19 JUMPI PUSH1 0x40 MLOAD PUSH3 0x461BCD PUSH1 0xE5 SHL DUP2 MSTORE PUSH1 0x20 PUSH1 0x4 DUP3 ADD MSTORE PUSH1 0x26 PUSH1 0x24 DUP3 ADD MSTORE PUSH32 0x4F776E61626C653A206E6577206F776E657220697320746865207A65726F2061 PUSH1 0x44 DUP3 ADD MSTORE PUSH6 0x646472657373 PUSH1 0xD0 SHL PUSH1 0x64 DUP3 ADD MSTORE PUSH1 0x84 ADD PUSH2 0xB4D JUMP JUMPDEST ADDRESS PUSH1 0x1 PUSH1 0x1 PUSH1 0xA0 SHL SUB DUP3 AND SUB PUSH2 0x3A91 JUMPI PUSH1 0x40 MLOAD PUSH3 0x461BCD PUSH1 0xE5 SHL DUP2 MSTORE PUSH1 0x20 PUSH1 0x4 DUP3 ADD MSTORE PUSH1 0x37 PUSH1 0x24 DUP3 ADD MSTORE PUSH32 0x4F776E61626C653A206E6577206F776E65722063616E206E6F74206265207468 PUSH1 0x44 DUP3 ADD MSTORE PUSH23 0x652073616D6520636F6E74726163742061646472657373 PUSH1 0x48 SHL PUSH1 0x64 DUP3 ADD MSTORE PUSH1 0x84 ADD PUSH2 0xB4D JUMP JUMPDEST PUSH2 0x12B8 DUP2 PUSH2 0x3CD7 JUMP JUMPDEST PUSH1 0x4A SLOAD PUSH1 0x40 DUP1 MLOAD PUSH4 0x3FABE5A3 PUSH1 0xE2 SHL DUP2 MSTORE SWAP1 MLOAD PUSH1 0x0 SWAP3 PUSH1 0x1 PUSH1 0x1 PUSH1 0xA0 SHL SUB AND SWAP2 PUSH4 0xFEAF968C SWAP2 PUSH1 0x4 DUP1 DUP4 ADD SWAP3 PUSH1 0xA0 SWAP3 SWAP2 SWAP1 DUP3 SWAP1 SUB ADD DUP2 DUP7 GAS STATICCALL SWAP3 POP POP POP DUP1 ISZERO PUSH2 0x3B00 JUMPI POP PUSH1 0x40 DUP1 MLOAD PUSH1 0x1F RETURNDATASIZE SWAP1 DUP2 ADD PUSH1 0x1F NOT AND DUP3 ADD SWAP1 SWAP3 MSTORE PUSH2 0x3AFD SWAP2 DUP2 ADD SWAP1 PUSH2 0x4242 JUMP JUMPDEST PUSH1 0x1 JUMPDEST PUSH2 0xE92 JUMPI PUSH1 0x40 MLOAD PUSH3 0x461BCD PUSH1 0xE5 SHL DUP2 MSTORE PUSH1 0x20 PUSH1 0x4 DUP3 ADD MSTORE PUSH1 0x3B PUSH1 0x24 DUP3 ADD MSTORE PUSH1 0x0 DUP1 MLOAD PUSH1 0x20 PUSH2 0x48BF DUP4 CODECOPY DUP2 MLOAD SWAP2 MSTORE PUSH1 0x44 DUP3 ADD MSTORE PUSH32 0x20574254432070726963652066726F6D20746865206F7261636C650000000000 PUSH1 0x64 DUP3 ADD MSTORE PUSH1 0x84 ADD PUSH2 0xB4D JUMP JUMPDEST PUSH2 0x28CD DUP4 DUP4 DUP4 PUSH1 0x1 PUSH2 0x3D6E JUMP JUMPDEST CALLER PUSH2 0x3B76 PUSH2 0x2D7A JUMP JUMPDEST PUSH1 0x1 PUSH1 0x1 PUSH1 0xA0 SHL SUB AND EQ PUSH2 0x198E JUMPI CALLER PUSH1 0x40 MLOAD PUSH4 0x118CDAA7 PUSH1 0xE0 SHL DUP2 MSTORE PUSH1 0x4 ADD PUSH2 0xB4D SWAP2 SWAP1 PUSH2 0x4049 JUMP JUMPDEST PUSH1 0x1 PUSH1 0x1 PUSH1 0xA0 SHL SUB DUP3 AND PUSH2 0x3BC9 JUMPI PUSH1 0x0 PUSH1 0x40 MLOAD PUSH4 0xEC442F05 PUSH1 0xE0 SHL DUP2 MSTORE PUSH1 0x4 ADD PUSH2 0xB4D SWAP2 SWAP1 PUSH2 0x4049 JUMP JUMPDEST PUSH2 0x3BD5 PUSH1 0x0 DUP4 DUP4 PUSH2 0x3E43 JUMP JUMPDEST POP POP JUMP JUMPDEST PUSH1 0x0 PUSH2 0x3BE5 DUP5 DUP5 PUSH2 0x3785 JUMP JUMPDEST SWAP1 POP PUSH1 0x0 NOT DUP2 EQ PUSH2 0x3C26 JUMPI DUP2 DUP2 LT ISZERO PUSH2 0x3C17 JUMPI DUP3 DUP2 DUP4 PUSH1 0x40 MLOAD PUSH4 0x7DC7A0D9 PUSH1 0xE1 SHL DUP2 MSTORE PUSH1 0x4 ADD PUSH2 0xB4D SWAP4 SWAP3 SWAP2 SWAP1 PUSH2 0x487D JUMP JUMPDEST PUSH2 0x3C26 DUP5 DUP5 DUP5 DUP5 SUB PUSH1 0x0 PUSH2 0x3D6E JUMP JUMPDEST POP POP POP POP JUMP JUMPDEST PUSH1 0x1 PUSH1 0x1 PUSH1 0xA0 SHL SUB DUP4 AND PUSH2 0x3C56 JUMPI PUSH1 0x0 PUSH1 0x40 MLOAD PUSH4 0x4B637E8F PUSH1 0xE1 SHL DUP2 MSTORE PUSH1 0x4 ADD PUSH2 0xB4D SWAP2 SWAP1 PUSH2 0x4049 JUMP JUMPDEST PUSH1 0x1 PUSH1 0x1 PUSH1 0xA0 SHL SUB DUP3 AND PUSH2 0x3C80 JUMPI PUSH1 0x0 PUSH1 0x40 MLOAD PUSH4 0xEC442F05 PUSH1 0xE0 SHL DUP2 MSTORE PUSH1 0x4 ADD PUSH2 0xB4D SWAP2 SWAP1 PUSH2 0x4049 JUMP JUMPDEST PUSH2 0x28CD DUP4 DUP4 DUP4 PUSH2 0x3E43 JUMP JUMPDEST PUSH2 0x3C93 PUSH2 0x3E56 JUMP JUMPDEST PUSH1 0x5 DUP1 SLOAD PUSH1 0xFF NOT AND SWAP1 SSTORE PUSH32 0x5DB9EE0A495BF2E6FF9C91A7834C1BA4FDD244A5E8AA4E537BD38AEAE4B073AA CALLER JUMPDEST PUSH1 0x40 MLOAD PUSH2 0x3CCD SWAP2 SWAP1 PUSH2 0x4049 JUMP JUMPDEST PUSH1 0x40 MLOAD DUP1 SWAP2 SUB SWAP1 LOG1 JUMP JUMPDEST PUSH1 0x5 DUP1 SLOAD PUSH1 0x1 PUSH1 0x1 PUSH1 0xA0 SHL SUB DUP4 DUP2 AND PUSH2 0x100 DUP2 DUP2 MUL PUSH2 0x100 PUSH1 0x1 PUSH1 0xA8 SHL SUB NOT DUP6 AND OR SWAP1 SWAP5 SSTORE PUSH1 0x40 MLOAD SWAP4 SWAP1 SWAP3 DIV AND SWAP2 DUP3 SWAP1 PUSH32 0x8BE0079C531659141344CD1FD0A4F28419497F9722A3DAAFE3B4186F6B6457E0 SWAP1 PUSH1 0x0 SWAP1 LOG3 POP POP JUMP JUMPDEST PUSH2 0x3D39 PUSH2 0x3E79 JUMP JUMPDEST PUSH1 0x5 DUP1 SLOAD PUSH1 0xFF NOT AND PUSH1 0x1 OR SWAP1 SSTORE PUSH32 0x62E78CEA01BEE320CD4E420270B5EA74000D11B0C9F74754EBDBFC544B05A258 PUSH2 0x3CC0 CALLER SWAP1 JUMP JUMPDEST PUSH1 0x1 PUSH1 0x1 PUSH1 0xA0 SHL SUB DUP5 AND PUSH2 0x3D98 JUMPI PUSH1 0x0 PUSH1 0x40 MLOAD PUSH4 0xE602DF05 PUSH1 0xE0 SHL DUP2 MSTORE PUSH1 0x4 ADD PUSH2 0xB4D SWAP2 SWAP1 PUSH2 0x4049 JUMP JUMPDEST PUSH1 0x1 PUSH1 0x1 PUSH1 0xA0 SHL SUB DUP4 AND PUSH2 0x3DC2 JUMPI PUSH1 0x0 PUSH1 0x40 MLOAD PUSH4 0x4A1406B1 PUSH1 0xE1 SHL DUP2 MSTORE PUSH1 0x4 ADD PUSH2 0xB4D SWAP2 SWAP1 PUSH2 0x4049 JUMP JUMPDEST PUSH1 0x1 PUSH1 0x1 PUSH1 0xA0 SHL SUB DUP1 DUP6 AND PUSH1 0x0 SWAP1 DUP2 MSTORE PUSH1 0x1 PUSH1 0x20 SWAP1 DUP2 MSTORE PUSH1 0x40 DUP1 DUP4 KECCAK256 SWAP4 DUP8 AND DUP4 MSTORE SWAP3 SWAP1 MSTORE KECCAK256 DUP3 SWAP1 SSTORE DUP1 ISZERO PUSH2 0x3C26 JUMPI DUP3 PUSH1 0x1 PUSH1 0x1 PUSH1 0xA0 SHL SUB AND DUP5 PUSH1 0x1 PUSH1 0x1 PUSH1 0xA0 SHL SUB AND PUSH32 0x8C5BE1E5EBEC7D5BD14F71427D1E84F3DD0314C0F7B2291E5B200AC8C7C3B925 DUP5 PUSH1 0x40 MLOAD PUSH2 0x3E35 SWAP2 DUP2 MSTORE PUSH1 0x20 ADD SWAP1 JUMP JUMPDEST PUSH1 0x40 MLOAD DUP1 SWAP2 SUB SWAP1 LOG3 POP POP POP POP JUMP JUMPDEST PUSH2 0x3E4B PUSH2 0x3E79 JUMP JUMPDEST PUSH2 0x28CD DUP4 DUP4 DUP4 PUSH2 0x3E9D JUMP JUMPDEST PUSH1 0x5 SLOAD PUSH1 0xFF AND PUSH2 0x198E JUMPI PUSH1 0x40 MLOAD PUSH4 0x8DFC202B PUSH1 0xE0 SHL DUP2 MSTORE PUSH1 0x4 ADD PUSH1 0x40 MLOAD DUP1 SWAP2 SUB SWAP1 REVERT JUMPDEST PUSH1 0x5 SLOAD PUSH1 0xFF AND ISZERO PUSH2 0x198E JUMPI PUSH1 0x40 MLOAD PUSH4 0xD93C0665 PUSH1 0xE0 SHL DUP2 MSTORE PUSH1 0x4 ADD PUSH1 0x40 MLOAD DUP1 SWAP2 SUB SWAP1 REVERT JUMPDEST PUSH1 0x1 PUSH1 0x1 PUSH1 0xA0 SHL SUB DUP4 AND PUSH2 0x3EC8 JUMPI DUP1 PUSH1 0x2 PUSH1 0x0 DUP3 DUP3 SLOAD PUSH2 0x3EBD SWAP2 SWAP1 PUSH2 0x453D JUMP JUMPDEST SWAP1 SWAP2 SSTORE POP PUSH2 0x3F27 SWAP1 POP JUMP JUMPDEST PUSH1 0x1 PUSH1 0x1 PUSH1 0xA0 SHL SUB DUP4 AND PUSH1 0x0 SWAP1 DUP2 MSTORE PUSH1 0x20 DUP2 SWAP1 MSTORE PUSH1 0x40 SWAP1 KECCAK256 SLOAD DUP2 DUP2 LT ISZERO PUSH2 0x3F08 JUMPI DUP4 DUP2 DUP4 PUSH1 0x40 MLOAD PUSH4 0x391434E3 PUSH1 0xE2 SHL DUP2 MSTORE PUSH1 0x4 ADD PUSH2 0xB4D SWAP4 SWAP3 SWAP2 SWAP1 PUSH2 0x487D JUMP JUMPDEST PUSH1 0x1 PUSH1 0x1 PUSH1 0xA0 SHL SUB DUP5 AND PUSH1 0x0 SWAP1 DUP2 MSTORE PUSH1 0x20 DUP2 SWAP1 MSTORE PUSH1 0x40 SWAP1 KECCAK256 SWAP1 DUP3 SWAP1 SUB SWAP1 SSTORE JUMPDEST PUSH1 0x1 PUSH1 0x1 PUSH1 0xA0 SHL SUB DUP3 AND PUSH2 0x3F43 JUMPI PUSH1 0x2 DUP1 SLOAD DUP3 SWAP1 SUB SWAP1 SSTORE PUSH2 0x3F62 JUMP JUMPDEST PUSH1 0x1 PUSH1 0x1 PUSH1 0xA0 SHL SUB DUP3 AND PUSH1 0x0 SWAP1 DUP2 MSTORE PUSH1 0x20 DUP2 SWAP1 MSTORE PUSH1 0x40 SWAP1 KECCAK256 DUP1 SLOAD DUP3 ADD SWAP1 SSTORE JUMPDEST DUP2 PUSH1 0x1 PUSH1 0x1 PUSH1 0xA0 SHL SUB AND DUP4 PUSH1 0x1 PUSH1 0x1 PUSH1 0xA0 SHL SUB AND PUSH32 0xDDF252AD1BE2C89B69C2B068FC378DAA952BA7F163C4A11628F55A4DF523B3EF DUP4 PUSH1 0x40 MLOAD PUSH2 0x3FA7 SWAP2 DUP2 MSTORE PUSH1 0x20 ADD SWAP1 JUMP JUMPDEST PUSH1 0x40 MLOAD DUP1 SWAP2 SUB SWAP1 LOG3 POP POP POP JUMP JUMPDEST DUP1 CALLDATALOAD PUSH1 0x1 PUSH1 0x1 PUSH1 0xA0 SHL SUB DUP2 AND DUP2 EQ PUSH2 0x3FCB JUMPI PUSH1 0x0 DUP1 REVERT JUMPDEST SWAP2 SWAP1 POP JUMP JUMPDEST PUSH1 0x0 PUSH1 0x20 DUP3 DUP5 SUB SLT ISZERO PUSH2 0x3FE2 JUMPI PUSH1 0x0 DUP1 REVERT JUMPDEST PUSH2 0x3FEB DUP3 PUSH2 0x3FB4 JUMP JUMPDEST SWAP4 SWAP3 POP POP POP JUMP JUMPDEST PUSH1 0x0 JUMPDEST DUP4 DUP2 LT ISZERO PUSH2 0x400D JUMPI DUP2 DUP2 ADD MLOAD DUP4 DUP3 ADD MSTORE PUSH1 0x20 ADD PUSH2 0x3FF5 JUMP JUMPDEST POP POP PUSH1 0x0 SWAP2 ADD MSTORE JUMP JUMPDEST PUSH1 0x20 DUP2 MSTORE PUSH1 0x0 DUP3 MLOAD DUP1 PUSH1 0x20 DUP5 ADD MSTORE PUSH2 0x4035 DUP2 PUSH1 0x40 DUP6 ADD PUSH1 0x20 DUP8 ADD PUSH2 0x3FF2 JUMP JUMPDEST PUSH1 0x1F ADD PUSH1 0x1F NOT AND SWAP2 SWAP1 SWAP2 ADD PUSH1 0x40 ADD SWAP3 SWAP2 POP POP JUMP JUMPDEST PUSH1 0x1 PUSH1 0x1 PUSH1 0xA0 SHL SUB SWAP2 SWAP1 SWAP2 AND DUP2 MSTORE PUSH1 0x20 ADD SWAP1 JUMP JUMPDEST PUSH1 0x0 DUP1 PUSH1 0x40 DUP4 DUP6 SUB SLT ISZERO PUSH2 0x4070 JUMPI PUSH1 0x0 DUP1 REVERT JUMPDEST PUSH2 0x4079 DUP4 PUSH2 0x3FB4 JUMP JUMPDEST SWAP5 PUSH1 0x20 SWAP4 SWAP1 SWAP4 ADD CALLDATALOAD SWAP4 POP POP POP JUMP JUMPDEST PUSH1 0x0 PUSH1 0x20 DUP3 DUP5 SUB SLT ISZERO PUSH2 0x4099 JUMPI PUSH1 0x0 DUP1 REVERT JUMPDEST POP CALLDATALOAD SWAP2 SWAP1 POP JUMP JUMPDEST PUSH1 0x0 DUP1 PUSH1 0x0 PUSH1 0x60 DUP5 DUP7 SUB SLT ISZERO PUSH2 0x40B5 JUMPI PUSH1 0x0 DUP1 REVERT JUMPDEST PUSH2 0x40BE DUP5 PUSH2 0x3FB4 JUMP JUMPDEST SWAP3 POP PUSH2 0x40CC PUSH1 0x20 DUP6 ADD PUSH2 0x3FB4 JUMP JUMPDEST SWAP2 POP PUSH1 0x40 DUP5 ADD CALLDATALOAD SWAP1 POP SWAP3 POP SWAP3 POP SWAP3 JUMP JUMPDEST PUSH1 0x0 DUP1 PUSH1 0x40 DUP4 DUP6 SUB SLT ISZERO PUSH2 0x40EF JUMPI PUSH1 0x0 DUP1 REVERT JUMPDEST DUP3 CALLDATALOAD PUSH1 0x5 DUP2 LT PUSH2 0x4079 JUMPI PUSH1 0x0 DUP1 REVERT JUMPDEST PUSH1 0x0 DUP1 PUSH1 0x40 DUP4 DUP6 SUB SLT ISZERO PUSH2 0x4111 JUMPI PUSH1 0x0 DUP1 REVERT JUMPDEST DUP3 CALLDATALOAD SWAP2 POP PUSH2 0x4121 PUSH1 0x20 DUP5 ADD PUSH2 0x3FB4 JUMP JUMPDEST SWAP1 POP SWAP3 POP SWAP3 SWAP1 POP JUMP JUMPDEST PUSH1 0x0 DUP1 PUSH1 0x40 DUP4 DUP6 SUB SLT ISZERO PUSH2 0x413D JUMPI PUSH1 0x0 DUP1 REVERT JUMPDEST POP POP DUP1 CALLDATALOAD SWAP3 PUSH1 0x20 SWAP1 SWAP2 ADD CALLDATALOAD SWAP2 POP JUMP JUMPDEST PUSH1 0x0 DUP1 PUSH1 0x40 DUP4 DUP6 SUB SLT ISZERO PUSH2 0x415F JUMPI PUSH1 0x0 DUP1 REVERT JUMPDEST PUSH2 0x4168 DUP4 PUSH2 0x3FB4 JUMP JUMPDEST SWAP2 POP PUSH2 0x4121 PUSH1 0x20 DUP5 ADD PUSH2 0x3FB4 JUMP JUMPDEST PUSH1 0x20 DUP1 DUP3 MSTORE PUSH1 0x40 SWAP1 DUP3 ADD DUP2 SWAP1 MSTORE PUSH32 0x46756E6374696F6E207265736572766564206F6E6C7920666F72207468652077 SWAP1 DUP3 ADD MSTORE PUSH32 0x68697465206C69737465722061646472657373206F7220746865206F776E6572 PUSH1 0x60 DUP3 ADD MSTORE PUSH1 0x80 ADD SWAP1 JUMP JUMPDEST PUSH1 0x1 PUSH1 0x1 PUSH1 0xA0 SHL SUB SWAP3 DUP4 AND DUP2 MSTORE SWAP2 AND PUSH1 0x20 DUP3 ADD MSTORE PUSH1 0x40 ADD SWAP1 JUMP JUMPDEST PUSH1 0x1 DUP2 DUP2 SHR SWAP1 DUP3 AND DUP1 PUSH2 0x4202 JUMPI PUSH1 0x7F DUP3 AND SWAP2 POP JUMPDEST PUSH1 0x20 DUP3 LT DUP2 SUB PUSH2 0x4222 JUMPI PUSH4 0x4E487B71 PUSH1 0xE0 SHL PUSH1 0x0 MSTORE PUSH1 0x22 PUSH1 0x4 MSTORE PUSH1 0x24 PUSH1 0x0 REVERT JUMPDEST POP SWAP2 SWAP1 POP JUMP JUMPDEST DUP1 MLOAD PUSH10 0xFFFFFFFFFFFFFFFFFFFF DUP2 AND DUP2 EQ PUSH2 0x3FCB JUMPI PUSH1 0x0 DUP1 REVERT JUMPDEST PUSH1 0x0 DUP1 PUSH1 0x0 DUP1 PUSH1 0x0 PUSH1 0xA0 DUP7 DUP9 SUB SLT ISZERO PUSH2 0x425A JUMPI PUSH1 0x0 DUP1 REVERT JUMPDEST PUSH2 0x4263 DUP7 PUSH2 0x4228 JUMP JUMPDEST SWAP5 POP PUSH1 0x20 DUP7 ADD MLOAD SWAP4 POP PUSH1 0x40 DUP7 ADD MLOAD SWAP3 POP PUSH1 0x60 DUP7 ADD MLOAD SWAP2 POP PUSH2 0x4286 PUSH1 0x80 DUP8 ADD PUSH2 0x4228 JUMP JUMPDEST SWAP1 POP SWAP3 SWAP6 POP SWAP3 SWAP6 SWAP1 SWAP4 POP JUMP JUMPDEST PUSH1 0x20 DUP1 DUP3 MSTORE PUSH1 0x37 SWAP1 DUP3 ADD MSTORE PUSH32 0x5468652070726963652064617461206665656420616464726573732063616E20 PUSH1 0x40 DUP3 ADD MSTORE PUSH23 0x6E6F7420626520746865207A65726F2061646472657373 PUSH1 0x48 SHL PUSH1 0x60 DUP3 ADD MSTORE PUSH1 0x80 ADD SWAP1 JUMP JUMPDEST PUSH4 0x4E487B71 PUSH1 0xE0 SHL PUSH1 0x0 MSTORE PUSH1 0x41 PUSH1 0x4 MSTORE PUSH1 0x24 PUSH1 0x0 REVERT JUMPDEST PUSH1 0x0 PUSH1 0x20 DUP3 DUP5 SUB SLT ISZERO PUSH2 0x4311 JUMPI PUSH1 0x0 DUP1 REVERT JUMPDEST DUP2 MLOAD PUSH8 0xFFFFFFFFFFFFFFFF DUP1 DUP3 GT ISZERO PUSH2 0x4329 JUMPI PUSH1 0x0 DUP1 REVERT JUMPDEST DUP2 DUP5 ADD SWAP2 POP DUP5 PUSH1 0x1F DUP4 ADD SLT PUSH2 0x433D JUMPI PUSH1 0x0 DUP1 REVERT JUMPDEST DUP2 MLOAD DUP2 DUP2 GT ISZERO PUSH2 0x434F JUMPI PUSH2 0x434F PUSH2 0x42E9 JUMP JUMPDEST PUSH1 0x40 MLOAD PUSH1 0x1F DUP3 ADD PUSH1 0x1F NOT SWAP1 DUP2 AND PUSH1 0x3F ADD AND DUP2 ADD SWAP1 DUP4 DUP3 GT DUP2 DUP4 LT OR ISZERO PUSH2 0x4377 JUMPI PUSH2 0x4377 PUSH2 0x42E9 JUMP JUMPDEST DUP2 PUSH1 0x40 MSTORE DUP3 DUP2 MSTORE DUP8 PUSH1 0x20 DUP5 DUP8 ADD ADD GT ISZERO PUSH2 0x4390 JUMPI PUSH1 0x0 DUP1 REVERT JUMPDEST PUSH2 0x43A1 DUP4 PUSH1 0x20 DUP4 ADD PUSH1 0x20 DUP9 ADD PUSH2 0x3FF2 JUMP JUMPDEST SWAP8 SWAP7 POP POP POP POP POP POP POP JUMP JUMPDEST PUSH1 0x20 DUP1 DUP3 MSTORE PUSH1 0x41 SWAP1 DUP3 ADD MSTORE PUSH1 0x0 DUP1 MLOAD PUSH1 0x20 PUSH2 0x48DF DUP4 CODECOPY DUP2 MLOAD SWAP2 MSTORE PUSH1 0x40 DUP3 ADD MSTORE PUSH32 0x2062656C6F6E6720746F20612055534443207072696365206461746120666565 PUSH1 0x60 DUP3 ADD MSTORE PUSH1 0x19 PUSH1 0xFA SHL PUSH1 0x80 DUP3 ADD MSTORE PUSH1 0xA0 ADD SWAP1 JUMP JUMPDEST PUSH1 0x0 DUP3 MLOAD PUSH2 0x4413 DUP2 DUP5 PUSH1 0x20 DUP8 ADD PUSH2 0x3FF2 JUMP JUMPDEST SWAP2 SWAP1 SWAP2 ADD SWAP3 SWAP2 POP POP JUMP JUMPDEST PUSH4 0x4E487B71 PUSH1 0xE0 SHL PUSH1 0x0 MSTORE PUSH1 0x11 PUSH1 0x4 MSTORE PUSH1 0x24 PUSH1 0x0 REVERT JUMPDEST PUSH1 0x1 DUP2 DUP2 JUMPDEST DUP1 DUP6 GT ISZERO PUSH2 0x446E JUMPI DUP2 PUSH1 0x0 NOT DIV DUP3 GT ISZERO PUSH2 0x4454 JUMPI PUSH2 0x4454 PUSH2 0x441D JUMP JUMPDEST DUP1 DUP6 AND ISZERO PUSH2 0x4461 JUMPI SWAP2 DUP2 MUL SWAP2 JUMPDEST SWAP4 DUP5 SHR SWAP4 SWAP1 DUP1 MUL SWAP1 PUSH2 0x4438 JUMP JUMPDEST POP SWAP3 POP SWAP3 SWAP1 POP JUMP JUMPDEST PUSH1 0x0 DUP3 PUSH2 0x4485 JUMPI POP PUSH1 0x1 PUSH2 0xDC6 JUMP JUMPDEST DUP2 PUSH2 0x4492 JUMPI POP PUSH1 0x0 PUSH2 0xDC6 JUMP JUMPDEST DUP2 PUSH1 0x1 DUP2 EQ PUSH2 0x44A8 JUMPI PUSH1 0x2 DUP2 EQ PUSH2 0x44B2 JUMPI PUSH2 0x44CE JUMP JUMPDEST PUSH1 0x1 SWAP2 POP POP PUSH2 0xDC6 JUMP JUMPDEST PUSH1 0xFF DUP5 GT ISZERO PUSH2 0x44C3 JUMPI PUSH2 0x44C3 PUSH2 0x441D JUMP JUMPDEST POP POP PUSH1 0x1 DUP3 SHL PUSH2 0xDC6 JUMP JUMPDEST POP PUSH1 0x20 DUP4 LT PUSH2 0x133 DUP4 LT AND PUSH1 0x4E DUP5 LT PUSH1 0xB DUP5 LT AND OR ISZERO PUSH2 0x44F1 JUMPI POP DUP2 DUP2 EXP PUSH2 0xDC6 JUMP JUMPDEST PUSH2 0x44FB DUP4 DUP4 PUSH2 0x4433 JUMP JUMPDEST DUP1 PUSH1 0x0 NOT DIV DUP3 GT ISZERO PUSH2 0x450F JUMPI PUSH2 0x450F PUSH2 0x441D JUMP JUMPDEST MUL SWAP4 SWAP3 POP POP POP JUMP JUMPDEST PUSH1 0x0 PUSH2 0x3FEB PUSH1 0xFF DUP5 AND DUP4 PUSH2 0x4476 JUMP JUMPDEST DUP1 DUP3 MUL DUP2 ISZERO DUP3 DUP3 DIV DUP5 EQ OR PUSH2 0xDC6 JUMPI PUSH2 0xDC6 PUSH2 0x441D JUMP JUMPDEST DUP1 DUP3 ADD DUP1 DUP3 GT ISZERO PUSH2 0xDC6 JUMPI PUSH2 0xDC6 PUSH2 0x441D JUMP JUMPDEST PUSH1 0x1 PUSH1 0x1 PUSH1 0xA0 SHL SUB SWAP3 SWAP1 SWAP3 AND DUP3 MSTORE PUSH1 0x20 DUP3 ADD MSTORE PUSH1 0x40 ADD SWAP1 JUMP JUMPDEST PUSH1 0x20 DUP1 DUP3 MSTORE PUSH1 0x40 SWAP1 DUP3 ADD DUP2 SWAP1 MSTORE PUSH1 0x0 DUP1 MLOAD PUSH1 0x20 PUSH2 0x48DF DUP4 CODECOPY DUP2 MLOAD SWAP2 MSTORE SWAP1 DUP3 ADD MSTORE PUSH32 0x2062656C6F6E6720746F20612045544820707269636520646174612066656564 PUSH1 0x60 DUP3 ADD MSTORE PUSH1 0x80 ADD SWAP1 JUMP JUMPDEST PUSH1 0x20 DUP1 DUP3 MSTORE PUSH1 0x2D SWAP1 DUP3 ADD MSTORE PUSH32 0x54686520746F6B656E20616464726573732063616E206E6F7420626520746865 PUSH1 0x40 DUP3 ADD MSTORE PUSH13 0x207A65726F2061646472657373 PUSH1 0x98 SHL PUSH1 0x60 DUP3 ADD MSTORE PUSH1 0x80 ADD SWAP1 JUMP JUMPDEST PUSH1 0x20 DUP1 DUP3 MSTORE PUSH1 0x35 SWAP1 DUP3 ADD MSTORE PUSH32 0x496E766573746F72206164647265737320686173206E6F74206265656E206164 PUSH1 0x40 DUP3 ADD MSTORE PUSH21 0x191959081D1BC81D1A19481DDA1A5D19481B1A5CDD PUSH1 0x5A SHL PUSH1 0x60 DUP3 ADD MSTORE PUSH1 0x80 ADD SWAP1 JUMP JUMPDEST PUSH1 0x0 PUSH1 0x20 DUP3 DUP5 SUB SLT ISZERO PUSH2 0x4669 JUMPI PUSH1 0x0 DUP1 REVERT JUMPDEST DUP2 MLOAD DUP1 ISZERO ISZERO DUP2 EQ PUSH2 0x3FEB JUMPI PUSH1 0x0 DUP1 REVERT JUMPDEST PUSH1 0x20 DUP1 DUP3 MSTORE PUSH1 0x41 SWAP1 DUP3 ADD MSTORE PUSH32 0x54686572652077617320616E206572726F72206F6E2073656E64696E67206261 PUSH1 0x40 DUP3 ADD MSTORE PUSH32 0x636B20746865204859415820546F6B656E20746F2074686520696E766573746F PUSH1 0x60 DUP3 ADD MSTORE PUSH1 0x39 PUSH1 0xF9 SHL PUSH1 0x80 DUP3 ADD MSTORE PUSH1 0xA0 ADD SWAP1 JUMP JUMPDEST PUSH4 0x4E487B71 PUSH1 0xE0 SHL PUSH1 0x0 MSTORE PUSH1 0x21 PUSH1 0x4 MSTORE PUSH1 0x24 PUSH1 0x0 REVERT JUMPDEST PUSH1 0x0 PUSH1 0x20 DUP3 DUP5 SUB SLT ISZERO PUSH2 0x4708 JUMPI PUSH1 0x0 DUP1 REVERT JUMPDEST POP MLOAD SWAP2 SWAP1 POP JUMP JUMPDEST PUSH1 0xA0 DUP2 ADD PUSH1 0x5 DUP8 LT PUSH2 0x4731 JUMPI PUSH4 0x4E487B71 PUSH1 0xE0 SHL PUSH1 0x0 MSTORE PUSH1 0x21 PUSH1 0x4 MSTORE PUSH1 0x24 PUSH1 0x0 REVERT JUMPDEST SWAP6 DUP2 MSTORE PUSH1 0x1 PUSH1 0x1 PUSH1 0xA0 SHL SUB SWAP5 SWAP1 SWAP5 AND PUSH1 0x20 DUP6 ADD MSTORE PUSH1 0x40 DUP5 ADD SWAP3 SWAP1 SWAP3 MSTORE PUSH1 0x60 DUP4 ADD MSTORE PUSH1 0x80 SWAP1 SWAP2 ADD MSTORE SWAP1 JUMP JUMPDEST PUSH1 0x20 DUP1 DUP3 MSTORE PUSH1 0x41 SWAP1 DUP3 ADD MSTORE PUSH1 0x0 DUP1 MLOAD PUSH1 0x20 PUSH2 0x48DF DUP4 CODECOPY DUP2 MLOAD SWAP2 MSTORE PUSH1 0x40 DUP3 ADD MSTORE PUSH32 0x2062656C6F6E6720746F20612055534454207072696365206461746120666565 PUSH1 0x60 DUP3 ADD MSTORE PUSH1 0x19 PUSH1 0xFA SHL PUSH1 0x80 DUP3 ADD MSTORE PUSH1 0xA0 ADD SWAP1 JUMP JUMPDEST PUSH1 0x0 DUP3 PUSH2 0x47CD JUMPI PUSH4 0x4E487B71 PUSH1 0xE0 SHL PUSH1 0x0 MSTORE PUSH1 0x12 PUSH1 0x4 MSTORE PUSH1 0x24 PUSH1 0x0 REVERT JUMPDEST POP DIV SWAP1 JUMP JUMPDEST PUSH1 0x20 DUP1 DUP3 MSTORE PUSH1 0x42 SWAP1 DUP3 ADD MSTORE PUSH1 0x0 DUP1 MLOAD PUSH1 0x20 PUSH2 0x48DF DUP4 CODECOPY DUP2 MLOAD SWAP2 MSTORE PUSH1 0x40 DUP3 ADD MSTORE PUSH32 0x2062656C6F6E6720746F2061204D415449432070726963652064617461206665 PUSH1 0x60 DUP3 ADD MSTORE PUSH2 0x1959 PUSH1 0xF2 SHL PUSH1 0x80 DUP3 ADD MSTORE PUSH1 0xA0 ADD SWAP1 JUMP JUMPDEST PUSH1 0x20 DUP1 DUP3 MSTORE PUSH1 0x41 SWAP1 DUP3 ADD MSTORE PUSH1 0x0 DUP1 MLOAD PUSH1 0x20 PUSH2 0x48DF DUP4 CODECOPY DUP2 MLOAD SWAP2 MSTORE PUSH1 0x40 DUP3 ADD MSTORE PUSH32 0x2062656C6F6E6720746F20612057425443207072696365206461746120666565 PUSH1 0x60 DUP3 ADD MSTORE PUSH1 0x19 PUSH1 0xFA SHL PUSH1 0x80 DUP3 ADD MSTORE PUSH1 0xA0 ADD SWAP1 JUMP JUMPDEST PUSH1 0x1 PUSH1 0x1 PUSH1 0xA0 SHL SUB SWAP4 SWAP1 SWAP4 AND DUP4 MSTORE PUSH1 0x20 DUP4 ADD SWAP2 SWAP1 SWAP2 MSTORE PUSH1 0x40 DUP3 ADD MSTORE PUSH1 0x60 ADD SWAP1 JUMP INVALID PUSH6 0x656E206D6F64 PUSH10 0x6669656420746F207468 PUSH2 0x7420 PUSH23 0x616C756500000000000054686572652077617320616E20 PUSH6 0x72726F72206F PUSH3 0x746169 PUSH15 0x696E6720746865546865206E657720 PUSH2 0x6464 PUSH19 0x65737320646F6573206E6F74207365656D2074 PUSH16 0x616479206265656E206D6F6469666965 PUSH5 0x20746F2074 PUSH9 0x61742076616C756500 LOG2 PUSH5 0x6970667358 0x22 SLT KECCAK256 0xEF PUSH5 0x5E830BB7EA 0xAC SSTORE PUSH4 0xB781A020 0x2A 0xA9 MLOAD 0x2A SWAP16 PREVRANDAO JUMPDEST SWAP12 0xC2 SUB 0xE4 NOT 0x2A 0xD8 EXP SWAP6 0x2E GASPRICE PUSH5 0x736F6C6343 STOP ADDMOD EQ STOP CALLER "},"methodIdentifiers":{"addToQualifiedInvestorList(address)":"8f7c7167","addToWhiteList(address)":"47ee0394","allowance(address,address)":"dd62ed3e","approve(address,uint256)":"095ea7b3","balanceOf(address)":"70a08231","calculateTotalHyaxTokenToReturn(uint256,uint256)":"8c945e63","decimals()":"313ce567","getCurrentMaticPrice()":"0aeee261","getCurrentUsdcPrice()":"d39f4561","getCurrentUsdtPrice()":"2eb93086","getCurrentWbtcPrice()":"fc77056f","getCurrentWethPrice()":"3ebda614","hyaxPrice()":"377c779f","investFromCryptoToken(uint8,uint256)":"731de514","investFromMatic()":"3b14f359","investorData(address)":"de1f5346","maticPriceFeedAddress()":"fb2dc76e","maximumInvestmentAllowedInUSD()":"8049bcb6","minimumInvestmentAllowedInUSD()":"2a241ad3","name()":"06fdde03","owner()":"8da5cb5b","pause()":"8456cb59","paused()":"5c975abb","removeFromQualifiedInvestorList(address)":"7ce5643a","removeFromWhiteList(address)":"01bf6648","renounceOwnership()":"715018a6","symbol()":"95d89b41","tokenIssuance(uint256)":"128ef022","totalSupply()":"18160ddd","transfer(address,uint256)":"a9059cbb","transferFrom(address,address,uint256)":"23b872dd","transferOwnership(address)":"f2fde38b","treasuryAddress()":"c5f956af","unpause()":"3f4ba83a","updateHyaxPrice(uint256)":"b40ed449","updateMaticPriceFeedAddress(address)":"dd0b49ed","updateMaximumInvestmentAllowedInUSD(uint256)":"5ec2562a","updateMinimumInvestmentAllowedInUSD(uint256)":"b2c568f3","updateTreasuryAddress(address)":"841e4561","updateUsdcPriceFeedAddress(address)":"0f3d57e2","updateUsdcTokenAddress(address)":"1e534be6","updateUsdtPriceFeedAddress(address)":"81eb121a","updateUsdtTokenAddress(address)":"4c97cf7c","updateWbtcPriceFeedAddress(address)":"e0ec6087","updateWbtcTokenAddress(address)":"bbdd2a54","updateWethPriceFeedAddress(address)":"1b1741e0","updateWethTokenAddress(address)":"49dd3e88","updateWhiteListerAddress(address)":"653c3a47","usdcPriceFeedAddress()":"40b5ea9c","usdcToken()":"11eac855","usdcTokenAddress()":"77b53ece","usdtPriceFeedAddress()":"08cd468f","usdtToken()":"a98ad46c","usdtTokenAddress()":"9d741e5d","validateMaximumInvestedAmountAndInvestorLimit(uint256,address)":"8116de2b","wbtcPriceFeedAddress()":"f7a47f81","wbtcToken()":"27614df8","wbtcTokenAddress()":"4c526bdb","wethPriceFeedAddress()":"5ae9384e","wethToken()":"4b57b0be","wethTokenAddress()":"0f9dad71","whiteListerAddress()":"65699d28"}},"storageLayout":{"storage":[{"astId":936,"contract":"contracts/HYAXLocal.sol:HYAXLocal","label":"_balances","offset":0,"slot":"0","type":"t_mapping(t_address,t_uint256)"},{"astId":942,"contract":"contracts/HYAXLocal.sol:HYAXLocal","label":"_allowances","offset":0,"slot":"1","type":"t_mapping(t_address,t_mapping(t_address,t_uint256))"},{"astId":944,"contract":"contracts/HYAXLocal.sol:HYAXLocal","label":"_totalSupply","offset":0,"slot":"2","type":"t_uint256"},{"astId":946,"contract":"contracts/HYAXLocal.sol:HYAXLocal","label":"_name","offset":0,"slot":"3","type":"t_string_storage"},{"astId":948,"contract":"contracts/HYAXLocal.sol:HYAXLocal","label":"_symbol","offset":0,"slot":"4","type":"t_string_storage"},{"astId":1605,"contract":"contracts/HYAXLocal.sol:HYAXLocal","label":"_paused","offset":0,"slot":"5","type":"t_bool"},{"astId":637,"contract":"contracts/HYAXLocal.sol:HYAXLocal","label":"_owner","offset":1,"slot":"5","type":"t_address"},{"astId":52,"contract":"contracts/HYAXLocal.sol:HYAXLocal","label":"_initialized","offset":21,"slot":"5","type":"t_uint8"},{"astId":55,"contract":"contracts/HYAXLocal.sol:HYAXLocal","label":"_initializing","offset":22,"slot":"5","type":"t_bool"},{"astId":228,"contract":"contracts/HYAXLocal.sol:HYAXLocal","label":"_status","offset":0,"slot":"6","type":"t_uint256"},{"astId":297,"contract":"contracts/HYAXLocal.sol:HYAXLocal","label":"__gap","offset":0,"slot":"7","type":"t_array(t_uint256)49_storage"},{"astId":1932,"contract":"contracts/HYAXLocal.sol:HYAXLocal","label":"hyaxPrice","offset":0,"slot":"56","type":"t_uint256"},{"astId":1935,"contract":"contracts/HYAXLocal.sol:HYAXLocal","label":"minimumInvestmentAllowedInUSD","offset":0,"slot":"57","type":"t_uint256"},{"astId":1938,"contract":"contracts/HYAXLocal.sol:HYAXLocal","label":"maximumInvestmentAllowedInUSD","offset":0,"slot":"58","type":"t_uint256"},{"astId":1941,"contract":"contracts/HYAXLocal.sol:HYAXLocal","label":"whiteListerAddress","offset":0,"slot":"59","type":"t_address"},{"astId":1944,"contract":"contracts/HYAXLocal.sol:HYAXLocal","label":"treasuryAddress","offset":0,"slot":"60","type":"t_address"},{"astId":1959,"contract":"contracts/HYAXLocal.sol:HYAXLocal","label":"investorData","offset":0,"slot":"61","type":"t_mapping(t_address,t_struct(InvestorData)1954_storage)"},{"astId":1968,"contract":"contracts/HYAXLocal.sol:HYAXLocal","label":"maticPriceFeedAddress","offset":0,"slot":"62","type":"t_address"},{"astId":1972,"contract":"contracts/HYAXLocal.sol:HYAXLocal","label":"dataFeedMatic","offset":0,"slot":"63","type":"t_contract(AggregatorV3Interface)45"},{"astId":1975,"contract":"contracts/HYAXLocal.sol:HYAXLocal","label":"usdcTokenAddress","offset":0,"slot":"64","type":"t_address"},{"astId":1978,"contract":"contracts/HYAXLocal.sol:HYAXLocal","label":"usdcPriceFeedAddress","offset":0,"slot":"65","type":"t_address"},{"astId":1982,"contract":"contracts/HYAXLocal.sol:HYAXLocal","label":"dataFeedUsdc","offset":0,"slot":"66","type":"t_contract(AggregatorV3Interface)45"},{"astId":1986,"contract":"contracts/HYAXLocal.sol:HYAXLocal","label":"usdcToken","offset":0,"slot":"67","type":"t_contract(ERC20TokenInterface)1748"},{"astId":1989,"contract":"contracts/HYAXLocal.sol:HYAXLocal","label":"usdtTokenAddress","offset":0,"slot":"68","type":"t_address"},{"astId":1992,"contract":"contracts/HYAXLocal.sol:HYAXLocal","label":"usdtPriceFeedAddress","offset":0,"slot":"69","type":"t_address"},{"astId":1996,"contract":"contracts/HYAXLocal.sol:HYAXLocal","label":"dataFeedUsdt","offset":0,"slot":"70","type":"t_contract(AggregatorV3Interface)45"},{"astId":2000,"contract":"contracts/HYAXLocal.sol:HYAXLocal","label":"usdtToken","offset":0,"slot":"71","type":"t_contract(ERC20TokenInterface)1748"},{"astId":2003,"contract":"contracts/HYAXLocal.sol:HYAXLocal","label":"wbtcTokenAddress","offset":0,"slot":"72","type":"t_address"},{"astId":2006,"contract":"contracts/HYAXLocal.sol:HYAXLocal","label":"wbtcPriceFeedAddress","offset":0,"slot":"73","type":"t_address"},{"astId":2010,"contract":"contracts/HYAXLocal.sol:HYAXLocal","label":"dataFeedWbtc","offset":0,"slot":"74","type":"t_contract(AggregatorV3Interface)45"},{"astId":2014,"contract":"contracts/HYAXLocal.sol:HYAXLocal","label":"wbtcToken","offset":0,"slot":"75","type":"t_contract(ERC20TokenInterface)1748"},{"astId":2017,"contract":"contracts/HYAXLocal.sol:HYAXLocal","label":"wethTokenAddress","offset":0,"slot":"76","type":"t_address"},{"astId":2020,"contract":"contracts/HYAXLocal.sol:HYAXLocal","label":"wethPriceFeedAddress","offset":0,"slot":"77","type":"t_address"},{"astId":2024,"contract":"contracts/HYAXLocal.sol:HYAXLocal","label":"dataFeedWeth","offset":0,"slot":"78","type":"t_contract(AggregatorV3Interface)45"},{"astId":2028,"contract":"contracts/HYAXLocal.sol:HYAXLocal","label":"wethToken","offset":0,"slot":"79","type":"t_contract(ERC20TokenInterface)1748"}],"types":{"t_address":{"encoding":"inplace","label":"address","numberOfBytes":"20"},"t_array(t_uint256)49_storage":{"base":"t_uint256","encoding":"inplace","label":"uint256[49]","numberOfBytes":"1568"},"t_bool":{"encoding":"inplace","label":"bool","numberOfBytes":"1"},"t_contract(AggregatorV3Interface)45":{"encoding":"inplace","label":"contract AggregatorV3Interface","numberOfBytes":"20"},"t_contract(ERC20TokenInterface)1748":{"encoding":"inplace","label":"contract ERC20TokenInterface","numberOfBytes":"20"},"t_mapping(t_address,t_mapping(t_address,t_uint256))":{"encoding":"mapping","key":"t_address","label":"mapping(address => mapping(address => uint256))","numberOfBytes":"32","value":"t_mapping(t_address,t_uint256)"},"t_mapping(t_address,t_struct(InvestorData)1954_storage)":{"encoding":"mapping","key":"t_address","label":"mapping(address => struct HYAXLocal.InvestorData)","numberOfBytes":"32","value":"t_struct(InvestorData)1954_storage"},"t_mapping(t_address,t_uint256)":{"encoding":"mapping","key":"t_address","label":"mapping(address => uint256)","numberOfBytes":"32","value":"t_uint256"},"t_string_storage":{"encoding":"bytes","label":"string","numberOfBytes":"32"},"t_struct(InvestorData)1954_storage":{"encoding":"inplace","label":"struct HYAXLocal.InvestorData","members":[{"astId":1947,"contract":"contracts/HYAXLocal.sol:HYAXLocal","label":"isWhiteListed","offset":0,"slot":"0","type":"t_bool"},{"astId":1949,"contract":"contracts/HYAXLocal.sol:HYAXLocal","label":"isQualifiedInvestor","offset":1,"slot":"0","type":"t_bool"},{"astId":1951,"contract":"contracts/HYAXLocal.sol:HYAXLocal","label":"totalHyaxBoughtByInvestor","offset":0,"slot":"1","type":"t_uint256"},{"astId":1953,"contract":"contracts/HYAXLocal.sol:HYAXLocal","label":"totalUsdDepositedByInvestor","offset":0,"slot":"2","type":"t_uint256"}],"numberOfBytes":"96"},"t_uint256":{"encoding":"inplace","label":"uint256","numberOfBytes":"32"},"t_uint8":{"encoding":"inplace","label":"uint8","numberOfBytes":"1"}}}}}}