{"contracts/HYAXLocal.sol":{"HYAXLocal":{"abi":[{"inputs":[],"stateMutability":"nonpayable","type":"constructor"},{"inputs":[{"internalType":"address","name":"spender","type":"address"},{"internalType":"uint256","name":"allowance","type":"uint256"},{"internalType":"uint256","name":"needed","type":"uint256"}],"name":"ERC20InsufficientAllowance","type":"error"},{"inputs":[{"internalType":"address","name":"sender","type":"address"},{"internalType":"uint256","name":"balance","type":"uint256"},{"internalType":"uint256","name":"needed","type":"uint256"}],"name":"ERC20InsufficientBalance","type":"error"},{"inputs":[{"internalType":"address","name":"approver","type":"address"}],"name":"ERC20InvalidApprover","type":"error"},{"inputs":[{"internalType":"address","name":"receiver","type":"address"}],"name":"ERC20InvalidReceiver","type":"error"},{"inputs":[{"internalType":"address","name":"sender","type":"address"}],"name":"ERC20InvalidSender","type":"error"},{"inputs":[{"internalType":"address","name":"spender","type":"address"}],"name":"ERC20InvalidSpender","type":"error"},{"inputs":[],"name":"EnforcedPause","type":"error"},{"inputs":[],"name":"ExpectedPause","type":"error"},{"inputs":[{"internalType":"address","name":"owner","type":"address"}],"name":"OwnableInvalidOwner","type":"error"},{"inputs":[{"internalType":"address","name":"account","type":"address"}],"name":"OwnableUnauthorizedAccount","type":"error"},{"anonymous":false,"inputs":[{"indexed":true,"internalType":"address","name":"owner","type":"address"},{"indexed":true,"internalType":"address","name":"spender","type":"address"},{"indexed":false,"internalType":"uint256","name":"value","type":"uint256"}],"name":"Approval","type":"event"},{"anonymous":false,"inputs":[{"indexed":false,"internalType":"address","name":"sender","type":"address"},{"indexed":false,"internalType":"address","name":"_investorAddress","type":"address"},{"indexed":false,"internalType":"bool","name":"_isBlacklisted","type":"bool"}],"name":"BlacklistStatusUpdated","type":"event"},{"anonymous":false,"inputs":[{"indexed":false,"internalType":"uint8","name":"version","type":"uint8"}],"name":"Initialized","type":"event"},{"anonymous":false,"inputs":[{"indexed":false,"internalType":"enum HYAXLocal.TokenType","name":"tokenType","type":"uint8"},{"indexed":false,"internalType":"address","name":"sender","type":"address"},{"indexed":false,"internalType":"uint256","name":"tokenAmount","type":"uint256"},{"indexed":false,"internalType":"uint256","name":"totalInvestmentInUsd","type":"uint256"},{"indexed":false,"internalType":"uint256","name":"hyaxAmount","type":"uint256"}],"name":"InvestFromCryptoToken","type":"event"},{"anonymous":false,"inputs":[{"indexed":false,"internalType":"address","name":"sender","type":"address"},{"indexed":false,"internalType":"uint256","name":"maticAmount","type":"uint256"},{"indexed":false,"internalType":"uint256","name":"totalInvestmentInUsd","type":"uint256"},{"indexed":false,"internalType":"uint256","name":"hyaxAmount","type":"uint256"}],"name":"InvestFromMatic","type":"event"},{"anonymous":false,"inputs":[{"indexed":false,"internalType":"address","name":"sender","type":"address"},{"indexed":false,"internalType":"address","name":"_investorAddress","type":"address"}],"name":"InvestorAddedToWhiteList","type":"event"},{"anonymous":false,"inputs":[{"indexed":true,"internalType":"address","name":"previousOwner","type":"address"},{"indexed":true,"internalType":"address","name":"newOwner","type":"address"}],"name":"OwnershipTransferred","type":"event"},{"anonymous":false,"inputs":[{"indexed":false,"internalType":"address","name":"account","type":"address"}],"name":"Paused","type":"event"},{"anonymous":false,"inputs":[{"indexed":false,"internalType":"address","name":"sender","type":"address"},{"indexed":false,"internalType":"address","name":"_QualifiedInvestorAddress","type":"address"},{"indexed":false,"internalType":"bool","name":"_isQualifiedInvestor","type":"bool"}],"name":"QualifiedInvestorStatusUpdated","type":"event"},{"anonymous":false,"inputs":[{"indexed":false,"internalType":"address","name":"sender","type":"address"},{"indexed":false,"internalType":"uint256","name":"amount","type":"uint256"}],"name":"TokenIssuance","type":"event"},{"anonymous":false,"inputs":[{"indexed":true,"internalType":"address","name":"from","type":"address"},{"indexed":true,"internalType":"address","name":"to","type":"address"},{"indexed":false,"internalType":"uint256","name":"value","type":"uint256"}],"name":"Transfer","type":"event"},{"anonymous":false,"inputs":[{"indexed":false,"internalType":"address","name":"account","type":"address"}],"name":"Unpaused","type":"event"},{"anonymous":false,"inputs":[{"indexed":false,"internalType":"uint256","name":"_newHyaxPrice","type":"uint256"}],"name":"UpdatedHyaxPrice","type":"event"},{"anonymous":false,"inputs":[{"indexed":false,"internalType":"address","name":"_newMaticPriceFeedAddress","type":"address"}],"name":"UpdatedMaticPriceFeedAddress","type":"event"},{"anonymous":false,"inputs":[{"indexed":false,"internalType":"uint256","name":"_newMaximumInvestmentAllowedInUSD","type":"uint256"}],"name":"UpdatedMaximumInvestmentAllowedInUSD","type":"event"},{"anonymous":false,"inputs":[{"indexed":false,"internalType":"uint256","name":"_newMinimumInvestmentAllowedInUSD","type":"uint256"}],"name":"UpdatedMinimumInvestmentAllowedInUSD","type":"event"},{"anonymous":false,"inputs":[{"indexed":false,"internalType":"address","name":"_newTreasuryAddress","type":"address"}],"name":"UpdatedTreasuryAddress","type":"event"},{"anonymous":false,"inputs":[{"indexed":false,"internalType":"address","name":"_newUsdcPriceFeedAddress","type":"address"}],"name":"UpdatedUsdcPriceFeedAddress","type":"event"},{"anonymous":false,"inputs":[{"indexed":false,"internalType":"address","name":"_newUsdcTokenAddress","type":"address"}],"name":"UpdatedUsdcTokenAddress","type":"event"},{"anonymous":false,"inputs":[{"indexed":false,"internalType":"address","name":"_newUsdtPriceFeedAddress","type":"address"}],"name":"UpdatedUsdtPriceFeedAddress","type":"event"},{"anonymous":false,"inputs":[{"indexed":false,"internalType":"address","name":"_newUsdtTokenAddress","type":"address"}],"name":"UpdatedUsdtTokenAddress","type":"event"},{"anonymous":false,"inputs":[{"indexed":false,"internalType":"address","name":"_newWbtcPriceFeedAddress","type":"address"}],"name":"UpdatedWbtcPriceFeedAddress","type":"event"},{"anonymous":false,"inputs":[{"indexed":false,"internalType":"address","name":"_newWbtcTokenAddress","type":"address"}],"name":"UpdatedWbtcTokenAddress","type":"event"},{"anonymous":false,"inputs":[{"indexed":false,"internalType":"address","name":"_newWethPriceFeedAddress","type":"address"}],"name":"UpdatedWethPriceFeedAddress","type":"event"},{"anonymous":false,"inputs":[{"indexed":false,"internalType":"address","name":"_newWethTokenAddress","type":"address"}],"name":"UpdatedWethTokenAddress","type":"event"},{"anonymous":false,"inputs":[{"indexed":false,"internalType":"address","name":"_newWhiteListerAddress","type":"address"}],"name":"UpdatedWhiteListerAddress","type":"event"},{"anonymous":false,"inputs":[{"indexed":false,"internalType":"address","name":"sender","type":"address"},{"indexed":false,"internalType":"address","name":"_investorAddress","type":"address"},{"indexed":false,"internalType":"bool","name":"_isWhiteListed","type":"bool"}],"name":"WhitelistStatusUpdated","type":"event"},{"inputs":[{"internalType":"address","name":"_investorAddress","type":"address"}],"name":"addToWhiteList","outputs":[],"stateMutability":"nonpayable","type":"function"},{"inputs":[{"internalType":"address","name":"owner","type":"address"},{"internalType":"address","name":"spender","type":"address"}],"name":"allowance","outputs":[{"internalType":"uint256","name":"","type":"uint256"}],"stateMutability":"view","type":"function"},{"inputs":[{"internalType":"address","name":"spender","type":"address"},{"internalType":"uint256","name":"value","type":"uint256"}],"name":"approve","outputs":[{"internalType":"bool","name":"","type":"bool"}],"stateMutability":"nonpayable","type":"function"},{"inputs":[{"internalType":"address","name":"account","type":"address"}],"name":"balanceOf","outputs":[{"internalType":"uint256","name":"","type":"uint256"}],"stateMutability":"view","type":"function"},{"inputs":[{"internalType":"uint256","name":"_amount","type":"uint256"},{"internalType":"uint256","name":"_currentCryptocurrencyPrice","type":"uint256"}],"name":"calculateTotalHyaxTokenToReturn","outputs":[{"internalType":"uint256","name":"totalInvestmentInUsd","type":"uint256"},{"internalType":"uint256","name":"totalHyaxTokenToReturn","type":"uint256"}],"stateMutability":"view","type":"function"},{"inputs":[],"name":"decimals","outputs":[{"internalType":"uint8","name":"","type":"uint8"}],"stateMutability":"view","type":"function"},{"inputs":[{"internalType":"enum HYAXLocal.TokenType","name":"tokenType","type":"uint8"}],"name":"getCurrentTokenPrice","outputs":[{"internalType":"uint256","name":"","type":"uint256"}],"stateMutability":"view","type":"function"},{"inputs":[],"name":"hyaxPrice","outputs":[{"internalType":"uint256","name":"","type":"uint256"}],"stateMutability":"view","type":"function"},{"inputs":[{"internalType":"enum HYAXLocal.TokenType","name":"tokenType","type":"uint8"},{"internalType":"uint256","name":"_amount","type":"uint256"}],"name":"investFromCryptoToken","outputs":[{"internalType":"bool","name":"","type":"bool"}],"stateMutability":"nonpayable","type":"function"},{"inputs":[],"name":"investFromMatic","outputs":[{"internalType":"bool","name":"","type":"bool"}],"stateMutability":"payable","type":"function"},{"inputs":[{"internalType":"address","name":"","type":"address"}],"name":"investorData","outputs":[{"internalType":"bool","name":"isWhiteListed","type":"bool"},{"internalType":"bool","name":"isBlacklisted","type":"bool"},{"internalType":"bool","name":"isQualifiedInvestor","type":"bool"},{"internalType":"uint256","name":"totalHyaxBoughtByInvestor","type":"uint256"},{"internalType":"uint256","name":"totalUsdDepositedByInvestor","type":"uint256"}],"stateMutability":"view","type":"function"},{"inputs":[],"name":"maticPriceFeedAddress","outputs":[{"internalType":"address","name":"","type":"address"}],"stateMutability":"view","type":"function"},{"inputs":[],"name":"maximumInvestmentAllowedInUSD","outputs":[{"internalType":"uint256","name":"","type":"uint256"}],"stateMutability":"view","type":"function"},{"inputs":[],"name":"minimumInvestmentAllowedInUSD","outputs":[{"internalType":"uint256","name":"","type":"uint256"}],"stateMutability":"view","type":"function"},{"inputs":[],"name":"name","outputs":[{"internalType":"string","name":"","type":"string"}],"stateMutability":"view","type":"function"},{"inputs":[],"name":"owner","outputs":[{"internalType":"address","name":"","type":"address"}],"stateMutability":"view","type":"function"},{"inputs":[],"name":"pause","outputs":[],"stateMutability":"nonpayable","type":"function"},{"inputs":[],"name":"paused","outputs":[{"internalType":"bool","name":"","type":"bool"}],"stateMutability":"view","type":"function"},{"inputs":[],"name":"renounceOwnership","outputs":[],"stateMutability":"nonpayable","type":"function"},{"inputs":[],"name":"symbol","outputs":[{"internalType":"string","name":"","type":"string"}],"stateMutability":"view","type":"function"},{"inputs":[{"internalType":"uint256","name":"_amount","type":"uint256"}],"name":"tokenIssuance","outputs":[],"stateMutability":"nonpayable","type":"function"},{"inputs":[],"name":"totalSupply","outputs":[{"internalType":"uint256","name":"","type":"uint256"}],"stateMutability":"view","type":"function"},{"inputs":[{"internalType":"address","name":"to","type":"address"},{"internalType":"uint256","name":"value","type":"uint256"}],"name":"transfer","outputs":[{"internalType":"bool","name":"","type":"bool"}],"stateMutability":"nonpayable","type":"function"},{"inputs":[{"internalType":"address","name":"from","type":"address"},{"internalType":"address","name":"to","type":"address"},{"internalType":"uint256","name":"value","type":"uint256"}],"name":"transferFrom","outputs":[{"internalType":"bool","name":"","type":"bool"}],"stateMutability":"nonpayable","type":"function"},{"inputs":[{"internalType":"address","name":"newOwner","type":"address"}],"name":"transferOwnership","outputs":[],"stateMutability":"nonpayable","type":"function"},{"inputs":[],"name":"treasuryAddress","outputs":[{"internalType":"address","name":"","type":"address"}],"stateMutability":"view","type":"function"},{"inputs":[],"name":"unpause","outputs":[],"stateMutability":"nonpayable","type":"function"},{"inputs":[{"internalType":"address","name":"_investorAddress","type":"address"},{"internalType":"bool","name":"_newStatus","type":"bool"}],"name":"updateBlacklistStatus","outputs":[],"stateMutability":"nonpayable","type":"function"},{"inputs":[{"internalType":"uint256","name":"_newHyaxPrice","type":"uint256"}],"name":"updateHyaxPrice","outputs":[],"stateMutability":"nonpayable","type":"function"},{"inputs":[{"internalType":"uint256","name":"_newMaximumInvestmentAllowedInUSD","type":"uint256"}],"name":"updateMaximumInvestmentAllowedInUSD","outputs":[],"stateMutability":"nonpayable","type":"function"},{"inputs":[{"internalType":"uint256","name":"_newMinimumInvestmentAllowedInUSD","type":"uint256"}],"name":"updateMinimumInvestmentAllowedInUSD","outputs":[],"stateMutability":"nonpayable","type":"function"},{"inputs":[{"internalType":"enum HYAXLocal.TokenType","name":"tokenType","type":"uint8"},{"internalType":"address","name":"newPriceFeedAddress","type":"address"}],"name":"updatePriceFeedAddress","outputs":[],"stateMutability":"nonpayable","type":"function"},{"inputs":[{"internalType":"address","name":"_qualifiedInvestorAddress","type":"address"},{"internalType":"bool","name":"_newStatus","type":"bool"}],"name":"updateQualifiedInvestorStatus","outputs":[],"stateMutability":"nonpayable","type":"function"},{"inputs":[{"internalType":"enum HYAXLocal.TokenType","name":"tokenType","type":"uint8"},{"internalType":"address","name":"newTokenAddress","type":"address"}],"name":"updateTokenAddress","outputs":[],"stateMutability":"nonpayable","type":"function"},{"inputs":[{"internalType":"address","name":"_newTreasuryAddress","type":"address"}],"name":"updateTreasuryAddress","outputs":[],"stateMutability":"nonpayable","type":"function"},{"inputs":[{"internalType":"address","name":"_newWhiteListerAddress","type":"address"}],"name":"updateWhiteListerAddress","outputs":[],"stateMutability":"nonpayable","type":"function"},{"inputs":[{"internalType":"address","name":"_investorAddress","type":"address"},{"internalType":"bool","name":"_newStatus","type":"bool"}],"name":"updateWhitelistStatus","outputs":[],"stateMutability":"nonpayable","type":"function"},{"inputs":[],"name":"usdcPriceFeedAddress","outputs":[{"internalType":"address","name":"","type":"address"}],"stateMutability":"view","type":"function"},{"inputs":[],"name":"usdcToken","outputs":[{"internalType":"contract ERC20TokenInterface","name":"","type":"address"}],"stateMutability":"view","type":"function"},{"inputs":[],"name":"usdcTokenAddress","outputs":[{"internalType":"address","name":"","type":"address"}],"stateMutability":"view","type":"function"},{"inputs":[],"name":"usdtPriceFeedAddress","outputs":[{"internalType":"address","name":"","type":"address"}],"stateMutability":"view","type":"function"},{"inputs":[],"name":"usdtToken","outputs":[{"internalType":"contract ERC20TokenInterface","name":"","type":"address"}],"stateMutability":"view","type":"function"},{"inputs":[],"name":"usdtTokenAddress","outputs":[{"internalType":"address","name":"","type":"address"}],"stateMutability":"view","type":"function"},{"inputs":[{"internalType":"uint256","name":"_totalInvestmentInUsd","type":"uint256"},{"internalType":"address","name":"_investorAddress","type":"address"}],"name":"validateMaximumInvestedAmountAndInvestorLimit","outputs":[],"stateMutability":"view","type":"function"},{"inputs":[],"name":"wbtcPriceFeedAddress","outputs":[{"internalType":"address","name":"","type":"address"}],"stateMutability":"view","type":"function"},{"inputs":[],"name":"wbtcToken","outputs":[{"internalType":"contract ERC20TokenInterface","name":"","type":"address"}],"stateMutability":"view","type":"function"},{"inputs":[],"name":"wbtcTokenAddress","outputs":[{"internalType":"address","name":"","type":"address"}],"stateMutability":"view","type":"function"},{"inputs":[],"name":"wethPriceFeedAddress","outputs":[{"internalType":"address","name":"","type":"address"}],"stateMutability":"view","type":"function"},{"inputs":[],"name":"wethToken","outputs":[{"internalType":"contract ERC20TokenInterface","name":"","type":"address"}],"stateMutability":"view","type":"function"},{"inputs":[],"name":"wethTokenAddress","outputs":[{"internalType":"address","name":"","type":"address"}],"stateMutability":"view","type":"function"},{"inputs":[],"name":"whiteListerAddress","outputs":[{"internalType":"address","name":"","type":"address"}],"stateMutability":"view","type":"function"},{"stateMutability":"payable","type":"receive"}],"evm":{"bytecode":{"linkReferences":{},"object":"60806040523480156200001157600080fd5b503360405180604001604052806009815260200168242ca0ac2a37b5b2b760b91b81525060405180604001604052806004815260200163090b282b60e31b8152508160039081620000639190620005b1565b506004620000728282620005b1565b50506005805460ff19169055506001600160a01b038116620000af57604051631e4fbdf760e01b8152600060048201526024015b60405180910390fd5b620000ba81620002ff565b50620000e433620000ce6012600a62000792565b620000de90631dcd6500620007aa565b62000359565b620927c0603855620000f96012600a62000792565b62000106906001620007aa565b603955620001176012600a62000792565b6200012590612710620007aa565b603a55603b80546001600160a01b03199081167301c2f012de19e6436744c3f81f56e9e70c93a8c317909155603c8054821673350441f8a82680a785ffa9d3efea60bb4ca417f8179055603e80548216721382149eba3441043c1c66972b4772963f5d43908117909155603f80548316909117905560408054821673f68054bfe5d45432ffca28ffa1f3d685d0456ddc908117909155604180548316731b8739bb4cdf0089d07097a9ae5bd274b29c6f16908117909155604280548416909117905560438054831690911790556044805482167370e02fb82b6bc04f64099689b0599e14b44d4fbb908117909155604580548316733ac23dcb4ecfcbd24579e1f34542524d0e4edea890811790915560468054841690911790556047805483169091179055604880548216733c8df3c48b3884da2ff25e17524282d60f9c3b9390811790915560498054831673e7656e23fe8077d438aefbec2fabdf2d8e070c4f908117909155604a805484169091179055604b805483169091179055604c8054821673524a89ed77d5827320e35e12bca96830c6b7960a908117909155604d8054831673f0d50568e3a7e8259e16663972b11910f89bd8e7908117909155604e805484169091179055604f8054909216179055620007da565b600580546001600160a01b03838116610100818102610100600160a81b031985161790945560405193909204169182907f8be0079c531659141344cd1fd0a4f28419497f9722a3daafe3b4186f6b6457e090600090a35050565b6001600160a01b038216620003855760405163ec442f0560e01b815260006004820152602401620000a6565b620003936000838362000397565b5050565b620003a1620003b3565b620003ae838383620003da565b505050565b60055460ff1615620003d85760405163d93c066560e01b815260040160405180910390fd5b565b6001600160a01b03831662000409578060026000828254620003fd9190620007c4565b909155506200047d9050565b6001600160a01b038316600090815260208190526040902054818110156200045e5760405163391434e360e21b81526001600160a01b03851660048201526024810182905260448101839052606401620000a6565b6001600160a01b03841660009081526020819052604090209082900390555b6001600160a01b0382166200049b57600280548290039055620004ba565b6001600160a01b03821660009081526020819052604090208054820190555b816001600160a01b0316836001600160a01b03167fddf252ad1be2c89b69c2b068fc378daa952ba7f163c4a11628f55a4df523b3ef836040516200050091815260200190565b60405180910390a3505050565b634e487b7160e01b600052604160045260246000fd5b600181811c908216806200053857607f821691505b6020821081036200055957634e487b7160e01b600052602260045260246000fd5b50919050565b601f821115620003ae57600081815260208120601f850160051c81016020861015620005885750805b601f850160051c820191505b81811015620005a95782815560010162000594565b505050505050565b81516001600160401b03811115620005cd57620005cd6200050d565b620005e581620005de845462000523565b846200055f565b602080601f8311600181146200061d5760008415620006045750858301515b600019600386901b1c1916600185901b178555620005a9565b600085815260208120601f198616915b828110156200064e578886015182559484019460019091019084016200062d565b50858210156200066d5787850151600019600388901b60f8161c191681555b5050505050600190811b01905550565b634e487b7160e01b600052601160045260246000fd5b600181815b80851115620006d4578160001904821115620006b857620006b86200067d565b80851615620006c657918102915b93841c939080029062000698565b509250929050565b600082620006ed575060016200078c565b81620006fc575060006200078c565b8160018114620007155760028114620007205762000740565b60019150506200078c565b60ff8411156200073457620007346200067d565b50506001821b6200078c565b5060208310610133831016604e8410600b841016171562000765575081810a6200078c565b62000771838362000693565b80600019048211156200078857620007886200067d565b0290505b92915050565b6000620007a360ff841683620006dc565b9392505050565b80820281158282048414176200078c576200078c6200067d565b808201808211156200078c576200078c6200067d565b61419180620007ea6000396000f3fe6080604052600436106102e85760003560e01c806365699d2811610190578063a9059cbb116100dc578063c07732a311610095578063de1f53461161006f578063de1f5346146108fe578063f2fde38b14610980578063f7a47f81146109a0578063fb2dc76e146109c057600080fd5b8063c07732a314610878578063c5f956af14610898578063dd62ed3e146108b857600080fd5b8063a9059cbb146107b8578063a98ad46c146107d8578063b2c568f3146107f8578063b40ed44914610818578063b836080614610838578063bb6f98fb1461085857600080fd5b80638116de2b116101495780638c945e63116101235780638c945e631461072b5780638da5cb5b1461076057806395d89b41146107835780639d741e5d1461079857600080fd5b80638116de2b146106d6578063841e4561146106f65780638456cb591461071657600080fd5b806365699d281461061557806370a0823114610635578063715018a61461066b578063731de5141461068057806377b53ece146106a05780638049bcb6146106c057600080fd5b8063367f44fb1161024f57806347ee0394116102085780635ae9384e116101e25780635ae9384e1461059d5780635c975abb146105bd5780635ec2562a146105d5578063653c3a47146105f557600080fd5b806347ee03941461053d5780634b57b0be1461055d5780634c526bdb1461057d57600080fd5b8063367f44fb146104aa578063377c779f146104ca5780633b14f359146104e05780633de6f379146104e85780633f4ba83a1461050857806340b5ea9c1461051d57600080fd5b806318160ddd116102a157806318160ddd146103f957806323b872dd1461041857806323c66f9a1461043857806327614df8146104585780632a241ad314610478578063313ce5671461048e57600080fd5b806306fdde031461030657806308cd468f14610331578063095ea7b3146103695780630f9dad711461039957806311eac855146103b9578063128ef022146103d957600080fd5b36610301576102f56109e0565b6102ff6001600655565b005b600080fd5b34801561031257600080fd5b5061031b610a3e565b60405161032891906139c3565b60405180910390f35b34801561033d57600080fd5b50604554610351906001600160a01b031681565b6040516001600160a01b039091168152602001610328565b34801561037557600080fd5b50610389610384366004613a12565b610ad0565b6040519015158152602001610328565b3480156103a557600080fd5b50604c54610351906001600160a01b031681565b3480156103c557600080fd5b50604354610351906001600160a01b031681565b3480156103e557600080fd5b506102ff6103f4366004613a3c565b610aea565b34801561040557600080fd5b506002545b604051908152602001610328565b34801561042457600080fd5b50610389610433366004613a55565b610d0e565b34801561044457600080fd5b506102ff610453366004613aa0565b610d32565b34801561046457600080fd5b50604b54610351906001600160a01b031681565b34801561048457600080fd5b5061040a60395481565b34801561049a57600080fd5b5060405160128152602001610328565b3480156104b657600080fd5b506102ff6104c5366004613ae1565b611480565b3480156104d657600080fd5b5061040a60385481565b61038961170d565b3480156104f457600080fd5b506102ff610503366004613aa0565b611998565b34801561051457600080fd5b506102ff611de5565b34801561052957600080fd5b50604154610351906001600160a01b031681565b34801561054957600080fd5b506102ff610558366004613b18565b611df7565b34801561056957600080fd5b50604f54610351906001600160a01b031681565b34801561058957600080fd5b50604854610351906001600160a01b031681565b3480156105a957600080fd5b50604d54610351906001600160a01b031681565b3480156105c957600080fd5b5060055460ff16610389565b3480156105e157600080fd5b506102ff6105f0366004613a3c565b612029565b34801561060157600080fd5b506102ff610610366004613b18565b6121f4565b34801561062157600080fd5b50603b54610351906001600160a01b031681565b34801561064157600080fd5b5061040a610650366004613b18565b6001600160a01b031660009081526020819052604090205490565b34801561067757600080fd5b506102ff61233f565b34801561068c57600080fd5b5061038961069b366004613b3a565b612351565b3480156106ac57600080fd5b50604054610351906001600160a01b031681565b3480156106cc57600080fd5b5061040a603a5481565b3480156106e257600080fd5b506102ff6106f1366004613b56565b612816565b34801561070257600080fd5b506102ff610711366004613b18565b6128ec565b34801561072257600080fd5b506102ff612a34565b34801561073757600080fd5b5061074b610746366004613b79565b612a44565b60408051928352602083019190915201610328565b34801561076c57600080fd5b5060055461010090046001600160a01b0316610351565b34801561078f57600080fd5b5061031b612b9f565b3480156107a457600080fd5b50604454610351906001600160a01b031681565b3480156107c457600080fd5b506103896107d3366004613a12565b612bae565b3480156107e457600080fd5b50604754610351906001600160a01b031681565b34801561080457600080fd5b506102ff610813366004613a3c565b612bbc565b34801561082457600080fd5b506102ff610833366004613a3c565b612d81565b34801561084457600080fd5b506102ff610853366004613ae1565b612f53565b34801561086457600080fd5b5061040a610873366004613b9b565b6130e8565b34801561088457600080fd5b506102ff610893366004613ae1565b613294565b3480156108a457600080fd5b50603c54610351906001600160a01b031681565b3480156108c457600080fd5b5061040a6108d3366004613bb6565b6001600160a01b03918216600090815260016020908152604080832093909416825291909152205490565b34801561090a57600080fd5b5061094f610919366004613b18565b603d6020526000908152604090208054600182015460029092015460ff8083169361010084048216936201000090049091169185565b6040516103289594939291909415158552921515602085015290151560408401526060830152608082015260a00190565b34801561098c57600080fd5b506102ff61099b366004613b18565b61341d565b3480156109ac57600080fd5b50604954610351906001600160a01b031681565b3480156109cc57600080fd5b50603e54610351906001600160a01b031681565b600260065403610a375760405162461bcd60e51b815260206004820152601f60248201527f5265656e7472616e637947756172643a207265656e7472616e742063616c6c0060448201526064015b60405180910390fd5b6002600655565b606060038054610a4d90613bd2565b80601f0160208091040260200160405190810160405280929190818152602001828054610a7990613bd2565b8015610ac65780601f10610a9b57610100808354040283529160200191610ac6565b820191906000526020600020905b815481529060010190602001808311610aa957829003601f168201915b5050505050905090565b600033610ade81858561350a565b60019150505b92915050565b610af2613517565b610afa6109e0565b610b066012600a613d00565b811015610b7b5760405162461bcd60e51b815260206004820152603760248201527f416d6f756e74206f66204859415820746f6b656e7320746f206973737565206d60448201527f757374206265206174206c65617374203120746f6b656e0000000000000000006064820152608401610a2e565b610b876012600a613d00565b610b9590633b9aca00613d0f565b811115610c0a5760405162461bcd60e51b815260206004820152603f60248201527f416d6f756e74206f66204859415820746f6b656e7320746f206973737565206160448201527f7420612074696d65206d757374206265206d6178696d756d2031303030204d006064820152608401610a2e565b610c166012600a613d00565b610c25906402540be400613d0f565b81610c2f60025490565b610c399190613d26565b1115610cad5760405162461bcd60e51b815260206004820152603b60248201527f416d6f756e74206f66204859415820746f6b656e7320746f206973737565207360448201527f75727061736573207468652031302c303030204d20746f6b656e7300000000006064820152608401610a2e565b600554610cc89061010090046001600160a01b03168261354a565b60408051338152602081018390527f455064bbf1374d9e833b8d9db24c56b24dbf79cc1a94a30665cae7093963d5a8910160405180910390a1610d0b6001600655565b50565b600033610d1c858285613580565b610d278585856135fe565b506001949350505050565b610d3a613517565b6001600160a01b038116610daf5760405162461bcd60e51b815260206004820152603660248201527f5468652070726963652064617461206665656420616464726573732063616e6e6044820152756f7420626520746865207a65726f206164647265737360501b6064820152608401610a2e565b8060008080856004811115610dc657610dc6613d39565b03610e8957603e546001600160a01b0390811690851603610e51576040805162461bcd60e51b81526020600482015260248101919091527f4d41544943207072696365206665656420616464726573732068617320616c7260448201527f65616479206265656e206d6f64696669656420746f20746861742076616c75656064820152608401610a2e565b6040516a1350551250c80bc81554d160aa1b6020820152602b015b604051602081830303815290604052805190602001209150611169565b6001856004811115610e9d57610e9d613d39565b03610f32576041546001600160a01b0390811690851603610f145760405162461bcd60e51b815260206004820152603f60248201527f55534443207072696365206665656420616464726573732068617320616c7265604482015260008051602061413c8339815191526064820152608401610a2e565b604051691554d110c80bc81554d160b21b6020820152602a01610e6c565b6002856004811115610f4657610f46613d39565b03610fdb576045546001600160a01b0390811690851603610fbd5760405162461bcd60e51b815260206004820152603f60248201527f55534454207072696365206665656420616464726573732068617320616c7265604482015260008051602061413c8339815191526064820152608401610a2e565b604051691554d115080bc81554d160b21b6020820152602a01610e6c565b6003856004811115610fef57610fef613d39565b03611084576049546001600160a01b03908116908516036110665760405162461bcd60e51b815260206004820152603f60248201527f57425443207072696365206665656420616464726573732068617320616c7265604482015260008051602061413c8339815191526064820152608401610a2e565b6040516915d09510c80bc81554d160b21b6020820152602a01610e6c565b600485600481111561109857611098613d39565b0361112c57604d546001600160a01b039081169085160361110f5760405162461bcd60e51b815260206004820152603f60248201527f57455448207072696365206665656420616464726573732068617320616c7265604482015260008051602061413c8339815191526064820152608401610a2e565b60405168115512080bc81554d160ba1b6020820152602901610e6c565b60405162461bcd60e51b8152602060048201526012602482015271496e76616c696420746f6b656e207479706560701b6044820152606401610a2e565b826001600160a01b0316637284e4166040518163ffffffff1660e01b8152600401600060405180830381865afa9250505080156111c857506040513d6000823e601f3d908101601f191682016040526111c59190810190613d65565b60015b6111e45760405162461bcd60e51b8152600401610a2e90613e12565b806040516020016111f59190613e7e565b60405160208183030381529060405280519060200120915081831461122c5760405162461bcd60e51b8152600401610a2e90613e12565b50600085600481111561124157611241613d39565b036112a957603e80546001600160a01b0386166001600160a01b03199182168117909255603f8054909116821790556040519081527fee9bc8d900b5d69f934ec4a3986b3bfda61add54821456c3f7e943e87cf48f52906020015b60405180910390a1611479565b60018560048111156112bd576112bd613d39565b0361131c57604180546001600160a01b0386166001600160a01b0319918216811790925560428054909116821790556040519081527f0a0bc5dadd9d9c881861f6da8998bebef8eabcb5f3d6651187c5d1899e3279659060200161129c565b600285600481111561133057611330613d39565b0361138f57604580546001600160a01b0386166001600160a01b0319918216811790925560468054909116821790556040519081527f1e5bfe0b7fe6fcdc586b9e3a4fbdc0bdb1346d36173963ba38c897137ba160319060200161129c565b60038560048111156113a3576113a3613d39565b0361140257604980546001600160a01b0386166001600160a01b03199182168117909255604a8054909116821790556040519081527f2171c3cfa3d86551d618c9da7164a608dd795715bf61402d9ccb45cf5433a0769060200161129c565b600485600481111561141657611416613d39565b0361147957604d80546001600160a01b0386166001600160a01b03199182168117909255604e8054909116821790556040519081527fc21be1e8c8d6de83e19ad6de75cd885eefac75be87e532a0a04d02147004e5209060200160405180910390a15b5050505050565b60055461010090046001600160a01b03166001600160a01b0316336001600160a01b031614806114ba5750603b546001600160a01b031633145b6114d65760405162461bcd60e51b8152600401610a2e90613e9a565b6001600160a01b03821661156a5760405162461bcd60e51b815260206004820152604f60248201527f496e766573746f72206164647265737320746f20757064617465207175616c6960448201527f6669656420696e766573746f72207374617475732063616e6e6f74206265207460648201526e6865207a65726f206164647265737360881b608482015260a401610a2e565b6001600160a01b0382166000908152603d602052604090205460ff166115f85760405162461bcd60e51b815260206004820152603e60248201527f496e766573746f722061646472657373206d757374206265206669727374206160448201527f6464656420746f2074686520696e766573746f722077686974656c69737400006064820152608401610a2e565b6001600160a01b0382166000908152603d60205260409020548115156201000090910460ff161515036116935760405162461bcd60e51b815260206004820152603d60248201527f5468617420696e766573746f7220616464726573732068617320616c7265616460448201527f79206265656e207570646174656420746f2074686174207374617475730000006064820152608401610a2e565b6001600160a01b0382166000818152603d6020908152604091829020805462ff000019166201000086151590810291909117909155825133815291820193909352908101919091527f3c53852fbea2a3e8d261e1a5412fcd1099cd0af0faf615db2a4cab4831106256906060015b60405180910390a15050565b336000908152603d602052604081205460ff1661173c5760405162461bcd60e51b8152600401610a2e90613ef7565b6117446109e0565b6000806117b934306001600160a01b031663bb6f98fb60006040518263ffffffff1660e01b81526004016117789190613f6d565b602060405180830381865afa158015611795573d6000803e3d6000fd5b505050506040513d601f19601f820116820180604052508101906107469190613f7b565b915091506117c78233612816565b603c546040516001600160a01b03909116903480156108fc02916000818181858888f1935050505061186c5760405162461bcd60e51b815260206004820152604260248201527f54686572652077617320616e206572726f72206f6e2073656e64696e6720746860448201527f65204d4154494320696e766573746d656e7420746f2074686520747265617375606482015261727960f01b608482015260a401610a2e565b60405163a9059cbb60e01b815233600482015260248101829052309063a9059cbb906044016020604051808303816000875af11580156118b0573d6000803e3d6000fd5b505050506040513d601f19601f820116820180604052508101906118d49190613f94565b6118f05760405162461bcd60e51b8152600401610a2e90613fb1565b336000908152603d602052604081206002018054849290611912908490613d26565b9091555050336000908152603d602052604081206001018054839290611939908490613d26565b909155505060408051338152346020820152908101839052606081018290527fe036cb252631bb3e3fbcb1aa359dd09f94f0dac1fe6de828e8bae3f5028331c59060800160405180910390a16001925050506119956001600655565b90565b6119a0613517565b6001600160a01b038116611a0b5760405162461bcd60e51b815260206004820152602c60248201527f54686520746f6b656e20616464726573732063616e6e6f74206265207468652060448201526b7a65726f206164647265737360a01b6064820152608401610a2e565b6001826004811115611a1f57611a1f613d39565b03611b05576040546001600160a01b0390811690821603611aa55760405162461bcd60e51b815260206004820152603a60248201527f5553444320746f6b656e20616464726573732068617320616c7265616479206260448201527965656e206d6f64696669656420746f20746861742076616c756560301b6064820152608401610a2e565b604080546001600160a01b0383166001600160a01b03199182168117835560438054909216811790915590519081527f8b3f52c1d10699944ebee74ee29dca11c9c86bb0dbedef4abd6e737f613d4d3a9060200160405180910390a15050565b6002826004811115611b1957611b19613d39565b03611bf9576044546001600160a01b0390811690821603611b9f5760405162461bcd60e51b815260206004820152603a60248201527f5553445420746f6b656e20616464726573732068617320616c7265616479206260448201527965656e206d6f64696669656420746f20746861742076616c756560301b6064820152608401610a2e565b604480546001600160a01b0383166001600160a01b0319918216811790925560478054909116821790556040519081527f1c2d8a05be2c8eca524d44cc224513d7e19ca97ac309c3e23bee450f8578ca1990602001611701565b6003826004811115611c0d57611c0d613d39565b03611ced576048546001600160a01b0390811690821603611c935760405162461bcd60e51b815260206004820152603a60248201527f5742544320746f6b656e20616464726573732068617320616c7265616479206260448201527965656e206d6f64696669656420746f20746861742076616c756560301b6064820152608401610a2e565b604880546001600160a01b0383166001600160a01b03199182168117909255604b8054909116821790556040519081527f95082f719648371f180ca4f9bad55a2ae7c2d029bbf93e360584ca6ea06327ea90602001611701565b6004826004811115611d0157611d01613d39565b0361112c57604c546001600160a01b0390811690821603611d875760405162461bcd60e51b815260206004820152603a60248201527f5745544820746f6b656e20616464726573732068617320616c7265616479206260448201527965656e206d6f64696669656420746f20746861742076616c756560301b6064820152608401610a2e565b604c80546001600160a01b0383166001600160a01b03199182168117909255604f8054909116821790556040519081527ff5fd160f565ac0e80215e9eced5afbfcd47389e99858fac6a3d93f2ec38ff6d690602001611701565b5050565b611ded613517565b611df561365d565b565b60055461010090046001600160a01b03166001600160a01b0316336001600160a01b03161480611e315750603b546001600160a01b031633145b611e4d5760405162461bcd60e51b8152600401610a2e90613e9a565b6001600160a01b038116611ed55760405162461bcd60e51b815260206004820152604360248201527f496e766573746f72206164647265737320746f2061646420746f20746865207760448201527f686974656c6973742063616e6e6f7420626520746865207a65726f206164647260648201526265737360e81b608482015260a401610a2e565b6001600160a01b0381166000908152603d602052604090205460ff1615611f645760405162461bcd60e51b815260206004820152603d60248201527f5468617420696e766573746f7220616464726573732068617320616c7265616460448201527f79206265656e20616464656420746f207468652077686974656c6973740000006064820152608401610a2e565b6040805160a08101825260006020808301828152838501838152606085018481526080860185815260018088526001600160a01b038a16808852603d87529689902088518154965195511515620100000262ff0000199615156101000261ff00199215159290921661ffff19909816979097171794909416949094178355905192820192909255905160029091015583513381529081019190915290917f8419b79dc227f7841e7bf32cea35c3f90fe5b3da68cde93adef3c32745c587de9101611701565b612031613517565b600081116120a15760405162461bcd60e51b815260206004820152603760248201527f4e6577206d6178696d756d20616d6f756e7420746f20696e766573742c206d7560448201527673742062652067726561746572207468616e207a65726f60481b6064820152608401610a2e565b603a5481036121265760405162461bcd60e51b815260206004820152604560248201527f4e6577206d6178696d756d20616d6f756e7420746f20696e766573742c20686160448201527f7320616c7265616479206265656e206d6f64696669656420746f20746861742060648201526476616c756560d81b608482015260a401610a2e565b6039548110156121b85760405162461bcd60e51b815260206004820152605160248201527f4e6577206d6178696d756d20616d6f756e7420746f20696e766573742c206d7560448201527f73742062652067726561746572207468616e20746865206d696e696d756d20696064820152701b9d995cdd1b595b9d08185b1b1bddd959607a1b608482015260a401610a2e565b603a8190556040518181527f29d434ec19958e7ce86ca2870f5927ab4f948d916dcffc568c1343c1e1f76566906020015b60405180910390a150565b6121fc613517565b6001600160a01b03811661226d5760405162461bcd60e51b815260206004820152603260248201527f5468652077686974656c697374657220616464726573732063616e6e6f7420626044820152716520746865207a65726f206164647265737360701b6064820152608401610a2e565b603b546001600160a01b03908116908216036122f15760405162461bcd60e51b815260206004820152603b60248201527f57686974656c697374657220616464726573732068617320616c72656164792060448201527f6265656e206d6f64696669656420746f20746861742076616c756500000000006064820152608401610a2e565b603b80546001600160a01b0319166001600160a01b0383169081179091556040519081527f32359536720adedfb2b6c6dd7685519f09fdf93ce7824b68d5b2f56354fdebec906020016121e9565b612347613517565b611df560006136af565b336000908152603d602052604081205460ff166123805760405162461bcd60e51b8152600401610a2e90613ef7565b6123886109e0565b600080600185600481111561239f5761239f613d39565b0361241f5760435460405163bb6f98fb60e01b81526001600160a01b039091169250309063bb6f98fb906123d7908890600401613f6d565b602060405180830381865afa1580156123f4573d6000803e3d6000fd5b505050506040513d601f19601f820116820180604052508101906124189190613f7b565b9050612503565b600285600481111561243357612433613d39565b0361246b5760475460405163bb6f98fb60e01b81526001600160a01b039091169250309063bb6f98fb906123d7908890600401613f6d565b600385600481111561247f5761247f613d39565b036124b757604b5460405163bb6f98fb60e01b81526001600160a01b039091169250309063bb6f98fb906123d7908890600401613f6d565b60048560048111156124cb576124cb613d39565b0361112c57604f5460405163bb6f98fb60e01b81526001600160a01b039091169250309063bb6f98fb906123d7908890600401613f6d565b6000806125108684612a44565b9150915061251e8233612816565b6040516323b872dd60e01b8152336004820152306024820152604481018790526001600160a01b038516906323b872dd906064016020604051808303816000875af1158015612571573d6000803e3d6000fd5b505050506040513d601f19601f820116820180604052508101906125959190613f94565b6125fe5760405162461bcd60e51b815260206004820152603460248201527f54686572652077617320616e206572726f72206f6e20726563656976696e67206044820152731d1a19481d1bdad95b881a5b9d995cdd1b595b9d60621b6064820152608401610a2e565b603c5460405163a9059cbb60e01b81526001600160a01b039182166004820152602481018890529085169063a9059cbb906044016020604051808303816000875af1158015612651573d6000803e3d6000fd5b505050506040513d601f19601f820116820180604052508101906126759190613f94565b6126f25760405162461bcd60e51b815260206004820152604260248201527f54686572652077617320616e206572726f72206f6e2073656e64696e6720746860448201527f6520746f6b656e20696e766573746d656e7420746f2074686520747265617375606482015261727960f01b608482015260a401610a2e565b60405163a9059cbb60e01b815233600482015260248101829052309063a9059cbb906044016020604051808303816000875af1158015612736573d6000803e3d6000fd5b505050506040513d601f19601f8201168201806040525081019061275a9190613f94565b6127765760405162461bcd60e51b8152600401610a2e90613fb1565b336000908152603d602052604081206002018054849290612798908490613d26565b9091555050336000908152603d6020526040812060010180548392906127bf908490613d26565b90915550506040517f3b60324b6db90922773bde8799e6d3b7d574474a0fb52a6d340bd2ee92b5edbc906127fc90899033908a9087908790614018565b60405180910390a16001945050505050610ae46001600655565b6001600160a01b0381166000908152603d602052604081206002015461283c9084613d26565b9050603a548111156128e7576001600160a01b0382166000908152603d602052604090205462010000900460ff166128e75760405162461bcd60e51b815260206004820152604260248201527f546f20627579207468617420616d6f756e74206f66204859415820697473207260448201527f6571756972656420746f2062652061207175616c696669656420696e7665737460648201526137b960f11b608482015260a401610a2e565b505050565b6128f4613517565b6001600160a01b0381166129625760405162461bcd60e51b815260206004820152602f60248201527f54686520747265617375727920616464726573732063616e6e6f74206265207460448201526e6865207a65726f206164647265737360881b6064820152608401610a2e565b603c546001600160a01b03908116908216036129e65760405162461bcd60e51b815260206004820152603860248201527f547265617375727920616464726573732068617320616c72656164792062656560448201527f6e206d6f64696669656420746f20746861742076616c756500000000000000006064820152608401610a2e565b603c80546001600160a01b0319166001600160a01b0383169081179091556040519081527f2e1e696cfb265fa16e1170d24ef04cb2262772bde00ecf34d80bae6722487b7f906020016121e9565b612a3c613517565b611df5613709565b6000806305f5e100612a568486613d0f565b612a609190614052565b603854909250612a74836305f5e100613d0f565b612a7e9190614052565b9050603954821015612b025760405162461bcd60e51b815260206004820152604160248201527f54686520616d6f756e7420746f20696e76657374206d7573742062652067726560448201527f61746572207468616e20746865206d696e696d756d2065737461626c697368656064820152601960fa1b608482015260a401610a2e565b30600090815260208190526040902054811115612b985760405162461bcd60e51b815260206004820152604860248201527f54686520696e766573746d656e74206d6164652072657475726e7320616e206160448201527f6d6f756e74206f6620485941582067726561746572207468616e2074686520616064820152677661696c61626c6560c01b608482015260a401610a2e565b9250929050565b606060048054610a4d90613bd2565b600033610ade8185856135fe565b612bc4613517565b60008111612c345760405162461bcd60e51b815260206004820152603760248201527f4e6577206d696e696d756e20616d6f756e7420746f20696e766573742c206d7560448201527673742062652067726561746572207468616e207a65726f60481b6064820152608401610a2e565b6039548103612cbd5760405162461bcd60e51b815260206004820152604960248201527f4d696e696d756d20696e766573746d656e7420616c6c6f77656420696e20555360448201527f442068617320616c7265616479206265656e206d6f64696669656420746f20746064820152686861742076616c756560b81b608482015260a401610a2e565b603a54811115612d4c5760405162461bcd60e51b815260206004820152604e60248201527f4e6577206d696e696d756e20616d6f756e7420746f20696e766573742c206d7560448201527f7374206265206c657373207468616e20746865206d6178696d756d20696e766560648201526d1cdd1b595b9d08185b1b1bddd95960921b608482015260a401610a2e565b60398190556040518181527fee60eb8e40a2ec796bfe3ca896b9221af9764fc0987bf0508ca755266d9c85f8906020016121e9565b612d89613517565b6038548103612df55760405162461bcd60e51b815260206004820152603260248201527f485941582070726963652068617320616c7265616479206265656e206d6f64696044820152716669656420746f20746861742076616c756560701b6064820152608401610a2e565b6207a120811015612e855760405162461bcd60e51b815260206004820152604e60248201527f5072696365206f66204859415820746f6b656e206d757374206265206174206c60448201527f656173742055534420302e3030352c207468617420697320353030303030207760648201526d697468203820646563696d616c7360901b608482015260a401610a2e565b64174876e800811115612f1e5760405162461bcd60e51b815260206004820152605560248201527f5072696365206f66204859415820746f6b656e206d757374206265206174206d60448201527f6178696d756d2055534420313030302c2074686174206973203130303030303060648201527430303030302077697468203820646563696d616c7360581b608482015260a401610a2e565b60388190556040518181527f4f6f7bbbb2b0dde2246ee6650672d1b55a5be5b52f8dd2e8d595f4bd47e1c913906020016121e9565b60055461010090046001600160a01b03166001600160a01b0316336001600160a01b03161480612f8d5750603b546001600160a01b031633145b612fa95760405162461bcd60e51b8152600401610a2e90613e9a565b6001600160a01b0382166130345760405162461bcd60e51b815260206004820152604660248201527f496e766573746f72206164647265737320746f2075706461746520626c61636b60448201527f6c697374207374617475732063616e6e6f7420626520746865207a65726f206160648201526564647265737360d01b608482015260a401610a2e565b6001600160a01b0382166000908152603d602052604090205481151561010090910460ff161515036130785760405162461bcd60e51b8152600401610a2e90614074565b6001600160a01b0382166000818152603d6020908152604091829020805461ff00191661010086151590810291909117909155825133815291820193909352908101919091527f89a9c56967d4535d54c90bffd7cbd09f6d2a4c8e26b9e7f033f199d144e12b4e90606001611701565b600080808360048111156130fe576130fe613d39565b036131155750603f546001600160a01b03166131bd565b600183600481111561312957613129613d39565b0361314057506042546001600160a01b03166131bd565b600283600481111561315457613154613d39565b0361316b57506046546001600160a01b03166131bd565b600383600481111561317f5761317f613d39565b036131965750604a546001600160a01b03166131bd565b60048360048111156131aa576131aa613d39565b0361112c5750604e546001600160a01b03165b806001600160a01b031663feaf968c6040518163ffffffff1660e01b815260040160a060405180830381865afa925050508015613217575060408051601f3d908101601f19168201909252613214918101906140eb565b60015b6132825760405162461bcd60e51b815260206004820152603660248201527f54686572652077617320616e206572726f72206f627461696e696e67207468656044820152752070726963652066726f6d20746865206f7261636c6560501b6064820152608401610a2e565b50919695505050505050565b50919050565b60055461010090046001600160a01b03166001600160a01b0316336001600160a01b031614806132ce5750603b546001600160a01b031633145b6132ea5760405162461bcd60e51b8152600401610a2e90613e9a565b6001600160a01b0382166133755760405162461bcd60e51b815260206004820152604660248201527f496e766573746f72206164647265737320746f2075706461746520776869746560448201527f6c697374207374617475732063616e6e6f7420626520746865207a65726f206160648201526564647265737360d01b608482015260a401610a2e565b6001600160a01b0382166000908152603d602052604090205481151560ff9091161515036133b55760405162461bcd60e51b8152600401610a2e90614074565b6001600160a01b0382166000818152603d6020908152604091829020805460ff1916851515908117909155825133815291820193909352908101919091527f70bbee4e66e3fd40f7da099410cfd723ed4a0b4fec11f6cc968e850db827a88b90606001611701565b613425613517565b6001600160a01b03811661348a5760405162461bcd60e51b815260206004820152602660248201527f4f776e61626c653a206e6577206f776e657220697320746865207a65726f206160448201526564647265737360d01b6064820152608401610a2e565b306001600160a01b038216036135015760405162461bcd60e51b815260206004820152603660248201527f4f776e61626c653a206e6577206f776e65722063616e6e6f74206265207468656044820152752073616d6520636f6e7472616374206164647265737360501b6064820152608401610a2e565b610d0b816136af565b6128e78383836001613746565b6005546001600160a01b03610100909104163314611df55760405163118cdaa760e01b8152336004820152602401610a2e565b6001600160a01b0382166135745760405163ec442f0560e01b815260006004820152602401610a2e565b611de16000838361381b565b6001600160a01b0383811660009081526001602090815260408083209386168352929052205460001981146135f857818110156135e957604051637dc7a0d960e11b81526001600160a01b03841660048201526024810182905260448101839052606401610a2e565b6135f884848484036000613746565b50505050565b6001600160a01b03831661362857604051634b637e8f60e11b815260006004820152602401610a2e565b6001600160a01b0382166136525760405163ec442f0560e01b815260006004820152602401610a2e565b6128e783838361381b565b61366561382e565b6005805460ff191690557f5db9ee0a495bf2e6ff9c91a7834c1ba4fdd244a5e8aa4e537bd38aeae4b073aa335b6040516001600160a01b03909116815260200160405180910390a1565b600580546001600160a01b03838116610100818102610100600160a81b031985161790945560405193909204169182907f8be0079c531659141344cd1fd0a4f28419497f9722a3daafe3b4186f6b6457e090600090a35050565b613711613851565b6005805460ff191660011790557f62e78cea01bee320cd4e420270b5ea74000d11b0c9f74754ebdbfc544b05a2586136923390565b6001600160a01b0384166137705760405163e602df0560e01b815260006004820152602401610a2e565b6001600160a01b03831661379a57604051634a1406b160e11b815260006004820152602401610a2e565b6001600160a01b03808516600090815260016020908152604080832093871683529290522082905580156135f857826001600160a01b0316846001600160a01b03167f8c5be1e5ebec7d5bd14f71427d1e84f3dd0314c0f7b2291e5b200ac8c7c3b9258460405161380d91815260200190565b60405180910390a350505050565b613823613851565b6128e7838383613875565b60055460ff16611df557604051638dfc202b60e01b815260040160405180910390fd5b60055460ff1615611df55760405163d93c066560e01b815260040160405180910390fd5b6001600160a01b0383166138a05780600260008282546138959190613d26565b909155506139129050565b6001600160a01b038316600090815260208190526040902054818110156138f35760405163391434e360e21b81526001600160a01b03851660048201526024810182905260448101839052606401610a2e565b6001600160a01b03841660009081526020819052604090209082900390555b6001600160a01b03821661392e5760028054829003905561394d565b6001600160a01b03821660009081526020819052604090208054820190555b816001600160a01b0316836001600160a01b03167fddf252ad1be2c89b69c2b068fc378daa952ba7f163c4a11628f55a4df523b3ef8360405161399291815260200190565b60405180910390a3505050565b60005b838110156139ba5781810151838201526020016139a2565b50506000910152565b60208152600082518060208401526139e281604085016020870161399f565b601f01601f19169190910160400192915050565b80356001600160a01b0381168114613a0d57600080fd5b919050565b60008060408385031215613a2557600080fd5b613a2e836139f6565b946020939093013593505050565b600060208284031215613a4e57600080fd5b5035919050565b600080600060608486031215613a6a57600080fd5b613a73846139f6565b9250613a81602085016139f6565b9150604084013590509250925092565b803560058110613a0d57600080fd5b60008060408385031215613ab357600080fd5b613abc83613a91565b9150613aca602084016139f6565b90509250929050565b8015158114610d0b57600080fd5b60008060408385031215613af457600080fd5b613afd836139f6565b91506020830135613b0d81613ad3565b809150509250929050565b600060208284031215613b2a57600080fd5b613b33826139f6565b9392505050565b60008060408385031215613b4d57600080fd5b613a2e83613a91565b60008060408385031215613b6957600080fd5b82359150613aca602084016139f6565b60008060408385031215613b8c57600080fd5b50508035926020909101359150565b600060208284031215613bad57600080fd5b613b3382613a91565b60008060408385031215613bc957600080fd5b613abc836139f6565b600181811c90821680613be657607f821691505b60208210810361328e57634e487b7160e01b600052602260045260246000fd5b634e487b7160e01b600052601160045260246000fd5b600181815b80851115613c57578160001904821115613c3d57613c3d613c06565b80851615613c4a57918102915b93841c9390800290613c21565b509250929050565b600082613c6e57506001610ae4565b81613c7b57506000610ae4565b8160018114613c915760028114613c9b57613cb7565b6001915050610ae4565b60ff841115613cac57613cac613c06565b50506001821b610ae4565b5060208310610133831016604e8410600b8410161715613cda575081810a610ae4565b613ce48383613c1c565b8060001904821115613cf857613cf8613c06565b029392505050565b6000613b3360ff841683613c5f565b8082028115828204841417610ae457610ae4613c06565b80820180821115610ae457610ae4613c06565b634e487b7160e01b600052602160045260246000fd5b634e487b7160e01b600052604160045260246000fd5b600060208284031215613d7757600080fd5b815167ffffffffffffffff80821115613d8f57600080fd5b818401915084601f830112613da357600080fd5b815181811115613db557613db5613d4f565b604051601f8201601f19908116603f01168101908382118183101715613ddd57613ddd613d4f565b81604052828152876020848701011115613df657600080fd5b613e0783602083016020880161399f565b979650505050505050565b60208082526046908201527f546865206e6577206164647265737320646f6573206e6f74207365656d20746f60408201527f2062656c6f6e6720746f2074686520636f72726563742070726963652064617460608201526518481999595960d21b608082015260a00190565b60008251613e9081846020870161399f565b9190910192915050565b6020808252603f908201527f46756e6374696f6e207265736572766564206f6e6c7920666f7220746865207760408201527f686974656c69737465722061646472657373206f7220746865206f776e657200606082015260800190565b60208082526034908201527f496e766573746f72206164647265737320686173206e6f74206265656e206164604082015273191959081d1bc81d1a19481dda1a5d195b1a5cdd60621b606082015260800190565b60058110613f6957634e487b7160e01b600052602160045260246000fd5b9052565b60208101610ae48284613f4b565b600060208284031215613f8d57600080fd5b5051919050565b600060208284031215613fa657600080fd5b8151613b3381613ad3565b60208082526041908201527f54686572652077617320616e206572726f72206f6e2073656e64696e6720626160408201527f636b20746865204859415820546f6b656e20746f2074686520696e766573746f6060820152603960f91b608082015260a00190565b60a081016140268288613f4b565b6001600160a01b0395909516602082015260408101939093526060830191909152608090910152919050565b60008261406f57634e487b7160e01b600052601260045260246000fd5b500490565b60208082526038908201527f496e766573746f7220616464726573732068617320616c72656164792062656560408201527f6e207570646174656420746f2074686174207374617475730000000000000000606082015260800190565b805169ffffffffffffffffffff81168114613a0d57600080fd5b600080600080600060a0868803121561410357600080fd5b61410c866140d1565b945060208601519350604086015192506060860151915061412f608087016140d1565b9050929550929590935056fe616479206265656e206d6f64696669656420746f20746861742076616c756500a264697066735822122065daaf436e38c8bdbb4f4132109210193ec5312c5f137a9c9d40b438fa3f1c3564736f6c63430008140033","opcodes":"PUSH1 0x80 PUSH1 0x40 MSTORE CALLVALUE DUP1 ISZERO PUSH3 0x11 JUMPI PUSH1 0x0 DUP1 REVERT JUMPDEST POP CALLER PUSH1 0x40 MLOAD DUP1 PUSH1 0x40 ADD PUSH1 0x40 MSTORE DUP1 PUSH1 0x9 DUP2 MSTORE PUSH1 0x20 ADD PUSH9 0x242CA0AC2A37B5B2B7 PUSH1 0xB9 SHL DUP2 MSTORE POP PUSH1 0x40 MLOAD DUP1 PUSH1 0x40 ADD PUSH1 0x40 MSTORE DUP1 PUSH1 0x4 DUP2 MSTORE PUSH1 0x20 ADD PUSH4 0x90B282B PUSH1 0xE3 SHL DUP2 MSTORE POP DUP2 PUSH1 0x3 SWAP1 DUP2 PUSH3 0x63 SWAP2 SWAP1 PUSH3 0x5B1 JUMP JUMPDEST POP PUSH1 0x4 PUSH3 0x72 DUP3 DUP3 PUSH3 0x5B1 JUMP JUMPDEST POP POP PUSH1 0x5 DUP1 SLOAD PUSH1 0xFF NOT AND SWAP1 SSTORE POP PUSH1 0x1 PUSH1 0x1 PUSH1 0xA0 SHL SUB DUP2 AND PUSH3 0xAF JUMPI PUSH1 0x40 MLOAD PUSH4 0x1E4FBDF7 PUSH1 0xE0 SHL DUP2 MSTORE PUSH1 0x0 PUSH1 0x4 DUP3 ADD MSTORE PUSH1 0x24 ADD JUMPDEST PUSH1 0x40 MLOAD DUP1 SWAP2 SUB SWAP1 REVERT JUMPDEST PUSH3 0xBA DUP2 PUSH3 0x2FF JUMP JUMPDEST POP PUSH3 0xE4 CALLER PUSH3 0xCE PUSH1 0x12 PUSH1 0xA PUSH3 0x792 JUMP JUMPDEST PUSH3 0xDE SWAP1 PUSH4 0x1DCD6500 PUSH3 0x7AA JUMP JUMPDEST PUSH3 0x359 JUMP JUMPDEST PUSH3 0x927C0 PUSH1 0x38 SSTORE PUSH3 0xF9 PUSH1 0x12 PUSH1 0xA PUSH3 0x792 JUMP JUMPDEST PUSH3 0x106 SWAP1 PUSH1 0x1 PUSH3 0x7AA JUMP JUMPDEST PUSH1 0x39 SSTORE PUSH3 0x117 PUSH1 0x12 PUSH1 0xA PUSH3 0x792 JUMP JUMPDEST PUSH3 0x125 SWAP1 PUSH2 0x2710 PUSH3 0x7AA JUMP JUMPDEST PUSH1 0x3A SSTORE PUSH1 0x3B DUP1 SLOAD PUSH1 0x1 PUSH1 0x1 PUSH1 0xA0 SHL SUB NOT SWAP1 DUP2 AND PUSH20 0x1C2F012DE19E6436744C3F81F56E9E70C93A8C3 OR SWAP1 SWAP2 SSTORE PUSH1 0x3C DUP1 SLOAD DUP3 AND PUSH20 0x350441F8A82680A785FFA9D3EFEA60BB4CA417F8 OR SWAP1 SSTORE PUSH1 0x3E DUP1 SLOAD DUP3 AND PUSH19 0x1382149EBA3441043C1C66972B4772963F5D43 SWAP1 DUP2 OR SWAP1 SWAP2 SSTORE PUSH1 0x3F DUP1 SLOAD DUP4 AND SWAP1 SWAP2 OR SWAP1 SSTORE PUSH1 0x40 DUP1 SLOAD DUP3 AND PUSH20 0xF68054BFE5D45432FFCA28FFA1F3D685D0456DDC SWAP1 DUP2 OR SWAP1 SWAP2 SSTORE PUSH1 0x41 DUP1 SLOAD DUP4 AND PUSH20 0x1B8739BB4CDF0089D07097A9AE5BD274B29C6F16 SWAP1 DUP2 OR SWAP1 SWAP2 SSTORE PUSH1 0x42 DUP1 SLOAD DUP5 AND SWAP1 SWAP2 OR SWAP1 SSTORE PUSH1 0x43 DUP1 SLOAD DUP4 AND SWAP1 SWAP2 OR SWAP1 SSTORE PUSH1 0x44 DUP1 SLOAD DUP3 AND PUSH20 0x70E02FB82B6BC04F64099689B0599E14B44D4FBB SWAP1 DUP2 OR SWAP1 SWAP2 SSTORE PUSH1 0x45 DUP1 SLOAD DUP4 AND PUSH20 0x3AC23DCB4ECFCBD24579E1F34542524D0E4EDEA8 SWAP1 DUP2 OR SWAP1 SWAP2 SSTORE PUSH1 0x46 DUP1 SLOAD DUP5 AND SWAP1 SWAP2 OR SWAP1 SSTORE PUSH1 0x47 DUP1 SLOAD DUP4 AND SWAP1 SWAP2 OR SWAP1 SSTORE PUSH1 0x48 DUP1 SLOAD DUP3 AND PUSH20 0x3C8DF3C48B3884DA2FF25E17524282D60F9C3B93 SWAP1 DUP2 OR SWAP1 SWAP2 SSTORE PUSH1 0x49 DUP1 SLOAD DUP4 AND PUSH20 0xE7656E23FE8077D438AEFBEC2FABDF2D8E070C4F SWAP1 DUP2 OR SWAP1 SWAP2 SSTORE PUSH1 0x4A DUP1 SLOAD DUP5 AND SWAP1 SWAP2 OR SWAP1 SSTORE PUSH1 0x4B DUP1 SLOAD DUP4 AND SWAP1 SWAP2 OR SWAP1 SSTORE PUSH1 0x4C DUP1 SLOAD DUP3 AND PUSH20 0x524A89ED77D5827320E35E12BCA96830C6B7960A SWAP1 DUP2 OR SWAP1 SWAP2 SSTORE PUSH1 0x4D DUP1 SLOAD DUP4 AND PUSH20 0xF0D50568E3A7E8259E16663972B11910F89BD8E7 SWAP1 DUP2 OR SWAP1 SWAP2 SSTORE PUSH1 0x4E DUP1 SLOAD DUP5 AND SWAP1 SWAP2 OR SWAP1 SSTORE PUSH1 0x4F DUP1 SLOAD SWAP1 SWAP3 AND OR SWAP1 SSTORE PUSH3 0x7DA JUMP JUMPDEST PUSH1 0x5 DUP1 SLOAD PUSH1 0x1 PUSH1 0x1 PUSH1 0xA0 SHL SUB DUP4 DUP2 AND PUSH2 0x100 DUP2 DUP2 MUL PUSH2 0x100 PUSH1 0x1 PUSH1 0xA8 SHL SUB NOT DUP6 AND OR SWAP1 SWAP5 SSTORE PUSH1 0x40 MLOAD SWAP4 SWAP1 SWAP3 DIV AND SWAP2 DUP3 SWAP1 PUSH32 0x8BE0079C531659141344CD1FD0A4F28419497F9722A3DAAFE3B4186F6B6457E0 SWAP1 PUSH1 0x0 SWAP1 LOG3 POP POP JUMP JUMPDEST PUSH1 0x1 PUSH1 0x1 PUSH1 0xA0 SHL SUB DUP3 AND PUSH3 0x385 JUMPI PUSH1 0x40 MLOAD PUSH4 0xEC442F05 PUSH1 0xE0 SHL DUP2 MSTORE PUSH1 0x0 PUSH1 0x4 DUP3 ADD MSTORE PUSH1 0x24 ADD PUSH3 0xA6 JUMP JUMPDEST PUSH3 0x393 PUSH1 0x0 DUP4 DUP4 PUSH3 0x397 JUMP JUMPDEST POP POP JUMP JUMPDEST PUSH3 0x3A1 PUSH3 0x3B3 JUMP JUMPDEST PUSH3 0x3AE DUP4 DUP4 DUP4 PUSH3 0x3DA JUMP JUMPDEST POP POP POP JUMP JUMPDEST PUSH1 0x5 SLOAD PUSH1 0xFF AND ISZERO PUSH3 0x3D8 JUMPI PUSH1 0x40 MLOAD PUSH4 0xD93C0665 PUSH1 0xE0 SHL DUP2 MSTORE PUSH1 0x4 ADD PUSH1 0x40 MLOAD DUP1 SWAP2 SUB SWAP1 REVERT JUMPDEST JUMP JUMPDEST PUSH1 0x1 PUSH1 0x1 PUSH1 0xA0 SHL SUB DUP4 AND PUSH3 0x409 JUMPI DUP1 PUSH1 0x2 PUSH1 0x0 DUP3 DUP3 SLOAD PUSH3 0x3FD SWAP2 SWAP1 PUSH3 0x7C4 JUMP JUMPDEST SWAP1 SWAP2 SSTORE POP PUSH3 0x47D SWAP1 POP JUMP JUMPDEST PUSH1 0x1 PUSH1 0x1 PUSH1 0xA0 SHL SUB DUP4 AND PUSH1 0x0 SWAP1 DUP2 MSTORE PUSH1 0x20 DUP2 SWAP1 MSTORE PUSH1 0x40 SWAP1 KECCAK256 SLOAD DUP2 DUP2 LT ISZERO PUSH3 0x45E JUMPI PUSH1 0x40 MLOAD PUSH4 0x391434E3 PUSH1 0xE2 SHL DUP2 MSTORE PUSH1 0x1 PUSH1 0x1 PUSH1 0xA0 SHL SUB DUP6 AND PUSH1 0x4 DUP3 ADD MSTORE PUSH1 0x24 DUP2 ADD DUP3 SWAP1 MSTORE PUSH1 0x44 DUP2 ADD DUP4 SWAP1 MSTORE PUSH1 0x64 ADD PUSH3 0xA6 JUMP JUMPDEST PUSH1 0x1 PUSH1 0x1 PUSH1 0xA0 SHL SUB DUP5 AND PUSH1 0x0 SWAP1 DUP2 MSTORE PUSH1 0x20 DUP2 SWAP1 MSTORE PUSH1 0x40 SWAP1 KECCAK256 SWAP1 DUP3 SWAP1 SUB SWAP1 SSTORE JUMPDEST PUSH1 0x1 PUSH1 0x1 PUSH1 0xA0 SHL SUB DUP3 AND PUSH3 0x49B JUMPI PUSH1 0x2 DUP1 SLOAD DUP3 SWAP1 SUB SWAP1 SSTORE PUSH3 0x4BA JUMP JUMPDEST PUSH1 0x1 PUSH1 0x1 PUSH1 0xA0 SHL SUB DUP3 AND PUSH1 0x0 SWAP1 DUP2 MSTORE PUSH1 0x20 DUP2 SWAP1 MSTORE PUSH1 0x40 SWAP1 KECCAK256 DUP1 SLOAD DUP3 ADD SWAP1 SSTORE JUMPDEST DUP2 PUSH1 0x1 PUSH1 0x1 PUSH1 0xA0 SHL SUB AND DUP4 PUSH1 0x1 PUSH1 0x1 PUSH1 0xA0 SHL SUB AND PUSH32 0xDDF252AD1BE2C89B69C2B068FC378DAA952BA7F163C4A11628F55A4DF523B3EF DUP4 PUSH1 0x40 MLOAD PUSH3 0x500 SWAP2 DUP2 MSTORE PUSH1 0x20 ADD SWAP1 JUMP JUMPDEST PUSH1 0x40 MLOAD DUP1 SWAP2 SUB SWAP1 LOG3 POP POP POP JUMP JUMPDEST PUSH4 0x4E487B71 PUSH1 0xE0 SHL PUSH1 0x0 MSTORE PUSH1 0x41 PUSH1 0x4 MSTORE PUSH1 0x24 PUSH1 0x0 REVERT JUMPDEST PUSH1 0x1 DUP2 DUP2 SHR SWAP1 DUP3 AND DUP1 PUSH3 0x538 JUMPI PUSH1 0x7F DUP3 AND SWAP2 POP JUMPDEST PUSH1 0x20 DUP3 LT DUP2 SUB PUSH3 0x559 JUMPI PUSH4 0x4E487B71 PUSH1 0xE0 SHL PUSH1 0x0 MSTORE PUSH1 0x22 PUSH1 0x4 MSTORE PUSH1 0x24 PUSH1 0x0 REVERT JUMPDEST POP SWAP2 SWAP1 POP JUMP JUMPDEST PUSH1 0x1F DUP3 GT ISZERO PUSH3 0x3AE JUMPI PUSH1 0x0 DUP2 DUP2 MSTORE PUSH1 0x20 DUP2 KECCAK256 PUSH1 0x1F DUP6 ADD PUSH1 0x5 SHR DUP2 ADD PUSH1 0x20 DUP7 LT ISZERO PUSH3 0x588 JUMPI POP DUP1 JUMPDEST PUSH1 0x1F DUP6 ADD PUSH1 0x5 SHR DUP3 ADD SWAP2 POP JUMPDEST DUP2 DUP2 LT ISZERO PUSH3 0x5A9 JUMPI DUP3 DUP2 SSTORE PUSH1 0x1 ADD PUSH3 0x594 JUMP JUMPDEST POP POP POP POP POP POP JUMP JUMPDEST DUP2 MLOAD PUSH1 0x1 PUSH1 0x1 PUSH1 0x40 SHL SUB DUP2 GT ISZERO PUSH3 0x5CD JUMPI PUSH3 0x5CD PUSH3 0x50D JUMP JUMPDEST PUSH3 0x5E5 DUP2 PUSH3 0x5DE DUP5 SLOAD PUSH3 0x523 JUMP JUMPDEST DUP5 PUSH3 0x55F JUMP JUMPDEST PUSH1 0x20 DUP1 PUSH1 0x1F DUP4 GT PUSH1 0x1 DUP2 EQ PUSH3 0x61D JUMPI PUSH1 0x0 DUP5 ISZERO PUSH3 0x604 JUMPI POP DUP6 DUP4 ADD MLOAD JUMPDEST PUSH1 0x0 NOT PUSH1 0x3 DUP7 SWAP1 SHL SHR NOT AND PUSH1 0x1 DUP6 SWAP1 SHL OR DUP6 SSTORE PUSH3 0x5A9 JUMP JUMPDEST PUSH1 0x0 DUP6 DUP2 MSTORE PUSH1 0x20 DUP2 KECCAK256 PUSH1 0x1F NOT DUP7 AND SWAP2 JUMPDEST DUP3 DUP2 LT ISZERO PUSH3 0x64E JUMPI DUP9 DUP7 ADD MLOAD DUP3 SSTORE SWAP5 DUP5 ADD SWAP5 PUSH1 0x1 SWAP1 SWAP2 ADD SWAP1 DUP5 ADD PUSH3 0x62D JUMP JUMPDEST POP DUP6 DUP3 LT ISZERO PUSH3 0x66D JUMPI DUP8 DUP6 ADD MLOAD PUSH1 0x0 NOT PUSH1 0x3 DUP9 SWAP1 SHL PUSH1 0xF8 AND SHR NOT AND DUP2 SSTORE JUMPDEST POP POP POP POP POP PUSH1 0x1 SWAP1 DUP2 SHL ADD SWAP1 SSTORE POP JUMP JUMPDEST PUSH4 0x4E487B71 PUSH1 0xE0 SHL PUSH1 0x0 MSTORE PUSH1 0x11 PUSH1 0x4 MSTORE PUSH1 0x24 PUSH1 0x0 REVERT JUMPDEST PUSH1 0x1 DUP2 DUP2 JUMPDEST DUP1 DUP6 GT ISZERO PUSH3 0x6D4 JUMPI DUP2 PUSH1 0x0 NOT DIV DUP3 GT ISZERO PUSH3 0x6B8 JUMPI PUSH3 0x6B8 PUSH3 0x67D JUMP JUMPDEST DUP1 DUP6 AND ISZERO PUSH3 0x6C6 JUMPI SWAP2 DUP2 MUL SWAP2 JUMPDEST SWAP4 DUP5 SHR SWAP4 SWAP1 DUP1 MUL SWAP1 PUSH3 0x698 JUMP JUMPDEST POP SWAP3 POP SWAP3 SWAP1 POP JUMP JUMPDEST PUSH1 0x0 DUP3 PUSH3 0x6ED JUMPI POP PUSH1 0x1 PUSH3 0x78C JUMP JUMPDEST DUP2 PUSH3 0x6FC JUMPI POP PUSH1 0x0 PUSH3 0x78C JUMP JUMPDEST DUP2 PUSH1 0x1 DUP2 EQ PUSH3 0x715 JUMPI PUSH1 0x2 DUP2 EQ PUSH3 0x720 JUMPI PUSH3 0x740 JUMP JUMPDEST PUSH1 0x1 SWAP2 POP POP PUSH3 0x78C JUMP JUMPDEST PUSH1 0xFF DUP5 GT ISZERO PUSH3 0x734 JUMPI PUSH3 0x734 PUSH3 0x67D JUMP JUMPDEST POP POP PUSH1 0x1 DUP3 SHL PUSH3 0x78C JUMP JUMPDEST POP PUSH1 0x20 DUP4 LT PUSH2 0x133 DUP4 LT AND PUSH1 0x4E DUP5 LT PUSH1 0xB DUP5 LT AND OR ISZERO PUSH3 0x765 JUMPI POP DUP2 DUP2 EXP PUSH3 0x78C JUMP JUMPDEST PUSH3 0x771 DUP4 DUP4 PUSH3 0x693 JUMP JUMPDEST DUP1 PUSH1 0x0 NOT DIV DUP3 GT ISZERO PUSH3 0x788 JUMPI PUSH3 0x788 PUSH3 0x67D JUMP JUMPDEST MUL SWAP1 POP JUMPDEST SWAP3 SWAP2 POP POP JUMP JUMPDEST PUSH1 0x0 PUSH3 0x7A3 PUSH1 0xFF DUP5 AND DUP4 PUSH3 0x6DC JUMP JUMPDEST SWAP4 SWAP3 POP POP POP JUMP JUMPDEST DUP1 DUP3 MUL DUP2 ISZERO DUP3 DUP3 DIV DUP5 EQ OR PUSH3 0x78C JUMPI PUSH3 0x78C PUSH3 0x67D JUMP JUMPDEST DUP1 DUP3 ADD DUP1 DUP3 GT ISZERO PUSH3 0x78C JUMPI PUSH3 0x78C PUSH3 0x67D JUMP JUMPDEST PUSH2 0x4191 DUP1 PUSH3 0x7EA PUSH1 0x0 CODECOPY PUSH1 0x0 RETURN INVALID PUSH1 0x80 PUSH1 0x40 MSTORE PUSH1 0x4 CALLDATASIZE LT PUSH2 0x2E8 JUMPI PUSH1 0x0 CALLDATALOAD PUSH1 0xE0 SHR DUP1 PUSH4 0x65699D28 GT PUSH2 0x190 JUMPI DUP1 PUSH4 0xA9059CBB GT PUSH2 0xDC JUMPI DUP1 PUSH4 0xC07732A3 GT PUSH2 0x95 JUMPI DUP1 PUSH4 0xDE1F5346 GT PUSH2 0x6F JUMPI DUP1 PUSH4 0xDE1F5346 EQ PUSH2 0x8FE JUMPI DUP1 PUSH4 0xF2FDE38B EQ PUSH2 0x980 JUMPI DUP1 PUSH4 0xF7A47F81 EQ PUSH2 0x9A0 JUMPI DUP1 PUSH4 0xFB2DC76E EQ PUSH2 0x9C0 JUMPI PUSH1 0x0 DUP1 REVERT JUMPDEST DUP1 PUSH4 0xC07732A3 EQ PUSH2 0x878 JUMPI DUP1 PUSH4 0xC5F956AF EQ PUSH2 0x898 JUMPI DUP1 PUSH4 0xDD62ED3E EQ PUSH2 0x8B8 JUMPI PUSH1 0x0 DUP1 REVERT JUMPDEST DUP1 PUSH4 0xA9059CBB EQ PUSH2 0x7B8 JUMPI DUP1 PUSH4 0xA98AD46C EQ PUSH2 0x7D8 JUMPI DUP1 PUSH4 0xB2C568F3 EQ PUSH2 0x7F8 JUMPI DUP1 PUSH4 0xB40ED449 EQ PUSH2 0x818 JUMPI DUP1 PUSH4 0xB8360806 EQ PUSH2 0x838 JUMPI DUP1 PUSH4 0xBB6F98FB EQ PUSH2 0x858 JUMPI PUSH1 0x0 DUP1 REVERT JUMPDEST DUP1 PUSH4 0x8116DE2B GT PUSH2 0x149 JUMPI DUP1 PUSH4 0x8C945E63 GT PUSH2 0x123 JUMPI DUP1 PUSH4 0x8C945E63 EQ PUSH2 0x72B JUMPI DUP1 PUSH4 0x8DA5CB5B EQ PUSH2 0x760 JUMPI DUP1 PUSH4 0x95D89B41 EQ PUSH2 0x783 JUMPI DUP1 PUSH4 0x9D741E5D EQ PUSH2 0x798 JUMPI PUSH1 0x0 DUP1 REVERT JUMPDEST DUP1 PUSH4 0x8116DE2B EQ PUSH2 0x6D6 JUMPI DUP1 PUSH4 0x841E4561 EQ PUSH2 0x6F6 JUMPI DUP1 PUSH4 0x8456CB59 EQ PUSH2 0x716 JUMPI PUSH1 0x0 DUP1 REVERT JUMPDEST DUP1 PUSH4 0x65699D28 EQ PUSH2 0x615 JUMPI DUP1 PUSH4 0x70A08231 EQ PUSH2 0x635 JUMPI DUP1 PUSH4 0x715018A6 EQ PUSH2 0x66B JUMPI DUP1 PUSH4 0x731DE514 EQ PUSH2 0x680 JUMPI DUP1 PUSH4 0x77B53ECE EQ PUSH2 0x6A0 JUMPI DUP1 PUSH4 0x8049BCB6 EQ PUSH2 0x6C0 JUMPI PUSH1 0x0 DUP1 REVERT JUMPDEST DUP1 PUSH4 0x367F44FB GT PUSH2 0x24F JUMPI DUP1 PUSH4 0x47EE0394 GT PUSH2 0x208 JUMPI DUP1 PUSH4 0x5AE9384E GT PUSH2 0x1E2 JUMPI DUP1 PUSH4 0x5AE9384E EQ PUSH2 0x59D JUMPI DUP1 PUSH4 0x5C975ABB EQ PUSH2 0x5BD JUMPI DUP1 PUSH4 0x5EC2562A EQ PUSH2 0x5D5 JUMPI DUP1 PUSH4 0x653C3A47 EQ PUSH2 0x5F5 JUMPI PUSH1 0x0 DUP1 REVERT JUMPDEST DUP1 PUSH4 0x47EE0394 EQ PUSH2 0x53D JUMPI DUP1 PUSH4 0x4B57B0BE EQ PUSH2 0x55D JUMPI DUP1 PUSH4 0x4C526BDB EQ PUSH2 0x57D JUMPI PUSH1 0x0 DUP1 REVERT JUMPDEST DUP1 PUSH4 0x367F44FB EQ PUSH2 0x4AA JUMPI DUP1 PUSH4 0x377C779F EQ PUSH2 0x4CA JUMPI DUP1 PUSH4 0x3B14F359 EQ PUSH2 0x4E0 JUMPI DUP1 PUSH4 0x3DE6F379 EQ PUSH2 0x4E8 JUMPI DUP1 PUSH4 0x3F4BA83A EQ PUSH2 0x508 JUMPI DUP1 PUSH4 0x40B5EA9C EQ PUSH2 0x51D JUMPI PUSH1 0x0 DUP1 REVERT JUMPDEST DUP1 PUSH4 0x18160DDD GT PUSH2 0x2A1 JUMPI DUP1 PUSH4 0x18160DDD EQ PUSH2 0x3F9 JUMPI DUP1 PUSH4 0x23B872DD EQ PUSH2 0x418 JUMPI DUP1 PUSH4 0x23C66F9A EQ PUSH2 0x438 JUMPI DUP1 PUSH4 0x27614DF8 EQ PUSH2 0x458 JUMPI DUP1 PUSH4 0x2A241AD3 EQ PUSH2 0x478 JUMPI DUP1 PUSH4 0x313CE567 EQ PUSH2 0x48E JUMPI PUSH1 0x0 DUP1 REVERT JUMPDEST DUP1 PUSH4 0x6FDDE03 EQ PUSH2 0x306 JUMPI DUP1 PUSH4 0x8CD468F EQ PUSH2 0x331 JUMPI DUP1 PUSH4 0x95EA7B3 EQ PUSH2 0x369 JUMPI DUP1 PUSH4 0xF9DAD71 EQ PUSH2 0x399 JUMPI DUP1 PUSH4 0x11EAC855 EQ PUSH2 0x3B9 JUMPI DUP1 PUSH4 0x128EF022 EQ PUSH2 0x3D9 JUMPI PUSH1 0x0 DUP1 REVERT JUMPDEST CALLDATASIZE PUSH2 0x301 JUMPI PUSH2 0x2F5 PUSH2 0x9E0 JUMP JUMPDEST PUSH2 0x2FF PUSH1 0x1 PUSH1 0x6 SSTORE JUMP JUMPDEST STOP JUMPDEST PUSH1 0x0 DUP1 REVERT JUMPDEST CALLVALUE DUP1 ISZERO PUSH2 0x312 JUMPI PUSH1 0x0 DUP1 REVERT JUMPDEST POP PUSH2 0x31B PUSH2 0xA3E JUMP JUMPDEST PUSH1 0x40 MLOAD PUSH2 0x328 SWAP2 SWAP1 PUSH2 0x39C3 JUMP JUMPDEST PUSH1 0x40 MLOAD DUP1 SWAP2 SUB SWAP1 RETURN JUMPDEST CALLVALUE DUP1 ISZERO PUSH2 0x33D JUMPI PUSH1 0x0 DUP1 REVERT JUMPDEST POP PUSH1 0x45 SLOAD PUSH2 0x351 SWAP1 PUSH1 0x1 PUSH1 0x1 PUSH1 0xA0 SHL SUB AND DUP2 JUMP JUMPDEST PUSH1 0x40 MLOAD PUSH1 0x1 PUSH1 0x1 PUSH1 0xA0 SHL SUB SWAP1 SWAP2 AND DUP2 MSTORE PUSH1 0x20 ADD PUSH2 0x328 JUMP JUMPDEST CALLVALUE DUP1 ISZERO PUSH2 0x375 JUMPI PUSH1 0x0 DUP1 REVERT JUMPDEST POP PUSH2 0x389 PUSH2 0x384 CALLDATASIZE PUSH1 0x4 PUSH2 0x3A12 JUMP JUMPDEST PUSH2 0xAD0 JUMP JUMPDEST PUSH1 0x40 MLOAD SWAP1 ISZERO ISZERO DUP2 MSTORE PUSH1 0x20 ADD PUSH2 0x328 JUMP JUMPDEST CALLVALUE DUP1 ISZERO PUSH2 0x3A5 JUMPI PUSH1 0x0 DUP1 REVERT JUMPDEST POP PUSH1 0x4C SLOAD PUSH2 0x351 SWAP1 PUSH1 0x1 PUSH1 0x1 PUSH1 0xA0 SHL SUB AND DUP2 JUMP JUMPDEST CALLVALUE DUP1 ISZERO PUSH2 0x3C5 JUMPI PUSH1 0x0 DUP1 REVERT JUMPDEST POP PUSH1 0x43 SLOAD PUSH2 0x351 SWAP1 PUSH1 0x1 PUSH1 0x1 PUSH1 0xA0 SHL SUB AND DUP2 JUMP JUMPDEST CALLVALUE DUP1 ISZERO PUSH2 0x3E5 JUMPI PUSH1 0x0 DUP1 REVERT JUMPDEST POP PUSH2 0x2FF PUSH2 0x3F4 CALLDATASIZE PUSH1 0x4 PUSH2 0x3A3C JUMP JUMPDEST PUSH2 0xAEA JUMP JUMPDEST CALLVALUE DUP1 ISZERO PUSH2 0x405 JUMPI PUSH1 0x0 DUP1 REVERT JUMPDEST POP PUSH1 0x2 SLOAD JUMPDEST PUSH1 0x40 MLOAD SWAP1 DUP2 MSTORE PUSH1 0x20 ADD PUSH2 0x328 JUMP JUMPDEST CALLVALUE DUP1 ISZERO PUSH2 0x424 JUMPI PUSH1 0x0 DUP1 REVERT JUMPDEST POP PUSH2 0x389 PUSH2 0x433 CALLDATASIZE PUSH1 0x4 PUSH2 0x3A55 JUMP JUMPDEST PUSH2 0xD0E JUMP JUMPDEST CALLVALUE DUP1 ISZERO PUSH2 0x444 JUMPI PUSH1 0x0 DUP1 REVERT JUMPDEST POP PUSH2 0x2FF PUSH2 0x453 CALLDATASIZE PUSH1 0x4 PUSH2 0x3AA0 JUMP JUMPDEST PUSH2 0xD32 JUMP JUMPDEST CALLVALUE DUP1 ISZERO PUSH2 0x464 JUMPI PUSH1 0x0 DUP1 REVERT JUMPDEST POP PUSH1 0x4B SLOAD PUSH2 0x351 SWAP1 PUSH1 0x1 PUSH1 0x1 PUSH1 0xA0 SHL SUB AND DUP2 JUMP JUMPDEST CALLVALUE DUP1 ISZERO PUSH2 0x484 JUMPI PUSH1 0x0 DUP1 REVERT JUMPDEST POP PUSH2 0x40A PUSH1 0x39 SLOAD DUP2 JUMP JUMPDEST CALLVALUE DUP1 ISZERO PUSH2 0x49A JUMPI PUSH1 0x0 DUP1 REVERT JUMPDEST POP PUSH1 0x40 MLOAD PUSH1 0x12 DUP2 MSTORE PUSH1 0x20 ADD PUSH2 0x328 JUMP JUMPDEST CALLVALUE DUP1 ISZERO PUSH2 0x4B6 JUMPI PUSH1 0x0 DUP1 REVERT JUMPDEST POP PUSH2 0x2FF PUSH2 0x4C5 CALLDATASIZE PUSH1 0x4 PUSH2 0x3AE1 JUMP JUMPDEST PUSH2 0x1480 JUMP JUMPDEST CALLVALUE DUP1 ISZERO PUSH2 0x4D6 JUMPI PUSH1 0x0 DUP1 REVERT JUMPDEST POP PUSH2 0x40A PUSH1 0x38 SLOAD DUP2 JUMP JUMPDEST PUSH2 0x389 PUSH2 0x170D JUMP JUMPDEST CALLVALUE DUP1 ISZERO PUSH2 0x4F4 JUMPI PUSH1 0x0 DUP1 REVERT JUMPDEST POP PUSH2 0x2FF PUSH2 0x503 CALLDATASIZE PUSH1 0x4 PUSH2 0x3AA0 JUMP JUMPDEST PUSH2 0x1998 JUMP JUMPDEST CALLVALUE DUP1 ISZERO PUSH2 0x514 JUMPI PUSH1 0x0 DUP1 REVERT JUMPDEST POP PUSH2 0x2FF PUSH2 0x1DE5 JUMP JUMPDEST CALLVALUE DUP1 ISZERO PUSH2 0x529 JUMPI PUSH1 0x0 DUP1 REVERT JUMPDEST POP PUSH1 0x41 SLOAD PUSH2 0x351 SWAP1 PUSH1 0x1 PUSH1 0x1 PUSH1 0xA0 SHL SUB AND DUP2 JUMP JUMPDEST CALLVALUE DUP1 ISZERO PUSH2 0x549 JUMPI PUSH1 0x0 DUP1 REVERT JUMPDEST POP PUSH2 0x2FF PUSH2 0x558 CALLDATASIZE PUSH1 0x4 PUSH2 0x3B18 JUMP JUMPDEST PUSH2 0x1DF7 JUMP JUMPDEST CALLVALUE DUP1 ISZERO PUSH2 0x569 JUMPI PUSH1 0x0 DUP1 REVERT JUMPDEST POP PUSH1 0x4F SLOAD PUSH2 0x351 SWAP1 PUSH1 0x1 PUSH1 0x1 PUSH1 0xA0 SHL SUB AND DUP2 JUMP JUMPDEST CALLVALUE DUP1 ISZERO PUSH2 0x589 JUMPI PUSH1 0x0 DUP1 REVERT JUMPDEST POP PUSH1 0x48 SLOAD PUSH2 0x351 SWAP1 PUSH1 0x1 PUSH1 0x1 PUSH1 0xA0 SHL SUB AND DUP2 JUMP JUMPDEST CALLVALUE DUP1 ISZERO PUSH2 0x5A9 JUMPI PUSH1 0x0 DUP1 REVERT JUMPDEST POP PUSH1 0x4D SLOAD PUSH2 0x351 SWAP1 PUSH1 0x1 PUSH1 0x1 PUSH1 0xA0 SHL SUB AND DUP2 JUMP JUMPDEST CALLVALUE DUP1 ISZERO PUSH2 0x5C9 JUMPI PUSH1 0x0 DUP1 REVERT JUMPDEST POP PUSH1 0x5 SLOAD PUSH1 0xFF AND PUSH2 0x389 JUMP JUMPDEST CALLVALUE DUP1 ISZERO PUSH2 0x5E1 JUMPI PUSH1 0x0 DUP1 REVERT JUMPDEST POP PUSH2 0x2FF PUSH2 0x5F0 CALLDATASIZE PUSH1 0x4 PUSH2 0x3A3C JUMP JUMPDEST PUSH2 0x2029 JUMP JUMPDEST CALLVALUE DUP1 ISZERO PUSH2 0x601 JUMPI PUSH1 0x0 DUP1 REVERT JUMPDEST POP PUSH2 0x2FF PUSH2 0x610 CALLDATASIZE PUSH1 0x4 PUSH2 0x3B18 JUMP JUMPDEST PUSH2 0x21F4 JUMP JUMPDEST CALLVALUE DUP1 ISZERO PUSH2 0x621 JUMPI PUSH1 0x0 DUP1 REVERT JUMPDEST POP PUSH1 0x3B SLOAD PUSH2 0x351 SWAP1 PUSH1 0x1 PUSH1 0x1 PUSH1 0xA0 SHL SUB AND DUP2 JUMP JUMPDEST CALLVALUE DUP1 ISZERO PUSH2 0x641 JUMPI PUSH1 0x0 DUP1 REVERT JUMPDEST POP PUSH2 0x40A PUSH2 0x650 CALLDATASIZE PUSH1 0x4 PUSH2 0x3B18 JUMP JUMPDEST PUSH1 0x1 PUSH1 0x1 PUSH1 0xA0 SHL SUB AND PUSH1 0x0 SWAP1 DUP2 MSTORE PUSH1 0x20 DUP2 SWAP1 MSTORE PUSH1 0x40 SWAP1 KECCAK256 SLOAD SWAP1 JUMP JUMPDEST CALLVALUE DUP1 ISZERO PUSH2 0x677 JUMPI PUSH1 0x0 DUP1 REVERT JUMPDEST POP PUSH2 0x2FF PUSH2 0x233F JUMP JUMPDEST CALLVALUE DUP1 ISZERO PUSH2 0x68C JUMPI PUSH1 0x0 DUP1 REVERT JUMPDEST POP PUSH2 0x389 PUSH2 0x69B CALLDATASIZE PUSH1 0x4 PUSH2 0x3B3A JUMP JUMPDEST PUSH2 0x2351 JUMP JUMPDEST CALLVALUE DUP1 ISZERO PUSH2 0x6AC JUMPI PUSH1 0x0 DUP1 REVERT JUMPDEST POP PUSH1 0x40 SLOAD PUSH2 0x351 SWAP1 PUSH1 0x1 PUSH1 0x1 PUSH1 0xA0 SHL SUB AND DUP2 JUMP JUMPDEST CALLVALUE DUP1 ISZERO PUSH2 0x6CC JUMPI PUSH1 0x0 DUP1 REVERT JUMPDEST POP PUSH2 0x40A PUSH1 0x3A SLOAD DUP2 JUMP JUMPDEST CALLVALUE DUP1 ISZERO PUSH2 0x6E2 JUMPI PUSH1 0x0 DUP1 REVERT JUMPDEST POP PUSH2 0x2FF PUSH2 0x6F1 CALLDATASIZE PUSH1 0x4 PUSH2 0x3B56 JUMP JUMPDEST PUSH2 0x2816 JUMP JUMPDEST CALLVALUE DUP1 ISZERO PUSH2 0x702 JUMPI PUSH1 0x0 DUP1 REVERT JUMPDEST POP PUSH2 0x2FF PUSH2 0x711 CALLDATASIZE PUSH1 0x4 PUSH2 0x3B18 JUMP JUMPDEST PUSH2 0x28EC JUMP JUMPDEST CALLVALUE DUP1 ISZERO PUSH2 0x722 JUMPI PUSH1 0x0 DUP1 REVERT JUMPDEST POP PUSH2 0x2FF PUSH2 0x2A34 JUMP JUMPDEST CALLVALUE DUP1 ISZERO PUSH2 0x737 JUMPI PUSH1 0x0 DUP1 REVERT JUMPDEST POP PUSH2 0x74B PUSH2 0x746 CALLDATASIZE PUSH1 0x4 PUSH2 0x3B79 JUMP JUMPDEST PUSH2 0x2A44 JUMP JUMPDEST PUSH1 0x40 DUP1 MLOAD SWAP3 DUP4 MSTORE PUSH1 0x20 DUP4 ADD SWAP2 SWAP1 SWAP2 MSTORE ADD PUSH2 0x328 JUMP JUMPDEST CALLVALUE DUP1 ISZERO PUSH2 0x76C JUMPI PUSH1 0x0 DUP1 REVERT JUMPDEST POP PUSH1 0x5 SLOAD PUSH2 0x100 SWAP1 DIV PUSH1 0x1 PUSH1 0x1 PUSH1 0xA0 SHL SUB AND PUSH2 0x351 JUMP JUMPDEST CALLVALUE DUP1 ISZERO PUSH2 0x78F JUMPI PUSH1 0x0 DUP1 REVERT JUMPDEST POP PUSH2 0x31B PUSH2 0x2B9F JUMP JUMPDEST CALLVALUE DUP1 ISZERO PUSH2 0x7A4 JUMPI PUSH1 0x0 DUP1 REVERT JUMPDEST POP PUSH1 0x44 SLOAD PUSH2 0x351 SWAP1 PUSH1 0x1 PUSH1 0x1 PUSH1 0xA0 SHL SUB AND DUP2 JUMP JUMPDEST CALLVALUE DUP1 ISZERO PUSH2 0x7C4 JUMPI PUSH1 0x0 DUP1 REVERT JUMPDEST POP PUSH2 0x389 PUSH2 0x7D3 CALLDATASIZE PUSH1 0x4 PUSH2 0x3A12 JUMP JUMPDEST PUSH2 0x2BAE JUMP JUMPDEST CALLVALUE DUP1 ISZERO PUSH2 0x7E4 JUMPI PUSH1 0x0 DUP1 REVERT JUMPDEST POP PUSH1 0x47 SLOAD PUSH2 0x351 SWAP1 PUSH1 0x1 PUSH1 0x1 PUSH1 0xA0 SHL SUB AND DUP2 JUMP JUMPDEST CALLVALUE DUP1 ISZERO PUSH2 0x804 JUMPI PUSH1 0x0 DUP1 REVERT JUMPDEST POP PUSH2 0x2FF PUSH2 0x813 CALLDATASIZE PUSH1 0x4 PUSH2 0x3A3C JUMP JUMPDEST PUSH2 0x2BBC JUMP JUMPDEST CALLVALUE DUP1 ISZERO PUSH2 0x824 JUMPI PUSH1 0x0 DUP1 REVERT JUMPDEST POP PUSH2 0x2FF PUSH2 0x833 CALLDATASIZE PUSH1 0x4 PUSH2 0x3A3C JUMP JUMPDEST PUSH2 0x2D81 JUMP JUMPDEST CALLVALUE DUP1 ISZERO PUSH2 0x844 JUMPI PUSH1 0x0 DUP1 REVERT JUMPDEST POP PUSH2 0x2FF PUSH2 0x853 CALLDATASIZE PUSH1 0x4 PUSH2 0x3AE1 JUMP JUMPDEST PUSH2 0x2F53 JUMP JUMPDEST CALLVALUE DUP1 ISZERO PUSH2 0x864 JUMPI PUSH1 0x0 DUP1 REVERT JUMPDEST POP PUSH2 0x40A PUSH2 0x873 CALLDATASIZE PUSH1 0x4 PUSH2 0x3B9B JUMP JUMPDEST PUSH2 0x30E8 JUMP JUMPDEST CALLVALUE DUP1 ISZERO PUSH2 0x884 JUMPI PUSH1 0x0 DUP1 REVERT JUMPDEST POP PUSH2 0x2FF PUSH2 0x893 CALLDATASIZE PUSH1 0x4 PUSH2 0x3AE1 JUMP JUMPDEST PUSH2 0x3294 JUMP JUMPDEST CALLVALUE DUP1 ISZERO PUSH2 0x8A4 JUMPI PUSH1 0x0 DUP1 REVERT JUMPDEST POP PUSH1 0x3C SLOAD PUSH2 0x351 SWAP1 PUSH1 0x1 PUSH1 0x1 PUSH1 0xA0 SHL SUB AND DUP2 JUMP JUMPDEST CALLVALUE DUP1 ISZERO PUSH2 0x8C4 JUMPI PUSH1 0x0 DUP1 REVERT JUMPDEST POP PUSH2 0x40A PUSH2 0x8D3 CALLDATASIZE PUSH1 0x4 PUSH2 0x3BB6 JUMP JUMPDEST PUSH1 0x1 PUSH1 0x1 PUSH1 0xA0 SHL SUB SWAP2 DUP3 AND PUSH1 0x0 SWAP1 DUP2 MSTORE PUSH1 0x1 PUSH1 0x20 SWAP1 DUP2 MSTORE PUSH1 0x40 DUP1 DUP4 KECCAK256 SWAP4 SWAP1 SWAP5 AND DUP3 MSTORE SWAP2 SWAP1 SWAP2 MSTORE KECCAK256 SLOAD SWAP1 JUMP JUMPDEST CALLVALUE DUP1 ISZERO PUSH2 0x90A JUMPI PUSH1 0x0 DUP1 REVERT JUMPDEST POP PUSH2 0x94F PUSH2 0x919 CALLDATASIZE PUSH1 0x4 PUSH2 0x3B18 JUMP JUMPDEST PUSH1 0x3D PUSH1 0x20 MSTORE PUSH1 0x0 SWAP1 DUP2 MSTORE PUSH1 0x40 SWAP1 KECCAK256 DUP1 SLOAD PUSH1 0x1 DUP3 ADD SLOAD PUSH1 0x2 SWAP1 SWAP3 ADD SLOAD PUSH1 0xFF DUP1 DUP4 AND SWAP4 PUSH2 0x100 DUP5 DIV DUP3 AND SWAP4 PUSH3 0x10000 SWAP1 DIV SWAP1 SWAP2 AND SWAP2 DUP6 JUMP JUMPDEST PUSH1 0x40 MLOAD PUSH2 0x328 SWAP6 SWAP5 SWAP4 SWAP3 SWAP2 SWAP1 SWAP5 ISZERO ISZERO DUP6 MSTORE SWAP3 ISZERO ISZERO PUSH1 0x20 DUP6 ADD MSTORE SWAP1 ISZERO ISZERO PUSH1 0x40 DUP5 ADD MSTORE PUSH1 0x60 DUP4 ADD MSTORE PUSH1 0x80 DUP3 ADD MSTORE PUSH1 0xA0 ADD SWAP1 JUMP JUMPDEST CALLVALUE DUP1 ISZERO PUSH2 0x98C JUMPI PUSH1 0x0 DUP1 REVERT JUMPDEST POP PUSH2 0x2FF PUSH2 0x99B CALLDATASIZE PUSH1 0x4 PUSH2 0x3B18 JUMP JUMPDEST PUSH2 0x341D JUMP JUMPDEST CALLVALUE DUP1 ISZERO PUSH2 0x9AC JUMPI PUSH1 0x0 DUP1 REVERT JUMPDEST POP PUSH1 0x49 SLOAD PUSH2 0x351 SWAP1 PUSH1 0x1 PUSH1 0x1 PUSH1 0xA0 SHL SUB AND DUP2 JUMP JUMPDEST CALLVALUE DUP1 ISZERO PUSH2 0x9CC JUMPI PUSH1 0x0 DUP1 REVERT JUMPDEST POP PUSH1 0x3E SLOAD PUSH2 0x351 SWAP1 PUSH1 0x1 PUSH1 0x1 PUSH1 0xA0 SHL SUB AND DUP2 JUMP JUMPDEST PUSH1 0x2 PUSH1 0x6 SLOAD SUB PUSH2 0xA37 JUMPI PUSH1 0x40 MLOAD PUSH3 0x461BCD PUSH1 0xE5 SHL DUP2 MSTORE PUSH1 0x20 PUSH1 0x4 DUP3 ADD MSTORE PUSH1 0x1F PUSH1 0x24 DUP3 ADD MSTORE PUSH32 0x5265656E7472616E637947756172643A207265656E7472616E742063616C6C00 PUSH1 0x44 DUP3 ADD MSTORE PUSH1 0x64 ADD JUMPDEST PUSH1 0x40 MLOAD DUP1 SWAP2 SUB SWAP1 REVERT JUMPDEST PUSH1 0x2 PUSH1 0x6 SSTORE JUMP JUMPDEST PUSH1 0x60 PUSH1 0x3 DUP1 SLOAD PUSH2 0xA4D SWAP1 PUSH2 0x3BD2 JUMP JUMPDEST DUP1 PUSH1 0x1F ADD PUSH1 0x20 DUP1 SWAP2 DIV MUL PUSH1 0x20 ADD PUSH1 0x40 MLOAD SWAP1 DUP2 ADD PUSH1 0x40 MSTORE DUP1 SWAP3 SWAP2 SWAP1 DUP2 DUP2 MSTORE PUSH1 0x20 ADD DUP3 DUP1 SLOAD PUSH2 0xA79 SWAP1 PUSH2 0x3BD2 JUMP JUMPDEST DUP1 ISZERO PUSH2 0xAC6 JUMPI DUP1 PUSH1 0x1F LT PUSH2 0xA9B JUMPI PUSH2 0x100 DUP1 DUP4 SLOAD DIV MUL DUP4 MSTORE SWAP2 PUSH1 0x20 ADD SWAP2 PUSH2 0xAC6 JUMP JUMPDEST DUP3 ADD SWAP2 SWAP1 PUSH1 0x0 MSTORE PUSH1 0x20 PUSH1 0x0 KECCAK256 SWAP1 JUMPDEST DUP2 SLOAD DUP2 MSTORE SWAP1 PUSH1 0x1 ADD SWAP1 PUSH1 0x20 ADD DUP1 DUP4 GT PUSH2 0xAA9 JUMPI DUP3 SWAP1 SUB PUSH1 0x1F AND DUP3 ADD SWAP2 JUMPDEST POP POP POP POP POP SWAP1 POP SWAP1 JUMP JUMPDEST PUSH1 0x0 CALLER PUSH2 0xADE DUP2 DUP6 DUP6 PUSH2 0x350A JUMP JUMPDEST PUSH1 0x1 SWAP2 POP POP JUMPDEST SWAP3 SWAP2 POP POP JUMP JUMPDEST PUSH2 0xAF2 PUSH2 0x3517 JUMP JUMPDEST PUSH2 0xAFA PUSH2 0x9E0 JUMP JUMPDEST PUSH2 0xB06 PUSH1 0x12 PUSH1 0xA PUSH2 0x3D00 JUMP JUMPDEST DUP2 LT ISZERO PUSH2 0xB7B JUMPI PUSH1 0x40 MLOAD PUSH3 0x461BCD PUSH1 0xE5 SHL DUP2 MSTORE PUSH1 0x20 PUSH1 0x4 DUP3 ADD MSTORE PUSH1 0x37 PUSH1 0x24 DUP3 ADD MSTORE PUSH32 0x416D6F756E74206F66204859415820746F6B656E7320746F206973737565206D PUSH1 0x44 DUP3 ADD MSTORE PUSH32 0x757374206265206174206C65617374203120746F6B656E000000000000000000 PUSH1 0x64 DUP3 ADD MSTORE PUSH1 0x84 ADD PUSH2 0xA2E JUMP JUMPDEST PUSH2 0xB87 PUSH1 0x12 PUSH1 0xA PUSH2 0x3D00 JUMP JUMPDEST PUSH2 0xB95 SWAP1 PUSH4 0x3B9ACA00 PUSH2 0x3D0F JUMP JUMPDEST DUP2 GT ISZERO PUSH2 0xC0A JUMPI PUSH1 0x40 MLOAD PUSH3 0x461BCD PUSH1 0xE5 SHL DUP2 MSTORE PUSH1 0x20 PUSH1 0x4 DUP3 ADD MSTORE PUSH1 0x3F PUSH1 0x24 DUP3 ADD MSTORE PUSH32 0x416D6F756E74206F66204859415820746F6B656E7320746F2069737375652061 PUSH1 0x44 DUP3 ADD MSTORE PUSH32 0x7420612074696D65206D757374206265206D6178696D756D2031303030204D00 PUSH1 0x64 DUP3 ADD MSTORE PUSH1 0x84 ADD PUSH2 0xA2E JUMP JUMPDEST PUSH2 0xC16 PUSH1 0x12 PUSH1 0xA PUSH2 0x3D00 JUMP JUMPDEST PUSH2 0xC25 SWAP1 PUSH5 0x2540BE400 PUSH2 0x3D0F JUMP JUMPDEST DUP2 PUSH2 0xC2F PUSH1 0x2 SLOAD SWAP1 JUMP JUMPDEST PUSH2 0xC39 SWAP2 SWAP1 PUSH2 0x3D26 JUMP JUMPDEST GT ISZERO PUSH2 0xCAD JUMPI PUSH1 0x40 MLOAD PUSH3 0x461BCD PUSH1 0xE5 SHL DUP2 MSTORE PUSH1 0x20 PUSH1 0x4 DUP3 ADD MSTORE PUSH1 0x3B PUSH1 0x24 DUP3 ADD MSTORE PUSH32 0x416D6F756E74206F66204859415820746F6B656E7320746F2069737375652073 PUSH1 0x44 DUP3 ADD MSTORE PUSH32 0x75727061736573207468652031302C303030204D20746F6B656E730000000000 PUSH1 0x64 DUP3 ADD MSTORE PUSH1 0x84 ADD PUSH2 0xA2E JUMP JUMPDEST PUSH1 0x5 SLOAD PUSH2 0xCC8 SWAP1 PUSH2 0x100 SWAP1 DIV PUSH1 0x1 PUSH1 0x1 PUSH1 0xA0 SHL SUB AND DUP3 PUSH2 0x354A JUMP JUMPDEST PUSH1 0x40 DUP1 MLOAD CALLER DUP2 MSTORE PUSH1 0x20 DUP2 ADD DUP4 SWAP1 MSTORE PUSH32 0x455064BBF1374D9E833B8D9DB24C56B24DBF79CC1A94A30665CAE7093963D5A8 SWAP2 ADD PUSH1 0x40 MLOAD DUP1 SWAP2 SUB SWAP1 LOG1 PUSH2 0xD0B PUSH1 0x1 PUSH1 0x6 SSTORE JUMP JUMPDEST POP JUMP JUMPDEST PUSH1 0x0 CALLER PUSH2 0xD1C DUP6 DUP3 DUP6 PUSH2 0x3580 JUMP JUMPDEST PUSH2 0xD27 DUP6 DUP6 DUP6 PUSH2 0x35FE JUMP JUMPDEST POP PUSH1 0x1 SWAP5 SWAP4 POP POP POP POP JUMP JUMPDEST PUSH2 0xD3A PUSH2 0x3517 JUMP JUMPDEST PUSH1 0x1 PUSH1 0x1 PUSH1 0xA0 SHL SUB DUP2 AND PUSH2 0xDAF JUMPI PUSH1 0x40 MLOAD PUSH3 0x461BCD PUSH1 0xE5 SHL DUP2 MSTORE PUSH1 0x20 PUSH1 0x4 DUP3 ADD MSTORE PUSH1 0x36 PUSH1 0x24 DUP3 ADD MSTORE PUSH32 0x5468652070726963652064617461206665656420616464726573732063616E6E PUSH1 0x44 DUP3 ADD MSTORE PUSH22 0x6F7420626520746865207A65726F2061646472657373 PUSH1 0x50 SHL PUSH1 0x64 DUP3 ADD MSTORE PUSH1 0x84 ADD PUSH2 0xA2E JUMP JUMPDEST DUP1 PUSH1 0x0 DUP1 DUP1 DUP6 PUSH1 0x4 DUP2 GT ISZERO PUSH2 0xDC6 JUMPI PUSH2 0xDC6 PUSH2 0x3D39 JUMP JUMPDEST SUB PUSH2 0xE89 JUMPI PUSH1 0x3E SLOAD PUSH1 0x1 PUSH1 0x1 PUSH1 0xA0 SHL SUB SWAP1 DUP2 AND SWAP1 DUP6 AND SUB PUSH2 0xE51 JUMPI PUSH1 0x40 DUP1 MLOAD PUSH3 0x461BCD PUSH1 0xE5 SHL DUP2 MSTORE PUSH1 0x20 PUSH1 0x4 DUP3 ADD MSTORE PUSH1 0x24 DUP2 ADD SWAP2 SWAP1 SWAP2 MSTORE PUSH32 0x4D41544943207072696365206665656420616464726573732068617320616C72 PUSH1 0x44 DUP3 ADD MSTORE PUSH32 0x65616479206265656E206D6F64696669656420746F20746861742076616C7565 PUSH1 0x64 DUP3 ADD MSTORE PUSH1 0x84 ADD PUSH2 0xA2E JUMP JUMPDEST PUSH1 0x40 MLOAD PUSH11 0x1350551250C80BC81554D1 PUSH1 0xAA SHL PUSH1 0x20 DUP3 ADD MSTORE PUSH1 0x2B ADD JUMPDEST PUSH1 0x40 MLOAD PUSH1 0x20 DUP2 DUP4 SUB SUB DUP2 MSTORE SWAP1 PUSH1 0x40 MSTORE DUP1 MLOAD SWAP1 PUSH1 0x20 ADD KECCAK256 SWAP2 POP PUSH2 0x1169 JUMP JUMPDEST PUSH1 0x1 DUP6 PUSH1 0x4 DUP2 GT ISZERO PUSH2 0xE9D JUMPI PUSH2 0xE9D PUSH2 0x3D39 JUMP JUMPDEST SUB PUSH2 0xF32 JUMPI PUSH1 0x41 SLOAD PUSH1 0x1 PUSH1 0x1 PUSH1 0xA0 SHL SUB SWAP1 DUP2 AND SWAP1 DUP6 AND SUB PUSH2 0xF14 JUMPI PUSH1 0x40 MLOAD PUSH3 0x461BCD PUSH1 0xE5 SHL DUP2 MSTORE PUSH1 0x20 PUSH1 0x4 DUP3 ADD MSTORE PUSH1 0x3F PUSH1 0x24 DUP3 ADD MSTORE PUSH32 0x55534443207072696365206665656420616464726573732068617320616C7265 PUSH1 0x44 DUP3 ADD MSTORE PUSH1 0x0 DUP1 MLOAD PUSH1 0x20 PUSH2 0x413C DUP4 CODECOPY DUP2 MLOAD SWAP2 MSTORE PUSH1 0x64 DUP3 ADD MSTORE PUSH1 0x84 ADD PUSH2 0xA2E JUMP JUMPDEST PUSH1 0x40 MLOAD PUSH10 0x1554D110C80BC81554D1 PUSH1 0xB2 SHL PUSH1 0x20 DUP3 ADD MSTORE PUSH1 0x2A ADD PUSH2 0xE6C JUMP JUMPDEST PUSH1 0x2 DUP6 PUSH1 0x4 DUP2 GT ISZERO PUSH2 0xF46 JUMPI PUSH2 0xF46 PUSH2 0x3D39 JUMP JUMPDEST SUB PUSH2 0xFDB JUMPI PUSH1 0x45 SLOAD PUSH1 0x1 PUSH1 0x1 PUSH1 0xA0 SHL SUB SWAP1 DUP2 AND SWAP1 DUP6 AND SUB PUSH2 0xFBD JUMPI PUSH1 0x40 MLOAD PUSH3 0x461BCD PUSH1 0xE5 SHL DUP2 MSTORE PUSH1 0x20 PUSH1 0x4 DUP3 ADD MSTORE PUSH1 0x3F PUSH1 0x24 DUP3 ADD MSTORE PUSH32 0x55534454207072696365206665656420616464726573732068617320616C7265 PUSH1 0x44 DUP3 ADD MSTORE PUSH1 0x0 DUP1 MLOAD PUSH1 0x20 PUSH2 0x413C DUP4 CODECOPY DUP2 MLOAD SWAP2 MSTORE PUSH1 0x64 DUP3 ADD MSTORE PUSH1 0x84 ADD PUSH2 0xA2E JUMP JUMPDEST PUSH1 0x40 MLOAD PUSH10 0x1554D115080BC81554D1 PUSH1 0xB2 SHL PUSH1 0x20 DUP3 ADD MSTORE PUSH1 0x2A ADD PUSH2 0xE6C JUMP JUMPDEST PUSH1 0x3 DUP6 PUSH1 0x4 DUP2 GT ISZERO PUSH2 0xFEF JUMPI PUSH2 0xFEF PUSH2 0x3D39 JUMP JUMPDEST SUB PUSH2 0x1084 JUMPI PUSH1 0x49 SLOAD PUSH1 0x1 PUSH1 0x1 PUSH1 0xA0 SHL SUB SWAP1 DUP2 AND SWAP1 DUP6 AND SUB PUSH2 0x1066 JUMPI PUSH1 0x40 MLOAD PUSH3 0x461BCD PUSH1 0xE5 SHL DUP2 MSTORE PUSH1 0x20 PUSH1 0x4 DUP3 ADD MSTORE PUSH1 0x3F PUSH1 0x24 DUP3 ADD MSTORE PUSH32 0x57425443207072696365206665656420616464726573732068617320616C7265 PUSH1 0x44 DUP3 ADD MSTORE PUSH1 0x0 DUP1 MLOAD PUSH1 0x20 PUSH2 0x413C DUP4 CODECOPY DUP2 MLOAD SWAP2 MSTORE PUSH1 0x64 DUP3 ADD MSTORE PUSH1 0x84 ADD PUSH2 0xA2E JUMP JUMPDEST PUSH1 0x40 MLOAD PUSH10 0x15D09510C80BC81554D1 PUSH1 0xB2 SHL PUSH1 0x20 DUP3 ADD MSTORE PUSH1 0x2A ADD PUSH2 0xE6C JUMP JUMPDEST PUSH1 0x4 DUP6 PUSH1 0x4 DUP2 GT ISZERO PUSH2 0x1098 JUMPI PUSH2 0x1098 PUSH2 0x3D39 JUMP JUMPDEST SUB PUSH2 0x112C JUMPI PUSH1 0x4D SLOAD PUSH1 0x1 PUSH1 0x1 PUSH1 0xA0 SHL SUB SWAP1 DUP2 AND SWAP1 DUP6 AND SUB PUSH2 0x110F JUMPI PUSH1 0x40 MLOAD PUSH3 0x461BCD PUSH1 0xE5 SHL DUP2 MSTORE PUSH1 0x20 PUSH1 0x4 DUP3 ADD MSTORE PUSH1 0x3F PUSH1 0x24 DUP3 ADD MSTORE PUSH32 0x57455448207072696365206665656420616464726573732068617320616C7265 PUSH1 0x44 DUP3 ADD MSTORE PUSH1 0x0 DUP1 MLOAD PUSH1 0x20 PUSH2 0x413C DUP4 CODECOPY DUP2 MLOAD SWAP2 MSTORE PUSH1 0x64 DUP3 ADD MSTORE PUSH1 0x84 ADD PUSH2 0xA2E JUMP JUMPDEST PUSH1 0x40 MLOAD PUSH9 0x115512080BC81554D1 PUSH1 0xBA SHL PUSH1 0x20 DUP3 ADD MSTORE PUSH1 0x29 ADD PUSH2 0xE6C JUMP JUMPDEST PUSH1 0x40 MLOAD PUSH3 0x461BCD PUSH1 0xE5 SHL DUP2 MSTORE PUSH1 0x20 PUSH1 0x4 DUP3 ADD MSTORE PUSH1 0x12 PUSH1 0x24 DUP3 ADD MSTORE PUSH18 0x496E76616C696420746F6B656E2074797065 PUSH1 0x70 SHL PUSH1 0x44 DUP3 ADD MSTORE PUSH1 0x64 ADD PUSH2 0xA2E JUMP JUMPDEST DUP3 PUSH1 0x1 PUSH1 0x1 PUSH1 0xA0 SHL SUB AND PUSH4 0x7284E416 PUSH1 0x40 MLOAD DUP2 PUSH4 0xFFFFFFFF AND PUSH1 0xE0 SHL DUP2 MSTORE PUSH1 0x4 ADD PUSH1 0x0 PUSH1 0x40 MLOAD DUP1 DUP4 SUB DUP2 DUP7 GAS STATICCALL SWAP3 POP POP POP DUP1 ISZERO PUSH2 0x11C8 JUMPI POP PUSH1 0x40 MLOAD RETURNDATASIZE PUSH1 0x0 DUP3 RETURNDATACOPY PUSH1 0x1F RETURNDATASIZE SWAP1 DUP2 ADD PUSH1 0x1F NOT AND DUP3 ADD PUSH1 0x40 MSTORE PUSH2 0x11C5 SWAP2 SWAP1 DUP2 ADD SWAP1 PUSH2 0x3D65 JUMP JUMPDEST PUSH1 0x1 JUMPDEST PUSH2 0x11E4 JUMPI PUSH1 0x40 MLOAD PUSH3 0x461BCD PUSH1 0xE5 SHL DUP2 MSTORE PUSH1 0x4 ADD PUSH2 0xA2E SWAP1 PUSH2 0x3E12 JUMP JUMPDEST DUP1 PUSH1 0x40 MLOAD PUSH1 0x20 ADD PUSH2 0x11F5 SWAP2 SWAP1 PUSH2 0x3E7E JUMP JUMPDEST PUSH1 0x40 MLOAD PUSH1 0x20 DUP2 DUP4 SUB SUB DUP2 MSTORE SWAP1 PUSH1 0x40 MSTORE DUP1 MLOAD SWAP1 PUSH1 0x20 ADD KECCAK256 SWAP2 POP DUP2 DUP4 EQ PUSH2 0x122C JUMPI PUSH1 0x40 MLOAD PUSH3 0x461BCD PUSH1 0xE5 SHL DUP2 MSTORE PUSH1 0x4 ADD PUSH2 0xA2E SWAP1 PUSH2 0x3E12 JUMP JUMPDEST POP PUSH1 0x0 DUP6 PUSH1 0x4 DUP2 GT ISZERO PUSH2 0x1241 JUMPI PUSH2 0x1241 PUSH2 0x3D39 JUMP JUMPDEST SUB PUSH2 0x12A9 JUMPI PUSH1 0x3E DUP1 SLOAD PUSH1 0x1 PUSH1 0x1 PUSH1 0xA0 SHL SUB DUP7 AND PUSH1 0x1 PUSH1 0x1 PUSH1 0xA0 SHL SUB NOT SWAP2 DUP3 AND DUP2 OR SWAP1 SWAP3 SSTORE PUSH1 0x3F DUP1 SLOAD SWAP1 SWAP2 AND DUP3 OR SWAP1 SSTORE PUSH1 0x40 MLOAD SWAP1 DUP2 MSTORE PUSH32 0xEE9BC8D900B5D69F934EC4A3986B3BFDA61ADD54821456C3F7E943E87CF48F52 SWAP1 PUSH1 0x20 ADD JUMPDEST PUSH1 0x40 MLOAD DUP1 SWAP2 SUB SWAP1 LOG1 PUSH2 0x1479 JUMP JUMPDEST PUSH1 0x1 DUP6 PUSH1 0x4 DUP2 GT ISZERO PUSH2 0x12BD JUMPI PUSH2 0x12BD PUSH2 0x3D39 JUMP JUMPDEST SUB PUSH2 0x131C JUMPI PUSH1 0x41 DUP1 SLOAD PUSH1 0x1 PUSH1 0x1 PUSH1 0xA0 SHL SUB DUP7 AND PUSH1 0x1 PUSH1 0x1 PUSH1 0xA0 SHL SUB NOT SWAP2 DUP3 AND DUP2 OR SWAP1 SWAP3 SSTORE PUSH1 0x42 DUP1 SLOAD SWAP1 SWAP2 AND DUP3 OR SWAP1 SSTORE PUSH1 0x40 MLOAD SWAP1 DUP2 MSTORE PUSH32 0xA0BC5DADD9D9C881861F6DA8998BEBEF8EABCB5F3D6651187C5D1899E327965 SWAP1 PUSH1 0x20 ADD PUSH2 0x129C JUMP JUMPDEST PUSH1 0x2 DUP6 PUSH1 0x4 DUP2 GT ISZERO PUSH2 0x1330 JUMPI PUSH2 0x1330 PUSH2 0x3D39 JUMP JUMPDEST SUB PUSH2 0x138F JUMPI PUSH1 0x45 DUP1 SLOAD PUSH1 0x1 PUSH1 0x1 PUSH1 0xA0 SHL SUB DUP7 AND PUSH1 0x1 PUSH1 0x1 PUSH1 0xA0 SHL SUB NOT SWAP2 DUP3 AND DUP2 OR SWAP1 SWAP3 SSTORE PUSH1 0x46 DUP1 SLOAD SWAP1 SWAP2 AND DUP3 OR SWAP1 SSTORE PUSH1 0x40 MLOAD SWAP1 DUP2 MSTORE PUSH32 0x1E5BFE0B7FE6FCDC586B9E3A4FBDC0BDB1346D36173963BA38C897137BA16031 SWAP1 PUSH1 0x20 ADD PUSH2 0x129C JUMP JUMPDEST PUSH1 0x3 DUP6 PUSH1 0x4 DUP2 GT ISZERO PUSH2 0x13A3 JUMPI PUSH2 0x13A3 PUSH2 0x3D39 JUMP JUMPDEST SUB PUSH2 0x1402 JUMPI PUSH1 0x49 DUP1 SLOAD PUSH1 0x1 PUSH1 0x1 PUSH1 0xA0 SHL SUB DUP7 AND PUSH1 0x1 PUSH1 0x1 PUSH1 0xA0 SHL SUB NOT SWAP2 DUP3 AND DUP2 OR SWAP1 SWAP3 SSTORE PUSH1 0x4A DUP1 SLOAD SWAP1 SWAP2 AND DUP3 OR SWAP1 SSTORE PUSH1 0x40 MLOAD SWAP1 DUP2 MSTORE PUSH32 0x2171C3CFA3D86551D618C9DA7164A608DD795715BF61402D9CCB45CF5433A076 SWAP1 PUSH1 0x20 ADD PUSH2 0x129C JUMP JUMPDEST PUSH1 0x4 DUP6 PUSH1 0x4 DUP2 GT ISZERO PUSH2 0x1416 JUMPI PUSH2 0x1416 PUSH2 0x3D39 JUMP JUMPDEST SUB PUSH2 0x1479 JUMPI PUSH1 0x4D DUP1 SLOAD PUSH1 0x1 PUSH1 0x1 PUSH1 0xA0 SHL SUB DUP7 AND PUSH1 0x1 PUSH1 0x1 PUSH1 0xA0 SHL SUB NOT SWAP2 DUP3 AND DUP2 OR SWAP1 SWAP3 SSTORE PUSH1 0x4E DUP1 SLOAD SWAP1 SWAP2 AND DUP3 OR SWAP1 SSTORE PUSH1 0x40 MLOAD SWAP1 DUP2 MSTORE PUSH32 0xC21BE1E8C8D6DE83E19AD6DE75CD885EEFAC75BE87E532A0A04D02147004E520 SWAP1 PUSH1 0x20 ADD PUSH1 0x40 MLOAD DUP1 SWAP2 SUB SWAP1 LOG1 JUMPDEST POP POP POP POP POP JUMP JUMPDEST PUSH1 0x5 SLOAD PUSH2 0x100 SWAP1 DIV PUSH1 0x1 PUSH1 0x1 PUSH1 0xA0 SHL SUB AND PUSH1 0x1 PUSH1 0x1 PUSH1 0xA0 SHL SUB AND CALLER PUSH1 0x1 PUSH1 0x1 PUSH1 0xA0 SHL SUB AND EQ DUP1 PUSH2 0x14BA JUMPI POP PUSH1 0x3B SLOAD PUSH1 0x1 PUSH1 0x1 PUSH1 0xA0 SHL SUB AND CALLER EQ JUMPDEST PUSH2 0x14D6 JUMPI PUSH1 0x40 MLOAD PUSH3 0x461BCD PUSH1 0xE5 SHL DUP2 MSTORE PUSH1 0x4 ADD PUSH2 0xA2E SWAP1 PUSH2 0x3E9A JUMP JUMPDEST PUSH1 0x1 PUSH1 0x1 PUSH1 0xA0 SHL SUB DUP3 AND PUSH2 0x156A JUMPI PUSH1 0x40 MLOAD PUSH3 0x461BCD PUSH1 0xE5 SHL DUP2 MSTORE PUSH1 0x20 PUSH1 0x4 DUP3 ADD MSTORE PUSH1 0x4F PUSH1 0x24 DUP3 ADD MSTORE PUSH32 0x496E766573746F72206164647265737320746F20757064617465207175616C69 PUSH1 0x44 DUP3 ADD MSTORE PUSH32 0x6669656420696E766573746F72207374617475732063616E6E6F742062652074 PUSH1 0x64 DUP3 ADD MSTORE PUSH15 0x6865207A65726F2061646472657373 PUSH1 0x88 SHL PUSH1 0x84 DUP3 ADD MSTORE PUSH1 0xA4 ADD PUSH2 0xA2E JUMP JUMPDEST PUSH1 0x1 PUSH1 0x1 PUSH1 0xA0 SHL SUB DUP3 AND PUSH1 0x0 SWAP1 DUP2 MSTORE PUSH1 0x3D PUSH1 0x20 MSTORE PUSH1 0x40 SWAP1 KECCAK256 SLOAD PUSH1 0xFF AND PUSH2 0x15F8 JUMPI PUSH1 0x40 MLOAD PUSH3 0x461BCD PUSH1 0xE5 SHL DUP2 MSTORE PUSH1 0x20 PUSH1 0x4 DUP3 ADD MSTORE PUSH1 0x3E PUSH1 0x24 DUP3 ADD MSTORE PUSH32 0x496E766573746F722061646472657373206D7573742062652066697273742061 PUSH1 0x44 DUP3 ADD MSTORE PUSH32 0x6464656420746F2074686520696E766573746F722077686974656C6973740000 PUSH1 0x64 DUP3 ADD MSTORE PUSH1 0x84 ADD PUSH2 0xA2E JUMP JUMPDEST PUSH1 0x1 PUSH1 0x1 PUSH1 0xA0 SHL SUB DUP3 AND PUSH1 0x0 SWAP1 DUP2 MSTORE PUSH1 0x3D PUSH1 0x20 MSTORE PUSH1 0x40 SWAP1 KECCAK256 SLOAD DUP2 ISZERO ISZERO PUSH3 0x10000 SWAP1 SWAP2 DIV PUSH1 0xFF AND ISZERO ISZERO SUB PUSH2 0x1693 JUMPI PUSH1 0x40 MLOAD PUSH3 0x461BCD PUSH1 0xE5 SHL DUP2 MSTORE PUSH1 0x20 PUSH1 0x4 DUP3 ADD MSTORE PUSH1 0x3D PUSH1 0x24 DUP3 ADD MSTORE PUSH32 0x5468617420696E766573746F7220616464726573732068617320616C72656164 PUSH1 0x44 DUP3 ADD MSTORE PUSH32 0x79206265656E207570646174656420746F207468617420737461747573000000 PUSH1 0x64 DUP3 ADD MSTORE PUSH1 0x84 ADD PUSH2 0xA2E JUMP JUMPDEST PUSH1 0x1 PUSH1 0x1 PUSH1 0xA0 SHL SUB DUP3 AND PUSH1 0x0 DUP2 DUP2 MSTORE PUSH1 0x3D PUSH1 0x20 SWAP1 DUP2 MSTORE PUSH1 0x40 SWAP2 DUP3 SWAP1 KECCAK256 DUP1 SLOAD PUSH3 0xFF0000 NOT AND PUSH3 0x10000 DUP7 ISZERO ISZERO SWAP1 DUP2 MUL SWAP2 SWAP1 SWAP2 OR SWAP1 SWAP2 SSTORE DUP3 MLOAD CALLER DUP2 MSTORE SWAP2 DUP3 ADD SWAP4 SWAP1 SWAP4 MSTORE SWAP1 DUP2 ADD SWAP2 SWAP1 SWAP2 MSTORE PUSH32 0x3C53852FBEA2A3E8D261E1A5412FCD1099CD0AF0FAF615DB2A4CAB4831106256 SWAP1 PUSH1 0x60 ADD JUMPDEST PUSH1 0x40 MLOAD DUP1 SWAP2 SUB SWAP1 LOG1 POP POP JUMP JUMPDEST CALLER PUSH1 0x0 SWAP1 DUP2 MSTORE PUSH1 0x3D PUSH1 0x20 MSTORE PUSH1 0x40 DUP2 KECCAK256 SLOAD PUSH1 0xFF AND PUSH2 0x173C JUMPI PUSH1 0x40 MLOAD PUSH3 0x461BCD PUSH1 0xE5 SHL DUP2 MSTORE PUSH1 0x4 ADD PUSH2 0xA2E SWAP1 PUSH2 0x3EF7 JUMP JUMPDEST PUSH2 0x1744 PUSH2 0x9E0 JUMP JUMPDEST PUSH1 0x0 DUP1 PUSH2 0x17B9 CALLVALUE ADDRESS PUSH1 0x1 PUSH1 0x1 PUSH1 0xA0 SHL SUB AND PUSH4 0xBB6F98FB PUSH1 0x0 PUSH1 0x40 MLOAD DUP3 PUSH4 0xFFFFFFFF AND PUSH1 0xE0 SHL DUP2 MSTORE PUSH1 0x4 ADD PUSH2 0x1778 SWAP2 SWAP1 PUSH2 0x3F6D JUMP JUMPDEST PUSH1 0x20 PUSH1 0x40 MLOAD DUP1 DUP4 SUB DUP2 DUP7 GAS STATICCALL ISZERO DUP1 ISZERO PUSH2 0x1795 JUMPI RETURNDATASIZE PUSH1 0x0 DUP1 RETURNDATACOPY RETURNDATASIZE PUSH1 0x0 REVERT JUMPDEST POP POP POP POP PUSH1 0x40 MLOAD RETURNDATASIZE PUSH1 0x1F NOT PUSH1 0x1F DUP3 ADD AND DUP3 ADD DUP1 PUSH1 0x40 MSTORE POP DUP2 ADD SWAP1 PUSH2 0x746 SWAP2 SWAP1 PUSH2 0x3F7B JUMP JUMPDEST SWAP2 POP SWAP2 POP PUSH2 0x17C7 DUP3 CALLER PUSH2 0x2816 JUMP JUMPDEST PUSH1 0x3C SLOAD PUSH1 0x40 MLOAD PUSH1 0x1 PUSH1 0x1 PUSH1 0xA0 SHL SUB SWAP1 SWAP2 AND SWAP1 CALLVALUE DUP1 ISZERO PUSH2 0x8FC MUL SWAP2 PUSH1 0x0 DUP2 DUP2 DUP2 DUP6 DUP9 DUP9 CALL SWAP4 POP POP POP POP PUSH2 0x186C JUMPI PUSH1 0x40 MLOAD PUSH3 0x461BCD PUSH1 0xE5 SHL DUP2 MSTORE PUSH1 0x20 PUSH1 0x4 DUP3 ADD MSTORE PUSH1 0x42 PUSH1 0x24 DUP3 ADD MSTORE PUSH32 0x54686572652077617320616E206572726F72206F6E2073656E64696E67207468 PUSH1 0x44 DUP3 ADD MSTORE PUSH32 0x65204D4154494320696E766573746D656E7420746F2074686520747265617375 PUSH1 0x64 DUP3 ADD MSTORE PUSH2 0x7279 PUSH1 0xF0 SHL PUSH1 0x84 DUP3 ADD MSTORE PUSH1 0xA4 ADD PUSH2 0xA2E JUMP JUMPDEST PUSH1 0x40 MLOAD PUSH4 0xA9059CBB PUSH1 0xE0 SHL DUP2 MSTORE CALLER PUSH1 0x4 DUP3 ADD MSTORE PUSH1 0x24 DUP2 ADD DUP3 SWAP1 MSTORE ADDRESS SWAP1 PUSH4 0xA9059CBB SWAP1 PUSH1 0x44 ADD PUSH1 0x20 PUSH1 0x40 MLOAD DUP1 DUP4 SUB DUP2 PUSH1 0x0 DUP8 GAS CALL ISZERO DUP1 ISZERO PUSH2 0x18B0 JUMPI RETURNDATASIZE PUSH1 0x0 DUP1 RETURNDATACOPY RETURNDATASIZE PUSH1 0x0 REVERT JUMPDEST POP POP POP POP PUSH1 0x40 MLOAD RETURNDATASIZE PUSH1 0x1F NOT PUSH1 0x1F DUP3 ADD AND DUP3 ADD DUP1 PUSH1 0x40 MSTORE POP DUP2 ADD SWAP1 PUSH2 0x18D4 SWAP2 SWAP1 PUSH2 0x3F94 JUMP JUMPDEST PUSH2 0x18F0 JUMPI PUSH1 0x40 MLOAD PUSH3 0x461BCD PUSH1 0xE5 SHL DUP2 MSTORE PUSH1 0x4 ADD PUSH2 0xA2E SWAP1 PUSH2 0x3FB1 JUMP JUMPDEST CALLER PUSH1 0x0 SWAP1 DUP2 MSTORE PUSH1 0x3D PUSH1 0x20 MSTORE PUSH1 0x40 DUP2 KECCAK256 PUSH1 0x2 ADD DUP1 SLOAD DUP5 SWAP3 SWAP1 PUSH2 0x1912 SWAP1 DUP5 SWAP1 PUSH2 0x3D26 JUMP JUMPDEST SWAP1 SWAP2 SSTORE POP POP CALLER PUSH1 0x0 SWAP1 DUP2 MSTORE PUSH1 0x3D PUSH1 0x20 MSTORE PUSH1 0x40 DUP2 KECCAK256 PUSH1 0x1 ADD DUP1 SLOAD DUP4 SWAP3 SWAP1 PUSH2 0x1939 SWAP1 DUP5 SWAP1 PUSH2 0x3D26 JUMP JUMPDEST SWAP1 SWAP2 SSTORE POP POP PUSH1 0x40 DUP1 MLOAD CALLER DUP2 MSTORE CALLVALUE PUSH1 0x20 DUP3 ADD MSTORE SWAP1 DUP2 ADD DUP4 SWAP1 MSTORE PUSH1 0x60 DUP2 ADD DUP3 SWAP1 MSTORE PUSH32 0xE036CB252631BB3E3FBCB1AA359DD09F94F0DAC1FE6DE828E8BAE3F5028331C5 SWAP1 PUSH1 0x80 ADD PUSH1 0x40 MLOAD DUP1 SWAP2 SUB SWAP1 LOG1 PUSH1 0x1 SWAP3 POP POP POP PUSH2 0x1995 PUSH1 0x1 PUSH1 0x6 SSTORE JUMP JUMPDEST SWAP1 JUMP JUMPDEST PUSH2 0x19A0 PUSH2 0x3517 JUMP JUMPDEST PUSH1 0x1 PUSH1 0x1 PUSH1 0xA0 SHL SUB DUP2 AND PUSH2 0x1A0B JUMPI PUSH1 0x40 MLOAD PUSH3 0x461BCD PUSH1 0xE5 SHL DUP2 MSTORE PUSH1 0x20 PUSH1 0x4 DUP3 ADD MSTORE PUSH1 0x2C PUSH1 0x24 DUP3 ADD MSTORE PUSH32 0x54686520746F6B656E20616464726573732063616E6E6F742062652074686520 PUSH1 0x44 DUP3 ADD MSTORE PUSH12 0x7A65726F2061646472657373 PUSH1 0xA0 SHL PUSH1 0x64 DUP3 ADD MSTORE PUSH1 0x84 ADD PUSH2 0xA2E JUMP JUMPDEST PUSH1 0x1 DUP3 PUSH1 0x4 DUP2 GT ISZERO PUSH2 0x1A1F JUMPI PUSH2 0x1A1F PUSH2 0x3D39 JUMP JUMPDEST SUB PUSH2 0x1B05 JUMPI PUSH1 0x40 SLOAD PUSH1 0x1 PUSH1 0x1 PUSH1 0xA0 SHL SUB SWAP1 DUP2 AND SWAP1 DUP3 AND SUB PUSH2 0x1AA5 JUMPI PUSH1 0x40 MLOAD PUSH3 0x461BCD PUSH1 0xE5 SHL DUP2 MSTORE PUSH1 0x20 PUSH1 0x4 DUP3 ADD MSTORE PUSH1 0x3A PUSH1 0x24 DUP3 ADD MSTORE PUSH32 0x5553444320746F6B656E20616464726573732068617320616C72656164792062 PUSH1 0x44 DUP3 ADD MSTORE PUSH26 0x65656E206D6F64696669656420746F20746861742076616C7565 PUSH1 0x30 SHL PUSH1 0x64 DUP3 ADD MSTORE PUSH1 0x84 ADD PUSH2 0xA2E JUMP JUMPDEST PUSH1 0x40 DUP1 SLOAD PUSH1 0x1 PUSH1 0x1 PUSH1 0xA0 SHL SUB DUP4 AND PUSH1 0x1 PUSH1 0x1 PUSH1 0xA0 SHL SUB NOT SWAP2 DUP3 AND DUP2 OR DUP4 SSTORE PUSH1 0x43 DUP1 SLOAD SWAP1 SWAP3 AND DUP2 OR SWAP1 SWAP2 SSTORE SWAP1 MLOAD SWAP1 DUP2 MSTORE PUSH32 0x8B3F52C1D10699944EBEE74EE29DCA11C9C86BB0DBEDEF4ABD6E737F613D4D3A SWAP1 PUSH1 0x20 ADD PUSH1 0x40 MLOAD DUP1 SWAP2 SUB SWAP1 LOG1 POP POP JUMP JUMPDEST PUSH1 0x2 DUP3 PUSH1 0x4 DUP2 GT ISZERO PUSH2 0x1B19 JUMPI PUSH2 0x1B19 PUSH2 0x3D39 JUMP JUMPDEST SUB PUSH2 0x1BF9 JUMPI PUSH1 0x44 SLOAD PUSH1 0x1 PUSH1 0x1 PUSH1 0xA0 SHL SUB SWAP1 DUP2 AND SWAP1 DUP3 AND SUB PUSH2 0x1B9F JUMPI PUSH1 0x40 MLOAD PUSH3 0x461BCD PUSH1 0xE5 SHL DUP2 MSTORE PUSH1 0x20 PUSH1 0x4 DUP3 ADD MSTORE PUSH1 0x3A PUSH1 0x24 DUP3 ADD MSTORE PUSH32 0x5553445420746F6B656E20616464726573732068617320616C72656164792062 PUSH1 0x44 DUP3 ADD MSTORE PUSH26 0x65656E206D6F64696669656420746F20746861742076616C7565 PUSH1 0x30 SHL PUSH1 0x64 DUP3 ADD MSTORE PUSH1 0x84 ADD PUSH2 0xA2E JUMP JUMPDEST PUSH1 0x44 DUP1 SLOAD PUSH1 0x1 PUSH1 0x1 PUSH1 0xA0 SHL SUB DUP4 AND PUSH1 0x1 PUSH1 0x1 PUSH1 0xA0 SHL SUB NOT SWAP2 DUP3 AND DUP2 OR SWAP1 SWAP3 SSTORE PUSH1 0x47 DUP1 SLOAD SWAP1 SWAP2 AND DUP3 OR SWAP1 SSTORE PUSH1 0x40 MLOAD SWAP1 DUP2 MSTORE PUSH32 0x1C2D8A05BE2C8ECA524D44CC224513D7E19CA97AC309C3E23BEE450F8578CA19 SWAP1 PUSH1 0x20 ADD PUSH2 0x1701 JUMP JUMPDEST PUSH1 0x3 DUP3 PUSH1 0x4 DUP2 GT ISZERO PUSH2 0x1C0D JUMPI PUSH2 0x1C0D PUSH2 0x3D39 JUMP JUMPDEST SUB PUSH2 0x1CED JUMPI PUSH1 0x48 SLOAD PUSH1 0x1 PUSH1 0x1 PUSH1 0xA0 SHL SUB SWAP1 DUP2 AND SWAP1 DUP3 AND SUB PUSH2 0x1C93 JUMPI PUSH1 0x40 MLOAD PUSH3 0x461BCD PUSH1 0xE5 SHL DUP2 MSTORE PUSH1 0x20 PUSH1 0x4 DUP3 ADD MSTORE PUSH1 0x3A PUSH1 0x24 DUP3 ADD MSTORE PUSH32 0x5742544320746F6B656E20616464726573732068617320616C72656164792062 PUSH1 0x44 DUP3 ADD MSTORE PUSH26 0x65656E206D6F64696669656420746F20746861742076616C7565 PUSH1 0x30 SHL PUSH1 0x64 DUP3 ADD MSTORE PUSH1 0x84 ADD PUSH2 0xA2E JUMP JUMPDEST PUSH1 0x48 DUP1 SLOAD PUSH1 0x1 PUSH1 0x1 PUSH1 0xA0 SHL SUB DUP4 AND PUSH1 0x1 PUSH1 0x1 PUSH1 0xA0 SHL SUB NOT SWAP2 DUP3 AND DUP2 OR SWAP1 SWAP3 SSTORE PUSH1 0x4B DUP1 SLOAD SWAP1 SWAP2 AND DUP3 OR SWAP1 SSTORE PUSH1 0x40 MLOAD SWAP1 DUP2 MSTORE PUSH32 0x95082F719648371F180CA4F9BAD55A2AE7C2D029BBF93E360584CA6EA06327EA SWAP1 PUSH1 0x20 ADD PUSH2 0x1701 JUMP JUMPDEST PUSH1 0x4 DUP3 PUSH1 0x4 DUP2 GT ISZERO PUSH2 0x1D01 JUMPI PUSH2 0x1D01 PUSH2 0x3D39 JUMP JUMPDEST SUB PUSH2 0x112C JUMPI PUSH1 0x4C SLOAD PUSH1 0x1 PUSH1 0x1 PUSH1 0xA0 SHL SUB SWAP1 DUP2 AND SWAP1 DUP3 AND SUB PUSH2 0x1D87 JUMPI PUSH1 0x40 MLOAD PUSH3 0x461BCD PUSH1 0xE5 SHL DUP2 MSTORE PUSH1 0x20 PUSH1 0x4 DUP3 ADD MSTORE PUSH1 0x3A PUSH1 0x24 DUP3 ADD MSTORE PUSH32 0x5745544820746F6B656E20616464726573732068617320616C72656164792062 PUSH1 0x44 DUP3 ADD MSTORE PUSH26 0x65656E206D6F64696669656420746F20746861742076616C7565 PUSH1 0x30 SHL PUSH1 0x64 DUP3 ADD MSTORE PUSH1 0x84 ADD PUSH2 0xA2E JUMP JUMPDEST PUSH1 0x4C DUP1 SLOAD PUSH1 0x1 PUSH1 0x1 PUSH1 0xA0 SHL SUB DUP4 AND PUSH1 0x1 PUSH1 0x1 PUSH1 0xA0 SHL SUB NOT SWAP2 DUP3 AND DUP2 OR SWAP1 SWAP3 SSTORE PUSH1 0x4F DUP1 SLOAD SWAP1 SWAP2 AND DUP3 OR SWAP1 SSTORE PUSH1 0x40 MLOAD SWAP1 DUP2 MSTORE PUSH32 0xF5FD160F565AC0E80215E9ECED5AFBFCD47389E99858FAC6A3D93F2EC38FF6D6 SWAP1 PUSH1 0x20 ADD PUSH2 0x1701 JUMP JUMPDEST POP POP JUMP JUMPDEST PUSH2 0x1DED PUSH2 0x3517 JUMP JUMPDEST PUSH2 0x1DF5 PUSH2 0x365D JUMP JUMPDEST JUMP JUMPDEST PUSH1 0x5 SLOAD PUSH2 0x100 SWAP1 DIV PUSH1 0x1 PUSH1 0x1 PUSH1 0xA0 SHL SUB AND PUSH1 0x1 PUSH1 0x1 PUSH1 0xA0 SHL SUB AND CALLER PUSH1 0x1 PUSH1 0x1 PUSH1 0xA0 SHL SUB AND EQ DUP1 PUSH2 0x1E31 JUMPI POP PUSH1 0x3B SLOAD PUSH1 0x1 PUSH1 0x1 PUSH1 0xA0 SHL SUB AND CALLER EQ JUMPDEST PUSH2 0x1E4D JUMPI PUSH1 0x40 MLOAD PUSH3 0x461BCD PUSH1 0xE5 SHL DUP2 MSTORE PUSH1 0x4 ADD PUSH2 0xA2E SWAP1 PUSH2 0x3E9A JUMP JUMPDEST PUSH1 0x1 PUSH1 0x1 PUSH1 0xA0 SHL SUB DUP2 AND PUSH2 0x1ED5 JUMPI PUSH1 0x40 MLOAD PUSH3 0x461BCD PUSH1 0xE5 SHL DUP2 MSTORE PUSH1 0x20 PUSH1 0x4 DUP3 ADD MSTORE PUSH1 0x43 PUSH1 0x24 DUP3 ADD MSTORE PUSH32 0x496E766573746F72206164647265737320746F2061646420746F207468652077 PUSH1 0x44 DUP3 ADD MSTORE PUSH32 0x686974656C6973742063616E6E6F7420626520746865207A65726F2061646472 PUSH1 0x64 DUP3 ADD MSTORE PUSH3 0x657373 PUSH1 0xE8 SHL PUSH1 0x84 DUP3 ADD MSTORE PUSH1 0xA4 ADD PUSH2 0xA2E JUMP JUMPDEST PUSH1 0x1 PUSH1 0x1 PUSH1 0xA0 SHL SUB DUP2 AND PUSH1 0x0 SWAP1 DUP2 MSTORE PUSH1 0x3D PUSH1 0x20 MSTORE PUSH1 0x40 SWAP1 KECCAK256 SLOAD PUSH1 0xFF AND ISZERO PUSH2 0x1F64 JUMPI PUSH1 0x40 MLOAD PUSH3 0x461BCD PUSH1 0xE5 SHL DUP2 MSTORE PUSH1 0x20 PUSH1 0x4 DUP3 ADD MSTORE PUSH1 0x3D PUSH1 0x24 DUP3 ADD MSTORE PUSH32 0x5468617420696E766573746F7220616464726573732068617320616C72656164 PUSH1 0x44 DUP3 ADD MSTORE PUSH32 0x79206265656E20616464656420746F207468652077686974656C697374000000 PUSH1 0x64 DUP3 ADD MSTORE PUSH1 0x84 ADD PUSH2 0xA2E JUMP JUMPDEST PUSH1 0x40 DUP1 MLOAD PUSH1 0xA0 DUP2 ADD DUP3 MSTORE PUSH1 0x0 PUSH1 0x20 DUP1 DUP4 ADD DUP3 DUP2 MSTORE DUP4 DUP6 ADD DUP4 DUP2 MSTORE PUSH1 0x60 DUP6 ADD DUP5 DUP2 MSTORE PUSH1 0x80 DUP7 ADD DUP6 DUP2 MSTORE PUSH1 0x1 DUP1 DUP9 MSTORE PUSH1 0x1 PUSH1 0x1 PUSH1 0xA0 SHL SUB DUP11 AND DUP1 DUP9 MSTORE PUSH1 0x3D DUP8 MSTORE SWAP7 DUP10 SWAP1 KECCAK256 DUP9 MLOAD DUP2 SLOAD SWAP7 MLOAD SWAP6 MLOAD ISZERO ISZERO PUSH3 0x10000 MUL PUSH3 0xFF0000 NOT SWAP7 ISZERO ISZERO PUSH2 0x100 MUL PUSH2 0xFF00 NOT SWAP3 ISZERO ISZERO SWAP3 SWAP1 SWAP3 AND PUSH2 0xFFFF NOT SWAP1 SWAP9 AND SWAP8 SWAP1 SWAP8 OR OR SWAP5 SWAP1 SWAP5 AND SWAP5 SWAP1 SWAP5 OR DUP4 SSTORE SWAP1 MLOAD SWAP3 DUP3 ADD SWAP3 SWAP1 SWAP3 SSTORE SWAP1 MLOAD PUSH1 0x2 SWAP1 SWAP2 ADD SSTORE DUP4 MLOAD CALLER DUP2 MSTORE SWAP1 DUP2 ADD SWAP2 SWAP1 SWAP2 MSTORE SWAP1 SWAP2 PUSH32 0x8419B79DC227F7841E7BF32CEA35C3F90FE5B3DA68CDE93ADEF3C32745C587DE SWAP2 ADD PUSH2 0x1701 JUMP JUMPDEST PUSH2 0x2031 PUSH2 0x3517 JUMP JUMPDEST PUSH1 0x0 DUP2 GT PUSH2 0x20A1 JUMPI PUSH1 0x40 MLOAD PUSH3 0x461BCD PUSH1 0xE5 SHL DUP2 MSTORE PUSH1 0x20 PUSH1 0x4 DUP3 ADD MSTORE PUSH1 0x37 PUSH1 0x24 DUP3 ADD MSTORE PUSH32 0x4E6577206D6178696D756D20616D6F756E7420746F20696E766573742C206D75 PUSH1 0x44 DUP3 ADD MSTORE PUSH23 0x73742062652067726561746572207468616E207A65726F PUSH1 0x48 SHL PUSH1 0x64 DUP3 ADD MSTORE PUSH1 0x84 ADD PUSH2 0xA2E JUMP JUMPDEST PUSH1 0x3A SLOAD DUP2 SUB PUSH2 0x2126 JUMPI PUSH1 0x40 MLOAD PUSH3 0x461BCD PUSH1 0xE5 SHL DUP2 MSTORE PUSH1 0x20 PUSH1 0x4 DUP3 ADD MSTORE PUSH1 0x45 PUSH1 0x24 DUP3 ADD MSTORE PUSH32 0x4E6577206D6178696D756D20616D6F756E7420746F20696E766573742C206861 PUSH1 0x44 DUP3 ADD MSTORE PUSH32 0x7320616C7265616479206265656E206D6F64696669656420746F207468617420 PUSH1 0x64 DUP3 ADD MSTORE PUSH5 0x76616C7565 PUSH1 0xD8 SHL PUSH1 0x84 DUP3 ADD MSTORE PUSH1 0xA4 ADD PUSH2 0xA2E JUMP JUMPDEST PUSH1 0x39 SLOAD DUP2 LT ISZERO PUSH2 0x21B8 JUMPI PUSH1 0x40 MLOAD PUSH3 0x461BCD PUSH1 0xE5 SHL DUP2 MSTORE PUSH1 0x20 PUSH1 0x4 DUP3 ADD MSTORE PUSH1 0x51 PUSH1 0x24 DUP3 ADD MSTORE PUSH32 0x4E6577206D6178696D756D20616D6F756E7420746F20696E766573742C206D75 PUSH1 0x44 DUP3 ADD MSTORE PUSH32 0x73742062652067726561746572207468616E20746865206D696E696D756D2069 PUSH1 0x64 DUP3 ADD MSTORE PUSH17 0x1B9D995CDD1B595B9D08185B1B1BDDD959 PUSH1 0x7A SHL PUSH1 0x84 DUP3 ADD MSTORE PUSH1 0xA4 ADD PUSH2 0xA2E JUMP JUMPDEST PUSH1 0x3A DUP2 SWAP1 SSTORE PUSH1 0x40 MLOAD DUP2 DUP2 MSTORE PUSH32 0x29D434EC19958E7CE86CA2870F5927AB4F948D916DCFFC568C1343C1E1F76566 SWAP1 PUSH1 0x20 ADD JUMPDEST PUSH1 0x40 MLOAD DUP1 SWAP2 SUB SWAP1 LOG1 POP JUMP JUMPDEST PUSH2 0x21FC PUSH2 0x3517 JUMP JUMPDEST PUSH1 0x1 PUSH1 0x1 PUSH1 0xA0 SHL SUB DUP2 AND PUSH2 0x226D JUMPI PUSH1 0x40 MLOAD PUSH3 0x461BCD PUSH1 0xE5 SHL DUP2 MSTORE PUSH1 0x20 PUSH1 0x4 DUP3 ADD MSTORE PUSH1 0x32 PUSH1 0x24 DUP3 ADD MSTORE PUSH32 0x5468652077686974656C697374657220616464726573732063616E6E6F742062 PUSH1 0x44 DUP3 ADD MSTORE PUSH18 0x6520746865207A65726F2061646472657373 PUSH1 0x70 SHL PUSH1 0x64 DUP3 ADD MSTORE PUSH1 0x84 ADD PUSH2 0xA2E JUMP JUMPDEST PUSH1 0x3B SLOAD PUSH1 0x1 PUSH1 0x1 PUSH1 0xA0 SHL SUB SWAP1 DUP2 AND SWAP1 DUP3 AND SUB PUSH2 0x22F1 JUMPI PUSH1 0x40 MLOAD PUSH3 0x461BCD PUSH1 0xE5 SHL DUP2 MSTORE PUSH1 0x20 PUSH1 0x4 DUP3 ADD MSTORE PUSH1 0x3B PUSH1 0x24 DUP3 ADD MSTORE PUSH32 0x57686974656C697374657220616464726573732068617320616C726561647920 PUSH1 0x44 DUP3 ADD MSTORE PUSH32 0x6265656E206D6F64696669656420746F20746861742076616C75650000000000 PUSH1 0x64 DUP3 ADD MSTORE PUSH1 0x84 ADD PUSH2 0xA2E JUMP JUMPDEST PUSH1 0x3B DUP1 SLOAD PUSH1 0x1 PUSH1 0x1 PUSH1 0xA0 SHL SUB NOT AND PUSH1 0x1 PUSH1 0x1 PUSH1 0xA0 SHL SUB DUP4 AND SWAP1 DUP2 OR SWAP1 SWAP2 SSTORE PUSH1 0x40 MLOAD SWAP1 DUP2 MSTORE PUSH32 0x32359536720ADEDFB2B6C6DD7685519F09FDF93CE7824B68D5B2F56354FDEBEC SWAP1 PUSH1 0x20 ADD PUSH2 0x21E9 JUMP JUMPDEST PUSH2 0x2347 PUSH2 0x3517 JUMP JUMPDEST PUSH2 0x1DF5 PUSH1 0x0 PUSH2 0x36AF JUMP JUMPDEST CALLER PUSH1 0x0 SWAP1 DUP2 MSTORE PUSH1 0x3D PUSH1 0x20 MSTORE PUSH1 0x40 DUP2 KECCAK256 SLOAD PUSH1 0xFF AND PUSH2 0x2380 JUMPI PUSH1 0x40 MLOAD PUSH3 0x461BCD PUSH1 0xE5 SHL DUP2 MSTORE PUSH1 0x4 ADD PUSH2 0xA2E SWAP1 PUSH2 0x3EF7 JUMP JUMPDEST PUSH2 0x2388 PUSH2 0x9E0 JUMP JUMPDEST PUSH1 0x0 DUP1 PUSH1 0x1 DUP6 PUSH1 0x4 DUP2 GT ISZERO PUSH2 0x239F JUMPI PUSH2 0x239F PUSH2 0x3D39 JUMP JUMPDEST SUB PUSH2 0x241F JUMPI PUSH1 0x43 SLOAD PUSH1 0x40 MLOAD PUSH4 0xBB6F98FB PUSH1 0xE0 SHL DUP2 MSTORE PUSH1 0x1 PUSH1 0x1 PUSH1 0xA0 SHL SUB SWAP1 SWAP2 AND SWAP3 POP ADDRESS SWAP1 PUSH4 0xBB6F98FB SWAP1 PUSH2 0x23D7 SWAP1 DUP9 SWAP1 PUSH1 0x4 ADD PUSH2 0x3F6D JUMP JUMPDEST PUSH1 0x20 PUSH1 0x40 MLOAD DUP1 DUP4 SUB DUP2 DUP7 GAS STATICCALL ISZERO DUP1 ISZERO PUSH2 0x23F4 JUMPI RETURNDATASIZE PUSH1 0x0 DUP1 RETURNDATACOPY RETURNDATASIZE PUSH1 0x0 REVERT JUMPDEST POP POP POP POP PUSH1 0x40 MLOAD RETURNDATASIZE PUSH1 0x1F NOT PUSH1 0x1F DUP3 ADD AND DUP3 ADD DUP1 PUSH1 0x40 MSTORE POP DUP2 ADD SWAP1 PUSH2 0x2418 SWAP2 SWAP1 PUSH2 0x3F7B JUMP JUMPDEST SWAP1 POP PUSH2 0x2503 JUMP JUMPDEST PUSH1 0x2 DUP6 PUSH1 0x4 DUP2 GT ISZERO PUSH2 0x2433 JUMPI PUSH2 0x2433 PUSH2 0x3D39 JUMP JUMPDEST SUB PUSH2 0x246B JUMPI PUSH1 0x47 SLOAD PUSH1 0x40 MLOAD PUSH4 0xBB6F98FB PUSH1 0xE0 SHL DUP2 MSTORE PUSH1 0x1 PUSH1 0x1 PUSH1 0xA0 SHL SUB SWAP1 SWAP2 AND SWAP3 POP ADDRESS SWAP1 PUSH4 0xBB6F98FB SWAP1 PUSH2 0x23D7 SWAP1 DUP9 SWAP1 PUSH1 0x4 ADD PUSH2 0x3F6D JUMP JUMPDEST PUSH1 0x3 DUP6 PUSH1 0x4 DUP2 GT ISZERO PUSH2 0x247F JUMPI PUSH2 0x247F PUSH2 0x3D39 JUMP JUMPDEST SUB PUSH2 0x24B7 JUMPI PUSH1 0x4B SLOAD PUSH1 0x40 MLOAD PUSH4 0xBB6F98FB PUSH1 0xE0 SHL DUP2 MSTORE PUSH1 0x1 PUSH1 0x1 PUSH1 0xA0 SHL SUB SWAP1 SWAP2 AND SWAP3 POP ADDRESS SWAP1 PUSH4 0xBB6F98FB SWAP1 PUSH2 0x23D7 SWAP1 DUP9 SWAP1 PUSH1 0x4 ADD PUSH2 0x3F6D JUMP JUMPDEST PUSH1 0x4 DUP6 PUSH1 0x4 DUP2 GT ISZERO PUSH2 0x24CB JUMPI PUSH2 0x24CB PUSH2 0x3D39 JUMP JUMPDEST SUB PUSH2 0x112C JUMPI PUSH1 0x4F SLOAD PUSH1 0x40 MLOAD PUSH4 0xBB6F98FB PUSH1 0xE0 SHL DUP2 MSTORE PUSH1 0x1 PUSH1 0x1 PUSH1 0xA0 SHL SUB SWAP1 SWAP2 AND SWAP3 POP ADDRESS SWAP1 PUSH4 0xBB6F98FB SWAP1 PUSH2 0x23D7 SWAP1 DUP9 SWAP1 PUSH1 0x4 ADD PUSH2 0x3F6D JUMP JUMPDEST PUSH1 0x0 DUP1 PUSH2 0x2510 DUP7 DUP5 PUSH2 0x2A44 JUMP JUMPDEST SWAP2 POP SWAP2 POP PUSH2 0x251E DUP3 CALLER PUSH2 0x2816 JUMP JUMPDEST PUSH1 0x40 MLOAD PUSH4 0x23B872DD PUSH1 0xE0 SHL DUP2 MSTORE CALLER PUSH1 0x4 DUP3 ADD MSTORE ADDRESS PUSH1 0x24 DUP3 ADD MSTORE PUSH1 0x44 DUP2 ADD DUP8 SWAP1 MSTORE PUSH1 0x1 PUSH1 0x1 PUSH1 0xA0 SHL SUB DUP6 AND SWAP1 PUSH4 0x23B872DD SWAP1 PUSH1 0x64 ADD PUSH1 0x20 PUSH1 0x40 MLOAD DUP1 DUP4 SUB DUP2 PUSH1 0x0 DUP8 GAS CALL ISZERO DUP1 ISZERO PUSH2 0x2571 JUMPI RETURNDATASIZE PUSH1 0x0 DUP1 RETURNDATACOPY RETURNDATASIZE PUSH1 0x0 REVERT JUMPDEST POP POP POP POP PUSH1 0x40 MLOAD RETURNDATASIZE PUSH1 0x1F NOT PUSH1 0x1F DUP3 ADD AND DUP3 ADD DUP1 PUSH1 0x40 MSTORE POP DUP2 ADD SWAP1 PUSH2 0x2595 SWAP2 SWAP1 PUSH2 0x3F94 JUMP JUMPDEST PUSH2 0x25FE JUMPI PUSH1 0x40 MLOAD PUSH3 0x461BCD PUSH1 0xE5 SHL DUP2 MSTORE PUSH1 0x20 PUSH1 0x4 DUP3 ADD MSTORE PUSH1 0x34 PUSH1 0x24 DUP3 ADD MSTORE PUSH32 0x54686572652077617320616E206572726F72206F6E20726563656976696E6720 PUSH1 0x44 DUP3 ADD MSTORE PUSH20 0x1D1A19481D1BDAD95B881A5B9D995CDD1B595B9D PUSH1 0x62 SHL PUSH1 0x64 DUP3 ADD MSTORE PUSH1 0x84 ADD PUSH2 0xA2E JUMP JUMPDEST PUSH1 0x3C SLOAD PUSH1 0x40 MLOAD PUSH4 0xA9059CBB PUSH1 0xE0 SHL DUP2 MSTORE PUSH1 0x1 PUSH1 0x1 PUSH1 0xA0 SHL SUB SWAP2 DUP3 AND PUSH1 0x4 DUP3 ADD MSTORE PUSH1 0x24 DUP2 ADD DUP9 SWAP1 MSTORE SWAP1 DUP6 AND SWAP1 PUSH4 0xA9059CBB SWAP1 PUSH1 0x44 ADD PUSH1 0x20 PUSH1 0x40 MLOAD DUP1 DUP4 SUB DUP2 PUSH1 0x0 DUP8 GAS CALL ISZERO DUP1 ISZERO PUSH2 0x2651 JUMPI RETURNDATASIZE PUSH1 0x0 DUP1 RETURNDATACOPY RETURNDATASIZE PUSH1 0x0 REVERT JUMPDEST POP POP POP POP PUSH1 0x40 MLOAD RETURNDATASIZE PUSH1 0x1F NOT PUSH1 0x1F DUP3 ADD AND DUP3 ADD DUP1 PUSH1 0x40 MSTORE POP DUP2 ADD SWAP1 PUSH2 0x2675 SWAP2 SWAP1 PUSH2 0x3F94 JUMP JUMPDEST PUSH2 0x26F2 JUMPI PUSH1 0x40 MLOAD PUSH3 0x461BCD PUSH1 0xE5 SHL DUP2 MSTORE PUSH1 0x20 PUSH1 0x4 DUP3 ADD MSTORE PUSH1 0x42 PUSH1 0x24 DUP3 ADD MSTORE PUSH32 0x54686572652077617320616E206572726F72206F6E2073656E64696E67207468 PUSH1 0x44 DUP3 ADD MSTORE PUSH32 0x6520746F6B656E20696E766573746D656E7420746F2074686520747265617375 PUSH1 0x64 DUP3 ADD MSTORE PUSH2 0x7279 PUSH1 0xF0 SHL PUSH1 0x84 DUP3 ADD MSTORE PUSH1 0xA4 ADD PUSH2 0xA2E JUMP JUMPDEST PUSH1 0x40 MLOAD PUSH4 0xA9059CBB PUSH1 0xE0 SHL DUP2 MSTORE CALLER PUSH1 0x4 DUP3 ADD MSTORE PUSH1 0x24 DUP2 ADD DUP3 SWAP1 MSTORE ADDRESS SWAP1 PUSH4 0xA9059CBB SWAP1 PUSH1 0x44 ADD PUSH1 0x20 PUSH1 0x40 MLOAD DUP1 DUP4 SUB DUP2 PUSH1 0x0 DUP8 GAS CALL ISZERO DUP1 ISZERO PUSH2 0x2736 JUMPI RETURNDATASIZE PUSH1 0x0 DUP1 RETURNDATACOPY RETURNDATASIZE PUSH1 0x0 REVERT JUMPDEST POP POP POP POP PUSH1 0x40 MLOAD RETURNDATASIZE PUSH1 0x1F NOT PUSH1 0x1F DUP3 ADD AND DUP3 ADD DUP1 PUSH1 0x40 MSTORE POP DUP2 ADD SWAP1 PUSH2 0x275A SWAP2 SWAP1 PUSH2 0x3F94 JUMP JUMPDEST PUSH2 0x2776 JUMPI PUSH1 0x40 MLOAD PUSH3 0x461BCD PUSH1 0xE5 SHL DUP2 MSTORE PUSH1 0x4 ADD PUSH2 0xA2E SWAP1 PUSH2 0x3FB1 JUMP JUMPDEST CALLER PUSH1 0x0 SWAP1 DUP2 MSTORE PUSH1 0x3D PUSH1 0x20 MSTORE PUSH1 0x40 DUP2 KECCAK256 PUSH1 0x2 ADD DUP1 SLOAD DUP5 SWAP3 SWAP1 PUSH2 0x2798 SWAP1 DUP5 SWAP1 PUSH2 0x3D26 JUMP JUMPDEST SWAP1 SWAP2 SSTORE POP POP CALLER PUSH1 0x0 SWAP1 DUP2 MSTORE PUSH1 0x3D PUSH1 0x20 MSTORE PUSH1 0x40 DUP2 KECCAK256 PUSH1 0x1 ADD DUP1 SLOAD DUP4 SWAP3 SWAP1 PUSH2 0x27BF SWAP1 DUP5 SWAP1 PUSH2 0x3D26 JUMP JUMPDEST SWAP1 SWAP2 SSTORE POP POP PUSH1 0x40 MLOAD PUSH32 0x3B60324B6DB90922773BDE8799E6D3B7D574474A0FB52A6D340BD2EE92B5EDBC SWAP1 PUSH2 0x27FC SWAP1 DUP10 SWAP1 CALLER SWAP1 DUP11 SWAP1 DUP8 SWAP1 DUP8 SWAP1 PUSH2 0x4018 JUMP JUMPDEST PUSH1 0x40 MLOAD DUP1 SWAP2 SUB SWAP1 LOG1 PUSH1 0x1 SWAP5 POP POP POP POP POP PUSH2 0xAE4 PUSH1 0x1 PUSH1 0x6 SSTORE JUMP JUMPDEST PUSH1 0x1 PUSH1 0x1 PUSH1 0xA0 SHL SUB DUP2 AND PUSH1 0x0 SWAP1 DUP2 MSTORE PUSH1 0x3D PUSH1 0x20 MSTORE PUSH1 0x40 DUP2 KECCAK256 PUSH1 0x2 ADD SLOAD PUSH2 0x283C SWAP1 DUP5 PUSH2 0x3D26 JUMP JUMPDEST SWAP1 POP PUSH1 0x3A SLOAD DUP2 GT ISZERO PUSH2 0x28E7 JUMPI PUSH1 0x1 PUSH1 0x1 PUSH1 0xA0 SHL SUB DUP3 AND PUSH1 0x0 SWAP1 DUP2 MSTORE PUSH1 0x3D PUSH1 0x20 MSTORE PUSH1 0x40 SWAP1 KECCAK256 SLOAD PUSH3 0x10000 SWAP1 DIV PUSH1 0xFF AND PUSH2 0x28E7 JUMPI PUSH1 0x40 MLOAD PUSH3 0x461BCD PUSH1 0xE5 SHL DUP2 MSTORE PUSH1 0x20 PUSH1 0x4 DUP3 ADD MSTORE PUSH1 0x42 PUSH1 0x24 DUP3 ADD MSTORE PUSH32 0x546F20627579207468617420616D6F756E74206F662048594158206974732072 PUSH1 0x44 DUP3 ADD MSTORE PUSH32 0x6571756972656420746F2062652061207175616C696669656420696E76657374 PUSH1 0x64 DUP3 ADD MSTORE PUSH2 0x37B9 PUSH1 0xF1 SHL PUSH1 0x84 DUP3 ADD MSTORE PUSH1 0xA4 ADD PUSH2 0xA2E JUMP JUMPDEST POP POP POP JUMP JUMPDEST PUSH2 0x28F4 PUSH2 0x3517 JUMP JUMPDEST PUSH1 0x1 PUSH1 0x1 PUSH1 0xA0 SHL SUB DUP2 AND PUSH2 0x2962 JUMPI PUSH1 0x40 MLOAD PUSH3 0x461BCD PUSH1 0xE5 SHL DUP2 MSTORE PUSH1 0x20 PUSH1 0x4 DUP3 ADD MSTORE PUSH1 0x2F PUSH1 0x24 DUP3 ADD MSTORE PUSH32 0x54686520747265617375727920616464726573732063616E6E6F742062652074 PUSH1 0x44 DUP3 ADD MSTORE PUSH15 0x6865207A65726F2061646472657373 PUSH1 0x88 SHL PUSH1 0x64 DUP3 ADD MSTORE PUSH1 0x84 ADD PUSH2 0xA2E JUMP JUMPDEST PUSH1 0x3C SLOAD PUSH1 0x1 PUSH1 0x1 PUSH1 0xA0 SHL SUB SWAP1 DUP2 AND SWAP1 DUP3 AND SUB PUSH2 0x29E6 JUMPI PUSH1 0x40 MLOAD PUSH3 0x461BCD PUSH1 0xE5 SHL DUP2 MSTORE PUSH1 0x20 PUSH1 0x4 DUP3 ADD MSTORE PUSH1 0x38 PUSH1 0x24 DUP3 ADD MSTORE PUSH32 0x547265617375727920616464726573732068617320616C726561647920626565 PUSH1 0x44 DUP3 ADD MSTORE PUSH32 0x6E206D6F64696669656420746F20746861742076616C75650000000000000000 PUSH1 0x64 DUP3 ADD MSTORE PUSH1 0x84 ADD PUSH2 0xA2E JUMP JUMPDEST PUSH1 0x3C DUP1 SLOAD PUSH1 0x1 PUSH1 0x1 PUSH1 0xA0 SHL SUB NOT AND PUSH1 0x1 PUSH1 0x1 PUSH1 0xA0 SHL SUB DUP4 AND SWAP1 DUP2 OR SWAP1 SWAP2 SSTORE PUSH1 0x40 MLOAD SWAP1 DUP2 MSTORE PUSH32 0x2E1E696CFB265FA16E1170D24EF04CB2262772BDE00ECF34D80BAE6722487B7F SWAP1 PUSH1 0x20 ADD PUSH2 0x21E9 JUMP JUMPDEST PUSH2 0x2A3C PUSH2 0x3517 JUMP JUMPDEST PUSH2 0x1DF5 PUSH2 0x3709 JUMP JUMPDEST PUSH1 0x0 DUP1 PUSH4 0x5F5E100 PUSH2 0x2A56 DUP5 DUP7 PUSH2 0x3D0F JUMP JUMPDEST PUSH2 0x2A60 SWAP2 SWAP1 PUSH2 0x4052 JUMP JUMPDEST PUSH1 0x38 SLOAD SWAP1 SWAP3 POP PUSH2 0x2A74 DUP4 PUSH4 0x5F5E100 PUSH2 0x3D0F JUMP JUMPDEST PUSH2 0x2A7E SWAP2 SWAP1 PUSH2 0x4052 JUMP JUMPDEST SWAP1 POP PUSH1 0x39 SLOAD DUP3 LT ISZERO PUSH2 0x2B02 JUMPI PUSH1 0x40 MLOAD PUSH3 0x461BCD PUSH1 0xE5 SHL DUP2 MSTORE PUSH1 0x20 PUSH1 0x4 DUP3 ADD MSTORE PUSH1 0x41 PUSH1 0x24 DUP3 ADD MSTORE PUSH32 0x54686520616D6F756E7420746F20696E76657374206D75737420626520677265 PUSH1 0x44 DUP3 ADD MSTORE PUSH32 0x61746572207468616E20746865206D696E696D756D2065737461626C69736865 PUSH1 0x64 DUP3 ADD MSTORE PUSH1 0x19 PUSH1 0xFA SHL PUSH1 0x84 DUP3 ADD MSTORE PUSH1 0xA4 ADD PUSH2 0xA2E JUMP JUMPDEST ADDRESS PUSH1 0x0 SWAP1 DUP2 MSTORE PUSH1 0x20 DUP2 SWAP1 MSTORE PUSH1 0x40 SWAP1 KECCAK256 SLOAD DUP2 GT ISZERO PUSH2 0x2B98 JUMPI PUSH1 0x40 MLOAD PUSH3 0x461BCD PUSH1 0xE5 SHL DUP2 MSTORE PUSH1 0x20 PUSH1 0x4 DUP3 ADD MSTORE PUSH1 0x48 PUSH1 0x24 DUP3 ADD MSTORE PUSH32 0x54686520696E766573746D656E74206D6164652072657475726E7320616E2061 PUSH1 0x44 DUP3 ADD MSTORE PUSH32 0x6D6F756E74206F6620485941582067726561746572207468616E207468652061 PUSH1 0x64 DUP3 ADD MSTORE PUSH8 0x7661696C61626C65 PUSH1 0xC0 SHL PUSH1 0x84 DUP3 ADD MSTORE PUSH1 0xA4 ADD PUSH2 0xA2E JUMP JUMPDEST SWAP3 POP SWAP3 SWAP1 POP JUMP JUMPDEST PUSH1 0x60 PUSH1 0x4 DUP1 SLOAD PUSH2 0xA4D SWAP1 PUSH2 0x3BD2 JUMP JUMPDEST PUSH1 0x0 CALLER PUSH2 0xADE DUP2 DUP6 DUP6 PUSH2 0x35FE JUMP JUMPDEST PUSH2 0x2BC4 PUSH2 0x3517 JUMP JUMPDEST PUSH1 0x0 DUP2 GT PUSH2 0x2C34 JUMPI PUSH1 0x40 MLOAD PUSH3 0x461BCD PUSH1 0xE5 SHL DUP2 MSTORE PUSH1 0x20 PUSH1 0x4 DUP3 ADD MSTORE PUSH1 0x37 PUSH1 0x24 DUP3 ADD MSTORE PUSH32 0x4E6577206D696E696D756E20616D6F756E7420746F20696E766573742C206D75 PUSH1 0x44 DUP3 ADD MSTORE PUSH23 0x73742062652067726561746572207468616E207A65726F PUSH1 0x48 SHL PUSH1 0x64 DUP3 ADD MSTORE PUSH1 0x84 ADD PUSH2 0xA2E JUMP JUMPDEST PUSH1 0x39 SLOAD DUP2 SUB PUSH2 0x2CBD JUMPI PUSH1 0x40 MLOAD PUSH3 0x461BCD PUSH1 0xE5 SHL DUP2 MSTORE PUSH1 0x20 PUSH1 0x4 DUP3 ADD MSTORE PUSH1 0x49 PUSH1 0x24 DUP3 ADD MSTORE PUSH32 0x4D696E696D756D20696E766573746D656E7420616C6C6F77656420696E205553 PUSH1 0x44 DUP3 ADD MSTORE PUSH32 0x442068617320616C7265616479206265656E206D6F64696669656420746F2074 PUSH1 0x64 DUP3 ADD MSTORE PUSH9 0x6861742076616C7565 PUSH1 0xB8 SHL PUSH1 0x84 DUP3 ADD MSTORE PUSH1 0xA4 ADD PUSH2 0xA2E JUMP JUMPDEST PUSH1 0x3A SLOAD DUP2 GT ISZERO PUSH2 0x2D4C JUMPI PUSH1 0x40 MLOAD PUSH3 0x461BCD PUSH1 0xE5 SHL DUP2 MSTORE PUSH1 0x20 PUSH1 0x4 DUP3 ADD MSTORE PUSH1 0x4E PUSH1 0x24 DUP3 ADD MSTORE PUSH32 0x4E6577206D696E696D756E20616D6F756E7420746F20696E766573742C206D75 PUSH1 0x44 DUP3 ADD MSTORE PUSH32 0x7374206265206C657373207468616E20746865206D6178696D756D20696E7665 PUSH1 0x64 DUP3 ADD MSTORE PUSH14 0x1CDD1B595B9D08185B1B1BDDD959 PUSH1 0x92 SHL PUSH1 0x84 DUP3 ADD MSTORE PUSH1 0xA4 ADD PUSH2 0xA2E JUMP JUMPDEST PUSH1 0x39 DUP2 SWAP1 SSTORE PUSH1 0x40 MLOAD DUP2 DUP2 MSTORE PUSH32 0xEE60EB8E40A2EC796BFE3CA896B9221AF9764FC0987BF0508CA755266D9C85F8 SWAP1 PUSH1 0x20 ADD PUSH2 0x21E9 JUMP JUMPDEST PUSH2 0x2D89 PUSH2 0x3517 JUMP JUMPDEST PUSH1 0x38 SLOAD DUP2 SUB PUSH2 0x2DF5 JUMPI PUSH1 0x40 MLOAD PUSH3 0x461BCD PUSH1 0xE5 SHL DUP2 MSTORE PUSH1 0x20 PUSH1 0x4 DUP3 ADD MSTORE PUSH1 0x32 PUSH1 0x24 DUP3 ADD MSTORE PUSH32 0x485941582070726963652068617320616C7265616479206265656E206D6F6469 PUSH1 0x44 DUP3 ADD MSTORE PUSH18 0x6669656420746F20746861742076616C7565 PUSH1 0x70 SHL PUSH1 0x64 DUP3 ADD MSTORE PUSH1 0x84 ADD PUSH2 0xA2E JUMP JUMPDEST PUSH3 0x7A120 DUP2 LT ISZERO PUSH2 0x2E85 JUMPI PUSH1 0x40 MLOAD PUSH3 0x461BCD PUSH1 0xE5 SHL DUP2 MSTORE PUSH1 0x20 PUSH1 0x4 DUP3 ADD MSTORE PUSH1 0x4E PUSH1 0x24 DUP3 ADD MSTORE PUSH32 0x5072696365206F66204859415820746F6B656E206D757374206265206174206C PUSH1 0x44 DUP3 ADD MSTORE PUSH32 0x656173742055534420302E3030352C2074686174206973203530303030302077 PUSH1 0x64 DUP3 ADD MSTORE PUSH14 0x697468203820646563696D616C73 PUSH1 0x90 SHL PUSH1 0x84 DUP3 ADD MSTORE PUSH1 0xA4 ADD PUSH2 0xA2E JUMP JUMPDEST PUSH5 0x174876E800 DUP2 GT ISZERO PUSH2 0x2F1E JUMPI PUSH1 0x40 MLOAD PUSH3 0x461BCD PUSH1 0xE5 SHL DUP2 MSTORE PUSH1 0x20 PUSH1 0x4 DUP3 ADD MSTORE PUSH1 0x55 PUSH1 0x24 DUP3 ADD MSTORE PUSH32 0x5072696365206F66204859415820746F6B656E206D757374206265206174206D PUSH1 0x44 DUP3 ADD MSTORE PUSH32 0x6178696D756D2055534420313030302C20746861742069732031303030303030 PUSH1 0x64 DUP3 ADD MSTORE PUSH21 0x30303030302077697468203820646563696D616C73 PUSH1 0x58 SHL PUSH1 0x84 DUP3 ADD MSTORE PUSH1 0xA4 ADD PUSH2 0xA2E JUMP JUMPDEST PUSH1 0x38 DUP2 SWAP1 SSTORE PUSH1 0x40 MLOAD DUP2 DUP2 MSTORE PUSH32 0x4F6F7BBBB2B0DDE2246EE6650672D1B55A5BE5B52F8DD2E8D595F4BD47E1C913 SWAP1 PUSH1 0x20 ADD PUSH2 0x21E9 JUMP JUMPDEST PUSH1 0x5 SLOAD PUSH2 0x100 SWAP1 DIV PUSH1 0x1 PUSH1 0x1 PUSH1 0xA0 SHL SUB AND PUSH1 0x1 PUSH1 0x1 PUSH1 0xA0 SHL SUB AND CALLER PUSH1 0x1 PUSH1 0x1 PUSH1 0xA0 SHL SUB AND EQ DUP1 PUSH2 0x2F8D JUMPI POP PUSH1 0x3B SLOAD PUSH1 0x1 PUSH1 0x1 PUSH1 0xA0 SHL SUB AND CALLER EQ JUMPDEST PUSH2 0x2FA9 JUMPI PUSH1 0x40 MLOAD PUSH3 0x461BCD PUSH1 0xE5 SHL DUP2 MSTORE PUSH1 0x4 ADD PUSH2 0xA2E SWAP1 PUSH2 0x3E9A JUMP JUMPDEST PUSH1 0x1 PUSH1 0x1 PUSH1 0xA0 SHL SUB DUP3 AND PUSH2 0x3034 JUMPI PUSH1 0x40 MLOAD PUSH3 0x461BCD PUSH1 0xE5 SHL DUP2 MSTORE PUSH1 0x20 PUSH1 0x4 DUP3 ADD MSTORE PUSH1 0x46 PUSH1 0x24 DUP3 ADD MSTORE PUSH32 0x496E766573746F72206164647265737320746F2075706461746520626C61636B PUSH1 0x44 DUP3 ADD MSTORE PUSH32 0x6C697374207374617475732063616E6E6F7420626520746865207A65726F2061 PUSH1 0x64 DUP3 ADD MSTORE PUSH6 0x646472657373 PUSH1 0xD0 SHL PUSH1 0x84 DUP3 ADD MSTORE PUSH1 0xA4 ADD PUSH2 0xA2E JUMP JUMPDEST PUSH1 0x1 PUSH1 0x1 PUSH1 0xA0 SHL SUB DUP3 AND PUSH1 0x0 SWAP1 DUP2 MSTORE PUSH1 0x3D PUSH1 0x20 MSTORE PUSH1 0x40 SWAP1 KECCAK256 SLOAD DUP2 ISZERO ISZERO PUSH2 0x100 SWAP1 SWAP2 DIV PUSH1 0xFF AND ISZERO ISZERO SUB PUSH2 0x3078 JUMPI PUSH1 0x40 MLOAD PUSH3 0x461BCD PUSH1 0xE5 SHL DUP2 MSTORE PUSH1 0x4 ADD PUSH2 0xA2E SWAP1 PUSH2 0x4074 JUMP JUMPDEST PUSH1 0x1 PUSH1 0x1 PUSH1 0xA0 SHL SUB DUP3 AND PUSH1 0x0 DUP2 DUP2 MSTORE PUSH1 0x3D PUSH1 0x20 SWAP1 DUP2 MSTORE PUSH1 0x40 SWAP2 DUP3 SWAP1 KECCAK256 DUP1 SLOAD PUSH2 0xFF00 NOT AND PUSH2 0x100 DUP7 ISZERO ISZERO SWAP1 DUP2 MUL SWAP2 SWAP1 SWAP2 OR SWAP1 SWAP2 SSTORE DUP3 MLOAD CALLER DUP2 MSTORE SWAP2 DUP3 ADD SWAP4 SWAP1 SWAP4 MSTORE SWAP1 DUP2 ADD SWAP2 SWAP1 SWAP2 MSTORE PUSH32 0x89A9C56967D4535D54C90BFFD7CBD09F6D2A4C8E26B9E7F033F199D144E12B4E SWAP1 PUSH1 0x60 ADD PUSH2 0x1701 JUMP JUMPDEST PUSH1 0x0 DUP1 DUP1 DUP4 PUSH1 0x4 DUP2 GT ISZERO PUSH2 0x30FE JUMPI PUSH2 0x30FE PUSH2 0x3D39 JUMP JUMPDEST SUB PUSH2 0x3115 JUMPI POP PUSH1 0x3F SLOAD PUSH1 0x1 PUSH1 0x1 PUSH1 0xA0 SHL SUB AND PUSH2 0x31BD JUMP JUMPDEST PUSH1 0x1 DUP4 PUSH1 0x4 DUP2 GT ISZERO PUSH2 0x3129 JUMPI PUSH2 0x3129 PUSH2 0x3D39 JUMP JUMPDEST SUB PUSH2 0x3140 JUMPI POP PUSH1 0x42 SLOAD PUSH1 0x1 PUSH1 0x1 PUSH1 0xA0 SHL SUB AND PUSH2 0x31BD JUMP JUMPDEST PUSH1 0x2 DUP4 PUSH1 0x4 DUP2 GT ISZERO PUSH2 0x3154 JUMPI PUSH2 0x3154 PUSH2 0x3D39 JUMP JUMPDEST SUB PUSH2 0x316B JUMPI POP PUSH1 0x46 SLOAD PUSH1 0x1 PUSH1 0x1 PUSH1 0xA0 SHL SUB AND PUSH2 0x31BD JUMP JUMPDEST PUSH1 0x3 DUP4 PUSH1 0x4 DUP2 GT ISZERO PUSH2 0x317F JUMPI PUSH2 0x317F PUSH2 0x3D39 JUMP JUMPDEST SUB PUSH2 0x3196 JUMPI POP PUSH1 0x4A SLOAD PUSH1 0x1 PUSH1 0x1 PUSH1 0xA0 SHL SUB AND PUSH2 0x31BD JUMP JUMPDEST PUSH1 0x4 DUP4 PUSH1 0x4 DUP2 GT ISZERO PUSH2 0x31AA JUMPI PUSH2 0x31AA PUSH2 0x3D39 JUMP JUMPDEST SUB PUSH2 0x112C JUMPI POP PUSH1 0x4E SLOAD PUSH1 0x1 PUSH1 0x1 PUSH1 0xA0 SHL SUB AND JUMPDEST DUP1 PUSH1 0x1 PUSH1 0x1 PUSH1 0xA0 SHL SUB AND PUSH4 0xFEAF968C PUSH1 0x40 MLOAD DUP2 PUSH4 0xFFFFFFFF AND PUSH1 0xE0 SHL DUP2 MSTORE PUSH1 0x4 ADD PUSH1 0xA0 PUSH1 0x40 MLOAD DUP1 DUP4 SUB DUP2 DUP7 GAS STATICCALL SWAP3 POP POP POP DUP1 ISZERO PUSH2 0x3217 JUMPI POP PUSH1 0x40 DUP1 MLOAD PUSH1 0x1F RETURNDATASIZE SWAP1 DUP2 ADD PUSH1 0x1F NOT AND DUP3 ADD SWAP1 SWAP3 MSTORE PUSH2 0x3214 SWAP2 DUP2 ADD SWAP1 PUSH2 0x40EB JUMP JUMPDEST PUSH1 0x1 JUMPDEST PUSH2 0x3282 JUMPI PUSH1 0x40 MLOAD PUSH3 0x461BCD PUSH1 0xE5 SHL DUP2 MSTORE PUSH1 0x20 PUSH1 0x4 DUP3 ADD MSTORE PUSH1 0x36 PUSH1 0x24 DUP3 ADD MSTORE PUSH32 0x54686572652077617320616E206572726F72206F627461696E696E6720746865 PUSH1 0x44 DUP3 ADD MSTORE PUSH22 0x2070726963652066726F6D20746865206F7261636C65 PUSH1 0x50 SHL PUSH1 0x64 DUP3 ADD MSTORE PUSH1 0x84 ADD PUSH2 0xA2E JUMP JUMPDEST POP SWAP2 SWAP7 SWAP6 POP POP POP POP POP POP JUMP JUMPDEST POP SWAP2 SWAP1 POP JUMP JUMPDEST PUSH1 0x5 SLOAD PUSH2 0x100 SWAP1 DIV PUSH1 0x1 PUSH1 0x1 PUSH1 0xA0 SHL SUB AND PUSH1 0x1 PUSH1 0x1 PUSH1 0xA0 SHL SUB AND CALLER PUSH1 0x1 PUSH1 0x1 PUSH1 0xA0 SHL SUB AND EQ DUP1 PUSH2 0x32CE JUMPI POP PUSH1 0x3B SLOAD PUSH1 0x1 PUSH1 0x1 PUSH1 0xA0 SHL SUB AND CALLER EQ JUMPDEST PUSH2 0x32EA JUMPI PUSH1 0x40 MLOAD PUSH3 0x461BCD PUSH1 0xE5 SHL DUP2 MSTORE PUSH1 0x4 ADD PUSH2 0xA2E SWAP1 PUSH2 0x3E9A JUMP JUMPDEST PUSH1 0x1 PUSH1 0x1 PUSH1 0xA0 SHL SUB DUP3 AND PUSH2 0x3375 JUMPI PUSH1 0x40 MLOAD PUSH3 0x461BCD PUSH1 0xE5 SHL DUP2 MSTORE PUSH1 0x20 PUSH1 0x4 DUP3 ADD MSTORE PUSH1 0x46 PUSH1 0x24 DUP3 ADD MSTORE PUSH32 0x496E766573746F72206164647265737320746F20757064617465207768697465 PUSH1 0x44 DUP3 ADD MSTORE PUSH32 0x6C697374207374617475732063616E6E6F7420626520746865207A65726F2061 PUSH1 0x64 DUP3 ADD MSTORE PUSH6 0x646472657373 PUSH1 0xD0 SHL PUSH1 0x84 DUP3 ADD MSTORE PUSH1 0xA4 ADD PUSH2 0xA2E JUMP JUMPDEST PUSH1 0x1 PUSH1 0x1 PUSH1 0xA0 SHL SUB DUP3 AND PUSH1 0x0 SWAP1 DUP2 MSTORE PUSH1 0x3D PUSH1 0x20 MSTORE PUSH1 0x40 SWAP1 KECCAK256 SLOAD DUP2 ISZERO ISZERO PUSH1 0xFF SWAP1 SWAP2 AND ISZERO ISZERO SUB PUSH2 0x33B5 JUMPI PUSH1 0x40 MLOAD PUSH3 0x461BCD PUSH1 0xE5 SHL DUP2 MSTORE PUSH1 0x4 ADD PUSH2 0xA2E SWAP1 PUSH2 0x4074 JUMP JUMPDEST PUSH1 0x1 PUSH1 0x1 PUSH1 0xA0 SHL SUB DUP3 AND PUSH1 0x0 DUP2 DUP2 MSTORE PUSH1 0x3D PUSH1 0x20 SWAP1 DUP2 MSTORE PUSH1 0x40 SWAP2 DUP3 SWAP1 KECCAK256 DUP1 SLOAD PUSH1 0xFF NOT AND DUP6 ISZERO ISZERO SWAP1 DUP2 OR SWAP1 SWAP2 SSTORE DUP3 MLOAD CALLER DUP2 MSTORE SWAP2 DUP3 ADD SWAP4 SWAP1 SWAP4 MSTORE SWAP1 DUP2 ADD SWAP2 SWAP1 SWAP2 MSTORE PUSH32 0x70BBEE4E66E3FD40F7DA099410CFD723ED4A0B4FEC11F6CC968E850DB827A88B SWAP1 PUSH1 0x60 ADD PUSH2 0x1701 JUMP JUMPDEST PUSH2 0x3425 PUSH2 0x3517 JUMP JUMPDEST PUSH1 0x1 PUSH1 0x1 PUSH1 0xA0 SHL SUB DUP2 AND PUSH2 0x348A JUMPI PUSH1 0x40 MLOAD PUSH3 0x461BCD PUSH1 0xE5 SHL DUP2 MSTORE PUSH1 0x20 PUSH1 0x4 DUP3 ADD MSTORE PUSH1 0x26 PUSH1 0x24 DUP3 ADD MSTORE PUSH32 0x4F776E61626C653A206E6577206F776E657220697320746865207A65726F2061 PUSH1 0x44 DUP3 ADD MSTORE PUSH6 0x646472657373 PUSH1 0xD0 SHL PUSH1 0x64 DUP3 ADD MSTORE PUSH1 0x84 ADD PUSH2 0xA2E JUMP JUMPDEST ADDRESS PUSH1 0x1 PUSH1 0x1 PUSH1 0xA0 SHL SUB DUP3 AND SUB PUSH2 0x3501 JUMPI PUSH1 0x40 MLOAD PUSH3 0x461BCD PUSH1 0xE5 SHL DUP2 MSTORE PUSH1 0x20 PUSH1 0x4 DUP3 ADD MSTORE PUSH1 0x36 PUSH1 0x24 DUP3 ADD MSTORE PUSH32 0x4F776E61626C653A206E6577206F776E65722063616E6E6F7420626520746865 PUSH1 0x44 DUP3 ADD MSTORE PUSH22 0x2073616D6520636F6E74726163742061646472657373 PUSH1 0x50 SHL PUSH1 0x64 DUP3 ADD MSTORE PUSH1 0x84 ADD PUSH2 0xA2E JUMP JUMPDEST PUSH2 0xD0B DUP2 PUSH2 0x36AF JUMP JUMPDEST PUSH2 0x28E7 DUP4 DUP4 DUP4 PUSH1 0x1 PUSH2 0x3746 JUMP JUMPDEST PUSH1 0x5 SLOAD PUSH1 0x1 PUSH1 0x1 PUSH1 0xA0 SHL SUB PUSH2 0x100 SWAP1 SWAP2 DIV AND CALLER EQ PUSH2 0x1DF5 JUMPI PUSH1 0x40 MLOAD PUSH4 0x118CDAA7 PUSH1 0xE0 SHL DUP2 MSTORE CALLER PUSH1 0x4 DUP3 ADD MSTORE PUSH1 0x24 ADD PUSH2 0xA2E JUMP JUMPDEST PUSH1 0x1 PUSH1 0x1 PUSH1 0xA0 SHL SUB DUP3 AND PUSH2 0x3574 JUMPI PUSH1 0x40 MLOAD PUSH4 0xEC442F05 PUSH1 0xE0 SHL DUP2 MSTORE PUSH1 0x0 PUSH1 0x4 DUP3 ADD MSTORE PUSH1 0x24 ADD PUSH2 0xA2E JUMP JUMPDEST PUSH2 0x1DE1 PUSH1 0x0 DUP4 DUP4 PUSH2 0x381B JUMP JUMPDEST PUSH1 0x1 PUSH1 0x1 PUSH1 0xA0 SHL SUB DUP4 DUP2 AND PUSH1 0x0 SWAP1 DUP2 MSTORE PUSH1 0x1 PUSH1 0x20 SWAP1 DUP2 MSTORE PUSH1 0x40 DUP1 DUP4 KECCAK256 SWAP4 DUP7 AND DUP4 MSTORE SWAP3 SWAP1 MSTORE KECCAK256 SLOAD PUSH1 0x0 NOT DUP2 EQ PUSH2 0x35F8 JUMPI DUP2 DUP2 LT ISZERO PUSH2 0x35E9 JUMPI PUSH1 0x40 MLOAD PUSH4 0x7DC7A0D9 PUSH1 0xE1 SHL DUP2 MSTORE PUSH1 0x1 PUSH1 0x1 PUSH1 0xA0 SHL SUB DUP5 AND PUSH1 0x4 DUP3 ADD MSTORE PUSH1 0x24 DUP2 ADD DUP3 SWAP1 MSTORE PUSH1 0x44 DUP2 ADD DUP4 SWAP1 MSTORE PUSH1 0x64 ADD PUSH2 0xA2E JUMP JUMPDEST PUSH2 0x35F8 DUP5 DUP5 DUP5 DUP5 SUB PUSH1 0x0 PUSH2 0x3746 JUMP JUMPDEST POP POP POP POP JUMP JUMPDEST PUSH1 0x1 PUSH1 0x1 PUSH1 0xA0 SHL SUB DUP4 AND PUSH2 0x3628 JUMPI PUSH1 0x40 MLOAD PUSH4 0x4B637E8F PUSH1 0xE1 SHL DUP2 MSTORE PUSH1 0x0 PUSH1 0x4 DUP3 ADD MSTORE PUSH1 0x24 ADD PUSH2 0xA2E JUMP JUMPDEST PUSH1 0x1 PUSH1 0x1 PUSH1 0xA0 SHL SUB DUP3 AND PUSH2 0x3652 JUMPI PUSH1 0x40 MLOAD PUSH4 0xEC442F05 PUSH1 0xE0 SHL DUP2 MSTORE PUSH1 0x0 PUSH1 0x4 DUP3 ADD MSTORE PUSH1 0x24 ADD PUSH2 0xA2E JUMP JUMPDEST PUSH2 0x28E7 DUP4 DUP4 DUP4 PUSH2 0x381B JUMP JUMPDEST PUSH2 0x3665 PUSH2 0x382E JUMP JUMPDEST PUSH1 0x5 DUP1 SLOAD PUSH1 0xFF NOT AND SWAP1 SSTORE PUSH32 0x5DB9EE0A495BF2E6FF9C91A7834C1BA4FDD244A5E8AA4E537BD38AEAE4B073AA CALLER JUMPDEST PUSH1 0x40 MLOAD PUSH1 0x1 PUSH1 0x1 PUSH1 0xA0 SHL SUB SWAP1 SWAP2 AND DUP2 MSTORE PUSH1 0x20 ADD PUSH1 0x40 MLOAD DUP1 SWAP2 SUB SWAP1 LOG1 JUMP JUMPDEST PUSH1 0x5 DUP1 SLOAD PUSH1 0x1 PUSH1 0x1 PUSH1 0xA0 SHL SUB DUP4 DUP2 AND PUSH2 0x100 DUP2 DUP2 MUL PUSH2 0x100 PUSH1 0x1 PUSH1 0xA8 SHL SUB NOT DUP6 AND OR SWAP1 SWAP5 SSTORE PUSH1 0x40 MLOAD SWAP4 SWAP1 SWAP3 DIV AND SWAP2 DUP3 SWAP1 PUSH32 0x8BE0079C531659141344CD1FD0A4F28419497F9722A3DAAFE3B4186F6B6457E0 SWAP1 PUSH1 0x0 SWAP1 LOG3 POP POP JUMP JUMPDEST PUSH2 0x3711 PUSH2 0x3851 JUMP JUMPDEST PUSH1 0x5 DUP1 SLOAD PUSH1 0xFF NOT AND PUSH1 0x1 OR SWAP1 SSTORE PUSH32 0x62E78CEA01BEE320CD4E420270B5EA74000D11B0C9F74754EBDBFC544B05A258 PUSH2 0x3692 CALLER SWAP1 JUMP JUMPDEST PUSH1 0x1 PUSH1 0x1 PUSH1 0xA0 SHL SUB DUP5 AND PUSH2 0x3770 JUMPI PUSH1 0x40 MLOAD PUSH4 0xE602DF05 PUSH1 0xE0 SHL DUP2 MSTORE PUSH1 0x0 PUSH1 0x4 DUP3 ADD MSTORE PUSH1 0x24 ADD PUSH2 0xA2E JUMP JUMPDEST PUSH1 0x1 PUSH1 0x1 PUSH1 0xA0 SHL SUB DUP4 AND PUSH2 0x379A JUMPI PUSH1 0x40 MLOAD PUSH4 0x4A1406B1 PUSH1 0xE1 SHL DUP2 MSTORE PUSH1 0x0 PUSH1 0x4 DUP3 ADD MSTORE PUSH1 0x24 ADD PUSH2 0xA2E JUMP JUMPDEST PUSH1 0x1 PUSH1 0x1 PUSH1 0xA0 SHL SUB DUP1 DUP6 AND PUSH1 0x0 SWAP1 DUP2 MSTORE PUSH1 0x1 PUSH1 0x20 SWAP1 DUP2 MSTORE PUSH1 0x40 DUP1 DUP4 KECCAK256 SWAP4 DUP8 AND DUP4 MSTORE SWAP3 SWAP1 MSTORE KECCAK256 DUP3 SWAP1 SSTORE DUP1 ISZERO PUSH2 0x35F8 JUMPI DUP3 PUSH1 0x1 PUSH1 0x1 PUSH1 0xA0 SHL SUB AND DUP5 PUSH1 0x1 PUSH1 0x1 PUSH1 0xA0 SHL SUB AND PUSH32 0x8C5BE1E5EBEC7D5BD14F71427D1E84F3DD0314C0F7B2291E5B200AC8C7C3B925 DUP5 PUSH1 0x40 MLOAD PUSH2 0x380D SWAP2 DUP2 MSTORE PUSH1 0x20 ADD SWAP1 JUMP JUMPDEST PUSH1 0x40 MLOAD DUP1 SWAP2 SUB SWAP1 LOG3 POP POP POP POP JUMP JUMPDEST PUSH2 0x3823 PUSH2 0x3851 JUMP JUMPDEST PUSH2 0x28E7 DUP4 DUP4 DUP4 PUSH2 0x3875 JUMP JUMPDEST PUSH1 0x5 SLOAD PUSH1 0xFF AND PUSH2 0x1DF5 JUMPI PUSH1 0x40 MLOAD PUSH4 0x8DFC202B PUSH1 0xE0 SHL DUP2 MSTORE PUSH1 0x4 ADD PUSH1 0x40 MLOAD DUP1 SWAP2 SUB SWAP1 REVERT JUMPDEST PUSH1 0x5 SLOAD PUSH1 0xFF AND ISZERO PUSH2 0x1DF5 JUMPI PUSH1 0x40 MLOAD PUSH4 0xD93C0665 PUSH1 0xE0 SHL DUP2 MSTORE PUSH1 0x4 ADD PUSH1 0x40 MLOAD DUP1 SWAP2 SUB SWAP1 REVERT JUMPDEST PUSH1 0x1 PUSH1 0x1 PUSH1 0xA0 SHL SUB DUP4 AND PUSH2 0x38A0 JUMPI DUP1 PUSH1 0x2 PUSH1 0x0 DUP3 DUP3 SLOAD PUSH2 0x3895 SWAP2 SWAP1 PUSH2 0x3D26 JUMP JUMPDEST SWAP1 SWAP2 SSTORE POP PUSH2 0x3912 SWAP1 POP JUMP JUMPDEST PUSH1 0x1 PUSH1 0x1 PUSH1 0xA0 SHL SUB DUP4 AND PUSH1 0x0 SWAP1 DUP2 MSTORE PUSH1 0x20 DUP2 SWAP1 MSTORE PUSH1 0x40 SWAP1 KECCAK256 SLOAD DUP2 DUP2 LT ISZERO PUSH2 0x38F3 JUMPI PUSH1 0x40 MLOAD PUSH4 0x391434E3 PUSH1 0xE2 SHL DUP2 MSTORE PUSH1 0x1 PUSH1 0x1 PUSH1 0xA0 SHL SUB DUP6 AND PUSH1 0x4 DUP3 ADD MSTORE PUSH1 0x24 DUP2 ADD DUP3 SWAP1 MSTORE PUSH1 0x44 DUP2 ADD DUP4 SWAP1 MSTORE PUSH1 0x64 ADD PUSH2 0xA2E JUMP JUMPDEST PUSH1 0x1 PUSH1 0x1 PUSH1 0xA0 SHL SUB DUP5 AND PUSH1 0x0 SWAP1 DUP2 MSTORE PUSH1 0x20 DUP2 SWAP1 MSTORE PUSH1 0x40 SWAP1 KECCAK256 SWAP1 DUP3 SWAP1 SUB SWAP1 SSTORE JUMPDEST PUSH1 0x1 PUSH1 0x1 PUSH1 0xA0 SHL SUB DUP3 AND PUSH2 0x392E JUMPI PUSH1 0x2 DUP1 SLOAD DUP3 SWAP1 SUB SWAP1 SSTORE PUSH2 0x394D JUMP JUMPDEST PUSH1 0x1 PUSH1 0x1 PUSH1 0xA0 SHL SUB DUP3 AND PUSH1 0x0 SWAP1 DUP2 MSTORE PUSH1 0x20 DUP2 SWAP1 MSTORE PUSH1 0x40 SWAP1 KECCAK256 DUP1 SLOAD DUP3 ADD SWAP1 SSTORE JUMPDEST DUP2 PUSH1 0x1 PUSH1 0x1 PUSH1 0xA0 SHL SUB AND DUP4 PUSH1 0x1 PUSH1 0x1 PUSH1 0xA0 SHL SUB AND PUSH32 0xDDF252AD1BE2C89B69C2B068FC378DAA952BA7F163C4A11628F55A4DF523B3EF DUP4 PUSH1 0x40 MLOAD PUSH2 0x3992 SWAP2 DUP2 MSTORE PUSH1 0x20 ADD SWAP1 JUMP JUMPDEST PUSH1 0x40 MLOAD DUP1 SWAP2 SUB SWAP1 LOG3 POP POP POP JUMP JUMPDEST PUSH1 0x0 JUMPDEST DUP4 DUP2 LT ISZERO PUSH2 0x39BA JUMPI DUP2 DUP2 ADD MLOAD DUP4 DUP3 ADD MSTORE PUSH1 0x20 ADD PUSH2 0x39A2 JUMP JUMPDEST POP POP PUSH1 0x0 SWAP2 ADD MSTORE JUMP JUMPDEST PUSH1 0x20 DUP2 MSTORE PUSH1 0x0 DUP3 MLOAD DUP1 PUSH1 0x20 DUP5 ADD MSTORE PUSH2 0x39E2 DUP2 PUSH1 0x40 DUP6 ADD PUSH1 0x20 DUP8 ADD PUSH2 0x399F JUMP JUMPDEST PUSH1 0x1F ADD PUSH1 0x1F NOT AND SWAP2 SWAP1 SWAP2 ADD PUSH1 0x40 ADD SWAP3 SWAP2 POP POP JUMP JUMPDEST DUP1 CALLDATALOAD PUSH1 0x1 PUSH1 0x1 PUSH1 0xA0 SHL SUB DUP2 AND DUP2 EQ PUSH2 0x3A0D JUMPI PUSH1 0x0 DUP1 REVERT JUMPDEST SWAP2 SWAP1 POP JUMP JUMPDEST PUSH1 0x0 DUP1 PUSH1 0x40 DUP4 DUP6 SUB SLT ISZERO PUSH2 0x3A25 JUMPI PUSH1 0x0 DUP1 REVERT JUMPDEST PUSH2 0x3A2E DUP4 PUSH2 0x39F6 JUMP JUMPDEST SWAP5 PUSH1 0x20 SWAP4 SWAP1 SWAP4 ADD CALLDATALOAD SWAP4 POP POP POP JUMP JUMPDEST PUSH1 0x0 PUSH1 0x20 DUP3 DUP5 SUB SLT ISZERO PUSH2 0x3A4E JUMPI PUSH1 0x0 DUP1 REVERT JUMPDEST POP CALLDATALOAD SWAP2 SWAP1 POP JUMP JUMPDEST PUSH1 0x0 DUP1 PUSH1 0x0 PUSH1 0x60 DUP5 DUP7 SUB SLT ISZERO PUSH2 0x3A6A JUMPI PUSH1 0x0 DUP1 REVERT JUMPDEST PUSH2 0x3A73 DUP5 PUSH2 0x39F6 JUMP JUMPDEST SWAP3 POP PUSH2 0x3A81 PUSH1 0x20 DUP6 ADD PUSH2 0x39F6 JUMP JUMPDEST SWAP2 POP PUSH1 0x40 DUP5 ADD CALLDATALOAD SWAP1 POP SWAP3 POP SWAP3 POP SWAP3 JUMP JUMPDEST DUP1 CALLDATALOAD PUSH1 0x5 DUP2 LT PUSH2 0x3A0D JUMPI PUSH1 0x0 DUP1 REVERT JUMPDEST PUSH1 0x0 DUP1 PUSH1 0x40 DUP4 DUP6 SUB SLT ISZERO PUSH2 0x3AB3 JUMPI PUSH1 0x0 DUP1 REVERT JUMPDEST PUSH2 0x3ABC DUP4 PUSH2 0x3A91 JUMP JUMPDEST SWAP2 POP PUSH2 0x3ACA PUSH1 0x20 DUP5 ADD PUSH2 0x39F6 JUMP JUMPDEST SWAP1 POP SWAP3 POP SWAP3 SWAP1 POP JUMP JUMPDEST DUP1 ISZERO ISZERO DUP2 EQ PUSH2 0xD0B JUMPI PUSH1 0x0 DUP1 REVERT JUMPDEST PUSH1 0x0 DUP1 PUSH1 0x40 DUP4 DUP6 SUB SLT ISZERO PUSH2 0x3AF4 JUMPI PUSH1 0x0 DUP1 REVERT JUMPDEST PUSH2 0x3AFD DUP4 PUSH2 0x39F6 JUMP JUMPDEST SWAP2 POP PUSH1 0x20 DUP4 ADD CALLDATALOAD PUSH2 0x3B0D DUP2 PUSH2 0x3AD3 JUMP JUMPDEST DUP1 SWAP2 POP POP SWAP3 POP SWAP3 SWAP1 POP JUMP JUMPDEST PUSH1 0x0 PUSH1 0x20 DUP3 DUP5 SUB SLT ISZERO PUSH2 0x3B2A JUMPI PUSH1 0x0 DUP1 REVERT JUMPDEST PUSH2 0x3B33 DUP3 PUSH2 0x39F6 JUMP JUMPDEST SWAP4 SWAP3 POP POP POP JUMP JUMPDEST PUSH1 0x0 DUP1 PUSH1 0x40 DUP4 DUP6 SUB SLT ISZERO PUSH2 0x3B4D JUMPI PUSH1 0x0 DUP1 REVERT JUMPDEST PUSH2 0x3A2E DUP4 PUSH2 0x3A91 JUMP JUMPDEST PUSH1 0x0 DUP1 PUSH1 0x40 DUP4 DUP6 SUB SLT ISZERO PUSH2 0x3B69 JUMPI PUSH1 0x0 DUP1 REVERT JUMPDEST DUP3 CALLDATALOAD SWAP2 POP PUSH2 0x3ACA PUSH1 0x20 DUP5 ADD PUSH2 0x39F6 JUMP JUMPDEST PUSH1 0x0 DUP1 PUSH1 0x40 DUP4 DUP6 SUB SLT ISZERO PUSH2 0x3B8C JUMPI PUSH1 0x0 DUP1 REVERT JUMPDEST POP POP DUP1 CALLDATALOAD SWAP3 PUSH1 0x20 SWAP1 SWAP2 ADD CALLDATALOAD SWAP2 POP JUMP JUMPDEST PUSH1 0x0 PUSH1 0x20 DUP3 DUP5 SUB SLT ISZERO PUSH2 0x3BAD JUMPI PUSH1 0x0 DUP1 REVERT JUMPDEST PUSH2 0x3B33 DUP3 PUSH2 0x3A91 JUMP JUMPDEST PUSH1 0x0 DUP1 PUSH1 0x40 DUP4 DUP6 SUB SLT ISZERO PUSH2 0x3BC9 JUMPI PUSH1 0x0 DUP1 REVERT JUMPDEST PUSH2 0x3ABC DUP4 PUSH2 0x39F6 JUMP JUMPDEST PUSH1 0x1 DUP2 DUP2 SHR SWAP1 DUP3 AND DUP1 PUSH2 0x3BE6 JUMPI PUSH1 0x7F DUP3 AND SWAP2 POP JUMPDEST PUSH1 0x20 DUP3 LT DUP2 SUB PUSH2 0x328E JUMPI PUSH4 0x4E487B71 PUSH1 0xE0 SHL PUSH1 0x0 MSTORE PUSH1 0x22 PUSH1 0x4 MSTORE PUSH1 0x24 PUSH1 0x0 REVERT JUMPDEST PUSH4 0x4E487B71 PUSH1 0xE0 SHL PUSH1 0x0 MSTORE PUSH1 0x11 PUSH1 0x4 MSTORE PUSH1 0x24 PUSH1 0x0 REVERT JUMPDEST PUSH1 0x1 DUP2 DUP2 JUMPDEST DUP1 DUP6 GT ISZERO PUSH2 0x3C57 JUMPI DUP2 PUSH1 0x0 NOT DIV DUP3 GT ISZERO PUSH2 0x3C3D JUMPI PUSH2 0x3C3D PUSH2 0x3C06 JUMP JUMPDEST DUP1 DUP6 AND ISZERO PUSH2 0x3C4A JUMPI SWAP2 DUP2 MUL SWAP2 JUMPDEST SWAP4 DUP5 SHR SWAP4 SWAP1 DUP1 MUL SWAP1 PUSH2 0x3C21 JUMP JUMPDEST POP SWAP3 POP SWAP3 SWAP1 POP JUMP JUMPDEST PUSH1 0x0 DUP3 PUSH2 0x3C6E JUMPI POP PUSH1 0x1 PUSH2 0xAE4 JUMP JUMPDEST DUP2 PUSH2 0x3C7B JUMPI POP PUSH1 0x0 PUSH2 0xAE4 JUMP JUMPDEST DUP2 PUSH1 0x1 DUP2 EQ PUSH2 0x3C91 JUMPI PUSH1 0x2 DUP2 EQ PUSH2 0x3C9B JUMPI PUSH2 0x3CB7 JUMP JUMPDEST PUSH1 0x1 SWAP2 POP POP PUSH2 0xAE4 JUMP JUMPDEST PUSH1 0xFF DUP5 GT ISZERO PUSH2 0x3CAC JUMPI PUSH2 0x3CAC PUSH2 0x3C06 JUMP JUMPDEST POP POP PUSH1 0x1 DUP3 SHL PUSH2 0xAE4 JUMP JUMPDEST POP PUSH1 0x20 DUP4 LT PUSH2 0x133 DUP4 LT AND PUSH1 0x4E DUP5 LT PUSH1 0xB DUP5 LT AND OR ISZERO PUSH2 0x3CDA JUMPI POP DUP2 DUP2 EXP PUSH2 0xAE4 JUMP JUMPDEST PUSH2 0x3CE4 DUP4 DUP4 PUSH2 0x3C1C JUMP JUMPDEST DUP1 PUSH1 0x0 NOT DIV DUP3 GT ISZERO PUSH2 0x3CF8 JUMPI PUSH2 0x3CF8 PUSH2 0x3C06 JUMP JUMPDEST MUL SWAP4 SWAP3 POP POP POP JUMP JUMPDEST PUSH1 0x0 PUSH2 0x3B33 PUSH1 0xFF DUP5 AND DUP4 PUSH2 0x3C5F JUMP JUMPDEST DUP1 DUP3 MUL DUP2 ISZERO DUP3 DUP3 DIV DUP5 EQ OR PUSH2 0xAE4 JUMPI PUSH2 0xAE4 PUSH2 0x3C06 JUMP JUMPDEST DUP1 DUP3 ADD DUP1 DUP3 GT ISZERO PUSH2 0xAE4 JUMPI PUSH2 0xAE4 PUSH2 0x3C06 JUMP JUMPDEST PUSH4 0x4E487B71 PUSH1 0xE0 SHL PUSH1 0x0 MSTORE PUSH1 0x21 PUSH1 0x4 MSTORE PUSH1 0x24 PUSH1 0x0 REVERT JUMPDEST PUSH4 0x4E487B71 PUSH1 0xE0 SHL PUSH1 0x0 MSTORE PUSH1 0x41 PUSH1 0x4 MSTORE PUSH1 0x24 PUSH1 0x0 REVERT JUMPDEST PUSH1 0x0 PUSH1 0x20 DUP3 DUP5 SUB SLT ISZERO PUSH2 0x3D77 JUMPI PUSH1 0x0 DUP1 REVERT JUMPDEST DUP2 MLOAD PUSH8 0xFFFFFFFFFFFFFFFF DUP1 DUP3 GT ISZERO PUSH2 0x3D8F JUMPI PUSH1 0x0 DUP1 REVERT JUMPDEST DUP2 DUP5 ADD SWAP2 POP DUP5 PUSH1 0x1F DUP4 ADD SLT PUSH2 0x3DA3 JUMPI PUSH1 0x0 DUP1 REVERT JUMPDEST DUP2 MLOAD DUP2 DUP2 GT ISZERO PUSH2 0x3DB5 JUMPI PUSH2 0x3DB5 PUSH2 0x3D4F JUMP JUMPDEST PUSH1 0x40 MLOAD PUSH1 0x1F DUP3 ADD PUSH1 0x1F NOT SWAP1 DUP2 AND PUSH1 0x3F ADD AND DUP2 ADD SWAP1 DUP4 DUP3 GT DUP2 DUP4 LT OR ISZERO PUSH2 0x3DDD JUMPI PUSH2 0x3DDD PUSH2 0x3D4F JUMP JUMPDEST DUP2 PUSH1 0x40 MSTORE DUP3 DUP2 MSTORE DUP8 PUSH1 0x20 DUP5 DUP8 ADD ADD GT ISZERO PUSH2 0x3DF6 JUMPI PUSH1 0x0 DUP1 REVERT JUMPDEST PUSH2 0x3E07 DUP4 PUSH1 0x20 DUP4 ADD PUSH1 0x20 DUP9 ADD PUSH2 0x399F JUMP JUMPDEST SWAP8 SWAP7 POP POP POP POP POP POP POP JUMP JUMPDEST PUSH1 0x20 DUP1 DUP3 MSTORE PUSH1 0x46 SWAP1 DUP3 ADD MSTORE PUSH32 0x546865206E6577206164647265737320646F6573206E6F74207365656D20746F PUSH1 0x40 DUP3 ADD MSTORE PUSH32 0x2062656C6F6E6720746F2074686520636F727265637420707269636520646174 PUSH1 0x60 DUP3 ADD MSTORE PUSH6 0x184819995959 PUSH1 0xD2 SHL PUSH1 0x80 DUP3 ADD MSTORE PUSH1 0xA0 ADD SWAP1 JUMP JUMPDEST PUSH1 0x0 DUP3 MLOAD PUSH2 0x3E90 DUP2 DUP5 PUSH1 0x20 DUP8 ADD PUSH2 0x399F JUMP JUMPDEST SWAP2 SWAP1 SWAP2 ADD SWAP3 SWAP2 POP POP JUMP JUMPDEST PUSH1 0x20 DUP1 DUP3 MSTORE PUSH1 0x3F SWAP1 DUP3 ADD MSTORE PUSH32 0x46756E6374696F6E207265736572766564206F6E6C7920666F72207468652077 PUSH1 0x40 DUP3 ADD MSTORE PUSH32 0x686974656C69737465722061646472657373206F7220746865206F776E657200 PUSH1 0x60 DUP3 ADD MSTORE PUSH1 0x80 ADD SWAP1 JUMP JUMPDEST PUSH1 0x20 DUP1 DUP3 MSTORE PUSH1 0x34 SWAP1 DUP3 ADD MSTORE PUSH32 0x496E766573746F72206164647265737320686173206E6F74206265656E206164 PUSH1 0x40 DUP3 ADD MSTORE PUSH20 0x191959081D1BC81D1A19481DDA1A5D195B1A5CDD PUSH1 0x62 SHL PUSH1 0x60 DUP3 ADD MSTORE PUSH1 0x80 ADD SWAP1 JUMP JUMPDEST PUSH1 0x5 DUP2 LT PUSH2 0x3F69 JUMPI PUSH4 0x4E487B71 PUSH1 0xE0 SHL PUSH1 0x0 MSTORE PUSH1 0x21 PUSH1 0x4 MSTORE PUSH1 0x24 PUSH1 0x0 REVERT JUMPDEST SWAP1 MSTORE JUMP JUMPDEST PUSH1 0x20 DUP2 ADD PUSH2 0xAE4 DUP3 DUP5 PUSH2 0x3F4B JUMP JUMPDEST PUSH1 0x0 PUSH1 0x20 DUP3 DUP5 SUB SLT ISZERO PUSH2 0x3F8D JUMPI PUSH1 0x0 DUP1 REVERT JUMPDEST POP MLOAD SWAP2 SWAP1 POP JUMP JUMPDEST PUSH1 0x0 PUSH1 0x20 DUP3 DUP5 SUB SLT ISZERO PUSH2 0x3FA6 JUMPI PUSH1 0x0 DUP1 REVERT JUMPDEST DUP2 MLOAD PUSH2 0x3B33 DUP2 PUSH2 0x3AD3 JUMP JUMPDEST PUSH1 0x20 DUP1 DUP3 MSTORE PUSH1 0x41 SWAP1 DUP3 ADD MSTORE PUSH32 0x54686572652077617320616E206572726F72206F6E2073656E64696E67206261 PUSH1 0x40 DUP3 ADD MSTORE PUSH32 0x636B20746865204859415820546F6B656E20746F2074686520696E766573746F PUSH1 0x60 DUP3 ADD MSTORE PUSH1 0x39 PUSH1 0xF9 SHL PUSH1 0x80 DUP3 ADD MSTORE PUSH1 0xA0 ADD SWAP1 JUMP JUMPDEST PUSH1 0xA0 DUP2 ADD PUSH2 0x4026 DUP3 DUP9 PUSH2 0x3F4B JUMP JUMPDEST PUSH1 0x1 PUSH1 0x1 PUSH1 0xA0 SHL SUB SWAP6 SWAP1 SWAP6 AND PUSH1 0x20 DUP3 ADD MSTORE PUSH1 0x40 DUP2 ADD SWAP4 SWAP1 SWAP4 MSTORE PUSH1 0x60 DUP4 ADD SWAP2 SWAP1 SWAP2 MSTORE PUSH1 0x80 SWAP1 SWAP2 ADD MSTORE SWAP2 SWAP1 POP JUMP JUMPDEST PUSH1 0x0 DUP3 PUSH2 0x406F JUMPI PUSH4 0x4E487B71 PUSH1 0xE0 SHL PUSH1 0x0 MSTORE PUSH1 0x12 PUSH1 0x4 MSTORE PUSH1 0x24 PUSH1 0x0 REVERT JUMPDEST POP DIV SWAP1 JUMP JUMPDEST PUSH1 0x20 DUP1 DUP3 MSTORE PUSH1 0x38 SWAP1 DUP3 ADD MSTORE PUSH32 0x496E766573746F7220616464726573732068617320616C726561647920626565 PUSH1 0x40 DUP3 ADD MSTORE PUSH32 0x6E207570646174656420746F2074686174207374617475730000000000000000 PUSH1 0x60 DUP3 ADD MSTORE PUSH1 0x80 ADD SWAP1 JUMP JUMPDEST DUP1 MLOAD PUSH10 0xFFFFFFFFFFFFFFFFFFFF DUP2 AND DUP2 EQ PUSH2 0x3A0D JUMPI PUSH1 0x0 DUP1 REVERT JUMPDEST PUSH1 0x0 DUP1 PUSH1 0x0 DUP1 PUSH1 0x0 PUSH1 0xA0 DUP7 DUP9 SUB SLT ISZERO PUSH2 0x4103 JUMPI PUSH1 0x0 DUP1 REVERT JUMPDEST PUSH2 0x410C DUP7 PUSH2 0x40D1 JUMP JUMPDEST SWAP5 POP PUSH1 0x20 DUP7 ADD MLOAD SWAP4 POP PUSH1 0x40 DUP7 ADD MLOAD SWAP3 POP PUSH1 0x60 DUP7 ADD MLOAD SWAP2 POP PUSH2 0x412F PUSH1 0x80 DUP8 ADD PUSH2 0x40D1 JUMP JUMPDEST SWAP1 POP SWAP3 SWAP6 POP SWAP3 SWAP6 SWAP1 SWAP4 POP JUMP INVALID PUSH2 0x6479 KECCAK256 PUSH3 0x65656E KECCAK256 PUSH14 0x6F64696669656420746F20746861 PUSH21 0x2076616C756500A264697066735822122065DAAF43 PUSH15 0x38C8BDBB4F4132109210193EC5312C PUSH0 SGT PUSH27 0x9C9D40B438FA3F1C3564736F6C6343000814003300000000000000 "},"methodIdentifiers":{"addToWhiteList(address)":"47ee0394","allowance(address,address)":"dd62ed3e","approve(address,uint256)":"095ea7b3","balanceOf(address)":"70a08231","calculateTotalHyaxTokenToReturn(uint256,uint256)":"8c945e63","decimals()":"313ce567","getCurrentTokenPrice(uint8)":"bb6f98fb","hyaxPrice()":"377c779f","investFromCryptoToken(uint8,uint256)":"731de514","investFromMatic()":"3b14f359","investorData(address)":"de1f5346","maticPriceFeedAddress()":"fb2dc76e","maximumInvestmentAllowedInUSD()":"8049bcb6","minimumInvestmentAllowedInUSD()":"2a241ad3","name()":"06fdde03","owner()":"8da5cb5b","pause()":"8456cb59","paused()":"5c975abb","renounceOwnership()":"715018a6","symbol()":"95d89b41","tokenIssuance(uint256)":"128ef022","totalSupply()":"18160ddd","transfer(address,uint256)":"a9059cbb","transferFrom(address,address,uint256)":"23b872dd","transferOwnership(address)":"f2fde38b","treasuryAddress()":"c5f956af","unpause()":"3f4ba83a","updateBlacklistStatus(address,bool)":"b8360806","updateHyaxPrice(uint256)":"b40ed449","updateMaximumInvestmentAllowedInUSD(uint256)":"5ec2562a","updateMinimumInvestmentAllowedInUSD(uint256)":"b2c568f3","updatePriceFeedAddress(uint8,address)":"23c66f9a","updateQualifiedInvestorStatus(address,bool)":"367f44fb","updateTokenAddress(uint8,address)":"3de6f379","updateTreasuryAddress(address)":"841e4561","updateWhiteListerAddress(address)":"653c3a47","updateWhitelistStatus(address,bool)":"c07732a3","usdcPriceFeedAddress()":"40b5ea9c","usdcToken()":"11eac855","usdcTokenAddress()":"77b53ece","usdtPriceFeedAddress()":"08cd468f","usdtToken()":"a98ad46c","usdtTokenAddress()":"9d741e5d","validateMaximumInvestedAmountAndInvestorLimit(uint256,address)":"8116de2b","wbtcPriceFeedAddress()":"f7a47f81","wbtcToken()":"27614df8","wbtcTokenAddress()":"4c526bdb","wethPriceFeedAddress()":"5ae9384e","wethToken()":"4b57b0be","wethTokenAddress()":"0f9dad71","whiteListerAddress()":"65699d28"}},"storageLayout":{"storage":[{"astId":2012,"contract":"contracts/HYAXLocal.sol:HYAXLocal","label":"_balances","offset":0,"slot":"0","type":"t_mapping(t_address,t_uint256)"},{"astId":2018,"contract":"contracts/HYAXLocal.sol:HYAXLocal","label":"_allowances","offset":0,"slot":"1","type":"t_mapping(t_address,t_mapping(t_address,t_uint256))"},{"astId":2020,"contract":"contracts/HYAXLocal.sol:HYAXLocal","label":"_totalSupply","offset":0,"slot":"2","type":"t_uint256"},{"astId":2022,"contract":"contracts/HYAXLocal.sol:HYAXLocal","label":"_name","offset":0,"slot":"3","type":"t_string_storage"},{"astId":2024,"contract":"contracts/HYAXLocal.sol:HYAXLocal","label":"_symbol","offset":0,"slot":"4","type":"t_string_storage"},{"astId":2681,"contract":"contracts/HYAXLocal.sol:HYAXLocal","label":"_paused","offset":0,"slot":"5","type":"t_bool"},{"astId":1713,"contract":"contracts/HYAXLocal.sol:HYAXLocal","label":"_owner","offset":1,"slot":"5","type":"t_address"},{"astId":184,"contract":"contracts/HYAXLocal.sol:HYAXLocal","label":"_initialized","offset":21,"slot":"5","type":"t_uint8"},{"astId":187,"contract":"contracts/HYAXLocal.sol:HYAXLocal","label":"_initializing","offset":22,"slot":"5","type":"t_bool"},{"astId":487,"contract":"contracts/HYAXLocal.sol:HYAXLocal","label":"_status","offset":0,"slot":"6","type":"t_uint256"},{"astId":556,"contract":"contracts/HYAXLocal.sol:HYAXLocal","label":"__gap","offset":0,"slot":"7","type":"t_array(t_uint256)49_storage"},{"astId":2970,"contract":"contracts/HYAXLocal.sol:HYAXLocal","label":"hyaxPrice","offset":0,"slot":"56","type":"t_uint256"},{"astId":2973,"contract":"contracts/HYAXLocal.sol:HYAXLocal","label":"minimumInvestmentAllowedInUSD","offset":0,"slot":"57","type":"t_uint256"},{"astId":2976,"contract":"contracts/HYAXLocal.sol:HYAXLocal","label":"maximumInvestmentAllowedInUSD","offset":0,"slot":"58","type":"t_uint256"},{"astId":2979,"contract":"contracts/HYAXLocal.sol:HYAXLocal","label":"whiteListerAddress","offset":0,"slot":"59","type":"t_address"},{"astId":2982,"contract":"contracts/HYAXLocal.sol:HYAXLocal","label":"treasuryAddress","offset":0,"slot":"60","type":"t_address"},{"astId":2999,"contract":"contracts/HYAXLocal.sol:HYAXLocal","label":"investorData","offset":0,"slot":"61","type":"t_mapping(t_address,t_struct(InvestorData)2994_storage)"},{"astId":3008,"contract":"contracts/HYAXLocal.sol:HYAXLocal","label":"maticPriceFeedAddress","offset":0,"slot":"62","type":"t_address"},{"astId":3012,"contract":"contracts/HYAXLocal.sol:HYAXLocal","label":"dataFeedMatic","offset":0,"slot":"63","type":"t_contract(AggregatorV3Interface)45"},{"astId":3015,"contract":"contracts/HYAXLocal.sol:HYAXLocal","label":"usdcTokenAddress","offset":0,"slot":"64","type":"t_address"},{"astId":3018,"contract":"contracts/HYAXLocal.sol:HYAXLocal","label":"usdcPriceFeedAddress","offset":0,"slot":"65","type":"t_address"},{"astId":3022,"contract":"contracts/HYAXLocal.sol:HYAXLocal","label":"dataFeedUsdc","offset":0,"slot":"66","type":"t_contract(AggregatorV3Interface)45"},{"astId":3026,"contract":"contracts/HYAXLocal.sol:HYAXLocal","label":"usdcToken","offset":0,"slot":"67","type":"t_contract(ERC20TokenInterface)2824"},{"astId":3029,"contract":"contracts/HYAXLocal.sol:HYAXLocal","label":"usdtTokenAddress","offset":0,"slot":"68","type":"t_address"},{"astId":3032,"contract":"contracts/HYAXLocal.sol:HYAXLocal","label":"usdtPriceFeedAddress","offset":0,"slot":"69","type":"t_address"},{"astId":3036,"contract":"contracts/HYAXLocal.sol:HYAXLocal","label":"dataFeedUsdt","offset":0,"slot":"70","type":"t_contract(AggregatorV3Interface)45"},{"astId":3040,"contract":"contracts/HYAXLocal.sol:HYAXLocal","label":"usdtToken","offset":0,"slot":"71","type":"t_contract(ERC20TokenInterface)2824"},{"astId":3043,"contract":"contracts/HYAXLocal.sol:HYAXLocal","label":"wbtcTokenAddress","offset":0,"slot":"72","type":"t_address"},{"astId":3046,"contract":"contracts/HYAXLocal.sol:HYAXLocal","label":"wbtcPriceFeedAddress","offset":0,"slot":"73","type":"t_address"},{"astId":3050,"contract":"contracts/HYAXLocal.sol:HYAXLocal","label":"dataFeedWbtc","offset":0,"slot":"74","type":"t_contract(AggregatorV3Interface)45"},{"astId":3054,"contract":"contracts/HYAXLocal.sol:HYAXLocal","label":"wbtcToken","offset":0,"slot":"75","type":"t_contract(ERC20TokenInterface)2824"},{"astId":3057,"contract":"contracts/HYAXLocal.sol:HYAXLocal","label":"wethTokenAddress","offset":0,"slot":"76","type":"t_address"},{"astId":3060,"contract":"contracts/HYAXLocal.sol:HYAXLocal","label":"wethPriceFeedAddress","offset":0,"slot":"77","type":"t_address"},{"astId":3064,"contract":"contracts/HYAXLocal.sol:HYAXLocal","label":"dataFeedWeth","offset":0,"slot":"78","type":"t_contract(AggregatorV3Interface)45"},{"astId":3068,"contract":"contracts/HYAXLocal.sol:HYAXLocal","label":"wethToken","offset":0,"slot":"79","type":"t_contract(ERC20TokenInterface)2824"}],"types":{"t_address":{"encoding":"inplace","label":"address","numberOfBytes":"20"},"t_array(t_uint256)49_storage":{"base":"t_uint256","encoding":"inplace","label":"uint256[49]","numberOfBytes":"1568"},"t_bool":{"encoding":"inplace","label":"bool","numberOfBytes":"1"},"t_contract(AggregatorV3Interface)45":{"encoding":"inplace","label":"contract AggregatorV3Interface","numberOfBytes":"20"},"t_contract(ERC20TokenInterface)2824":{"encoding":"inplace","label":"contract ERC20TokenInterface","numberOfBytes":"20"},"t_mapping(t_address,t_mapping(t_address,t_uint256))":{"encoding":"mapping","key":"t_address","label":"mapping(address => mapping(address => uint256))","numberOfBytes":"32","value":"t_mapping(t_address,t_uint256)"},"t_mapping(t_address,t_struct(InvestorData)2994_storage)":{"encoding":"mapping","key":"t_address","label":"mapping(address => struct HYAXLocal.InvestorData)","numberOfBytes":"32","value":"t_struct(InvestorData)2994_storage"},"t_mapping(t_address,t_uint256)":{"encoding":"mapping","key":"t_address","label":"mapping(address => uint256)","numberOfBytes":"32","value":"t_uint256"},"t_string_storage":{"encoding":"bytes","label":"string","numberOfBytes":"32"},"t_struct(InvestorData)2994_storage":{"encoding":"inplace","label":"struct HYAXLocal.InvestorData","members":[{"astId":2985,"contract":"contracts/HYAXLocal.sol:HYAXLocal","label":"isWhiteListed","offset":0,"slot":"0","type":"t_bool"},{"astId":2987,"contract":"contracts/HYAXLocal.sol:HYAXLocal","label":"isBlacklisted","offset":1,"slot":"0","type":"t_bool"},{"astId":2989,"contract":"contracts/HYAXLocal.sol:HYAXLocal","label":"isQualifiedInvestor","offset":2,"slot":"0","type":"t_bool"},{"astId":2991,"contract":"contracts/HYAXLocal.sol:HYAXLocal","label":"totalHyaxBoughtByInvestor","offset":0,"slot":"1","type":"t_uint256"},{"astId":2993,"contract":"contracts/HYAXLocal.sol:HYAXLocal","label":"totalUsdDepositedByInvestor","offset":0,"slot":"2","type":"t_uint256"}],"numberOfBytes":"96"},"t_uint256":{"encoding":"inplace","label":"uint256","numberOfBytes":"32"},"t_uint8":{"encoding":"inplace","label":"uint8","numberOfBytes":"1"}}}}}}