{"contracts/HYAXUpgradeable.sol":{"HYAXUpgradeable":{"abi":[{"anonymous":false,"inputs":[{"indexed":true,"internalType":"address","name":"owner","type":"address"},{"indexed":true,"internalType":"address","name":"spender","type":"address"},{"indexed":false,"internalType":"uint256","name":"value","type":"uint256"}],"name":"Approval","type":"event"},{"anonymous":false,"inputs":[{"indexed":false,"internalType":"address","name":"sender","type":"address"},{"indexed":false,"internalType":"address","name":"_investorAddress","type":"address"},{"indexed":false,"internalType":"bool","name":"_isBlacklisted","type":"bool"}],"name":"BlacklistStatusUpdated","type":"event"},{"anonymous":false,"inputs":[{"indexed":false,"internalType":"uint8","name":"version","type":"uint8"}],"name":"Initialized","type":"event"},{"anonymous":false,"inputs":[{"indexed":false,"internalType":"enum HYAXUpgradeable.TokenType","name":"tokenType","type":"uint8"},{"indexed":false,"internalType":"address","name":"sender","type":"address"},{"indexed":false,"internalType":"uint256","name":"tokenAmount","type":"uint256"},{"indexed":false,"internalType":"uint256","name":"totalInvestmentInUsd","type":"uint256"},{"indexed":false,"internalType":"uint256","name":"hyaxAmount","type":"uint256"}],"name":"InvestFromCryptoToken","type":"event"},{"anonymous":false,"inputs":[{"indexed":false,"internalType":"address","name":"sender","type":"address"},{"indexed":false,"internalType":"uint256","name":"maticAmount","type":"uint256"},{"indexed":false,"internalType":"uint256","name":"totalInvestmentInUsd","type":"uint256"},{"indexed":false,"internalType":"uint256","name":"hyaxAmount","type":"uint256"}],"name":"InvestFromMatic","type":"event"},{"anonymous":false,"inputs":[{"indexed":false,"internalType":"address","name":"sender","type":"address"},{"indexed":false,"internalType":"address","name":"_investorAddress","type":"address"}],"name":"InvestorAddedToWhiteList","type":"event"},{"anonymous":false,"inputs":[{"indexed":true,"internalType":"address","name":"previousOwner","type":"address"},{"indexed":true,"internalType":"address","name":"newOwner","type":"address"}],"name":"OwnershipTransferred","type":"event"},{"anonymous":false,"inputs":[{"indexed":false,"internalType":"address","name":"account","type":"address"}],"name":"Paused","type":"event"},{"anonymous":false,"inputs":[{"indexed":false,"internalType":"address","name":"sender","type":"address"},{"indexed":false,"internalType":"address","name":"_QualifiedInvestorAddress","type":"address"},{"indexed":false,"internalType":"bool","name":"_isQualifiedInvestor","type":"bool"}],"name":"QualifiedInvestorStatusUpdated","type":"event"},{"anonymous":false,"inputs":[{"indexed":false,"internalType":"address","name":"sender","type":"address"},{"indexed":false,"internalType":"uint256","name":"amount","type":"uint256"}],"name":"TokenIssuance","type":"event"},{"anonymous":false,"inputs":[{"indexed":true,"internalType":"address","name":"from","type":"address"},{"indexed":true,"internalType":"address","name":"to","type":"address"},{"indexed":false,"internalType":"uint256","name":"value","type":"uint256"}],"name":"Transfer","type":"event"},{"anonymous":false,"inputs":[{"indexed":false,"internalType":"address","name":"account","type":"address"}],"name":"Unpaused","type":"event"},{"anonymous":false,"inputs":[{"indexed":false,"internalType":"uint256","name":"_newHyaxPrice","type":"uint256"}],"name":"UpdatedHyaxPrice","type":"event"},{"anonymous":false,"inputs":[{"indexed":false,"internalType":"address","name":"_newMaticPriceFeedAddress","type":"address"}],"name":"UpdatedMaticPriceFeedAddress","type":"event"},{"anonymous":false,"inputs":[{"indexed":false,"internalType":"uint256","name":"_newMaximumInvestmentAllowedInUSD","type":"uint256"}],"name":"UpdatedMaximumInvestmentAllowedInUSD","type":"event"},{"anonymous":false,"inputs":[{"indexed":false,"internalType":"uint256","name":"_newMinimumInvestmentAllowedInUSD","type":"uint256"}],"name":"UpdatedMinimumInvestmentAllowedInUSD","type":"event"},{"anonymous":false,"inputs":[{"indexed":false,"internalType":"address","name":"_newTreasuryAddress","type":"address"}],"name":"UpdatedTreasuryAddress","type":"event"},{"anonymous":false,"inputs":[{"indexed":false,"internalType":"address","name":"_newUsdcPriceFeedAddress","type":"address"}],"name":"UpdatedUsdcPriceFeedAddress","type":"event"},{"anonymous":false,"inputs":[{"indexed":false,"internalType":"address","name":"_newUsdcTokenAddress","type":"address"}],"name":"UpdatedUsdcTokenAddress","type":"event"},{"anonymous":false,"inputs":[{"indexed":false,"internalType":"address","name":"_newUsdtPriceFeedAddress","type":"address"}],"name":"UpdatedUsdtPriceFeedAddress","type":"event"},{"anonymous":false,"inputs":[{"indexed":false,"internalType":"address","name":"_newUsdtTokenAddress","type":"address"}],"name":"UpdatedUsdtTokenAddress","type":"event"},{"anonymous":false,"inputs":[{"indexed":false,"internalType":"address","name":"_newWbtcPriceFeedAddress","type":"address"}],"name":"UpdatedWbtcPriceFeedAddress","type":"event"},{"anonymous":false,"inputs":[{"indexed":false,"internalType":"address","name":"_newWbtcTokenAddress","type":"address"}],"name":"UpdatedWbtcTokenAddress","type":"event"},{"anonymous":false,"inputs":[{"indexed":false,"internalType":"address","name":"_newWethPriceFeedAddress","type":"address"}],"name":"UpdatedWethPriceFeedAddress","type":"event"},{"anonymous":false,"inputs":[{"indexed":false,"internalType":"address","name":"_newWethTokenAddress","type":"address"}],"name":"UpdatedWethTokenAddress","type":"event"},{"anonymous":false,"inputs":[{"indexed":false,"internalType":"address","name":"_newWhiteListerAddress","type":"address"}],"name":"UpdatedWhiteListerAddress","type":"event"},{"anonymous":false,"inputs":[{"indexed":false,"internalType":"address","name":"sender","type":"address"},{"indexed":false,"internalType":"address","name":"_investorAddress","type":"address"},{"indexed":false,"internalType":"bool","name":"_isWhiteListed","type":"bool"}],"name":"WhitelistStatusUpdated","type":"event"},{"inputs":[{"internalType":"address","name":"_investorAddress","type":"address"}],"name":"addToWhiteList","outputs":[],"stateMutability":"nonpayable","type":"function"},{"inputs":[{"internalType":"address","name":"owner","type":"address"},{"internalType":"address","name":"spender","type":"address"}],"name":"allowance","outputs":[{"internalType":"uint256","name":"","type":"uint256"}],"stateMutability":"view","type":"function"},{"inputs":[{"internalType":"address","name":"spender","type":"address"},{"internalType":"uint256","name":"amount","type":"uint256"}],"name":"approve","outputs":[{"internalType":"bool","name":"","type":"bool"}],"stateMutability":"nonpayable","type":"function"},{"inputs":[{"internalType":"address","name":"account","type":"address"}],"name":"balanceOf","outputs":[{"internalType":"uint256","name":"","type":"uint256"}],"stateMutability":"view","type":"function"},{"inputs":[{"internalType":"uint256","name":"_amount","type":"uint256"},{"internalType":"uint256","name":"_currentCryptocurrencyPrice","type":"uint256"}],"name":"calculateTotalHyaxTokenToReturn","outputs":[{"internalType":"uint256","name":"totalInvestmentInUsd","type":"uint256"},{"internalType":"uint256","name":"totalHyaxTokenToReturn","type":"uint256"}],"stateMutability":"view","type":"function"},{"inputs":[],"name":"decimals","outputs":[{"internalType":"uint8","name":"","type":"uint8"}],"stateMutability":"view","type":"function"},{"inputs":[{"internalType":"address","name":"spender","type":"address"},{"internalType":"uint256","name":"subtractedValue","type":"uint256"}],"name":"decreaseAllowance","outputs":[{"internalType":"bool","name":"","type":"bool"}],"stateMutability":"nonpayable","type":"function"},{"inputs":[{"internalType":"enum HYAXUpgradeable.TokenType","name":"tokenType","type":"uint8"}],"name":"getCurrentTokenPrice","outputs":[{"internalType":"uint256","name":"","type":"uint256"}],"stateMutability":"view","type":"function"},{"inputs":[],"name":"hyaxPrice","outputs":[{"internalType":"uint256","name":"","type":"uint256"}],"stateMutability":"view","type":"function"},{"inputs":[{"internalType":"address","name":"spender","type":"address"},{"internalType":"uint256","name":"addedValue","type":"uint256"}],"name":"increaseAllowance","outputs":[{"internalType":"bool","name":"","type":"bool"}],"stateMutability":"nonpayable","type":"function"},{"inputs":[],"name":"initialize","outputs":[],"stateMutability":"nonpayable","type":"function"},{"inputs":[{"internalType":"enum HYAXUpgradeable.TokenType","name":"tokenType","type":"uint8"},{"internalType":"uint256","name":"_amount","type":"uint256"}],"name":"investFromCryptoToken","outputs":[{"internalType":"bool","name":"","type":"bool"}],"stateMutability":"nonpayable","type":"function"},{"inputs":[],"name":"investFromMatic","outputs":[{"internalType":"bool","name":"","type":"bool"}],"stateMutability":"payable","type":"function"},{"inputs":[{"internalType":"address","name":"","type":"address"}],"name":"investorData","outputs":[{"internalType":"bool","name":"isWhiteListed","type":"bool"},{"internalType":"bool","name":"isBlacklisted","type":"bool"},{"internalType":"bool","name":"isQualifiedInvestor","type":"bool"},{"internalType":"uint256","name":"totalHyaxBoughtByInvestor","type":"uint256"},{"internalType":"uint256","name":"totalUsdDepositedByInvestor","type":"uint256"}],"stateMutability":"view","type":"function"},{"inputs":[],"name":"maticPriceFeedAddress","outputs":[{"internalType":"address","name":"","type":"address"}],"stateMutability":"view","type":"function"},{"inputs":[],"name":"maximumInvestmentAllowedInUSD","outputs":[{"internalType":"uint256","name":"","type":"uint256"}],"stateMutability":"view","type":"function"},{"inputs":[],"name":"minimumInvestmentAllowedInUSD","outputs":[{"internalType":"uint256","name":"","type":"uint256"}],"stateMutability":"view","type":"function"},{"inputs":[],"name":"name","outputs":[{"internalType":"string","name":"","type":"string"}],"stateMutability":"view","type":"function"},{"inputs":[],"name":"owner","outputs":[{"internalType":"address","name":"","type":"address"}],"stateMutability":"view","type":"function"},{"inputs":[],"name":"pause","outputs":[],"stateMutability":"nonpayable","type":"function"},{"inputs":[],"name":"paused","outputs":[{"internalType":"bool","name":"","type":"bool"}],"stateMutability":"view","type":"function"},{"inputs":[],"name":"renounceOwnership","outputs":[],"stateMutability":"nonpayable","type":"function"},{"inputs":[],"name":"symbol","outputs":[{"internalType":"string","name":"","type":"string"}],"stateMutability":"view","type":"function"},{"inputs":[{"internalType":"uint256","name":"_amount","type":"uint256"}],"name":"tokenIssuance","outputs":[],"stateMutability":"nonpayable","type":"function"},{"inputs":[],"name":"totalSupply","outputs":[{"internalType":"uint256","name":"","type":"uint256"}],"stateMutability":"view","type":"function"},{"inputs":[{"internalType":"address","name":"to","type":"address"},{"internalType":"uint256","name":"amount","type":"uint256"}],"name":"transfer","outputs":[{"internalType":"bool","name":"","type":"bool"}],"stateMutability":"nonpayable","type":"function"},{"inputs":[{"internalType":"address","name":"from","type":"address"},{"internalType":"address","name":"to","type":"address"},{"internalType":"uint256","name":"amount","type":"uint256"}],"name":"transferFrom","outputs":[{"internalType":"bool","name":"","type":"bool"}],"stateMutability":"nonpayable","type":"function"},{"inputs":[{"internalType":"address","name":"newOwner","type":"address"}],"name":"transferOwnership","outputs":[],"stateMutability":"nonpayable","type":"function"},{"inputs":[],"name":"treasuryAddress","outputs":[{"internalType":"address","name":"","type":"address"}],"stateMutability":"view","type":"function"},{"inputs":[],"name":"unpause","outputs":[],"stateMutability":"nonpayable","type":"function"},{"inputs":[{"internalType":"address","name":"_investorAddress","type":"address"},{"internalType":"bool","name":"_newStatus","type":"bool"}],"name":"updateBlacklistStatus","outputs":[],"stateMutability":"nonpayable","type":"function"},{"inputs":[{"internalType":"uint256","name":"_newHyaxPrice","type":"uint256"}],"name":"updateHyaxPrice","outputs":[],"stateMutability":"nonpayable","type":"function"},{"inputs":[{"internalType":"uint256","name":"_newMaximumInvestmentAllowedInUSD","type":"uint256"}],"name":"updateMaximumInvestmentAllowedInUSD","outputs":[],"stateMutability":"nonpayable","type":"function"},{"inputs":[{"internalType":"uint256","name":"_newMinimumInvestmentAllowedInUSD","type":"uint256"}],"name":"updateMinimumInvestmentAllowedInUSD","outputs":[],"stateMutability":"nonpayable","type":"function"},{"inputs":[{"internalType":"enum HYAXUpgradeable.TokenType","name":"tokenType","type":"uint8"},{"internalType":"address","name":"newPriceFeedAddress","type":"address"}],"name":"updatePriceFeedAddress","outputs":[],"stateMutability":"nonpayable","type":"function"},{"inputs":[{"internalType":"address","name":"_qualifiedInvestorAddress","type":"address"},{"internalType":"bool","name":"_newStatus","type":"bool"}],"name":"updateQualifiedInvestorStatus","outputs":[],"stateMutability":"nonpayable","type":"function"},{"inputs":[{"internalType":"enum HYAXUpgradeable.TokenType","name":"tokenType","type":"uint8"},{"internalType":"address","name":"newTokenAddress","type":"address"}],"name":"updateTokenAddress","outputs":[],"stateMutability":"nonpayable","type":"function"},{"inputs":[{"internalType":"address","name":"_newTreasuryAddress","type":"address"}],"name":"updateTreasuryAddress","outputs":[],"stateMutability":"nonpayable","type":"function"},{"inputs":[{"internalType":"address","name":"_newWhiteListerAddress","type":"address"}],"name":"updateWhiteListerAddress","outputs":[],"stateMutability":"nonpayable","type":"function"},{"inputs":[{"internalType":"address","name":"_investorAddress","type":"address"},{"internalType":"bool","name":"_newStatus","type":"bool"}],"name":"updateWhitelistStatus","outputs":[],"stateMutability":"nonpayable","type":"function"},{"inputs":[],"name":"usdcPriceFeedAddress","outputs":[{"internalType":"address","name":"","type":"address"}],"stateMutability":"view","type":"function"},{"inputs":[],"name":"usdcToken","outputs":[{"internalType":"contract ERC20TokenInterface","name":"","type":"address"}],"stateMutability":"view","type":"function"},{"inputs":[],"name":"usdcTokenAddress","outputs":[{"internalType":"address","name":"","type":"address"}],"stateMutability":"view","type":"function"},{"inputs":[],"name":"usdtPriceFeedAddress","outputs":[{"internalType":"address","name":"","type":"address"}],"stateMutability":"view","type":"function"},{"inputs":[],"name":"usdtToken","outputs":[{"internalType":"contract ERC20TokenInterface","name":"","type":"address"}],"stateMutability":"view","type":"function"},{"inputs":[],"name":"usdtTokenAddress","outputs":[{"internalType":"address","name":"","type":"address"}],"stateMutability":"view","type":"function"},{"inputs":[{"internalType":"uint256","name":"_totalInvestmentInUsd","type":"uint256"},{"internalType":"address","name":"_investorAddress","type":"address"}],"name":"validateMaximumInvestedAmountAndInvestorLimit","outputs":[],"stateMutability":"view","type":"function"},{"inputs":[],"name":"wbtcPriceFeedAddress","outputs":[{"internalType":"address","name":"","type":"address"}],"stateMutability":"view","type":"function"},{"inputs":[],"name":"wbtcToken","outputs":[{"internalType":"contract ERC20TokenInterface","name":"","type":"address"}],"stateMutability":"view","type":"function"},{"inputs":[],"name":"wbtcTokenAddress","outputs":[{"internalType":"address","name":"","type":"address"}],"stateMutability":"view","type":"function"},{"inputs":[],"name":"wethPriceFeedAddress","outputs":[{"internalType":"address","name":"","type":"address"}],"stateMutability":"view","type":"function"},{"inputs":[],"name":"wethToken","outputs":[{"internalType":"contract ERC20TokenInterface","name":"","type":"address"}],"stateMutability":"view","type":"function"},{"inputs":[],"name":"wethTokenAddress","outputs":[{"internalType":"address","name":"","type":"address"}],"stateMutability":"view","type":"function"},{"inputs":[],"name":"whiteListerAddress","outputs":[{"internalType":"address","name":"","type":"address"}],"stateMutability":"view","type":"function"},{"stateMutability":"payable","type":"receive"}],"evm":{"bytecode":{"linkReferences":{},"object":"608060405234801561001057600080fd5b50614bde806100206000396000f3fe6080604052600436106103395760003560e01c806370a08231116101ab578063a457c2d7116100f7578063c07732a311610095578063de1f53461161006f578063de1f534614610989578063f2fde38b14610a0c578063f7a47f8114610a2c578063fb2dc76e14610a4d57600080fd5b8063c07732a314610928578063c5f956af14610948578063dd62ed3e1461096957600080fd5b8063b2c568f3116100d1578063b2c568f3146108a8578063b40ed449146108c8578063b8360806146108e8578063bb6f98fb1461090857600080fd5b8063a457c2d714610847578063a9059cbb14610867578063a98ad46c1461088757600080fd5b80638129fc1c116101645780638c945e631161013e5780638c945e63146107be5780638da5cb5b146107f357806395d89b41146108115780639d741e5d1461082657600080fd5b80638129fc1c14610774578063841e4561146107895780638456cb59146107a957600080fd5b806370a08231146106b1578063715018a6146106e7578063731de514146106fc57806377b53ece1461071c5780638049bcb61461073d5780638116de2b1461075457600080fd5b8063377c779f116102855780634b57b0be116102235780635c975abb116101fd5780635c975abb146106385780635ec2562a14610650578063653c3a471461067057806365699d281461069057600080fd5b80634b57b0be146105d55780634c526bdb146105f65780635ae9384e1461061757600080fd5b80633de6f3791161025f5780633de6f3791461055f5780633f4ba83a1461057f57806340b5ea9c1461059457806347ee0394146105b557600080fd5b8063377c779f1461052057806339509351146105375780633b14f3591461055757600080fd5b806318160ddd116102f257806327614df8116102cc57806327614df8146104ac5780632a241ad3146104cd578063313ce567146104e4578063367f44fb1461050057600080fd5b806318160ddd1461044d57806323b872dd1461046c57806323c66f9a1461048c57600080fd5b806306fdde031461035757806308cd468f14610382578063095ea7b3146103bb5780630f9dad71146103eb57806311eac8551461040c578063128ef0221461042d57600080fd5b3661035257610346610a6e565b610350600160fb55565b005b600080fd5b34801561036357600080fd5b5061036c610ad3565b6040516103799190614267565b60405180910390f35b34801561038e57600080fd5b5061013a546103a3906001600160a01b031681565b6040516001600160a01b039091168152602001610379565b3480156103c757600080fd5b506103db6103d63660046142b6565b610b65565b6040519015158152602001610379565b3480156103f757600080fd5b50610141546103a3906001600160a01b031681565b34801561041857600080fd5b50610138546103a3906001600160a01b031681565b34801561043957600080fd5b506103506104483660046142e0565b610b7f565b34801561045957600080fd5b506035545b604051908152602001610379565b34801561047857600080fd5b506103db6104873660046142f9565b610da3565b34801561049857600080fd5b506103506104a7366004614344565b610dc7565b3480156104b857600080fd5b50610140546103a3906001600160a01b031681565b3480156104d957600080fd5b5061045e61012e5481565b3480156104f057600080fd5b5060405160128152602001610379565b34801561050c57600080fd5b5061035061051b366004614385565b611524565b34801561052c57600080fd5b5061045e61012d5481565b34801561054357600080fd5b506103db6105523660046142b6565b61179e565b6103db6117c0565b34801561056b57600080fd5b5061035061057a366004614344565b611a85565b34801561058b57600080fd5b50610350611edf565b3480156105a057600080fd5b50610136546103a3906001600160a01b031681565b3480156105c157600080fd5b506103506105d03660046143bc565b611ef1565b3480156105e157600080fd5b50610144546103a3906001600160a01b031681565b34801561060257600080fd5b5061013d546103a3906001600160a01b031681565b34801561062357600080fd5b50610142546103a3906001600160a01b031681565b34801561064457600080fd5b5060655460ff166103db565b34801561065c57600080fd5b5061035061066b3660046142e0565b61210f565b34801561067c57600080fd5b5061035061068b3660046143bc565b6122dd565b34801561069c57600080fd5b50610130546103a3906001600160a01b031681565b3480156106bd57600080fd5b5061045e6106cc3660046143bc565b6001600160a01b031660009081526033602052604090205490565b3480156106f357600080fd5b5061035061242a565b34801561070857600080fd5b506103db6107173660046143de565b61243c565b34801561072857600080fd5b50610135546103a3906001600160a01b031681565b34801561074957600080fd5b5061045e61012f5481565b34801561076057600080fd5b5061035061076f3660046143fa565b61293f565b34801561078057600080fd5b50610350612a18565b34801561079557600080fd5b506103506107a43660046143bc565b612dc0565b3480156107b557600080fd5b50610350612f0a565b3480156107ca57600080fd5b506107de6107d936600461441d565b612f1a565b60408051928352602083019190915201610379565b3480156107ff57600080fd5b5060c9546001600160a01b03166103a3565b34801561081d57600080fd5b5061036c613077565b34801561083257600080fd5b50610139546103a3906001600160a01b031681565b34801561085357600080fd5b506103db6108623660046142b6565b613086565b34801561087357600080fd5b506103db6108823660046142b6565b613101565b34801561089357600080fd5b5061013c546103a3906001600160a01b031681565b3480156108b457600080fd5b506103506108c33660046142e0565b61310f565b3480156108d457600080fd5b506103506108e33660046142e0565b6132d7565b3480156108f457600080fd5b50610350610903366004614385565b6134ab565b34801561091457600080fd5b5061045e61092336600461443f565b61362c565b34801561093457600080fd5b50610350610943366004614385565b6137dd565b34801561095457600080fd5b50610131546103a3906001600160a01b031681565b34801561097557600080fd5b5061045e61098436600461445a565b613952565b34801561099557600080fd5b506109db6109a43660046143bc565b6101326020526000908152604090208054600182015460029092015460ff8083169361010084048216936201000090049091169185565b6040516103799594939291909415158552921515602085015290151560408401526060830152608082015260a00190565b348015610a1857600080fd5b50610350610a273660046143bc565b61397d565b348015610a3857600080fd5b5061013e546103a3906001600160a01b031681565b348015610a5957600080fd5b50610133546103a3906001600160a01b031681565b600260fb5403610ac55760405162461bcd60e51b815260206004820152601f60248201527f5265656e7472616e637947756172643a207265656e7472616e742063616c6c0060448201526064015b60405180910390fd5b600260fb55565b600160fb55565b606060368054610ae290614476565b80601f0160208091040260200160405190810160405280929190818152602001828054610b0e90614476565b8015610b5b5780601f10610b3057610100808354040283529160200191610b5b565b820191906000526020600020905b815481529060010190602001808311610b3e57829003601f168201915b5050505050905090565b600033610b73818585613a6a565b60019150505b92915050565b610b87613b8e565b610b8f610a6e565b610b9b6012600a6145a4565b811015610c105760405162461bcd60e51b815260206004820152603760248201527f416d6f756e74206f66204859415820746f6b656e7320746f206973737565206d60448201527f757374206265206174206c65617374203120746f6b656e0000000000000000006064820152608401610abc565b610c1c6012600a6145a4565b610c2a90633b9aca006145b3565b811115610c9f5760405162461bcd60e51b815260206004820152603f60248201527f416d6f756e74206f66204859415820746f6b656e7320746f206973737565206160448201527f7420612074696d65206d757374206265206d6178696d756d2031303030204d006064820152608401610abc565b610cab6012600a6145a4565b610cba906402540be4006145b3565b81610cc460355490565b610cce91906145ca565b1115610d425760405162461bcd60e51b815260206004820152603b60248201527f416d6f756e74206f66204859415820746f6b656e7320746f206973737565207360448201527f75727061736573207468652031302c303030204d20746f6b656e7300000000006064820152608401610abc565b610d5d610d5760c9546001600160a01b031690565b82613be8565b60408051338152602081018390527f455064bbf1374d9e833b8d9db24c56b24dbf79cc1a94a30665cae7093963d5a8910160405180910390a1610da0600160fb55565b50565b600033610db1858285613cb5565b610dbc858585613d2f565b506001949350505050565b610dcf613b8e565b6001600160a01b038116610e445760405162461bcd60e51b815260206004820152603660248201527f5468652070726963652064617461206665656420616464726573732063616e6e6044820152756f7420626520746865207a65726f206164647265737360501b6064820152608401610abc565b8060008080856004811115610e5b57610e5b6145dd565b03610f1f57610133546001600160a01b0390811690851603610ee7576040805162461bcd60e51b81526020600482015260248101919091527f4d41544943207072696365206665656420616464726573732068617320616c7260448201527f65616479206265656e206d6f64696669656420746f20746861742076616c75656064820152608401610abc565b6040516a1350551250c80bc81554d160aa1b6020820152602b015b604051602081830303815290604052805190602001209150611203565b6001856004811115610f3357610f336145dd565b03610fc957610136546001600160a01b0390811690851603610fab5760405162461bcd60e51b815260206004820152603f60248201527f55534443207072696365206665656420616464726573732068617320616c72656044820152600080516020614b898339815191526064820152608401610abc565b604051691554d110c80bc81554d160b21b6020820152602a01610f02565b6002856004811115610fdd57610fdd6145dd565b036110735761013a546001600160a01b03908116908516036110555760405162461bcd60e51b815260206004820152603f60248201527f55534454207072696365206665656420616464726573732068617320616c72656044820152600080516020614b898339815191526064820152608401610abc565b604051691554d115080bc81554d160b21b6020820152602a01610f02565b6003856004811115611087576110876145dd565b0361111d5761013e546001600160a01b03908116908516036110ff5760405162461bcd60e51b815260206004820152603f60248201527f57425443207072696365206665656420616464726573732068617320616c72656044820152600080516020614b898339815191526064820152608401610abc565b6040516915d09510c80bc81554d160b21b6020820152602a01610f02565b6004856004811115611131576111316145dd565b036111c657610142546001600160a01b03908116908516036111a95760405162461bcd60e51b815260206004820152603f60248201527f57455448207072696365206665656420616464726573732068617320616c72656044820152600080516020614b898339815191526064820152608401610abc565b60405168115512080bc81554d160ba1b6020820152602901610f02565b60405162461bcd60e51b8152602060048201526012602482015271496e76616c696420746f6b656e207479706560701b6044820152606401610abc565b826001600160a01b0316637284e4166040518163ffffffff1660e01b8152600401600060405180830381865afa92505050801561126257506040513d6000823e601f3d908101601f1916820160405261125f9190810190614609565b60015b61127e5760405162461bcd60e51b8152600401610abc906146b6565b8060405160200161128f9190614722565b6040516020818303038152906040528051906020012091508183146112c65760405162461bcd60e51b8152600401610abc906146b6565b5060008560048111156112db576112db6145dd565b036113455761013380546001600160a01b0386166001600160a01b031991821681179092556101348054909116821790556040519081527fee9bc8d900b5d69f934ec4a3986b3bfda61add54821456c3f7e943e87cf48f52906020015b60405180910390a161151d565b6001856004811115611359576113596145dd565b036113ba5761013680546001600160a01b0386166001600160a01b031991821681179092556101378054909116821790556040519081527f0a0bc5dadd9d9c881861f6da8998bebef8eabcb5f3d6651187c5d1899e32796590602001611338565b60028560048111156113ce576113ce6145dd565b0361142f5761013a80546001600160a01b0386166001600160a01b0319918216811790925561013b8054909116821790556040519081527f1e5bfe0b7fe6fcdc586b9e3a4fbdc0bdb1346d36173963ba38c897137ba1603190602001611338565b6003856004811115611443576114436145dd565b036114a45761013e80546001600160a01b0386166001600160a01b0319918216811790925561013f8054909116821790556040519081527f2171c3cfa3d86551d618c9da7164a608dd795715bf61402d9ccb45cf5433a07690602001611338565b60048560048111156114b8576114b86145dd565b0361151d5761014280546001600160a01b0386166001600160a01b031991821681179092556101438054909116821790556040519081527fc21be1e8c8d6de83e19ad6de75cd885eefac75be87e532a0a04d02147004e5209060200160405180910390a15b5050505050565b60c9546001600160a01b03163314806115485750610130546001600160a01b031633145b6115645760405162461bcd60e51b8152600401610abc9061473e565b6001600160a01b0382166115f85760405162461bcd60e51b815260206004820152604f60248201527f496e766573746f72206164647265737320746f20757064617465207175616c6960448201527f6669656420696e766573746f72207374617475732063616e6e6f74206265207460648201526e6865207a65726f206164647265737360881b608482015260a401610abc565b6001600160a01b0382166000908152610132602052604090205460ff166116875760405162461bcd60e51b815260206004820152603e60248201527f496e766573746f722061646472657373206d757374206265206669727374206160448201527f6464656420746f2074686520696e766573746f722077686974656c69737400006064820152608401610abc565b6001600160a01b038216600090815261013260205260409020548115156201000090910460ff161515036117235760405162461bcd60e51b815260206004820152603d60248201527f5468617420696e766573746f7220616464726573732068617320616c7265616460448201527f79206265656e207570646174656420746f2074686174207374617475730000006064820152608401610abc565b6001600160a01b03821660008181526101326020908152604091829020805462ff000019166201000086151590810291909117909155825133815291820193909352908101919091527f3c53852fbea2a3e8d261e1a5412fcd1099cd0af0faf615db2a4cab4831106256906060015b60405180910390a15050565b600033610b738185856117b18383613952565b6117bb91906145ca565b613a6a565b336000908152610132602052604081205460ff166117f05760405162461bcd60e51b8152600401610abc9061479b565b3360009081526101326020526040902054610100900460ff16156118265760405162461bcd60e51b8152600401610abc906147ef565b61182e610a6e565b6000806118a334306001600160a01b031663bb6f98fb60006040518263ffffffff1660e01b81526004016118629190614861565b602060405180830381865afa15801561187f573d6000803e3d6000fd5b505050506040513d601f19601f820116820180604052508101906107d9919061486f565b915091506118b1823361293f565b610131546040516001600160a01b03909116903480156108fc02916000818181858888f193505050506119575760405162461bcd60e51b815260206004820152604260248201527f54686572652077617320616e206572726f72206f6e2073656e64696e6720746860448201527f65204d4154494320696e766573746d656e7420746f2074686520747265617375606482015261727960f01b608482015260a401610abc565b60405163a9059cbb60e01b815233600482015260248101829052309063a9059cbb906044016020604051808303816000875af115801561199b573d6000803e3d6000fd5b505050506040513d601f19601f820116820180604052508101906119bf9190614888565b6119db5760405162461bcd60e51b8152600401610abc906148a5565b3360009081526101326020526040812060020180548492906119fe9084906145ca565b9091555050336000908152610132602052604081206001018054839290611a269084906145ca565b909155505060408051338152346020820152908101839052606081018290527fe036cb252631bb3e3fbcb1aa359dd09f94f0dac1fe6de828e8bae3f5028331c59060800160405180910390a1600192505050611a82600160fb55565b90565b611a8d613b8e565b6001600160a01b038116611af85760405162461bcd60e51b815260206004820152602c60248201527f54686520746f6b656e20616464726573732063616e6e6f74206265207468652060448201526b7a65726f206164647265737360a01b6064820152608401610abc565b6001826004811115611b0c57611b0c6145dd565b03611bf657610135546001600160a01b0390811690821603611b935760405162461bcd60e51b815260206004820152603a60248201527f5553444320746f6b656e20616464726573732068617320616c7265616479206260448201527965656e206d6f64696669656420746f20746861742076616c756560301b6064820152608401610abc565b61013580546001600160a01b0383166001600160a01b031991821681179092556101388054909116821790556040519081527f8b3f52c1d10699944ebee74ee29dca11c9c86bb0dbedef4abd6e737f613d4d3a9060200160405180910390a15050565b6002826004811115611c0a57611c0a6145dd565b03611ced57610139546001600160a01b0390811690821603611c915760405162461bcd60e51b815260206004820152603a60248201527f5553445420746f6b656e20616464726573732068617320616c7265616479206260448201527965656e206d6f64696669656420746f20746861742076616c756560301b6064820152608401610abc565b61013980546001600160a01b0383166001600160a01b0319918216811790925561013c8054909116821790556040519081527f1c2d8a05be2c8eca524d44cc224513d7e19ca97ac309c3e23bee450f8578ca1990602001611792565b6003826004811115611d0157611d016145dd565b03611de45761013d546001600160a01b0390811690821603611d885760405162461bcd60e51b815260206004820152603a60248201527f5742544320746f6b656e20616464726573732068617320616c7265616479206260448201527965656e206d6f64696669656420746f20746861742076616c756560301b6064820152608401610abc565b61013d80546001600160a01b0383166001600160a01b031991821681179092556101408054909116821790556040519081527f95082f719648371f180ca4f9bad55a2ae7c2d029bbf93e360584ca6ea06327ea90602001611792565b6004826004811115611df857611df86145dd565b036111c657610141546001600160a01b0390811690821603611e7f5760405162461bcd60e51b815260206004820152603a60248201527f5745544820746f6b656e20616464726573732068617320616c7265616479206260448201527965656e206d6f64696669656420746f20746861742076616c756560301b6064820152608401610abc565b61014180546001600160a01b0383166001600160a01b031991821681179092556101448054909116821790556040519081527ff5fd160f565ac0e80215e9eced5afbfcd47389e99858fac6a3d93f2ec38ff6d690602001611792565b5050565b611ee7613b8e565b611eef613ee5565b565b60c9546001600160a01b0316331480611f155750610130546001600160a01b031633145b611f315760405162461bcd60e51b8152600401610abc9061473e565b6001600160a01b038116611fb95760405162461bcd60e51b815260206004820152604360248201527f496e766573746f72206164647265737320746f2061646420746f20746865207760448201527f686974656c6973742063616e6e6f7420626520746865207a65726f206164647260648201526265737360e81b608482015260a401610abc565b6001600160a01b0381166000908152610132602052604090205460ff16156120495760405162461bcd60e51b815260206004820152603d60248201527f5468617420696e766573746f7220616464726573732068617320616c7265616460448201527f79206265656e20616464656420746f207468652077686974656c6973740000006064820152608401610abc565b6040805160a08101825260006020808301828152838501838152606085018481526080860185815260018088526001600160a01b038a1680885261013287529689902088518154965195511515620100000262ff0000199615156101000261ff00199215159290921661ffff19909816979097171794909416949094178355905192820192909255905160029091015583513381529081019190915290917f8419b79dc227f7841e7bf32cea35c3f90fe5b3da68cde93adef3c32745c587de9101611792565b612117613b8e565b600081116121875760405162461bcd60e51b815260206004820152603760248201527f4e6577206d6178696d756d20616d6f756e7420746f20696e766573742c206d7560448201527673742062652067726561746572207468616e207a65726f60481b6064820152608401610abc565b61012f54810361220d5760405162461bcd60e51b815260206004820152604560248201527f4e6577206d6178696d756d20616d6f756e7420746f20696e766573742c20686160448201527f7320616c7265616479206265656e206d6f64696669656420746f20746861742060648201526476616c756560d81b608482015260a401610abc565b61012e548110156122a05760405162461bcd60e51b815260206004820152605160248201527f4e6577206d6178696d756d20616d6f756e7420746f20696e766573742c206d7560448201527f73742062652067726561746572207468616e20746865206d696e696d756d20696064820152701b9d995cdd1b595b9d08185b1b1bddd959607a1b608482015260a401610abc565b61012f8190556040518181527f29d434ec19958e7ce86ca2870f5927ab4f948d916dcffc568c1343c1e1f76566906020015b60405180910390a150565b6122e5613b8e565b6001600160a01b0381166123565760405162461bcd60e51b815260206004820152603260248201527f5468652077686974656c697374657220616464726573732063616e6e6f7420626044820152716520746865207a65726f206164647265737360701b6064820152608401610abc565b610130546001600160a01b03908116908216036123db5760405162461bcd60e51b815260206004820152603b60248201527f77686974656c697374657220616464726573732068617320616c72656164792060448201527f6265656e206d6f64696669656420746f20746861742076616c756500000000006064820152608401610abc565b61013080546001600160a01b0319166001600160a01b0383169081179091556040519081527f32359536720adedfb2b6c6dd7685519f09fdf93ce7824b68d5b2f56354fdebec906020016122d2565b612432613b8e565b611eef6000613f37565b336000908152610132602052604081205460ff1661246c5760405162461bcd60e51b8152600401610abc9061479b565b3360009081526101326020526040902054610100900460ff16156124a25760405162461bcd60e51b8152600401610abc906147ef565b6124aa610a6e565b60008060018560048111156124c1576124c16145dd565b03612542576101385460405163bb6f98fb60e01b81526001600160a01b039091169250309063bb6f98fb906124fa908890600401614861565b602060405180830381865afa158015612517573d6000803e3d6000fd5b505050506040513d601f19601f8201168201806040525081019061253b919061486f565b9050612629565b6002856004811115612556576125566145dd565b0361258f5761013c5460405163bb6f98fb60e01b81526001600160a01b039091169250309063bb6f98fb906124fa908890600401614861565b60038560048111156125a3576125a36145dd565b036125dc576101405460405163bb6f98fb60e01b81526001600160a01b039091169250309063bb6f98fb906124fa908890600401614861565b60048560048111156125f0576125f06145dd565b036111c6576101445460405163bb6f98fb60e01b81526001600160a01b039091169250309063bb6f98fb906124fa908890600401614861565b6000806126368684612f1a565b91509150612644823361293f565b6040516323b872dd60e01b8152336004820152306024820152604481018790526001600160a01b038516906323b872dd906064016020604051808303816000875af1158015612697573d6000803e3d6000fd5b505050506040513d601f19601f820116820180604052508101906126bb9190614888565b6127245760405162461bcd60e51b815260206004820152603460248201527f54686572652077617320616e206572726f72206f6e20726563656976696e67206044820152731d1a19481d1bdad95b881a5b9d995cdd1b595b9d60621b6064820152608401610abc565b6101315460405163a9059cbb60e01b81526001600160a01b039182166004820152602481018890529085169063a9059cbb906044016020604051808303816000875af1158015612778573d6000803e3d6000fd5b505050506040513d601f19601f8201168201806040525081019061279c9190614888565b6128195760405162461bcd60e51b815260206004820152604260248201527f54686572652077617320616e206572726f72206f6e2073656e64696e6720746860448201527f6520746f6b656e20696e766573746d656e7420746f2074686520747265617375606482015261727960f01b608482015260a401610abc565b60405163a9059cbb60e01b815233600482015260248101829052309063a9059cbb906044016020604051808303816000875af115801561285d573d6000803e3d6000fd5b505050506040513d601f19601f820116820180604052508101906128819190614888565b61289d5760405162461bcd60e51b8152600401610abc906148a5565b3360009081526101326020526040812060020180548492906128c09084906145ca565b90915550503360009081526101326020526040812060010180548392906128e89084906145ca565b90915550506040517f3b60324b6db90922773bde8799e6d3b7d574474a0fb52a6d340bd2ee92b5edbc9061292590899033908a908790879061490c565b60405180910390a16001945050505050610b79600160fb55565b6001600160a01b0381166000908152610132602052604081206002015461296690846145ca565b905061012f54811115612a13576001600160a01b0382166000908152610132602052604090205462010000900460ff16612a135760405162461bcd60e51b815260206004820152604260248201527f546f20627579207468617420616d6f756e74206f66204859415820697473207260448201527f6571756972656420746f2062652061207175616c696669656420696e7665737460648201526137b960f11b608482015260a401610abc565b505050565b600054610100900460ff1615808015612a385750600054600160ff909116105b80612a525750303b158015612a52575060005460ff166001145b612ab55760405162461bcd60e51b815260206004820152602e60248201527f496e697469616c697a61626c653a20636f6e747261637420697320616c72656160448201526d191e481a5b9a5d1a585b1a5e995960921b6064820152608401610abc565b6000805460ff191660011790558015612ad8576000805461ff0019166101001790555b612b1f60405180604001604052806009815260200168242ca0ac2a37b5b2b760b91b81525060405180604001604052806004815260200163090b282b60e31b815250613f89565b612b27613fba565b612b2f613fe9565b612b37614018565b612b5a33612b476012600a6145a4565b612b5590631dcd65006145b3565b613be8565b620927c061012d55612b6e6012600a6145a4565b612b799060016145b3565b61012e55612b896012600a6145a4565b612b95906127106145b3565b61012f5561013080546001600160a01b03199081167301c2f012de19e6436744c3f81f56e9e70c93a8c3179091556101318054821673350441f8a82680a785ffa9d3efea60bb4ca417f817905561013380548216721382149eba3441043c1c66972b4772963f5d439081179091556101348054831690911790556101358054821673f68054bfe5d45432ffca28ffa1f3d685d0456ddc90811790915561013680548316731b8739bb4cdf0089d07097a9ae5bd274b29c6f16908117909155610137805484169091179055610138805483169091179055610139805482167370e02fb82b6bc04f64099689b0599e14b44d4fbb90811790915561013a80548316733ac23dcb4ecfcbd24579e1f34542524d0e4edea890811790915561013b80548416909117905561013c80548316909117905561013d80548216733c8df3c48b3884da2ff25e17524282d60f9c3b9390811790915561013e8054831673e7656e23fe8077d438aefbec2fabdf2d8e070c4f90811790915561013f8054841690911790556101408054831690911790556101418054821673524a89ed77d5827320e35e12bca96830c6b7960a9081179091556101428054831673f0d50568e3a7e8259e16663972b11910f89bd8e790811790915561014380548416909117905561014480549092161790558015610da0576000805461ff0019169055604051600181527f7f26b83ff96e1f2b6a682f133852f6798a09c465da95921460cefb3847402498906020016122d2565b612dc8613b8e565b6001600160a01b038116612e365760405162461bcd60e51b815260206004820152602f60248201527f54686520747265617375727920616464726573732063616e6e6f74206265207460448201526e6865207a65726f206164647265737360881b6064820152608401610abc565b610131546001600160a01b0390811690821603612ebb5760405162461bcd60e51b815260206004820152603860248201527f547265617375727920616464726573732068617320616c72656164792062656560448201527f6e206d6f64696669656420746f20746861742076616c756500000000000000006064820152608401610abc565b61013180546001600160a01b0319166001600160a01b0383169081179091556040519081527f2e1e696cfb265fa16e1170d24ef04cb2262772bde00ecf34d80bae6722487b7f906020016122d2565b612f12613b8e565b611eef614047565b6000806305f5e100612f2c84866145b3565b612f369190614946565b61012d54909250612f4b836305f5e1006145b3565b612f559190614946565b905061012e54821015612fda5760405162461bcd60e51b815260206004820152604160248201527f54686520616d6f756e7420746f20696e76657374206d7573742062652067726560448201527f61746572207468616e20746865206d696e696d756d2065737461626c697368656064820152601960fa1b608482015260a401610abc565b306000908152603360205260409020548111156130705760405162461bcd60e51b815260206004820152604860248201527f54686520696e766573746d656e74206d6164652072657475726e7320616e206160448201527f6d6f756e74206f6620485941582067726561746572207468616e2074686520616064820152677661696c61626c6560c01b608482015260a401610abc565b9250929050565b606060378054610ae290614476565b600033816130948286613952565b9050838110156130f45760405162461bcd60e51b815260206004820152602560248201527f45524332303a2064656372656173656420616c6c6f77616e63652062656c6f77604482015264207a65726f60d81b6064820152608401610abc565b610dbc8286868403613a6a565b600033610b73818585613d2f565b613117613b8e565b600081116131875760405162461bcd60e51b815260206004820152603760248201527f4e6577206d696e696d756e20616d6f756e7420746f20696e766573742c206d7560448201527673742062652067726561746572207468616e207a65726f60481b6064820152608401610abc565b61012e5481036132115760405162461bcd60e51b815260206004820152604960248201527f4d696e696d756d20696e766573746d656e7420616c6c6f77656420696e20555360448201527f442068617320616c7265616479206265656e206d6f64696669656420746f20746064820152686861742076616c756560b81b608482015260a401610abc565b61012f548111156132a15760405162461bcd60e51b815260206004820152604e60248201527f4e6577206d696e696d756e20616d6f756e7420746f20696e766573742c206d7560448201527f7374206265206c657373207468616e20746865206d6178696d756d20696e766560648201526d1cdd1b595b9d08185b1b1bddd95960921b608482015260a401610abc565b61012e8190556040518181527fee60eb8e40a2ec796bfe3ca896b9221af9764fc0987bf0508ca755266d9c85f8906020016122d2565b6132df613b8e565b61012d54810361334c5760405162461bcd60e51b815260206004820152603260248201527f485941582070726963652068617320616c7265616479206265656e206d6f64696044820152716669656420746f20746861742076616c756560701b6064820152608401610abc565b6207a1208110156133dc5760405162461bcd60e51b815260206004820152604e60248201527f5072696365206f66204859415820746f6b656e206d757374206265206174206c60448201527f656173742055534420302e3030352c207468617420697320353030303030207760648201526d697468203820646563696d616c7360901b608482015260a401610abc565b64174876e8008111156134755760405162461bcd60e51b815260206004820152605560248201527f5072696365206f66204859415820746f6b656e206d757374206265206174206d60448201527f6178696d756d2055534420313030302c2074686174206973203130303030303060648201527430303030302077697468203820646563696d616c7360581b608482015260a401610abc565b61012d8190556040518181527f4f6f7bbbb2b0dde2246ee6650672d1b55a5be5b52f8dd2e8d595f4bd47e1c913906020016122d2565b60c9546001600160a01b03163314806134cf5750610130546001600160a01b031633145b6134eb5760405162461bcd60e51b8152600401610abc9061473e565b6001600160a01b0382166135765760405162461bcd60e51b815260206004820152604660248201527f496e766573746f72206164647265737320746f2075706461746520626c61636b60448201527f6c697374207374617475732063616e6e6f7420626520746865207a65726f206160648201526564647265737360d01b608482015260a401610abc565b6001600160a01b0382166000908152610132602052604090205481151561010090910460ff161515036135bb5760405162461bcd60e51b8152600401610abc90614968565b6001600160a01b03821660008181526101326020908152604091829020805461ff00191661010086151590810291909117909155825133815291820193909352908101919091527f89a9c56967d4535d54c90bffd7cbd09f6d2a4c8e26b9e7f033f199d144e12b4e90606001611792565b60008080836004811115613642576136426145dd565b0361365a5750610134546001600160a01b0316613706565b600183600481111561366e5761366e6145dd565b036136865750610137546001600160a01b0316613706565b600283600481111561369a5761369a6145dd565b036136b2575061013b546001600160a01b0316613706565b60038360048111156136c6576136c66145dd565b036136de575061013f546001600160a01b0316613706565b60048360048111156136f2576136f26145dd565b036111c65750610143546001600160a01b03165b806001600160a01b031663feaf968c6040518163ffffffff1660e01b815260040160a060405180830381865afa925050508015613760575060408051601f3d908101601f1916820190925261375d918101906149df565b60015b6137cb5760405162461bcd60e51b815260206004820152603660248201527f54686572652077617320616e206572726f72206f627461696e696e67207468656044820152752070726963652066726f6d20746865206f7261636c6560501b6064820152608401610abc565b50919695505050505050565b50919050565b60c9546001600160a01b03163314806138015750610130546001600160a01b031633145b61381d5760405162461bcd60e51b8152600401610abc9061473e565b6001600160a01b0382166138a85760405162461bcd60e51b815260206004820152604660248201527f496e766573746f72206164647265737320746f2075706461746520776869746560448201527f6c697374207374617475732063616e6e6f7420626520746865207a65726f206160648201526564647265737360d01b608482015260a401610abc565b6001600160a01b0382166000908152610132602052604090205481151560ff9091161515036138e95760405162461bcd60e51b8152600401610abc90614968565b6001600160a01b03821660008181526101326020908152604091829020805460ff1916851515908117909155825133815291820193909352908101919091527f70bbee4e66e3fd40f7da099410cfd723ed4a0b4fec11f6cc968e850db827a88b90606001611792565b6001600160a01b03918216600090815260346020908152604080832093909416825291909152205490565b613985613b8e565b6001600160a01b0381166139ea5760405162461bcd60e51b815260206004820152602660248201527f4f776e61626c653a206e6577206f776e657220697320746865207a65726f206160448201526564647265737360d01b6064820152608401610abc565b306001600160a01b03821603613a615760405162461bcd60e51b815260206004820152603660248201527f4f776e61626c653a206e6577206f776e65722063616e6e6f74206265207468656044820152752073616d6520636f6e7472616374206164647265737360501b6064820152608401610abc565b610da081613f37565b6001600160a01b038316613acc5760405162461bcd60e51b8152602060048201526024808201527f45524332303a20617070726f76652066726f6d20746865207a65726f206164646044820152637265737360e01b6064820152608401610abc565b6001600160a01b038216613b2d5760405162461bcd60e51b815260206004820152602260248201527f45524332303a20617070726f766520746f20746865207a65726f206164647265604482015261737360f01b6064820152608401610abc565b6001600160a01b0383811660008181526034602090815260408083209487168084529482529182902085905590518481527f8c5be1e5ebec7d5bd14f71427d1e84f3dd0314c0f7b2291e5b200ac8c7c3b925910160405180910390a3505050565b60c9546001600160a01b03163314611eef5760405162461bcd60e51b815260206004820181905260248201527f4f776e61626c653a2063616c6c6572206973206e6f7420746865206f776e65726044820152606401610abc565b6001600160a01b038216613c3e5760405162461bcd60e51b815260206004820152601f60248201527f45524332303a206d696e7420746f20746865207a65726f2061646472657373006044820152606401610abc565b613c4a60008383614084565b8060356000828254613c5c91906145ca565b90915550506001600160a01b0382166000818152603360209081526040808320805486019055518481527fddf252ad1be2c89b69c2b068fc378daa952ba7f163c4a11628f55a4df523b3ef910160405180910390a35050565b6000613cc18484613952565b90506000198114613d295781811015613d1c5760405162461bcd60e51b815260206004820152601d60248201527f45524332303a20696e73756666696369656e7420616c6c6f77616e63650000006044820152606401610abc565b613d298484848403613a6a565b50505050565b6001600160a01b038316613d935760405162461bcd60e51b815260206004820152602560248201527f45524332303a207472616e736665722066726f6d20746865207a65726f206164604482015264647265737360d81b6064820152608401610abc565b6001600160a01b038216613df55760405162461bcd60e51b815260206004820152602360248201527f45524332303a207472616e7366657220746f20746865207a65726f206164647260448201526265737360e81b6064820152608401610abc565b613e00838383614084565b6001600160a01b03831660009081526033602052604090205481811015613e785760405162461bcd60e51b815260206004820152602660248201527f45524332303a207472616e7366657220616d6f756e7420657863656564732062604482015265616c616e636560d01b6064820152608401610abc565b6001600160a01b0380851660008181526033602052604080822086860390559286168082529083902080548601905591517fddf252ad1be2c89b69c2b068fc378daa952ba7f163c4a11628f55a4df523b3ef90613ed89086815260200190565b60405180910390a3613d29565b613eed6140ea565b6065805460ff191690557f5db9ee0a495bf2e6ff9c91a7834c1ba4fdd244a5e8aa4e537bd38aeae4b073aa335b6040516001600160a01b03909116815260200160405180910390a1565b60c980546001600160a01b038381166001600160a01b0319831681179093556040519116919082907f8be0079c531659141344cd1fd0a4f28419497f9722a3daafe3b4186f6b6457e090600090a35050565b600054610100900460ff16613fb05760405162461bcd60e51b8152600401610abc90614a2f565b611edb8282614133565b600054610100900460ff16613fe15760405162461bcd60e51b8152600401610abc90614a2f565b611eef614173565b600054610100900460ff166140105760405162461bcd60e51b8152600401610abc90614a2f565b611eef6141a3565b600054610100900460ff1661403f5760405162461bcd60e51b8152600401610abc90614a2f565b611eef6141ca565b61404f6141fd565b6065805460ff191660011790557f62e78cea01bee320cd4e420270b5ea74000d11b0c9f74754ebdbfc544b05a258613f1a3390565b60655460ff1615612a135760405162461bcd60e51b815260206004820152602a60248201527f45524332305061757361626c653a20746f6b656e207472616e736665722077686044820152691a5b19481c185d5cd95960b21b6064820152608401610abc565b60655460ff16611eef5760405162461bcd60e51b815260206004820152601460248201527314185d5cd8589b194e881b9bdd081c185d5cd95960621b6044820152606401610abc565b600054610100900460ff1661415a5760405162461bcd60e51b8152600401610abc90614a2f565b60366141668382614ac8565b506037612a138282614ac8565b600054610100900460ff1661419a5760405162461bcd60e51b8152600401610abc90614a2f565b611eef33613f37565b600054610100900460ff16610acc5760405162461bcd60e51b8152600401610abc90614a2f565b600054610100900460ff166141f15760405162461bcd60e51b8152600401610abc90614a2f565b6065805460ff19169055565b60655460ff1615611eef5760405162461bcd60e51b815260206004820152601060248201526f14185d5cd8589b194e881c185d5cd95960821b6044820152606401610abc565b60005b8381101561425e578181015183820152602001614246565b50506000910152565b6020815260008251806020840152614286816040850160208701614243565b601f01601f19169190910160400192915050565b80356001600160a01b03811681146142b157600080fd5b919050565b600080604083850312156142c957600080fd5b6142d28361429a565b946020939093013593505050565b6000602082840312156142f257600080fd5b5035919050565b60008060006060848603121561430e57600080fd5b6143178461429a565b92506143256020850161429a565b9150604084013590509250925092565b8035600581106142b157600080fd5b6000806040838503121561435757600080fd5b61436083614335565b915061436e6020840161429a565b90509250929050565b8015158114610da057600080fd5b6000806040838503121561439857600080fd5b6143a18361429a565b915060208301356143b181614377565b809150509250929050565b6000602082840312156143ce57600080fd5b6143d78261429a565b9392505050565b600080604083850312156143f157600080fd5b6142d283614335565b6000806040838503121561440d57600080fd5b8235915061436e6020840161429a565b6000806040838503121561443057600080fd5b50508035926020909101359150565b60006020828403121561445157600080fd5b6143d782614335565b6000806040838503121561446d57600080fd5b6143608361429a565b600181811c9082168061448a57607f821691505b6020821081036137d757634e487b7160e01b600052602260045260246000fd5b634e487b7160e01b600052601160045260246000fd5b600181815b808511156144fb5781600019048211156144e1576144e16144aa565b808516156144ee57918102915b93841c93908002906144c5565b509250929050565b60008261451257506001610b79565b8161451f57506000610b79565b8160018114614535576002811461453f5761455b565b6001915050610b79565b60ff841115614550576145506144aa565b50506001821b610b79565b5060208310610133831016604e8410600b841016171561457e575081810a610b79565b61458883836144c0565b806000190482111561459c5761459c6144aa565b029392505050565b60006143d760ff841683614503565b8082028115828204841417610b7957610b796144aa565b80820180821115610b7957610b796144aa565b634e487b7160e01b600052602160045260246000fd5b634e487b7160e01b600052604160045260246000fd5b60006020828403121561461b57600080fd5b815167ffffffffffffffff8082111561463357600080fd5b818401915084601f83011261464757600080fd5b815181811115614659576146596145f3565b604051601f8201601f19908116603f01168101908382118183101715614681576146816145f3565b8160405282815287602084870101111561469a57600080fd5b6146ab836020830160208801614243565b979650505050505050565b60208082526046908201527f546865206e6577206164647265737320646f6573206e6f74207365656d20746f60408201527f2062656c6f6e6720746f2074686520636f72726563742070726963652064617460608201526518481999595960d21b608082015260a00190565b60008251614734818460208701614243565b9190910192915050565b6020808252603f908201527f46756e6374696f6e207265736572766564206f6e6c7920666f7220746865207760408201527f686974656c69737465722061646472657373206f7220746865206f776e657200606082015260800190565b60208082526034908201527f496e766573746f72206164647265737320686173206e6f74206265656e206164604082015273191959081d1bc81d1a19481dda1a5d195b1a5cdd60621b606082015260800190565b60208082526030908201527f496e766573746f72206164647265737320686173206265656e2061646465642060408201526f1d1bc81d1a1948189b1858dadb1a5cdd60821b606082015260800190565b6005811061485d57634e487b7160e01b600052602160045260246000fd5b9052565b60208101610b79828461483f565b60006020828403121561488157600080fd5b5051919050565b60006020828403121561489a57600080fd5b81516143d781614377565b60208082526041908201527f54686572652077617320616e206572726f72206f6e2073656e64696e6720626160408201527f636b20746865204859415820546f6b656e20746f2074686520696e766573746f6060820152603960f91b608082015260a00190565b60a0810161491a828861483f565b6001600160a01b0395909516602082015260408101939093526060830191909152608090910152919050565b60008261496357634e487b7160e01b600052601260045260246000fd5b500490565b60208082526038908201527f496e766573746f7220616464726573732068617320616c72656164792062656560408201527f6e207570646174656420746f2074686174207374617475730000000000000000606082015260800190565b805169ffffffffffffffffffff811681146142b157600080fd5b600080600080600060a086880312156149f757600080fd5b614a00866149c5565b9450602086015193506040860151925060608601519150614a23608087016149c5565b90509295509295909350565b6020808252602b908201527f496e697469616c697a61626c653a20636f6e7472616374206973206e6f74206960408201526a6e697469616c697a696e6760a81b606082015260800190565b601f821115612a1357600081815260208120601f850160051c81016020861015614aa15750805b601f850160051c820191505b81811015614ac057828155600101614aad565b505050505050565b815167ffffffffffffffff811115614ae257614ae26145f3565b614af681614af08454614476565b84614a7a565b602080601f831160018114614b2b5760008415614b135750858301515b600019600386901b1c1916600185901b178555614ac0565b600085815260208120601f198616915b82811015614b5a57888601518255948401946001909101908401614b3b565b5085821015614b785787850151600019600388901b60f8161c191681555b5050505050600190811b0190555056fe616479206265656e206d6f64696669656420746f20746861742076616c756500a26469706673582212207f41749232b9534b7e0778fa5d84dec0cd253af05956d5f8a50b5d9a9156951364736f6c63430008140033","opcodes":"PUSH1 0x80 PUSH1 0x40 MSTORE CALLVALUE DUP1 ISZERO PUSH2 0x10 JUMPI PUSH1 0x0 DUP1 REVERT JUMPDEST POP PUSH2 0x4BDE DUP1 PUSH2 0x20 PUSH1 0x0 CODECOPY PUSH1 0x0 RETURN INVALID PUSH1 0x80 PUSH1 0x40 MSTORE PUSH1 0x4 CALLDATASIZE LT PUSH2 0x339 JUMPI PUSH1 0x0 CALLDATALOAD PUSH1 0xE0 SHR DUP1 PUSH4 0x70A08231 GT PUSH2 0x1AB JUMPI DUP1 PUSH4 0xA457C2D7 GT PUSH2 0xF7 JUMPI DUP1 PUSH4 0xC07732A3 GT PUSH2 0x95 JUMPI DUP1 PUSH4 0xDE1F5346 GT PUSH2 0x6F JUMPI DUP1 PUSH4 0xDE1F5346 EQ PUSH2 0x989 JUMPI DUP1 PUSH4 0xF2FDE38B EQ PUSH2 0xA0C JUMPI DUP1 PUSH4 0xF7A47F81 EQ PUSH2 0xA2C JUMPI DUP1 PUSH4 0xFB2DC76E EQ PUSH2 0xA4D JUMPI PUSH1 0x0 DUP1 REVERT JUMPDEST DUP1 PUSH4 0xC07732A3 EQ PUSH2 0x928 JUMPI DUP1 PUSH4 0xC5F956AF EQ PUSH2 0x948 JUMPI DUP1 PUSH4 0xDD62ED3E EQ PUSH2 0x969 JUMPI PUSH1 0x0 DUP1 REVERT JUMPDEST DUP1 PUSH4 0xB2C568F3 GT PUSH2 0xD1 JUMPI DUP1 PUSH4 0xB2C568F3 EQ PUSH2 0x8A8 JUMPI DUP1 PUSH4 0xB40ED449 EQ PUSH2 0x8C8 JUMPI DUP1 PUSH4 0xB8360806 EQ PUSH2 0x8E8 JUMPI DUP1 PUSH4 0xBB6F98FB EQ PUSH2 0x908 JUMPI PUSH1 0x0 DUP1 REVERT JUMPDEST DUP1 PUSH4 0xA457C2D7 EQ PUSH2 0x847 JUMPI DUP1 PUSH4 0xA9059CBB EQ PUSH2 0x867 JUMPI DUP1 PUSH4 0xA98AD46C EQ PUSH2 0x887 JUMPI PUSH1 0x0 DUP1 REVERT JUMPDEST DUP1 PUSH4 0x8129FC1C GT PUSH2 0x164 JUMPI DUP1 PUSH4 0x8C945E63 GT PUSH2 0x13E JUMPI DUP1 PUSH4 0x8C945E63 EQ PUSH2 0x7BE JUMPI DUP1 PUSH4 0x8DA5CB5B EQ PUSH2 0x7F3 JUMPI DUP1 PUSH4 0x95D89B41 EQ PUSH2 0x811 JUMPI DUP1 PUSH4 0x9D741E5D EQ PUSH2 0x826 JUMPI PUSH1 0x0 DUP1 REVERT JUMPDEST DUP1 PUSH4 0x8129FC1C EQ PUSH2 0x774 JUMPI DUP1 PUSH4 0x841E4561 EQ PUSH2 0x789 JUMPI DUP1 PUSH4 0x8456CB59 EQ PUSH2 0x7A9 JUMPI PUSH1 0x0 DUP1 REVERT JUMPDEST DUP1 PUSH4 0x70A08231 EQ PUSH2 0x6B1 JUMPI DUP1 PUSH4 0x715018A6 EQ PUSH2 0x6E7 JUMPI DUP1 PUSH4 0x731DE514 EQ PUSH2 0x6FC JUMPI DUP1 PUSH4 0x77B53ECE EQ PUSH2 0x71C JUMPI DUP1 PUSH4 0x8049BCB6 EQ PUSH2 0x73D JUMPI DUP1 PUSH4 0x8116DE2B EQ PUSH2 0x754 JUMPI PUSH1 0x0 DUP1 REVERT JUMPDEST DUP1 PUSH4 0x377C779F GT PUSH2 0x285 JUMPI DUP1 PUSH4 0x4B57B0BE GT PUSH2 0x223 JUMPI DUP1 PUSH4 0x5C975ABB GT PUSH2 0x1FD JUMPI DUP1 PUSH4 0x5C975ABB EQ PUSH2 0x638 JUMPI DUP1 PUSH4 0x5EC2562A EQ PUSH2 0x650 JUMPI DUP1 PUSH4 0x653C3A47 EQ PUSH2 0x670 JUMPI DUP1 PUSH4 0x65699D28 EQ PUSH2 0x690 JUMPI PUSH1 0x0 DUP1 REVERT JUMPDEST DUP1 PUSH4 0x4B57B0BE EQ PUSH2 0x5D5 JUMPI DUP1 PUSH4 0x4C526BDB EQ PUSH2 0x5F6 JUMPI DUP1 PUSH4 0x5AE9384E EQ PUSH2 0x617 JUMPI PUSH1 0x0 DUP1 REVERT JUMPDEST DUP1 PUSH4 0x3DE6F379 GT PUSH2 0x25F JUMPI DUP1 PUSH4 0x3DE6F379 EQ PUSH2 0x55F JUMPI DUP1 PUSH4 0x3F4BA83A EQ PUSH2 0x57F JUMPI DUP1 PUSH4 0x40B5EA9C EQ PUSH2 0x594 JUMPI DUP1 PUSH4 0x47EE0394 EQ PUSH2 0x5B5 JUMPI PUSH1 0x0 DUP1 REVERT JUMPDEST DUP1 PUSH4 0x377C779F EQ PUSH2 0x520 JUMPI DUP1 PUSH4 0x39509351 EQ PUSH2 0x537 JUMPI DUP1 PUSH4 0x3B14F359 EQ PUSH2 0x557 JUMPI PUSH1 0x0 DUP1 REVERT JUMPDEST DUP1 PUSH4 0x18160DDD GT PUSH2 0x2F2 JUMPI DUP1 PUSH4 0x27614DF8 GT PUSH2 0x2CC JUMPI DUP1 PUSH4 0x27614DF8 EQ PUSH2 0x4AC JUMPI DUP1 PUSH4 0x2A241AD3 EQ PUSH2 0x4CD JUMPI DUP1 PUSH4 0x313CE567 EQ PUSH2 0x4E4 JUMPI DUP1 PUSH4 0x367F44FB EQ PUSH2 0x500 JUMPI PUSH1 0x0 DUP1 REVERT JUMPDEST DUP1 PUSH4 0x18160DDD EQ PUSH2 0x44D JUMPI DUP1 PUSH4 0x23B872DD EQ PUSH2 0x46C JUMPI DUP1 PUSH4 0x23C66F9A EQ PUSH2 0x48C JUMPI PUSH1 0x0 DUP1 REVERT JUMPDEST DUP1 PUSH4 0x6FDDE03 EQ PUSH2 0x357 JUMPI DUP1 PUSH4 0x8CD468F EQ PUSH2 0x382 JUMPI DUP1 PUSH4 0x95EA7B3 EQ PUSH2 0x3BB JUMPI DUP1 PUSH4 0xF9DAD71 EQ PUSH2 0x3EB JUMPI DUP1 PUSH4 0x11EAC855 EQ PUSH2 0x40C JUMPI DUP1 PUSH4 0x128EF022 EQ PUSH2 0x42D JUMPI PUSH1 0x0 DUP1 REVERT JUMPDEST CALLDATASIZE PUSH2 0x352 JUMPI PUSH2 0x346 PUSH2 0xA6E JUMP JUMPDEST PUSH2 0x350 PUSH1 0x1 PUSH1 0xFB SSTORE JUMP JUMPDEST STOP JUMPDEST PUSH1 0x0 DUP1 REVERT JUMPDEST CALLVALUE DUP1 ISZERO PUSH2 0x363 JUMPI PUSH1 0x0 DUP1 REVERT JUMPDEST POP PUSH2 0x36C PUSH2 0xAD3 JUMP JUMPDEST PUSH1 0x40 MLOAD PUSH2 0x379 SWAP2 SWAP1 PUSH2 0x4267 JUMP JUMPDEST PUSH1 0x40 MLOAD DUP1 SWAP2 SUB SWAP1 RETURN JUMPDEST CALLVALUE DUP1 ISZERO PUSH2 0x38E JUMPI PUSH1 0x0 DUP1 REVERT JUMPDEST POP PUSH2 0x13A SLOAD PUSH2 0x3A3 SWAP1 PUSH1 0x1 PUSH1 0x1 PUSH1 0xA0 SHL SUB AND DUP2 JUMP JUMPDEST PUSH1 0x40 MLOAD PUSH1 0x1 PUSH1 0x1 PUSH1 0xA0 SHL SUB SWAP1 SWAP2 AND DUP2 MSTORE PUSH1 0x20 ADD PUSH2 0x379 JUMP JUMPDEST CALLVALUE DUP1 ISZERO PUSH2 0x3C7 JUMPI PUSH1 0x0 DUP1 REVERT JUMPDEST POP PUSH2 0x3DB PUSH2 0x3D6 CALLDATASIZE PUSH1 0x4 PUSH2 0x42B6 JUMP JUMPDEST PUSH2 0xB65 JUMP JUMPDEST PUSH1 0x40 MLOAD SWAP1 ISZERO ISZERO DUP2 MSTORE PUSH1 0x20 ADD PUSH2 0x379 JUMP JUMPDEST CALLVALUE DUP1 ISZERO PUSH2 0x3F7 JUMPI PUSH1 0x0 DUP1 REVERT JUMPDEST POP PUSH2 0x141 SLOAD PUSH2 0x3A3 SWAP1 PUSH1 0x1 PUSH1 0x1 PUSH1 0xA0 SHL SUB AND DUP2 JUMP JUMPDEST CALLVALUE DUP1 ISZERO PUSH2 0x418 JUMPI PUSH1 0x0 DUP1 REVERT JUMPDEST POP PUSH2 0x138 SLOAD PUSH2 0x3A3 SWAP1 PUSH1 0x1 PUSH1 0x1 PUSH1 0xA0 SHL SUB AND DUP2 JUMP JUMPDEST CALLVALUE DUP1 ISZERO PUSH2 0x439 JUMPI PUSH1 0x0 DUP1 REVERT JUMPDEST POP PUSH2 0x350 PUSH2 0x448 CALLDATASIZE PUSH1 0x4 PUSH2 0x42E0 JUMP JUMPDEST PUSH2 0xB7F JUMP JUMPDEST CALLVALUE DUP1 ISZERO PUSH2 0x459 JUMPI PUSH1 0x0 DUP1 REVERT JUMPDEST POP PUSH1 0x35 SLOAD JUMPDEST PUSH1 0x40 MLOAD SWAP1 DUP2 MSTORE PUSH1 0x20 ADD PUSH2 0x379 JUMP JUMPDEST CALLVALUE DUP1 ISZERO PUSH2 0x478 JUMPI PUSH1 0x0 DUP1 REVERT JUMPDEST POP PUSH2 0x3DB PUSH2 0x487 CALLDATASIZE PUSH1 0x4 PUSH2 0x42F9 JUMP JUMPDEST PUSH2 0xDA3 JUMP JUMPDEST CALLVALUE DUP1 ISZERO PUSH2 0x498 JUMPI PUSH1 0x0 DUP1 REVERT JUMPDEST POP PUSH2 0x350 PUSH2 0x4A7 CALLDATASIZE PUSH1 0x4 PUSH2 0x4344 JUMP JUMPDEST PUSH2 0xDC7 JUMP JUMPDEST CALLVALUE DUP1 ISZERO PUSH2 0x4B8 JUMPI PUSH1 0x0 DUP1 REVERT JUMPDEST POP PUSH2 0x140 SLOAD PUSH2 0x3A3 SWAP1 PUSH1 0x1 PUSH1 0x1 PUSH1 0xA0 SHL SUB AND DUP2 JUMP JUMPDEST CALLVALUE DUP1 ISZERO PUSH2 0x4D9 JUMPI PUSH1 0x0 DUP1 REVERT JUMPDEST POP PUSH2 0x45E PUSH2 0x12E SLOAD DUP2 JUMP JUMPDEST CALLVALUE DUP1 ISZERO PUSH2 0x4F0 JUMPI PUSH1 0x0 DUP1 REVERT JUMPDEST POP PUSH1 0x40 MLOAD PUSH1 0x12 DUP2 MSTORE PUSH1 0x20 ADD PUSH2 0x379 JUMP JUMPDEST CALLVALUE DUP1 ISZERO PUSH2 0x50C JUMPI PUSH1 0x0 DUP1 REVERT JUMPDEST POP PUSH2 0x350 PUSH2 0x51B CALLDATASIZE PUSH1 0x4 PUSH2 0x4385 JUMP JUMPDEST PUSH2 0x1524 JUMP JUMPDEST CALLVALUE DUP1 ISZERO PUSH2 0x52C JUMPI PUSH1 0x0 DUP1 REVERT JUMPDEST POP PUSH2 0x45E PUSH2 0x12D SLOAD DUP2 JUMP JUMPDEST CALLVALUE DUP1 ISZERO PUSH2 0x543 JUMPI PUSH1 0x0 DUP1 REVERT JUMPDEST POP PUSH2 0x3DB PUSH2 0x552 CALLDATASIZE PUSH1 0x4 PUSH2 0x42B6 JUMP JUMPDEST PUSH2 0x179E JUMP JUMPDEST PUSH2 0x3DB PUSH2 0x17C0 JUMP JUMPDEST CALLVALUE DUP1 ISZERO PUSH2 0x56B JUMPI PUSH1 0x0 DUP1 REVERT JUMPDEST POP PUSH2 0x350 PUSH2 0x57A CALLDATASIZE PUSH1 0x4 PUSH2 0x4344 JUMP JUMPDEST PUSH2 0x1A85 JUMP JUMPDEST CALLVALUE DUP1 ISZERO PUSH2 0x58B JUMPI PUSH1 0x0 DUP1 REVERT JUMPDEST POP PUSH2 0x350 PUSH2 0x1EDF JUMP JUMPDEST CALLVALUE DUP1 ISZERO PUSH2 0x5A0 JUMPI PUSH1 0x0 DUP1 REVERT JUMPDEST POP PUSH2 0x136 SLOAD PUSH2 0x3A3 SWAP1 PUSH1 0x1 PUSH1 0x1 PUSH1 0xA0 SHL SUB AND DUP2 JUMP JUMPDEST CALLVALUE DUP1 ISZERO PUSH2 0x5C1 JUMPI PUSH1 0x0 DUP1 REVERT JUMPDEST POP PUSH2 0x350 PUSH2 0x5D0 CALLDATASIZE PUSH1 0x4 PUSH2 0x43BC JUMP JUMPDEST PUSH2 0x1EF1 JUMP JUMPDEST CALLVALUE DUP1 ISZERO PUSH2 0x5E1 JUMPI PUSH1 0x0 DUP1 REVERT JUMPDEST POP PUSH2 0x144 SLOAD PUSH2 0x3A3 SWAP1 PUSH1 0x1 PUSH1 0x1 PUSH1 0xA0 SHL SUB AND DUP2 JUMP JUMPDEST CALLVALUE DUP1 ISZERO PUSH2 0x602 JUMPI PUSH1 0x0 DUP1 REVERT JUMPDEST POP PUSH2 0x13D SLOAD PUSH2 0x3A3 SWAP1 PUSH1 0x1 PUSH1 0x1 PUSH1 0xA0 SHL SUB AND DUP2 JUMP JUMPDEST CALLVALUE DUP1 ISZERO PUSH2 0x623 JUMPI PUSH1 0x0 DUP1 REVERT JUMPDEST POP PUSH2 0x142 SLOAD PUSH2 0x3A3 SWAP1 PUSH1 0x1 PUSH1 0x1 PUSH1 0xA0 SHL SUB AND DUP2 JUMP JUMPDEST CALLVALUE DUP1 ISZERO PUSH2 0x644 JUMPI PUSH1 0x0 DUP1 REVERT JUMPDEST POP PUSH1 0x65 SLOAD PUSH1 0xFF AND PUSH2 0x3DB JUMP JUMPDEST CALLVALUE DUP1 ISZERO PUSH2 0x65C JUMPI PUSH1 0x0 DUP1 REVERT JUMPDEST POP PUSH2 0x350 PUSH2 0x66B CALLDATASIZE PUSH1 0x4 PUSH2 0x42E0 JUMP JUMPDEST PUSH2 0x210F JUMP JUMPDEST CALLVALUE DUP1 ISZERO PUSH2 0x67C JUMPI PUSH1 0x0 DUP1 REVERT JUMPDEST POP PUSH2 0x350 PUSH2 0x68B CALLDATASIZE PUSH1 0x4 PUSH2 0x43BC JUMP JUMPDEST PUSH2 0x22DD JUMP JUMPDEST CALLVALUE DUP1 ISZERO PUSH2 0x69C JUMPI PUSH1 0x0 DUP1 REVERT JUMPDEST POP PUSH2 0x130 SLOAD PUSH2 0x3A3 SWAP1 PUSH1 0x1 PUSH1 0x1 PUSH1 0xA0 SHL SUB AND DUP2 JUMP JUMPDEST CALLVALUE DUP1 ISZERO PUSH2 0x6BD JUMPI PUSH1 0x0 DUP1 REVERT JUMPDEST POP PUSH2 0x45E PUSH2 0x6CC CALLDATASIZE PUSH1 0x4 PUSH2 0x43BC JUMP JUMPDEST PUSH1 0x1 PUSH1 0x1 PUSH1 0xA0 SHL SUB AND PUSH1 0x0 SWAP1 DUP2 MSTORE PUSH1 0x33 PUSH1 0x20 MSTORE PUSH1 0x40 SWAP1 KECCAK256 SLOAD SWAP1 JUMP JUMPDEST CALLVALUE DUP1 ISZERO PUSH2 0x6F3 JUMPI PUSH1 0x0 DUP1 REVERT JUMPDEST POP PUSH2 0x350 PUSH2 0x242A JUMP JUMPDEST CALLVALUE DUP1 ISZERO PUSH2 0x708 JUMPI PUSH1 0x0 DUP1 REVERT JUMPDEST POP PUSH2 0x3DB PUSH2 0x717 CALLDATASIZE PUSH1 0x4 PUSH2 0x43DE JUMP JUMPDEST PUSH2 0x243C JUMP JUMPDEST CALLVALUE DUP1 ISZERO PUSH2 0x728 JUMPI PUSH1 0x0 DUP1 REVERT JUMPDEST POP PUSH2 0x135 SLOAD PUSH2 0x3A3 SWAP1 PUSH1 0x1 PUSH1 0x1 PUSH1 0xA0 SHL SUB AND DUP2 JUMP JUMPDEST CALLVALUE DUP1 ISZERO PUSH2 0x749 JUMPI PUSH1 0x0 DUP1 REVERT JUMPDEST POP PUSH2 0x45E PUSH2 0x12F SLOAD DUP2 JUMP JUMPDEST CALLVALUE DUP1 ISZERO PUSH2 0x760 JUMPI PUSH1 0x0 DUP1 REVERT JUMPDEST POP PUSH2 0x350 PUSH2 0x76F CALLDATASIZE PUSH1 0x4 PUSH2 0x43FA JUMP JUMPDEST PUSH2 0x293F JUMP JUMPDEST CALLVALUE DUP1 ISZERO PUSH2 0x780 JUMPI PUSH1 0x0 DUP1 REVERT JUMPDEST POP PUSH2 0x350 PUSH2 0x2A18 JUMP JUMPDEST CALLVALUE DUP1 ISZERO PUSH2 0x795 JUMPI PUSH1 0x0 DUP1 REVERT JUMPDEST POP PUSH2 0x350 PUSH2 0x7A4 CALLDATASIZE PUSH1 0x4 PUSH2 0x43BC JUMP JUMPDEST PUSH2 0x2DC0 JUMP JUMPDEST CALLVALUE DUP1 ISZERO PUSH2 0x7B5 JUMPI PUSH1 0x0 DUP1 REVERT JUMPDEST POP PUSH2 0x350 PUSH2 0x2F0A JUMP JUMPDEST CALLVALUE DUP1 ISZERO PUSH2 0x7CA JUMPI PUSH1 0x0 DUP1 REVERT JUMPDEST POP PUSH2 0x7DE PUSH2 0x7D9 CALLDATASIZE PUSH1 0x4 PUSH2 0x441D JUMP JUMPDEST PUSH2 0x2F1A JUMP JUMPDEST PUSH1 0x40 DUP1 MLOAD SWAP3 DUP4 MSTORE PUSH1 0x20 DUP4 ADD SWAP2 SWAP1 SWAP2 MSTORE ADD PUSH2 0x379 JUMP JUMPDEST CALLVALUE DUP1 ISZERO PUSH2 0x7FF JUMPI PUSH1 0x0 DUP1 REVERT JUMPDEST POP PUSH1 0xC9 SLOAD PUSH1 0x1 PUSH1 0x1 PUSH1 0xA0 SHL SUB AND PUSH2 0x3A3 JUMP JUMPDEST CALLVALUE DUP1 ISZERO PUSH2 0x81D JUMPI PUSH1 0x0 DUP1 REVERT JUMPDEST POP PUSH2 0x36C PUSH2 0x3077 JUMP JUMPDEST CALLVALUE DUP1 ISZERO PUSH2 0x832 JUMPI PUSH1 0x0 DUP1 REVERT JUMPDEST POP PUSH2 0x139 SLOAD PUSH2 0x3A3 SWAP1 PUSH1 0x1 PUSH1 0x1 PUSH1 0xA0 SHL SUB AND DUP2 JUMP JUMPDEST CALLVALUE DUP1 ISZERO PUSH2 0x853 JUMPI PUSH1 0x0 DUP1 REVERT JUMPDEST POP PUSH2 0x3DB PUSH2 0x862 CALLDATASIZE PUSH1 0x4 PUSH2 0x42B6 JUMP JUMPDEST PUSH2 0x3086 JUMP JUMPDEST CALLVALUE DUP1 ISZERO PUSH2 0x873 JUMPI PUSH1 0x0 DUP1 REVERT JUMPDEST POP PUSH2 0x3DB PUSH2 0x882 CALLDATASIZE PUSH1 0x4 PUSH2 0x42B6 JUMP JUMPDEST PUSH2 0x3101 JUMP JUMPDEST CALLVALUE DUP1 ISZERO PUSH2 0x893 JUMPI PUSH1 0x0 DUP1 REVERT JUMPDEST POP PUSH2 0x13C SLOAD PUSH2 0x3A3 SWAP1 PUSH1 0x1 PUSH1 0x1 PUSH1 0xA0 SHL SUB AND DUP2 JUMP JUMPDEST CALLVALUE DUP1 ISZERO PUSH2 0x8B4 JUMPI PUSH1 0x0 DUP1 REVERT JUMPDEST POP PUSH2 0x350 PUSH2 0x8C3 CALLDATASIZE PUSH1 0x4 PUSH2 0x42E0 JUMP JUMPDEST PUSH2 0x310F JUMP JUMPDEST CALLVALUE DUP1 ISZERO PUSH2 0x8D4 JUMPI PUSH1 0x0 DUP1 REVERT JUMPDEST POP PUSH2 0x350 PUSH2 0x8E3 CALLDATASIZE PUSH1 0x4 PUSH2 0x42E0 JUMP JUMPDEST PUSH2 0x32D7 JUMP JUMPDEST CALLVALUE DUP1 ISZERO PUSH2 0x8F4 JUMPI PUSH1 0x0 DUP1 REVERT JUMPDEST POP PUSH2 0x350 PUSH2 0x903 CALLDATASIZE PUSH1 0x4 PUSH2 0x4385 JUMP JUMPDEST PUSH2 0x34AB JUMP JUMPDEST CALLVALUE DUP1 ISZERO PUSH2 0x914 JUMPI PUSH1 0x0 DUP1 REVERT JUMPDEST POP PUSH2 0x45E PUSH2 0x923 CALLDATASIZE PUSH1 0x4 PUSH2 0x443F JUMP JUMPDEST PUSH2 0x362C JUMP JUMPDEST CALLVALUE DUP1 ISZERO PUSH2 0x934 JUMPI PUSH1 0x0 DUP1 REVERT JUMPDEST POP PUSH2 0x350 PUSH2 0x943 CALLDATASIZE PUSH1 0x4 PUSH2 0x4385 JUMP JUMPDEST PUSH2 0x37DD JUMP JUMPDEST CALLVALUE DUP1 ISZERO PUSH2 0x954 JUMPI PUSH1 0x0 DUP1 REVERT JUMPDEST POP PUSH2 0x131 SLOAD PUSH2 0x3A3 SWAP1 PUSH1 0x1 PUSH1 0x1 PUSH1 0xA0 SHL SUB AND DUP2 JUMP JUMPDEST CALLVALUE DUP1 ISZERO PUSH2 0x975 JUMPI PUSH1 0x0 DUP1 REVERT JUMPDEST POP PUSH2 0x45E PUSH2 0x984 CALLDATASIZE PUSH1 0x4 PUSH2 0x445A JUMP JUMPDEST PUSH2 0x3952 JUMP JUMPDEST CALLVALUE DUP1 ISZERO PUSH2 0x995 JUMPI PUSH1 0x0 DUP1 REVERT JUMPDEST POP PUSH2 0x9DB PUSH2 0x9A4 CALLDATASIZE PUSH1 0x4 PUSH2 0x43BC JUMP JUMPDEST PUSH2 0x132 PUSH1 0x20 MSTORE PUSH1 0x0 SWAP1 DUP2 MSTORE PUSH1 0x40 SWAP1 KECCAK256 DUP1 SLOAD PUSH1 0x1 DUP3 ADD SLOAD PUSH1 0x2 SWAP1 SWAP3 ADD SLOAD PUSH1 0xFF DUP1 DUP4 AND SWAP4 PUSH2 0x100 DUP5 DIV DUP3 AND SWAP4 PUSH3 0x10000 SWAP1 DIV SWAP1 SWAP2 AND SWAP2 DUP6 JUMP JUMPDEST PUSH1 0x40 MLOAD PUSH2 0x379 SWAP6 SWAP5 SWAP4 SWAP3 SWAP2 SWAP1 SWAP5 ISZERO ISZERO DUP6 MSTORE SWAP3 ISZERO ISZERO PUSH1 0x20 DUP6 ADD MSTORE SWAP1 ISZERO ISZERO PUSH1 0x40 DUP5 ADD MSTORE PUSH1 0x60 DUP4 ADD MSTORE PUSH1 0x80 DUP3 ADD MSTORE PUSH1 0xA0 ADD SWAP1 JUMP JUMPDEST CALLVALUE DUP1 ISZERO PUSH2 0xA18 JUMPI PUSH1 0x0 DUP1 REVERT JUMPDEST POP PUSH2 0x350 PUSH2 0xA27 CALLDATASIZE PUSH1 0x4 PUSH2 0x43BC JUMP JUMPDEST PUSH2 0x397D JUMP JUMPDEST CALLVALUE DUP1 ISZERO PUSH2 0xA38 JUMPI PUSH1 0x0 DUP1 REVERT JUMPDEST POP PUSH2 0x13E SLOAD PUSH2 0x3A3 SWAP1 PUSH1 0x1 PUSH1 0x1 PUSH1 0xA0 SHL SUB AND DUP2 JUMP JUMPDEST CALLVALUE DUP1 ISZERO PUSH2 0xA59 JUMPI PUSH1 0x0 DUP1 REVERT JUMPDEST POP PUSH2 0x133 SLOAD PUSH2 0x3A3 SWAP1 PUSH1 0x1 PUSH1 0x1 PUSH1 0xA0 SHL SUB AND DUP2 JUMP JUMPDEST PUSH1 0x2 PUSH1 0xFB SLOAD SUB PUSH2 0xAC5 JUMPI PUSH1 0x40 MLOAD PUSH3 0x461BCD PUSH1 0xE5 SHL DUP2 MSTORE PUSH1 0x20 PUSH1 0x4 DUP3 ADD MSTORE PUSH1 0x1F PUSH1 0x24 DUP3 ADD MSTORE PUSH32 0x5265656E7472616E637947756172643A207265656E7472616E742063616C6C00 PUSH1 0x44 DUP3 ADD MSTORE PUSH1 0x64 ADD JUMPDEST PUSH1 0x40 MLOAD DUP1 SWAP2 SUB SWAP1 REVERT JUMPDEST PUSH1 0x2 PUSH1 0xFB SSTORE JUMP JUMPDEST PUSH1 0x1 PUSH1 0xFB SSTORE JUMP JUMPDEST PUSH1 0x60 PUSH1 0x36 DUP1 SLOAD PUSH2 0xAE2 SWAP1 PUSH2 0x4476 JUMP JUMPDEST DUP1 PUSH1 0x1F ADD PUSH1 0x20 DUP1 SWAP2 DIV MUL PUSH1 0x20 ADD PUSH1 0x40 MLOAD SWAP1 DUP2 ADD PUSH1 0x40 MSTORE DUP1 SWAP3 SWAP2 SWAP1 DUP2 DUP2 MSTORE PUSH1 0x20 ADD DUP3 DUP1 SLOAD PUSH2 0xB0E SWAP1 PUSH2 0x4476 JUMP JUMPDEST DUP1 ISZERO PUSH2 0xB5B JUMPI DUP1 PUSH1 0x1F LT PUSH2 0xB30 JUMPI PUSH2 0x100 DUP1 DUP4 SLOAD DIV MUL DUP4 MSTORE SWAP2 PUSH1 0x20 ADD SWAP2 PUSH2 0xB5B JUMP JUMPDEST DUP3 ADD SWAP2 SWAP1 PUSH1 0x0 MSTORE PUSH1 0x20 PUSH1 0x0 KECCAK256 SWAP1 JUMPDEST DUP2 SLOAD DUP2 MSTORE SWAP1 PUSH1 0x1 ADD SWAP1 PUSH1 0x20 ADD DUP1 DUP4 GT PUSH2 0xB3E JUMPI DUP3 SWAP1 SUB PUSH1 0x1F AND DUP3 ADD SWAP2 JUMPDEST POP POP POP POP POP SWAP1 POP SWAP1 JUMP JUMPDEST PUSH1 0x0 CALLER PUSH2 0xB73 DUP2 DUP6 DUP6 PUSH2 0x3A6A JUMP JUMPDEST PUSH1 0x1 SWAP2 POP POP JUMPDEST SWAP3 SWAP2 POP POP JUMP JUMPDEST PUSH2 0xB87 PUSH2 0x3B8E JUMP JUMPDEST PUSH2 0xB8F PUSH2 0xA6E JUMP JUMPDEST PUSH2 0xB9B PUSH1 0x12 PUSH1 0xA PUSH2 0x45A4 JUMP JUMPDEST DUP2 LT ISZERO PUSH2 0xC10 JUMPI PUSH1 0x40 MLOAD PUSH3 0x461BCD PUSH1 0xE5 SHL DUP2 MSTORE PUSH1 0x20 PUSH1 0x4 DUP3 ADD MSTORE PUSH1 0x37 PUSH1 0x24 DUP3 ADD MSTORE PUSH32 0x416D6F756E74206F66204859415820746F6B656E7320746F206973737565206D PUSH1 0x44 DUP3 ADD MSTORE PUSH32 0x757374206265206174206C65617374203120746F6B656E000000000000000000 PUSH1 0x64 DUP3 ADD MSTORE PUSH1 0x84 ADD PUSH2 0xABC JUMP JUMPDEST PUSH2 0xC1C PUSH1 0x12 PUSH1 0xA PUSH2 0x45A4 JUMP JUMPDEST PUSH2 0xC2A SWAP1 PUSH4 0x3B9ACA00 PUSH2 0x45B3 JUMP JUMPDEST DUP2 GT ISZERO PUSH2 0xC9F JUMPI PUSH1 0x40 MLOAD PUSH3 0x461BCD PUSH1 0xE5 SHL DUP2 MSTORE PUSH1 0x20 PUSH1 0x4 DUP3 ADD MSTORE PUSH1 0x3F PUSH1 0x24 DUP3 ADD MSTORE PUSH32 0x416D6F756E74206F66204859415820746F6B656E7320746F2069737375652061 PUSH1 0x44 DUP3 ADD MSTORE PUSH32 0x7420612074696D65206D757374206265206D6178696D756D2031303030204D00 PUSH1 0x64 DUP3 ADD MSTORE PUSH1 0x84 ADD PUSH2 0xABC JUMP JUMPDEST PUSH2 0xCAB PUSH1 0x12 PUSH1 0xA PUSH2 0x45A4 JUMP JUMPDEST PUSH2 0xCBA SWAP1 PUSH5 0x2540BE400 PUSH2 0x45B3 JUMP JUMPDEST DUP2 PUSH2 0xCC4 PUSH1 0x35 SLOAD SWAP1 JUMP JUMPDEST PUSH2 0xCCE SWAP2 SWAP1 PUSH2 0x45CA JUMP JUMPDEST GT ISZERO PUSH2 0xD42 JUMPI PUSH1 0x40 MLOAD PUSH3 0x461BCD PUSH1 0xE5 SHL DUP2 MSTORE PUSH1 0x20 PUSH1 0x4 DUP3 ADD MSTORE PUSH1 0x3B PUSH1 0x24 DUP3 ADD MSTORE PUSH32 0x416D6F756E74206F66204859415820746F6B656E7320746F2069737375652073 PUSH1 0x44 DUP3 ADD MSTORE PUSH32 0x75727061736573207468652031302C303030204D20746F6B656E730000000000 PUSH1 0x64 DUP3 ADD MSTORE PUSH1 0x84 ADD PUSH2 0xABC JUMP JUMPDEST PUSH2 0xD5D PUSH2 0xD57 PUSH1 0xC9 SLOAD PUSH1 0x1 PUSH1 0x1 PUSH1 0xA0 SHL SUB AND SWAP1 JUMP JUMPDEST DUP3 PUSH2 0x3BE8 JUMP JUMPDEST PUSH1 0x40 DUP1 MLOAD CALLER DUP2 MSTORE PUSH1 0x20 DUP2 ADD DUP4 SWAP1 MSTORE PUSH32 0x455064BBF1374D9E833B8D9DB24C56B24DBF79CC1A94A30665CAE7093963D5A8 SWAP2 ADD PUSH1 0x40 MLOAD DUP1 SWAP2 SUB SWAP1 LOG1 PUSH2 0xDA0 PUSH1 0x1 PUSH1 0xFB SSTORE JUMP JUMPDEST POP JUMP JUMPDEST PUSH1 0x0 CALLER PUSH2 0xDB1 DUP6 DUP3 DUP6 PUSH2 0x3CB5 JUMP JUMPDEST PUSH2 0xDBC DUP6 DUP6 DUP6 PUSH2 0x3D2F JUMP JUMPDEST POP PUSH1 0x1 SWAP5 SWAP4 POP POP POP POP JUMP JUMPDEST PUSH2 0xDCF PUSH2 0x3B8E JUMP JUMPDEST PUSH1 0x1 PUSH1 0x1 PUSH1 0xA0 SHL SUB DUP2 AND PUSH2 0xE44 JUMPI PUSH1 0x40 MLOAD PUSH3 0x461BCD PUSH1 0xE5 SHL DUP2 MSTORE PUSH1 0x20 PUSH1 0x4 DUP3 ADD MSTORE PUSH1 0x36 PUSH1 0x24 DUP3 ADD MSTORE PUSH32 0x5468652070726963652064617461206665656420616464726573732063616E6E PUSH1 0x44 DUP3 ADD MSTORE PUSH22 0x6F7420626520746865207A65726F2061646472657373 PUSH1 0x50 SHL PUSH1 0x64 DUP3 ADD MSTORE PUSH1 0x84 ADD PUSH2 0xABC JUMP JUMPDEST DUP1 PUSH1 0x0 DUP1 DUP1 DUP6 PUSH1 0x4 DUP2 GT ISZERO PUSH2 0xE5B JUMPI PUSH2 0xE5B PUSH2 0x45DD JUMP JUMPDEST SUB PUSH2 0xF1F JUMPI PUSH2 0x133 SLOAD PUSH1 0x1 PUSH1 0x1 PUSH1 0xA0 SHL SUB SWAP1 DUP2 AND SWAP1 DUP6 AND SUB PUSH2 0xEE7 JUMPI PUSH1 0x40 DUP1 MLOAD PUSH3 0x461BCD PUSH1 0xE5 SHL DUP2 MSTORE PUSH1 0x20 PUSH1 0x4 DUP3 ADD MSTORE PUSH1 0x24 DUP2 ADD SWAP2 SWAP1 SWAP2 MSTORE PUSH32 0x4D41544943207072696365206665656420616464726573732068617320616C72 PUSH1 0x44 DUP3 ADD MSTORE PUSH32 0x65616479206265656E206D6F64696669656420746F20746861742076616C7565 PUSH1 0x64 DUP3 ADD MSTORE PUSH1 0x84 ADD PUSH2 0xABC JUMP JUMPDEST PUSH1 0x40 MLOAD PUSH11 0x1350551250C80BC81554D1 PUSH1 0xAA SHL PUSH1 0x20 DUP3 ADD MSTORE PUSH1 0x2B ADD JUMPDEST PUSH1 0x40 MLOAD PUSH1 0x20 DUP2 DUP4 SUB SUB DUP2 MSTORE SWAP1 PUSH1 0x40 MSTORE DUP1 MLOAD SWAP1 PUSH1 0x20 ADD KECCAK256 SWAP2 POP PUSH2 0x1203 JUMP JUMPDEST PUSH1 0x1 DUP6 PUSH1 0x4 DUP2 GT ISZERO PUSH2 0xF33 JUMPI PUSH2 0xF33 PUSH2 0x45DD JUMP JUMPDEST SUB PUSH2 0xFC9 JUMPI PUSH2 0x136 SLOAD PUSH1 0x1 PUSH1 0x1 PUSH1 0xA0 SHL SUB SWAP1 DUP2 AND SWAP1 DUP6 AND SUB PUSH2 0xFAB JUMPI PUSH1 0x40 MLOAD PUSH3 0x461BCD PUSH1 0xE5 SHL DUP2 MSTORE PUSH1 0x20 PUSH1 0x4 DUP3 ADD MSTORE PUSH1 0x3F PUSH1 0x24 DUP3 ADD MSTORE PUSH32 0x55534443207072696365206665656420616464726573732068617320616C7265 PUSH1 0x44 DUP3 ADD MSTORE PUSH1 0x0 DUP1 MLOAD PUSH1 0x20 PUSH2 0x4B89 DUP4 CODECOPY DUP2 MLOAD SWAP2 MSTORE PUSH1 0x64 DUP3 ADD MSTORE PUSH1 0x84 ADD PUSH2 0xABC JUMP JUMPDEST PUSH1 0x40 MLOAD PUSH10 0x1554D110C80BC81554D1 PUSH1 0xB2 SHL PUSH1 0x20 DUP3 ADD MSTORE PUSH1 0x2A ADD PUSH2 0xF02 JUMP JUMPDEST PUSH1 0x2 DUP6 PUSH1 0x4 DUP2 GT ISZERO PUSH2 0xFDD JUMPI PUSH2 0xFDD PUSH2 0x45DD JUMP JUMPDEST SUB PUSH2 0x1073 JUMPI PUSH2 0x13A SLOAD PUSH1 0x1 PUSH1 0x1 PUSH1 0xA0 SHL SUB SWAP1 DUP2 AND SWAP1 DUP6 AND SUB PUSH2 0x1055 JUMPI PUSH1 0x40 MLOAD PUSH3 0x461BCD PUSH1 0xE5 SHL DUP2 MSTORE PUSH1 0x20 PUSH1 0x4 DUP3 ADD MSTORE PUSH1 0x3F PUSH1 0x24 DUP3 ADD MSTORE PUSH32 0x55534454207072696365206665656420616464726573732068617320616C7265 PUSH1 0x44 DUP3 ADD MSTORE PUSH1 0x0 DUP1 MLOAD PUSH1 0x20 PUSH2 0x4B89 DUP4 CODECOPY DUP2 MLOAD SWAP2 MSTORE PUSH1 0x64 DUP3 ADD MSTORE PUSH1 0x84 ADD PUSH2 0xABC JUMP JUMPDEST PUSH1 0x40 MLOAD PUSH10 0x1554D115080BC81554D1 PUSH1 0xB2 SHL PUSH1 0x20 DUP3 ADD MSTORE PUSH1 0x2A ADD PUSH2 0xF02 JUMP JUMPDEST PUSH1 0x3 DUP6 PUSH1 0x4 DUP2 GT ISZERO PUSH2 0x1087 JUMPI PUSH2 0x1087 PUSH2 0x45DD JUMP JUMPDEST SUB PUSH2 0x111D JUMPI PUSH2 0x13E SLOAD PUSH1 0x1 PUSH1 0x1 PUSH1 0xA0 SHL SUB SWAP1 DUP2 AND SWAP1 DUP6 AND SUB PUSH2 0x10FF JUMPI PUSH1 0x40 MLOAD PUSH3 0x461BCD PUSH1 0xE5 SHL DUP2 MSTORE PUSH1 0x20 PUSH1 0x4 DUP3 ADD MSTORE PUSH1 0x3F PUSH1 0x24 DUP3 ADD MSTORE PUSH32 0x57425443207072696365206665656420616464726573732068617320616C7265 PUSH1 0x44 DUP3 ADD MSTORE PUSH1 0x0 DUP1 MLOAD PUSH1 0x20 PUSH2 0x4B89 DUP4 CODECOPY DUP2 MLOAD SWAP2 MSTORE PUSH1 0x64 DUP3 ADD MSTORE PUSH1 0x84 ADD PUSH2 0xABC JUMP JUMPDEST PUSH1 0x40 MLOAD PUSH10 0x15D09510C80BC81554D1 PUSH1 0xB2 SHL PUSH1 0x20 DUP3 ADD MSTORE PUSH1 0x2A ADD PUSH2 0xF02 JUMP JUMPDEST PUSH1 0x4 DUP6 PUSH1 0x4 DUP2 GT ISZERO PUSH2 0x1131 JUMPI PUSH2 0x1131 PUSH2 0x45DD JUMP JUMPDEST SUB PUSH2 0x11C6 JUMPI PUSH2 0x142 SLOAD PUSH1 0x1 PUSH1 0x1 PUSH1 0xA0 SHL SUB SWAP1 DUP2 AND SWAP1 DUP6 AND SUB PUSH2 0x11A9 JUMPI PUSH1 0x40 MLOAD PUSH3 0x461BCD PUSH1 0xE5 SHL DUP2 MSTORE PUSH1 0x20 PUSH1 0x4 DUP3 ADD MSTORE PUSH1 0x3F PUSH1 0x24 DUP3 ADD MSTORE PUSH32 0x57455448207072696365206665656420616464726573732068617320616C7265 PUSH1 0x44 DUP3 ADD MSTORE PUSH1 0x0 DUP1 MLOAD PUSH1 0x20 PUSH2 0x4B89 DUP4 CODECOPY DUP2 MLOAD SWAP2 MSTORE PUSH1 0x64 DUP3 ADD MSTORE PUSH1 0x84 ADD PUSH2 0xABC JUMP JUMPDEST PUSH1 0x40 MLOAD PUSH9 0x115512080BC81554D1 PUSH1 0xBA SHL PUSH1 0x20 DUP3 ADD MSTORE PUSH1 0x29 ADD PUSH2 0xF02 JUMP JUMPDEST PUSH1 0x40 MLOAD PUSH3 0x461BCD PUSH1 0xE5 SHL DUP2 MSTORE PUSH1 0x20 PUSH1 0x4 DUP3 ADD MSTORE PUSH1 0x12 PUSH1 0x24 DUP3 ADD MSTORE PUSH18 0x496E76616C696420746F6B656E2074797065 PUSH1 0x70 SHL PUSH1 0x44 DUP3 ADD MSTORE PUSH1 0x64 ADD PUSH2 0xABC JUMP JUMPDEST DUP3 PUSH1 0x1 PUSH1 0x1 PUSH1 0xA0 SHL SUB AND PUSH4 0x7284E416 PUSH1 0x40 MLOAD DUP2 PUSH4 0xFFFFFFFF AND PUSH1 0xE0 SHL DUP2 MSTORE PUSH1 0x4 ADD PUSH1 0x0 PUSH1 0x40 MLOAD DUP1 DUP4 SUB DUP2 DUP7 GAS STATICCALL SWAP3 POP POP POP DUP1 ISZERO PUSH2 0x1262 JUMPI POP PUSH1 0x40 MLOAD RETURNDATASIZE PUSH1 0x0 DUP3 RETURNDATACOPY PUSH1 0x1F RETURNDATASIZE SWAP1 DUP2 ADD PUSH1 0x1F NOT AND DUP3 ADD PUSH1 0x40 MSTORE PUSH2 0x125F SWAP2 SWAP1 DUP2 ADD SWAP1 PUSH2 0x4609 JUMP JUMPDEST PUSH1 0x1 JUMPDEST PUSH2 0x127E JUMPI PUSH1 0x40 MLOAD PUSH3 0x461BCD PUSH1 0xE5 SHL DUP2 MSTORE PUSH1 0x4 ADD PUSH2 0xABC SWAP1 PUSH2 0x46B6 JUMP JUMPDEST DUP1 PUSH1 0x40 MLOAD PUSH1 0x20 ADD PUSH2 0x128F SWAP2 SWAP1 PUSH2 0x4722 JUMP JUMPDEST PUSH1 0x40 MLOAD PUSH1 0x20 DUP2 DUP4 SUB SUB DUP2 MSTORE SWAP1 PUSH1 0x40 MSTORE DUP1 MLOAD SWAP1 PUSH1 0x20 ADD KECCAK256 SWAP2 POP DUP2 DUP4 EQ PUSH2 0x12C6 JUMPI PUSH1 0x40 MLOAD PUSH3 0x461BCD PUSH1 0xE5 SHL DUP2 MSTORE PUSH1 0x4 ADD PUSH2 0xABC SWAP1 PUSH2 0x46B6 JUMP JUMPDEST POP PUSH1 0x0 DUP6 PUSH1 0x4 DUP2 GT ISZERO PUSH2 0x12DB JUMPI PUSH2 0x12DB PUSH2 0x45DD JUMP JUMPDEST SUB PUSH2 0x1345 JUMPI PUSH2 0x133 DUP1 SLOAD PUSH1 0x1 PUSH1 0x1 PUSH1 0xA0 SHL SUB DUP7 AND PUSH1 0x1 PUSH1 0x1 PUSH1 0xA0 SHL SUB NOT SWAP2 DUP3 AND DUP2 OR SWAP1 SWAP3 SSTORE PUSH2 0x134 DUP1 SLOAD SWAP1 SWAP2 AND DUP3 OR SWAP1 SSTORE PUSH1 0x40 MLOAD SWAP1 DUP2 MSTORE PUSH32 0xEE9BC8D900B5D69F934EC4A3986B3BFDA61ADD54821456C3F7E943E87CF48F52 SWAP1 PUSH1 0x20 ADD JUMPDEST PUSH1 0x40 MLOAD DUP1 SWAP2 SUB SWAP1 LOG1 PUSH2 0x151D JUMP JUMPDEST PUSH1 0x1 DUP6 PUSH1 0x4 DUP2 GT ISZERO PUSH2 0x1359 JUMPI PUSH2 0x1359 PUSH2 0x45DD JUMP JUMPDEST SUB PUSH2 0x13BA JUMPI PUSH2 0x136 DUP1 SLOAD PUSH1 0x1 PUSH1 0x1 PUSH1 0xA0 SHL SUB DUP7 AND PUSH1 0x1 PUSH1 0x1 PUSH1 0xA0 SHL SUB NOT SWAP2 DUP3 AND DUP2 OR SWAP1 SWAP3 SSTORE PUSH2 0x137 DUP1 SLOAD SWAP1 SWAP2 AND DUP3 OR SWAP1 SSTORE PUSH1 0x40 MLOAD SWAP1 DUP2 MSTORE PUSH32 0xA0BC5DADD9D9C881861F6DA8998BEBEF8EABCB5F3D6651187C5D1899E327965 SWAP1 PUSH1 0x20 ADD PUSH2 0x1338 JUMP JUMPDEST PUSH1 0x2 DUP6 PUSH1 0x4 DUP2 GT ISZERO PUSH2 0x13CE JUMPI PUSH2 0x13CE PUSH2 0x45DD JUMP JUMPDEST SUB PUSH2 0x142F JUMPI PUSH2 0x13A DUP1 SLOAD PUSH1 0x1 PUSH1 0x1 PUSH1 0xA0 SHL SUB DUP7 AND PUSH1 0x1 PUSH1 0x1 PUSH1 0xA0 SHL SUB NOT SWAP2 DUP3 AND DUP2 OR SWAP1 SWAP3 SSTORE PUSH2 0x13B DUP1 SLOAD SWAP1 SWAP2 AND DUP3 OR SWAP1 SSTORE PUSH1 0x40 MLOAD SWAP1 DUP2 MSTORE PUSH32 0x1E5BFE0B7FE6FCDC586B9E3A4FBDC0BDB1346D36173963BA38C897137BA16031 SWAP1 PUSH1 0x20 ADD PUSH2 0x1338 JUMP JUMPDEST PUSH1 0x3 DUP6 PUSH1 0x4 DUP2 GT ISZERO PUSH2 0x1443 JUMPI PUSH2 0x1443 PUSH2 0x45DD JUMP JUMPDEST SUB PUSH2 0x14A4 JUMPI PUSH2 0x13E DUP1 SLOAD PUSH1 0x1 PUSH1 0x1 PUSH1 0xA0 SHL SUB DUP7 AND PUSH1 0x1 PUSH1 0x1 PUSH1 0xA0 SHL SUB NOT SWAP2 DUP3 AND DUP2 OR SWAP1 SWAP3 SSTORE PUSH2 0x13F DUP1 SLOAD SWAP1 SWAP2 AND DUP3 OR SWAP1 SSTORE PUSH1 0x40 MLOAD SWAP1 DUP2 MSTORE PUSH32 0x2171C3CFA3D86551D618C9DA7164A608DD795715BF61402D9CCB45CF5433A076 SWAP1 PUSH1 0x20 ADD PUSH2 0x1338 JUMP JUMPDEST PUSH1 0x4 DUP6 PUSH1 0x4 DUP2 GT ISZERO PUSH2 0x14B8 JUMPI PUSH2 0x14B8 PUSH2 0x45DD JUMP JUMPDEST SUB PUSH2 0x151D JUMPI PUSH2 0x142 DUP1 SLOAD PUSH1 0x1 PUSH1 0x1 PUSH1 0xA0 SHL SUB DUP7 AND PUSH1 0x1 PUSH1 0x1 PUSH1 0xA0 SHL SUB NOT SWAP2 DUP3 AND DUP2 OR SWAP1 SWAP3 SSTORE PUSH2 0x143 DUP1 SLOAD SWAP1 SWAP2 AND DUP3 OR SWAP1 SSTORE PUSH1 0x40 MLOAD SWAP1 DUP2 MSTORE PUSH32 0xC21BE1E8C8D6DE83E19AD6DE75CD885EEFAC75BE87E532A0A04D02147004E520 SWAP1 PUSH1 0x20 ADD PUSH1 0x40 MLOAD DUP1 SWAP2 SUB SWAP1 LOG1 JUMPDEST POP POP POP POP POP JUMP JUMPDEST PUSH1 0xC9 SLOAD PUSH1 0x1 PUSH1 0x1 PUSH1 0xA0 SHL SUB AND CALLER EQ DUP1 PUSH2 0x1548 JUMPI POP PUSH2 0x130 SLOAD PUSH1 0x1 PUSH1 0x1 PUSH1 0xA0 SHL SUB AND CALLER EQ JUMPDEST PUSH2 0x1564 JUMPI PUSH1 0x40 MLOAD PUSH3 0x461BCD PUSH1 0xE5 SHL DUP2 MSTORE PUSH1 0x4 ADD PUSH2 0xABC SWAP1 PUSH2 0x473E JUMP JUMPDEST PUSH1 0x1 PUSH1 0x1 PUSH1 0xA0 SHL SUB DUP3 AND PUSH2 0x15F8 JUMPI PUSH1 0x40 MLOAD PUSH3 0x461BCD PUSH1 0xE5 SHL DUP2 MSTORE PUSH1 0x20 PUSH1 0x4 DUP3 ADD MSTORE PUSH1 0x4F PUSH1 0x24 DUP3 ADD MSTORE PUSH32 0x496E766573746F72206164647265737320746F20757064617465207175616C69 PUSH1 0x44 DUP3 ADD MSTORE PUSH32 0x6669656420696E766573746F72207374617475732063616E6E6F742062652074 PUSH1 0x64 DUP3 ADD MSTORE PUSH15 0x6865207A65726F2061646472657373 PUSH1 0x88 SHL PUSH1 0x84 DUP3 ADD MSTORE PUSH1 0xA4 ADD PUSH2 0xABC JUMP JUMPDEST PUSH1 0x1 PUSH1 0x1 PUSH1 0xA0 SHL SUB DUP3 AND PUSH1 0x0 SWAP1 DUP2 MSTORE PUSH2 0x132 PUSH1 0x20 MSTORE PUSH1 0x40 SWAP1 KECCAK256 SLOAD PUSH1 0xFF AND PUSH2 0x1687 JUMPI PUSH1 0x40 MLOAD PUSH3 0x461BCD PUSH1 0xE5 SHL DUP2 MSTORE PUSH1 0x20 PUSH1 0x4 DUP3 ADD MSTORE PUSH1 0x3E PUSH1 0x24 DUP3 ADD MSTORE PUSH32 0x496E766573746F722061646472657373206D7573742062652066697273742061 PUSH1 0x44 DUP3 ADD MSTORE PUSH32 0x6464656420746F2074686520696E766573746F722077686974656C6973740000 PUSH1 0x64 DUP3 ADD MSTORE PUSH1 0x84 ADD PUSH2 0xABC JUMP JUMPDEST PUSH1 0x1 PUSH1 0x1 PUSH1 0xA0 SHL SUB DUP3 AND PUSH1 0x0 SWAP1 DUP2 MSTORE PUSH2 0x132 PUSH1 0x20 MSTORE PUSH1 0x40 SWAP1 KECCAK256 SLOAD DUP2 ISZERO ISZERO PUSH3 0x10000 SWAP1 SWAP2 DIV PUSH1 0xFF AND ISZERO ISZERO SUB PUSH2 0x1723 JUMPI PUSH1 0x40 MLOAD PUSH3 0x461BCD PUSH1 0xE5 SHL DUP2 MSTORE PUSH1 0x20 PUSH1 0x4 DUP3 ADD MSTORE PUSH1 0x3D PUSH1 0x24 DUP3 ADD MSTORE PUSH32 0x5468617420696E766573746F7220616464726573732068617320616C72656164 PUSH1 0x44 DUP3 ADD MSTORE PUSH32 0x79206265656E207570646174656420746F207468617420737461747573000000 PUSH1 0x64 DUP3 ADD MSTORE PUSH1 0x84 ADD PUSH2 0xABC JUMP JUMPDEST PUSH1 0x1 PUSH1 0x1 PUSH1 0xA0 SHL SUB DUP3 AND PUSH1 0x0 DUP2 DUP2 MSTORE PUSH2 0x132 PUSH1 0x20 SWAP1 DUP2 MSTORE PUSH1 0x40 SWAP2 DUP3 SWAP1 KECCAK256 DUP1 SLOAD PUSH3 0xFF0000 NOT AND PUSH3 0x10000 DUP7 ISZERO ISZERO SWAP1 DUP2 MUL SWAP2 SWAP1 SWAP2 OR SWAP1 SWAP2 SSTORE DUP3 MLOAD CALLER DUP2 MSTORE SWAP2 DUP3 ADD SWAP4 SWAP1 SWAP4 MSTORE SWAP1 DUP2 ADD SWAP2 SWAP1 SWAP2 MSTORE PUSH32 0x3C53852FBEA2A3E8D261E1A5412FCD1099CD0AF0FAF615DB2A4CAB4831106256 SWAP1 PUSH1 0x60 ADD JUMPDEST PUSH1 0x40 MLOAD DUP1 SWAP2 SUB SWAP1 LOG1 POP POP JUMP JUMPDEST PUSH1 0x0 CALLER PUSH2 0xB73 DUP2 DUP6 DUP6 PUSH2 0x17B1 DUP4 DUP4 PUSH2 0x3952 JUMP JUMPDEST PUSH2 0x17BB SWAP2 SWAP1 PUSH2 0x45CA JUMP JUMPDEST PUSH2 0x3A6A JUMP JUMPDEST CALLER PUSH1 0x0 SWAP1 DUP2 MSTORE PUSH2 0x132 PUSH1 0x20 MSTORE PUSH1 0x40 DUP2 KECCAK256 SLOAD PUSH1 0xFF AND PUSH2 0x17F0 JUMPI PUSH1 0x40 MLOAD PUSH3 0x461BCD PUSH1 0xE5 SHL DUP2 MSTORE PUSH1 0x4 ADD PUSH2 0xABC SWAP1 PUSH2 0x479B JUMP JUMPDEST CALLER PUSH1 0x0 SWAP1 DUP2 MSTORE PUSH2 0x132 PUSH1 0x20 MSTORE PUSH1 0x40 SWAP1 KECCAK256 SLOAD PUSH2 0x100 SWAP1 DIV PUSH1 0xFF AND ISZERO PUSH2 0x1826 JUMPI PUSH1 0x40 MLOAD PUSH3 0x461BCD PUSH1 0xE5 SHL DUP2 MSTORE PUSH1 0x4 ADD PUSH2 0xABC SWAP1 PUSH2 0x47EF JUMP JUMPDEST PUSH2 0x182E PUSH2 0xA6E JUMP JUMPDEST PUSH1 0x0 DUP1 PUSH2 0x18A3 CALLVALUE ADDRESS PUSH1 0x1 PUSH1 0x1 PUSH1 0xA0 SHL SUB AND PUSH4 0xBB6F98FB PUSH1 0x0 PUSH1 0x40 MLOAD DUP3 PUSH4 0xFFFFFFFF AND PUSH1 0xE0 SHL DUP2 MSTORE PUSH1 0x4 ADD PUSH2 0x1862 SWAP2 SWAP1 PUSH2 0x4861 JUMP JUMPDEST PUSH1 0x20 PUSH1 0x40 MLOAD DUP1 DUP4 SUB DUP2 DUP7 GAS STATICCALL ISZERO DUP1 ISZERO PUSH2 0x187F JUMPI RETURNDATASIZE PUSH1 0x0 DUP1 RETURNDATACOPY RETURNDATASIZE PUSH1 0x0 REVERT JUMPDEST POP POP POP POP PUSH1 0x40 MLOAD RETURNDATASIZE PUSH1 0x1F NOT PUSH1 0x1F DUP3 ADD AND DUP3 ADD DUP1 PUSH1 0x40 MSTORE POP DUP2 ADD SWAP1 PUSH2 0x7D9 SWAP2 SWAP1 PUSH2 0x486F JUMP JUMPDEST SWAP2 POP SWAP2 POP PUSH2 0x18B1 DUP3 CALLER PUSH2 0x293F JUMP JUMPDEST PUSH2 0x131 SLOAD PUSH1 0x40 MLOAD PUSH1 0x1 PUSH1 0x1 PUSH1 0xA0 SHL SUB SWAP1 SWAP2 AND SWAP1 CALLVALUE DUP1 ISZERO PUSH2 0x8FC MUL SWAP2 PUSH1 0x0 DUP2 DUP2 DUP2 DUP6 DUP9 DUP9 CALL SWAP4 POP POP POP POP PUSH2 0x1957 JUMPI PUSH1 0x40 MLOAD PUSH3 0x461BCD PUSH1 0xE5 SHL DUP2 MSTORE PUSH1 0x20 PUSH1 0x4 DUP3 ADD MSTORE PUSH1 0x42 PUSH1 0x24 DUP3 ADD MSTORE PUSH32 0x54686572652077617320616E206572726F72206F6E2073656E64696E67207468 PUSH1 0x44 DUP3 ADD MSTORE PUSH32 0x65204D4154494320696E766573746D656E7420746F2074686520747265617375 PUSH1 0x64 DUP3 ADD MSTORE PUSH2 0x7279 PUSH1 0xF0 SHL PUSH1 0x84 DUP3 ADD MSTORE PUSH1 0xA4 ADD PUSH2 0xABC JUMP JUMPDEST PUSH1 0x40 MLOAD PUSH4 0xA9059CBB PUSH1 0xE0 SHL DUP2 MSTORE CALLER PUSH1 0x4 DUP3 ADD MSTORE PUSH1 0x24 DUP2 ADD DUP3 SWAP1 MSTORE ADDRESS SWAP1 PUSH4 0xA9059CBB SWAP1 PUSH1 0x44 ADD PUSH1 0x20 PUSH1 0x40 MLOAD DUP1 DUP4 SUB DUP2 PUSH1 0x0 DUP8 GAS CALL ISZERO DUP1 ISZERO PUSH2 0x199B JUMPI RETURNDATASIZE PUSH1 0x0 DUP1 RETURNDATACOPY RETURNDATASIZE PUSH1 0x0 REVERT JUMPDEST POP POP POP POP PUSH1 0x40 MLOAD RETURNDATASIZE PUSH1 0x1F NOT PUSH1 0x1F DUP3 ADD AND DUP3 ADD DUP1 PUSH1 0x40 MSTORE POP DUP2 ADD SWAP1 PUSH2 0x19BF SWAP2 SWAP1 PUSH2 0x4888 JUMP JUMPDEST PUSH2 0x19DB JUMPI PUSH1 0x40 MLOAD PUSH3 0x461BCD PUSH1 0xE5 SHL DUP2 MSTORE PUSH1 0x4 ADD PUSH2 0xABC SWAP1 PUSH2 0x48A5 JUMP JUMPDEST CALLER PUSH1 0x0 SWAP1 DUP2 MSTORE PUSH2 0x132 PUSH1 0x20 MSTORE PUSH1 0x40 DUP2 KECCAK256 PUSH1 0x2 ADD DUP1 SLOAD DUP5 SWAP3 SWAP1 PUSH2 0x19FE SWAP1 DUP5 SWAP1 PUSH2 0x45CA JUMP JUMPDEST SWAP1 SWAP2 SSTORE POP POP CALLER PUSH1 0x0 SWAP1 DUP2 MSTORE PUSH2 0x132 PUSH1 0x20 MSTORE PUSH1 0x40 DUP2 KECCAK256 PUSH1 0x1 ADD DUP1 SLOAD DUP4 SWAP3 SWAP1 PUSH2 0x1A26 SWAP1 DUP5 SWAP1 PUSH2 0x45CA JUMP JUMPDEST SWAP1 SWAP2 SSTORE POP POP PUSH1 0x40 DUP1 MLOAD CALLER DUP2 MSTORE CALLVALUE PUSH1 0x20 DUP3 ADD MSTORE SWAP1 DUP2 ADD DUP4 SWAP1 MSTORE PUSH1 0x60 DUP2 ADD DUP3 SWAP1 MSTORE PUSH32 0xE036CB252631BB3E3FBCB1AA359DD09F94F0DAC1FE6DE828E8BAE3F5028331C5 SWAP1 PUSH1 0x80 ADD PUSH1 0x40 MLOAD DUP1 SWAP2 SUB SWAP1 LOG1 PUSH1 0x1 SWAP3 POP POP POP PUSH2 0x1A82 PUSH1 0x1 PUSH1 0xFB SSTORE JUMP JUMPDEST SWAP1 JUMP JUMPDEST PUSH2 0x1A8D PUSH2 0x3B8E JUMP JUMPDEST PUSH1 0x1 PUSH1 0x1 PUSH1 0xA0 SHL SUB DUP2 AND PUSH2 0x1AF8 JUMPI PUSH1 0x40 MLOAD PUSH3 0x461BCD PUSH1 0xE5 SHL DUP2 MSTORE PUSH1 0x20 PUSH1 0x4 DUP3 ADD MSTORE PUSH1 0x2C PUSH1 0x24 DUP3 ADD MSTORE PUSH32 0x54686520746F6B656E20616464726573732063616E6E6F742062652074686520 PUSH1 0x44 DUP3 ADD MSTORE PUSH12 0x7A65726F2061646472657373 PUSH1 0xA0 SHL PUSH1 0x64 DUP3 ADD MSTORE PUSH1 0x84 ADD PUSH2 0xABC JUMP JUMPDEST PUSH1 0x1 DUP3 PUSH1 0x4 DUP2 GT ISZERO PUSH2 0x1B0C JUMPI PUSH2 0x1B0C PUSH2 0x45DD JUMP JUMPDEST SUB PUSH2 0x1BF6 JUMPI PUSH2 0x135 SLOAD PUSH1 0x1 PUSH1 0x1 PUSH1 0xA0 SHL SUB SWAP1 DUP2 AND SWAP1 DUP3 AND SUB PUSH2 0x1B93 JUMPI PUSH1 0x40 MLOAD PUSH3 0x461BCD PUSH1 0xE5 SHL DUP2 MSTORE PUSH1 0x20 PUSH1 0x4 DUP3 ADD MSTORE PUSH1 0x3A PUSH1 0x24 DUP3 ADD MSTORE PUSH32 0x5553444320746F6B656E20616464726573732068617320616C72656164792062 PUSH1 0x44 DUP3 ADD MSTORE PUSH26 0x65656E206D6F64696669656420746F20746861742076616C7565 PUSH1 0x30 SHL PUSH1 0x64 DUP3 ADD MSTORE PUSH1 0x84 ADD PUSH2 0xABC JUMP JUMPDEST PUSH2 0x135 DUP1 SLOAD PUSH1 0x1 PUSH1 0x1 PUSH1 0xA0 SHL SUB DUP4 AND PUSH1 0x1 PUSH1 0x1 PUSH1 0xA0 SHL SUB NOT SWAP2 DUP3 AND DUP2 OR SWAP1 SWAP3 SSTORE PUSH2 0x138 DUP1 SLOAD SWAP1 SWAP2 AND DUP3 OR SWAP1 SSTORE PUSH1 0x40 MLOAD SWAP1 DUP2 MSTORE PUSH32 0x8B3F52C1D10699944EBEE74EE29DCA11C9C86BB0DBEDEF4ABD6E737F613D4D3A SWAP1 PUSH1 0x20 ADD PUSH1 0x40 MLOAD DUP1 SWAP2 SUB SWAP1 LOG1 POP POP JUMP JUMPDEST PUSH1 0x2 DUP3 PUSH1 0x4 DUP2 GT ISZERO PUSH2 0x1C0A JUMPI PUSH2 0x1C0A PUSH2 0x45DD JUMP JUMPDEST SUB PUSH2 0x1CED JUMPI PUSH2 0x139 SLOAD PUSH1 0x1 PUSH1 0x1 PUSH1 0xA0 SHL SUB SWAP1 DUP2 AND SWAP1 DUP3 AND SUB PUSH2 0x1C91 JUMPI PUSH1 0x40 MLOAD PUSH3 0x461BCD PUSH1 0xE5 SHL DUP2 MSTORE PUSH1 0x20 PUSH1 0x4 DUP3 ADD MSTORE PUSH1 0x3A PUSH1 0x24 DUP3 ADD MSTORE PUSH32 0x5553445420746F6B656E20616464726573732068617320616C72656164792062 PUSH1 0x44 DUP3 ADD MSTORE PUSH26 0x65656E206D6F64696669656420746F20746861742076616C7565 PUSH1 0x30 SHL PUSH1 0x64 DUP3 ADD MSTORE PUSH1 0x84 ADD PUSH2 0xABC JUMP JUMPDEST PUSH2 0x139 DUP1 SLOAD PUSH1 0x1 PUSH1 0x1 PUSH1 0xA0 SHL SUB DUP4 AND PUSH1 0x1 PUSH1 0x1 PUSH1 0xA0 SHL SUB NOT SWAP2 DUP3 AND DUP2 OR SWAP1 SWAP3 SSTORE PUSH2 0x13C DUP1 SLOAD SWAP1 SWAP2 AND DUP3 OR SWAP1 SSTORE PUSH1 0x40 MLOAD SWAP1 DUP2 MSTORE PUSH32 0x1C2D8A05BE2C8ECA524D44CC224513D7E19CA97AC309C3E23BEE450F8578CA19 SWAP1 PUSH1 0x20 ADD PUSH2 0x1792 JUMP JUMPDEST PUSH1 0x3 DUP3 PUSH1 0x4 DUP2 GT ISZERO PUSH2 0x1D01 JUMPI PUSH2 0x1D01 PUSH2 0x45DD JUMP JUMPDEST SUB PUSH2 0x1DE4 JUMPI PUSH2 0x13D SLOAD PUSH1 0x1 PUSH1 0x1 PUSH1 0xA0 SHL SUB SWAP1 DUP2 AND SWAP1 DUP3 AND SUB PUSH2 0x1D88 JUMPI PUSH1 0x40 MLOAD PUSH3 0x461BCD PUSH1 0xE5 SHL DUP2 MSTORE PUSH1 0x20 PUSH1 0x4 DUP3 ADD MSTORE PUSH1 0x3A PUSH1 0x24 DUP3 ADD MSTORE PUSH32 0x5742544320746F6B656E20616464726573732068617320616C72656164792062 PUSH1 0x44 DUP3 ADD MSTORE PUSH26 0x65656E206D6F64696669656420746F20746861742076616C7565 PUSH1 0x30 SHL PUSH1 0x64 DUP3 ADD MSTORE PUSH1 0x84 ADD PUSH2 0xABC JUMP JUMPDEST PUSH2 0x13D DUP1 SLOAD PUSH1 0x1 PUSH1 0x1 PUSH1 0xA0 SHL SUB DUP4 AND PUSH1 0x1 PUSH1 0x1 PUSH1 0xA0 SHL SUB NOT SWAP2 DUP3 AND DUP2 OR SWAP1 SWAP3 SSTORE PUSH2 0x140 DUP1 SLOAD SWAP1 SWAP2 AND DUP3 OR SWAP1 SSTORE PUSH1 0x40 MLOAD SWAP1 DUP2 MSTORE PUSH32 0x95082F719648371F180CA4F9BAD55A2AE7C2D029BBF93E360584CA6EA06327EA SWAP1 PUSH1 0x20 ADD PUSH2 0x1792 JUMP JUMPDEST PUSH1 0x4 DUP3 PUSH1 0x4 DUP2 GT ISZERO PUSH2 0x1DF8 JUMPI PUSH2 0x1DF8 PUSH2 0x45DD JUMP JUMPDEST SUB PUSH2 0x11C6 JUMPI PUSH2 0x141 SLOAD PUSH1 0x1 PUSH1 0x1 PUSH1 0xA0 SHL SUB SWAP1 DUP2 AND SWAP1 DUP3 AND SUB PUSH2 0x1E7F JUMPI PUSH1 0x40 MLOAD PUSH3 0x461BCD PUSH1 0xE5 SHL DUP2 MSTORE PUSH1 0x20 PUSH1 0x4 DUP3 ADD MSTORE PUSH1 0x3A PUSH1 0x24 DUP3 ADD MSTORE PUSH32 0x5745544820746F6B656E20616464726573732068617320616C72656164792062 PUSH1 0x44 DUP3 ADD MSTORE PUSH26 0x65656E206D6F64696669656420746F20746861742076616C7565 PUSH1 0x30 SHL PUSH1 0x64 DUP3 ADD MSTORE PUSH1 0x84 ADD PUSH2 0xABC JUMP JUMPDEST PUSH2 0x141 DUP1 SLOAD PUSH1 0x1 PUSH1 0x1 PUSH1 0xA0 SHL SUB DUP4 AND PUSH1 0x1 PUSH1 0x1 PUSH1 0xA0 SHL SUB NOT SWAP2 DUP3 AND DUP2 OR SWAP1 SWAP3 SSTORE PUSH2 0x144 DUP1 SLOAD SWAP1 SWAP2 AND DUP3 OR SWAP1 SSTORE PUSH1 0x40 MLOAD SWAP1 DUP2 MSTORE PUSH32 0xF5FD160F565AC0E80215E9ECED5AFBFCD47389E99858FAC6A3D93F2EC38FF6D6 SWAP1 PUSH1 0x20 ADD PUSH2 0x1792 JUMP JUMPDEST POP POP JUMP JUMPDEST PUSH2 0x1EE7 PUSH2 0x3B8E JUMP JUMPDEST PUSH2 0x1EEF PUSH2 0x3EE5 JUMP JUMPDEST JUMP JUMPDEST PUSH1 0xC9 SLOAD PUSH1 0x1 PUSH1 0x1 PUSH1 0xA0 SHL SUB AND CALLER EQ DUP1 PUSH2 0x1F15 JUMPI POP PUSH2 0x130 SLOAD PUSH1 0x1 PUSH1 0x1 PUSH1 0xA0 SHL SUB AND CALLER EQ JUMPDEST PUSH2 0x1F31 JUMPI PUSH1 0x40 MLOAD PUSH3 0x461BCD PUSH1 0xE5 SHL DUP2 MSTORE PUSH1 0x4 ADD PUSH2 0xABC SWAP1 PUSH2 0x473E JUMP JUMPDEST PUSH1 0x1 PUSH1 0x1 PUSH1 0xA0 SHL SUB DUP2 AND PUSH2 0x1FB9 JUMPI PUSH1 0x40 MLOAD PUSH3 0x461BCD PUSH1 0xE5 SHL DUP2 MSTORE PUSH1 0x20 PUSH1 0x4 DUP3 ADD MSTORE PUSH1 0x43 PUSH1 0x24 DUP3 ADD MSTORE PUSH32 0x496E766573746F72206164647265737320746F2061646420746F207468652077 PUSH1 0x44 DUP3 ADD MSTORE PUSH32 0x686974656C6973742063616E6E6F7420626520746865207A65726F2061646472 PUSH1 0x64 DUP3 ADD MSTORE PUSH3 0x657373 PUSH1 0xE8 SHL PUSH1 0x84 DUP3 ADD MSTORE PUSH1 0xA4 ADD PUSH2 0xABC JUMP JUMPDEST PUSH1 0x1 PUSH1 0x1 PUSH1 0xA0 SHL SUB DUP2 AND PUSH1 0x0 SWAP1 DUP2 MSTORE PUSH2 0x132 PUSH1 0x20 MSTORE PUSH1 0x40 SWAP1 KECCAK256 SLOAD PUSH1 0xFF AND ISZERO PUSH2 0x2049 JUMPI PUSH1 0x40 MLOAD PUSH3 0x461BCD PUSH1 0xE5 SHL DUP2 MSTORE PUSH1 0x20 PUSH1 0x4 DUP3 ADD MSTORE PUSH1 0x3D PUSH1 0x24 DUP3 ADD MSTORE PUSH32 0x5468617420696E766573746F7220616464726573732068617320616C72656164 PUSH1 0x44 DUP3 ADD MSTORE PUSH32 0x79206265656E20616464656420746F207468652077686974656C697374000000 PUSH1 0x64 DUP3 ADD MSTORE PUSH1 0x84 ADD PUSH2 0xABC JUMP JUMPDEST PUSH1 0x40 DUP1 MLOAD PUSH1 0xA0 DUP2 ADD DUP3 MSTORE PUSH1 0x0 PUSH1 0x20 DUP1 DUP4 ADD DUP3 DUP2 MSTORE DUP4 DUP6 ADD DUP4 DUP2 MSTORE PUSH1 0x60 DUP6 ADD DUP5 DUP2 MSTORE PUSH1 0x80 DUP7 ADD DUP6 DUP2 MSTORE PUSH1 0x1 DUP1 DUP9 MSTORE PUSH1 0x1 PUSH1 0x1 PUSH1 0xA0 SHL SUB DUP11 AND DUP1 DUP9 MSTORE PUSH2 0x132 DUP8 MSTORE SWAP7 DUP10 SWAP1 KECCAK256 DUP9 MLOAD DUP2 SLOAD SWAP7 MLOAD SWAP6 MLOAD ISZERO ISZERO PUSH3 0x10000 MUL PUSH3 0xFF0000 NOT SWAP7 ISZERO ISZERO PUSH2 0x100 MUL PUSH2 0xFF00 NOT SWAP3 ISZERO ISZERO SWAP3 SWAP1 SWAP3 AND PUSH2 0xFFFF NOT SWAP1 SWAP9 AND SWAP8 SWAP1 SWAP8 OR OR SWAP5 SWAP1 SWAP5 AND SWAP5 SWAP1 SWAP5 OR DUP4 SSTORE SWAP1 MLOAD SWAP3 DUP3 ADD SWAP3 SWAP1 SWAP3 SSTORE SWAP1 MLOAD PUSH1 0x2 SWAP1 SWAP2 ADD SSTORE DUP4 MLOAD CALLER DUP2 MSTORE SWAP1 DUP2 ADD SWAP2 SWAP1 SWAP2 MSTORE SWAP1 SWAP2 PUSH32 0x8419B79DC227F7841E7BF32CEA35C3F90FE5B3DA68CDE93ADEF3C32745C587DE SWAP2 ADD PUSH2 0x1792 JUMP JUMPDEST PUSH2 0x2117 PUSH2 0x3B8E JUMP JUMPDEST PUSH1 0x0 DUP2 GT PUSH2 0x2187 JUMPI PUSH1 0x40 MLOAD PUSH3 0x461BCD PUSH1 0xE5 SHL DUP2 MSTORE PUSH1 0x20 PUSH1 0x4 DUP3 ADD MSTORE PUSH1 0x37 PUSH1 0x24 DUP3 ADD MSTORE PUSH32 0x4E6577206D6178696D756D20616D6F756E7420746F20696E766573742C206D75 PUSH1 0x44 DUP3 ADD MSTORE PUSH23 0x73742062652067726561746572207468616E207A65726F PUSH1 0x48 SHL PUSH1 0x64 DUP3 ADD MSTORE PUSH1 0x84 ADD PUSH2 0xABC JUMP JUMPDEST PUSH2 0x12F SLOAD DUP2 SUB PUSH2 0x220D JUMPI PUSH1 0x40 MLOAD PUSH3 0x461BCD PUSH1 0xE5 SHL DUP2 MSTORE PUSH1 0x20 PUSH1 0x4 DUP3 ADD MSTORE PUSH1 0x45 PUSH1 0x24 DUP3 ADD MSTORE PUSH32 0x4E6577206D6178696D756D20616D6F756E7420746F20696E766573742C206861 PUSH1 0x44 DUP3 ADD MSTORE PUSH32 0x7320616C7265616479206265656E206D6F64696669656420746F207468617420 PUSH1 0x64 DUP3 ADD MSTORE PUSH5 0x76616C7565 PUSH1 0xD8 SHL PUSH1 0x84 DUP3 ADD MSTORE PUSH1 0xA4 ADD PUSH2 0xABC JUMP JUMPDEST PUSH2 0x12E SLOAD DUP2 LT ISZERO PUSH2 0x22A0 JUMPI PUSH1 0x40 MLOAD PUSH3 0x461BCD PUSH1 0xE5 SHL DUP2 MSTORE PUSH1 0x20 PUSH1 0x4 DUP3 ADD MSTORE PUSH1 0x51 PUSH1 0x24 DUP3 ADD MSTORE PUSH32 0x4E6577206D6178696D756D20616D6F756E7420746F20696E766573742C206D75 PUSH1 0x44 DUP3 ADD MSTORE PUSH32 0x73742062652067726561746572207468616E20746865206D696E696D756D2069 PUSH1 0x64 DUP3 ADD MSTORE PUSH17 0x1B9D995CDD1B595B9D08185B1B1BDDD959 PUSH1 0x7A SHL PUSH1 0x84 DUP3 ADD MSTORE PUSH1 0xA4 ADD PUSH2 0xABC JUMP JUMPDEST PUSH2 0x12F DUP2 SWAP1 SSTORE PUSH1 0x40 MLOAD DUP2 DUP2 MSTORE PUSH32 0x29D434EC19958E7CE86CA2870F5927AB4F948D916DCFFC568C1343C1E1F76566 SWAP1 PUSH1 0x20 ADD JUMPDEST PUSH1 0x40 MLOAD DUP1 SWAP2 SUB SWAP1 LOG1 POP JUMP JUMPDEST PUSH2 0x22E5 PUSH2 0x3B8E JUMP JUMPDEST PUSH1 0x1 PUSH1 0x1 PUSH1 0xA0 SHL SUB DUP2 AND PUSH2 0x2356 JUMPI PUSH1 0x40 MLOAD PUSH3 0x461BCD PUSH1 0xE5 SHL DUP2 MSTORE PUSH1 0x20 PUSH1 0x4 DUP3 ADD MSTORE PUSH1 0x32 PUSH1 0x24 DUP3 ADD MSTORE PUSH32 0x5468652077686974656C697374657220616464726573732063616E6E6F742062 PUSH1 0x44 DUP3 ADD MSTORE PUSH18 0x6520746865207A65726F2061646472657373 PUSH1 0x70 SHL PUSH1 0x64 DUP3 ADD MSTORE PUSH1 0x84 ADD PUSH2 0xABC JUMP JUMPDEST PUSH2 0x130 SLOAD PUSH1 0x1 PUSH1 0x1 PUSH1 0xA0 SHL SUB SWAP1 DUP2 AND SWAP1 DUP3 AND SUB PUSH2 0x23DB JUMPI PUSH1 0x40 MLOAD PUSH3 0x461BCD PUSH1 0xE5 SHL DUP2 MSTORE PUSH1 0x20 PUSH1 0x4 DUP3 ADD MSTORE PUSH1 0x3B PUSH1 0x24 DUP3 ADD MSTORE PUSH32 0x77686974656C697374657220616464726573732068617320616C726561647920 PUSH1 0x44 DUP3 ADD MSTORE PUSH32 0x6265656E206D6F64696669656420746F20746861742076616C75650000000000 PUSH1 0x64 DUP3 ADD MSTORE PUSH1 0x84 ADD PUSH2 0xABC JUMP JUMPDEST PUSH2 0x130 DUP1 SLOAD PUSH1 0x1 PUSH1 0x1 PUSH1 0xA0 SHL SUB NOT AND PUSH1 0x1 PUSH1 0x1 PUSH1 0xA0 SHL SUB DUP4 AND SWAP1 DUP2 OR SWAP1 SWAP2 SSTORE PUSH1 0x40 MLOAD SWAP1 DUP2 MSTORE PUSH32 0x32359536720ADEDFB2B6C6DD7685519F09FDF93CE7824B68D5B2F56354FDEBEC SWAP1 PUSH1 0x20 ADD PUSH2 0x22D2 JUMP JUMPDEST PUSH2 0x2432 PUSH2 0x3B8E JUMP JUMPDEST PUSH2 0x1EEF PUSH1 0x0 PUSH2 0x3F37 JUMP JUMPDEST CALLER PUSH1 0x0 SWAP1 DUP2 MSTORE PUSH2 0x132 PUSH1 0x20 MSTORE PUSH1 0x40 DUP2 KECCAK256 SLOAD PUSH1 0xFF AND PUSH2 0x246C JUMPI PUSH1 0x40 MLOAD PUSH3 0x461BCD PUSH1 0xE5 SHL DUP2 MSTORE PUSH1 0x4 ADD PUSH2 0xABC SWAP1 PUSH2 0x479B JUMP JUMPDEST CALLER PUSH1 0x0 SWAP1 DUP2 MSTORE PUSH2 0x132 PUSH1 0x20 MSTORE PUSH1 0x40 SWAP1 KECCAK256 SLOAD PUSH2 0x100 SWAP1 DIV PUSH1 0xFF AND ISZERO PUSH2 0x24A2 JUMPI PUSH1 0x40 MLOAD PUSH3 0x461BCD PUSH1 0xE5 SHL DUP2 MSTORE PUSH1 0x4 ADD PUSH2 0xABC SWAP1 PUSH2 0x47EF JUMP JUMPDEST PUSH2 0x24AA PUSH2 0xA6E JUMP JUMPDEST PUSH1 0x0 DUP1 PUSH1 0x1 DUP6 PUSH1 0x4 DUP2 GT ISZERO PUSH2 0x24C1 JUMPI PUSH2 0x24C1 PUSH2 0x45DD JUMP JUMPDEST SUB PUSH2 0x2542 JUMPI PUSH2 0x138 SLOAD PUSH1 0x40 MLOAD PUSH4 0xBB6F98FB PUSH1 0xE0 SHL DUP2 MSTORE PUSH1 0x1 PUSH1 0x1 PUSH1 0xA0 SHL SUB SWAP1 SWAP2 AND SWAP3 POP ADDRESS SWAP1 PUSH4 0xBB6F98FB SWAP1 PUSH2 0x24FA SWAP1 DUP9 SWAP1 PUSH1 0x4 ADD PUSH2 0x4861 JUMP JUMPDEST PUSH1 0x20 PUSH1 0x40 MLOAD DUP1 DUP4 SUB DUP2 DUP7 GAS STATICCALL ISZERO DUP1 ISZERO PUSH2 0x2517 JUMPI RETURNDATASIZE PUSH1 0x0 DUP1 RETURNDATACOPY RETURNDATASIZE PUSH1 0x0 REVERT JUMPDEST POP POP POP POP PUSH1 0x40 MLOAD RETURNDATASIZE PUSH1 0x1F NOT PUSH1 0x1F DUP3 ADD AND DUP3 ADD DUP1 PUSH1 0x40 MSTORE POP DUP2 ADD SWAP1 PUSH2 0x253B SWAP2 SWAP1 PUSH2 0x486F JUMP JUMPDEST SWAP1 POP PUSH2 0x2629 JUMP JUMPDEST PUSH1 0x2 DUP6 PUSH1 0x4 DUP2 GT ISZERO PUSH2 0x2556 JUMPI PUSH2 0x2556 PUSH2 0x45DD JUMP JUMPDEST SUB PUSH2 0x258F JUMPI PUSH2 0x13C SLOAD PUSH1 0x40 MLOAD PUSH4 0xBB6F98FB PUSH1 0xE0 SHL DUP2 MSTORE PUSH1 0x1 PUSH1 0x1 PUSH1 0xA0 SHL SUB SWAP1 SWAP2 AND SWAP3 POP ADDRESS SWAP1 PUSH4 0xBB6F98FB SWAP1 PUSH2 0x24FA SWAP1 DUP9 SWAP1 PUSH1 0x4 ADD PUSH2 0x4861 JUMP JUMPDEST PUSH1 0x3 DUP6 PUSH1 0x4 DUP2 GT ISZERO PUSH2 0x25A3 JUMPI PUSH2 0x25A3 PUSH2 0x45DD JUMP JUMPDEST SUB PUSH2 0x25DC JUMPI PUSH2 0x140 SLOAD PUSH1 0x40 MLOAD PUSH4 0xBB6F98FB PUSH1 0xE0 SHL DUP2 MSTORE PUSH1 0x1 PUSH1 0x1 PUSH1 0xA0 SHL SUB SWAP1 SWAP2 AND SWAP3 POP ADDRESS SWAP1 PUSH4 0xBB6F98FB SWAP1 PUSH2 0x24FA SWAP1 DUP9 SWAP1 PUSH1 0x4 ADD PUSH2 0x4861 JUMP JUMPDEST PUSH1 0x4 DUP6 PUSH1 0x4 DUP2 GT ISZERO PUSH2 0x25F0 JUMPI PUSH2 0x25F0 PUSH2 0x45DD JUMP JUMPDEST SUB PUSH2 0x11C6 JUMPI PUSH2 0x144 SLOAD PUSH1 0x40 MLOAD PUSH4 0xBB6F98FB PUSH1 0xE0 SHL DUP2 MSTORE PUSH1 0x1 PUSH1 0x1 PUSH1 0xA0 SHL SUB SWAP1 SWAP2 AND SWAP3 POP ADDRESS SWAP1 PUSH4 0xBB6F98FB SWAP1 PUSH2 0x24FA SWAP1 DUP9 SWAP1 PUSH1 0x4 ADD PUSH2 0x4861 JUMP JUMPDEST PUSH1 0x0 DUP1 PUSH2 0x2636 DUP7 DUP5 PUSH2 0x2F1A JUMP JUMPDEST SWAP2 POP SWAP2 POP PUSH2 0x2644 DUP3 CALLER PUSH2 0x293F JUMP JUMPDEST PUSH1 0x40 MLOAD PUSH4 0x23B872DD PUSH1 0xE0 SHL DUP2 MSTORE CALLER PUSH1 0x4 DUP3 ADD MSTORE ADDRESS PUSH1 0x24 DUP3 ADD MSTORE PUSH1 0x44 DUP2 ADD DUP8 SWAP1 MSTORE PUSH1 0x1 PUSH1 0x1 PUSH1 0xA0 SHL SUB DUP6 AND SWAP1 PUSH4 0x23B872DD SWAP1 PUSH1 0x64 ADD PUSH1 0x20 PUSH1 0x40 MLOAD DUP1 DUP4 SUB DUP2 PUSH1 0x0 DUP8 GAS CALL ISZERO DUP1 ISZERO PUSH2 0x2697 JUMPI RETURNDATASIZE PUSH1 0x0 DUP1 RETURNDATACOPY RETURNDATASIZE PUSH1 0x0 REVERT JUMPDEST POP POP POP POP PUSH1 0x40 MLOAD RETURNDATASIZE PUSH1 0x1F NOT PUSH1 0x1F DUP3 ADD AND DUP3 ADD DUP1 PUSH1 0x40 MSTORE POP DUP2 ADD SWAP1 PUSH2 0x26BB SWAP2 SWAP1 PUSH2 0x4888 JUMP JUMPDEST PUSH2 0x2724 JUMPI PUSH1 0x40 MLOAD PUSH3 0x461BCD PUSH1 0xE5 SHL DUP2 MSTORE PUSH1 0x20 PUSH1 0x4 DUP3 ADD MSTORE PUSH1 0x34 PUSH1 0x24 DUP3 ADD MSTORE PUSH32 0x54686572652077617320616E206572726F72206F6E20726563656976696E6720 PUSH1 0x44 DUP3 ADD MSTORE PUSH20 0x1D1A19481D1BDAD95B881A5B9D995CDD1B595B9D PUSH1 0x62 SHL PUSH1 0x64 DUP3 ADD MSTORE PUSH1 0x84 ADD PUSH2 0xABC JUMP JUMPDEST PUSH2 0x131 SLOAD PUSH1 0x40 MLOAD PUSH4 0xA9059CBB PUSH1 0xE0 SHL DUP2 MSTORE PUSH1 0x1 PUSH1 0x1 PUSH1 0xA0 SHL SUB SWAP2 DUP3 AND PUSH1 0x4 DUP3 ADD MSTORE PUSH1 0x24 DUP2 ADD DUP9 SWAP1 MSTORE SWAP1 DUP6 AND SWAP1 PUSH4 0xA9059CBB SWAP1 PUSH1 0x44 ADD PUSH1 0x20 PUSH1 0x40 MLOAD DUP1 DUP4 SUB DUP2 PUSH1 0x0 DUP8 GAS CALL ISZERO DUP1 ISZERO PUSH2 0x2778 JUMPI RETURNDATASIZE PUSH1 0x0 DUP1 RETURNDATACOPY RETURNDATASIZE PUSH1 0x0 REVERT JUMPDEST POP POP POP POP PUSH1 0x40 MLOAD RETURNDATASIZE PUSH1 0x1F NOT PUSH1 0x1F DUP3 ADD AND DUP3 ADD DUP1 PUSH1 0x40 MSTORE POP DUP2 ADD SWAP1 PUSH2 0x279C SWAP2 SWAP1 PUSH2 0x4888 JUMP JUMPDEST PUSH2 0x2819 JUMPI PUSH1 0x40 MLOAD PUSH3 0x461BCD PUSH1 0xE5 SHL DUP2 MSTORE PUSH1 0x20 PUSH1 0x4 DUP3 ADD MSTORE PUSH1 0x42 PUSH1 0x24 DUP3 ADD MSTORE PUSH32 0x54686572652077617320616E206572726F72206F6E2073656E64696E67207468 PUSH1 0x44 DUP3 ADD MSTORE PUSH32 0x6520746F6B656E20696E766573746D656E7420746F2074686520747265617375 PUSH1 0x64 DUP3 ADD MSTORE PUSH2 0x7279 PUSH1 0xF0 SHL PUSH1 0x84 DUP3 ADD MSTORE PUSH1 0xA4 ADD PUSH2 0xABC JUMP JUMPDEST PUSH1 0x40 MLOAD PUSH4 0xA9059CBB PUSH1 0xE0 SHL DUP2 MSTORE CALLER PUSH1 0x4 DUP3 ADD MSTORE PUSH1 0x24 DUP2 ADD DUP3 SWAP1 MSTORE ADDRESS SWAP1 PUSH4 0xA9059CBB SWAP1 PUSH1 0x44 ADD PUSH1 0x20 PUSH1 0x40 MLOAD DUP1 DUP4 SUB DUP2 PUSH1 0x0 DUP8 GAS CALL ISZERO DUP1 ISZERO PUSH2 0x285D JUMPI RETURNDATASIZE PUSH1 0x0 DUP1 RETURNDATACOPY RETURNDATASIZE PUSH1 0x0 REVERT JUMPDEST POP POP POP POP PUSH1 0x40 MLOAD RETURNDATASIZE PUSH1 0x1F NOT PUSH1 0x1F DUP3 ADD AND DUP3 ADD DUP1 PUSH1 0x40 MSTORE POP DUP2 ADD SWAP1 PUSH2 0x2881 SWAP2 SWAP1 PUSH2 0x4888 JUMP JUMPDEST PUSH2 0x289D JUMPI PUSH1 0x40 MLOAD PUSH3 0x461BCD PUSH1 0xE5 SHL DUP2 MSTORE PUSH1 0x4 ADD PUSH2 0xABC SWAP1 PUSH2 0x48A5 JUMP JUMPDEST CALLER PUSH1 0x0 SWAP1 DUP2 MSTORE PUSH2 0x132 PUSH1 0x20 MSTORE PUSH1 0x40 DUP2 KECCAK256 PUSH1 0x2 ADD DUP1 SLOAD DUP5 SWAP3 SWAP1 PUSH2 0x28C0 SWAP1 DUP5 SWAP1 PUSH2 0x45CA JUMP JUMPDEST SWAP1 SWAP2 SSTORE POP POP CALLER PUSH1 0x0 SWAP1 DUP2 MSTORE PUSH2 0x132 PUSH1 0x20 MSTORE PUSH1 0x40 DUP2 KECCAK256 PUSH1 0x1 ADD DUP1 SLOAD DUP4 SWAP3 SWAP1 PUSH2 0x28E8 SWAP1 DUP5 SWAP1 PUSH2 0x45CA JUMP JUMPDEST SWAP1 SWAP2 SSTORE POP POP PUSH1 0x40 MLOAD PUSH32 0x3B60324B6DB90922773BDE8799E6D3B7D574474A0FB52A6D340BD2EE92B5EDBC SWAP1 PUSH2 0x2925 SWAP1 DUP10 SWAP1 CALLER SWAP1 DUP11 SWAP1 DUP8 SWAP1 DUP8 SWAP1 PUSH2 0x490C JUMP JUMPDEST PUSH1 0x40 MLOAD DUP1 SWAP2 SUB SWAP1 LOG1 PUSH1 0x1 SWAP5 POP POP POP POP POP PUSH2 0xB79 PUSH1 0x1 PUSH1 0xFB SSTORE JUMP JUMPDEST PUSH1 0x1 PUSH1 0x1 PUSH1 0xA0 SHL SUB DUP2 AND PUSH1 0x0 SWAP1 DUP2 MSTORE PUSH2 0x132 PUSH1 0x20 MSTORE PUSH1 0x40 DUP2 KECCAK256 PUSH1 0x2 ADD SLOAD PUSH2 0x2966 SWAP1 DUP5 PUSH2 0x45CA JUMP JUMPDEST SWAP1 POP PUSH2 0x12F SLOAD DUP2 GT ISZERO PUSH2 0x2A13 JUMPI PUSH1 0x1 PUSH1 0x1 PUSH1 0xA0 SHL SUB DUP3 AND PUSH1 0x0 SWAP1 DUP2 MSTORE PUSH2 0x132 PUSH1 0x20 MSTORE PUSH1 0x40 SWAP1 KECCAK256 SLOAD PUSH3 0x10000 SWAP1 DIV PUSH1 0xFF AND PUSH2 0x2A13 JUMPI PUSH1 0x40 MLOAD PUSH3 0x461BCD PUSH1 0xE5 SHL DUP2 MSTORE PUSH1 0x20 PUSH1 0x4 DUP3 ADD MSTORE PUSH1 0x42 PUSH1 0x24 DUP3 ADD MSTORE PUSH32 0x546F20627579207468617420616D6F756E74206F662048594158206974732072 PUSH1 0x44 DUP3 ADD MSTORE PUSH32 0x6571756972656420746F2062652061207175616C696669656420696E76657374 PUSH1 0x64 DUP3 ADD MSTORE PUSH2 0x37B9 PUSH1 0xF1 SHL PUSH1 0x84 DUP3 ADD MSTORE PUSH1 0xA4 ADD PUSH2 0xABC JUMP JUMPDEST POP POP POP JUMP JUMPDEST PUSH1 0x0 SLOAD PUSH2 0x100 SWAP1 DIV PUSH1 0xFF AND ISZERO DUP1 DUP1 ISZERO PUSH2 0x2A38 JUMPI POP PUSH1 0x0 SLOAD PUSH1 0x1 PUSH1 0xFF SWAP1 SWAP2 AND LT JUMPDEST DUP1 PUSH2 0x2A52 JUMPI POP ADDRESS EXTCODESIZE ISZERO DUP1 ISZERO PUSH2 0x2A52 JUMPI POP PUSH1 0x0 SLOAD PUSH1 0xFF AND PUSH1 0x1 EQ JUMPDEST PUSH2 0x2AB5 JUMPI PUSH1 0x40 MLOAD PUSH3 0x461BCD PUSH1 0xE5 SHL DUP2 MSTORE PUSH1 0x20 PUSH1 0x4 DUP3 ADD MSTORE PUSH1 0x2E PUSH1 0x24 DUP3 ADD MSTORE PUSH32 0x496E697469616C697A61626C653A20636F6E747261637420697320616C726561 PUSH1 0x44 DUP3 ADD MSTORE PUSH14 0x191E481A5B9A5D1A585B1A5E9959 PUSH1 0x92 SHL PUSH1 0x64 DUP3 ADD MSTORE PUSH1 0x84 ADD PUSH2 0xABC JUMP JUMPDEST PUSH1 0x0 DUP1 SLOAD PUSH1 0xFF NOT AND PUSH1 0x1 OR SWAP1 SSTORE DUP1 ISZERO PUSH2 0x2AD8 JUMPI PUSH1 0x0 DUP1 SLOAD PUSH2 0xFF00 NOT AND PUSH2 0x100 OR SWAP1 SSTORE JUMPDEST PUSH2 0x2B1F PUSH1 0x40 MLOAD DUP1 PUSH1 0x40 ADD PUSH1 0x40 MSTORE DUP1 PUSH1 0x9 DUP2 MSTORE PUSH1 0x20 ADD PUSH9 0x242CA0AC2A37B5B2B7 PUSH1 0xB9 SHL DUP2 MSTORE POP PUSH1 0x40 MLOAD DUP1 PUSH1 0x40 ADD PUSH1 0x40 MSTORE DUP1 PUSH1 0x4 DUP2 MSTORE PUSH1 0x20 ADD PUSH4 0x90B282B PUSH1 0xE3 SHL DUP2 MSTORE POP PUSH2 0x3F89 JUMP JUMPDEST PUSH2 0x2B27 PUSH2 0x3FBA JUMP JUMPDEST PUSH2 0x2B2F PUSH2 0x3FE9 JUMP JUMPDEST PUSH2 0x2B37 PUSH2 0x4018 JUMP JUMPDEST PUSH2 0x2B5A CALLER PUSH2 0x2B47 PUSH1 0x12 PUSH1 0xA PUSH2 0x45A4 JUMP JUMPDEST PUSH2 0x2B55 SWAP1 PUSH4 0x1DCD6500 PUSH2 0x45B3 JUMP JUMPDEST PUSH2 0x3BE8 JUMP JUMPDEST PUSH3 0x927C0 PUSH2 0x12D SSTORE PUSH2 0x2B6E PUSH1 0x12 PUSH1 0xA PUSH2 0x45A4 JUMP JUMPDEST PUSH2 0x2B79 SWAP1 PUSH1 0x1 PUSH2 0x45B3 JUMP JUMPDEST PUSH2 0x12E SSTORE PUSH2 0x2B89 PUSH1 0x12 PUSH1 0xA PUSH2 0x45A4 JUMP JUMPDEST PUSH2 0x2B95 SWAP1 PUSH2 0x2710 PUSH2 0x45B3 JUMP JUMPDEST PUSH2 0x12F SSTORE PUSH2 0x130 DUP1 SLOAD PUSH1 0x1 PUSH1 0x1 PUSH1 0xA0 SHL SUB NOT SWAP1 DUP2 AND PUSH20 0x1C2F012DE19E6436744C3F81F56E9E70C93A8C3 OR SWAP1 SWAP2 SSTORE PUSH2 0x131 DUP1 SLOAD DUP3 AND PUSH20 0x350441F8A82680A785FFA9D3EFEA60BB4CA417F8 OR SWAP1 SSTORE PUSH2 0x133 DUP1 SLOAD DUP3 AND PUSH19 0x1382149EBA3441043C1C66972B4772963F5D43 SWAP1 DUP2 OR SWAP1 SWAP2 SSTORE PUSH2 0x134 DUP1 SLOAD DUP4 AND SWAP1 SWAP2 OR SWAP1 SSTORE PUSH2 0x135 DUP1 SLOAD DUP3 AND PUSH20 0xF68054BFE5D45432FFCA28FFA1F3D685D0456DDC SWAP1 DUP2 OR SWAP1 SWAP2 SSTORE PUSH2 0x136 DUP1 SLOAD DUP4 AND PUSH20 0x1B8739BB4CDF0089D07097A9AE5BD274B29C6F16 SWAP1 DUP2 OR SWAP1 SWAP2 SSTORE PUSH2 0x137 DUP1 SLOAD DUP5 AND SWAP1 SWAP2 OR SWAP1 SSTORE PUSH2 0x138 DUP1 SLOAD DUP4 AND SWAP1 SWAP2 OR SWAP1 SSTORE PUSH2 0x139 DUP1 SLOAD DUP3 AND PUSH20 0x70E02FB82B6BC04F64099689B0599E14B44D4FBB SWAP1 DUP2 OR SWAP1 SWAP2 SSTORE PUSH2 0x13A DUP1 SLOAD DUP4 AND PUSH20 0x3AC23DCB4ECFCBD24579E1F34542524D0E4EDEA8 SWAP1 DUP2 OR SWAP1 SWAP2 SSTORE PUSH2 0x13B DUP1 SLOAD DUP5 AND SWAP1 SWAP2 OR SWAP1 SSTORE PUSH2 0x13C DUP1 SLOAD DUP4 AND SWAP1 SWAP2 OR SWAP1 SSTORE PUSH2 0x13D DUP1 SLOAD DUP3 AND PUSH20 0x3C8DF3C48B3884DA2FF25E17524282D60F9C3B93 SWAP1 DUP2 OR SWAP1 SWAP2 SSTORE PUSH2 0x13E DUP1 SLOAD DUP4 AND PUSH20 0xE7656E23FE8077D438AEFBEC2FABDF2D8E070C4F SWAP1 DUP2 OR SWAP1 SWAP2 SSTORE PUSH2 0x13F DUP1 SLOAD DUP5 AND SWAP1 SWAP2 OR SWAP1 SSTORE PUSH2 0x140 DUP1 SLOAD DUP4 AND SWAP1 SWAP2 OR SWAP1 SSTORE PUSH2 0x141 DUP1 SLOAD DUP3 AND PUSH20 0x524A89ED77D5827320E35E12BCA96830C6B7960A SWAP1 DUP2 OR SWAP1 SWAP2 SSTORE PUSH2 0x142 DUP1 SLOAD DUP4 AND PUSH20 0xF0D50568E3A7E8259E16663972B11910F89BD8E7 SWAP1 DUP2 OR SWAP1 SWAP2 SSTORE PUSH2 0x143 DUP1 SLOAD DUP5 AND SWAP1 SWAP2 OR SWAP1 SSTORE PUSH2 0x144 DUP1 SLOAD SWAP1 SWAP3 AND OR SWAP1 SSTORE DUP1 ISZERO PUSH2 0xDA0 JUMPI PUSH1 0x0 DUP1 SLOAD PUSH2 0xFF00 NOT AND SWAP1 SSTORE PUSH1 0x40 MLOAD PUSH1 0x1 DUP2 MSTORE PUSH32 0x7F26B83FF96E1F2B6A682F133852F6798A09C465DA95921460CEFB3847402498 SWAP1 PUSH1 0x20 ADD PUSH2 0x22D2 JUMP JUMPDEST PUSH2 0x2DC8 PUSH2 0x3B8E JUMP JUMPDEST PUSH1 0x1 PUSH1 0x1 PUSH1 0xA0 SHL SUB DUP2 AND PUSH2 0x2E36 JUMPI PUSH1 0x40 MLOAD PUSH3 0x461BCD PUSH1 0xE5 SHL DUP2 MSTORE PUSH1 0x20 PUSH1 0x4 DUP3 ADD MSTORE PUSH1 0x2F PUSH1 0x24 DUP3 ADD MSTORE PUSH32 0x54686520747265617375727920616464726573732063616E6E6F742062652074 PUSH1 0x44 DUP3 ADD MSTORE PUSH15 0x6865207A65726F2061646472657373 PUSH1 0x88 SHL PUSH1 0x64 DUP3 ADD MSTORE PUSH1 0x84 ADD PUSH2 0xABC JUMP JUMPDEST PUSH2 0x131 SLOAD PUSH1 0x1 PUSH1 0x1 PUSH1 0xA0 SHL SUB SWAP1 DUP2 AND SWAP1 DUP3 AND SUB PUSH2 0x2EBB JUMPI PUSH1 0x40 MLOAD PUSH3 0x461BCD PUSH1 0xE5 SHL DUP2 MSTORE PUSH1 0x20 PUSH1 0x4 DUP3 ADD MSTORE PUSH1 0x38 PUSH1 0x24 DUP3 ADD MSTORE PUSH32 0x547265617375727920616464726573732068617320616C726561647920626565 PUSH1 0x44 DUP3 ADD MSTORE PUSH32 0x6E206D6F64696669656420746F20746861742076616C75650000000000000000 PUSH1 0x64 DUP3 ADD MSTORE PUSH1 0x84 ADD PUSH2 0xABC JUMP JUMPDEST PUSH2 0x131 DUP1 SLOAD PUSH1 0x1 PUSH1 0x1 PUSH1 0xA0 SHL SUB NOT AND PUSH1 0x1 PUSH1 0x1 PUSH1 0xA0 SHL SUB DUP4 AND SWAP1 DUP2 OR SWAP1 SWAP2 SSTORE PUSH1 0x40 MLOAD SWAP1 DUP2 MSTORE PUSH32 0x2E1E696CFB265FA16E1170D24EF04CB2262772BDE00ECF34D80BAE6722487B7F SWAP1 PUSH1 0x20 ADD PUSH2 0x22D2 JUMP JUMPDEST PUSH2 0x2F12 PUSH2 0x3B8E JUMP JUMPDEST PUSH2 0x1EEF PUSH2 0x4047 JUMP JUMPDEST PUSH1 0x0 DUP1 PUSH4 0x5F5E100 PUSH2 0x2F2C DUP5 DUP7 PUSH2 0x45B3 JUMP JUMPDEST PUSH2 0x2F36 SWAP2 SWAP1 PUSH2 0x4946 JUMP JUMPDEST PUSH2 0x12D SLOAD SWAP1 SWAP3 POP PUSH2 0x2F4B DUP4 PUSH4 0x5F5E100 PUSH2 0x45B3 JUMP JUMPDEST PUSH2 0x2F55 SWAP2 SWAP1 PUSH2 0x4946 JUMP JUMPDEST SWAP1 POP PUSH2 0x12E SLOAD DUP3 LT ISZERO PUSH2 0x2FDA JUMPI PUSH1 0x40 MLOAD PUSH3 0x461BCD PUSH1 0xE5 SHL DUP2 MSTORE PUSH1 0x20 PUSH1 0x4 DUP3 ADD MSTORE PUSH1 0x41 PUSH1 0x24 DUP3 ADD MSTORE PUSH32 0x54686520616D6F756E7420746F20696E76657374206D75737420626520677265 PUSH1 0x44 DUP3 ADD MSTORE PUSH32 0x61746572207468616E20746865206D696E696D756D2065737461626C69736865 PUSH1 0x64 DUP3 ADD MSTORE PUSH1 0x19 PUSH1 0xFA SHL PUSH1 0x84 DUP3 ADD MSTORE PUSH1 0xA4 ADD PUSH2 0xABC JUMP JUMPDEST ADDRESS PUSH1 0x0 SWAP1 DUP2 MSTORE PUSH1 0x33 PUSH1 0x20 MSTORE PUSH1 0x40 SWAP1 KECCAK256 SLOAD DUP2 GT ISZERO PUSH2 0x3070 JUMPI PUSH1 0x40 MLOAD PUSH3 0x461BCD PUSH1 0xE5 SHL DUP2 MSTORE PUSH1 0x20 PUSH1 0x4 DUP3 ADD MSTORE PUSH1 0x48 PUSH1 0x24 DUP3 ADD MSTORE PUSH32 0x54686520696E766573746D656E74206D6164652072657475726E7320616E2061 PUSH1 0x44 DUP3 ADD MSTORE PUSH32 0x6D6F756E74206F6620485941582067726561746572207468616E207468652061 PUSH1 0x64 DUP3 ADD MSTORE PUSH8 0x7661696C61626C65 PUSH1 0xC0 SHL PUSH1 0x84 DUP3 ADD MSTORE PUSH1 0xA4 ADD PUSH2 0xABC JUMP JUMPDEST SWAP3 POP SWAP3 SWAP1 POP JUMP JUMPDEST PUSH1 0x60 PUSH1 0x37 DUP1 SLOAD PUSH2 0xAE2 SWAP1 PUSH2 0x4476 JUMP JUMPDEST PUSH1 0x0 CALLER DUP2 PUSH2 0x3094 DUP3 DUP7 PUSH2 0x3952 JUMP JUMPDEST SWAP1 POP DUP4 DUP2 LT ISZERO PUSH2 0x30F4 JUMPI PUSH1 0x40 MLOAD PUSH3 0x461BCD PUSH1 0xE5 SHL DUP2 MSTORE PUSH1 0x20 PUSH1 0x4 DUP3 ADD MSTORE PUSH1 0x25 PUSH1 0x24 DUP3 ADD MSTORE PUSH32 0x45524332303A2064656372656173656420616C6C6F77616E63652062656C6F77 PUSH1 0x44 DUP3 ADD MSTORE PUSH5 0x207A65726F PUSH1 0xD8 SHL PUSH1 0x64 DUP3 ADD MSTORE PUSH1 0x84 ADD PUSH2 0xABC JUMP JUMPDEST PUSH2 0xDBC DUP3 DUP7 DUP7 DUP5 SUB PUSH2 0x3A6A JUMP JUMPDEST PUSH1 0x0 CALLER PUSH2 0xB73 DUP2 DUP6 DUP6 PUSH2 0x3D2F JUMP JUMPDEST PUSH2 0x3117 PUSH2 0x3B8E JUMP JUMPDEST PUSH1 0x0 DUP2 GT PUSH2 0x3187 JUMPI PUSH1 0x40 MLOAD PUSH3 0x461BCD PUSH1 0xE5 SHL DUP2 MSTORE PUSH1 0x20 PUSH1 0x4 DUP3 ADD MSTORE PUSH1 0x37 PUSH1 0x24 DUP3 ADD MSTORE PUSH32 0x4E6577206D696E696D756E20616D6F756E7420746F20696E766573742C206D75 PUSH1 0x44 DUP3 ADD MSTORE PUSH23 0x73742062652067726561746572207468616E207A65726F PUSH1 0x48 SHL PUSH1 0x64 DUP3 ADD MSTORE PUSH1 0x84 ADD PUSH2 0xABC JUMP JUMPDEST PUSH2 0x12E SLOAD DUP2 SUB PUSH2 0x3211 JUMPI PUSH1 0x40 MLOAD PUSH3 0x461BCD PUSH1 0xE5 SHL DUP2 MSTORE PUSH1 0x20 PUSH1 0x4 DUP3 ADD MSTORE PUSH1 0x49 PUSH1 0x24 DUP3 ADD MSTORE PUSH32 0x4D696E696D756D20696E766573746D656E7420616C6C6F77656420696E205553 PUSH1 0x44 DUP3 ADD MSTORE PUSH32 0x442068617320616C7265616479206265656E206D6F64696669656420746F2074 PUSH1 0x64 DUP3 ADD MSTORE PUSH9 0x6861742076616C7565 PUSH1 0xB8 SHL PUSH1 0x84 DUP3 ADD MSTORE PUSH1 0xA4 ADD PUSH2 0xABC JUMP JUMPDEST PUSH2 0x12F SLOAD DUP2 GT ISZERO PUSH2 0x32A1 JUMPI PUSH1 0x40 MLOAD PUSH3 0x461BCD PUSH1 0xE5 SHL DUP2 MSTORE PUSH1 0x20 PUSH1 0x4 DUP3 ADD MSTORE PUSH1 0x4E PUSH1 0x24 DUP3 ADD MSTORE PUSH32 0x4E6577206D696E696D756E20616D6F756E7420746F20696E766573742C206D75 PUSH1 0x44 DUP3 ADD MSTORE PUSH32 0x7374206265206C657373207468616E20746865206D6178696D756D20696E7665 PUSH1 0x64 DUP3 ADD MSTORE PUSH14 0x1CDD1B595B9D08185B1B1BDDD959 PUSH1 0x92 SHL PUSH1 0x84 DUP3 ADD MSTORE PUSH1 0xA4 ADD PUSH2 0xABC JUMP JUMPDEST PUSH2 0x12E DUP2 SWAP1 SSTORE PUSH1 0x40 MLOAD DUP2 DUP2 MSTORE PUSH32 0xEE60EB8E40A2EC796BFE3CA896B9221AF9764FC0987BF0508CA755266D9C85F8 SWAP1 PUSH1 0x20 ADD PUSH2 0x22D2 JUMP JUMPDEST PUSH2 0x32DF PUSH2 0x3B8E JUMP JUMPDEST PUSH2 0x12D SLOAD DUP2 SUB PUSH2 0x334C JUMPI PUSH1 0x40 MLOAD PUSH3 0x461BCD PUSH1 0xE5 SHL DUP2 MSTORE PUSH1 0x20 PUSH1 0x4 DUP3 ADD MSTORE PUSH1 0x32 PUSH1 0x24 DUP3 ADD MSTORE PUSH32 0x485941582070726963652068617320616C7265616479206265656E206D6F6469 PUSH1 0x44 DUP3 ADD MSTORE PUSH18 0x6669656420746F20746861742076616C7565 PUSH1 0x70 SHL PUSH1 0x64 DUP3 ADD MSTORE PUSH1 0x84 ADD PUSH2 0xABC JUMP JUMPDEST PUSH3 0x7A120 DUP2 LT ISZERO PUSH2 0x33DC JUMPI PUSH1 0x40 MLOAD PUSH3 0x461BCD PUSH1 0xE5 SHL DUP2 MSTORE PUSH1 0x20 PUSH1 0x4 DUP3 ADD MSTORE PUSH1 0x4E PUSH1 0x24 DUP3 ADD MSTORE PUSH32 0x5072696365206F66204859415820746F6B656E206D757374206265206174206C PUSH1 0x44 DUP3 ADD MSTORE PUSH32 0x656173742055534420302E3030352C2074686174206973203530303030302077 PUSH1 0x64 DUP3 ADD MSTORE PUSH14 0x697468203820646563696D616C73 PUSH1 0x90 SHL PUSH1 0x84 DUP3 ADD MSTORE PUSH1 0xA4 ADD PUSH2 0xABC JUMP JUMPDEST PUSH5 0x174876E800 DUP2 GT ISZERO PUSH2 0x3475 JUMPI PUSH1 0x40 MLOAD PUSH3 0x461BCD PUSH1 0xE5 SHL DUP2 MSTORE PUSH1 0x20 PUSH1 0x4 DUP3 ADD MSTORE PUSH1 0x55 PUSH1 0x24 DUP3 ADD MSTORE PUSH32 0x5072696365206F66204859415820746F6B656E206D757374206265206174206D PUSH1 0x44 DUP3 ADD MSTORE PUSH32 0x6178696D756D2055534420313030302C20746861742069732031303030303030 PUSH1 0x64 DUP3 ADD MSTORE PUSH21 0x30303030302077697468203820646563696D616C73 PUSH1 0x58 SHL PUSH1 0x84 DUP3 ADD MSTORE PUSH1 0xA4 ADD PUSH2 0xABC JUMP JUMPDEST PUSH2 0x12D DUP2 SWAP1 SSTORE PUSH1 0x40 MLOAD DUP2 DUP2 MSTORE PUSH32 0x4F6F7BBBB2B0DDE2246EE6650672D1B55A5BE5B52F8DD2E8D595F4BD47E1C913 SWAP1 PUSH1 0x20 ADD PUSH2 0x22D2 JUMP JUMPDEST PUSH1 0xC9 SLOAD PUSH1 0x1 PUSH1 0x1 PUSH1 0xA0 SHL SUB AND CALLER EQ DUP1 PUSH2 0x34CF JUMPI POP PUSH2 0x130 SLOAD PUSH1 0x1 PUSH1 0x1 PUSH1 0xA0 SHL SUB AND CALLER EQ JUMPDEST PUSH2 0x34EB JUMPI PUSH1 0x40 MLOAD PUSH3 0x461BCD PUSH1 0xE5 SHL DUP2 MSTORE PUSH1 0x4 ADD PUSH2 0xABC SWAP1 PUSH2 0x473E JUMP JUMPDEST PUSH1 0x1 PUSH1 0x1 PUSH1 0xA0 SHL SUB DUP3 AND PUSH2 0x3576 JUMPI PUSH1 0x40 MLOAD PUSH3 0x461BCD PUSH1 0xE5 SHL DUP2 MSTORE PUSH1 0x20 PUSH1 0x4 DUP3 ADD MSTORE PUSH1 0x46 PUSH1 0x24 DUP3 ADD MSTORE PUSH32 0x496E766573746F72206164647265737320746F2075706461746520626C61636B PUSH1 0x44 DUP3 ADD MSTORE PUSH32 0x6C697374207374617475732063616E6E6F7420626520746865207A65726F2061 PUSH1 0x64 DUP3 ADD MSTORE PUSH6 0x646472657373 PUSH1 0xD0 SHL PUSH1 0x84 DUP3 ADD MSTORE PUSH1 0xA4 ADD PUSH2 0xABC JUMP JUMPDEST PUSH1 0x1 PUSH1 0x1 PUSH1 0xA0 SHL SUB DUP3 AND PUSH1 0x0 SWAP1 DUP2 MSTORE PUSH2 0x132 PUSH1 0x20 MSTORE PUSH1 0x40 SWAP1 KECCAK256 SLOAD DUP2 ISZERO ISZERO PUSH2 0x100 SWAP1 SWAP2 DIV PUSH1 0xFF AND ISZERO ISZERO SUB PUSH2 0x35BB JUMPI PUSH1 0x40 MLOAD PUSH3 0x461BCD PUSH1 0xE5 SHL DUP2 MSTORE PUSH1 0x4 ADD PUSH2 0xABC SWAP1 PUSH2 0x4968 JUMP JUMPDEST PUSH1 0x1 PUSH1 0x1 PUSH1 0xA0 SHL SUB DUP3 AND PUSH1 0x0 DUP2 DUP2 MSTORE PUSH2 0x132 PUSH1 0x20 SWAP1 DUP2 MSTORE PUSH1 0x40 SWAP2 DUP3 SWAP1 KECCAK256 DUP1 SLOAD PUSH2 0xFF00 NOT AND PUSH2 0x100 DUP7 ISZERO ISZERO SWAP1 DUP2 MUL SWAP2 SWAP1 SWAP2 OR SWAP1 SWAP2 SSTORE DUP3 MLOAD CALLER DUP2 MSTORE SWAP2 DUP3 ADD SWAP4 SWAP1 SWAP4 MSTORE SWAP1 DUP2 ADD SWAP2 SWAP1 SWAP2 MSTORE PUSH32 0x89A9C56967D4535D54C90BFFD7CBD09F6D2A4C8E26B9E7F033F199D144E12B4E SWAP1 PUSH1 0x60 ADD PUSH2 0x1792 JUMP JUMPDEST PUSH1 0x0 DUP1 DUP1 DUP4 PUSH1 0x4 DUP2 GT ISZERO PUSH2 0x3642 JUMPI PUSH2 0x3642 PUSH2 0x45DD JUMP JUMPDEST SUB PUSH2 0x365A JUMPI POP PUSH2 0x134 SLOAD PUSH1 0x1 PUSH1 0x1 PUSH1 0xA0 SHL SUB AND PUSH2 0x3706 JUMP JUMPDEST PUSH1 0x1 DUP4 PUSH1 0x4 DUP2 GT ISZERO PUSH2 0x366E JUMPI PUSH2 0x366E PUSH2 0x45DD JUMP JUMPDEST SUB PUSH2 0x3686 JUMPI POP PUSH2 0x137 SLOAD PUSH1 0x1 PUSH1 0x1 PUSH1 0xA0 SHL SUB AND PUSH2 0x3706 JUMP JUMPDEST PUSH1 0x2 DUP4 PUSH1 0x4 DUP2 GT ISZERO PUSH2 0x369A JUMPI PUSH2 0x369A PUSH2 0x45DD JUMP JUMPDEST SUB PUSH2 0x36B2 JUMPI POP PUSH2 0x13B SLOAD PUSH1 0x1 PUSH1 0x1 PUSH1 0xA0 SHL SUB AND PUSH2 0x3706 JUMP JUMPDEST PUSH1 0x3 DUP4 PUSH1 0x4 DUP2 GT ISZERO PUSH2 0x36C6 JUMPI PUSH2 0x36C6 PUSH2 0x45DD JUMP JUMPDEST SUB PUSH2 0x36DE JUMPI POP PUSH2 0x13F SLOAD PUSH1 0x1 PUSH1 0x1 PUSH1 0xA0 SHL SUB AND PUSH2 0x3706 JUMP JUMPDEST PUSH1 0x4 DUP4 PUSH1 0x4 DUP2 GT ISZERO PUSH2 0x36F2 JUMPI PUSH2 0x36F2 PUSH2 0x45DD JUMP JUMPDEST SUB PUSH2 0x11C6 JUMPI POP PUSH2 0x143 SLOAD PUSH1 0x1 PUSH1 0x1 PUSH1 0xA0 SHL SUB AND JUMPDEST DUP1 PUSH1 0x1 PUSH1 0x1 PUSH1 0xA0 SHL SUB AND PUSH4 0xFEAF968C PUSH1 0x40 MLOAD DUP2 PUSH4 0xFFFFFFFF AND PUSH1 0xE0 SHL DUP2 MSTORE PUSH1 0x4 ADD PUSH1 0xA0 PUSH1 0x40 MLOAD DUP1 DUP4 SUB DUP2 DUP7 GAS STATICCALL SWAP3 POP POP POP DUP1 ISZERO PUSH2 0x3760 JUMPI POP PUSH1 0x40 DUP1 MLOAD PUSH1 0x1F RETURNDATASIZE SWAP1 DUP2 ADD PUSH1 0x1F NOT AND DUP3 ADD SWAP1 SWAP3 MSTORE PUSH2 0x375D SWAP2 DUP2 ADD SWAP1 PUSH2 0x49DF JUMP JUMPDEST PUSH1 0x1 JUMPDEST PUSH2 0x37CB JUMPI PUSH1 0x40 MLOAD PUSH3 0x461BCD PUSH1 0xE5 SHL DUP2 MSTORE PUSH1 0x20 PUSH1 0x4 DUP3 ADD MSTORE PUSH1 0x36 PUSH1 0x24 DUP3 ADD MSTORE PUSH32 0x54686572652077617320616E206572726F72206F627461696E696E6720746865 PUSH1 0x44 DUP3 ADD MSTORE PUSH22 0x2070726963652066726F6D20746865206F7261636C65 PUSH1 0x50 SHL PUSH1 0x64 DUP3 ADD MSTORE PUSH1 0x84 ADD PUSH2 0xABC JUMP JUMPDEST POP SWAP2 SWAP7 SWAP6 POP POP POP POP POP POP JUMP JUMPDEST POP SWAP2 SWAP1 POP JUMP JUMPDEST PUSH1 0xC9 SLOAD PUSH1 0x1 PUSH1 0x1 PUSH1 0xA0 SHL SUB AND CALLER EQ DUP1 PUSH2 0x3801 JUMPI POP PUSH2 0x130 SLOAD PUSH1 0x1 PUSH1 0x1 PUSH1 0xA0 SHL SUB AND CALLER EQ JUMPDEST PUSH2 0x381D JUMPI PUSH1 0x40 MLOAD PUSH3 0x461BCD PUSH1 0xE5 SHL DUP2 MSTORE PUSH1 0x4 ADD PUSH2 0xABC SWAP1 PUSH2 0x473E JUMP JUMPDEST PUSH1 0x1 PUSH1 0x1 PUSH1 0xA0 SHL SUB DUP3 AND PUSH2 0x38A8 JUMPI PUSH1 0x40 MLOAD PUSH3 0x461BCD PUSH1 0xE5 SHL DUP2 MSTORE PUSH1 0x20 PUSH1 0x4 DUP3 ADD MSTORE PUSH1 0x46 PUSH1 0x24 DUP3 ADD MSTORE PUSH32 0x496E766573746F72206164647265737320746F20757064617465207768697465 PUSH1 0x44 DUP3 ADD MSTORE PUSH32 0x6C697374207374617475732063616E6E6F7420626520746865207A65726F2061 PUSH1 0x64 DUP3 ADD MSTORE PUSH6 0x646472657373 PUSH1 0xD0 SHL PUSH1 0x84 DUP3 ADD MSTORE PUSH1 0xA4 ADD PUSH2 0xABC JUMP JUMPDEST PUSH1 0x1 PUSH1 0x1 PUSH1 0xA0 SHL SUB DUP3 AND PUSH1 0x0 SWAP1 DUP2 MSTORE PUSH2 0x132 PUSH1 0x20 MSTORE PUSH1 0x40 SWAP1 KECCAK256 SLOAD DUP2 ISZERO ISZERO PUSH1 0xFF SWAP1 SWAP2 AND ISZERO ISZERO SUB PUSH2 0x38E9 JUMPI PUSH1 0x40 MLOAD PUSH3 0x461BCD PUSH1 0xE5 SHL DUP2 MSTORE PUSH1 0x4 ADD PUSH2 0xABC SWAP1 PUSH2 0x4968 JUMP JUMPDEST PUSH1 0x1 PUSH1 0x1 PUSH1 0xA0 SHL SUB DUP3 AND PUSH1 0x0 DUP2 DUP2 MSTORE PUSH2 0x132 PUSH1 0x20 SWAP1 DUP2 MSTORE PUSH1 0x40 SWAP2 DUP3 SWAP1 KECCAK256 DUP1 SLOAD PUSH1 0xFF NOT AND DUP6 ISZERO ISZERO SWAP1 DUP2 OR SWAP1 SWAP2 SSTORE DUP3 MLOAD CALLER DUP2 MSTORE SWAP2 DUP3 ADD SWAP4 SWAP1 SWAP4 MSTORE SWAP1 DUP2 ADD SWAP2 SWAP1 SWAP2 MSTORE PUSH32 0x70BBEE4E66E3FD40F7DA099410CFD723ED4A0B4FEC11F6CC968E850DB827A88B SWAP1 PUSH1 0x60 ADD PUSH2 0x1792 JUMP JUMPDEST PUSH1 0x1 PUSH1 0x1 PUSH1 0xA0 SHL SUB SWAP2 DUP3 AND PUSH1 0x0 SWAP1 DUP2 MSTORE PUSH1 0x34 PUSH1 0x20 SWAP1 DUP2 MSTORE PUSH1 0x40 DUP1 DUP4 KECCAK256 SWAP4 SWAP1 SWAP5 AND DUP3 MSTORE SWAP2 SWAP1 SWAP2 MSTORE KECCAK256 SLOAD SWAP1 JUMP JUMPDEST PUSH2 0x3985 PUSH2 0x3B8E JUMP JUMPDEST PUSH1 0x1 PUSH1 0x1 PUSH1 0xA0 SHL SUB DUP2 AND PUSH2 0x39EA JUMPI PUSH1 0x40 MLOAD PUSH3 0x461BCD PUSH1 0xE5 SHL DUP2 MSTORE PUSH1 0x20 PUSH1 0x4 DUP3 ADD MSTORE PUSH1 0x26 PUSH1 0x24 DUP3 ADD MSTORE PUSH32 0x4F776E61626C653A206E6577206F776E657220697320746865207A65726F2061 PUSH1 0x44 DUP3 ADD MSTORE PUSH6 0x646472657373 PUSH1 0xD0 SHL PUSH1 0x64 DUP3 ADD MSTORE PUSH1 0x84 ADD PUSH2 0xABC JUMP JUMPDEST ADDRESS PUSH1 0x1 PUSH1 0x1 PUSH1 0xA0 SHL SUB DUP3 AND SUB PUSH2 0x3A61 JUMPI PUSH1 0x40 MLOAD PUSH3 0x461BCD PUSH1 0xE5 SHL DUP2 MSTORE PUSH1 0x20 PUSH1 0x4 DUP3 ADD MSTORE PUSH1 0x36 PUSH1 0x24 DUP3 ADD MSTORE PUSH32 0x4F776E61626C653A206E6577206F776E65722063616E6E6F7420626520746865 PUSH1 0x44 DUP3 ADD MSTORE PUSH22 0x2073616D6520636F6E74726163742061646472657373 PUSH1 0x50 SHL PUSH1 0x64 DUP3 ADD MSTORE PUSH1 0x84 ADD PUSH2 0xABC JUMP JUMPDEST PUSH2 0xDA0 DUP2 PUSH2 0x3F37 JUMP JUMPDEST PUSH1 0x1 PUSH1 0x1 PUSH1 0xA0 SHL SUB DUP4 AND PUSH2 0x3ACC JUMPI PUSH1 0x40 MLOAD PUSH3 0x461BCD PUSH1 0xE5 SHL DUP2 MSTORE PUSH1 0x20 PUSH1 0x4 DUP3 ADD MSTORE PUSH1 0x24 DUP1 DUP3 ADD MSTORE PUSH32 0x45524332303A20617070726F76652066726F6D20746865207A65726F20616464 PUSH1 0x44 DUP3 ADD MSTORE PUSH4 0x72657373 PUSH1 0xE0 SHL PUSH1 0x64 DUP3 ADD MSTORE PUSH1 0x84 ADD PUSH2 0xABC JUMP JUMPDEST PUSH1 0x1 PUSH1 0x1 PUSH1 0xA0 SHL SUB DUP3 AND PUSH2 0x3B2D JUMPI PUSH1 0x40 MLOAD PUSH3 0x461BCD PUSH1 0xE5 SHL DUP2 MSTORE PUSH1 0x20 PUSH1 0x4 DUP3 ADD MSTORE PUSH1 0x22 PUSH1 0x24 DUP3 ADD MSTORE PUSH32 0x45524332303A20617070726F766520746F20746865207A65726F206164647265 PUSH1 0x44 DUP3 ADD MSTORE PUSH2 0x7373 PUSH1 0xF0 SHL PUSH1 0x64 DUP3 ADD MSTORE PUSH1 0x84 ADD PUSH2 0xABC JUMP JUMPDEST PUSH1 0x1 PUSH1 0x1 PUSH1 0xA0 SHL SUB DUP4 DUP2 AND PUSH1 0x0 DUP2 DUP2 MSTORE PUSH1 0x34 PUSH1 0x20 SWAP1 DUP2 MSTORE PUSH1 0x40 DUP1 DUP4 KECCAK256 SWAP5 DUP8 AND DUP1 DUP5 MSTORE SWAP5 DUP3 MSTORE SWAP2 DUP3 SWAP1 KECCAK256 DUP6 SWAP1 SSTORE SWAP1 MLOAD DUP5 DUP2 MSTORE PUSH32 0x8C5BE1E5EBEC7D5BD14F71427D1E84F3DD0314C0F7B2291E5B200AC8C7C3B925 SWAP2 ADD PUSH1 0x40 MLOAD DUP1 SWAP2 SUB SWAP1 LOG3 POP POP POP JUMP JUMPDEST PUSH1 0xC9 SLOAD PUSH1 0x1 PUSH1 0x1 PUSH1 0xA0 SHL SUB AND CALLER EQ PUSH2 0x1EEF JUMPI PUSH1 0x40 MLOAD PUSH3 0x461BCD PUSH1 0xE5 SHL DUP2 MSTORE PUSH1 0x20 PUSH1 0x4 DUP3 ADD DUP2 SWAP1 MSTORE PUSH1 0x24 DUP3 ADD MSTORE PUSH32 0x4F776E61626C653A2063616C6C6572206973206E6F7420746865206F776E6572 PUSH1 0x44 DUP3 ADD MSTORE PUSH1 0x64 ADD PUSH2 0xABC JUMP JUMPDEST PUSH1 0x1 PUSH1 0x1 PUSH1 0xA0 SHL SUB DUP3 AND PUSH2 0x3C3E JUMPI PUSH1 0x40 MLOAD PUSH3 0x461BCD PUSH1 0xE5 SHL DUP2 MSTORE PUSH1 0x20 PUSH1 0x4 DUP3 ADD MSTORE PUSH1 0x1F PUSH1 0x24 DUP3 ADD MSTORE PUSH32 0x45524332303A206D696E7420746F20746865207A65726F206164647265737300 PUSH1 0x44 DUP3 ADD MSTORE PUSH1 0x64 ADD PUSH2 0xABC JUMP JUMPDEST PUSH2 0x3C4A PUSH1 0x0 DUP4 DUP4 PUSH2 0x4084 JUMP JUMPDEST DUP1 PUSH1 0x35 PUSH1 0x0 DUP3 DUP3 SLOAD PUSH2 0x3C5C SWAP2 SWAP1 PUSH2 0x45CA JUMP JUMPDEST SWAP1 SWAP2 SSTORE POP POP PUSH1 0x1 PUSH1 0x1 PUSH1 0xA0 SHL SUB DUP3 AND PUSH1 0x0 DUP2 DUP2 MSTORE PUSH1 0x33 PUSH1 0x20 SWAP1 DUP2 MSTORE PUSH1 0x40 DUP1 DUP4 KECCAK256 DUP1 SLOAD DUP7 ADD SWAP1 SSTORE MLOAD DUP5 DUP2 MSTORE PUSH32 0xDDF252AD1BE2C89B69C2B068FC378DAA952BA7F163C4A11628F55A4DF523B3EF SWAP2 ADD PUSH1 0x40 MLOAD DUP1 SWAP2 SUB SWAP1 LOG3 POP POP JUMP JUMPDEST PUSH1 0x0 PUSH2 0x3CC1 DUP5 DUP5 PUSH2 0x3952 JUMP JUMPDEST SWAP1 POP PUSH1 0x0 NOT DUP2 EQ PUSH2 0x3D29 JUMPI DUP2 DUP2 LT ISZERO PUSH2 0x3D1C JUMPI PUSH1 0x40 MLOAD PUSH3 0x461BCD PUSH1 0xE5 SHL DUP2 MSTORE PUSH1 0x20 PUSH1 0x4 DUP3 ADD MSTORE PUSH1 0x1D PUSH1 0x24 DUP3 ADD MSTORE PUSH32 0x45524332303A20696E73756666696369656E7420616C6C6F77616E6365000000 PUSH1 0x44 DUP3 ADD MSTORE PUSH1 0x64 ADD PUSH2 0xABC JUMP JUMPDEST PUSH2 0x3D29 DUP5 DUP5 DUP5 DUP5 SUB PUSH2 0x3A6A JUMP JUMPDEST POP POP POP POP JUMP JUMPDEST PUSH1 0x1 PUSH1 0x1 PUSH1 0xA0 SHL SUB DUP4 AND PUSH2 0x3D93 JUMPI PUSH1 0x40 MLOAD PUSH3 0x461BCD PUSH1 0xE5 SHL DUP2 MSTORE PUSH1 0x20 PUSH1 0x4 DUP3 ADD MSTORE PUSH1 0x25 PUSH1 0x24 DUP3 ADD MSTORE PUSH32 0x45524332303A207472616E736665722066726F6D20746865207A65726F206164 PUSH1 0x44 DUP3 ADD MSTORE PUSH5 0x6472657373 PUSH1 0xD8 SHL PUSH1 0x64 DUP3 ADD MSTORE PUSH1 0x84 ADD PUSH2 0xABC JUMP JUMPDEST PUSH1 0x1 PUSH1 0x1 PUSH1 0xA0 SHL SUB DUP3 AND PUSH2 0x3DF5 JUMPI PUSH1 0x40 MLOAD PUSH3 0x461BCD PUSH1 0xE5 SHL DUP2 MSTORE PUSH1 0x20 PUSH1 0x4 DUP3 ADD MSTORE PUSH1 0x23 PUSH1 0x24 DUP3 ADD MSTORE PUSH32 0x45524332303A207472616E7366657220746F20746865207A65726F2061646472 PUSH1 0x44 DUP3 ADD MSTORE PUSH3 0x657373 PUSH1 0xE8 SHL PUSH1 0x64 DUP3 ADD MSTORE PUSH1 0x84 ADD PUSH2 0xABC JUMP JUMPDEST PUSH2 0x3E00 DUP4 DUP4 DUP4 PUSH2 0x4084 JUMP JUMPDEST PUSH1 0x1 PUSH1 0x1 PUSH1 0xA0 SHL SUB DUP4 AND PUSH1 0x0 SWAP1 DUP2 MSTORE PUSH1 0x33 PUSH1 0x20 MSTORE PUSH1 0x40 SWAP1 KECCAK256 SLOAD DUP2 DUP2 LT ISZERO PUSH2 0x3E78 JUMPI PUSH1 0x40 MLOAD PUSH3 0x461BCD PUSH1 0xE5 SHL DUP2 MSTORE PUSH1 0x20 PUSH1 0x4 DUP3 ADD MSTORE PUSH1 0x26 PUSH1 0x24 DUP3 ADD MSTORE PUSH32 0x45524332303A207472616E7366657220616D6F756E7420657863656564732062 PUSH1 0x44 DUP3 ADD MSTORE PUSH6 0x616C616E6365 PUSH1 0xD0 SHL PUSH1 0x64 DUP3 ADD MSTORE PUSH1 0x84 ADD PUSH2 0xABC JUMP JUMPDEST PUSH1 0x1 PUSH1 0x1 PUSH1 0xA0 SHL SUB DUP1 DUP6 AND PUSH1 0x0 DUP2 DUP2 MSTORE PUSH1 0x33 PUSH1 0x20 MSTORE PUSH1 0x40 DUP1 DUP3 KECCAK256 DUP7 DUP7 SUB SWAP1 SSTORE SWAP3 DUP7 AND DUP1 DUP3 MSTORE SWAP1 DUP4 SWAP1 KECCAK256 DUP1 SLOAD DUP7 ADD SWAP1 SSTORE SWAP2 MLOAD PUSH32 0xDDF252AD1BE2C89B69C2B068FC378DAA952BA7F163C4A11628F55A4DF523B3EF SWAP1 PUSH2 0x3ED8 SWAP1 DUP7 DUP2 MSTORE PUSH1 0x20 ADD SWAP1 JUMP JUMPDEST PUSH1 0x40 MLOAD DUP1 SWAP2 SUB SWAP1 LOG3 PUSH2 0x3D29 JUMP JUMPDEST PUSH2 0x3EED PUSH2 0x40EA JUMP JUMPDEST PUSH1 0x65 DUP1 SLOAD PUSH1 0xFF NOT AND SWAP1 SSTORE PUSH32 0x5DB9EE0A495BF2E6FF9C91A7834C1BA4FDD244A5E8AA4E537BD38AEAE4B073AA CALLER JUMPDEST PUSH1 0x40 MLOAD PUSH1 0x1 PUSH1 0x1 PUSH1 0xA0 SHL SUB SWAP1 SWAP2 AND DUP2 MSTORE PUSH1 0x20 ADD PUSH1 0x40 MLOAD DUP1 SWAP2 SUB SWAP1 LOG1 JUMP JUMPDEST PUSH1 0xC9 DUP1 SLOAD PUSH1 0x1 PUSH1 0x1 PUSH1 0xA0 SHL SUB DUP4 DUP2 AND PUSH1 0x1 PUSH1 0x1 PUSH1 0xA0 SHL SUB NOT DUP4 AND DUP2 OR SWAP1 SWAP4 SSTORE PUSH1 0x40 MLOAD SWAP2 AND SWAP2 SWAP1 DUP3 SWAP1 PUSH32 0x8BE0079C531659141344CD1FD0A4F28419497F9722A3DAAFE3B4186F6B6457E0 SWAP1 PUSH1 0x0 SWAP1 LOG3 POP POP JUMP JUMPDEST PUSH1 0x0 SLOAD PUSH2 0x100 SWAP1 DIV PUSH1 0xFF AND PUSH2 0x3FB0 JUMPI PUSH1 0x40 MLOAD PUSH3 0x461BCD PUSH1 0xE5 SHL DUP2 MSTORE PUSH1 0x4 ADD PUSH2 0xABC SWAP1 PUSH2 0x4A2F JUMP JUMPDEST PUSH2 0x1EDB DUP3 DUP3 PUSH2 0x4133 JUMP JUMPDEST PUSH1 0x0 SLOAD PUSH2 0x100 SWAP1 DIV PUSH1 0xFF AND PUSH2 0x3FE1 JUMPI PUSH1 0x40 MLOAD PUSH3 0x461BCD PUSH1 0xE5 SHL DUP2 MSTORE PUSH1 0x4 ADD PUSH2 0xABC SWAP1 PUSH2 0x4A2F JUMP JUMPDEST PUSH2 0x1EEF PUSH2 0x4173 JUMP JUMPDEST PUSH1 0x0 SLOAD PUSH2 0x100 SWAP1 DIV PUSH1 0xFF AND PUSH2 0x4010 JUMPI PUSH1 0x40 MLOAD PUSH3 0x461BCD PUSH1 0xE5 SHL DUP2 MSTORE PUSH1 0x4 ADD PUSH2 0xABC SWAP1 PUSH2 0x4A2F JUMP JUMPDEST PUSH2 0x1EEF PUSH2 0x41A3 JUMP JUMPDEST PUSH1 0x0 SLOAD PUSH2 0x100 SWAP1 DIV PUSH1 0xFF AND PUSH2 0x403F JUMPI PUSH1 0x40 MLOAD PUSH3 0x461BCD PUSH1 0xE5 SHL DUP2 MSTORE PUSH1 0x4 ADD PUSH2 0xABC SWAP1 PUSH2 0x4A2F JUMP JUMPDEST PUSH2 0x1EEF PUSH2 0x41CA JUMP JUMPDEST PUSH2 0x404F PUSH2 0x41FD JUMP JUMPDEST PUSH1 0x65 DUP1 SLOAD PUSH1 0xFF NOT AND PUSH1 0x1 OR SWAP1 SSTORE PUSH32 0x62E78CEA01BEE320CD4E420270B5EA74000D11B0C9F74754EBDBFC544B05A258 PUSH2 0x3F1A CALLER SWAP1 JUMP JUMPDEST PUSH1 0x65 SLOAD PUSH1 0xFF AND ISZERO PUSH2 0x2A13 JUMPI PUSH1 0x40 MLOAD PUSH3 0x461BCD PUSH1 0xE5 SHL DUP2 MSTORE PUSH1 0x20 PUSH1 0x4 DUP3 ADD MSTORE PUSH1 0x2A PUSH1 0x24 DUP3 ADD MSTORE PUSH32 0x45524332305061757361626C653A20746F6B656E207472616E73666572207768 PUSH1 0x44 DUP3 ADD MSTORE PUSH10 0x1A5B19481C185D5CD959 PUSH1 0xB2 SHL PUSH1 0x64 DUP3 ADD MSTORE PUSH1 0x84 ADD PUSH2 0xABC JUMP JUMPDEST PUSH1 0x65 SLOAD PUSH1 0xFF AND PUSH2 0x1EEF JUMPI PUSH1 0x40 MLOAD PUSH3 0x461BCD PUSH1 0xE5 SHL DUP2 MSTORE PUSH1 0x20 PUSH1 0x4 DUP3 ADD MSTORE PUSH1 0x14 PUSH1 0x24 DUP3 ADD MSTORE PUSH20 0x14185D5CD8589B194E881B9BDD081C185D5CD959 PUSH1 0x62 SHL PUSH1 0x44 DUP3 ADD MSTORE PUSH1 0x64 ADD PUSH2 0xABC JUMP JUMPDEST PUSH1 0x0 SLOAD PUSH2 0x100 SWAP1 DIV PUSH1 0xFF AND PUSH2 0x415A JUMPI PUSH1 0x40 MLOAD PUSH3 0x461BCD PUSH1 0xE5 SHL DUP2 MSTORE PUSH1 0x4 ADD PUSH2 0xABC SWAP1 PUSH2 0x4A2F JUMP JUMPDEST PUSH1 0x36 PUSH2 0x4166 DUP4 DUP3 PUSH2 0x4AC8 JUMP JUMPDEST POP PUSH1 0x37 PUSH2 0x2A13 DUP3 DUP3 PUSH2 0x4AC8 JUMP JUMPDEST PUSH1 0x0 SLOAD PUSH2 0x100 SWAP1 DIV PUSH1 0xFF AND PUSH2 0x419A JUMPI PUSH1 0x40 MLOAD PUSH3 0x461BCD PUSH1 0xE5 SHL DUP2 MSTORE PUSH1 0x4 ADD PUSH2 0xABC SWAP1 PUSH2 0x4A2F JUMP JUMPDEST PUSH2 0x1EEF CALLER PUSH2 0x3F37 JUMP JUMPDEST PUSH1 0x0 SLOAD PUSH2 0x100 SWAP1 DIV PUSH1 0xFF AND PUSH2 0xACC JUMPI PUSH1 0x40 MLOAD PUSH3 0x461BCD PUSH1 0xE5 SHL DUP2 MSTORE PUSH1 0x4 ADD PUSH2 0xABC SWAP1 PUSH2 0x4A2F JUMP JUMPDEST PUSH1 0x0 SLOAD PUSH2 0x100 SWAP1 DIV PUSH1 0xFF AND PUSH2 0x41F1 JUMPI PUSH1 0x40 MLOAD PUSH3 0x461BCD PUSH1 0xE5 SHL DUP2 MSTORE PUSH1 0x4 ADD PUSH2 0xABC SWAP1 PUSH2 0x4A2F JUMP JUMPDEST PUSH1 0x65 DUP1 SLOAD PUSH1 0xFF NOT AND SWAP1 SSTORE JUMP JUMPDEST PUSH1 0x65 SLOAD PUSH1 0xFF AND ISZERO PUSH2 0x1EEF JUMPI PUSH1 0x40 MLOAD PUSH3 0x461BCD PUSH1 0xE5 SHL DUP2 MSTORE PUSH1 0x20 PUSH1 0x4 DUP3 ADD MSTORE PUSH1 0x10 PUSH1 0x24 DUP3 ADD MSTORE PUSH16 0x14185D5CD8589B194E881C185D5CD959 PUSH1 0x82 SHL PUSH1 0x44 DUP3 ADD MSTORE PUSH1 0x64 ADD PUSH2 0xABC JUMP JUMPDEST PUSH1 0x0 JUMPDEST DUP4 DUP2 LT ISZERO PUSH2 0x425E JUMPI DUP2 DUP2 ADD MLOAD DUP4 DUP3 ADD MSTORE PUSH1 0x20 ADD PUSH2 0x4246 JUMP JUMPDEST POP POP PUSH1 0x0 SWAP2 ADD MSTORE JUMP JUMPDEST PUSH1 0x20 DUP2 MSTORE PUSH1 0x0 DUP3 MLOAD DUP1 PUSH1 0x20 DUP5 ADD MSTORE PUSH2 0x4286 DUP2 PUSH1 0x40 DUP6 ADD PUSH1 0x20 DUP8 ADD PUSH2 0x4243 JUMP JUMPDEST PUSH1 0x1F ADD PUSH1 0x1F NOT AND SWAP2 SWAP1 SWAP2 ADD PUSH1 0x40 ADD SWAP3 SWAP2 POP POP JUMP JUMPDEST DUP1 CALLDATALOAD PUSH1 0x1 PUSH1 0x1 PUSH1 0xA0 SHL SUB DUP2 AND DUP2 EQ PUSH2 0x42B1 JUMPI PUSH1 0x0 DUP1 REVERT JUMPDEST SWAP2 SWAP1 POP JUMP JUMPDEST PUSH1 0x0 DUP1 PUSH1 0x40 DUP4 DUP6 SUB SLT ISZERO PUSH2 0x42C9 JUMPI PUSH1 0x0 DUP1 REVERT JUMPDEST PUSH2 0x42D2 DUP4 PUSH2 0x429A JUMP JUMPDEST SWAP5 PUSH1 0x20 SWAP4 SWAP1 SWAP4 ADD CALLDATALOAD SWAP4 POP POP POP JUMP JUMPDEST PUSH1 0x0 PUSH1 0x20 DUP3 DUP5 SUB SLT ISZERO PUSH2 0x42F2 JUMPI PUSH1 0x0 DUP1 REVERT JUMPDEST POP CALLDATALOAD SWAP2 SWAP1 POP JUMP JUMPDEST PUSH1 0x0 DUP1 PUSH1 0x0 PUSH1 0x60 DUP5 DUP7 SUB SLT ISZERO PUSH2 0x430E JUMPI PUSH1 0x0 DUP1 REVERT JUMPDEST PUSH2 0x4317 DUP5 PUSH2 0x429A JUMP JUMPDEST SWAP3 POP PUSH2 0x4325 PUSH1 0x20 DUP6 ADD PUSH2 0x429A JUMP JUMPDEST SWAP2 POP PUSH1 0x40 DUP5 ADD CALLDATALOAD SWAP1 POP SWAP3 POP SWAP3 POP SWAP3 JUMP JUMPDEST DUP1 CALLDATALOAD PUSH1 0x5 DUP2 LT PUSH2 0x42B1 JUMPI PUSH1 0x0 DUP1 REVERT JUMPDEST PUSH1 0x0 DUP1 PUSH1 0x40 DUP4 DUP6 SUB SLT ISZERO PUSH2 0x4357 JUMPI PUSH1 0x0 DUP1 REVERT JUMPDEST PUSH2 0x4360 DUP4 PUSH2 0x4335 JUMP JUMPDEST SWAP2 POP PUSH2 0x436E PUSH1 0x20 DUP5 ADD PUSH2 0x429A JUMP JUMPDEST SWAP1 POP SWAP3 POP SWAP3 SWAP1 POP JUMP JUMPDEST DUP1 ISZERO ISZERO DUP2 EQ PUSH2 0xDA0 JUMPI PUSH1 0x0 DUP1 REVERT JUMPDEST PUSH1 0x0 DUP1 PUSH1 0x40 DUP4 DUP6 SUB SLT ISZERO PUSH2 0x4398 JUMPI PUSH1 0x0 DUP1 REVERT JUMPDEST PUSH2 0x43A1 DUP4 PUSH2 0x429A JUMP JUMPDEST SWAP2 POP PUSH1 0x20 DUP4 ADD CALLDATALOAD PUSH2 0x43B1 DUP2 PUSH2 0x4377 JUMP JUMPDEST DUP1 SWAP2 POP POP SWAP3 POP SWAP3 SWAP1 POP JUMP JUMPDEST PUSH1 0x0 PUSH1 0x20 DUP3 DUP5 SUB SLT ISZERO PUSH2 0x43CE JUMPI PUSH1 0x0 DUP1 REVERT JUMPDEST PUSH2 0x43D7 DUP3 PUSH2 0x429A JUMP JUMPDEST SWAP4 SWAP3 POP POP POP JUMP JUMPDEST PUSH1 0x0 DUP1 PUSH1 0x40 DUP4 DUP6 SUB SLT ISZERO PUSH2 0x43F1 JUMPI PUSH1 0x0 DUP1 REVERT JUMPDEST PUSH2 0x42D2 DUP4 PUSH2 0x4335 JUMP JUMPDEST PUSH1 0x0 DUP1 PUSH1 0x40 DUP4 DUP6 SUB SLT ISZERO PUSH2 0x440D JUMPI PUSH1 0x0 DUP1 REVERT JUMPDEST DUP3 CALLDATALOAD SWAP2 POP PUSH2 0x436E PUSH1 0x20 DUP5 ADD PUSH2 0x429A JUMP JUMPDEST PUSH1 0x0 DUP1 PUSH1 0x40 DUP4 DUP6 SUB SLT ISZERO PUSH2 0x4430 JUMPI PUSH1 0x0 DUP1 REVERT JUMPDEST POP POP DUP1 CALLDATALOAD SWAP3 PUSH1 0x20 SWAP1 SWAP2 ADD CALLDATALOAD SWAP2 POP JUMP JUMPDEST PUSH1 0x0 PUSH1 0x20 DUP3 DUP5 SUB SLT ISZERO PUSH2 0x4451 JUMPI PUSH1 0x0 DUP1 REVERT JUMPDEST PUSH2 0x43D7 DUP3 PUSH2 0x4335 JUMP JUMPDEST PUSH1 0x0 DUP1 PUSH1 0x40 DUP4 DUP6 SUB SLT ISZERO PUSH2 0x446D JUMPI PUSH1 0x0 DUP1 REVERT JUMPDEST PUSH2 0x4360 DUP4 PUSH2 0x429A JUMP JUMPDEST PUSH1 0x1 DUP2 DUP2 SHR SWAP1 DUP3 AND DUP1 PUSH2 0x448A JUMPI PUSH1 0x7F DUP3 AND SWAP2 POP JUMPDEST PUSH1 0x20 DUP3 LT DUP2 SUB PUSH2 0x37D7 JUMPI PUSH4 0x4E487B71 PUSH1 0xE0 SHL PUSH1 0x0 MSTORE PUSH1 0x22 PUSH1 0x4 MSTORE PUSH1 0x24 PUSH1 0x0 REVERT JUMPDEST PUSH4 0x4E487B71 PUSH1 0xE0 SHL PUSH1 0x0 MSTORE PUSH1 0x11 PUSH1 0x4 MSTORE PUSH1 0x24 PUSH1 0x0 REVERT JUMPDEST PUSH1 0x1 DUP2 DUP2 JUMPDEST DUP1 DUP6 GT ISZERO PUSH2 0x44FB JUMPI DUP2 PUSH1 0x0 NOT DIV DUP3 GT ISZERO PUSH2 0x44E1 JUMPI PUSH2 0x44E1 PUSH2 0x44AA JUMP JUMPDEST DUP1 DUP6 AND ISZERO PUSH2 0x44EE JUMPI SWAP2 DUP2 MUL SWAP2 JUMPDEST SWAP4 DUP5 SHR SWAP4 SWAP1 DUP1 MUL SWAP1 PUSH2 0x44C5 JUMP JUMPDEST POP SWAP3 POP SWAP3 SWAP1 POP JUMP JUMPDEST PUSH1 0x0 DUP3 PUSH2 0x4512 JUMPI POP PUSH1 0x1 PUSH2 0xB79 JUMP JUMPDEST DUP2 PUSH2 0x451F JUMPI POP PUSH1 0x0 PUSH2 0xB79 JUMP JUMPDEST DUP2 PUSH1 0x1 DUP2 EQ PUSH2 0x4535 JUMPI PUSH1 0x2 DUP2 EQ PUSH2 0x453F JUMPI PUSH2 0x455B JUMP JUMPDEST PUSH1 0x1 SWAP2 POP POP PUSH2 0xB79 JUMP JUMPDEST PUSH1 0xFF DUP5 GT ISZERO PUSH2 0x4550 JUMPI PUSH2 0x4550 PUSH2 0x44AA JUMP JUMPDEST POP POP PUSH1 0x1 DUP3 SHL PUSH2 0xB79 JUMP JUMPDEST POP PUSH1 0x20 DUP4 LT PUSH2 0x133 DUP4 LT AND PUSH1 0x4E DUP5 LT PUSH1 0xB DUP5 LT AND OR ISZERO PUSH2 0x457E JUMPI POP DUP2 DUP2 EXP PUSH2 0xB79 JUMP JUMPDEST PUSH2 0x4588 DUP4 DUP4 PUSH2 0x44C0 JUMP JUMPDEST DUP1 PUSH1 0x0 NOT DIV DUP3 GT ISZERO PUSH2 0x459C JUMPI PUSH2 0x459C PUSH2 0x44AA JUMP JUMPDEST MUL SWAP4 SWAP3 POP POP POP JUMP JUMPDEST PUSH1 0x0 PUSH2 0x43D7 PUSH1 0xFF DUP5 AND DUP4 PUSH2 0x4503 JUMP JUMPDEST DUP1 DUP3 MUL DUP2 ISZERO DUP3 DUP3 DIV DUP5 EQ OR PUSH2 0xB79 JUMPI PUSH2 0xB79 PUSH2 0x44AA JUMP JUMPDEST DUP1 DUP3 ADD DUP1 DUP3 GT ISZERO PUSH2 0xB79 JUMPI PUSH2 0xB79 PUSH2 0x44AA JUMP JUMPDEST PUSH4 0x4E487B71 PUSH1 0xE0 SHL PUSH1 0x0 MSTORE PUSH1 0x21 PUSH1 0x4 MSTORE PUSH1 0x24 PUSH1 0x0 REVERT JUMPDEST PUSH4 0x4E487B71 PUSH1 0xE0 SHL PUSH1 0x0 MSTORE PUSH1 0x41 PUSH1 0x4 MSTORE PUSH1 0x24 PUSH1 0x0 REVERT JUMPDEST PUSH1 0x0 PUSH1 0x20 DUP3 DUP5 SUB SLT ISZERO PUSH2 0x461B JUMPI PUSH1 0x0 DUP1 REVERT JUMPDEST DUP2 MLOAD PUSH8 0xFFFFFFFFFFFFFFFF DUP1 DUP3 GT ISZERO PUSH2 0x4633 JUMPI PUSH1 0x0 DUP1 REVERT JUMPDEST DUP2 DUP5 ADD SWAP2 POP DUP5 PUSH1 0x1F DUP4 ADD SLT PUSH2 0x4647 JUMPI PUSH1 0x0 DUP1 REVERT JUMPDEST DUP2 MLOAD DUP2 DUP2 GT ISZERO PUSH2 0x4659 JUMPI PUSH2 0x4659 PUSH2 0x45F3 JUMP JUMPDEST PUSH1 0x40 MLOAD PUSH1 0x1F DUP3 ADD PUSH1 0x1F NOT SWAP1 DUP2 AND PUSH1 0x3F ADD AND DUP2 ADD SWAP1 DUP4 DUP3 GT DUP2 DUP4 LT OR ISZERO PUSH2 0x4681 JUMPI PUSH2 0x4681 PUSH2 0x45F3 JUMP JUMPDEST DUP2 PUSH1 0x40 MSTORE DUP3 DUP2 MSTORE DUP8 PUSH1 0x20 DUP5 DUP8 ADD ADD GT ISZERO PUSH2 0x469A JUMPI PUSH1 0x0 DUP1 REVERT JUMPDEST PUSH2 0x46AB DUP4 PUSH1 0x20 DUP4 ADD PUSH1 0x20 DUP9 ADD PUSH2 0x4243 JUMP JUMPDEST SWAP8 SWAP7 POP POP POP POP POP POP POP JUMP JUMPDEST PUSH1 0x20 DUP1 DUP3 MSTORE PUSH1 0x46 SWAP1 DUP3 ADD MSTORE PUSH32 0x546865206E6577206164647265737320646F6573206E6F74207365656D20746F PUSH1 0x40 DUP3 ADD MSTORE PUSH32 0x2062656C6F6E6720746F2074686520636F727265637420707269636520646174 PUSH1 0x60 DUP3 ADD MSTORE PUSH6 0x184819995959 PUSH1 0xD2 SHL PUSH1 0x80 DUP3 ADD MSTORE PUSH1 0xA0 ADD SWAP1 JUMP JUMPDEST PUSH1 0x0 DUP3 MLOAD PUSH2 0x4734 DUP2 DUP5 PUSH1 0x20 DUP8 ADD PUSH2 0x4243 JUMP JUMPDEST SWAP2 SWAP1 SWAP2 ADD SWAP3 SWAP2 POP POP JUMP JUMPDEST PUSH1 0x20 DUP1 DUP3 MSTORE PUSH1 0x3F SWAP1 DUP3 ADD MSTORE PUSH32 0x46756E6374696F6E207265736572766564206F6E6C7920666F72207468652077 PUSH1 0x40 DUP3 ADD MSTORE PUSH32 0x686974656C69737465722061646472657373206F7220746865206F776E657200 PUSH1 0x60 DUP3 ADD MSTORE PUSH1 0x80 ADD SWAP1 JUMP JUMPDEST PUSH1 0x20 DUP1 DUP3 MSTORE PUSH1 0x34 SWAP1 DUP3 ADD MSTORE PUSH32 0x496E766573746F72206164647265737320686173206E6F74206265656E206164 PUSH1 0x40 DUP3 ADD MSTORE PUSH20 0x191959081D1BC81D1A19481DDA1A5D195B1A5CDD PUSH1 0x62 SHL PUSH1 0x60 DUP3 ADD MSTORE PUSH1 0x80 ADD SWAP1 JUMP JUMPDEST PUSH1 0x20 DUP1 DUP3 MSTORE PUSH1 0x30 SWAP1 DUP3 ADD MSTORE PUSH32 0x496E766573746F72206164647265737320686173206265656E20616464656420 PUSH1 0x40 DUP3 ADD MSTORE PUSH16 0x1D1BC81D1A1948189B1858DADB1A5CDD PUSH1 0x82 SHL PUSH1 0x60 DUP3 ADD MSTORE PUSH1 0x80 ADD SWAP1 JUMP JUMPDEST PUSH1 0x5 DUP2 LT PUSH2 0x485D JUMPI PUSH4 0x4E487B71 PUSH1 0xE0 SHL PUSH1 0x0 MSTORE PUSH1 0x21 PUSH1 0x4 MSTORE PUSH1 0x24 PUSH1 0x0 REVERT JUMPDEST SWAP1 MSTORE JUMP JUMPDEST PUSH1 0x20 DUP2 ADD PUSH2 0xB79 DUP3 DUP5 PUSH2 0x483F JUMP JUMPDEST PUSH1 0x0 PUSH1 0x20 DUP3 DUP5 SUB SLT ISZERO PUSH2 0x4881 JUMPI PUSH1 0x0 DUP1 REVERT JUMPDEST POP MLOAD SWAP2 SWAP1 POP JUMP JUMPDEST PUSH1 0x0 PUSH1 0x20 DUP3 DUP5 SUB SLT ISZERO PUSH2 0x489A JUMPI PUSH1 0x0 DUP1 REVERT JUMPDEST DUP2 MLOAD PUSH2 0x43D7 DUP2 PUSH2 0x4377 JUMP JUMPDEST PUSH1 0x20 DUP1 DUP3 MSTORE PUSH1 0x41 SWAP1 DUP3 ADD MSTORE PUSH32 0x54686572652077617320616E206572726F72206F6E2073656E64696E67206261 PUSH1 0x40 DUP3 ADD MSTORE PUSH32 0x636B20746865204859415820546F6B656E20746F2074686520696E766573746F PUSH1 0x60 DUP3 ADD MSTORE PUSH1 0x39 PUSH1 0xF9 SHL PUSH1 0x80 DUP3 ADD MSTORE PUSH1 0xA0 ADD SWAP1 JUMP JUMPDEST PUSH1 0xA0 DUP2 ADD PUSH2 0x491A DUP3 DUP9 PUSH2 0x483F JUMP JUMPDEST PUSH1 0x1 PUSH1 0x1 PUSH1 0xA0 SHL SUB SWAP6 SWAP1 SWAP6 AND PUSH1 0x20 DUP3 ADD MSTORE PUSH1 0x40 DUP2 ADD SWAP4 SWAP1 SWAP4 MSTORE PUSH1 0x60 DUP4 ADD SWAP2 SWAP1 SWAP2 MSTORE PUSH1 0x80 SWAP1 SWAP2 ADD MSTORE SWAP2 SWAP1 POP JUMP JUMPDEST PUSH1 0x0 DUP3 PUSH2 0x4963 JUMPI PUSH4 0x4E487B71 PUSH1 0xE0 SHL PUSH1 0x0 MSTORE PUSH1 0x12 PUSH1 0x4 MSTORE PUSH1 0x24 PUSH1 0x0 REVERT JUMPDEST POP DIV SWAP1 JUMP JUMPDEST PUSH1 0x20 DUP1 DUP3 MSTORE PUSH1 0x38 SWAP1 DUP3 ADD MSTORE PUSH32 0x496E766573746F7220616464726573732068617320616C726561647920626565 PUSH1 0x40 DUP3 ADD MSTORE PUSH32 0x6E207570646174656420746F2074686174207374617475730000000000000000 PUSH1 0x60 DUP3 ADD MSTORE PUSH1 0x80 ADD SWAP1 JUMP JUMPDEST DUP1 MLOAD PUSH10 0xFFFFFFFFFFFFFFFFFFFF DUP2 AND DUP2 EQ PUSH2 0x42B1 JUMPI PUSH1 0x0 DUP1 REVERT JUMPDEST PUSH1 0x0 DUP1 PUSH1 0x0 DUP1 PUSH1 0x0 PUSH1 0xA0 DUP7 DUP9 SUB SLT ISZERO PUSH2 0x49F7 JUMPI PUSH1 0x0 DUP1 REVERT JUMPDEST PUSH2 0x4A00 DUP7 PUSH2 0x49C5 JUMP JUMPDEST SWAP5 POP PUSH1 0x20 DUP7 ADD MLOAD SWAP4 POP PUSH1 0x40 DUP7 ADD MLOAD SWAP3 POP PUSH1 0x60 DUP7 ADD MLOAD SWAP2 POP PUSH2 0x4A23 PUSH1 0x80 DUP8 ADD PUSH2 0x49C5 JUMP JUMPDEST SWAP1 POP SWAP3 SWAP6 POP SWAP3 SWAP6 SWAP1 SWAP4 POP JUMP JUMPDEST PUSH1 0x20 DUP1 DUP3 MSTORE PUSH1 0x2B SWAP1 DUP3 ADD MSTORE PUSH32 0x496E697469616C697A61626C653A20636F6E7472616374206973206E6F742069 PUSH1 0x40 DUP3 ADD MSTORE PUSH11 0x6E697469616C697A696E67 PUSH1 0xA8 SHL PUSH1 0x60 DUP3 ADD MSTORE PUSH1 0x80 ADD SWAP1 JUMP JUMPDEST PUSH1 0x1F DUP3 GT ISZERO PUSH2 0x2A13 JUMPI PUSH1 0x0 DUP2 DUP2 MSTORE PUSH1 0x20 DUP2 KECCAK256 PUSH1 0x1F DUP6 ADD PUSH1 0x5 SHR DUP2 ADD PUSH1 0x20 DUP7 LT ISZERO PUSH2 0x4AA1 JUMPI POP DUP1 JUMPDEST PUSH1 0x1F DUP6 ADD PUSH1 0x5 SHR DUP3 ADD SWAP2 POP JUMPDEST DUP2 DUP2 LT ISZERO PUSH2 0x4AC0 JUMPI DUP3 DUP2 SSTORE PUSH1 0x1 ADD PUSH2 0x4AAD JUMP JUMPDEST POP POP POP POP POP POP JUMP JUMPDEST DUP2 MLOAD PUSH8 0xFFFFFFFFFFFFFFFF DUP2 GT ISZERO PUSH2 0x4AE2 JUMPI PUSH2 0x4AE2 PUSH2 0x45F3 JUMP JUMPDEST PUSH2 0x4AF6 DUP2 PUSH2 0x4AF0 DUP5 SLOAD PUSH2 0x4476 JUMP JUMPDEST DUP5 PUSH2 0x4A7A JUMP JUMPDEST PUSH1 0x20 DUP1 PUSH1 0x1F DUP4 GT PUSH1 0x1 DUP2 EQ PUSH2 0x4B2B JUMPI PUSH1 0x0 DUP5 ISZERO PUSH2 0x4B13 JUMPI POP DUP6 DUP4 ADD MLOAD JUMPDEST PUSH1 0x0 NOT PUSH1 0x3 DUP7 SWAP1 SHL SHR NOT AND PUSH1 0x1 DUP6 SWAP1 SHL OR DUP6 SSTORE PUSH2 0x4AC0 JUMP JUMPDEST PUSH1 0x0 DUP6 DUP2 MSTORE PUSH1 0x20 DUP2 KECCAK256 PUSH1 0x1F NOT DUP7 AND SWAP2 JUMPDEST DUP3 DUP2 LT ISZERO PUSH2 0x4B5A JUMPI DUP9 DUP7 ADD MLOAD DUP3 SSTORE SWAP5 DUP5 ADD SWAP5 PUSH1 0x1 SWAP1 SWAP2 ADD SWAP1 DUP5 ADD PUSH2 0x4B3B JUMP JUMPDEST POP DUP6 DUP3 LT ISZERO PUSH2 0x4B78 JUMPI DUP8 DUP6 ADD MLOAD PUSH1 0x0 NOT PUSH1 0x3 DUP9 SWAP1 SHL PUSH1 0xF8 AND SHR NOT AND DUP2 SSTORE JUMPDEST POP POP POP POP POP PUSH1 0x1 SWAP1 DUP2 SHL ADD SWAP1 SSTORE POP JUMP INVALID PUSH2 0x6479 KECCAK256 PUSH3 0x65656E KECCAK256 PUSH14 0x6F64696669656420746F20746861 PUSH21 0x2076616C756500A26469706673582212207F417492 ORIGIN 0xB9 MSTORE8 0x4B PUSH31 0x778FA5D84DEC0CD253AF05956D5F8A50B5D9A9156951364736F6C63430008 EQ STOP CALLER "},"methodIdentifiers":{"addToWhiteList(address)":"47ee0394","allowance(address,address)":"dd62ed3e","approve(address,uint256)":"095ea7b3","balanceOf(address)":"70a08231","calculateTotalHyaxTokenToReturn(uint256,uint256)":"8c945e63","decimals()":"313ce567","decreaseAllowance(address,uint256)":"a457c2d7","getCurrentTokenPrice(uint8)":"bb6f98fb","hyaxPrice()":"377c779f","increaseAllowance(address,uint256)":"39509351","initialize()":"8129fc1c","investFromCryptoToken(uint8,uint256)":"731de514","investFromMatic()":"3b14f359","investorData(address)":"de1f5346","maticPriceFeedAddress()":"fb2dc76e","maximumInvestmentAllowedInUSD()":"8049bcb6","minimumInvestmentAllowedInUSD()":"2a241ad3","name()":"06fdde03","owner()":"8da5cb5b","pause()":"8456cb59","paused()":"5c975abb","renounceOwnership()":"715018a6","symbol()":"95d89b41","tokenIssuance(uint256)":"128ef022","totalSupply()":"18160ddd","transfer(address,uint256)":"a9059cbb","transferFrom(address,address,uint256)":"23b872dd","transferOwnership(address)":"f2fde38b","treasuryAddress()":"c5f956af","unpause()":"3f4ba83a","updateBlacklistStatus(address,bool)":"b8360806","updateHyaxPrice(uint256)":"b40ed449","updateMaximumInvestmentAllowedInUSD(uint256)":"5ec2562a","updateMinimumInvestmentAllowedInUSD(uint256)":"b2c568f3","updatePriceFeedAddress(uint8,address)":"23c66f9a","updateQualifiedInvestorStatus(address,bool)":"367f44fb","updateTokenAddress(uint8,address)":"3de6f379","updateTreasuryAddress(address)":"841e4561","updateWhiteListerAddress(address)":"653c3a47","updateWhitelistStatus(address,bool)":"c07732a3","usdcPriceFeedAddress()":"40b5ea9c","usdcToken()":"11eac855","usdcTokenAddress()":"77b53ece","usdtPriceFeedAddress()":"08cd468f","usdtToken()":"a98ad46c","usdtTokenAddress()":"9d741e5d","validateMaximumInvestedAmountAndInvestorLimit(uint256,address)":"8116de2b","wbtcPriceFeedAddress()":"f7a47f81","wbtcToken()":"27614df8","wbtcTokenAddress()":"4c526bdb","wethPriceFeedAddress()":"5ae9384e","wethToken()":"4b57b0be","wethTokenAddress()":"0f9dad71","whiteListerAddress()":"65699d28"}},"storageLayout":{"storage":[{"astId":184,"contract":"contracts/HYAXUpgradeable.sol:HYAXUpgradeable","label":"_initialized","offset":0,"slot":"0","type":"t_uint8"},{"astId":187,"contract":"contracts/HYAXUpgradeable.sol:HYAXUpgradeable","label":"_initializing","offset":1,"slot":"0","type":"t_bool"},{"astId":1703,"contract":"contracts/HYAXUpgradeable.sol:HYAXUpgradeable","label":"__gap","offset":0,"slot":"1","type":"t_array(t_uint256)50_storage"},{"astId":576,"contract":"contracts/HYAXUpgradeable.sol:HYAXUpgradeable","label":"_balances","offset":0,"slot":"51","type":"t_mapping(t_address,t_uint256)"},{"astId":582,"contract":"contracts/HYAXUpgradeable.sol:HYAXUpgradeable","label":"_allowances","offset":0,"slot":"52","type":"t_mapping(t_address,t_mapping(t_address,t_uint256))"},{"astId":584,"contract":"contracts/HYAXUpgradeable.sol:HYAXUpgradeable","label":"_totalSupply","offset":0,"slot":"53","type":"t_uint256"},{"astId":586,"contract":"contracts/HYAXUpgradeable.sol:HYAXUpgradeable","label":"_name","offset":0,"slot":"54","type":"t_string_storage"},{"astId":588,"contract":"contracts/HYAXUpgradeable.sol:HYAXUpgradeable","label":"_symbol","offset":0,"slot":"55","type":"t_string_storage"},{"astId":1168,"contract":"contracts/HYAXUpgradeable.sol:HYAXUpgradeable","label":"__gap","offset":0,"slot":"56","type":"t_array(t_uint256)45_storage"},{"astId":367,"contract":"contracts/HYAXUpgradeable.sol:HYAXUpgradeable","label":"_paused","offset":0,"slot":"101","type":"t_bool"},{"astId":472,"contract":"contracts/HYAXUpgradeable.sol:HYAXUpgradeable","label":"__gap","offset":0,"slot":"102","type":"t_array(t_uint256)49_storage"},{"astId":1306,"contract":"contracts/HYAXUpgradeable.sol:HYAXUpgradeable","label":"__gap","offset":0,"slot":"151","type":"t_array(t_uint256)50_storage"},{"astId":56,"contract":"contracts/HYAXUpgradeable.sol:HYAXUpgradeable","label":"_owner","offset":0,"slot":"201","type":"t_address"},{"astId":176,"contract":"contracts/HYAXUpgradeable.sol:HYAXUpgradeable","label":"__gap","offset":0,"slot":"202","type":"t_array(t_uint256)49_storage"},{"astId":487,"contract":"contracts/HYAXUpgradeable.sol:HYAXUpgradeable","label":"_status","offset":0,"slot":"251","type":"t_uint256"},{"astId":556,"contract":"contracts/HYAXUpgradeable.sol:HYAXUpgradeable","label":"__gap","offset":0,"slot":"252","type":"t_array(t_uint256)49_storage"},{"astId":1885,"contract":"contracts/HYAXUpgradeable.sol:HYAXUpgradeable","label":"hyaxPrice","offset":0,"slot":"301","type":"t_uint256"},{"astId":1888,"contract":"contracts/HYAXUpgradeable.sol:HYAXUpgradeable","label":"minimumInvestmentAllowedInUSD","offset":0,"slot":"302","type":"t_uint256"},{"astId":1891,"contract":"contracts/HYAXUpgradeable.sol:HYAXUpgradeable","label":"maximumInvestmentAllowedInUSD","offset":0,"slot":"303","type":"t_uint256"},{"astId":1894,"contract":"contracts/HYAXUpgradeable.sol:HYAXUpgradeable","label":"whiteListerAddress","offset":0,"slot":"304","type":"t_address"},{"astId":1897,"contract":"contracts/HYAXUpgradeable.sol:HYAXUpgradeable","label":"treasuryAddress","offset":0,"slot":"305","type":"t_address"},{"astId":1914,"contract":"contracts/HYAXUpgradeable.sol:HYAXUpgradeable","label":"investorData","offset":0,"slot":"306","type":"t_mapping(t_address,t_struct(InvestorData)1909_storage)"},{"astId":1923,"contract":"contracts/HYAXUpgradeable.sol:HYAXUpgradeable","label":"maticPriceFeedAddress","offset":0,"slot":"307","type":"t_address"},{"astId":1927,"contract":"contracts/HYAXUpgradeable.sol:HYAXUpgradeable","label":"dataFeedMatic","offset":0,"slot":"308","type":"t_contract(AggregatorV3Interface)45"},{"astId":1930,"contract":"contracts/HYAXUpgradeable.sol:HYAXUpgradeable","label":"usdcTokenAddress","offset":0,"slot":"309","type":"t_address"},{"astId":1933,"contract":"contracts/HYAXUpgradeable.sol:HYAXUpgradeable","label":"usdcPriceFeedAddress","offset":0,"slot":"310","type":"t_address"},{"astId":1937,"contract":"contracts/HYAXUpgradeable.sol:HYAXUpgradeable","label":"dataFeedUsdc","offset":0,"slot":"311","type":"t_contract(AggregatorV3Interface)45"},{"astId":1941,"contract":"contracts/HYAXUpgradeable.sol:HYAXUpgradeable","label":"usdcToken","offset":0,"slot":"312","type":"t_contract(ERC20TokenInterface)1739"},{"astId":1944,"contract":"contracts/HYAXUpgradeable.sol:HYAXUpgradeable","label":"usdtTokenAddress","offset":0,"slot":"313","type":"t_address"},{"astId":1947,"contract":"contracts/HYAXUpgradeable.sol:HYAXUpgradeable","label":"usdtPriceFeedAddress","offset":0,"slot":"314","type":"t_address"},{"astId":1951,"contract":"contracts/HYAXUpgradeable.sol:HYAXUpgradeable","label":"dataFeedUsdt","offset":0,"slot":"315","type":"t_contract(AggregatorV3Interface)45"},{"astId":1955,"contract":"contracts/HYAXUpgradeable.sol:HYAXUpgradeable","label":"usdtToken","offset":0,"slot":"316","type":"t_contract(ERC20TokenInterface)1739"},{"astId":1958,"contract":"contracts/HYAXUpgradeable.sol:HYAXUpgradeable","label":"wbtcTokenAddress","offset":0,"slot":"317","type":"t_address"},{"astId":1961,"contract":"contracts/HYAXUpgradeable.sol:HYAXUpgradeable","label":"wbtcPriceFeedAddress","offset":0,"slot":"318","type":"t_address"},{"astId":1965,"contract":"contracts/HYAXUpgradeable.sol:HYAXUpgradeable","label":"dataFeedWbtc","offset":0,"slot":"319","type":"t_contract(AggregatorV3Interface)45"},{"astId":1969,"contract":"contracts/HYAXUpgradeable.sol:HYAXUpgradeable","label":"wbtcToken","offset":0,"slot":"320","type":"t_contract(ERC20TokenInterface)1739"},{"astId":1972,"contract":"contracts/HYAXUpgradeable.sol:HYAXUpgradeable","label":"wethTokenAddress","offset":0,"slot":"321","type":"t_address"},{"astId":1975,"contract":"contracts/HYAXUpgradeable.sol:HYAXUpgradeable","label":"wethPriceFeedAddress","offset":0,"slot":"322","type":"t_address"},{"astId":1979,"contract":"contracts/HYAXUpgradeable.sol:HYAXUpgradeable","label":"dataFeedWeth","offset":0,"slot":"323","type":"t_contract(AggregatorV3Interface)45"},{"astId":1983,"contract":"contracts/HYAXUpgradeable.sol:HYAXUpgradeable","label":"wethToken","offset":0,"slot":"324","type":"t_contract(ERC20TokenInterface)1739"}],"types":{"t_address":{"encoding":"inplace","label":"address","numberOfBytes":"20"},"t_array(t_uint256)45_storage":{"base":"t_uint256","encoding":"inplace","label":"uint256[45]","numberOfBytes":"1440"},"t_array(t_uint256)49_storage":{"base":"t_uint256","encoding":"inplace","label":"uint256[49]","numberOfBytes":"1568"},"t_array(t_uint256)50_storage":{"base":"t_uint256","encoding":"inplace","label":"uint256[50]","numberOfBytes":"1600"},"t_bool":{"encoding":"inplace","label":"bool","numberOfBytes":"1"},"t_contract(AggregatorV3Interface)45":{"encoding":"inplace","label":"contract AggregatorV3Interface","numberOfBytes":"20"},"t_contract(ERC20TokenInterface)1739":{"encoding":"inplace","label":"contract ERC20TokenInterface","numberOfBytes":"20"},"t_mapping(t_address,t_mapping(t_address,t_uint256))":{"encoding":"mapping","key":"t_address","label":"mapping(address => mapping(address => uint256))","numberOfBytes":"32","value":"t_mapping(t_address,t_uint256)"},"t_mapping(t_address,t_struct(InvestorData)1909_storage)":{"encoding":"mapping","key":"t_address","label":"mapping(address => struct HYAXUpgradeable.InvestorData)","numberOfBytes":"32","value":"t_struct(InvestorData)1909_storage"},"t_mapping(t_address,t_uint256)":{"encoding":"mapping","key":"t_address","label":"mapping(address => uint256)","numberOfBytes":"32","value":"t_uint256"},"t_string_storage":{"encoding":"bytes","label":"string","numberOfBytes":"32"},"t_struct(InvestorData)1909_storage":{"encoding":"inplace","label":"struct HYAXUpgradeable.InvestorData","members":[{"astId":1900,"contract":"contracts/HYAXUpgradeable.sol:HYAXUpgradeable","label":"isWhiteListed","offset":0,"slot":"0","type":"t_bool"},{"astId":1902,"contract":"contracts/HYAXUpgradeable.sol:HYAXUpgradeable","label":"isBlacklisted","offset":1,"slot":"0","type":"t_bool"},{"astId":1904,"contract":"contracts/HYAXUpgradeable.sol:HYAXUpgradeable","label":"isQualifiedInvestor","offset":2,"slot":"0","type":"t_bool"},{"astId":1906,"contract":"contracts/HYAXUpgradeable.sol:HYAXUpgradeable","label":"totalHyaxBoughtByInvestor","offset":0,"slot":"1","type":"t_uint256"},{"astId":1908,"contract":"contracts/HYAXUpgradeable.sol:HYAXUpgradeable","label":"totalUsdDepositedByInvestor","offset":0,"slot":"2","type":"t_uint256"}],"numberOfBytes":"96"},"t_uint256":{"encoding":"inplace","label":"uint256","numberOfBytes":"32"},"t_uint8":{"encoding":"inplace","label":"uint8","numberOfBytes":"1"}}}}}}