{
  "_format": "hh-sol-artifact-1",
  "contractName": "HYAXLocalUpgradeable",
  "sourceName": "contracts/HYAXLocalUpgradeable.sol",
  "abi": [
    {
      "anonymous": false,
      "inputs": [
        {
          "indexed": true,
          "internalType": "address",
          "name": "owner",
          "type": "address"
        },
        {
          "indexed": true,
          "internalType": "address",
          "name": "spender",
          "type": "address"
        },
        {
          "indexed": false,
          "internalType": "uint256",
          "name": "value",
          "type": "uint256"
        }
      ],
      "name": "Approval",
      "type": "event"
    },
    {
      "anonymous": false,
      "inputs": [
        {
          "indexed": false,
          "internalType": "uint8",
          "name": "version",
          "type": "uint8"
        }
      ],
      "name": "Initialized",
      "type": "event"
    },
    {
      "anonymous": false,
      "inputs": [
        {
          "indexed": false,
          "internalType": "enum HYAXLocalUpgradeable.TokenType",
          "name": "tokenType",
          "type": "uint8"
        },
        {
          "indexed": false,
          "internalType": "address",
          "name": "sender",
          "type": "address"
        },
        {
          "indexed": false,
          "internalType": "uint256",
          "name": "tokenAmount",
          "type": "uint256"
        },
        {
          "indexed": false,
          "internalType": "uint256",
          "name": "totalInvestmentInUsd",
          "type": "uint256"
        },
        {
          "indexed": false,
          "internalType": "uint256",
          "name": "hyaxAmount",
          "type": "uint256"
        }
      ],
      "name": "InvestFromCryptoToken",
      "type": "event"
    },
    {
      "anonymous": false,
      "inputs": [
        {
          "indexed": false,
          "internalType": "address",
          "name": "sender",
          "type": "address"
        },
        {
          "indexed": false,
          "internalType": "uint256",
          "name": "maticAmount",
          "type": "uint256"
        },
        {
          "indexed": false,
          "internalType": "uint256",
          "name": "totalInvestmentInUsd",
          "type": "uint256"
        },
        {
          "indexed": false,
          "internalType": "uint256",
          "name": "hyaxAmount",
          "type": "uint256"
        }
      ],
      "name": "InvestFromMatic",
      "type": "event"
    },
    {
      "anonymous": false,
      "inputs": [
        {
          "indexed": false,
          "internalType": "address",
          "name": "sender",
          "type": "address"
        },
        {
          "indexed": false,
          "internalType": "address",
          "name": "_QualifiedInvestorAddress",
          "type": "address"
        }
      ],
      "name": "InvestorAddedToQualifiedInvestorList",
      "type": "event"
    },
    {
      "anonymous": false,
      "inputs": [
        {
          "indexed": false,
          "internalType": "address",
          "name": "sender",
          "type": "address"
        },
        {
          "indexed": false,
          "internalType": "address",
          "name": "_investorAddress",
          "type": "address"
        }
      ],
      "name": "InvestorAddedToWhiteList",
      "type": "event"
    },
    {
      "anonymous": false,
      "inputs": [
        {
          "indexed": false,
          "internalType": "address",
          "name": "sender",
          "type": "address"
        },
        {
          "indexed": false,
          "internalType": "address",
          "name": "_QualifiedInvestorAddress",
          "type": "address"
        }
      ],
      "name": "InvestorRemovedFromQualifiedInvestorList",
      "type": "event"
    },
    {
      "anonymous": false,
      "inputs": [
        {
          "indexed": false,
          "internalType": "address",
          "name": "sender",
          "type": "address"
        },
        {
          "indexed": false,
          "internalType": "address",
          "name": "_investorAddress",
          "type": "address"
        }
      ],
      "name": "InvestorRemovedFromWhiteList",
      "type": "event"
    },
    {
      "anonymous": false,
      "inputs": [
        {
          "indexed": true,
          "internalType": "address",
          "name": "previousOwner",
          "type": "address"
        },
        {
          "indexed": true,
          "internalType": "address",
          "name": "newOwner",
          "type": "address"
        }
      ],
      "name": "OwnershipTransferred",
      "type": "event"
    },
    {
      "anonymous": false,
      "inputs": [
        {
          "indexed": false,
          "internalType": "address",
          "name": "account",
          "type": "address"
        }
      ],
      "name": "Paused",
      "type": "event"
    },
    {
      "anonymous": false,
      "inputs": [
        {
          "indexed": false,
          "internalType": "address",
          "name": "sender",
          "type": "address"
        },
        {
          "indexed": false,
          "internalType": "uint256",
          "name": "amount",
          "type": "uint256"
        }
      ],
      "name": "TokenIssuance",
      "type": "event"
    },
    {
      "anonymous": false,
      "inputs": [
        {
          "indexed": true,
          "internalType": "address",
          "name": "from",
          "type": "address"
        },
        {
          "indexed": true,
          "internalType": "address",
          "name": "to",
          "type": "address"
        },
        {
          "indexed": false,
          "internalType": "uint256",
          "name": "value",
          "type": "uint256"
        }
      ],
      "name": "Transfer",
      "type": "event"
    },
    {
      "anonymous": false,
      "inputs": [
        {
          "indexed": false,
          "internalType": "address",
          "name": "account",
          "type": "address"
        }
      ],
      "name": "Unpaused",
      "type": "event"
    },
    {
      "anonymous": false,
      "inputs": [
        {
          "indexed": false,
          "internalType": "uint256",
          "name": "_newHyaxPrice",
          "type": "uint256"
        }
      ],
      "name": "UpdatedHyaxPrice",
      "type": "event"
    },
    {
      "anonymous": false,
      "inputs": [
        {
          "indexed": false,
          "internalType": "address",
          "name": "_newMaticPriceFeedAddress",
          "type": "address"
        }
      ],
      "name": "UpdatedMaticPriceFeedAddress",
      "type": "event"
    },
    {
      "anonymous": false,
      "inputs": [
        {
          "indexed": false,
          "internalType": "uint256",
          "name": "_newMaximumInvestmentAllowedInUSD",
          "type": "uint256"
        }
      ],
      "name": "UpdatedMaximumInvestmentAllowedInUSD",
      "type": "event"
    },
    {
      "anonymous": false,
      "inputs": [
        {
          "indexed": false,
          "internalType": "uint256",
          "name": "_newMinimumInvestmentAllowedInUSD",
          "type": "uint256"
        }
      ],
      "name": "UpdatedMinimumInvestmentAllowedInUSD",
      "type": "event"
    },
    {
      "anonymous": false,
      "inputs": [
        {
          "indexed": false,
          "internalType": "address",
          "name": "_newTreasuryAddress",
          "type": "address"
        }
      ],
      "name": "UpdatedTreasuryAddress",
      "type": "event"
    },
    {
      "anonymous": false,
      "inputs": [
        {
          "indexed": false,
          "internalType": "address",
          "name": "_newUsdcPriceFeedAddress",
          "type": "address"
        }
      ],
      "name": "UpdatedUsdcPriceFeedAddress",
      "type": "event"
    },
    {
      "anonymous": false,
      "inputs": [
        {
          "indexed": false,
          "internalType": "address",
          "name": "_newUsdcTokenAddress",
          "type": "address"
        }
      ],
      "name": "UpdatedUsdcTokenAddress",
      "type": "event"
    },
    {
      "anonymous": false,
      "inputs": [
        {
          "indexed": false,
          "internalType": "address",
          "name": "_newUsdtPriceFeedAddress",
          "type": "address"
        }
      ],
      "name": "UpdatedUsdtPriceFeedAddress",
      "type": "event"
    },
    {
      "anonymous": false,
      "inputs": [
        {
          "indexed": false,
          "internalType": "address",
          "name": "_newUsdtTokenAddress",
          "type": "address"
        }
      ],
      "name": "UpdatedUsdtTokenAddress",
      "type": "event"
    },
    {
      "anonymous": false,
      "inputs": [
        {
          "indexed": false,
          "internalType": "address",
          "name": "_newWbtcPriceFeedAddress",
          "type": "address"
        }
      ],
      "name": "UpdatedWbtcPriceFeedAddress",
      "type": "event"
    },
    {
      "anonymous": false,
      "inputs": [
        {
          "indexed": false,
          "internalType": "address",
          "name": "_newWbtcTokenAddress",
          "type": "address"
        }
      ],
      "name": "UpdatedWbtcTokenAddress",
      "type": "event"
    },
    {
      "anonymous": false,
      "inputs": [
        {
          "indexed": false,
          "internalType": "address",
          "name": "_newWethPriceFeedAddress",
          "type": "address"
        }
      ],
      "name": "UpdatedWethPriceFeedAddress",
      "type": "event"
    },
    {
      "anonymous": false,
      "inputs": [
        {
          "indexed": false,
          "internalType": "address",
          "name": "_newWethTokenAddress",
          "type": "address"
        }
      ],
      "name": "UpdatedWethTokenAddress",
      "type": "event"
    },
    {
      "anonymous": false,
      "inputs": [
        {
          "indexed": false,
          "internalType": "address",
          "name": "_newWhiteListerAddress",
          "type": "address"
        }
      ],
      "name": "UpdatedWhiteListerAddress",
      "type": "event"
    },
    {
      "inputs": [
        {
          "internalType": "address",
          "name": "_qualifiedInvestorAddress",
          "type": "address"
        }
      ],
      "name": "addToQualifiedInvestorList",
      "outputs": [],
      "stateMutability": "nonpayable",
      "type": "function"
    },
    {
      "inputs": [
        {
          "internalType": "address",
          "name": "_investorAddress",
          "type": "address"
        }
      ],
      "name": "addToWhiteList",
      "outputs": [],
      "stateMutability": "nonpayable",
      "type": "function"
    },
    {
      "inputs": [
        {
          "internalType": "address",
          "name": "owner",
          "type": "address"
        },
        {
          "internalType": "address",
          "name": "spender",
          "type": "address"
        }
      ],
      "name": "allowance",
      "outputs": [
        {
          "internalType": "uint256",
          "name": "",
          "type": "uint256"
        }
      ],
      "stateMutability": "view",
      "type": "function"
    },
    {
      "inputs": [
        {
          "internalType": "address",
          "name": "spender",
          "type": "address"
        },
        {
          "internalType": "uint256",
          "name": "amount",
          "type": "uint256"
        }
      ],
      "name": "approve",
      "outputs": [
        {
          "internalType": "bool",
          "name": "",
          "type": "bool"
        }
      ],
      "stateMutability": "nonpayable",
      "type": "function"
    },
    {
      "inputs": [
        {
          "internalType": "address",
          "name": "account",
          "type": "address"
        }
      ],
      "name": "balanceOf",
      "outputs": [
        {
          "internalType": "uint256",
          "name": "",
          "type": "uint256"
        }
      ],
      "stateMutability": "view",
      "type": "function"
    },
    {
      "inputs": [
        {
          "internalType": "uint256",
          "name": "_amount",
          "type": "uint256"
        },
        {
          "internalType": "uint256",
          "name": "_currentCryptocurrencyPrice",
          "type": "uint256"
        }
      ],
      "name": "calculateTotalHyaxTokenToReturn",
      "outputs": [
        {
          "internalType": "uint256",
          "name": "totalInvestmentInUsd",
          "type": "uint256"
        },
        {
          "internalType": "uint256",
          "name": "totalHyaxTokenToReturn",
          "type": "uint256"
        }
      ],
      "stateMutability": "view",
      "type": "function"
    },
    {
      "inputs": [],
      "name": "decimals",
      "outputs": [
        {
          "internalType": "uint8",
          "name": "",
          "type": "uint8"
        }
      ],
      "stateMutability": "view",
      "type": "function"
    },
    {
      "inputs": [
        {
          "internalType": "address",
          "name": "spender",
          "type": "address"
        },
        {
          "internalType": "uint256",
          "name": "subtractedValue",
          "type": "uint256"
        }
      ],
      "name": "decreaseAllowance",
      "outputs": [
        {
          "internalType": "bool",
          "name": "",
          "type": "bool"
        }
      ],
      "stateMutability": "nonpayable",
      "type": "function"
    },
    {
      "inputs": [
        {
          "internalType": "enum HYAXLocalUpgradeable.TokenType",
          "name": "tokenType",
          "type": "uint8"
        }
      ],
      "name": "getCurrentTokenPrice",
      "outputs": [
        {
          "internalType": "uint256",
          "name": "",
          "type": "uint256"
        }
      ],
      "stateMutability": "view",
      "type": "function"
    },
    {
      "inputs": [],
      "name": "hyaxPrice",
      "outputs": [
        {
          "internalType": "uint256",
          "name": "",
          "type": "uint256"
        }
      ],
      "stateMutability": "view",
      "type": "function"
    },
    {
      "inputs": [
        {
          "internalType": "address",
          "name": "spender",
          "type": "address"
        },
        {
          "internalType": "uint256",
          "name": "addedValue",
          "type": "uint256"
        }
      ],
      "name": "increaseAllowance",
      "outputs": [
        {
          "internalType": "bool",
          "name": "",
          "type": "bool"
        }
      ],
      "stateMutability": "nonpayable",
      "type": "function"
    },
    {
      "inputs": [],
      "name": "initialize",
      "outputs": [],
      "stateMutability": "nonpayable",
      "type": "function"
    },
    {
      "inputs": [
        {
          "internalType": "enum HYAXLocalUpgradeable.TokenType",
          "name": "tokenType",
          "type": "uint8"
        },
        {
          "internalType": "uint256",
          "name": "_amount",
          "type": "uint256"
        }
      ],
      "name": "investFromCryptoToken",
      "outputs": [
        {
          "internalType": "bool",
          "name": "",
          "type": "bool"
        }
      ],
      "stateMutability": "nonpayable",
      "type": "function"
    },
    {
      "inputs": [],
      "name": "investFromMatic",
      "outputs": [
        {
          "internalType": "bool",
          "name": "",
          "type": "bool"
        }
      ],
      "stateMutability": "payable",
      "type": "function"
    },
    {
      "inputs": [
        {
          "internalType": "address",
          "name": "",
          "type": "address"
        }
      ],
      "name": "investorData",
      "outputs": [
        {
          "internalType": "bool",
          "name": "isWhiteListed",
          "type": "bool"
        },
        {
          "internalType": "bool",
          "name": "isQualifiedInvestor",
          "type": "bool"
        },
        {
          "internalType": "uint256",
          "name": "totalHyaxBoughtByInvestor",
          "type": "uint256"
        },
        {
          "internalType": "uint256",
          "name": "totalUsdDepositedByInvestor",
          "type": "uint256"
        }
      ],
      "stateMutability": "view",
      "type": "function"
    },
    {
      "inputs": [],
      "name": "maticPriceFeedAddress",
      "outputs": [
        {
          "internalType": "address",
          "name": "",
          "type": "address"
        }
      ],
      "stateMutability": "view",
      "type": "function"
    },
    {
      "inputs": [],
      "name": "maximumInvestmentAllowedInUSD",
      "outputs": [
        {
          "internalType": "uint256",
          "name": "",
          "type": "uint256"
        }
      ],
      "stateMutability": "view",
      "type": "function"
    },
    {
      "inputs": [],
      "name": "minimumInvestmentAllowedInUSD",
      "outputs": [
        {
          "internalType": "uint256",
          "name": "",
          "type": "uint256"
        }
      ],
      "stateMutability": "view",
      "type": "function"
    },
    {
      "inputs": [],
      "name": "name",
      "outputs": [
        {
          "internalType": "string",
          "name": "",
          "type": "string"
        }
      ],
      "stateMutability": "view",
      "type": "function"
    },
    {
      "inputs": [],
      "name": "owner",
      "outputs": [
        {
          "internalType": "address",
          "name": "",
          "type": "address"
        }
      ],
      "stateMutability": "view",
      "type": "function"
    },
    {
      "inputs": [],
      "name": "pause",
      "outputs": [],
      "stateMutability": "nonpayable",
      "type": "function"
    },
    {
      "inputs": [],
      "name": "paused",
      "outputs": [
        {
          "internalType": "bool",
          "name": "",
          "type": "bool"
        }
      ],
      "stateMutability": "view",
      "type": "function"
    },
    {
      "inputs": [
        {
          "internalType": "address",
          "name": "_qualifiedInvestorAddress",
          "type": "address"
        }
      ],
      "name": "removeFromQualifiedInvestorList",
      "outputs": [],
      "stateMutability": "nonpayable",
      "type": "function"
    },
    {
      "inputs": [
        {
          "internalType": "address",
          "name": "_investorAddress",
          "type": "address"
        }
      ],
      "name": "removeFromWhiteList",
      "outputs": [],
      "stateMutability": "nonpayable",
      "type": "function"
    },
    {
      "inputs": [],
      "name": "renounceOwnership",
      "outputs": [],
      "stateMutability": "nonpayable",
      "type": "function"
    },
    {
      "inputs": [],
      "name": "symbol",
      "outputs": [
        {
          "internalType": "string",
          "name": "",
          "type": "string"
        }
      ],
      "stateMutability": "view",
      "type": "function"
    },
    {
      "inputs": [
        {
          "internalType": "uint256",
          "name": "_amount",
          "type": "uint256"
        }
      ],
      "name": "tokenIssuance",
      "outputs": [],
      "stateMutability": "nonpayable",
      "type": "function"
    },
    {
      "inputs": [],
      "name": "totalSupply",
      "outputs": [
        {
          "internalType": "uint256",
          "name": "",
          "type": "uint256"
        }
      ],
      "stateMutability": "view",
      "type": "function"
    },
    {
      "inputs": [
        {
          "internalType": "address",
          "name": "to",
          "type": "address"
        },
        {
          "internalType": "uint256",
          "name": "amount",
          "type": "uint256"
        }
      ],
      "name": "transfer",
      "outputs": [
        {
          "internalType": "bool",
          "name": "",
          "type": "bool"
        }
      ],
      "stateMutability": "nonpayable",
      "type": "function"
    },
    {
      "inputs": [
        {
          "internalType": "address",
          "name": "from",
          "type": "address"
        },
        {
          "internalType": "address",
          "name": "to",
          "type": "address"
        },
        {
          "internalType": "uint256",
          "name": "amount",
          "type": "uint256"
        }
      ],
      "name": "transferFrom",
      "outputs": [
        {
          "internalType": "bool",
          "name": "",
          "type": "bool"
        }
      ],
      "stateMutability": "nonpayable",
      "type": "function"
    },
    {
      "inputs": [
        {
          "internalType": "address",
          "name": "newOwner",
          "type": "address"
        }
      ],
      "name": "transferOwnership",
      "outputs": [],
      "stateMutability": "nonpayable",
      "type": "function"
    },
    {
      "inputs": [],
      "name": "treasuryAddress",
      "outputs": [
        {
          "internalType": "address",
          "name": "",
          "type": "address"
        }
      ],
      "stateMutability": "view",
      "type": "function"
    },
    {
      "inputs": [],
      "name": "unpause",
      "outputs": [],
      "stateMutability": "nonpayable",
      "type": "function"
    },
    {
      "inputs": [
        {
          "internalType": "uint256",
          "name": "_newHyaxPrice",
          "type": "uint256"
        }
      ],
      "name": "updateHyaxPrice",
      "outputs": [],
      "stateMutability": "nonpayable",
      "type": "function"
    },
    {
      "inputs": [
        {
          "internalType": "uint256",
          "name": "_newMaximumInvestmentAllowedInUSD",
          "type": "uint256"
        }
      ],
      "name": "updateMaximumInvestmentAllowedInUSD",
      "outputs": [],
      "stateMutability": "nonpayable",
      "type": "function"
    },
    {
      "inputs": [
        {
          "internalType": "uint256",
          "name": "_newMinimumInvestmentAllowedInUSD",
          "type": "uint256"
        }
      ],
      "name": "updateMinimumInvestmentAllowedInUSD",
      "outputs": [],
      "stateMutability": "nonpayable",
      "type": "function"
    },
    {
      "inputs": [
        {
          "internalType": "enum HYAXLocalUpgradeable.TokenType",
          "name": "tokenType",
          "type": "uint8"
        },
        {
          "internalType": "address",
          "name": "newPriceFeedAddress",
          "type": "address"
        }
      ],
      "name": "updatePriceFeedAddress",
      "outputs": [],
      "stateMutability": "nonpayable",
      "type": "function"
    },
    {
      "inputs": [
        {
          "internalType": "enum HYAXLocalUpgradeable.TokenType",
          "name": "tokenType",
          "type": "uint8"
        },
        {
          "internalType": "address",
          "name": "newTokenAddress",
          "type": "address"
        }
      ],
      "name": "updateTokenAddress",
      "outputs": [],
      "stateMutability": "nonpayable",
      "type": "function"
    },
    {
      "inputs": [
        {
          "internalType": "address",
          "name": "_newTreasuryAddress",
          "type": "address"
        }
      ],
      "name": "updateTreasuryAddress",
      "outputs": [],
      "stateMutability": "nonpayable",
      "type": "function"
    },
    {
      "inputs": [
        {
          "internalType": "address",
          "name": "_newWhiteListerAddress",
          "type": "address"
        }
      ],
      "name": "updateWhiteListerAddress",
      "outputs": [],
      "stateMutability": "nonpayable",
      "type": "function"
    },
    {
      "inputs": [],
      "name": "usdcPriceFeedAddress",
      "outputs": [
        {
          "internalType": "address",
          "name": "",
          "type": "address"
        }
      ],
      "stateMutability": "view",
      "type": "function"
    },
    {
      "inputs": [],
      "name": "usdcToken",
      "outputs": [
        {
          "internalType": "contract ERC20TokenInterface",
          "name": "",
          "type": "address"
        }
      ],
      "stateMutability": "view",
      "type": "function"
    },
    {
      "inputs": [],
      "name": "usdcTokenAddress",
      "outputs": [
        {
          "internalType": "address",
          "name": "",
          "type": "address"
        }
      ],
      "stateMutability": "view",
      "type": "function"
    },
    {
      "inputs": [],
      "name": "usdtPriceFeedAddress",
      "outputs": [
        {
          "internalType": "address",
          "name": "",
          "type": "address"
        }
      ],
      "stateMutability": "view",
      "type": "function"
    },
    {
      "inputs": [],
      "name": "usdtToken",
      "outputs": [
        {
          "internalType": "contract ERC20TokenInterface",
          "name": "",
          "type": "address"
        }
      ],
      "stateMutability": "view",
      "type": "function"
    },
    {
      "inputs": [],
      "name": "usdtTokenAddress",
      "outputs": [
        {
          "internalType": "address",
          "name": "",
          "type": "address"
        }
      ],
      "stateMutability": "view",
      "type": "function"
    },
    {
      "inputs": [
        {
          "internalType": "uint256",
          "name": "_totalInvestmentInUsd",
          "type": "uint256"
        },
        {
          "internalType": "address",
          "name": "_investorAddress",
          "type": "address"
        }
      ],
      "name": "validateMaximumInvestedAmountAndInvestorLimit",
      "outputs": [],
      "stateMutability": "view",
      "type": "function"
    },
    {
      "inputs": [],
      "name": "wbtcPriceFeedAddress",
      "outputs": [
        {
          "internalType": "address",
          "name": "",
          "type": "address"
        }
      ],
      "stateMutability": "view",
      "type": "function"
    },
    {
      "inputs": [],
      "name": "wbtcToken",
      "outputs": [
        {
          "internalType": "contract ERC20TokenInterface",
          "name": "",
          "type": "address"
        }
      ],
      "stateMutability": "view",
      "type": "function"
    },
    {
      "inputs": [],
      "name": "wbtcTokenAddress",
      "outputs": [
        {
          "internalType": "address",
          "name": "",
          "type": "address"
        }
      ],
      "stateMutability": "view",
      "type": "function"
    },
    {
      "inputs": [],
      "name": "wethPriceFeedAddress",
      "outputs": [
        {
          "internalType": "address",
          "name": "",
          "type": "address"
        }
      ],
      "stateMutability": "view",
      "type": "function"
    },
    {
      "inputs": [],
      "name": "wethToken",
      "outputs": [
        {
          "internalType": "contract ERC20TokenInterface",
          "name": "",
          "type": "address"
        }
      ],
      "stateMutability": "view",
      "type": "function"
    },
    {
      "inputs": [],
      "name": "wethTokenAddress",
      "outputs": [
        {
          "internalType": "address",
          "name": "",
          "type": "address"
        }
      ],
      "stateMutability": "view",
      "type": "function"
    },
    {
      "inputs": [],
      "name": "whiteListerAddress",
      "outputs": [
        {
          "internalType": "address",
          "name": "",
          "type": "address"
        }
      ],
      "stateMutability": "view",
      "type": "function"
    },
    {
      "stateMutability": "payable",
      "type": "receive"
    }
  ],
  "bytecode": "0x608060405234801561001057600080fd5b5061588280620000216000396000f3fe6080604052600436106103595760003560e01c806370a08231116101bb57806395d89b41116100f7578063bb6f98fb11610095578063de1f53461161006f578063de1f5346146109cf578063f2fde38b14610a3a578063f7a47f8114610a5a578063fb2dc76e14610a7b57600080fd5b8063bb6f98fb14610948578063c5f956af14610968578063dd62ed3e1461098957600080fd5b8063a9059cbb116100d1578063a9059cbb146108c7578063a98ad46c146108e7578063b2c568f314610908578063b40ed4491461092857600080fd5b806395d89b41146108715780639d741e5d14610886578063a457c2d7146108a757600080fd5b80638116de2b116101645780638456cb591161013e5780638456cb59146107e95780638c945e63146107fe5780638da5cb5b146108335780638f7c71671461085157600080fd5b80638116de2b146107945780638129fc1c146107b4578063841e4561146107c957600080fd5b806377b53ece1161019557806377b53ece1461073c5780637ce5643a1461075d5780638049bcb61461077d57600080fd5b806370a08231146106d1578063715018a614610707578063731de5141461071c57600080fd5b8063377c779f116102955780634b57b0be116102335780635c975abb1161020d5780635c975abb146106585780635ec2562a14610670578063653c3a471461069057806365699d28146106b057600080fd5b80634b57b0be146105f55780634c526bdb146106165780635ae9384e1461063757600080fd5b80633de6f3791161026f5780633de6f3791461057f5780633f4ba83a1461059f57806340b5ea9c146105b457806347ee0394146105d557600080fd5b8063377c779f1461054057806339509351146105575780633b14f3591461057757600080fd5b8063128ef0221161030257806323c66f9a116102dc57806323c66f9a146104cc57806327614df8146104ec5780632a241ad31461050d578063313ce5671461052457600080fd5b8063128ef0221461046d57806318160ddd1461048d57806323b872dd146104ac57600080fd5b8063095ea7b311610333578063095ea7b3146103fb5780630f9dad711461042b57806311eac8551461044c57600080fd5b806301bf66481461037757806306fdde031461039757806308cd468f146103c257600080fd5b3661037257610366610a9c565b610370600160fb55565b005b600080fd5b34801561038357600080fd5b50610370610392366004615078565b610b01565b3480156103a357600080fd5b506103ac610d48565b6040516103b991906150be565b60405180910390f35b3480156103ce57600080fd5b5061013a546103e3906001600160a01b031681565b6040516001600160a01b0390911681526020016103b9565b34801561040757600080fd5b5061041b61041636600461510f565b610dda565b60405190151581526020016103b9565b34801561043757600080fd5b50610141546103e3906001600160a01b031681565b34801561045857600080fd5b50610138546103e3906001600160a01b031681565b34801561047957600080fd5b50610370610488366004615139565b610df4565b34801561049957600080fd5b506035545b6040519081526020016103b9565b3480156104b857600080fd5b5061041b6104c7366004615152565b611018565b3480156104d857600080fd5b506103706104e736600461519d565b61103c565b3480156104f857600080fd5b50610140546103e3906001600160a01b031681565b34801561051957600080fd5b5061049e61012e5481565b34801561053057600080fd5b50604051601281526020016103b9565b34801561054c57600080fd5b5061049e61012d5481565b34801561056357600080fd5b5061041b61057236600461510f565b6119e0565b61041b611a1f565b34801561058b57600080fd5b5061037061059a36600461519d565b611db4565b3480156105ab57600080fd5b5061037061228c565b3480156105c057600080fd5b50610136546103e3906001600160a01b031681565b3480156105e157600080fd5b506103706105f0366004615078565b61229e565b34801561060157600080fd5b50610144546103e3906001600160a01b031681565b34801561062257600080fd5b5061013d546103e3906001600160a01b031681565b34801561064357600080fd5b50610142546103e3906001600160a01b031681565b34801561066457600080fd5b5060655460ff1661041b565b34801561067c57600080fd5b5061037061068b366004615139565b612552565b34801561069c57600080fd5b506103706106ab366004615078565b612743565b3480156106bc57600080fd5b50610130546103e3906001600160a01b031681565b3480156106dd57600080fd5b5061049e6106ec366004615078565b6001600160a01b031660009081526033602052604090205490565b34801561071357600080fd5b506103706128b3565b34801561072857600080fd5b5061041b6107373660046151d0565b6128c5565b34801561074857600080fd5b50610135546103e3906001600160a01b031681565b34801561076957600080fd5b50610370610778366004615078565b612f37565b34801561078957600080fd5b5061049e61012f5481565b3480156107a057600080fd5b506103706107af3660046151ec565b6131a2565b3480156107c057600080fd5b50610370613295565b3480156107d557600080fd5b506103706107e4366004615078565b6136e9565b3480156107f557600080fd5b50610370613859565b34801561080a57600080fd5b5061081e61081936600461520f565b613869565b604080519283526020830191909152016103b9565b34801561083f57600080fd5b5060c9546001600160a01b03166103e3565b34801561085d57600080fd5b5061037061086c366004615078565b6139f7565b34801561087d57600080fd5b506103ac613cf6565b34801561089257600080fd5b50610139546103e3906001600160a01b031681565b3480156108b357600080fd5b5061041b6108c236600461510f565b613d05565b3480156108d357600080fd5b5061041b6108e236600461510f565b613daf565b3480156108f357600080fd5b5061013c546103e3906001600160a01b031681565b34801561091457600080fd5b50610370610923366004615139565b613dbd565b34801561093457600080fd5b50610370610943366004615139565b613fae565b34801561095457600080fd5b5061049e610963366004615231565b6141a4565b34801561097457600080fd5b50610131546103e3906001600160a01b031681565b34801561099557600080fd5b5061049e6109a436600461524c565b6001600160a01b03918216600090815260346020908152604080832093909416825291909152205490565b3480156109db57600080fd5b50610a186109ea366004615078565b6101326020526000908152604090208054600182015460029092015460ff8083169361010090930416919084565b60408051941515855292151560208501529183015260608201526080016103b9565b348015610a4657600080fd5b50610370610a55366004615078565b61437a565b348015610a6657600080fd5b5061013e546103e3906001600160a01b031681565b348015610a8757600080fd5b50610133546103e3906001600160a01b031681565b600260fb5403610af35760405162461bcd60e51b815260206004820152601f60248201527f5265656e7472616e637947756172643a207265656e7472616e742063616c6c0060448201526064015b60405180910390fd5b600260fb55565b600160fb55565b60c9546001600160a01b0316331480610b255750610130546001600160a01b031633145b610b99576040805162461bcd60e51b81526020600482015260248101919091527f46756e6374696f6e207265736572766564206f6e6c7920666f7220746865207760448201527f68697465206c69737465722061646472657373206f7220746865206f776e65726064820152608401610aea565b6001600160a01b038116610c3b5760405162461bcd60e51b815260206004820152604960248201527f496e766573746f72206164647265737320746f2072656d6f76652066726f6d2060448201527f746865207768697465206c6973742063616e6e6f7420626520746865207a657260648201527f6f20616464726573730000000000000000000000000000000000000000000000608482015260a401610aea565b6001600160a01b0381166000908152610132602052604090205460ff16610cca5760405162461bcd60e51b815260206004820152603960248201527f5468617420696e766573746f722061646472657373206973206e6f742072656760448201527f69737465726564206f6e20746865207768697465206c697374000000000000006064820152608401610aea565b6001600160a01b0381166000818152610132602090815260409182902080547fffffffffffffffffffffffffffffffffffffffffffffffffffffffffffffff001690558151338152908101929092527f41b8ea78b0816bef99ff095d54fbe2cef1f50003e09ce81445df1f89d957994491015b60405180910390a150565b606060368054610d5790615268565b80601f0160208091040260200160405190810160405280929190818152602001828054610d8390615268565b8015610dd05780601f10610da557610100808354040283529160200191610dd0565b820191906000526020600020905b815481529060010190602001808311610db357829003601f168201915b5050505050905090565b600033610de8818585614485565b60019150505b92915050565b610dfc6145dd565b610e04610a9c565b610e106012600a615404565b811015610e855760405162461bcd60e51b815260206004820152603760248201527f416d6f756e74206f66204859415820746f6b656e7320746f206973737565206d60448201527f757374206265206174206c65617374203120746f6b656e0000000000000000006064820152608401610aea565b610e916012600a615404565b610e9f90633b9aca00615413565b811115610f145760405162461bcd60e51b815260206004820152603f60248201527f416d6f756e74206f66204859415820746f6b656e7320746f206973737565206160448201527f7420612074696d65206d757374206265206d6178696d756d2031303030204d006064820152608401610aea565b610f206012600a615404565b610f2f906402540be400615413565b81610f3960355490565b610f43919061542a565b1115610fb75760405162461bcd60e51b815260206004820152603b60248201527f416d6f756e74206f66204859415820746f6b656e7320746f206973737565207360448201527f75727061736573207468652031302c303030204d20746f6b656e7300000000006064820152608401610aea565b610fd2610fcc60c9546001600160a01b031690565b82614637565b60408051338152602081018390527f455064bbf1374d9e833b8d9db24c56b24dbf79cc1a94a30665cae7093963d5a8910160405180910390a1611015600160fb55565b50565b600033611026858285614704565b6110318585856147b4565b506001949350505050565b6110446145dd565b6001600160a01b0381166110c05760405162461bcd60e51b815260206004820152603660248201527f5468652070726963652064617461206665656420616464726573732063616e6e60448201527f6f7420626520746865207a65726f2061646472657373000000000000000000006064820152608401610aea565b80600080808560048111156110d7576110d761543d565b036111ad57610133546001600160a01b0390811690851603611163576040805162461bcd60e51b81526020600482015260248101919091527f4d41544943207072696365206665656420616464726573732068617320616c7260448201527f65616479206265656e206d6f64696669656420746f20746861742076616c75656064820152608401610aea565b6040517f4d41544943202f205553440000000000000000000000000000000000000000006020820152602b015b604051602081830303815290604052805190602001209150611531565b60018560048111156111c1576111c161543d565b0361127c57610136546001600160a01b039081169085160361124b5760405162461bcd60e51b815260206004820152603f60248201527f55534443207072696365206665656420616464726573732068617320616c726560448201527f616479206265656e206d6f64696669656420746f20746861742076616c7565006064820152608401610aea565b6040517f55534443202f20555344000000000000000000000000000000000000000000006020820152602a01611190565b60028560048111156112905761129061543d565b0361134b5761013a546001600160a01b039081169085160361131a5760405162461bcd60e51b815260206004820152603f60248201527f55534454207072696365206665656420616464726573732068617320616c726560448201527f616479206265656e206d6f64696669656420746f20746861742076616c7565006064820152608401610aea565b6040517f55534454202f20555344000000000000000000000000000000000000000000006020820152602a01611190565b600385600481111561135f5761135f61543d565b0361141a5761013e546001600160a01b03908116908516036113e95760405162461bcd60e51b815260206004820152603f60248201527f57425443207072696365206665656420616464726573732068617320616c726560448201527f616479206265656e206d6f64696669656420746f20746861742076616c7565006064820152608401610aea565b6040517f57425443202f20555344000000000000000000000000000000000000000000006020820152602a01611190565b600485600481111561142e5761142e61543d565b036114e957610142546001600160a01b03908116908516036114b85760405162461bcd60e51b815260206004820152603f60248201527f57455448207072696365206665656420616464726573732068617320616c726560448201527f616479206265656e206d6f64696669656420746f20746861742076616c7565006064820152608401610aea565b6040517f455448202f2055534400000000000000000000000000000000000000000000006020820152602901611190565b60405162461bcd60e51b815260206004820152601260248201527f496e76616c696420746f6b656e207479706500000000000000000000000000006044820152606401610aea565b826001600160a01b0316637284e4166040518163ffffffff1660e01b8152600401600060405180830381865afa9250505080156115ae57506040513d6000823e601f3d9081017fffffffffffffffffffffffffffffffffffffffffffffffffffffffffffffffe01682016040526115ab919081019061549b565b60015b6116465760405162461bcd60e51b815260206004820152604660248201527f546865206e6577206164647265737320646f6573206e6f74207365656d20746f60448201527f2062656c6f6e6720746f2074686520636f72726563742070726963652064617460648201527f6120666565640000000000000000000000000000000000000000000000000000608482015260a401610aea565b806040516020016116579190615566565b60405160208183030381529060405280519060200120915081831461170a5760405162461bcd60e51b815260206004820152604660248201527f546865206e6577206164647265737320646f6573206e6f74207365656d20746f60448201527f2062656c6f6e6720746f2074686520636f72726563742070726963652064617460648201527f6120666565640000000000000000000000000000000000000000000000000000608482015260a401610aea565b50600085600481111561171f5761171f61543d565b036117a15761013380546001600160a01b0386167fffffffffffffffffffffffff000000000000000000000000000000000000000091821681179092556101348054909116821790556040519081527fee9bc8d900b5d69f934ec4a3986b3bfda61add54821456c3f7e943e87cf48f52906020015b60405180910390a16119d9565b60018560048111156117b5576117b561543d565b0361182e5761013680546001600160a01b0386167fffffffffffffffffffffffff000000000000000000000000000000000000000091821681179092556101378054909116821790556040519081527f0a0bc5dadd9d9c881861f6da8998bebef8eabcb5f3d6651187c5d1899e32796590602001611794565b60028560048111156118425761184261543d565b036118bb5761013a80546001600160a01b0386167fffffffffffffffffffffffff0000000000000000000000000000000000000000918216811790925561013b8054909116821790556040519081527f1e5bfe0b7fe6fcdc586b9e3a4fbdc0bdb1346d36173963ba38c897137ba1603190602001611794565b60038560048111156118cf576118cf61543d565b036119485761013e80546001600160a01b0386167fffffffffffffffffffffffff0000000000000000000000000000000000000000918216811790925561013f8054909116821790556040519081527f2171c3cfa3d86551d618c9da7164a608dd795715bf61402d9ccb45cf5433a07690602001611794565b600485600481111561195c5761195c61543d565b036119d95761014280546001600160a01b0386167fffffffffffffffffffffffff000000000000000000000000000000000000000091821681179092556101438054909116821790556040519081527fc21be1e8c8d6de83e19ad6de75cd885eefac75be87e532a0a04d02147004e5209060200160405180910390a15b5050505050565b3360008181526034602090815260408083206001600160a01b0387168452909152812054909190610de89082908690611a1a90879061542a565b614485565b336000908152610132602052604081205460ff16611aa55760405162461bcd60e51b815260206004820152603560248201527f496e766573746f72206164647265737320686173206e6f74206265656e20616460448201527f64656420746f20746865207768697465206c69737400000000000000000000006064820152608401610aea565b611aad610a9c565b600080611b2234306001600160a01b031663bb6f98fb60006040518263ffffffff1660e01b8152600401611ae191906155bd565b602060405180830381865afa158015611afe573d6000803e3d6000fd5b505050506040513d601f19601f8201168201806040525081019061081991906155cb565b91509150611b3082336131a2565b610131546040516001600160a01b03909116903480156108fc02916000818181858888f19350505050611bf15760405162461bcd60e51b815260206004820152604260248201527f54686572652077617320616e206572726f72206f6e2073656e64696e6720746860448201527f65204d4154494320696e766573746d656e7420746f207468652074726561737560648201527f7279000000000000000000000000000000000000000000000000000000000000608482015260a401610aea565b6040517fa9059cbb00000000000000000000000000000000000000000000000000000000815233600482015260248101829052309063a9059cbb906044016020604051808303816000875af1158015611c4e573d6000803e3d6000fd5b505050506040513d601f19601f82011682018060405250810190611c7291906155e4565b611d0a5760405162461bcd60e51b815260206004820152604160248201527f54686572652077617320616e206572726f72206f6e2073656e64696e6720626160448201527f636b20746865204859415820546f6b656e20746f2074686520696e766573746f60648201527f7200000000000000000000000000000000000000000000000000000000000000608482015260a401610aea565b336000908152610132602052604081206002018054849290611d2d90849061542a565b9091555050336000908152610132602052604081206001018054839290611d5590849061542a565b909155505060408051338152346020820152908101839052606081018290527fe036cb252631bb3e3fbcb1aa359dd09f94f0dac1fe6de828e8bae3f5028331c59060800160405180910390a1600192505050611db1600160fb55565b90565b611dbc6145dd565b6001600160a01b038116611e385760405162461bcd60e51b815260206004820152602c60248201527f54686520746f6b656e20616464726573732063616e6e6f74206265207468652060448201527f7a65726f206164647265737300000000000000000000000000000000000000006064820152608401610aea565b6001826004811115611e4c57611e4c61543d565b03611f5257610135546001600160a01b0390811690821603611ed65760405162461bcd60e51b815260206004820152603a60248201527f5553444320746f6b656e20616464726573732068617320616c7265616479206260448201527f65656e206d6f64696669656420746f20746861742076616c75650000000000006064820152608401610aea565b61013580546001600160a01b0383167fffffffffffffffffffffffff000000000000000000000000000000000000000091821681179092556101388054909116821790556040519081527f8b3f52c1d10699944ebee74ee29dca11c9c86bb0dbedef4abd6e737f613d4d3a906020015b60405180910390a15050565b6002826004811115611f6657611f6661543d565b0361206457610139546001600160a01b0390811690821603611ff05760405162461bcd60e51b815260206004820152603a60248201527f5553445420746f6b656e20616464726573732068617320616c7265616479206260448201527f65656e206d6f64696669656420746f20746861742076616c75650000000000006064820152608401610aea565b61013980546001600160a01b0383167fffffffffffffffffffffffff0000000000000000000000000000000000000000918216811790925561013c8054909116821790556040519081527f1c2d8a05be2c8eca524d44cc224513d7e19ca97ac309c3e23bee450f8578ca1990602001611f46565b60038260048111156120785761207861543d565b036121765761013d546001600160a01b03908116908216036121025760405162461bcd60e51b815260206004820152603a60248201527f5742544320746f6b656e20616464726573732068617320616c7265616479206260448201527f65656e206d6f64696669656420746f20746861742076616c75650000000000006064820152608401610aea565b61013d80546001600160a01b0383167fffffffffffffffffffffffff000000000000000000000000000000000000000091821681179092556101408054909116821790556040519081527f95082f719648371f180ca4f9bad55a2ae7c2d029bbf93e360584ca6ea06327ea90602001611f46565b600482600481111561218a5761218a61543d565b036114e957610141546001600160a01b03908116908216036122145760405162461bcd60e51b815260206004820152603a60248201527f5745544820746f6b656e20616464726573732068617320616c7265616479206260448201527f65656e206d6f64696669656420746f20746861742076616c75650000000000006064820152608401610aea565b61014180546001600160a01b0383167fffffffffffffffffffffffff000000000000000000000000000000000000000091821681179092556101448054909116821790556040519081527ff5fd160f565ac0e80215e9eced5afbfcd47389e99858fac6a3d93f2ec38ff6d690602001611f46565b5050565b6122946145dd565b61229c6149b3565b565b60c9546001600160a01b03163314806122c25750610130546001600160a01b031633145b612336576040805162461bcd60e51b81526020600482015260248101919091527f46756e6374696f6e207265736572766564206f6e6c7920666f7220746865207760448201527f68697465206c69737465722061646472657373206f7220746865206f776e65726064820152608401610aea565b6001600160a01b0381166123d95760405162461bcd60e51b8152602060048201526044602482018190527f496e766573746f72206164647265737320746f2061646420746f207468652077908201527f68697465206c6973742063616e6e6f7420626520746865207a65726f2061646460648201527f7265737300000000000000000000000000000000000000000000000000000000608482015260a401610aea565b6001600160a01b0381166000908152610132602052604090205460ff16156124695760405162461bcd60e51b815260206004820152603e60248201527f5468617420696e766573746f7220616464726573732068617320616c7265616460448201527f79206265656e20616464656420746f20746865207768697465206c69737400006064820152608401610aea565b60408051608081018252600060208083018281528385018381526060850184815260018087526001600160a01b0389168087526101328652958890208751815495517fffffffffffffffffffffffffffffffffffffffffffffffffffffffffffff00009096169015157fffffffffffffffffffffffffffffffffffffffffffffffffffffffffffff00ff16176101009515159590950294909417845591519183019190915551600290910155835133815290810191909152825191927f8419b79dc227f7841e7bf32cea35c3f90fe5b3da68cde93adef3c32745c587de92918290030190a15050565b61255a6145dd565b600081116125d05760405162461bcd60e51b815260206004820152603760248201527f4e6577206d6178696d756d20616d6f756e7420746f20696e766573742c206d7560448201527f73742062652067726561746572207468616e207a65726f0000000000000000006064820152608401610aea565b61012f54810361266e5760405162461bcd60e51b815260206004820152604560248201527f4e6577206d6178696d756d20616d6f756e7420746f20696e766573742c20686160448201527f7320616c7265616479206265656e206d6f64696669656420746f20746861742060648201527f76616c7565000000000000000000000000000000000000000000000000000000608482015260a401610aea565b61012e5481101561270d5760405162461bcd60e51b815260206004820152605160248201527f4e6577206d6178696d756d20616d6f756e7420746f20696e766573742c206d7560448201527f73742062652067726561746572207468616e20746865206d696e696d756d206960648201527f6e766573746d656e7420616c6c6f776564000000000000000000000000000000608482015260a401610aea565b61012f8190556040518181527f29d434ec19958e7ce86ca2870f5927ab4f948d916dcffc568c1343c1e1f7656690602001610d3d565b61274b6145dd565b6001600160a01b0381166127c75760405162461bcd60e51b815260206004820152603360248201527f546865207768697465206c697374657220616464726573732063616e6e6f742060448201527f626520746865207a65726f2061646472657373000000000000000000000000006064820152608401610aea565b610130546001600160a01b039081169082160361284c5760405162461bcd60e51b815260206004820152603c60248201527f5768697465206c697374657220616464726573732068617320616c726561647960448201527f206265656e206d6f64696669656420746f20746861742076616c7565000000006064820152608401610aea565b61013080547fffffffffffffffffffffffff0000000000000000000000000000000000000000166001600160a01b0383169081179091556040519081527f32359536720adedfb2b6c6dd7685519f09fdf93ce7824b68d5b2f56354fdebec90602001610d3d565b6128bb6145dd565b61229c6000614a23565b336000908152610132602052604081205460ff1661294b5760405162461bcd60e51b815260206004820152603560248201527f496e766573746f72206164647265737320686173206e6f74206265656e20616460448201527f64656420746f20746865207768697465206c69737400000000000000000000006064820152608401610aea565b612953610a9c565b600080600185600481111561296a5761296a61543d565b03612a0457610138546040517fbb6f98fb0000000000000000000000000000000000000000000000000000000081526001600160a01b039091169250309063bb6f98fb906129bc9088906004016155bd565b602060405180830381865afa1580156129d9573d6000803e3d6000fd5b505050506040513d601f19601f820116820180604052508101906129fd91906155cb565b9050612b36565b6002856004811115612a1857612a1861543d565b03612a6a5761013c546040517fbb6f98fb0000000000000000000000000000000000000000000000000000000081526001600160a01b039091169250309063bb6f98fb906129bc9088906004016155bd565b6003856004811115612a7e57612a7e61543d565b03612ad057610140546040517fbb6f98fb0000000000000000000000000000000000000000000000000000000081526001600160a01b039091169250309063bb6f98fb906129bc9088906004016155bd565b6004856004811115612ae457612ae461543d565b036114e957610144546040517fbb6f98fb0000000000000000000000000000000000000000000000000000000081526001600160a01b039091169250309063bb6f98fb906129bc9088906004016155bd565b600080612b438684613869565b91509150612b5182336131a2565b6040517f23b872dd000000000000000000000000000000000000000000000000000000008152336004820152306024820152604481018790526001600160a01b038516906323b872dd906064016020604051808303816000875af1158015612bbd573d6000803e3d6000fd5b505050506040513d601f19601f82011682018060405250810190612be191906155e4565b612c535760405162461bcd60e51b815260206004820152603460248201527f54686572652077617320616e206572726f72206f6e20726563656976696e672060448201527f74686520746f6b656e20696e766573746d656e740000000000000000000000006064820152608401610aea565b610131546040517fa9059cbb0000000000000000000000000000000000000000000000000000000081526001600160a01b039182166004820152602481018890529085169063a9059cbb906044016020604051808303816000875af1158015612cc0573d6000803e3d6000fd5b505050506040513d601f19601f82011682018060405250810190612ce491906155e4565b612d7c5760405162461bcd60e51b815260206004820152604260248201527f54686572652077617320616e206572726f72206f6e2073656e64696e6720746860448201527f6520746f6b656e20696e766573746d656e7420746f207468652074726561737560648201527f7279000000000000000000000000000000000000000000000000000000000000608482015260a401610aea565b6040517fa9059cbb00000000000000000000000000000000000000000000000000000000815233600482015260248101829052309063a9059cbb906044016020604051808303816000875af1158015612dd9573d6000803e3d6000fd5b505050506040513d601f19601f82011682018060405250810190612dfd91906155e4565b612e955760405162461bcd60e51b815260206004820152604160248201527f54686572652077617320616e206572726f72206f6e2073656e64696e6720626160448201527f636b20746865204859415820546f6b656e20746f2074686520696e766573746f60648201527f7200000000000000000000000000000000000000000000000000000000000000608482015260a401610aea565b336000908152610132602052604081206002018054849290612eb890849061542a565b9091555050336000908152610132602052604081206001018054839290612ee090849061542a565b90915550506040517f3b60324b6db90922773bde8799e6d3b7d574474a0fb52a6d340bd2ee92b5edbc90612f1d90899033908a9087908790615606565b60405180910390a16001945050505050610dee600160fb55565b60c9546001600160a01b0316331480612f5b5750610130546001600160a01b031633145b612fcf576040805162461bcd60e51b81526020600482015260248101919091527f46756e6374696f6e207265736572766564206f6e6c7920666f7220746865207760448201527f68697465206c69737465722061646472657373206f7220746865206f776e65726064820152608401610aea565b6001600160a01b0381166130715760405162461bcd60e51b815260206004820152605660248201527f496e766573746f72206164647265737320746f2072656d6f76652066726f6d2060448201527f746865207175616c696669656420696e766573746f72206c6973742063616e6e60648201527f6f7420626520746865207a65726f206164647265737300000000000000000000608482015260a401610aea565b6001600160a01b03811660009081526101326020526040902054610100900460ff1661312b5760405162461bcd60e51b815260206004820152604660248201527f5468617420696e766573746f722061646472657373206973206e6f742072656760448201527f69737465726564206f6e20746865207175616c696669656420696e766573746f60648201527f72206c6973740000000000000000000000000000000000000000000000000000608482015260a401610aea565b6001600160a01b0381166000818152610132602090815260409182902080547fffffffffffffffffffffffffffffffffffffffffffffffffffffffffffff00ff1690558151338152908101929092527f2ac92c349a800ca8b882e6d59e4f5c08ca2db952c08627c6cd4ab754a93b7ba39101610d3d565b6001600160a01b038116600090815261013260205260408120600201546131c9908461542a565b905061012f54811115613290576001600160a01b03821660009081526101326020526040902054610100900460ff166132905760405162461bcd60e51b815260206004820152604260248201527f546f20627579207468617420616d6f756e74206f66204859415820697473207260448201527f6571756972656420746f2062652061207175616c696669656420696e7665737460648201527f6f72000000000000000000000000000000000000000000000000000000000000608482015260a401610aea565b505050565b600054610100900460ff16158080156132b55750600054600160ff909116105b806132cf5750303b1580156132cf575060005460ff166001145b6133415760405162461bcd60e51b815260206004820152602e60248201527f496e697469616c697a61626c653a20636f6e747261637420697320616c72656160448201527f647920696e697469616c697a65640000000000000000000000000000000000006064820152608401610aea565b600080547fffffffffffffffffffffffffffffffffffffffffffffffffffffffffffffff00166001179055801561339f57600080547fffffffffffffffffffffffffffffffffffffffffffffffffffffffffffff00ff166101001790555b6134136040518060400160405280600981526020017f48594158546f6b656e00000000000000000000000000000000000000000000008152506040518060400160405280600481526020017f4859415800000000000000000000000000000000000000000000000000000000815250614a8d565b61341b614b14565b613423614b99565b61342b614c1e565b61344e3361343b6012600a615404565b61344990631dcd6500615413565b614637565b620927c061012d556134626012600a615404565b61346d906001615413565b61012e5561347d6012600a615404565b61348990612710615413565b61012f5561013080547fffffffffffffffffffffffff00000000000000000000000000000000000000009081167301c2f012de19e6436744c3f81f56e9e70c93a8c3179091556101318054821673350441f8a82680a785ffa9d3efea60bb4ca417f817905561013380548216721382149eba3441043c1c66972b4772963f5d439081179091556101348054831690911790556101358054821673f68054bfe5d45432ffca28ffa1f3d685d0456ddc90811790915561013680548316731b8739bb4cdf0089d07097a9ae5bd274b29c6f16908117909155610137805484169091179055610138805483169091179055610139805482167370e02fb82b6bc04f64099689b0599e14b44d4fbb90811790915561013a80548316733ac23dcb4ecfcbd24579e1f34542524d0e4edea890811790915561013b80548416909117905561013c80548316909117905561013d80548216733c8df3c48b3884da2ff25e17524282d60f9c3b9390811790915561013e8054831673e7656e23fe8077d438aefbec2fabdf2d8e070c4f90811790915561013f8054841690911790556101408054831690911790556101418054821673524a89ed77d5827320e35e12bca96830c6b7960a9081179091556101428054831673f0d50568e3a7e8259e16663972b11910f89bd8e79081179091556101438054841690911790556101448054909216179055801561101557600080547fffffffffffffffffffffffffffffffffffffffffffffffffffffffffffff00ff169055604051600181527f7f26b83ff96e1f2b6a682f133852f6798a09c465da95921460cefb384740249890602001610d3d565b6136f16145dd565b6001600160a01b03811661376d5760405162461bcd60e51b815260206004820152602f60248201527f54686520747265617375727920616464726573732063616e6e6f74206265207460448201527f6865207a65726f206164647265737300000000000000000000000000000000006064820152608401610aea565b610131546001600160a01b03908116908216036137f25760405162461bcd60e51b815260206004820152603860248201527f547265617375727920616464726573732068617320616c72656164792062656560448201527f6e206d6f64696669656420746f20746861742076616c756500000000000000006064820152608401610aea565b61013180547fffffffffffffffffffffffff0000000000000000000000000000000000000000166001600160a01b0383169081179091556040519081527f2e1e696cfb265fa16e1170d24ef04cb2262772bde00ecf34d80bae6722487b7f90602001610d3d565b6138616145dd565b61229c614ca3565b6000806305f5e10061387b8486615413565b613885919061563f565b61012d5490925061389a836305f5e100615413565b6138a4919061563f565b905061012e548210156139455760405162461bcd60e51b815260206004820152604160248201527f54686520616d6f756e7420746f20696e76657374206d7573742062652067726560448201527f61746572207468616e20746865206d696e696d756d2065737461626c6973686560648201527f6400000000000000000000000000000000000000000000000000000000000000608482015260a401610aea565b306000908152603360205260409020548111156139f05760405162461bcd60e51b815260206004820152604860248201527f54686520696e766573746d656e74206d6164652072657475726e7320616e206160448201527f6d6f756e74206f6620485941582067726561746572207468616e20746865206160648201527f7661696c61626c65000000000000000000000000000000000000000000000000608482015260a401610aea565b9250929050565b60c9546001600160a01b0316331480613a1b5750610130546001600160a01b031633145b613a8f576040805162461bcd60e51b81526020600482015260248101919091527f46756e6374696f6e207265736572766564206f6e6c7920666f7220746865207760448201527f68697465206c69737465722061646472657373206f7220746865206f776e65726064820152608401610aea565b6001600160a01b038116613b315760405162461bcd60e51b815260206004820152605160248201527f496e766573746f72206164647265737320746f2061646420746f20746865207160448201527f75616c696669656420696e766573746f72206c6973742063616e6e6f7420626560648201527f20746865207a65726f2061646472657373000000000000000000000000000000608482015260a401610aea565b6001600160a01b0381166000908152610132602052604090205460ff16613bc05760405162461bcd60e51b815260206004820152603f60248201527f496e766573746f722061646472657373206d757374206265206669727374206160448201527f6464656420746f2074686520696e766573746f72207768697465206c697374006064820152608401610aea565b6001600160a01b03811660009081526101326020526040902054610100900460ff1615613c7b5760405162461bcd60e51b815260206004820152604b60248201527f5468617420696e766573746f7220616464726573732068617320616c7265616460448201527f79206265656e20616464656420746f20746865207175616c696669656420696e60648201527f766573746f72206c697374000000000000000000000000000000000000000000608482015260a401610aea565b6001600160a01b0381166000818152610132602090815260409182902080547fffffffffffffffffffffffffffffffffffffffffffffffffffffffffffff00ff166101001790558151338152908101929092527f037cd19042487ae926a661f12fdfb1b8737056255a7c1bcf9708313301a7aded9101610d3d565b606060378054610d5790615268565b3360008181526034602090815260408083206001600160a01b038716845290915281205490919083811015613da25760405162461bcd60e51b815260206004820152602560248201527f45524332303a2064656372656173656420616c6c6f77616e63652062656c6f7760448201527f207a65726f0000000000000000000000000000000000000000000000000000006064820152608401610aea565b6110318286868403614485565b600033610de88185856147b4565b613dc56145dd565b60008111613e3b5760405162461bcd60e51b815260206004820152603760248201527f4e6577206d696e696d756e20616d6f756e7420746f20696e766573742c206d7560448201527f73742062652067726561746572207468616e207a65726f0000000000000000006064820152608401610aea565b61012e548103613ed95760405162461bcd60e51b815260206004820152604960248201527f4d696e696d756d20696e766573746d656e7420616c6c6f77656420696e20555360448201527f442068617320616c7265616479206265656e206d6f64696669656420746f207460648201527f6861742076616c75650000000000000000000000000000000000000000000000608482015260a401610aea565b61012f54811115613f785760405162461bcd60e51b815260206004820152604e60248201527f4e6577206d696e696d756e20616d6f756e7420746f20696e766573742c206d7560448201527f7374206265206c657373207468616e20746865206d6178696d756d20696e766560648201527f73746d656e7420616c6c6f776564000000000000000000000000000000000000608482015260a401610aea565b61012e8190556040518181527fee60eb8e40a2ec796bfe3ca896b9221af9764fc0987bf0508ca755266d9c85f890602001610d3d565b613fb66145dd565b61012d54810361402e5760405162461bcd60e51b815260206004820152603260248201527f485941582070726963652068617320616c7265616479206265656e206d6f646960448201527f6669656420746f20746861742076616c756500000000000000000000000000006064820152608401610aea565b6207a1208110156140cd5760405162461bcd60e51b815260206004820152604e60248201527f5072696365206f66204859415820746f6b656e206d757374206265206174206c60448201527f656173742055534420302e3030352c207468617420697320353030303030207760648201527f697468203820646563696d616c73000000000000000000000000000000000000608482015260a401610aea565b64174876e80081111561416e5760405162461bcd60e51b815260206004820152605560248201527f5072696365206f66204859415820746f6b656e206d757374206265206174206d60448201527f6178696d756d2055534420313030302c2074686174206973203130303030303060648201527f30303030302077697468203820646563696d616c730000000000000000000000608482015260a401610aea565b61012d8190556040518181527f4f6f7bbbb2b0dde2246ee6650672d1b55a5be5b52f8dd2e8d595f4bd47e1c91390602001610d3d565b600080808360048111156141ba576141ba61543d565b036141d25750610134546001600160a01b031661427e565b60018360048111156141e6576141e661543d565b036141fe5750610137546001600160a01b031661427e565b60028360048111156142125761421261543d565b0361422a575061013b546001600160a01b031661427e565b600383600481111561423e5761423e61543d565b03614256575061013f546001600160a01b031661427e565b600483600481111561426a5761426a61543d565b036114e95750610143546001600160a01b03165b806001600160a01b031663feaf968c6040518163ffffffff1660e01b815260040160a060405180830381865afa9250505080156142f6575060408051601f3d9081017fffffffffffffffffffffffffffffffffffffffffffffffffffffffffffffffe01682019092526142f391810190615694565b60015b6143685760405162461bcd60e51b815260206004820152603660248201527f54686572652077617320616e206572726f72206f627461696e696e672074686560448201527f2070726963652066726f6d20746865206f7261636c65000000000000000000006064820152608401610aea565b50919695505050505050565b50919050565b6143826145dd565b6001600160a01b0381166143fe5760405162461bcd60e51b815260206004820152602660248201527f4f776e61626c653a206e6577206f776e657220697320746865207a65726f206160448201527f64647265737300000000000000000000000000000000000000000000000000006064820152608401610aea565b306001600160a01b0382160361447c5760405162461bcd60e51b815260206004820152603660248201527f4f776e61626c653a206e6577206f776e65722063616e6e6f742062652074686560448201527f2073616d6520636f6e74726163742061646472657373000000000000000000006064820152608401610aea565b61101581614a23565b6001600160a01b0383166145005760405162461bcd60e51b8152602060048201526024808201527f45524332303a20617070726f76652066726f6d20746865207a65726f2061646460448201527f72657373000000000000000000000000000000000000000000000000000000006064820152608401610aea565b6001600160a01b03821661457c5760405162461bcd60e51b815260206004820152602260248201527f45524332303a20617070726f766520746f20746865207a65726f20616464726560448201527f73730000000000000000000000000000000000000000000000000000000000006064820152608401610aea565b6001600160a01b0383811660008181526034602090815260408083209487168084529482529182902085905590518481527f8c5be1e5ebec7d5bd14f71427d1e84f3dd0314c0f7b2291e5b200ac8c7c3b925910160405180910390a3505050565b60c9546001600160a01b0316331461229c5760405162461bcd60e51b815260206004820181905260248201527f4f776e61626c653a2063616c6c6572206973206e6f7420746865206f776e65726044820152606401610aea565b6001600160a01b03821661468d5760405162461bcd60e51b815260206004820152601f60248201527f45524332303a206d696e7420746f20746865207a65726f2061646472657373006044820152606401610aea565b61469960008383614cfe565b80603560008282546146ab919061542a565b90915550506001600160a01b0382166000818152603360209081526040808320805486019055518481527fddf252ad1be2c89b69c2b068fc378daa952ba7f163c4a11628f55a4df523b3ef910160405180910390a35050565b6001600160a01b038381166000908152603460209081526040808320938616835292905220547fffffffffffffffffffffffffffffffffffffffffffffffffffffffffffffffff81146147ae57818110156147a15760405162461bcd60e51b815260206004820152601d60248201527f45524332303a20696e73756666696369656e7420616c6c6f77616e63650000006044820152606401610aea565b6147ae8484848403614485565b50505050565b6001600160a01b0383166148305760405162461bcd60e51b815260206004820152602560248201527f45524332303a207472616e736665722066726f6d20746865207a65726f20616460448201527f64726573730000000000000000000000000000000000000000000000000000006064820152608401610aea565b6001600160a01b0382166148ac5760405162461bcd60e51b815260206004820152602360248201527f45524332303a207472616e7366657220746f20746865207a65726f206164647260448201527f65737300000000000000000000000000000000000000000000000000000000006064820152608401610aea565b6148b7838383614cfe565b6001600160a01b038316600090815260336020526040902054818110156149465760405162461bcd60e51b815260206004820152602660248201527f45524332303a207472616e7366657220616d6f756e742065786365656473206260448201527f616c616e636500000000000000000000000000000000000000000000000000006064820152608401610aea565b6001600160a01b0380851660008181526033602052604080822086860390559286168082529083902080548601905591517fddf252ad1be2c89b69c2b068fc378daa952ba7f163c4a11628f55a4df523b3ef906149a69086815260200190565b60405180910390a36147ae565b6149bb614d77565b606580547fffffffffffffffffffffffffffffffffffffffffffffffffffffffffffffff001690557f5db9ee0a495bf2e6ff9c91a7834c1ba4fdd244a5e8aa4e537bd38aeae4b073aa335b6040516001600160a01b03909116815260200160405180910390a1565b60c980546001600160a01b038381167fffffffffffffffffffffffff0000000000000000000000000000000000000000831681179093556040519116919082907f8be0079c531659141344cd1fd0a4f28419497f9722a3daafe3b4186f6b6457e090600090a35050565b600054610100900460ff16614b0a5760405162461bcd60e51b815260206004820152602b60248201527f496e697469616c697a61626c653a20636f6e7472616374206973206e6f74206960448201527f6e697469616c697a696e670000000000000000000000000000000000000000006064820152608401610aea565b6122888282614dc9565b600054610100900460ff16614b915760405162461bcd60e51b815260206004820152602b60248201527f496e697469616c697a61626c653a20636f6e7472616374206973206e6f74206960448201527f6e697469616c697a696e670000000000000000000000000000000000000000006064820152608401610aea565b61229c614e5f565b600054610100900460ff16614c165760405162461bcd60e51b815260206004820152602b60248201527f496e697469616c697a61626c653a20636f6e7472616374206973206e6f74206960448201527f6e697469616c697a696e670000000000000000000000000000000000000000006064820152608401610aea565b61229c614ee5565b600054610100900460ff16614c9b5760405162461bcd60e51b815260206004820152602b60248201527f496e697469616c697a61626c653a20636f6e7472616374206973206e6f74206960448201527f6e697469616c697a696e670000000000000000000000000000000000000000006064820152608401610aea565b61229c614f62565b614cab615009565b606580547fffffffffffffffffffffffffffffffffffffffffffffffffffffffffffffff001660011790557f62e78cea01bee320cd4e420270b5ea74000d11b0c9f74754ebdbfc544b05a258614a063390565b60655460ff16156132905760405162461bcd60e51b815260206004820152602a60248201527f45524332305061757361626c653a20746f6b656e207472616e7366657220776860448201527f696c6520706175736564000000000000000000000000000000000000000000006064820152608401610aea565b60655460ff1661229c5760405162461bcd60e51b815260206004820152601460248201527f5061757361626c653a206e6f74207061757365640000000000000000000000006044820152606401610aea565b600054610100900460ff16614e465760405162461bcd60e51b815260206004820152602b60248201527f496e697469616c697a61626c653a20636f6e7472616374206973206e6f74206960448201527f6e697469616c697a696e670000000000000000000000000000000000000000006064820152608401610aea565b6036614e528382615732565b5060376132908282615732565b600054610100900460ff16614edc5760405162461bcd60e51b815260206004820152602b60248201527f496e697469616c697a61626c653a20636f6e7472616374206973206e6f74206960448201527f6e697469616c697a696e670000000000000000000000000000000000000000006064820152608401610aea565b61229c33614a23565b600054610100900460ff16610afa5760405162461bcd60e51b815260206004820152602b60248201527f496e697469616c697a61626c653a20636f6e7472616374206973206e6f74206960448201527f6e697469616c697a696e670000000000000000000000000000000000000000006064820152608401610aea565b600054610100900460ff16614fdf5760405162461bcd60e51b815260206004820152602b60248201527f496e697469616c697a61626c653a20636f6e7472616374206973206e6f74206960448201527f6e697469616c697a696e670000000000000000000000000000000000000000006064820152608401610aea565b606580547fffffffffffffffffffffffffffffffffffffffffffffffffffffffffffffff00169055565b60655460ff161561229c5760405162461bcd60e51b815260206004820152601060248201527f5061757361626c653a20706175736564000000000000000000000000000000006044820152606401610aea565b80356001600160a01b038116811461507357600080fd5b919050565b60006020828403121561508a57600080fd5b6150938261505c565b9392505050565b60005b838110156150b557818101518382015260200161509d565b50506000910152565b60208152600082518060208401526150dd81604085016020870161509a565b601f017fffffffffffffffffffffffffffffffffffffffffffffffffffffffffffffffe0169190910160400192915050565b6000806040838503121561512257600080fd5b61512b8361505c565b946020939093013593505050565b60006020828403121561514b57600080fd5b5035919050565b60008060006060848603121561516757600080fd5b6151708461505c565b925061517e6020850161505c565b9150604084013590509250925092565b80356005811061507357600080fd5b600080604083850312156151b057600080fd5b6151b98361518e565b91506151c76020840161505c565b90509250929050565b600080604083850312156151e357600080fd5b61512b8361518e565b600080604083850312156151ff57600080fd5b823591506151c76020840161505c565b6000806040838503121561522257600080fd5b50508035926020909101359150565b60006020828403121561524357600080fd5b6150938261518e565b6000806040838503121561525f57600080fd5b6151b98361505c565b600181811c9082168061527c57607f821691505b602082108103614374577f4e487b7100000000000000000000000000000000000000000000000000000000600052602260045260246000fd5b7f4e487b7100000000000000000000000000000000000000000000000000000000600052601160045260246000fd5b600181815b8085111561533d57817fffffffffffffffffffffffffffffffffffffffffffffffffffffffffffffffff04821115615323576153236152b5565b8085161561533057918102915b93841c93908002906152e9565b509250929050565b60008261535457506001610dee565b8161536157506000610dee565b816001811461537757600281146153815761539d565b6001915050610dee565b60ff841115615392576153926152b5565b50506001821b610dee565b5060208310610133831016604e8410600b84101617156153c0575081810a610dee565b6153ca83836152e4565b807fffffffffffffffffffffffffffffffffffffffffffffffffffffffffffffffff048211156153fc576153fc6152b5565b029392505050565b600061509360ff841683615345565b8082028115828204841417610dee57610dee6152b5565b80820180821115610dee57610dee6152b5565b7f4e487b7100000000000000000000000000000000000000000000000000000000600052602160045260246000fd5b7f4e487b7100000000000000000000000000000000000000000000000000000000600052604160045260246000fd5b6000602082840312156154ad57600080fd5b815167ffffffffffffffff808211156154c557600080fd5b818401915084601f8301126154d957600080fd5b8151818111156154eb576154eb61546c565b604051601f82017fffffffffffffffffffffffffffffffffffffffffffffffffffffffffffffffe0908116603f011681019083821181831017156155315761553161546c565b8160405282815287602084870101111561554a57600080fd5b61555b83602083016020880161509a565b979650505050505050565b6000825161557881846020870161509a565b9190910192915050565b600581106155b9577f4e487b7100000000000000000000000000000000000000000000000000000000600052602160045260246000fd5b9052565b60208101610dee8284615582565b6000602082840312156155dd57600080fd5b5051919050565b6000602082840312156155f657600080fd5b8151801515811461509357600080fd5b60a081016156148288615582565b6001600160a01b03861660208301528460408301528360608301528260808301529695505050505050565b600082615675577f4e487b7100000000000000000000000000000000000000000000000000000000600052601260045260246000fd5b500490565b805169ffffffffffffffffffff8116811461507357600080fd5b600080600080600060a086880312156156ac57600080fd5b6156b58661567a565b94506020860151935060408601519250606086015191506156d86080870161567a565b90509295509295909350565b601f82111561329057600081815260208120601f850160051c8101602086101561570b5750805b601f850160051c820191505b8181101561572a57828155600101615717565b505050505050565b815167ffffffffffffffff81111561574c5761574c61546c565b6157608161575a8454615268565b846156e4565b602080601f8311600181146157b3576000841561577d5750858301515b7fffffffffffffffffffffffffffffffffffffffffffffffffffffffffffffffff600386901b1c1916600185901b17855561572a565b6000858152602081207fffffffffffffffffffffffffffffffffffffffffffffffffffffffffffffffe08616915b82811015615800578886015182559484019460019091019084016157e1565b508582101561583c57878501517fffffffffffffffffffffffffffffffffffffffffffffffffffffffffffffffff600388901b60f8161c191681555b5050505050600190811b0190555056fea2646970667358221220f3d66a6134ee0b4bf6c4b882b3e26c78ffc3f667c233f7bea2bebd112120a25e64736f6c63430008140033",
  "linkReferences": {},
  "deployedLinkReferences": {}
}