{
  "_format": "hh-sol-artifact-1",
  "contractName": "MaticPriceDataFeedMock",
  "sourceName": "contracts/MaticPriceDataFeedMock.sol",
  "abi": [
    {
      "inputs": [],
      "stateMutability": "nonpayable",
      "type": "constructor"
    },
    {
      "inputs": [],
      "name": "description",
      "outputs": [
        {
          "internalType": "string",
          "name": "",
          "type": "string"
        }
      ],
      "stateMutability": "pure",
      "type": "function"
    },
    {
      "inputs": [],
      "name": "latestRoundData",
      "outputs": [
        {
          "internalType": "uint80",
          "name": "_roundId",
          "type": "uint80"
        },
        {
          "internalType": "int256",
          "name": "_answer",
          "type": "int256"
        },
        {
          "internalType": "uint256",
          "name": "_startedAt",
          "type": "uint256"
        },
        {
          "internalType": "uint256",
          "name": "_updatedAt",
          "type": "uint256"
        },
        {
          "internalType": "uint80",
          "name": "_answeredInRound",
          "type": "uint80"
        }
      ],
      "stateMutability": "view",
      "type": "function"
    },
    {
      "inputs": [
        {
          "internalType": "int256",
          "name": "_answer",
          "type": "int256"
        }
      ],
      "name": "setLatestRoundDataAnswer",
      "outputs": [],
      "stateMutability": "nonpayable",
      "type": "function"
    }
  ],
  "bytecode": "0x608060405234801561001057600080fd5b506000805468020000000000031d7d6001600160501b031991821681178355630273b4f86001556365553dad60028190556003556004805490921617905561017590819061005e90396000f3fe608060405234801561001057600080fd5b50600436106100415760003560e01c80637284e416146100465780637ab418381461007c578063feaf968c14610091575b600080fd5b604080518082018252600b81526a1350551250c80bc81554d160aa1b6020820152905161007391906100d8565b60405180910390f35b61008f61008a366004610126565b600155565b005b6000546001546002546003546004546040805169ffffffffffffffffffff96871681526020810195909552840192909252606083015291909116608082015260a001610073565b600060208083528351808285015260005b81811015610105578581018301518582016040015282016100e9565b506000604082860101526040601f19601f8301168501019250505092915050565b60006020828403121561013857600080fd5b503591905056fea26469706673582212201ec819471ef1c53406e6367e25b7c954f47c5d62c974f76bd9183157b55385d164736f6c63430008140033",
  "linkReferences": {},
  "deployedLinkReferences": {}
}