{
  "_format": "hh-sol-artifact-1",
  "contractName": "MaticPriceDataFeedMock",
  "sourceName": "contracts/MaticPriceDataFeedMock.sol",
  "abi": [
    {
      "inputs": [],
      "stateMutability": "nonpayable",
      "type": "constructor"
    },
    {
      "inputs": [],
      "name": "description",
      "outputs": [
        {
          "internalType": "string",
          "name": "",
          "type": "string"
        }
      ],
      "stateMutability": "pure",
      "type": "function"
    },
    {
      "inputs": [],
      "name": "latestRoundData",
      "outputs": [
        {
          "internalType": "uint80",
          "name": "_roundId",
          "type": "uint80"
        },
        {
          "internalType": "int256",
          "name": "_answer",
          "type": "int256"
        },
        {
          "internalType": "uint256",
          "name": "_startedAt",
          "type": "uint256"
        },
        {
          "internalType": "uint256",
          "name": "_updatedAt",
          "type": "uint256"
        },
        {
          "internalType": "uint80",
          "name": "_answeredInRound",
          "type": "uint80"
        }
      ],
      "stateMutability": "view",
      "type": "function"
    }
  ],
  "bytecode": "0x608060405234801561001057600080fd5b506000805468020000000000031d7d6001600160501b031991821681178355630273b4f86001556365553dad60028190556003556004805490921617905561013390819061005e90396000f3fe6080604052348015600f57600080fd5b506004361060325760003560e01c80637284e416146037578063feaf968c14606b575b600080fd5b604080518082018252600b81526a1350551250c80bc81554d160aa1b602082015290516062919060b1565b60405180910390f35b6000546001546002546003546004546040805169ffffffffffffffffffff96871681526020810195909552840192909252606083015291909116608082015260a0016062565b600060208083528351808285015260005b8181101560dc5785810183015185820160400152820160c2565b506000604082860101526040601f19601f830116850101925050509291505056fea264697066735822122069c605cf7ea707ba20e07decd02743287f7c79caab2cfb244c272cf38c0e5b9f64736f6c63430008140033",
  "linkReferences": {},
  "deployedLinkReferences": {}
}