{
  "_format": "hh-sol-artifact-1",
  "contractName": "UsdtPriceDataFeedMock",
  "sourceName": "contracts/UsdtPriceDataFeedMock.sol",
  "abi": [
    {
      "inputs": [],
      "stateMutability": "nonpayable",
      "type": "constructor"
    },
    {
      "inputs": [],
      "name": "description",
      "outputs": [
        {
          "internalType": "string",
          "name": "",
          "type": "string"
        }
      ],
      "stateMutability": "pure",
      "type": "function"
    },
    {
      "inputs": [],
      "name": "latestRoundData",
      "outputs": [
        {
          "internalType": "uint80",
          "name": "_roundId",
          "type": "uint80"
        },
        {
          "internalType": "int256",
          "name": "_answer",
          "type": "int256"
        },
        {
          "internalType": "uint256",
          "name": "_startedAt",
          "type": "uint256"
        },
        {
          "internalType": "uint256",
          "name": "_updatedAt",
          "type": "uint256"
        },
        {
          "internalType": "uint80",
          "name": "_answeredInRound",
          "type": "uint80"
        }
      ],
      "stateMutability": "view",
      "type": "function"
    }
  ],
  "bytecode": "0x608060405234801561001057600080fd5b5060008054680200000000000023ea6001600160501b0319918216811783556305f5f87060015563655537ad60028190556003556004805490921617905561016c90819061005e90396000f3fe608060405234801561001057600080fd5b50600436106100365760003560e01c80637284e4161461003b578063feaf968c14610083575b600080fd5b604080518082018252600a81527f55534454202f20555344000000000000000000000000000000000000000000006020820152905161007a91906100ca565b60405180910390f35b6000546001546002546003546004546040805169ffffffffffffffffffff96871681526020810195909552840192909252606083015291909116608082015260a00161007a565b600060208083528351808285015260005b818110156100f7578581018301518582016040015282016100db565b5060006040828601015260407fffffffffffffffffffffffffffffffffffffffffffffffffffffffffffffffe0601f830116850101925050509291505056fea26469706673582212203da1ff410d02b00840a89816ad86780bd33a89c47b269adde9fc2727e8d6183364736f6c63430008140033",
  "linkReferences": {},
  "deployedLinkReferences": {}
}