{
  "_format": "hh-sol-artifact-1",
  "contractName": "HYAXLocal",
  "sourceName": "contracts/HYAXLocal.sol",
  "abi": [
    {
      "inputs": [],
      "stateMutability": "nonpayable",
      "type": "constructor"
    },
    {
      "inputs": [
        {
          "internalType": "address",
          "name": "spender",
          "type": "address"
        },
        {
          "internalType": "uint256",
          "name": "allowance",
          "type": "uint256"
        },
        {
          "internalType": "uint256",
          "name": "needed",
          "type": "uint256"
        }
      ],
      "name": "ERC20InsufficientAllowance",
      "type": "error"
    },
    {
      "inputs": [
        {
          "internalType": "address",
          "name": "sender",
          "type": "address"
        },
        {
          "internalType": "uint256",
          "name": "balance",
          "type": "uint256"
        },
        {
          "internalType": "uint256",
          "name": "needed",
          "type": "uint256"
        }
      ],
      "name": "ERC20InsufficientBalance",
      "type": "error"
    },
    {
      "inputs": [
        {
          "internalType": "address",
          "name": "approver",
          "type": "address"
        }
      ],
      "name": "ERC20InvalidApprover",
      "type": "error"
    },
    {
      "inputs": [
        {
          "internalType": "address",
          "name": "receiver",
          "type": "address"
        }
      ],
      "name": "ERC20InvalidReceiver",
      "type": "error"
    },
    {
      "inputs": [
        {
          "internalType": "address",
          "name": "sender",
          "type": "address"
        }
      ],
      "name": "ERC20InvalidSender",
      "type": "error"
    },
    {
      "inputs": [
        {
          "internalType": "address",
          "name": "spender",
          "type": "address"
        }
      ],
      "name": "ERC20InvalidSpender",
      "type": "error"
    },
    {
      "inputs": [],
      "name": "EnforcedPause",
      "type": "error"
    },
    {
      "inputs": [],
      "name": "ExpectedPause",
      "type": "error"
    },
    {
      "inputs": [
        {
          "internalType": "address",
          "name": "owner",
          "type": "address"
        }
      ],
      "name": "OwnableInvalidOwner",
      "type": "error"
    },
    {
      "inputs": [
        {
          "internalType": "address",
          "name": "account",
          "type": "address"
        }
      ],
      "name": "OwnableUnauthorizedAccount",
      "type": "error"
    },
    {
      "anonymous": false,
      "inputs": [
        {
          "indexed": true,
          "internalType": "address",
          "name": "owner",
          "type": "address"
        },
        {
          "indexed": true,
          "internalType": "address",
          "name": "spender",
          "type": "address"
        },
        {
          "indexed": false,
          "internalType": "uint256",
          "name": "value",
          "type": "uint256"
        }
      ],
      "name": "Approval",
      "type": "event"
    },
    {
      "anonymous": false,
      "inputs": [
        {
          "indexed": false,
          "internalType": "uint8",
          "name": "version",
          "type": "uint8"
        }
      ],
      "name": "Initialized",
      "type": "event"
    },
    {
      "anonymous": false,
      "inputs": [
        {
          "indexed": false,
          "internalType": "address",
          "name": "sender",
          "type": "address"
        },
        {
          "indexed": false,
          "internalType": "uint256",
          "name": "maticAmount",
          "type": "uint256"
        },
        {
          "indexed": false,
          "internalType": "uint256",
          "name": "totalInvestmentInUsd",
          "type": "uint256"
        },
        {
          "indexed": false,
          "internalType": "uint256",
          "name": "hyaxAmount",
          "type": "uint256"
        }
      ],
      "name": "InvestFromMatic",
      "type": "event"
    },
    {
      "anonymous": false,
      "inputs": [
        {
          "indexed": false,
          "internalType": "address",
          "name": "sender",
          "type": "address"
        },
        {
          "indexed": false,
          "internalType": "uint256",
          "name": "usdcAmount",
          "type": "uint256"
        },
        {
          "indexed": false,
          "internalType": "uint256",
          "name": "totalInvestmentInUsd",
          "type": "uint256"
        },
        {
          "indexed": false,
          "internalType": "uint256",
          "name": "hyaxAmount",
          "type": "uint256"
        }
      ],
      "name": "InvestFromUsdc",
      "type": "event"
    },
    {
      "anonymous": false,
      "inputs": [
        {
          "indexed": false,
          "internalType": "address",
          "name": "sender",
          "type": "address"
        },
        {
          "indexed": false,
          "internalType": "uint256",
          "name": "usdtAmount",
          "type": "uint256"
        },
        {
          "indexed": false,
          "internalType": "uint256",
          "name": "totalInvestmentInUsd",
          "type": "uint256"
        },
        {
          "indexed": false,
          "internalType": "uint256",
          "name": "hyaxAmount",
          "type": "uint256"
        }
      ],
      "name": "InvestFromUsdt",
      "type": "event"
    },
    {
      "anonymous": false,
      "inputs": [
        {
          "indexed": false,
          "internalType": "address",
          "name": "sender",
          "type": "address"
        },
        {
          "indexed": false,
          "internalType": "uint256",
          "name": "wbtcAmount",
          "type": "uint256"
        },
        {
          "indexed": false,
          "internalType": "uint256",
          "name": "totalInvestmentInUsd",
          "type": "uint256"
        },
        {
          "indexed": false,
          "internalType": "uint256",
          "name": "hyaxAmount",
          "type": "uint256"
        }
      ],
      "name": "InvestFromWbtc",
      "type": "event"
    },
    {
      "anonymous": false,
      "inputs": [
        {
          "indexed": false,
          "internalType": "address",
          "name": "sender",
          "type": "address"
        },
        {
          "indexed": false,
          "internalType": "uint256",
          "name": "wethAmount",
          "type": "uint256"
        },
        {
          "indexed": false,
          "internalType": "uint256",
          "name": "totalInvestmentInUsd",
          "type": "uint256"
        },
        {
          "indexed": false,
          "internalType": "uint256",
          "name": "hyaxAmount",
          "type": "uint256"
        }
      ],
      "name": "InvestFromWeth",
      "type": "event"
    },
    {
      "anonymous": false,
      "inputs": [
        {
          "indexed": false,
          "internalType": "address",
          "name": "sender",
          "type": "address"
        },
        {
          "indexed": false,
          "internalType": "address",
          "name": "_QualifiedInvestorAddress",
          "type": "address"
        }
      ],
      "name": "InvestorAddedToQualifiedInvestorList",
      "type": "event"
    },
    {
      "anonymous": false,
      "inputs": [
        {
          "indexed": false,
          "internalType": "address",
          "name": "sender",
          "type": "address"
        },
        {
          "indexed": false,
          "internalType": "address",
          "name": "_investorAddress",
          "type": "address"
        }
      ],
      "name": "InvestorAddedToWhiteList",
      "type": "event"
    },
    {
      "anonymous": false,
      "inputs": [
        {
          "indexed": false,
          "internalType": "address",
          "name": "sender",
          "type": "address"
        },
        {
          "indexed": false,
          "internalType": "address",
          "name": "_QualifiedInvestorAddress",
          "type": "address"
        }
      ],
      "name": "InvestorRemovedFromQualifiedInvestorList",
      "type": "event"
    },
    {
      "anonymous": false,
      "inputs": [
        {
          "indexed": false,
          "internalType": "address",
          "name": "sender",
          "type": "address"
        },
        {
          "indexed": false,
          "internalType": "address",
          "name": "_investorAddress",
          "type": "address"
        }
      ],
      "name": "InvestorRemovedFromWhiteList",
      "type": "event"
    },
    {
      "anonymous": false,
      "inputs": [
        {
          "indexed": true,
          "internalType": "address",
          "name": "previousOwner",
          "type": "address"
        },
        {
          "indexed": true,
          "internalType": "address",
          "name": "newOwner",
          "type": "address"
        }
      ],
      "name": "OwnershipTransferred",
      "type": "event"
    },
    {
      "anonymous": false,
      "inputs": [
        {
          "indexed": false,
          "internalType": "address",
          "name": "account",
          "type": "address"
        }
      ],
      "name": "Paused",
      "type": "event"
    },
    {
      "anonymous": false,
      "inputs": [
        {
          "indexed": false,
          "internalType": "address",
          "name": "sender",
          "type": "address"
        },
        {
          "indexed": false,
          "internalType": "uint256",
          "name": "amount",
          "type": "uint256"
        }
      ],
      "name": "TokenIssuance",
      "type": "event"
    },
    {
      "anonymous": false,
      "inputs": [
        {
          "indexed": true,
          "internalType": "address",
          "name": "from",
          "type": "address"
        },
        {
          "indexed": true,
          "internalType": "address",
          "name": "to",
          "type": "address"
        },
        {
          "indexed": false,
          "internalType": "uint256",
          "name": "value",
          "type": "uint256"
        }
      ],
      "name": "Transfer",
      "type": "event"
    },
    {
      "anonymous": false,
      "inputs": [
        {
          "indexed": false,
          "internalType": "address",
          "name": "account",
          "type": "address"
        }
      ],
      "name": "Unpaused",
      "type": "event"
    },
    {
      "anonymous": false,
      "inputs": [
        {
          "indexed": false,
          "internalType": "uint256",
          "name": "_newHyaxPrice",
          "type": "uint256"
        }
      ],
      "name": "UpdatedHyaxPrice",
      "type": "event"
    },
    {
      "anonymous": false,
      "inputs": [
        {
          "indexed": false,
          "internalType": "address",
          "name": "_newMaticPriceFeedAddress",
          "type": "address"
        }
      ],
      "name": "UpdatedMaticPriceFeedAddress",
      "type": "event"
    },
    {
      "anonymous": false,
      "inputs": [
        {
          "indexed": false,
          "internalType": "uint256",
          "name": "_newMaximumInvestmentAllowedInUSD",
          "type": "uint256"
        }
      ],
      "name": "UpdatedMaximumInvestmentAllowedInUSD",
      "type": "event"
    },
    {
      "anonymous": false,
      "inputs": [
        {
          "indexed": false,
          "internalType": "uint256",
          "name": "_newMinimumInvestmentAllowedInUSD",
          "type": "uint256"
        }
      ],
      "name": "UpdatedMinimumInvestmentAllowedInUSD",
      "type": "event"
    },
    {
      "anonymous": false,
      "inputs": [
        {
          "indexed": false,
          "internalType": "address",
          "name": "_newTreasuryAddress",
          "type": "address"
        }
      ],
      "name": "UpdatedTreasuryAddress",
      "type": "event"
    },
    {
      "anonymous": false,
      "inputs": [
        {
          "indexed": false,
          "internalType": "address",
          "name": "_newUsdcPriceFeedAddress",
          "type": "address"
        }
      ],
      "name": "UpdatedUsdcPriceFeedAddress",
      "type": "event"
    },
    {
      "anonymous": false,
      "inputs": [
        {
          "indexed": false,
          "internalType": "address",
          "name": "_newUsdcTokenAddress",
          "type": "address"
        }
      ],
      "name": "UpdatedUsdcTokenAddress",
      "type": "event"
    },
    {
      "anonymous": false,
      "inputs": [
        {
          "indexed": false,
          "internalType": "address",
          "name": "_newUsdtPriceFeedAddress",
          "type": "address"
        }
      ],
      "name": "UpdatedUsdtPriceFeedAddress",
      "type": "event"
    },
    {
      "anonymous": false,
      "inputs": [
        {
          "indexed": false,
          "internalType": "address",
          "name": "_newUsdtTokenAddress",
          "type": "address"
        }
      ],
      "name": "UpdatedUsdtTokenAddress",
      "type": "event"
    },
    {
      "anonymous": false,
      "inputs": [
        {
          "indexed": false,
          "internalType": "address",
          "name": "_newWbtcPriceFeedAddress",
          "type": "address"
        }
      ],
      "name": "UpdatedWbtcPriceFeedAddress",
      "type": "event"
    },
    {
      "anonymous": false,
      "inputs": [
        {
          "indexed": false,
          "internalType": "address",
          "name": "_newWbtcTokenAddress",
          "type": "address"
        }
      ],
      "name": "UpdatedWbtcTokenAddress",
      "type": "event"
    },
    {
      "anonymous": false,
      "inputs": [
        {
          "indexed": false,
          "internalType": "address",
          "name": "_newWethPriceFeedAddress",
          "type": "address"
        }
      ],
      "name": "UpdatedWethPriceFeedAddress",
      "type": "event"
    },
    {
      "anonymous": false,
      "inputs": [
        {
          "indexed": false,
          "internalType": "address",
          "name": "_newWethTokenAddress",
          "type": "address"
        }
      ],
      "name": "UpdatedWethTokenAddress",
      "type": "event"
    },
    {
      "anonymous": false,
      "inputs": [
        {
          "indexed": false,
          "internalType": "address",
          "name": "_newWhiteListerAddress",
          "type": "address"
        }
      ],
      "name": "UpdatedWhiteListerAddress",
      "type": "event"
    },
    {
      "inputs": [
        {
          "internalType": "address",
          "name": "_qualifiedInvestorAddress",
          "type": "address"
        }
      ],
      "name": "addToQualifiedInvestorList",
      "outputs": [],
      "stateMutability": "nonpayable",
      "type": "function"
    },
    {
      "inputs": [
        {
          "internalType": "address",
          "name": "_investorAddress",
          "type": "address"
        }
      ],
      "name": "addToWhiteList",
      "outputs": [],
      "stateMutability": "nonpayable",
      "type": "function"
    },
    {
      "inputs": [
        {
          "internalType": "address",
          "name": "owner",
          "type": "address"
        },
        {
          "internalType": "address",
          "name": "spender",
          "type": "address"
        }
      ],
      "name": "allowance",
      "outputs": [
        {
          "internalType": "uint256",
          "name": "",
          "type": "uint256"
        }
      ],
      "stateMutability": "view",
      "type": "function"
    },
    {
      "inputs": [
        {
          "internalType": "address",
          "name": "spender",
          "type": "address"
        },
        {
          "internalType": "uint256",
          "name": "value",
          "type": "uint256"
        }
      ],
      "name": "approve",
      "outputs": [
        {
          "internalType": "bool",
          "name": "",
          "type": "bool"
        }
      ],
      "stateMutability": "nonpayable",
      "type": "function"
    },
    {
      "inputs": [
        {
          "internalType": "address",
          "name": "account",
          "type": "address"
        }
      ],
      "name": "balanceOf",
      "outputs": [
        {
          "internalType": "uint256",
          "name": "",
          "type": "uint256"
        }
      ],
      "stateMutability": "view",
      "type": "function"
    },
    {
      "inputs": [
        {
          "internalType": "uint256",
          "name": "_amount",
          "type": "uint256"
        },
        {
          "internalType": "uint256",
          "name": "_currentCryptocurrencyPrice",
          "type": "uint256"
        }
      ],
      "name": "calculateTotalHyaxTokenToReturn",
      "outputs": [
        {
          "internalType": "uint256",
          "name": "totalInvestmentInUsd",
          "type": "uint256"
        },
        {
          "internalType": "uint256",
          "name": "totalHyaxTokenToReturn",
          "type": "uint256"
        }
      ],
      "stateMutability": "view",
      "type": "function"
    },
    {
      "inputs": [],
      "name": "decimals",
      "outputs": [
        {
          "internalType": "uint8",
          "name": "",
          "type": "uint8"
        }
      ],
      "stateMutability": "view",
      "type": "function"
    },
    {
      "inputs": [],
      "name": "getCurrentMaticPrice",
      "outputs": [
        {
          "internalType": "uint256",
          "name": "",
          "type": "uint256"
        }
      ],
      "stateMutability": "view",
      "type": "function"
    },
    {
      "inputs": [],
      "name": "getCurrentUsdcPrice",
      "outputs": [
        {
          "internalType": "uint256",
          "name": "",
          "type": "uint256"
        }
      ],
      "stateMutability": "view",
      "type": "function"
    },
    {
      "inputs": [],
      "name": "getCurrentUsdtPrice",
      "outputs": [
        {
          "internalType": "uint256",
          "name": "",
          "type": "uint256"
        }
      ],
      "stateMutability": "view",
      "type": "function"
    },
    {
      "inputs": [],
      "name": "getCurrentWbtcPrice",
      "outputs": [
        {
          "internalType": "uint256",
          "name": "",
          "type": "uint256"
        }
      ],
      "stateMutability": "view",
      "type": "function"
    },
    {
      "inputs": [],
      "name": "getCurrentWethPrice",
      "outputs": [
        {
          "internalType": "uint256",
          "name": "",
          "type": "uint256"
        }
      ],
      "stateMutability": "view",
      "type": "function"
    },
    {
      "inputs": [],
      "name": "hyaxPrice",
      "outputs": [
        {
          "internalType": "uint256",
          "name": "",
          "type": "uint256"
        }
      ],
      "stateMutability": "view",
      "type": "function"
    },
    {
      "inputs": [],
      "name": "investFromMatic",
      "outputs": [
        {
          "internalType": "bool",
          "name": "",
          "type": "bool"
        }
      ],
      "stateMutability": "payable",
      "type": "function"
    },
    {
      "inputs": [
        {
          "internalType": "uint256",
          "name": "_amount",
          "type": "uint256"
        }
      ],
      "name": "investFromUsdc",
      "outputs": [
        {
          "internalType": "bool",
          "name": "",
          "type": "bool"
        }
      ],
      "stateMutability": "nonpayable",
      "type": "function"
    },
    {
      "inputs": [
        {
          "internalType": "uint256",
          "name": "_amount",
          "type": "uint256"
        }
      ],
      "name": "investFromUsdt",
      "outputs": [
        {
          "internalType": "bool",
          "name": "",
          "type": "bool"
        }
      ],
      "stateMutability": "nonpayable",
      "type": "function"
    },
    {
      "inputs": [
        {
          "internalType": "uint256",
          "name": "_amount",
          "type": "uint256"
        }
      ],
      "name": "investFromWbtc",
      "outputs": [
        {
          "internalType": "bool",
          "name": "",
          "type": "bool"
        }
      ],
      "stateMutability": "nonpayable",
      "type": "function"
    },
    {
      "inputs": [
        {
          "internalType": "uint256",
          "name": "_amount",
          "type": "uint256"
        }
      ],
      "name": "investFromWeth",
      "outputs": [
        {
          "internalType": "bool",
          "name": "",
          "type": "bool"
        }
      ],
      "stateMutability": "nonpayable",
      "type": "function"
    },
    {
      "inputs": [
        {
          "internalType": "address",
          "name": "",
          "type": "address"
        }
      ],
      "name": "investorsWhiteList",
      "outputs": [
        {
          "internalType": "bool",
          "name": "",
          "type": "bool"
        }
      ],
      "stateMutability": "view",
      "type": "function"
    },
    {
      "inputs": [],
      "name": "maticPriceFeedAddress",
      "outputs": [
        {
          "internalType": "address",
          "name": "",
          "type": "address"
        }
      ],
      "stateMutability": "view",
      "type": "function"
    },
    {
      "inputs": [],
      "name": "maximumInvestmentAllowedInUSD",
      "outputs": [
        {
          "internalType": "uint256",
          "name": "",
          "type": "uint256"
        }
      ],
      "stateMutability": "view",
      "type": "function"
    },
    {
      "inputs": [],
      "name": "minimumInvestmentAllowedInUSD",
      "outputs": [
        {
          "internalType": "uint256",
          "name": "",
          "type": "uint256"
        }
      ],
      "stateMutability": "view",
      "type": "function"
    },
    {
      "inputs": [],
      "name": "name",
      "outputs": [
        {
          "internalType": "string",
          "name": "",
          "type": "string"
        }
      ],
      "stateMutability": "view",
      "type": "function"
    },
    {
      "inputs": [],
      "name": "owner",
      "outputs": [
        {
          "internalType": "address",
          "name": "",
          "type": "address"
        }
      ],
      "stateMutability": "view",
      "type": "function"
    },
    {
      "inputs": [],
      "name": "pause",
      "outputs": [],
      "stateMutability": "nonpayable",
      "type": "function"
    },
    {
      "inputs": [],
      "name": "paused",
      "outputs": [
        {
          "internalType": "bool",
          "name": "",
          "type": "bool"
        }
      ],
      "stateMutability": "view",
      "type": "function"
    },
    {
      "inputs": [
        {
          "internalType": "address",
          "name": "",
          "type": "address"
        }
      ],
      "name": "qualifiedInvestorList",
      "outputs": [
        {
          "internalType": "bool",
          "name": "",
          "type": "bool"
        }
      ],
      "stateMutability": "view",
      "type": "function"
    },
    {
      "inputs": [
        {
          "internalType": "address",
          "name": "_qualifiedInvestorAddress",
          "type": "address"
        }
      ],
      "name": "removeFromQualifiedInvestorList",
      "outputs": [],
      "stateMutability": "nonpayable",
      "type": "function"
    },
    {
      "inputs": [
        {
          "internalType": "address",
          "name": "_investorAddress",
          "type": "address"
        }
      ],
      "name": "removeFromWhiteList",
      "outputs": [],
      "stateMutability": "nonpayable",
      "type": "function"
    },
    {
      "inputs": [],
      "name": "renounceOwnership",
      "outputs": [],
      "stateMutability": "nonpayable",
      "type": "function"
    },
    {
      "inputs": [],
      "name": "symbol",
      "outputs": [
        {
          "internalType": "string",
          "name": "",
          "type": "string"
        }
      ],
      "stateMutability": "view",
      "type": "function"
    },
    {
      "inputs": [
        {
          "internalType": "uint256",
          "name": "_amount",
          "type": "uint256"
        }
      ],
      "name": "tokenIssuance",
      "outputs": [],
      "stateMutability": "nonpayable",
      "type": "function"
    },
    {
      "inputs": [
        {
          "internalType": "address",
          "name": "",
          "type": "address"
        }
      ],
      "name": "totalHyaxBoughtByInvestor",
      "outputs": [
        {
          "internalType": "uint256",
          "name": "",
          "type": "uint256"
        }
      ],
      "stateMutability": "view",
      "type": "function"
    },
    {
      "inputs": [],
      "name": "totalSupply",
      "outputs": [
        {
          "internalType": "uint256",
          "name": "",
          "type": "uint256"
        }
      ],
      "stateMutability": "view",
      "type": "function"
    },
    {
      "inputs": [
        {
          "internalType": "address",
          "name": "",
          "type": "address"
        }
      ],
      "name": "totalUsdDepositedByInvestor",
      "outputs": [
        {
          "internalType": "uint256",
          "name": "",
          "type": "uint256"
        }
      ],
      "stateMutability": "view",
      "type": "function"
    },
    {
      "inputs": [
        {
          "internalType": "address",
          "name": "to",
          "type": "address"
        },
        {
          "internalType": "uint256",
          "name": "value",
          "type": "uint256"
        }
      ],
      "name": "transfer",
      "outputs": [
        {
          "internalType": "bool",
          "name": "",
          "type": "bool"
        }
      ],
      "stateMutability": "nonpayable",
      "type": "function"
    },
    {
      "inputs": [
        {
          "internalType": "address",
          "name": "from",
          "type": "address"
        },
        {
          "internalType": "address",
          "name": "to",
          "type": "address"
        },
        {
          "internalType": "uint256",
          "name": "value",
          "type": "uint256"
        }
      ],
      "name": "transferFrom",
      "outputs": [
        {
          "internalType": "bool",
          "name": "",
          "type": "bool"
        }
      ],
      "stateMutability": "nonpayable",
      "type": "function"
    },
    {
      "inputs": [
        {
          "internalType": "address",
          "name": "newOwner",
          "type": "address"
        }
      ],
      "name": "transferOwnership",
      "outputs": [],
      "stateMutability": "nonpayable",
      "type": "function"
    },
    {
      "inputs": [],
      "name": "treasuryAddress",
      "outputs": [
        {
          "internalType": "address",
          "name": "",
          "type": "address"
        }
      ],
      "stateMutability": "view",
      "type": "function"
    },
    {
      "inputs": [],
      "name": "unpause",
      "outputs": [],
      "stateMutability": "nonpayable",
      "type": "function"
    },
    {
      "inputs": [
        {
          "internalType": "uint256",
          "name": "_newHyaxPrice",
          "type": "uint256"
        }
      ],
      "name": "updateHyaxPrice",
      "outputs": [],
      "stateMutability": "nonpayable",
      "type": "function"
    },
    {
      "inputs": [
        {
          "internalType": "address",
          "name": "_newMaticPriceFeedAddress",
          "type": "address"
        }
      ],
      "name": "updateMaticPriceFeedAddress",
      "outputs": [],
      "stateMutability": "nonpayable",
      "type": "function"
    },
    {
      "inputs": [
        {
          "internalType": "uint256",
          "name": "_newMaximumInvestmentAllowedInUSD",
          "type": "uint256"
        }
      ],
      "name": "updateMaximumInvestmentAllowedInUSD",
      "outputs": [],
      "stateMutability": "nonpayable",
      "type": "function"
    },
    {
      "inputs": [
        {
          "internalType": "uint256",
          "name": "_newMinimumInvestmentAllowedInUSD",
          "type": "uint256"
        }
      ],
      "name": "updateMinimumInvestmentAllowedInUSD",
      "outputs": [],
      "stateMutability": "nonpayable",
      "type": "function"
    },
    {
      "inputs": [
        {
          "internalType": "address",
          "name": "_newTreasuryAddress",
          "type": "address"
        }
      ],
      "name": "updateTreasuryAddress",
      "outputs": [],
      "stateMutability": "nonpayable",
      "type": "function"
    },
    {
      "inputs": [
        {
          "internalType": "address",
          "name": "_newUsdcPriceFeedAddress",
          "type": "address"
        }
      ],
      "name": "updateUsdcPriceFeedAddress",
      "outputs": [],
      "stateMutability": "nonpayable",
      "type": "function"
    },
    {
      "inputs": [
        {
          "internalType": "address",
          "name": "_newUsdcTokenAddress",
          "type": "address"
        }
      ],
      "name": "updateUsdcTokenAddress",
      "outputs": [],
      "stateMutability": "nonpayable",
      "type": "function"
    },
    {
      "inputs": [
        {
          "internalType": "address",
          "name": "_newUsdtPriceFeedAddress",
          "type": "address"
        }
      ],
      "name": "updateUsdtPriceFeedAddress",
      "outputs": [],
      "stateMutability": "nonpayable",
      "type": "function"
    },
    {
      "inputs": [
        {
          "internalType": "address",
          "name": "_newUsdtTokenAddress",
          "type": "address"
        }
      ],
      "name": "updateUsdtTokenAddress",
      "outputs": [],
      "stateMutability": "nonpayable",
      "type": "function"
    },
    {
      "inputs": [
        {
          "internalType": "address",
          "name": "_newWbtcPriceFeedAddress",
          "type": "address"
        }
      ],
      "name": "updateWbtcPriceFeedAddress",
      "outputs": [],
      "stateMutability": "nonpayable",
      "type": "function"
    },
    {
      "inputs": [
        {
          "internalType": "address",
          "name": "_newWbtcTokenAddress",
          "type": "address"
        }
      ],
      "name": "updateWbtcTokenAddress",
      "outputs": [],
      "stateMutability": "nonpayable",
      "type": "function"
    },
    {
      "inputs": [
        {
          "internalType": "address",
          "name": "_newWethPriceFeedAddress",
          "type": "address"
        }
      ],
      "name": "updateWethPriceFeedAddress",
      "outputs": [],
      "stateMutability": "nonpayable",
      "type": "function"
    },
    {
      "inputs": [
        {
          "internalType": "address",
          "name": "_newWethTokenAddress",
          "type": "address"
        }
      ],
      "name": "updateWethTokenAddress",
      "outputs": [],
      "stateMutability": "nonpayable",
      "type": "function"
    },
    {
      "inputs": [
        {
          "internalType": "address",
          "name": "_newWhiteListerAddress",
          "type": "address"
        }
      ],
      "name": "updateWhiteListerAddress",
      "outputs": [],
      "stateMutability": "nonpayable",
      "type": "function"
    },
    {
      "inputs": [],
      "name": "usdcPriceFeedAddress",
      "outputs": [
        {
          "internalType": "address",
          "name": "",
          "type": "address"
        }
      ],
      "stateMutability": "view",
      "type": "function"
    },
    {
      "inputs": [],
      "name": "usdcToken",
      "outputs": [
        {
          "internalType": "contract ERC20TokenInterface",
          "name": "",
          "type": "address"
        }
      ],
      "stateMutability": "view",
      "type": "function"
    },
    {
      "inputs": [],
      "name": "usdcTokenAddress",
      "outputs": [
        {
          "internalType": "address",
          "name": "",
          "type": "address"
        }
      ],
      "stateMutability": "view",
      "type": "function"
    },
    {
      "inputs": [],
      "name": "usdtPriceFeedAddress",
      "outputs": [
        {
          "internalType": "address",
          "name": "",
          "type": "address"
        }
      ],
      "stateMutability": "view",
      "type": "function"
    },
    {
      "inputs": [],
      "name": "usdtToken",
      "outputs": [
        {
          "internalType": "contract ERC20TokenInterface",
          "name": "",
          "type": "address"
        }
      ],
      "stateMutability": "view",
      "type": "function"
    },
    {
      "inputs": [],
      "name": "usdtTokenAddress",
      "outputs": [
        {
          "internalType": "address",
          "name": "",
          "type": "address"
        }
      ],
      "stateMutability": "view",
      "type": "function"
    },
    {
      "inputs": [
        {
          "internalType": "uint256",
          "name": "_totalInvestmentInUsd",
          "type": "uint256"
        },
        {
          "internalType": "address",
          "name": "_investorAddress",
          "type": "address"
        }
      ],
      "name": "validateMaximumInvestedAmountAndInvestorLimit",
      "outputs": [],
      "stateMutability": "view",
      "type": "function"
    },
    {
      "inputs": [],
      "name": "wbtcPriceFeedAddress",
      "outputs": [
        {
          "internalType": "address",
          "name": "",
          "type": "address"
        }
      ],
      "stateMutability": "view",
      "type": "function"
    },
    {
      "inputs": [],
      "name": "wbtcToken",
      "outputs": [
        {
          "internalType": "contract ERC20TokenInterface",
          "name": "",
          "type": "address"
        }
      ],
      "stateMutability": "view",
      "type": "function"
    },
    {
      "inputs": [],
      "name": "wbtcTokenAddress",
      "outputs": [
        {
          "internalType": "address",
          "name": "",
          "type": "address"
        }
      ],
      "stateMutability": "view",
      "type": "function"
    },
    {
      "inputs": [],
      "name": "wethPriceFeedAddress",
      "outputs": [
        {
          "internalType": "address",
          "name": "",
          "type": "address"
        }
      ],
      "stateMutability": "view",
      "type": "function"
    },
    {
      "inputs": [],
      "name": "wethToken",
      "outputs": [
        {
          "internalType": "contract ERC20TokenInterface",
          "name": "",
          "type": "address"
        }
      ],
      "stateMutability": "view",
      "type": "function"
    },
    {
      "inputs": [],
      "name": "wethTokenAddress",
      "outputs": [
        {
          "internalType": "address",
          "name": "",
          "type": "address"
        }
      ],
      "stateMutability": "view",
      "type": "function"
    },
    {
      "inputs": [],
      "name": "whiteListerAddress",
      "outputs": [
        {
          "internalType": "address",
          "name": "",
          "type": "address"
        }
      ],
      "stateMutability": "view",
      "type": "function"
    },
    {
      "stateMutability": "payable",
      "type": "receive"
    }
  ],
  "bytecode": "0x60806040523480156200001157600080fd5b503360405180604001604052806009815260200168242ca0ac2a37b5b2b760b91b81525060405180604001604052806004815260200163090b282b60e31b8152508160039081620000639190620005b1565b506004620000728282620005b1565b50506005805460ff19169055506001600160a01b038116620000af57604051631e4fbdf760e01b8152600060048201526024015b60405180910390fd5b620000ba81620002ff565b50620000e433620000ce6012600a62000792565b620000de90631dcd6500620007aa565b62000359565b620927c0603855620000f96012600a62000792565b62000106906001620007aa565b603955620001176012600a62000792565b6200012590612710620007aa565b603a55603b80546001600160a01b03199081167301c2f012de19e6436744c3f81f56e9e70c93a8c317909155603c8054821673350441f8a82680a785ffa9d3efea60bb4ca417f8179055604180548216721382149eba3441043c1c66972b4772963f5d43908117909155604280548316909117905560438054821673f68054bfe5d45432ffca28ffa1f3d685d0456ddc908117909155604480548316731b8739bb4cdf0089d07097a9ae5bd274b29c6f16908117909155604580548416909117905560468054831690911790556047805482167370e02fb82b6bc04f64099689b0599e14b44d4fbb908117909155604880548316733ac23dcb4ecfcbd24579e1f34542524d0e4edea89081179091556049805484169091179055604a805483169091179055604b80548216733c8df3c48b3884da2ff25e17524282d60f9c3b93908117909155604c8054831673e7656e23fe8077d438aefbec2fabdf2d8e070c4f908117909155604d805484169091179055604e805483169091179055604f8054821673524a89ed77d5827320e35e12bca96830c6b7960a90811790915560508054831673f0d50568e3a7e8259e16663972b11910f89bd8e7908117909155605180548416909117905560528054909216179055620007da565b600580546001600160a01b03838116610100818102610100600160a81b031985161790945560405193909204169182907f8be0079c531659141344cd1fd0a4f28419497f9722a3daafe3b4186f6b6457e090600090a35050565b6001600160a01b038216620003855760405163ec442f0560e01b815260006004820152602401620000a6565b620003936000838362000397565b5050565b620003a1620003b3565b620003ae838383620003da565b505050565b60055460ff1615620003d85760405163d93c066560e01b815260040160405180910390fd5b565b6001600160a01b03831662000409578060026000828254620003fd9190620007c4565b909155506200047d9050565b6001600160a01b038316600090815260208190526040902054818110156200045e5760405163391434e360e21b81526001600160a01b03851660048201526024810182905260448101839052606401620000a6565b6001600160a01b03841660009081526020819052604090209082900390555b6001600160a01b0382166200049b57600280548290039055620004ba565b6001600160a01b03821660009081526020819052604090208054820190555b816001600160a01b0316836001600160a01b03167fddf252ad1be2c89b69c2b068fc378daa952ba7f163c4a11628f55a4df523b3ef836040516200050091815260200190565b60405180910390a3505050565b634e487b7160e01b600052604160045260246000fd5b600181811c908216806200053857607f821691505b6020821081036200055957634e487b7160e01b600052602260045260246000fd5b50919050565b601f821115620003ae57600081815260208120601f850160051c81016020861015620005885750805b601f850160051c820191505b81811015620005a95782815560010162000594565b505050505050565b81516001600160401b03811115620005cd57620005cd6200050d565b620005e581620005de845462000523565b846200055f565b602080601f8311600181146200061d5760008415620006045750858301515b600019600386901b1c1916600185901b178555620005a9565b600085815260208120601f198616915b828110156200064e578886015182559484019460019091019084016200062d565b50858210156200066d5787850151600019600388901b60f8161c191681555b5050505050600190811b01905550565b634e487b7160e01b600052601160045260246000fd5b600181815b80851115620006d4578160001904821115620006b857620006b86200067d565b80851615620006c657918102915b93841c939080029062000698565b509250929050565b600082620006ed575060016200078c565b81620006fc575060006200078c565b8160018114620007155760028114620007205762000740565b60019150506200078c565b60ff8411156200073457620007346200067d565b50506001821b6200078c565b5060208310610133831016604e8410600b841016171562000765575081810a6200078c565b62000771838362000693565b80600019048211156200078857620007886200067d565b0290505b92915050565b6000620007a360ff841683620006dc565b9392505050565b80820281158282048414176200078c576200078c6200067d565b808201808211156200078c576200078c6200067d565b6156c580620007ea6000396000f3fe6080604052600436106103735760003560e01c806365699d28116101c8578063a98ad46c116100f8578063dd0b49ed1161009b578063dd0b49ed14610acb578063dd62ed3e14610aeb578063e0ec608714610b0b578063ee4c97a614610b2b578063f2fde38b14610b58578063f5a53da314610b78578063f7a47f8114610b98578063fb2dc76e14610bb8578063fc77056f14610bd857600080fd5b8063a98ad46c146109b9578063b25b24e2146109d9578063b2c568f314610a09578063b40ed44914610a29578063bbdd2a5414610a49578063c5f956af14610a69578063cb63acd314610a89578063d39f456114610ab657600080fd5b8063841e45611161016b578063841e4561146108955780638456cb59146108b55780638c945e63146108ca5780638da5cb5b146108ff5780638f7c71671461091457806395d89b41146109345780639c8c7a34146109495780639d741e5d14610979578063a9059cbb1461099957600080fd5b806365699d281461079457806370a08231146107b4578063715018a6146107ea57806377b53ece146107ff5780637ce5643a1461081f5780638049bcb61461083f5780638116de2b1461085557806381eb121a1461087557600080fd5b80632eb93086116102a357806349dd3e881161024657806349dd3e881461067c5780634b57b0be1461069c5780634c526bdb146106bc5780634c97cf7c146106dc57806356c8b8f4146106fc5780635ae9384e1461071c5780635c975abb1461073c5780635ec2562a14610754578063653c3a471461077457600080fd5b80632eb93086146105c3578063313ce567146105d8578063377c779f146105f45780633b14f3591461060a5780633ebda614146106125780633f4ba83a1461062757806340b5ea9c1461063c57806347ee03941461065c57600080fd5b806311eac8551161031657806311eac855146104b8578063128ef022146104d857806318160ddd146104f85780631b1741e01461050d5780631e534be61461052d57806320edf79e1461054d57806323b872dd1461056d57806327614df81461058d5780632a241ad3146105ad57600080fd5b806301bf66481461039157806306dbb3f9146103b157806306fdde03146103e657806308cd468f14610408578063095ea7b3146104355780630aeee261146104555780630f3d57e2146104785780630f9dad711461049857600080fd5b3661038c57610380610bed565b61038a6001600655565b005b600080fd5b34801561039d57600080fd5b5061038a6103ac366004614d00565b610c4b565b3480156103bd57600080fd5b506103d16103cc366004614d22565b610e0e565b60405190151581526020015b60405180910390f35b3480156103f257600080fd5b506103fb61125f565b6040516103dd9190614d5f565b34801561041457600080fd5b50604854610428906001600160a01b031681565b6040516103dd9190614d92565b34801561044157600080fd5b506103d1610450366004614da6565b6112f1565b34801561046157600080fd5b5061046a61130b565b6040519081526020016103dd565b34801561048457600080fd5b5061038a610493366004614d00565b6113de565b3480156104a457600080fd5b50604f54610428906001600160a01b031681565b3480156104c457600080fd5b50604654610428906001600160a01b031681565b3480156104e457600080fd5b5061038a6104f3366004614d22565b6115e6565b34801561050457600080fd5b5060025461046a565b34801561051957600080fd5b5061038a610528366004614d00565b61180b565b34801561053957600080fd5b5061038a610548366004614d00565b611a06565b34801561055957600080fd5b506103d1610568366004614d22565b611b01565b34801561057957600080fd5b506103d1610588366004614dd0565b611f35565b34801561059957600080fd5b50604e54610428906001600160a01b031681565b3480156105b957600080fd5b5061046a60395481565b3480156105cf57600080fd5b5061046a611f59565b3480156105e457600080fd5b50604051601281526020016103dd565b34801561060057600080fd5b5061046a60385481565b6103d161201f565b34801561061e57600080fd5b5061046a612345565b34801561063357600080fd5b5061038a61240b565b34801561064857600080fd5b50604454610428906001600160a01b031681565b34801561066857600080fd5b5061038a610677366004614d00565b61241d565b34801561068857600080fd5b5061038a610697366004614d00565b6125d8565b3480156106a857600080fd5b50605254610428906001600160a01b031681565b3480156106c857600080fd5b50604b54610428906001600160a01b031681565b3480156106e857600080fd5b5061038a6106f7366004614d00565b6126d3565b34801561070857600080fd5b506103d1610717366004614d22565b6127ce565b34801561072857600080fd5b50605054610428906001600160a01b031681565b34801561074857600080fd5b5060055460ff166103d1565b34801561076057600080fd5b5061038a61076f366004614d22565b612c02565b34801561078057600080fd5b5061038a61078f366004614d00565b612dc6565b3480156107a057600080fd5b50603b54610428906001600160a01b031681565b3480156107c057600080fd5b5061046a6107cf366004614d00565b6001600160a01b031660009081526020819052604090205490565b3480156107f657600080fd5b5061038a612f10565b34801561080b57600080fd5b50604354610428906001600160a01b031681565b34801561082b57600080fd5b5061038a61083a366004614d00565b612f22565b34801561084b57600080fd5b5061046a603a5481565b34801561086157600080fd5b5061038a610870366004614e0c565b6130ff565b34801561088157600080fd5b5061038a610890366004614d00565b6131d1565b3480156108a157600080fd5b5061038a6108b0366004614d00565b6133cd565b3480156108c157600080fd5b5061038a61350e565b3480156108d657600080fd5b506108ea6108e5366004614e38565b61351e565b604080519283526020830191909152016103dd565b34801561090b57600080fd5b50610428613679565b34801561092057600080fd5b5061038a61092f366004614d00565b61368d565b34801561094057600080fd5b506103fb613900565b34801561095557600080fd5b506103d1610964366004614d00565b60406020819052600091825290205460ff1681565b34801561098557600080fd5b50604754610428906001600160a01b031681565b3480156109a557600080fd5b506103d16109b4366004614da6565b61390f565b3480156109c557600080fd5b50604a54610428906001600160a01b031681565b3480156109e557600080fd5b506103d16109f4366004614d00565b603d6020526000908152604090205460ff1681565b348015610a1557600080fd5b5061038a610a24366004614d22565b61391d565b348015610a3557600080fd5b5061038a610a44366004614d22565b613ae2565b348015610a5557600080fd5b5061038a610a64366004614d00565b613cb4565b348015610a7557600080fd5b50603c54610428906001600160a01b031681565b348015610a9557600080fd5b5061046a610aa4366004614d00565b603f6020526000908152604090205481565b348015610ac257600080fd5b5061046a613daf565b348015610ad757600080fd5b5061038a610ae6366004614d00565b613e75565b348015610af757600080fd5b5061046a610b06366004614e5a565b614086565b348015610b1757600080fd5b5061038a610b26366004614d00565b6140b1565b348015610b3757600080fd5b5061046a610b46366004614d00565b603e6020526000908152604090205481565b348015610b6457600080fd5b5061038a610b73366004614d00565b6142ad565b348015610b8457600080fd5b506103d1610b93366004614d22565b61439b565b348015610ba457600080fd5b50604c54610428906001600160a01b031681565b348015610bc457600080fd5b50604154610428906001600160a01b031681565b348015610be457600080fd5b5061046a6147cf565b600260065403610c445760405162461bcd60e51b815260206004820152601f60248201527f5265656e7472616e637947756172643a207265656e7472616e742063616c6c0060448201526064015b60405180910390fd5b6002600655565b610c53613679565b6001600160a01b0316336001600160a01b03161480610c7c5750603b546001600160a01b031633145b610c985760405162461bcd60e51b8152600401610c3b90614e84565b6001600160a01b038116610d275760405162461bcd60e51b815260206004820152604a60248201527f496e766573746f72206164647265737320746f2072656d6f76652066726f6d2060448201527f746865207768697465206c6973742063616e206e6f7420626520746865207a65606482015269726f206164647265737360b01b608482015260a401610c3b565b6001600160a01b0381166000908152603d602052604090205460ff16610db15760405162461bcd60e51b815260206004820152603960248201527f5468617420696e766573746f722061646472657373206973206e6f74207265676044820152781a5cdd195c9959081bdb881d1a19481dda1a5d19481b1a5cdd603a1b6064820152608401610c3b565b6001600160a01b0381166000908152603d602052604090819020805460ff19169055517f41b8ea78b0816bef99ff095d54fbe2cef1f50003e09ce81445df1f89d957994490610e039033908490614ee2565b60405180910390a150565b336000908152603d602052604081205460ff161515600114610e425760405162461bcd60e51b8152600401610c3b90614efc565b610e4a610bed565b600080306001600160a01b0316638c945e6385306001600160a01b0316633ebda6146040518163ffffffff1660e01b8152600401602060405180830381865afa158015610e9b573d6000803e3d6000fd5b505050506040513d601f19601f82011682018060405250810190610ebf9190614f51565b6040516001600160e01b031960e085901b168152600481019290925260248201526044016040805180830381865afa158015610eff573d6000803e3d6000fd5b505050506040513d601f19601f82011682018060405250810190610f239190614f6a565b604051638116de2b60e01b815291935091503090638116de2b90610f4d9085903390600401614f8e565b60006040518083038186803b158015610f6557600080fd5b505afa158015610f79573d6000803e3d6000fd5b50506052546040516323b872dd60e01b8152600093506001600160a01b0390911691506323b872dd90610fb490339030908a90600401614fa5565b6020604051808303816000875af1158015610fd3573d6000803e3d6000fd5b505050506040513d601f19601f82011682018060405250810190610ff79190614fc9565b9050806110505760405162461bcd60e51b815260206004820152603360248201526000805160206155d08339815191526044820152721d1a194815d15512081a5b9d995cdd1b595b9d606a1b6064820152608401610c3b565b605254603c5460405163a9059cbb60e01b81526000926001600160a01b039081169263a9059cbb9261108a92909116908a90600401614feb565b6020604051808303816000875af11580156110a9573d6000803e3d6000fd5b505050506040513d601f19601f820116820180604052508101906110cd9190614fc9565b90508061113a5760405162461bcd60e51b815260206004820152604160248201526000805160206155f083398151915260448201527f65205745544820696e766573746d656e7420746f2074686520747265617375726064820152607960f81b608482015260a401610c3b565b60405163a9059cbb60e01b8152600090309063a9059cbb906111629033908890600401614feb565b6020604051808303816000875af1158015611181573d6000803e3d6000fd5b505050506040513d601f19601f820116820180604052508101906111a59190614fc9565b9050806111c45760405162461bcd60e51b8152600401610c3b90615004565b336000908152603f6020526040812080548792906111e3908490615081565b9091555050336000908152603e602052604081208054869290611207908490615081565b90915550506040517fbf4243966067581f0f1b50ff5e85be2be3b2553f757bcb5a3616467047d1d69f906112429033908a9089908990615094565b60405180910390a194505050505061125a6001600655565b919050565b60606003805461126e906150ba565b80601f016020809104026020016040519081016040528092919081815260200182805461129a906150ba565b80156112e75780601f106112bc576101008083540402835291602001916112e7565b820191906000526020600020905b8154815290600101906020018083116112ca57829003601f168201915b5050505050905090565b6000336112ff818585614895565b60019150505b92915050565b60425460408051633fabe5a360e21b815290516000926001600160a01b03169163feaf968c9160048083019260a09291908290030181865afa925050508015611371575060408051601f3d908101601f1916820190925261136e9181019061510e565b60015b6113d15760405162461bcd60e51b815260206004820152603c602482015260008051602061563083398151915260448201527f204d415449432070726963652066726f6d20746865206f7261636c65000000006064820152608401610c3b565b5091949350505050565b90565b6113e66148a2565b6001600160a01b03811661140c5760405162461bcd60e51b8152600401610c3b9061515e565b6044546001600160a01b039081169082160361147e5760405162461bcd60e51b815260206004820152603f60248201527f55534443207072696365206665656420616464726573732068617320616c726560448201526000805160206156708339815191526064820152608401610c3b565b6000819050806001600160a01b0316637284e4166040518163ffffffff1660e01b8152600401600060405180830381865afa9250505080156114e257506040513d6000823e601f3d908101601f191682016040526114df91908101906151cb565b60015b6114fe5760405162461bcd60e51b8152600401610c3b90615278565b604051691554d110c80bc81554d160b21b6020820152600090602a0160405160208183030381529060405280519060200120905060008260405160200161154591906152cd565b60405160208183030381529060405280519060200120905080821461157c5760405162461bcd60e51b8152600401610c3b90615278565b505050604480546001600160a01b0384166001600160a01b031991821681179092556045805490911690911790556040517f0a0bc5dadd9d9c881861f6da8998bebef8eabcb5f3d6651187c5d1899e327965906115da908490614d92565b60405180910390a15050565b6115ee6148a2565b6115f6610bed565b6116026012600a6153cd565b61160d9060016153dc565b81101561167c5760405162461bcd60e51b815260206004820152603760248201527f416d6f756e74206f66204859415820746f6b656e7320746f206973737565206d6044820152763ab9ba1031329030ba103632b0b9ba1018903a37b5b2b760491b6064820152608401610c3b565b6116886012600a6153cd565b61169690633b9aca006153dc565b81111561170b5760405162461bcd60e51b815260206004820152603f60248201527f416d6f756e74206f66204859415820746f6b656e7320746f206973737565206160448201527f7420612074696d65206d757374206265206d6178696d756d2031303030204d006064820152608401610c3b565b60008161171760025490565b6117219190615081565b905061172f6012600a6153cd565b61173e906402540be4006153dc565b8111156117b35760405162461bcd60e51b815260206004820152603b60248201527f416d6f756e74206f66204859415820746f6b656e7320746f206973737565207360448201527f75727061736573207468652031302c303030204d20746f6b656e7300000000006064820152608401610c3b565b6117c46117be613679565b836148d4565b7f455064bbf1374d9e833b8d9db24c56b24dbf79cc1a94a30665cae7093963d5a833836040516117f5929190614feb565b60405180910390a1506118086001600655565b50565b6118136148a2565b6001600160a01b0381166118395760405162461bcd60e51b8152600401610c3b9061515e565b6050546001600160a01b03908116908216036118ab5760405162461bcd60e51b815260206004820152603f60248201527f57455448207072696365206665656420616464726573732068617320616c726560448201526000805160206156708339815191526064820152608401610c3b565b6000819050806001600160a01b0316637284e4166040518163ffffffff1660e01b8152600401600060405180830381865afa92505050801561190f57506040513d6000823e601f3d908101601f1916820160405261190c91908101906151cb565b60015b61192b5760405162461bcd60e51b8152600401610c3b906153f3565b60405168115512080bc81554d160ba1b602082015260009060290160405160208183030381529060405280519060200120905060008260405160200161197191906152cd565b6040516020818303038152906040528051906020012090508082146119a85760405162461bcd60e51b8152600401610c3b906153f3565b505050605080546001600160a01b0384166001600160a01b031991821681179092556051805490911690911790556040517fc21be1e8c8d6de83e19ad6de75cd885eefac75be87e532a0a04d02147004e520906115da908490614d92565b611a0e6148a2565b6001600160a01b038116611a345760405162461bcd60e51b8152600401610c3b9061543f565b6043546001600160a01b0390811690821603611aa65760405162461bcd60e51b815260206004820152603a60248201527f5553444320746f6b656e20616464726573732068617320616c7265616479206260448201526000805160206156108339815191526064820152608401610c3b565b604380546001600160a01b0383166001600160a01b031991821681179092556046805490911690911790556040517f8b3f52c1d10699944ebee74ee29dca11c9c86bb0dbedef4abd6e737f613d4d3a90610e03908390614d92565b336000908152603d602052604081205460ff161515600114611b355760405162461bcd60e51b8152600401610c3b90614efc565b611b3d610bed565b600080306001600160a01b0316638c945e6385306001600160a01b031663fc77056f6040518163ffffffff1660e01b8152600401602060405180830381865afa158015611b8e573d6000803e3d6000fd5b505050506040513d601f19601f82011682018060405250810190611bb29190614f51565b6040516001600160e01b031960e085901b168152600481019290925260248201526044016040805180830381865afa158015611bf2573d6000803e3d6000fd5b505050506040513d601f19601f82011682018060405250810190611c169190614f6a565b604051638116de2b60e01b815291935091503090638116de2b90611c409085903390600401614f8e565b60006040518083038186803b158015611c5857600080fd5b505afa158015611c6c573d6000803e3d6000fd5b5050604e546040516323b872dd60e01b8152600093506001600160a01b0390911691506323b872dd90611ca790339030908a90600401614fa5565b6020604051808303816000875af1158015611cc6573d6000803e3d6000fd5b505050506040513d601f19601f82011682018060405250810190611cea9190614fc9565b905080611d435760405162461bcd60e51b815260206004820152603360248201526000805160206155d08339815191526044820152721d1a194815d09510c81a5b9d995cdd1b595b9d606a1b6064820152608401610c3b565b604e54603c5460405163a9059cbb60e01b81526000926001600160a01b039081169263a9059cbb92611d7d92909116908a90600401614feb565b6020604051808303816000875af1158015611d9c573d6000803e3d6000fd5b505050506040513d601f19601f82011682018060405250810190611dc09190614fc9565b905080611e2d5760405162461bcd60e51b815260206004820152604160248201526000805160206155f083398151915260448201527f65205742544320696e766573746d656e7420746f2074686520747265617375726064820152607960f81b608482015260a401610c3b565b60405163a9059cbb60e01b8152600090309063a9059cbb90611e559033908890600401614feb565b6020604051808303816000875af1158015611e74573d6000803e3d6000fd5b505050506040513d601f19601f82011682018060405250810190611e989190614fc9565b905080611eb75760405162461bcd60e51b8152600401610c3b90615004565b336000908152603f602052604081208054879290611ed6908490615081565b9091555050336000908152603e602052604081208054869290611efa908490615081565b90915550506040517fca3c5481ad29efb12634cb5dcdc04b3343a82ee4ed2b162576d7aca15df71981906112429033908a9089908990615094565b600033611f4385828561490e565b611f4e858585614961565b506001949350505050565b60495460408051633fabe5a360e21b815290516000926001600160a01b03169163feaf968c9160048083019260a09291908290030181865afa925050508015611fbf575060408051601f3d908101601f19168201909252611fbc9181019061510e565b60015b6113d15760405162461bcd60e51b815260206004820152603b602482015260008051602061563083398151915260448201527f20555344542070726963652066726f6d20746865206f7261636c6500000000006064820152608401610c3b565b336000908152603d602052604081205460ff1615156001146120535760405162461bcd60e51b8152600401610c3b90614efc565b61205b610bed565b600080306001600160a01b0316638c945e6334306001600160a01b0316630aeee2616040518163ffffffff1660e01b8152600401602060405180830381865afa1580156120ac573d6000803e3d6000fd5b505050506040513d601f19601f820116820180604052508101906120d09190614f51565b6040516001600160e01b031960e085901b168152600481019290925260248201526044016040805180830381865afa158015612110573d6000803e3d6000fd5b505050506040513d601f19601f820116820180604052508101906121349190614f6a565b604051638116de2b60e01b815291935091503090638116de2b9061215e9085903390600401614f8e565b60006040518083038186803b15801561217657600080fd5b505afa15801561218a573d6000803e3d6000fd5b5050603c54604051600093506001600160a01b0390911691503480156108fc029184818181858888f193505050509050806122265760405162461bcd60e51b815260206004820152604260248201526000805160206155f083398151915260448201527f65204d4154494320696e766573746d656e7420746f2074686520747265617375606482015261727960f01b608482015260a401610c3b565b60405163a9059cbb60e01b8152600090309063a9059cbb9061224e9033908790600401614feb565b6020604051808303816000875af115801561226d573d6000803e3d6000fd5b505050506040513d601f19601f820116820180604052508101906122919190614fc9565b9050806122b05760405162461bcd60e51b8152600401610c3b90615004565b336000908152603f6020526040812080548692906122cf908490615081565b9091555050336000908152603e6020526040812080548592906122f3908490615081565b90915550506040517fe036cb252631bb3e3fbcb1aa359dd09f94f0dac1fe6de828e8bae3f5028331c59061232e903390349088908890615094565b60405180910390a193505050506113db6001600655565b60515460408051633fabe5a360e21b815290516000926001600160a01b03169163feaf968c9160048083019260a09291908290030181865afa9250505080156123ab575060408051601f3d908101601f191682019092526123a89181019061510e565b60015b6113d15760405162461bcd60e51b815260206004820152603b602482015260008051602061563083398151915260448201527f20574554482070726963652066726f6d20746865206f7261636c6500000000006064820152608401610c3b565b6124136148a2565b61241b6149c0565b565b612425613679565b6001600160a01b0316336001600160a01b0316148061244e5750603b546001600160a01b031633145b61246a5760405162461bcd60e51b8152600401610c3b90614e84565b6001600160a01b0381166124f45760405162461bcd60e51b815260206004820152604560248201527f496e766573746f72206164647265737320746f2061646420746f20746865207760448201527f68697465206c6973742063616e206e6f7420626520746865207a65726f206164606482015264647265737360d81b608482015260a401610c3b565b6001600160a01b0381166000908152603d602052604090205460ff16156125835760405162461bcd60e51b815260206004820152603e60248201527f5468617420696e766573746f7220616464726573732068617320616c7265616460448201527f79206265656e20616464656420746f20746865207768697465206c69737400006064820152608401610c3b565b6001600160a01b0381166000908152603d602052604090819020805460ff19166001179055517f8419b79dc227f7841e7bf32cea35c3f90fe5b3da68cde93adef3c32745c587de90610e039033908490614ee2565b6125e06148a2565b6001600160a01b0381166126065760405162461bcd60e51b8152600401610c3b9061543f565b604f546001600160a01b03908116908216036126785760405162461bcd60e51b815260206004820152603a60248201527f5745544820746f6b656e20616464726573732068617320616c7265616479206260448201526000805160206156108339815191526064820152608401610c3b565b604f80546001600160a01b0383166001600160a01b031991821681179092556052805490911690911790556040517ff5fd160f565ac0e80215e9eced5afbfcd47389e99858fac6a3d93f2ec38ff6d690610e03908390614d92565b6126db6148a2565b6001600160a01b0381166127015760405162461bcd60e51b8152600401610c3b9061543f565b6047546001600160a01b03908116908216036127735760405162461bcd60e51b815260206004820152603a60248201527f5553445420746f6b656e20616464726573732068617320616c7265616479206260448201526000805160206156108339815191526064820152608401610c3b565b604780546001600160a01b0383166001600160a01b03199182168117909255604a805490911690911790556040517f1c2d8a05be2c8eca524d44cc224513d7e19ca97ac309c3e23bee450f8578ca1990610e03908390614d92565b336000908152603d602052604081205460ff1615156001146128025760405162461bcd60e51b8152600401610c3b90614efc565b61280a610bed565b600080306001600160a01b0316638c945e6385306001600160a01b0316632eb930866040518163ffffffff1660e01b8152600401602060405180830381865afa15801561285b573d6000803e3d6000fd5b505050506040513d601f19601f8201168201806040525081019061287f9190614f51565b6040516001600160e01b031960e085901b168152600481019290925260248201526044016040805180830381865afa1580156128bf573d6000803e3d6000fd5b505050506040513d601f19601f820116820180604052508101906128e39190614f6a565b604051638116de2b60e01b815291935091503090638116de2b9061290d9085903390600401614f8e565b60006040518083038186803b15801561292557600080fd5b505afa158015612939573d6000803e3d6000fd5b5050604a546040516323b872dd60e01b8152600093506001600160a01b0390911691506323b872dd9061297490339030908a90600401614fa5565b6020604051808303816000875af1158015612993573d6000803e3d6000fd5b505050506040513d601f19601f820116820180604052508101906129b79190614fc9565b905080612a105760405162461bcd60e51b815260206004820152603360248201526000805160206155d08339815191526044820152721d1a19481554d115081a5b9d995cdd1b595b9d606a1b6064820152608401610c3b565b604a54603c5460405163a9059cbb60e01b81526000926001600160a01b039081169263a9059cbb92612a4a92909116908a90600401614feb565b6020604051808303816000875af1158015612a69573d6000803e3d6000fd5b505050506040513d601f19601f82011682018060405250810190612a8d9190614fc9565b905080612afa5760405162461bcd60e51b815260206004820152604160248201526000805160206155f083398151915260448201527f65205553445420696e766573746d656e7420746f2074686520747265617375726064820152607960f81b608482015260a401610c3b565b60405163a9059cbb60e01b8152600090309063a9059cbb90612b229033908890600401614feb565b6020604051808303816000875af1158015612b41573d6000803e3d6000fd5b505050506040513d601f19601f82011682018060405250810190612b659190614fc9565b905080612b845760405162461bcd60e51b8152600401610c3b90615004565b336000908152603f602052604081208054879290612ba3908490615081565b9091555050336000908152603e602052604081208054869290612bc7908490615081565b90915550506040517f888b847e343a90ca676aa26fa3e9a4fe23de1e69f1e6b4f264cb64e1758416b0906112429033908a9089908990615094565b612c0a6148a2565b60008111612c7a5760405162461bcd60e51b815260206004820152603760248201527f4e6577206d6178696d756d20616d6f756e7420746f20696e766573742c206d7560448201527673742062652067726561746572207468616e207a65726f60481b6064820152608401610c3b565b603a548103612cff5760405162461bcd60e51b815260206004820152604560248201527f4e6577206d6178696d756d20616d6f756e7420746f20696e766573742c20686160448201527f7320616c7265616479206265656e206d6f64696669656420746f20746861742060648201526476616c756560d81b608482015260a401610c3b565b603954811015612d915760405162461bcd60e51b815260206004820152605160248201527f4e6577206d6178696d756d20616d6f756e7420746f20696e766573742c206d7560448201527f73742062652067726561746572207468616e20746865206d696e696d756d20696064820152701b9d995cdd1b595b9d08185b1b1bddd959607a1b608482015260a401610c3b565b603a8190556040518181527f29d434ec19958e7ce86ca2870f5927ab4f948d916dcffc568c1343c1e1f7656690602001610e03565b612dce6148a2565b6001600160a01b038116612e415760405162461bcd60e51b815260206004820152603460248201527f546865207768697465206c697374657220616464726573732063616e206e6f7460448201527320626520746865207a65726f206164647265737360601b6064820152608401610c3b565b603b546001600160a01b0390811690821603612ec55760405162461bcd60e51b815260206004820152603c60248201527f5768697465206c697374657220616464726573732068617320616c726561647960448201527f206265656e206d6f64696669656420746f20746861742076616c7565000000006064820152608401610c3b565b603b80546001600160a01b0319166001600160a01b0383161790556040517f32359536720adedfb2b6c6dd7685519f09fdf93ce7824b68d5b2f56354fdebec90610e03908390614d92565b612f186148a2565b61241b6000614a0c565b612f2a613679565b6001600160a01b0316336001600160a01b03161480612f535750603b546001600160a01b031633145b612f6f5760405162461bcd60e51b8152600401610c3b90614e84565b6001600160a01b03811661300b5760405162461bcd60e51b815260206004820152605760248201527f496e766573746f72206164647265737320746f2072656d6f76652066726f6d2060448201527f746865207175616c696669656420696e766573746f72206c6973742063616e206064820152766e6f7420626520746865207a65726f206164647265737360481b608482015260a401610c3b565b6001600160a01b03811660009081526040602081905290205460ff1615156001146130ad5760405162461bcd60e51b815260206004820152604660248201527f5468617420696e766573746f722061646472657373206973206e6f742072656760448201527f69737465726564206f6e20746865207175616c696669656420696e766573746f6064820152651c881b1a5cdd60d21b608482015260a401610c3b565b6001600160a01b03811660009081526040602081905290819020805460ff19169055517f2ac92c349a800ca8b882e6d59e4f5c08ca2db952c08627c6cd4ab754a93b7ba390610e039033908490614ee2565b6001600160a01b0381166000908152603f60205260408120546131229084615081565b9050603a548111156131cc576001600160a01b03821660009081526040602081905290205460ff1615156001146131cc5760405162461bcd60e51b815260206004820152604260248201527f546f20627579207468617420616d6f756e74206f66204859415820697473207260448201527f6571756972656420746f2062652061207175616c696669656420696e7665737460648201526137b960f11b608482015260a401610c3b565b505050565b6131d96148a2565b6001600160a01b0381166131ff5760405162461bcd60e51b8152600401610c3b9061515e565b6048546001600160a01b03908116908216036132715760405162461bcd60e51b815260206004820152603f60248201527f55534454207072696365206665656420616464726573732068617320616c726560448201526000805160206156708339815191526064820152608401610c3b565b6000819050806001600160a01b0316637284e4166040518163ffffffff1660e01b8152600401600060405180830381865afa9250505080156132d557506040513d6000823e601f3d908101601f191682016040526132d291908101906151cb565b60015b6132f15760405162461bcd60e51b8152600401610c3b9061548c565b604051691554d115080bc81554d160b21b6020820152600090602a0160405160208183030381529060405280519060200120905060008260405160200161333891906152cd565b60405160208183030381529060405280519060200120905080821461336f5760405162461bcd60e51b8152600401610c3b9061548c565b505050604880546001600160a01b0384166001600160a01b031991821681179092556049805490911690911790556040517f1e5bfe0b7fe6fcdc586b9e3a4fbdc0bdb1346d36173963ba38c897137ba16031906115da908490614d92565b6133d56148a2565b6001600160a01b0381166134445760405162461bcd60e51b815260206004820152603060248201527f54686520747265617375727920616464726573732063616e206e6f742062652060448201526f746865207a65726f206164647265737360801b6064820152608401610c3b565b603c546001600160a01b03908116908216036134c35760405162461bcd60e51b815260206004820152603860248201527f547265617375727920616464726573732068617320616c7265616479206265656044820152776e206d6f64696669656420746f20746861742076616c756560401b6064820152608401610c3b565b603c80546001600160a01b0319166001600160a01b0383161790556040517f2e1e696cfb265fa16e1170d24ef04cb2262772bde00ecf34d80bae6722487b7f90610e03908390614d92565b6135166148a2565b61241b614a66565b6000806305f5e10061353084866153dc565b61353a91906154e1565b60385490925061354e836305f5e1006153dc565b61355891906154e1565b90506039548210156135dc5760405162461bcd60e51b815260206004820152604160248201527f54686520616d6f756e7420746f20696e76657374206d7573742062652067726560448201527f61746572207468616e20746865206d696e696d756d2065737461626c697368656064820152601960fa1b608482015260a401610c3b565b306000908152602081905260409020548111156136725760405162461bcd60e51b815260206004820152604860248201527f54686520696e766573746d656e74206d6164652072657475726e7320616e206160448201527f6d6f756e74206f6620485941582067726561746572207468616e2074686520616064820152677661696c61626c6560c01b608482015260a401610c3b565b9250929050565b60055461010090046001600160a01b031690565b613695613679565b6001600160a01b0316336001600160a01b031614806136be5750603b546001600160a01b031633145b6136da5760405162461bcd60e51b8152600401610c3b90614e84565b6001600160a01b0381166137715760405162461bcd60e51b815260206004820152605260248201527f496e766573746f72206164647265737320746f2061646420746f20746865207160448201527f75616c696669656420696e766573746f72206c6973742063616e206e6f7420626064820152716520746865207a65726f206164647265737360701b608482015260a401610c3b565b6001600160a01b0381166000908152603d602052604090205460ff1615156001146138045760405162461bcd60e51b815260206004820152603f60248201527f496e766573746f722061646472657373206d757374206265206669727374206160448201527f6464656420746f2074686520696e766573746f72207768697465206c697374006064820152608401610c3b565b6001600160a01b03811660009081526040602081905290205460ff1615156001036138ab5760405162461bcd60e51b815260206004820152604b60248201527f5468617420696e766573746f7220616464726573732068617320616c7265616460448201527f79206265656e20616464656420746f20746865207175616c696669656420696e60648201526a1d995cdd1bdc881b1a5cdd60aa1b608482015260a401610c3b565b6001600160a01b03811660009081526040602081905290819020805460ff19166001179055517f037cd19042487ae926a661f12fdfb1b8737056255a7c1bcf9708313301a7aded90610e039033908490614ee2565b60606004805461126e906150ba565b6000336112ff818585614961565b6139256148a2565b600081116139955760405162461bcd60e51b815260206004820152603760248201527f4e6577206d696e696d756e20616d6f756e7420746f20696e766573742c206d7560448201527673742062652067726561746572207468616e207a65726f60481b6064820152608401610c3b565b6039548103613a1e5760405162461bcd60e51b815260206004820152604960248201527f4d696e696d756d20696e766573746d656e7420616c6c6f77656420696e20555360448201527f442068617320616c7265616479206265656e206d6f64696669656420746f20746064820152686861742076616c756560b81b608482015260a401610c3b565b603a54811115613aad5760405162461bcd60e51b815260206004820152604e60248201527f4e6577206d696e696d756e20616d6f756e7420746f20696e766573742c206d7560448201527f7374206265206c657373207468616e20746865206d6178696d756d20696e766560648201526d1cdd1b595b9d08185b1b1bddd95960921b608482015260a401610c3b565b60398190556040518181527fee60eb8e40a2ec796bfe3ca896b9221af9764fc0987bf0508ca755266d9c85f890602001610e03565b613aea6148a2565b6038548103613b565760405162461bcd60e51b815260206004820152603260248201527f485941582070726963652068617320616c7265616479206265656e206d6f64696044820152716669656420746f20746861742076616c756560701b6064820152608401610c3b565b6207a120811015613be65760405162461bcd60e51b815260206004820152604e60248201527f5072696365206f66204859415820746f6b656e206d757374206265206174206c60448201527f656173742055534420302e3030352c207468617420697320353030303030207760648201526d697468203820646563696d616c7360901b608482015260a401610c3b565b64174876e800811115613c7f5760405162461bcd60e51b815260206004820152605560248201527f5072696365206f66204859415820746f6b656e206d757374206265206174206d60448201527f6178696d756d2055534420313030302c2074686174206973203130303030303060648201527430303030302077697468203820646563696d616c7360581b608482015260a401610c3b565b60388190556040518181527f4f6f7bbbb2b0dde2246ee6650672d1b55a5be5b52f8dd2e8d595f4bd47e1c91390602001610e03565b613cbc6148a2565b6001600160a01b038116613ce25760405162461bcd60e51b8152600401610c3b9061543f565b604b546001600160a01b0390811690821603613d545760405162461bcd60e51b815260206004820152603a60248201527f5742544320746f6b656e20616464726573732068617320616c7265616479206260448201526000805160206156108339815191526064820152608401610c3b565b604b80546001600160a01b0383166001600160a01b03199182168117909255604e805490911690911790556040517f95082f719648371f180ca4f9bad55a2ae7c2d029bbf93e360584ca6ea06327ea90610e03908390614d92565b60455460408051633fabe5a360e21b815290516000926001600160a01b03169163feaf968c9160048083019260a09291908290030181865afa925050508015613e15575060408051601f3d908101601f19168201909252613e129181019061510e565b60015b6113d15760405162461bcd60e51b815260206004820152603b602482015260008051602061563083398151915260448201527f20555344432070726963652066726f6d20746865206f7261636c6500000000006064820152608401610c3b565b613e7d6148a2565b6001600160a01b038116613ea35760405162461bcd60e51b8152600401610c3b9061515e565b6041546001600160a01b0390811690821603613f29576040805162461bcd60e51b81526020600482015260248101919091527f4d41544943207072696365206665656420616464726573732068617320616c7260448201527f65616479206265656e206d6f64696669656420746f20746861742076616c75656064820152608401610c3b565b6000819050806001600160a01b0316637284e4166040518163ffffffff1660e01b8152600401600060405180830381865afa925050508015613f8d57506040513d6000823e601f3d908101601f19168201604052613f8a91908101906151cb565b60015b613fa95760405162461bcd60e51b8152600401610c3b90615503565b6040516a1350551250c80bc81554d160aa1b6020820152600090602b01604051602081830303815290604052805190602001209050600082604051602001613ff191906152cd565b6040516020818303038152906040528051906020012090508082146140285760405162461bcd60e51b8152600401610c3b90615503565b505050604180546001600160a01b0384166001600160a01b031991821681179092556042805490911690911790556040517fee9bc8d900b5d69f934ec4a3986b3bfda61add54821456c3f7e943e87cf48f52906115da908490614d92565b6001600160a01b03918216600090815260016020908152604080832093909416825291909152205490565b6140b96148a2565b6001600160a01b0381166140df5760405162461bcd60e51b8152600401610c3b9061515e565b604c546001600160a01b03908116908216036141515760405162461bcd60e51b815260206004820152603f60248201527f57425443207072696365206665656420616464726573732068617320616c726560448201526000805160206156708339815191526064820152608401610c3b565b6000819050806001600160a01b0316637284e4166040518163ffffffff1660e01b8152600401600060405180830381865afa9250505080156141b557506040513d6000823e601f3d908101601f191682016040526141b291908101906151cb565b60015b6141d15760405162461bcd60e51b8152600401610c3b90615559565b6040516915d09510c80bc81554d160b21b6020820152600090602a0160405160208183030381529060405280519060200120905060008260405160200161421891906152cd565b60405160208183030381529060405280519060200120905080821461424f5760405162461bcd60e51b8152600401610c3b90615559565b505050604c80546001600160a01b0384166001600160a01b03199182168117909255604d805490911690911790556040517f2171c3cfa3d86551d618c9da7164a608dd795715bf61402d9ccb45cf5433a076906115da908490614d92565b6142b56148a2565b6001600160a01b03811661431a5760405162461bcd60e51b815260206004820152602660248201527f4f776e61626c653a206e6577206f776e657220697320746865207a65726f206160448201526564647265737360d01b6064820152608401610c3b565b306001600160a01b038216036143925760405162461bcd60e51b815260206004820152603760248201527f4f776e61626c653a206e6577206f776e65722063616e206e6f74206265207468604482015276652073616d6520636f6e7472616374206164647265737360481b6064820152608401610c3b565b61180881614a0c565b336000908152603d602052604081205460ff1615156001146143cf5760405162461bcd60e51b8152600401610c3b90614efc565b6143d7610bed565b600080306001600160a01b0316638c945e6385306001600160a01b031663d39f45616040518163ffffffff1660e01b8152600401602060405180830381865afa158015614428573d6000803e3d6000fd5b505050506040513d601f19601f8201168201806040525081019061444c9190614f51565b6040516001600160e01b031960e085901b168152600481019290925260248201526044016040805180830381865afa15801561448c573d6000803e3d6000fd5b505050506040513d601f19601f820116820180604052508101906144b09190614f6a565b604051638116de2b60e01b815291935091503090638116de2b906144da9085903390600401614f8e565b60006040518083038186803b1580156144f257600080fd5b505afa158015614506573d6000803e3d6000fd5b50506046546040516323b872dd60e01b8152600093506001600160a01b0390911691506323b872dd9061454190339030908a90600401614fa5565b6020604051808303816000875af1158015614560573d6000803e3d6000fd5b505050506040513d601f19601f820116820180604052508101906145849190614fc9565b9050806145dd5760405162461bcd60e51b815260206004820152603360248201526000805160206155d08339815191526044820152721d1a19481554d110c81a5b9d995cdd1b595b9d606a1b6064820152608401610c3b565b604654603c5460405163a9059cbb60e01b81526000926001600160a01b039081169263a9059cbb9261461792909116908a90600401614feb565b6020604051808303816000875af1158015614636573d6000803e3d6000fd5b505050506040513d601f19601f8201168201806040525081019061465a9190614fc9565b9050806146c75760405162461bcd60e51b815260206004820152604160248201526000805160206155f083398151915260448201527f65205553444320696e766573746d656e7420746f2074686520747265617375726064820152607960f81b608482015260a401610c3b565b60405163a9059cbb60e01b8152600090309063a9059cbb906146ef9033908890600401614feb565b6020604051808303816000875af115801561470e573d6000803e3d6000fd5b505050506040513d601f19601f820116820180604052508101906147329190614fc9565b9050806147515760405162461bcd60e51b8152600401610c3b90615004565b336000908152603f602052604081208054879290614770908490615081565b9091555050336000908152603e602052604081208054869290614794908490615081565b90915550506040517f7b18f47853a88cbe18cd41864959faf071efd02b5a209f1358fbdfaf5d023297906112429033908a9089908990615094565b604d5460408051633fabe5a360e21b815290516000926001600160a01b03169163feaf968c9160048083019260a09291908290030181865afa925050508015614835575060408051601f3d908101601f191682019092526148329181019061510e565b60015b6113d15760405162461bcd60e51b815260206004820152603b602482015260008051602061563083398151915260448201527f20574254432070726963652066726f6d20746865206f7261636c6500000000006064820152608401610c3b565b6131cc8383836001614aa3565b336148ab613679565b6001600160a01b03161461241b573360405163118cdaa760e01b8152600401610c3b9190614d92565b6001600160a01b0382166148fe57600060405163ec442f0560e01b8152600401610c3b9190614d92565b61490a60008383614b78565b5050565b600061491a8484614086565b9050600019811461495b578181101561494c57828183604051637dc7a0d960e11b8152600401610c3b939291906155ae565b61495b84848484036000614aa3565b50505050565b6001600160a01b03831661498b576000604051634b637e8f60e11b8152600401610c3b9190614d92565b6001600160a01b0382166149b557600060405163ec442f0560e01b8152600401610c3b9190614d92565b6131cc838383614b78565b6149c8614b8b565b6005805460ff191690557f5db9ee0a495bf2e6ff9c91a7834c1ba4fdd244a5e8aa4e537bd38aeae4b073aa335b604051614a029190614d92565b60405180910390a1565b600580546001600160a01b03838116610100818102610100600160a81b031985161790945560405193909204169182907f8be0079c531659141344cd1fd0a4f28419497f9722a3daafe3b4186f6b6457e090600090a35050565b614a6e614bae565b6005805460ff191660011790557f62e78cea01bee320cd4e420270b5ea74000d11b0c9f74754ebdbfc544b05a2586149f53390565b6001600160a01b038416614acd57600060405163e602df0560e01b8152600401610c3b9190614d92565b6001600160a01b038316614af7576000604051634a1406b160e11b8152600401610c3b9190614d92565b6001600160a01b038085166000908152600160209081526040808320938716835292905220829055801561495b57826001600160a01b0316846001600160a01b03167f8c5be1e5ebec7d5bd14f71427d1e84f3dd0314c0f7b2291e5b200ac8c7c3b92584604051614b6a91815260200190565b60405180910390a350505050565b614b80614bae565b6131cc838383614bd2565b60055460ff1661241b57604051638dfc202b60e01b815260040160405180910390fd5b60055460ff161561241b5760405163d93c066560e01b815260040160405180910390fd5b6001600160a01b038316614bfd578060026000828254614bf29190615081565b90915550614c5c9050565b6001600160a01b03831660009081526020819052604090205481811015614c3d5783818360405163391434e360e21b8152600401610c3b939291906155ae565b6001600160a01b03841660009081526020819052604090209082900390555b6001600160a01b038216614c7857600280548290039055614c97565b6001600160a01b03821660009081526020819052604090208054820190555b816001600160a01b0316836001600160a01b03167fddf252ad1be2c89b69c2b068fc378daa952ba7f163c4a11628f55a4df523b3ef83604051614cdc91815260200190565b60405180910390a3505050565b80356001600160a01b038116811461125a57600080fd5b600060208284031215614d1257600080fd5b614d1b82614ce9565b9392505050565b600060208284031215614d3457600080fd5b5035919050565b60005b83811015614d56578181015183820152602001614d3e565b50506000910152565b6020815260008251806020840152614d7e816040850160208701614d3b565b601f01601f19169190910160400192915050565b6001600160a01b0391909116815260200190565b60008060408385031215614db957600080fd5b614dc283614ce9565b946020939093013593505050565b600080600060608486031215614de557600080fd5b614dee84614ce9565b9250614dfc60208501614ce9565b9150604084013590509250925092565b60008060408385031215614e1f57600080fd5b82359150614e2f60208401614ce9565b90509250929050565b60008060408385031215614e4b57600080fd5b50508035926020909101359150565b60008060408385031215614e6d57600080fd5b614e7683614ce9565b9150614e2f60208401614ce9565b602080825260409082018190527f46756e6374696f6e207265736572766564206f6e6c7920666f72207468652077908201527f68697465206c69737465722061646472657373206f7220746865206f776e6572606082015260800190565b6001600160a01b0392831681529116602082015260400190565b60208082526035908201527f496e766573746f72206164647265737320686173206e6f74206265656e206164604082015274191959081d1bc81d1a19481dda1a5d19481b1a5cdd605a1b606082015260800190565b600060208284031215614f6357600080fd5b5051919050565b60008060408385031215614f7d57600080fd5b505080516020909101519092909150565b9182526001600160a01b0316602082015260400190565b6001600160a01b039384168152919092166020820152604081019190915260600190565b600060208284031215614fdb57600080fd5b81518015158114614d1b57600080fd5b6001600160a01b03929092168252602082015260400190565b60208082526041908201527f54686572652077617320616e206572726f72206f6e2073656e64696e6720626160408201527f636b20746865204859415820546f6b656e20746f2074686520696e766573746f6060820152603960f91b608082015260a00190565b634e487b7160e01b600052601160045260246000fd5b808201808211156113055761130561506b565b6001600160a01b0394909416845260208401929092526040830152606082015260800190565b600181811c908216806150ce57607f821691505b6020821081036150ee57634e487b7160e01b600052602260045260246000fd5b50919050565b805169ffffffffffffffffffff8116811461125a57600080fd5b600080600080600060a0868803121561512657600080fd5b61512f866150f4565b9450602086015193506040860151925060608601519150615152608087016150f4565b90509295509295909350565b60208082526037908201527f5468652070726963652064617461206665656420616464726573732063616e206040820152766e6f7420626520746865207a65726f206164647265737360481b606082015260800190565b634e487b7160e01b600052604160045260246000fd5b6000602082840312156151dd57600080fd5b815167ffffffffffffffff808211156151f557600080fd5b818401915084601f83011261520957600080fd5b81518181111561521b5761521b6151b5565b604051601f8201601f19908116603f01168101908382118183101715615243576152436151b5565b8160405282815287602084870101111561525c57600080fd5b61526d836020830160208801614d3b565b979650505050505050565b602080825260419082015260008051602061565083398151915260408201527f2062656c6f6e6720746f206120555344432070726963652064617461206665656060820152601960fa1b608082015260a00190565b600082516152df818460208701614d3b565b9190910192915050565b600181815b8085111561532457816000190482111561530a5761530a61506b565b8085161561531757918102915b93841c93908002906152ee565b509250929050565b60008261533b57506001611305565b8161534857506000611305565b816001811461535e576002811461536857615384565b6001915050611305565b60ff8411156153795761537961506b565b50506001821b611305565b5060208310610133831016604e8410600b84101617156153a7575081810a611305565b6153b183836152e9565b80600019048211156153c5576153c561506b565b029392505050565b6000614d1b60ff84168361532c565b80820281158282048414176113055761130561506b565b60208082526040908201819052600080516020615650833981519152908201527f2062656c6f6e6720746f20612045544820707269636520646174612066656564606082015260800190565b6020808252602d908201527f54686520746f6b656e20616464726573732063616e206e6f742062652074686560408201526c207a65726f206164647265737360981b606082015260800190565b602080825260419082015260008051602061565083398151915260408201527f2062656c6f6e6720746f206120555344542070726963652064617461206665656060820152601960fa1b608082015260a00190565b6000826154fe57634e487b7160e01b600052601260045260246000fd5b500490565b602080825260429082015260008051602061565083398151915260408201527f2062656c6f6e6720746f2061204d415449432070726963652064617461206665606082015261195960f21b608082015260a00190565b602080825260419082015260008051602061565083398151915260408201527f2062656c6f6e6720746f206120574254432070726963652064617461206665656060820152601960fa1b608082015260a00190565b6001600160a01b03939093168352602083019190915260408201526060019056fe54686572652077617320616e206572726f72206f6e20726563656976696e672054686572652077617320616e206572726f72206f6e2073656e64696e6720746865656e206d6f64696669656420746f20746861742076616c756500000000000054686572652077617320616e206572726f72206f627461696e696e6720746865546865206e6577206164647265737320646f6573206e6f74207365656d20746f616479206265656e206d6f64696669656420746f20746861742076616c756500a2646970667358221220bb8b428b477a9077554a9d2a50538cab6395c1e1f4c9a1b16f91d3402fa5501464736f6c63430008140033",
  "linkReferences": {},
  "deployedLinkReferences": {}
}