{
  "_format": "hh-sol-artifact-1",
  "contractName": "HYAXLocal",
  "sourceName": "contracts/HYAXLocal.sol",
  "abi": [
    {
      "inputs": [],
      "stateMutability": "nonpayable",
      "type": "constructor"
    },
    {
      "inputs": [
        {
          "internalType": "address",
          "name": "spender",
          "type": "address"
        },
        {
          "internalType": "uint256",
          "name": "allowance",
          "type": "uint256"
        },
        {
          "internalType": "uint256",
          "name": "needed",
          "type": "uint256"
        }
      ],
      "name": "ERC20InsufficientAllowance",
      "type": "error"
    },
    {
      "inputs": [
        {
          "internalType": "address",
          "name": "sender",
          "type": "address"
        },
        {
          "internalType": "uint256",
          "name": "balance",
          "type": "uint256"
        },
        {
          "internalType": "uint256",
          "name": "needed",
          "type": "uint256"
        }
      ],
      "name": "ERC20InsufficientBalance",
      "type": "error"
    },
    {
      "inputs": [
        {
          "internalType": "address",
          "name": "approver",
          "type": "address"
        }
      ],
      "name": "ERC20InvalidApprover",
      "type": "error"
    },
    {
      "inputs": [
        {
          "internalType": "address",
          "name": "receiver",
          "type": "address"
        }
      ],
      "name": "ERC20InvalidReceiver",
      "type": "error"
    },
    {
      "inputs": [
        {
          "internalType": "address",
          "name": "sender",
          "type": "address"
        }
      ],
      "name": "ERC20InvalidSender",
      "type": "error"
    },
    {
      "inputs": [
        {
          "internalType": "address",
          "name": "spender",
          "type": "address"
        }
      ],
      "name": "ERC20InvalidSpender",
      "type": "error"
    },
    {
      "inputs": [],
      "name": "EnforcedPause",
      "type": "error"
    },
    {
      "inputs": [],
      "name": "ExpectedPause",
      "type": "error"
    },
    {
      "inputs": [
        {
          "internalType": "address",
          "name": "owner",
          "type": "address"
        }
      ],
      "name": "OwnableInvalidOwner",
      "type": "error"
    },
    {
      "inputs": [
        {
          "internalType": "address",
          "name": "account",
          "type": "address"
        }
      ],
      "name": "OwnableUnauthorizedAccount",
      "type": "error"
    },
    {
      "anonymous": false,
      "inputs": [
        {
          "indexed": true,
          "internalType": "address",
          "name": "owner",
          "type": "address"
        },
        {
          "indexed": true,
          "internalType": "address",
          "name": "spender",
          "type": "address"
        },
        {
          "indexed": false,
          "internalType": "uint256",
          "name": "value",
          "type": "uint256"
        }
      ],
      "name": "Approval",
      "type": "event"
    },
    {
      "anonymous": false,
      "inputs": [
        {
          "indexed": false,
          "internalType": "address",
          "name": "sender",
          "type": "address"
        },
        {
          "indexed": false,
          "internalType": "address",
          "name": "_investorAddress",
          "type": "address"
        },
        {
          "indexed": false,
          "internalType": "bool",
          "name": "_isBlacklisted",
          "type": "bool"
        }
      ],
      "name": "BlacklistStatusUpdated",
      "type": "event"
    },
    {
      "anonymous": false,
      "inputs": [
        {
          "indexed": false,
          "internalType": "uint8",
          "name": "version",
          "type": "uint8"
        }
      ],
      "name": "Initialized",
      "type": "event"
    },
    {
      "anonymous": false,
      "inputs": [
        {
          "indexed": false,
          "internalType": "enum HYAXLocal.TokenType",
          "name": "tokenType",
          "type": "uint8"
        },
        {
          "indexed": false,
          "internalType": "address",
          "name": "sender",
          "type": "address"
        },
        {
          "indexed": false,
          "internalType": "uint256",
          "name": "tokenAmount",
          "type": "uint256"
        },
        {
          "indexed": false,
          "internalType": "uint256",
          "name": "totalInvestmentInUsd",
          "type": "uint256"
        },
        {
          "indexed": false,
          "internalType": "uint256",
          "name": "hyaxAmount",
          "type": "uint256"
        }
      ],
      "name": "InvestFromCryptoToken",
      "type": "event"
    },
    {
      "anonymous": false,
      "inputs": [
        {
          "indexed": false,
          "internalType": "address",
          "name": "sender",
          "type": "address"
        },
        {
          "indexed": false,
          "internalType": "uint256",
          "name": "maticAmount",
          "type": "uint256"
        },
        {
          "indexed": false,
          "internalType": "uint256",
          "name": "totalInvestmentInUsd",
          "type": "uint256"
        },
        {
          "indexed": false,
          "internalType": "uint256",
          "name": "hyaxAmount",
          "type": "uint256"
        }
      ],
      "name": "InvestFromMatic",
      "type": "event"
    },
    {
      "anonymous": false,
      "inputs": [
        {
          "indexed": false,
          "internalType": "address",
          "name": "sender",
          "type": "address"
        },
        {
          "indexed": false,
          "internalType": "address",
          "name": "_investorAddress",
          "type": "address"
        }
      ],
      "name": "InvestorAddedToWhiteList",
      "type": "event"
    },
    {
      "anonymous": false,
      "inputs": [
        {
          "indexed": true,
          "internalType": "address",
          "name": "previousOwner",
          "type": "address"
        },
        {
          "indexed": true,
          "internalType": "address",
          "name": "newOwner",
          "type": "address"
        }
      ],
      "name": "OwnershipTransferred",
      "type": "event"
    },
    {
      "anonymous": false,
      "inputs": [
        {
          "indexed": false,
          "internalType": "address",
          "name": "account",
          "type": "address"
        }
      ],
      "name": "Paused",
      "type": "event"
    },
    {
      "anonymous": false,
      "inputs": [
        {
          "indexed": false,
          "internalType": "address",
          "name": "sender",
          "type": "address"
        },
        {
          "indexed": false,
          "internalType": "address",
          "name": "_QualifiedInvestorAddress",
          "type": "address"
        },
        {
          "indexed": false,
          "internalType": "bool",
          "name": "_isQualifiedInvestor",
          "type": "bool"
        }
      ],
      "name": "QualifiedInvestorStatusUpdated",
      "type": "event"
    },
    {
      "anonymous": false,
      "inputs": [
        {
          "indexed": false,
          "internalType": "address",
          "name": "sender",
          "type": "address"
        },
        {
          "indexed": false,
          "internalType": "uint256",
          "name": "amount",
          "type": "uint256"
        }
      ],
      "name": "TokenIssuance",
      "type": "event"
    },
    {
      "anonymous": false,
      "inputs": [
        {
          "indexed": true,
          "internalType": "address",
          "name": "from",
          "type": "address"
        },
        {
          "indexed": true,
          "internalType": "address",
          "name": "to",
          "type": "address"
        },
        {
          "indexed": false,
          "internalType": "uint256",
          "name": "value",
          "type": "uint256"
        }
      ],
      "name": "Transfer",
      "type": "event"
    },
    {
      "anonymous": false,
      "inputs": [
        {
          "indexed": false,
          "internalType": "address",
          "name": "account",
          "type": "address"
        }
      ],
      "name": "Unpaused",
      "type": "event"
    },
    {
      "anonymous": false,
      "inputs": [
        {
          "indexed": false,
          "internalType": "uint256",
          "name": "_newHyaxPrice",
          "type": "uint256"
        }
      ],
      "name": "UpdatedHyaxPrice",
      "type": "event"
    },
    {
      "anonymous": false,
      "inputs": [
        {
          "indexed": false,
          "internalType": "address",
          "name": "_newMaticPriceFeedAddress",
          "type": "address"
        }
      ],
      "name": "UpdatedMaticPriceFeedAddress",
      "type": "event"
    },
    {
      "anonymous": false,
      "inputs": [
        {
          "indexed": false,
          "internalType": "uint256",
          "name": "_newMaximumInvestmentAllowedInUSD",
          "type": "uint256"
        }
      ],
      "name": "UpdatedMaximumInvestmentAllowedInUSD",
      "type": "event"
    },
    {
      "anonymous": false,
      "inputs": [
        {
          "indexed": false,
          "internalType": "uint256",
          "name": "_newMinimumInvestmentAllowedInUSD",
          "type": "uint256"
        }
      ],
      "name": "UpdatedMinimumInvestmentAllowedInUSD",
      "type": "event"
    },
    {
      "anonymous": false,
      "inputs": [
        {
          "indexed": false,
          "internalType": "address",
          "name": "_newTreasuryAddress",
          "type": "address"
        }
      ],
      "name": "UpdatedTreasuryAddress",
      "type": "event"
    },
    {
      "anonymous": false,
      "inputs": [
        {
          "indexed": false,
          "internalType": "address",
          "name": "_newUsdcPriceFeedAddress",
          "type": "address"
        }
      ],
      "name": "UpdatedUsdcPriceFeedAddress",
      "type": "event"
    },
    {
      "anonymous": false,
      "inputs": [
        {
          "indexed": false,
          "internalType": "address",
          "name": "_newUsdcTokenAddress",
          "type": "address"
        }
      ],
      "name": "UpdatedUsdcTokenAddress",
      "type": "event"
    },
    {
      "anonymous": false,
      "inputs": [
        {
          "indexed": false,
          "internalType": "address",
          "name": "_newUsdtPriceFeedAddress",
          "type": "address"
        }
      ],
      "name": "UpdatedUsdtPriceFeedAddress",
      "type": "event"
    },
    {
      "anonymous": false,
      "inputs": [
        {
          "indexed": false,
          "internalType": "address",
          "name": "_newUsdtTokenAddress",
          "type": "address"
        }
      ],
      "name": "UpdatedUsdtTokenAddress",
      "type": "event"
    },
    {
      "anonymous": false,
      "inputs": [
        {
          "indexed": false,
          "internalType": "address",
          "name": "_newWbtcPriceFeedAddress",
          "type": "address"
        }
      ],
      "name": "UpdatedWbtcPriceFeedAddress",
      "type": "event"
    },
    {
      "anonymous": false,
      "inputs": [
        {
          "indexed": false,
          "internalType": "address",
          "name": "_newWbtcTokenAddress",
          "type": "address"
        }
      ],
      "name": "UpdatedWbtcTokenAddress",
      "type": "event"
    },
    {
      "anonymous": false,
      "inputs": [
        {
          "indexed": false,
          "internalType": "address",
          "name": "_newWethPriceFeedAddress",
          "type": "address"
        }
      ],
      "name": "UpdatedWethPriceFeedAddress",
      "type": "event"
    },
    {
      "anonymous": false,
      "inputs": [
        {
          "indexed": false,
          "internalType": "address",
          "name": "_newWethTokenAddress",
          "type": "address"
        }
      ],
      "name": "UpdatedWethTokenAddress",
      "type": "event"
    },
    {
      "anonymous": false,
      "inputs": [
        {
          "indexed": false,
          "internalType": "address",
          "name": "_newWhiteListerAddress",
          "type": "address"
        }
      ],
      "name": "UpdatedWhiteListerAddress",
      "type": "event"
    },
    {
      "anonymous": false,
      "inputs": [
        {
          "indexed": false,
          "internalType": "address",
          "name": "sender",
          "type": "address"
        },
        {
          "indexed": false,
          "internalType": "address",
          "name": "_investorAddress",
          "type": "address"
        },
        {
          "indexed": false,
          "internalType": "bool",
          "name": "_isWhiteListed",
          "type": "bool"
        }
      ],
      "name": "WhitelistStatusUpdated",
      "type": "event"
    },
    {
      "inputs": [
        {
          "internalType": "address",
          "name": "_investorAddress",
          "type": "address"
        }
      ],
      "name": "addToWhiteList",
      "outputs": [],
      "stateMutability": "nonpayable",
      "type": "function"
    },
    {
      "inputs": [
        {
          "internalType": "address",
          "name": "owner",
          "type": "address"
        },
        {
          "internalType": "address",
          "name": "spender",
          "type": "address"
        }
      ],
      "name": "allowance",
      "outputs": [
        {
          "internalType": "uint256",
          "name": "",
          "type": "uint256"
        }
      ],
      "stateMutability": "view",
      "type": "function"
    },
    {
      "inputs": [
        {
          "internalType": "address",
          "name": "spender",
          "type": "address"
        },
        {
          "internalType": "uint256",
          "name": "value",
          "type": "uint256"
        }
      ],
      "name": "approve",
      "outputs": [
        {
          "internalType": "bool",
          "name": "",
          "type": "bool"
        }
      ],
      "stateMutability": "nonpayable",
      "type": "function"
    },
    {
      "inputs": [
        {
          "internalType": "address",
          "name": "account",
          "type": "address"
        }
      ],
      "name": "balanceOf",
      "outputs": [
        {
          "internalType": "uint256",
          "name": "",
          "type": "uint256"
        }
      ],
      "stateMutability": "view",
      "type": "function"
    },
    {
      "inputs": [
        {
          "internalType": "uint256",
          "name": "_amount",
          "type": "uint256"
        },
        {
          "internalType": "uint256",
          "name": "_currentCryptocurrencyPrice",
          "type": "uint256"
        }
      ],
      "name": "calculateTotalHyaxTokenToReturn",
      "outputs": [
        {
          "internalType": "uint256",
          "name": "totalInvestmentInUsd",
          "type": "uint256"
        },
        {
          "internalType": "uint256",
          "name": "totalHyaxTokenToReturn",
          "type": "uint256"
        }
      ],
      "stateMutability": "view",
      "type": "function"
    },
    {
      "inputs": [],
      "name": "decimals",
      "outputs": [
        {
          "internalType": "uint8",
          "name": "",
          "type": "uint8"
        }
      ],
      "stateMutability": "view",
      "type": "function"
    },
    {
      "inputs": [
        {
          "internalType": "enum HYAXLocal.TokenType",
          "name": "tokenType",
          "type": "uint8"
        }
      ],
      "name": "getCurrentTokenPrice",
      "outputs": [
        {
          "internalType": "uint256",
          "name": "",
          "type": "uint256"
        }
      ],
      "stateMutability": "view",
      "type": "function"
    },
    {
      "inputs": [],
      "name": "hyaxPrice",
      "outputs": [
        {
          "internalType": "uint256",
          "name": "",
          "type": "uint256"
        }
      ],
      "stateMutability": "view",
      "type": "function"
    },
    {
      "inputs": [
        {
          "internalType": "enum HYAXLocal.TokenType",
          "name": "tokenType",
          "type": "uint8"
        },
        {
          "internalType": "uint256",
          "name": "_amount",
          "type": "uint256"
        }
      ],
      "name": "investFromCryptoToken",
      "outputs": [
        {
          "internalType": "bool",
          "name": "",
          "type": "bool"
        }
      ],
      "stateMutability": "nonpayable",
      "type": "function"
    },
    {
      "inputs": [],
      "name": "investFromMatic",
      "outputs": [
        {
          "internalType": "bool",
          "name": "",
          "type": "bool"
        }
      ],
      "stateMutability": "payable",
      "type": "function"
    },
    {
      "inputs": [
        {
          "internalType": "address",
          "name": "",
          "type": "address"
        }
      ],
      "name": "investorData",
      "outputs": [
        {
          "internalType": "bool",
          "name": "isWhiteListed",
          "type": "bool"
        },
        {
          "internalType": "bool",
          "name": "isBlacklisted",
          "type": "bool"
        },
        {
          "internalType": "bool",
          "name": "isQualifiedInvestor",
          "type": "bool"
        },
        {
          "internalType": "uint256",
          "name": "totalHyaxBoughtByInvestor",
          "type": "uint256"
        },
        {
          "internalType": "uint256",
          "name": "totalUsdDepositedByInvestor",
          "type": "uint256"
        }
      ],
      "stateMutability": "view",
      "type": "function"
    },
    {
      "inputs": [],
      "name": "maticPriceFeedAddress",
      "outputs": [
        {
          "internalType": "address",
          "name": "",
          "type": "address"
        }
      ],
      "stateMutability": "view",
      "type": "function"
    },
    {
      "inputs": [],
      "name": "maximumInvestmentAllowedInUSD",
      "outputs": [
        {
          "internalType": "uint256",
          "name": "",
          "type": "uint256"
        }
      ],
      "stateMutability": "view",
      "type": "function"
    },
    {
      "inputs": [],
      "name": "minimumInvestmentAllowedInUSD",
      "outputs": [
        {
          "internalType": "uint256",
          "name": "",
          "type": "uint256"
        }
      ],
      "stateMutability": "view",
      "type": "function"
    },
    {
      "inputs": [],
      "name": "name",
      "outputs": [
        {
          "internalType": "string",
          "name": "",
          "type": "string"
        }
      ],
      "stateMutability": "view",
      "type": "function"
    },
    {
      "inputs": [],
      "name": "owner",
      "outputs": [
        {
          "internalType": "address",
          "name": "",
          "type": "address"
        }
      ],
      "stateMutability": "view",
      "type": "function"
    },
    {
      "inputs": [],
      "name": "pause",
      "outputs": [],
      "stateMutability": "nonpayable",
      "type": "function"
    },
    {
      "inputs": [],
      "name": "paused",
      "outputs": [
        {
          "internalType": "bool",
          "name": "",
          "type": "bool"
        }
      ],
      "stateMutability": "view",
      "type": "function"
    },
    {
      "inputs": [],
      "name": "renounceOwnership",
      "outputs": [],
      "stateMutability": "nonpayable",
      "type": "function"
    },
    {
      "inputs": [],
      "name": "symbol",
      "outputs": [
        {
          "internalType": "string",
          "name": "",
          "type": "string"
        }
      ],
      "stateMutability": "view",
      "type": "function"
    },
    {
      "inputs": [
        {
          "internalType": "uint256",
          "name": "_amount",
          "type": "uint256"
        }
      ],
      "name": "tokenIssuance",
      "outputs": [],
      "stateMutability": "nonpayable",
      "type": "function"
    },
    {
      "inputs": [],
      "name": "totalSupply",
      "outputs": [
        {
          "internalType": "uint256",
          "name": "",
          "type": "uint256"
        }
      ],
      "stateMutability": "view",
      "type": "function"
    },
    {
      "inputs": [
        {
          "internalType": "address",
          "name": "to",
          "type": "address"
        },
        {
          "internalType": "uint256",
          "name": "value",
          "type": "uint256"
        }
      ],
      "name": "transfer",
      "outputs": [
        {
          "internalType": "bool",
          "name": "",
          "type": "bool"
        }
      ],
      "stateMutability": "nonpayable",
      "type": "function"
    },
    {
      "inputs": [
        {
          "internalType": "address",
          "name": "from",
          "type": "address"
        },
        {
          "internalType": "address",
          "name": "to",
          "type": "address"
        },
        {
          "internalType": "uint256",
          "name": "value",
          "type": "uint256"
        }
      ],
      "name": "transferFrom",
      "outputs": [
        {
          "internalType": "bool",
          "name": "",
          "type": "bool"
        }
      ],
      "stateMutability": "nonpayable",
      "type": "function"
    },
    {
      "inputs": [
        {
          "internalType": "address",
          "name": "newOwner",
          "type": "address"
        }
      ],
      "name": "transferOwnership",
      "outputs": [],
      "stateMutability": "nonpayable",
      "type": "function"
    },
    {
      "inputs": [],
      "name": "treasuryAddress",
      "outputs": [
        {
          "internalType": "address",
          "name": "",
          "type": "address"
        }
      ],
      "stateMutability": "view",
      "type": "function"
    },
    {
      "inputs": [],
      "name": "unpause",
      "outputs": [],
      "stateMutability": "nonpayable",
      "type": "function"
    },
    {
      "inputs": [
        {
          "internalType": "address",
          "name": "_investorAddress",
          "type": "address"
        },
        {
          "internalType": "bool",
          "name": "_newStatus",
          "type": "bool"
        }
      ],
      "name": "updateBlacklistStatus",
      "outputs": [],
      "stateMutability": "nonpayable",
      "type": "function"
    },
    {
      "inputs": [
        {
          "internalType": "uint256",
          "name": "_newHyaxPrice",
          "type": "uint256"
        }
      ],
      "name": "updateHyaxPrice",
      "outputs": [],
      "stateMutability": "nonpayable",
      "type": "function"
    },
    {
      "inputs": [
        {
          "internalType": "uint256",
          "name": "_newMaximumInvestmentAllowedInUSD",
          "type": "uint256"
        }
      ],
      "name": "updateMaximumInvestmentAllowedInUSD",
      "outputs": [],
      "stateMutability": "nonpayable",
      "type": "function"
    },
    {
      "inputs": [
        {
          "internalType": "uint256",
          "name": "_newMinimumInvestmentAllowedInUSD",
          "type": "uint256"
        }
      ],
      "name": "updateMinimumInvestmentAllowedInUSD",
      "outputs": [],
      "stateMutability": "nonpayable",
      "type": "function"
    },
    {
      "inputs": [
        {
          "internalType": "enum HYAXLocal.TokenType",
          "name": "tokenType",
          "type": "uint8"
        },
        {
          "internalType": "address",
          "name": "newPriceFeedAddress",
          "type": "address"
        }
      ],
      "name": "updatePriceFeedAddress",
      "outputs": [],
      "stateMutability": "nonpayable",
      "type": "function"
    },
    {
      "inputs": [
        {
          "internalType": "address",
          "name": "_qualifiedInvestorAddress",
          "type": "address"
        },
        {
          "internalType": "bool",
          "name": "_newStatus",
          "type": "bool"
        }
      ],
      "name": "updateQualifiedInvestorStatus",
      "outputs": [],
      "stateMutability": "nonpayable",
      "type": "function"
    },
    {
      "inputs": [
        {
          "internalType": "enum HYAXLocal.TokenType",
          "name": "tokenType",
          "type": "uint8"
        },
        {
          "internalType": "address",
          "name": "newTokenAddress",
          "type": "address"
        }
      ],
      "name": "updateTokenAddress",
      "outputs": [],
      "stateMutability": "nonpayable",
      "type": "function"
    },
    {
      "inputs": [
        {
          "internalType": "address",
          "name": "_newTreasuryAddress",
          "type": "address"
        }
      ],
      "name": "updateTreasuryAddress",
      "outputs": [],
      "stateMutability": "nonpayable",
      "type": "function"
    },
    {
      "inputs": [
        {
          "internalType": "address",
          "name": "_newWhiteListerAddress",
          "type": "address"
        }
      ],
      "name": "updateWhiteListerAddress",
      "outputs": [],
      "stateMutability": "nonpayable",
      "type": "function"
    },
    {
      "inputs": [
        {
          "internalType": "address",
          "name": "_investorAddress",
          "type": "address"
        },
        {
          "internalType": "bool",
          "name": "_newStatus",
          "type": "bool"
        }
      ],
      "name": "updateWhitelistStatus",
      "outputs": [],
      "stateMutability": "nonpayable",
      "type": "function"
    },
    {
      "inputs": [],
      "name": "usdcPriceFeedAddress",
      "outputs": [
        {
          "internalType": "address",
          "name": "",
          "type": "address"
        }
      ],
      "stateMutability": "view",
      "type": "function"
    },
    {
      "inputs": [],
      "name": "usdcToken",
      "outputs": [
        {
          "internalType": "contract ERC20TokenInterface",
          "name": "",
          "type": "address"
        }
      ],
      "stateMutability": "view",
      "type": "function"
    },
    {
      "inputs": [],
      "name": "usdcTokenAddress",
      "outputs": [
        {
          "internalType": "address",
          "name": "",
          "type": "address"
        }
      ],
      "stateMutability": "view",
      "type": "function"
    },
    {
      "inputs": [],
      "name": "usdtPriceFeedAddress",
      "outputs": [
        {
          "internalType": "address",
          "name": "",
          "type": "address"
        }
      ],
      "stateMutability": "view",
      "type": "function"
    },
    {
      "inputs": [],
      "name": "usdtToken",
      "outputs": [
        {
          "internalType": "contract ERC20TokenInterface",
          "name": "",
          "type": "address"
        }
      ],
      "stateMutability": "view",
      "type": "function"
    },
    {
      "inputs": [],
      "name": "usdtTokenAddress",
      "outputs": [
        {
          "internalType": "address",
          "name": "",
          "type": "address"
        }
      ],
      "stateMutability": "view",
      "type": "function"
    },
    {
      "inputs": [
        {
          "internalType": "uint256",
          "name": "_totalInvestmentInUsd",
          "type": "uint256"
        },
        {
          "internalType": "address",
          "name": "_investorAddress",
          "type": "address"
        }
      ],
      "name": "validateMaximumInvestedAmountAndInvestorLimit",
      "outputs": [],
      "stateMutability": "view",
      "type": "function"
    },
    {
      "inputs": [],
      "name": "wbtcPriceFeedAddress",
      "outputs": [
        {
          "internalType": "address",
          "name": "",
          "type": "address"
        }
      ],
      "stateMutability": "view",
      "type": "function"
    },
    {
      "inputs": [],
      "name": "wbtcToken",
      "outputs": [
        {
          "internalType": "contract ERC20TokenInterface",
          "name": "",
          "type": "address"
        }
      ],
      "stateMutability": "view",
      "type": "function"
    },
    {
      "inputs": [],
      "name": "wbtcTokenAddress",
      "outputs": [
        {
          "internalType": "address",
          "name": "",
          "type": "address"
        }
      ],
      "stateMutability": "view",
      "type": "function"
    },
    {
      "inputs": [],
      "name": "wethPriceFeedAddress",
      "outputs": [
        {
          "internalType": "address",
          "name": "",
          "type": "address"
        }
      ],
      "stateMutability": "view",
      "type": "function"
    },
    {
      "inputs": [],
      "name": "wethToken",
      "outputs": [
        {
          "internalType": "contract ERC20TokenInterface",
          "name": "",
          "type": "address"
        }
      ],
      "stateMutability": "view",
      "type": "function"
    },
    {
      "inputs": [],
      "name": "wethTokenAddress",
      "outputs": [
        {
          "internalType": "address",
          "name": "",
          "type": "address"
        }
      ],
      "stateMutability": "view",
      "type": "function"
    },
    {
      "inputs": [],
      "name": "whiteListerAddress",
      "outputs": [
        {
          "internalType": "address",
          "name": "",
          "type": "address"
        }
      ],
      "stateMutability": "view",
      "type": "function"
    },
    {
      "stateMutability": "payable",
      "type": "receive"
    }
  ],
  "bytecode": "0x60806040523480156200001157600080fd5b503360405180604001604052806009815260200168242ca0ac2a37b5b2b760b91b81525060405180604001604052806004815260200163090b282b60e31b8152508160039081620000639190620005b1565b506004620000728282620005b1565b50506005805460ff19169055506001600160a01b038116620000af57604051631e4fbdf760e01b8152600060048201526024015b60405180910390fd5b620000ba81620002ff565b50620000e433620000ce6012600a62000792565b620000de90631dcd6500620007aa565b62000359565b620927c0603855620000f96012600a62000792565b62000106906001620007aa565b603955620001176012600a62000792565b6200012590612710620007aa565b603a55603b80546001600160a01b03199081167301c2f012de19e6436744c3f81f56e9e70c93a8c317909155603c8054821673350441f8a82680a785ffa9d3efea60bb4ca417f8179055603e80548216721382149eba3441043c1c66972b4772963f5d43908117909155603f80548316909117905560408054821673f68054bfe5d45432ffca28ffa1f3d685d0456ddc908117909155604180548316731b8739bb4cdf0089d07097a9ae5bd274b29c6f16908117909155604280548416909117905560438054831690911790556044805482167370e02fb82b6bc04f64099689b0599e14b44d4fbb908117909155604580548316733ac23dcb4ecfcbd24579e1f34542524d0e4edea890811790915560468054841690911790556047805483169091179055604880548216733c8df3c48b3884da2ff25e17524282d60f9c3b9390811790915560498054831673e7656e23fe8077d438aefbec2fabdf2d8e070c4f908117909155604a805484169091179055604b805483169091179055604c8054821673524a89ed77d5827320e35e12bca96830c6b7960a908117909155604d8054831673f0d50568e3a7e8259e16663972b11910f89bd8e7908117909155604e805484169091179055604f8054909216179055620007da565b600580546001600160a01b03838116610100818102610100600160a81b031985161790945560405193909204169182907f8be0079c531659141344cd1fd0a4f28419497f9722a3daafe3b4186f6b6457e090600090a35050565b6001600160a01b038216620003855760405163ec442f0560e01b815260006004820152602401620000a6565b620003936000838362000397565b5050565b620003a1620003b3565b620003ae838383620003da565b505050565b60055460ff1615620003d85760405163d93c066560e01b815260040160405180910390fd5b565b6001600160a01b03831662000409578060026000828254620003fd9190620007c4565b909155506200047d9050565b6001600160a01b038316600090815260208190526040902054818110156200045e5760405163391434e360e21b81526001600160a01b03851660048201526024810182905260448101839052606401620000a6565b6001600160a01b03841660009081526020819052604090209082900390555b6001600160a01b0382166200049b57600280548290039055620004ba565b6001600160a01b03821660009081526020819052604090208054820190555b816001600160a01b0316836001600160a01b03167fddf252ad1be2c89b69c2b068fc378daa952ba7f163c4a11628f55a4df523b3ef836040516200050091815260200190565b60405180910390a3505050565b634e487b7160e01b600052604160045260246000fd5b600181811c908216806200053857607f821691505b6020821081036200055957634e487b7160e01b600052602260045260246000fd5b50919050565b601f821115620003ae57600081815260208120601f850160051c81016020861015620005885750805b601f850160051c820191505b81811015620005a95782815560010162000594565b505050505050565b81516001600160401b03811115620005cd57620005cd6200050d565b620005e581620005de845462000523565b846200055f565b602080601f8311600181146200061d5760008415620006045750858301515b600019600386901b1c1916600185901b178555620005a9565b600085815260208120601f198616915b828110156200064e578886015182559484019460019091019084016200062d565b50858210156200066d5787850151600019600388901b60f8161c191681555b5050505050600190811b01905550565b634e487b7160e01b600052601160045260246000fd5b600181815b80851115620006d4578160001904821115620006b857620006b86200067d565b80851615620006c657918102915b93841c939080029062000698565b509250929050565b600082620006ed575060016200078c565b81620006fc575060006200078c565b8160018114620007155760028114620007205762000740565b60019150506200078c565b60ff8411156200073457620007346200067d565b50506001821b6200078c565b5060208310610133831016604e8410600b841016171562000765575081810a6200078c565b62000771838362000693565b80600019048211156200078857620007886200067d565b0290505b92915050565b6000620007a360ff841683620006dc565b9392505050565b80820281158282048414176200078c576200078c6200067d565b808201808211156200078c576200078c6200067d565b61419180620007ea6000396000f3fe6080604052600436106102e85760003560e01c806365699d2811610190578063a9059cbb116100dc578063c07732a311610095578063de1f53461161006f578063de1f5346146108fe578063f2fde38b14610980578063f7a47f81146109a0578063fb2dc76e146109c057600080fd5b8063c07732a314610878578063c5f956af14610898578063dd62ed3e146108b857600080fd5b8063a9059cbb146107b8578063a98ad46c146107d8578063b2c568f3146107f8578063b40ed44914610818578063b836080614610838578063bb6f98fb1461085857600080fd5b80638116de2b116101495780638c945e63116101235780638c945e631461072b5780638da5cb5b1461076057806395d89b41146107835780639d741e5d1461079857600080fd5b80638116de2b146106d6578063841e4561146106f65780638456cb591461071657600080fd5b806365699d281461061557806370a0823114610635578063715018a61461066b578063731de5141461068057806377b53ece146106a05780638049bcb6146106c057600080fd5b8063367f44fb1161024f57806347ee0394116102085780635ae9384e116101e25780635ae9384e1461059d5780635c975abb146105bd5780635ec2562a146105d5578063653c3a47146105f557600080fd5b806347ee03941461053d5780634b57b0be1461055d5780634c526bdb1461057d57600080fd5b8063367f44fb146104aa578063377c779f146104ca5780633b14f359146104e05780633de6f379146104e85780633f4ba83a1461050857806340b5ea9c1461051d57600080fd5b806318160ddd116102a157806318160ddd146103f957806323b872dd1461041857806323c66f9a1461043857806327614df8146104585780632a241ad314610478578063313ce5671461048e57600080fd5b806306fdde031461030657806308cd468f14610331578063095ea7b3146103695780630f9dad711461039957806311eac855146103b9578063128ef022146103d957600080fd5b36610301576102f56109e0565b6102ff6001600655565b005b600080fd5b34801561031257600080fd5b5061031b610a3e565b60405161032891906139c3565b60405180910390f35b34801561033d57600080fd5b50604554610351906001600160a01b031681565b6040516001600160a01b039091168152602001610328565b34801561037557600080fd5b50610389610384366004613a12565b610ad0565b6040519015158152602001610328565b3480156103a557600080fd5b50604c54610351906001600160a01b031681565b3480156103c557600080fd5b50604354610351906001600160a01b031681565b3480156103e557600080fd5b506102ff6103f4366004613a3c565b610aea565b34801561040557600080fd5b506002545b604051908152602001610328565b34801561042457600080fd5b50610389610433366004613a55565b610d0e565b34801561044457600080fd5b506102ff610453366004613aa0565b610d32565b34801561046457600080fd5b50604b54610351906001600160a01b031681565b34801561048457600080fd5b5061040a60395481565b34801561049a57600080fd5b5060405160128152602001610328565b3480156104b657600080fd5b506102ff6104c5366004613ae1565b611480565b3480156104d657600080fd5b5061040a60385481565b61038961170d565b3480156104f457600080fd5b506102ff610503366004613aa0565b611998565b34801561051457600080fd5b506102ff611de5565b34801561052957600080fd5b50604154610351906001600160a01b031681565b34801561054957600080fd5b506102ff610558366004613b18565b611df7565b34801561056957600080fd5b50604f54610351906001600160a01b031681565b34801561058957600080fd5b50604854610351906001600160a01b031681565b3480156105a957600080fd5b50604d54610351906001600160a01b031681565b3480156105c957600080fd5b5060055460ff16610389565b3480156105e157600080fd5b506102ff6105f0366004613a3c565b612029565b34801561060157600080fd5b506102ff610610366004613b18565b6121f4565b34801561062157600080fd5b50603b54610351906001600160a01b031681565b34801561064157600080fd5b5061040a610650366004613b18565b6001600160a01b031660009081526020819052604090205490565b34801561067757600080fd5b506102ff61233f565b34801561068c57600080fd5b5061038961069b366004613b3a565b612351565b3480156106ac57600080fd5b50604054610351906001600160a01b031681565b3480156106cc57600080fd5b5061040a603a5481565b3480156106e257600080fd5b506102ff6106f1366004613b56565b612816565b34801561070257600080fd5b506102ff610711366004613b18565b6128ec565b34801561072257600080fd5b506102ff612a34565b34801561073757600080fd5b5061074b610746366004613b79565b612a44565b60408051928352602083019190915201610328565b34801561076c57600080fd5b5060055461010090046001600160a01b0316610351565b34801561078f57600080fd5b5061031b612b9f565b3480156107a457600080fd5b50604454610351906001600160a01b031681565b3480156107c457600080fd5b506103896107d3366004613a12565b612bae565b3480156107e457600080fd5b50604754610351906001600160a01b031681565b34801561080457600080fd5b506102ff610813366004613a3c565b612bbc565b34801561082457600080fd5b506102ff610833366004613a3c565b612d81565b34801561084457600080fd5b506102ff610853366004613ae1565b612f53565b34801561086457600080fd5b5061040a610873366004613b9b565b6130e8565b34801561088457600080fd5b506102ff610893366004613ae1565b613294565b3480156108a457600080fd5b50603c54610351906001600160a01b031681565b3480156108c457600080fd5b5061040a6108d3366004613bb6565b6001600160a01b03918216600090815260016020908152604080832093909416825291909152205490565b34801561090a57600080fd5b5061094f610919366004613b18565b603d6020526000908152604090208054600182015460029092015460ff8083169361010084048216936201000090049091169185565b6040516103289594939291909415158552921515602085015290151560408401526060830152608082015260a00190565b34801561098c57600080fd5b506102ff61099b366004613b18565b61341d565b3480156109ac57600080fd5b50604954610351906001600160a01b031681565b3480156109cc57600080fd5b50603e54610351906001600160a01b031681565b600260065403610a375760405162461bcd60e51b815260206004820152601f60248201527f5265656e7472616e637947756172643a207265656e7472616e742063616c6c0060448201526064015b60405180910390fd5b6002600655565b606060038054610a4d90613bd2565b80601f0160208091040260200160405190810160405280929190818152602001828054610a7990613bd2565b8015610ac65780601f10610a9b57610100808354040283529160200191610ac6565b820191906000526020600020905b815481529060010190602001808311610aa957829003601f168201915b5050505050905090565b600033610ade81858561350a565b60019150505b92915050565b610af2613517565b610afa6109e0565b610b066012600a613d00565b811015610b7b5760405162461bcd60e51b815260206004820152603760248201527f416d6f756e74206f66204859415820746f6b656e7320746f206973737565206d60448201527f757374206265206174206c65617374203120746f6b656e0000000000000000006064820152608401610a2e565b610b876012600a613d00565b610b9590633b9aca00613d0f565b811115610c0a5760405162461bcd60e51b815260206004820152603f60248201527f416d6f756e74206f66204859415820746f6b656e7320746f206973737565206160448201527f7420612074696d65206d757374206265206d6178696d756d2031303030204d006064820152608401610a2e565b610c166012600a613d00565b610c25906402540be400613d0f565b81610c2f60025490565b610c399190613d26565b1115610cad5760405162461bcd60e51b815260206004820152603b60248201527f416d6f756e74206f66204859415820746f6b656e7320746f206973737565207360448201527f75727061736573207468652031302c303030204d20746f6b656e7300000000006064820152608401610a2e565b600554610cc89061010090046001600160a01b03168261354a565b60408051338152602081018390527f455064bbf1374d9e833b8d9db24c56b24dbf79cc1a94a30665cae7093963d5a8910160405180910390a1610d0b6001600655565b50565b600033610d1c858285613580565b610d278585856135fe565b506001949350505050565b610d3a613517565b6001600160a01b038116610daf5760405162461bcd60e51b815260206004820152603660248201527f5468652070726963652064617461206665656420616464726573732063616e6e6044820152756f7420626520746865207a65726f206164647265737360501b6064820152608401610a2e565b8060008080856004811115610dc657610dc6613d39565b03610e8957603e546001600160a01b0390811690851603610e51576040805162461bcd60e51b81526020600482015260248101919091527f4d41544943207072696365206665656420616464726573732068617320616c7260448201527f65616479206265656e206d6f64696669656420746f20746861742076616c75656064820152608401610a2e565b6040516a1350551250c80bc81554d160aa1b6020820152602b015b604051602081830303815290604052805190602001209150611169565b6001856004811115610e9d57610e9d613d39565b03610f32576041546001600160a01b0390811690851603610f145760405162461bcd60e51b815260206004820152603f60248201527f55534443207072696365206665656420616464726573732068617320616c7265604482015260008051602061413c8339815191526064820152608401610a2e565b604051691554d110c80bc81554d160b21b6020820152602a01610e6c565b6002856004811115610f4657610f46613d39565b03610fdb576045546001600160a01b0390811690851603610fbd5760405162461bcd60e51b815260206004820152603f60248201527f55534454207072696365206665656420616464726573732068617320616c7265604482015260008051602061413c8339815191526064820152608401610a2e565b604051691554d115080bc81554d160b21b6020820152602a01610e6c565b6003856004811115610fef57610fef613d39565b03611084576049546001600160a01b03908116908516036110665760405162461bcd60e51b815260206004820152603f60248201527f57425443207072696365206665656420616464726573732068617320616c7265604482015260008051602061413c8339815191526064820152608401610a2e565b6040516915d09510c80bc81554d160b21b6020820152602a01610e6c565b600485600481111561109857611098613d39565b0361112c57604d546001600160a01b039081169085160361110f5760405162461bcd60e51b815260206004820152603f60248201527f57455448207072696365206665656420616464726573732068617320616c7265604482015260008051602061413c8339815191526064820152608401610a2e565b60405168115512080bc81554d160ba1b6020820152602901610e6c565b60405162461bcd60e51b8152602060048201526012602482015271496e76616c696420746f6b656e207479706560701b6044820152606401610a2e565b826001600160a01b0316637284e4166040518163ffffffff1660e01b8152600401600060405180830381865afa9250505080156111c857506040513d6000823e601f3d908101601f191682016040526111c59190810190613d65565b60015b6111e45760405162461bcd60e51b8152600401610a2e90613e12565b806040516020016111f59190613e7e565b60405160208183030381529060405280519060200120915081831461122c5760405162461bcd60e51b8152600401610a2e90613e12565b50600085600481111561124157611241613d39565b036112a957603e80546001600160a01b0386166001600160a01b03199182168117909255603f8054909116821790556040519081527fee9bc8d900b5d69f934ec4a3986b3bfda61add54821456c3f7e943e87cf48f52906020015b60405180910390a1611479565b60018560048111156112bd576112bd613d39565b0361131c57604180546001600160a01b0386166001600160a01b0319918216811790925560428054909116821790556040519081527f0a0bc5dadd9d9c881861f6da8998bebef8eabcb5f3d6651187c5d1899e3279659060200161129c565b600285600481111561133057611330613d39565b0361138f57604580546001600160a01b0386166001600160a01b0319918216811790925560468054909116821790556040519081527f1e5bfe0b7fe6fcdc586b9e3a4fbdc0bdb1346d36173963ba38c897137ba160319060200161129c565b60038560048111156113a3576113a3613d39565b0361140257604980546001600160a01b0386166001600160a01b03199182168117909255604a8054909116821790556040519081527f2171c3cfa3d86551d618c9da7164a608dd795715bf61402d9ccb45cf5433a0769060200161129c565b600485600481111561141657611416613d39565b0361147957604d80546001600160a01b0386166001600160a01b03199182168117909255604e8054909116821790556040519081527fc21be1e8c8d6de83e19ad6de75cd885eefac75be87e532a0a04d02147004e5209060200160405180910390a15b5050505050565b60055461010090046001600160a01b03166001600160a01b0316336001600160a01b031614806114ba5750603b546001600160a01b031633145b6114d65760405162461bcd60e51b8152600401610a2e90613e9a565b6001600160a01b03821661156a5760405162461bcd60e51b815260206004820152604f60248201527f496e766573746f72206164647265737320746f20757064617465207175616c6960448201527f6669656420696e766573746f72207374617475732063616e6e6f74206265207460648201526e6865207a65726f206164647265737360881b608482015260a401610a2e565b6001600160a01b0382166000908152603d602052604090205460ff166115f85760405162461bcd60e51b815260206004820152603e60248201527f496e766573746f722061646472657373206d757374206265206669727374206160448201527f6464656420746f2074686520696e766573746f722077686974656c69737400006064820152608401610a2e565b6001600160a01b0382166000908152603d60205260409020548115156201000090910460ff161515036116935760405162461bcd60e51b815260206004820152603d60248201527f5468617420696e766573746f7220616464726573732068617320616c7265616460448201527f79206265656e207570646174656420746f2074686174207374617475730000006064820152608401610a2e565b6001600160a01b0382166000818152603d6020908152604091829020805462ff000019166201000086151590810291909117909155825133815291820193909352908101919091527f3c53852fbea2a3e8d261e1a5412fcd1099cd0af0faf615db2a4cab4831106256906060015b60405180910390a15050565b336000908152603d602052604081205460ff1661173c5760405162461bcd60e51b8152600401610a2e90613ef7565b6117446109e0565b6000806117b934306001600160a01b031663bb6f98fb60006040518263ffffffff1660e01b81526004016117789190613f6d565b602060405180830381865afa158015611795573d6000803e3d6000fd5b505050506040513d601f19601f820116820180604052508101906107469190613f7b565b915091506117c78233612816565b603c546040516001600160a01b03909116903480156108fc02916000818181858888f1935050505061186c5760405162461bcd60e51b815260206004820152604260248201527f54686572652077617320616e206572726f72206f6e2073656e64696e6720746860448201527f65204d4154494320696e766573746d656e7420746f2074686520747265617375606482015261727960f01b608482015260a401610a2e565b60405163a9059cbb60e01b815233600482015260248101829052309063a9059cbb906044016020604051808303816000875af11580156118b0573d6000803e3d6000fd5b505050506040513d601f19601f820116820180604052508101906118d49190613f94565b6118f05760405162461bcd60e51b8152600401610a2e90613fb1565b336000908152603d602052604081206002018054849290611912908490613d26565b9091555050336000908152603d602052604081206001018054839290611939908490613d26565b909155505060408051338152346020820152908101839052606081018290527fe036cb252631bb3e3fbcb1aa359dd09f94f0dac1fe6de828e8bae3f5028331c59060800160405180910390a16001925050506119956001600655565b90565b6119a0613517565b6001600160a01b038116611a0b5760405162461bcd60e51b815260206004820152602c60248201527f54686520746f6b656e20616464726573732063616e6e6f74206265207468652060448201526b7a65726f206164647265737360a01b6064820152608401610a2e565b6001826004811115611a1f57611a1f613d39565b03611b05576040546001600160a01b0390811690821603611aa55760405162461bcd60e51b815260206004820152603a60248201527f5553444320746f6b656e20616464726573732068617320616c7265616479206260448201527965656e206d6f64696669656420746f20746861742076616c756560301b6064820152608401610a2e565b604080546001600160a01b0383166001600160a01b03199182168117835560438054909216811790915590519081527f8b3f52c1d10699944ebee74ee29dca11c9c86bb0dbedef4abd6e737f613d4d3a9060200160405180910390a15050565b6002826004811115611b1957611b19613d39565b03611bf9576044546001600160a01b0390811690821603611b9f5760405162461bcd60e51b815260206004820152603a60248201527f5553445420746f6b656e20616464726573732068617320616c7265616479206260448201527965656e206d6f64696669656420746f20746861742076616c756560301b6064820152608401610a2e565b604480546001600160a01b0383166001600160a01b0319918216811790925560478054909116821790556040519081527f1c2d8a05be2c8eca524d44cc224513d7e19ca97ac309c3e23bee450f8578ca1990602001611701565b6003826004811115611c0d57611c0d613d39565b03611ced576048546001600160a01b0390811690821603611c935760405162461bcd60e51b815260206004820152603a60248201527f5742544320746f6b656e20616464726573732068617320616c7265616479206260448201527965656e206d6f64696669656420746f20746861742076616c756560301b6064820152608401610a2e565b604880546001600160a01b0383166001600160a01b03199182168117909255604b8054909116821790556040519081527f95082f719648371f180ca4f9bad55a2ae7c2d029bbf93e360584ca6ea06327ea90602001611701565b6004826004811115611d0157611d01613d39565b0361112c57604c546001600160a01b0390811690821603611d875760405162461bcd60e51b815260206004820152603a60248201527f5745544820746f6b656e20616464726573732068617320616c7265616479206260448201527965656e206d6f64696669656420746f20746861742076616c756560301b6064820152608401610a2e565b604c80546001600160a01b0383166001600160a01b03199182168117909255604f8054909116821790556040519081527ff5fd160f565ac0e80215e9eced5afbfcd47389e99858fac6a3d93f2ec38ff6d690602001611701565b5050565b611ded613517565b611df561365d565b565b60055461010090046001600160a01b03166001600160a01b0316336001600160a01b03161480611e315750603b546001600160a01b031633145b611e4d5760405162461bcd60e51b8152600401610a2e90613e9a565b6001600160a01b038116611ed55760405162461bcd60e51b815260206004820152604360248201527f496e766573746f72206164647265737320746f2061646420746f20746865207760448201527f686974656c6973742063616e6e6f7420626520746865207a65726f206164647260648201526265737360e81b608482015260a401610a2e565b6001600160a01b0381166000908152603d602052604090205460ff1615611f645760405162461bcd60e51b815260206004820152603d60248201527f5468617420696e766573746f7220616464726573732068617320616c7265616460448201527f79206265656e20616464656420746f207468652077686974656c6973740000006064820152608401610a2e565b6040805160a08101825260006020808301828152838501838152606085018481526080860185815260018088526001600160a01b038a16808852603d87529689902088518154965195511515620100000262ff0000199615156101000261ff00199215159290921661ffff19909816979097171794909416949094178355905192820192909255905160029091015583513381529081019190915290917f8419b79dc227f7841e7bf32cea35c3f90fe5b3da68cde93adef3c32745c587de9101611701565b612031613517565b600081116120a15760405162461bcd60e51b815260206004820152603760248201527f4e6577206d6178696d756d20616d6f756e7420746f20696e766573742c206d7560448201527673742062652067726561746572207468616e207a65726f60481b6064820152608401610a2e565b603a5481036121265760405162461bcd60e51b815260206004820152604560248201527f4e6577206d6178696d756d20616d6f756e7420746f20696e766573742c20686160448201527f7320616c7265616479206265656e206d6f64696669656420746f20746861742060648201526476616c756560d81b608482015260a401610a2e565b6039548110156121b85760405162461bcd60e51b815260206004820152605160248201527f4e6577206d6178696d756d20616d6f756e7420746f20696e766573742c206d7560448201527f73742062652067726561746572207468616e20746865206d696e696d756d20696064820152701b9d995cdd1b595b9d08185b1b1bddd959607a1b608482015260a401610a2e565b603a8190556040518181527f29d434ec19958e7ce86ca2870f5927ab4f948d916dcffc568c1343c1e1f76566906020015b60405180910390a150565b6121fc613517565b6001600160a01b03811661226d5760405162461bcd60e51b815260206004820152603260248201527f5468652077686974656c697374657220616464726573732063616e6e6f7420626044820152716520746865207a65726f206164647265737360701b6064820152608401610a2e565b603b546001600160a01b03908116908216036122f15760405162461bcd60e51b815260206004820152603b60248201527f57686974656c697374657220616464726573732068617320616c72656164792060448201527f6265656e206d6f64696669656420746f20746861742076616c756500000000006064820152608401610a2e565b603b80546001600160a01b0319166001600160a01b0383169081179091556040519081527f32359536720adedfb2b6c6dd7685519f09fdf93ce7824b68d5b2f56354fdebec906020016121e9565b612347613517565b611df560006136af565b336000908152603d602052604081205460ff166123805760405162461bcd60e51b8152600401610a2e90613ef7565b6123886109e0565b600080600185600481111561239f5761239f613d39565b0361241f5760435460405163bb6f98fb60e01b81526001600160a01b039091169250309063bb6f98fb906123d7908890600401613f6d565b602060405180830381865afa1580156123f4573d6000803e3d6000fd5b505050506040513d601f19601f820116820180604052508101906124189190613f7b565b9050612503565b600285600481111561243357612433613d39565b0361246b5760475460405163bb6f98fb60e01b81526001600160a01b039091169250309063bb6f98fb906123d7908890600401613f6d565b600385600481111561247f5761247f613d39565b036124b757604b5460405163bb6f98fb60e01b81526001600160a01b039091169250309063bb6f98fb906123d7908890600401613f6d565b60048560048111156124cb576124cb613d39565b0361112c57604f5460405163bb6f98fb60e01b81526001600160a01b039091169250309063bb6f98fb906123d7908890600401613f6d565b6000806125108684612a44565b9150915061251e8233612816565b6040516323b872dd60e01b8152336004820152306024820152604481018790526001600160a01b038516906323b872dd906064016020604051808303816000875af1158015612571573d6000803e3d6000fd5b505050506040513d601f19601f820116820180604052508101906125959190613f94565b6125fe5760405162461bcd60e51b815260206004820152603460248201527f54686572652077617320616e206572726f72206f6e20726563656976696e67206044820152731d1a19481d1bdad95b881a5b9d995cdd1b595b9d60621b6064820152608401610a2e565b603c5460405163a9059cbb60e01b81526001600160a01b039182166004820152602481018890529085169063a9059cbb906044016020604051808303816000875af1158015612651573d6000803e3d6000fd5b505050506040513d601f19601f820116820180604052508101906126759190613f94565b6126f25760405162461bcd60e51b815260206004820152604260248201527f54686572652077617320616e206572726f72206f6e2073656e64696e6720746860448201527f6520746f6b656e20696e766573746d656e7420746f2074686520747265617375606482015261727960f01b608482015260a401610a2e565b60405163a9059cbb60e01b815233600482015260248101829052309063a9059cbb906044016020604051808303816000875af1158015612736573d6000803e3d6000fd5b505050506040513d601f19601f8201168201806040525081019061275a9190613f94565b6127765760405162461bcd60e51b8152600401610a2e90613fb1565b336000908152603d602052604081206002018054849290612798908490613d26565b9091555050336000908152603d6020526040812060010180548392906127bf908490613d26565b90915550506040517f3b60324b6db90922773bde8799e6d3b7d574474a0fb52a6d340bd2ee92b5edbc906127fc90899033908a9087908790614018565b60405180910390a16001945050505050610ae46001600655565b6001600160a01b0381166000908152603d602052604081206002015461283c9084613d26565b9050603a548111156128e7576001600160a01b0382166000908152603d602052604090205462010000900460ff166128e75760405162461bcd60e51b815260206004820152604260248201527f546f20627579207468617420616d6f756e74206f66204859415820697473207260448201527f6571756972656420746f2062652061207175616c696669656420696e7665737460648201526137b960f11b608482015260a401610a2e565b505050565b6128f4613517565b6001600160a01b0381166129625760405162461bcd60e51b815260206004820152602f60248201527f54686520747265617375727920616464726573732063616e6e6f74206265207460448201526e6865207a65726f206164647265737360881b6064820152608401610a2e565b603c546001600160a01b03908116908216036129e65760405162461bcd60e51b815260206004820152603860248201527f547265617375727920616464726573732068617320616c72656164792062656560448201527f6e206d6f64696669656420746f20746861742076616c756500000000000000006064820152608401610a2e565b603c80546001600160a01b0319166001600160a01b0383169081179091556040519081527f2e1e696cfb265fa16e1170d24ef04cb2262772bde00ecf34d80bae6722487b7f906020016121e9565b612a3c613517565b611df5613709565b6000806305f5e100612a568486613d0f565b612a609190614052565b603854909250612a74836305f5e100613d0f565b612a7e9190614052565b9050603954821015612b025760405162461bcd60e51b815260206004820152604160248201527f54686520616d6f756e7420746f20696e76657374206d7573742062652067726560448201527f61746572207468616e20746865206d696e696d756d2065737461626c697368656064820152601960fa1b608482015260a401610a2e565b30600090815260208190526040902054811115612b985760405162461bcd60e51b815260206004820152604860248201527f54686520696e766573746d656e74206d6164652072657475726e7320616e206160448201527f6d6f756e74206f6620485941582067726561746572207468616e2074686520616064820152677661696c61626c6560c01b608482015260a401610a2e565b9250929050565b606060048054610a4d90613bd2565b600033610ade8185856135fe565b612bc4613517565b60008111612c345760405162461bcd60e51b815260206004820152603760248201527f4e6577206d696e696d756e20616d6f756e7420746f20696e766573742c206d7560448201527673742062652067726561746572207468616e207a65726f60481b6064820152608401610a2e565b6039548103612cbd5760405162461bcd60e51b815260206004820152604960248201527f4d696e696d756d20696e766573746d656e7420616c6c6f77656420696e20555360448201527f442068617320616c7265616479206265656e206d6f64696669656420746f20746064820152686861742076616c756560b81b608482015260a401610a2e565b603a54811115612d4c5760405162461bcd60e51b815260206004820152604e60248201527f4e6577206d696e696d756e20616d6f756e7420746f20696e766573742c206d7560448201527f7374206265206c657373207468616e20746865206d6178696d756d20696e766560648201526d1cdd1b595b9d08185b1b1bddd95960921b608482015260a401610a2e565b60398190556040518181527fee60eb8e40a2ec796bfe3ca896b9221af9764fc0987bf0508ca755266d9c85f8906020016121e9565b612d89613517565b6038548103612df55760405162461bcd60e51b815260206004820152603260248201527f485941582070726963652068617320616c7265616479206265656e206d6f64696044820152716669656420746f20746861742076616c756560701b6064820152608401610a2e565b6207a120811015612e855760405162461bcd60e51b815260206004820152604e60248201527f5072696365206f66204859415820746f6b656e206d757374206265206174206c60448201527f656173742055534420302e3030352c207468617420697320353030303030207760648201526d697468203820646563696d616c7360901b608482015260a401610a2e565b64174876e800811115612f1e5760405162461bcd60e51b815260206004820152605560248201527f5072696365206f66204859415820746f6b656e206d757374206265206174206d60448201527f6178696d756d2055534420313030302c2074686174206973203130303030303060648201527430303030302077697468203820646563696d616c7360581b608482015260a401610a2e565b60388190556040518181527f4f6f7bbbb2b0dde2246ee6650672d1b55a5be5b52f8dd2e8d595f4bd47e1c913906020016121e9565b60055461010090046001600160a01b03166001600160a01b0316336001600160a01b03161480612f8d5750603b546001600160a01b031633145b612fa95760405162461bcd60e51b8152600401610a2e90613e9a565b6001600160a01b0382166130345760405162461bcd60e51b815260206004820152604660248201527f496e766573746f72206164647265737320746f2075706461746520626c61636b60448201527f6c697374207374617475732063616e6e6f7420626520746865207a65726f206160648201526564647265737360d01b608482015260a401610a2e565b6001600160a01b0382166000908152603d602052604090205481151561010090910460ff161515036130785760405162461bcd60e51b8152600401610a2e90614074565b6001600160a01b0382166000818152603d6020908152604091829020805461ff00191661010086151590810291909117909155825133815291820193909352908101919091527f89a9c56967d4535d54c90bffd7cbd09f6d2a4c8e26b9e7f033f199d144e12b4e90606001611701565b600080808360048111156130fe576130fe613d39565b036131155750603f546001600160a01b03166131bd565b600183600481111561312957613129613d39565b0361314057506042546001600160a01b03166131bd565b600283600481111561315457613154613d39565b0361316b57506046546001600160a01b03166131bd565b600383600481111561317f5761317f613d39565b036131965750604a546001600160a01b03166131bd565b60048360048111156131aa576131aa613d39565b0361112c5750604e546001600160a01b03165b806001600160a01b031663feaf968c6040518163ffffffff1660e01b815260040160a060405180830381865afa925050508015613217575060408051601f3d908101601f19168201909252613214918101906140eb565b60015b6132825760405162461bcd60e51b815260206004820152603660248201527f54686572652077617320616e206572726f72206f627461696e696e67207468656044820152752070726963652066726f6d20746865206f7261636c6560501b6064820152608401610a2e565b50919695505050505050565b50919050565b60055461010090046001600160a01b03166001600160a01b0316336001600160a01b031614806132ce5750603b546001600160a01b031633145b6132ea5760405162461bcd60e51b8152600401610a2e90613e9a565b6001600160a01b0382166133755760405162461bcd60e51b815260206004820152604660248201527f496e766573746f72206164647265737320746f2075706461746520776869746560448201527f6c697374207374617475732063616e6e6f7420626520746865207a65726f206160648201526564647265737360d01b608482015260a401610a2e565b6001600160a01b0382166000908152603d602052604090205481151560ff9091161515036133b55760405162461bcd60e51b8152600401610a2e90614074565b6001600160a01b0382166000818152603d6020908152604091829020805460ff1916851515908117909155825133815291820193909352908101919091527f70bbee4e66e3fd40f7da099410cfd723ed4a0b4fec11f6cc968e850db827a88b90606001611701565b613425613517565b6001600160a01b03811661348a5760405162461bcd60e51b815260206004820152602660248201527f4f776e61626c653a206e6577206f776e657220697320746865207a65726f206160448201526564647265737360d01b6064820152608401610a2e565b306001600160a01b038216036135015760405162461bcd60e51b815260206004820152603660248201527f4f776e61626c653a206e6577206f776e65722063616e6e6f74206265207468656044820152752073616d6520636f6e7472616374206164647265737360501b6064820152608401610a2e565b610d0b816136af565b6128e78383836001613746565b6005546001600160a01b03610100909104163314611df55760405163118cdaa760e01b8152336004820152602401610a2e565b6001600160a01b0382166135745760405163ec442f0560e01b815260006004820152602401610a2e565b611de16000838361381b565b6001600160a01b0383811660009081526001602090815260408083209386168352929052205460001981146135f857818110156135e957604051637dc7a0d960e11b81526001600160a01b03841660048201526024810182905260448101839052606401610a2e565b6135f884848484036000613746565b50505050565b6001600160a01b03831661362857604051634b637e8f60e11b815260006004820152602401610a2e565b6001600160a01b0382166136525760405163ec442f0560e01b815260006004820152602401610a2e565b6128e783838361381b565b61366561382e565b6005805460ff191690557f5db9ee0a495bf2e6ff9c91a7834c1ba4fdd244a5e8aa4e537bd38aeae4b073aa335b6040516001600160a01b03909116815260200160405180910390a1565b600580546001600160a01b03838116610100818102610100600160a81b031985161790945560405193909204169182907f8be0079c531659141344cd1fd0a4f28419497f9722a3daafe3b4186f6b6457e090600090a35050565b613711613851565b6005805460ff191660011790557f62e78cea01bee320cd4e420270b5ea74000d11b0c9f74754ebdbfc544b05a2586136923390565b6001600160a01b0384166137705760405163e602df0560e01b815260006004820152602401610a2e565b6001600160a01b03831661379a57604051634a1406b160e11b815260006004820152602401610a2e565b6001600160a01b03808516600090815260016020908152604080832093871683529290522082905580156135f857826001600160a01b0316846001600160a01b03167f8c5be1e5ebec7d5bd14f71427d1e84f3dd0314c0f7b2291e5b200ac8c7c3b9258460405161380d91815260200190565b60405180910390a350505050565b613823613851565b6128e7838383613875565b60055460ff16611df557604051638dfc202b60e01b815260040160405180910390fd5b60055460ff1615611df55760405163d93c066560e01b815260040160405180910390fd5b6001600160a01b0383166138a05780600260008282546138959190613d26565b909155506139129050565b6001600160a01b038316600090815260208190526040902054818110156138f35760405163391434e360e21b81526001600160a01b03851660048201526024810182905260448101839052606401610a2e565b6001600160a01b03841660009081526020819052604090209082900390555b6001600160a01b03821661392e5760028054829003905561394d565b6001600160a01b03821660009081526020819052604090208054820190555b816001600160a01b0316836001600160a01b03167fddf252ad1be2c89b69c2b068fc378daa952ba7f163c4a11628f55a4df523b3ef8360405161399291815260200190565b60405180910390a3505050565b60005b838110156139ba5781810151838201526020016139a2565b50506000910152565b60208152600082518060208401526139e281604085016020870161399f565b601f01601f19169190910160400192915050565b80356001600160a01b0381168114613a0d57600080fd5b919050565b60008060408385031215613a2557600080fd5b613a2e836139f6565b946020939093013593505050565b600060208284031215613a4e57600080fd5b5035919050565b600080600060608486031215613a6a57600080fd5b613a73846139f6565b9250613a81602085016139f6565b9150604084013590509250925092565b803560058110613a0d57600080fd5b60008060408385031215613ab357600080fd5b613abc83613a91565b9150613aca602084016139f6565b90509250929050565b8015158114610d0b57600080fd5b60008060408385031215613af457600080fd5b613afd836139f6565b91506020830135613b0d81613ad3565b809150509250929050565b600060208284031215613b2a57600080fd5b613b33826139f6565b9392505050565b60008060408385031215613b4d57600080fd5b613a2e83613a91565b60008060408385031215613b6957600080fd5b82359150613aca602084016139f6565b60008060408385031215613b8c57600080fd5b50508035926020909101359150565b600060208284031215613bad57600080fd5b613b3382613a91565b60008060408385031215613bc957600080fd5b613abc836139f6565b600181811c90821680613be657607f821691505b60208210810361328e57634e487b7160e01b600052602260045260246000fd5b634e487b7160e01b600052601160045260246000fd5b600181815b80851115613c57578160001904821115613c3d57613c3d613c06565b80851615613c4a57918102915b93841c9390800290613c21565b509250929050565b600082613c6e57506001610ae4565b81613c7b57506000610ae4565b8160018114613c915760028114613c9b57613cb7565b6001915050610ae4565b60ff841115613cac57613cac613c06565b50506001821b610ae4565b5060208310610133831016604e8410600b8410161715613cda575081810a610ae4565b613ce48383613c1c565b8060001904821115613cf857613cf8613c06565b029392505050565b6000613b3360ff841683613c5f565b8082028115828204841417610ae457610ae4613c06565b80820180821115610ae457610ae4613c06565b634e487b7160e01b600052602160045260246000fd5b634e487b7160e01b600052604160045260246000fd5b600060208284031215613d7757600080fd5b815167ffffffffffffffff80821115613d8f57600080fd5b818401915084601f830112613da357600080fd5b815181811115613db557613db5613d4f565b604051601f8201601f19908116603f01168101908382118183101715613ddd57613ddd613d4f565b81604052828152876020848701011115613df657600080fd5b613e0783602083016020880161399f565b979650505050505050565b60208082526046908201527f546865206e6577206164647265737320646f6573206e6f74207365656d20746f60408201527f2062656c6f6e6720746f2074686520636f72726563742070726963652064617460608201526518481999595960d21b608082015260a00190565b60008251613e9081846020870161399f565b9190910192915050565b6020808252603f908201527f46756e6374696f6e207265736572766564206f6e6c7920666f7220746865207760408201527f686974656c69737465722061646472657373206f7220746865206f776e657200606082015260800190565b60208082526034908201527f496e766573746f72206164647265737320686173206e6f74206265656e206164604082015273191959081d1bc81d1a19481dda1a5d195b1a5cdd60621b606082015260800190565b60058110613f6957634e487b7160e01b600052602160045260246000fd5b9052565b60208101610ae48284613f4b565b600060208284031215613f8d57600080fd5b5051919050565b600060208284031215613fa657600080fd5b8151613b3381613ad3565b60208082526041908201527f54686572652077617320616e206572726f72206f6e2073656e64696e6720626160408201527f636b20746865204859415820546f6b656e20746f2074686520696e766573746f6060820152603960f91b608082015260a00190565b60a081016140268288613f4b565b6001600160a01b0395909516602082015260408101939093526060830191909152608090910152919050565b60008261406f57634e487b7160e01b600052601260045260246000fd5b500490565b60208082526038908201527f496e766573746f7220616464726573732068617320616c72656164792062656560408201527f6e207570646174656420746f2074686174207374617475730000000000000000606082015260800190565b805169ffffffffffffffffffff81168114613a0d57600080fd5b600080600080600060a0868803121561410357600080fd5b61410c866140d1565b945060208601519350604086015192506060860151915061412f608087016140d1565b9050929550929590935056fe616479206265656e206d6f64696669656420746f20746861742076616c756500a264697066735822122065daaf436e38c8bdbb4f4132109210193ec5312c5f137a9c9d40b438fa3f1c3564736f6c63430008140033",
  "linkReferences": {},
  "deployedLinkReferences": {}
}