{
  "_format": "hh-sol-artifact-1",
  "contractName": "HYAXLocal",
  "sourceName": "contracts/HYAXLocal.sol",
  "abi": [
    {
      "inputs": [],
      "stateMutability": "nonpayable",
      "type": "constructor"
    },
    {
      "inputs": [
        {
          "internalType": "address",
          "name": "spender",
          "type": "address"
        },
        {
          "internalType": "uint256",
          "name": "allowance",
          "type": "uint256"
        },
        {
          "internalType": "uint256",
          "name": "needed",
          "type": "uint256"
        }
      ],
      "name": "ERC20InsufficientAllowance",
      "type": "error"
    },
    {
      "inputs": [
        {
          "internalType": "address",
          "name": "sender",
          "type": "address"
        },
        {
          "internalType": "uint256",
          "name": "balance",
          "type": "uint256"
        },
        {
          "internalType": "uint256",
          "name": "needed",
          "type": "uint256"
        }
      ],
      "name": "ERC20InsufficientBalance",
      "type": "error"
    },
    {
      "inputs": [
        {
          "internalType": "address",
          "name": "approver",
          "type": "address"
        }
      ],
      "name": "ERC20InvalidApprover",
      "type": "error"
    },
    {
      "inputs": [
        {
          "internalType": "address",
          "name": "receiver",
          "type": "address"
        }
      ],
      "name": "ERC20InvalidReceiver",
      "type": "error"
    },
    {
      "inputs": [
        {
          "internalType": "address",
          "name": "sender",
          "type": "address"
        }
      ],
      "name": "ERC20InvalidSender",
      "type": "error"
    },
    {
      "inputs": [
        {
          "internalType": "address",
          "name": "spender",
          "type": "address"
        }
      ],
      "name": "ERC20InvalidSpender",
      "type": "error"
    },
    {
      "inputs": [],
      "name": "EnforcedPause",
      "type": "error"
    },
    {
      "inputs": [],
      "name": "ExpectedPause",
      "type": "error"
    },
    {
      "inputs": [
        {
          "internalType": "address",
          "name": "owner",
          "type": "address"
        }
      ],
      "name": "OwnableInvalidOwner",
      "type": "error"
    },
    {
      "inputs": [
        {
          "internalType": "address",
          "name": "account",
          "type": "address"
        }
      ],
      "name": "OwnableUnauthorizedAccount",
      "type": "error"
    },
    {
      "anonymous": false,
      "inputs": [
        {
          "indexed": true,
          "internalType": "address",
          "name": "owner",
          "type": "address"
        },
        {
          "indexed": true,
          "internalType": "address",
          "name": "spender",
          "type": "address"
        },
        {
          "indexed": false,
          "internalType": "uint256",
          "name": "value",
          "type": "uint256"
        }
      ],
      "name": "Approval",
      "type": "event"
    },
    {
      "anonymous": false,
      "inputs": [
        {
          "indexed": false,
          "internalType": "uint8",
          "name": "version",
          "type": "uint8"
        }
      ],
      "name": "Initialized",
      "type": "event"
    },
    {
      "anonymous": false,
      "inputs": [
        {
          "indexed": false,
          "internalType": "enum HYAXLocal.TokenType",
          "name": "tokenType",
          "type": "uint8"
        },
        {
          "indexed": false,
          "internalType": "address",
          "name": "sender",
          "type": "address"
        },
        {
          "indexed": false,
          "internalType": "uint256",
          "name": "tokenAmount",
          "type": "uint256"
        },
        {
          "indexed": false,
          "internalType": "uint256",
          "name": "totalInvestmentInUsd",
          "type": "uint256"
        },
        {
          "indexed": false,
          "internalType": "uint256",
          "name": "hyaxAmount",
          "type": "uint256"
        }
      ],
      "name": "InvestFromCryptoToken",
      "type": "event"
    },
    {
      "anonymous": false,
      "inputs": [
        {
          "indexed": false,
          "internalType": "address",
          "name": "sender",
          "type": "address"
        },
        {
          "indexed": false,
          "internalType": "uint256",
          "name": "maticAmount",
          "type": "uint256"
        },
        {
          "indexed": false,
          "internalType": "uint256",
          "name": "totalInvestmentInUsd",
          "type": "uint256"
        },
        {
          "indexed": false,
          "internalType": "uint256",
          "name": "hyaxAmount",
          "type": "uint256"
        }
      ],
      "name": "InvestFromMatic",
      "type": "event"
    },
    {
      "anonymous": false,
      "inputs": [
        {
          "indexed": false,
          "internalType": "address",
          "name": "sender",
          "type": "address"
        },
        {
          "indexed": false,
          "internalType": "address",
          "name": "_QualifiedInvestorAddress",
          "type": "address"
        }
      ],
      "name": "InvestorAddedToQualifiedInvestorList",
      "type": "event"
    },
    {
      "anonymous": false,
      "inputs": [
        {
          "indexed": false,
          "internalType": "address",
          "name": "sender",
          "type": "address"
        },
        {
          "indexed": false,
          "internalType": "address",
          "name": "_investorAddress",
          "type": "address"
        }
      ],
      "name": "InvestorAddedToWhiteList",
      "type": "event"
    },
    {
      "anonymous": false,
      "inputs": [
        {
          "indexed": false,
          "internalType": "address",
          "name": "sender",
          "type": "address"
        },
        {
          "indexed": false,
          "internalType": "address",
          "name": "_QualifiedInvestorAddress",
          "type": "address"
        }
      ],
      "name": "InvestorRemovedFromQualifiedInvestorList",
      "type": "event"
    },
    {
      "anonymous": false,
      "inputs": [
        {
          "indexed": false,
          "internalType": "address",
          "name": "sender",
          "type": "address"
        },
        {
          "indexed": false,
          "internalType": "address",
          "name": "_investorAddress",
          "type": "address"
        }
      ],
      "name": "InvestorRemovedFromWhiteList",
      "type": "event"
    },
    {
      "anonymous": false,
      "inputs": [
        {
          "indexed": true,
          "internalType": "address",
          "name": "previousOwner",
          "type": "address"
        },
        {
          "indexed": true,
          "internalType": "address",
          "name": "newOwner",
          "type": "address"
        }
      ],
      "name": "OwnershipTransferred",
      "type": "event"
    },
    {
      "anonymous": false,
      "inputs": [
        {
          "indexed": false,
          "internalType": "address",
          "name": "account",
          "type": "address"
        }
      ],
      "name": "Paused",
      "type": "event"
    },
    {
      "anonymous": false,
      "inputs": [
        {
          "indexed": false,
          "internalType": "address",
          "name": "sender",
          "type": "address"
        },
        {
          "indexed": false,
          "internalType": "uint256",
          "name": "amount",
          "type": "uint256"
        }
      ],
      "name": "TokenIssuance",
      "type": "event"
    },
    {
      "anonymous": false,
      "inputs": [
        {
          "indexed": true,
          "internalType": "address",
          "name": "from",
          "type": "address"
        },
        {
          "indexed": true,
          "internalType": "address",
          "name": "to",
          "type": "address"
        },
        {
          "indexed": false,
          "internalType": "uint256",
          "name": "value",
          "type": "uint256"
        }
      ],
      "name": "Transfer",
      "type": "event"
    },
    {
      "anonymous": false,
      "inputs": [
        {
          "indexed": false,
          "internalType": "address",
          "name": "account",
          "type": "address"
        }
      ],
      "name": "Unpaused",
      "type": "event"
    },
    {
      "anonymous": false,
      "inputs": [
        {
          "indexed": false,
          "internalType": "uint256",
          "name": "_newHyaxPrice",
          "type": "uint256"
        }
      ],
      "name": "UpdatedHyaxPrice",
      "type": "event"
    },
    {
      "anonymous": false,
      "inputs": [
        {
          "indexed": false,
          "internalType": "address",
          "name": "_newMaticPriceFeedAddress",
          "type": "address"
        }
      ],
      "name": "UpdatedMaticPriceFeedAddress",
      "type": "event"
    },
    {
      "anonymous": false,
      "inputs": [
        {
          "indexed": false,
          "internalType": "uint256",
          "name": "_newMaximumInvestmentAllowedInUSD",
          "type": "uint256"
        }
      ],
      "name": "UpdatedMaximumInvestmentAllowedInUSD",
      "type": "event"
    },
    {
      "anonymous": false,
      "inputs": [
        {
          "indexed": false,
          "internalType": "uint256",
          "name": "_newMinimumInvestmentAllowedInUSD",
          "type": "uint256"
        }
      ],
      "name": "UpdatedMinimumInvestmentAllowedInUSD",
      "type": "event"
    },
    {
      "anonymous": false,
      "inputs": [
        {
          "indexed": false,
          "internalType": "address",
          "name": "_newTreasuryAddress",
          "type": "address"
        }
      ],
      "name": "UpdatedTreasuryAddress",
      "type": "event"
    },
    {
      "anonymous": false,
      "inputs": [
        {
          "indexed": false,
          "internalType": "address",
          "name": "_newUsdcPriceFeedAddress",
          "type": "address"
        }
      ],
      "name": "UpdatedUsdcPriceFeedAddress",
      "type": "event"
    },
    {
      "anonymous": false,
      "inputs": [
        {
          "indexed": false,
          "internalType": "address",
          "name": "_newUsdcTokenAddress",
          "type": "address"
        }
      ],
      "name": "UpdatedUsdcTokenAddress",
      "type": "event"
    },
    {
      "anonymous": false,
      "inputs": [
        {
          "indexed": false,
          "internalType": "address",
          "name": "_newUsdtPriceFeedAddress",
          "type": "address"
        }
      ],
      "name": "UpdatedUsdtPriceFeedAddress",
      "type": "event"
    },
    {
      "anonymous": false,
      "inputs": [
        {
          "indexed": false,
          "internalType": "address",
          "name": "_newUsdtTokenAddress",
          "type": "address"
        }
      ],
      "name": "UpdatedUsdtTokenAddress",
      "type": "event"
    },
    {
      "anonymous": false,
      "inputs": [
        {
          "indexed": false,
          "internalType": "address",
          "name": "_newWbtcPriceFeedAddress",
          "type": "address"
        }
      ],
      "name": "UpdatedWbtcPriceFeedAddress",
      "type": "event"
    },
    {
      "anonymous": false,
      "inputs": [
        {
          "indexed": false,
          "internalType": "address",
          "name": "_newWbtcTokenAddress",
          "type": "address"
        }
      ],
      "name": "UpdatedWbtcTokenAddress",
      "type": "event"
    },
    {
      "anonymous": false,
      "inputs": [
        {
          "indexed": false,
          "internalType": "address",
          "name": "_newWethPriceFeedAddress",
          "type": "address"
        }
      ],
      "name": "UpdatedWethPriceFeedAddress",
      "type": "event"
    },
    {
      "anonymous": false,
      "inputs": [
        {
          "indexed": false,
          "internalType": "address",
          "name": "_newWethTokenAddress",
          "type": "address"
        }
      ],
      "name": "UpdatedWethTokenAddress",
      "type": "event"
    },
    {
      "anonymous": false,
      "inputs": [
        {
          "indexed": false,
          "internalType": "address",
          "name": "_newWhiteListerAddress",
          "type": "address"
        }
      ],
      "name": "UpdatedWhiteListerAddress",
      "type": "event"
    },
    {
      "inputs": [
        {
          "internalType": "address",
          "name": "_qualifiedInvestorAddress",
          "type": "address"
        }
      ],
      "name": "addToQualifiedInvestorList",
      "outputs": [],
      "stateMutability": "nonpayable",
      "type": "function"
    },
    {
      "inputs": [
        {
          "internalType": "address",
          "name": "_investorAddress",
          "type": "address"
        }
      ],
      "name": "addToWhiteList",
      "outputs": [],
      "stateMutability": "nonpayable",
      "type": "function"
    },
    {
      "inputs": [
        {
          "internalType": "address",
          "name": "owner",
          "type": "address"
        },
        {
          "internalType": "address",
          "name": "spender",
          "type": "address"
        }
      ],
      "name": "allowance",
      "outputs": [
        {
          "internalType": "uint256",
          "name": "",
          "type": "uint256"
        }
      ],
      "stateMutability": "view",
      "type": "function"
    },
    {
      "inputs": [
        {
          "internalType": "address",
          "name": "spender",
          "type": "address"
        },
        {
          "internalType": "uint256",
          "name": "value",
          "type": "uint256"
        }
      ],
      "name": "approve",
      "outputs": [
        {
          "internalType": "bool",
          "name": "",
          "type": "bool"
        }
      ],
      "stateMutability": "nonpayable",
      "type": "function"
    },
    {
      "inputs": [
        {
          "internalType": "address",
          "name": "account",
          "type": "address"
        }
      ],
      "name": "balanceOf",
      "outputs": [
        {
          "internalType": "uint256",
          "name": "",
          "type": "uint256"
        }
      ],
      "stateMutability": "view",
      "type": "function"
    },
    {
      "inputs": [
        {
          "internalType": "uint256",
          "name": "_amount",
          "type": "uint256"
        },
        {
          "internalType": "uint256",
          "name": "_currentCryptocurrencyPrice",
          "type": "uint256"
        }
      ],
      "name": "calculateTotalHyaxTokenToReturn",
      "outputs": [
        {
          "internalType": "uint256",
          "name": "totalInvestmentInUsd",
          "type": "uint256"
        },
        {
          "internalType": "uint256",
          "name": "totalHyaxTokenToReturn",
          "type": "uint256"
        }
      ],
      "stateMutability": "view",
      "type": "function"
    },
    {
      "inputs": [],
      "name": "decimals",
      "outputs": [
        {
          "internalType": "uint8",
          "name": "",
          "type": "uint8"
        }
      ],
      "stateMutability": "view",
      "type": "function"
    },
    {
      "inputs": [
        {
          "internalType": "enum HYAXLocal.TokenType",
          "name": "tokenType",
          "type": "uint8"
        }
      ],
      "name": "getCurrentTokenPrice",
      "outputs": [
        {
          "internalType": "uint256",
          "name": "",
          "type": "uint256"
        }
      ],
      "stateMutability": "view",
      "type": "function"
    },
    {
      "inputs": [],
      "name": "hyaxPrice",
      "outputs": [
        {
          "internalType": "uint256",
          "name": "",
          "type": "uint256"
        }
      ],
      "stateMutability": "view",
      "type": "function"
    },
    {
      "inputs": [
        {
          "internalType": "enum HYAXLocal.TokenType",
          "name": "tokenType",
          "type": "uint8"
        },
        {
          "internalType": "uint256",
          "name": "_amount",
          "type": "uint256"
        }
      ],
      "name": "investFromCryptoToken",
      "outputs": [
        {
          "internalType": "bool",
          "name": "",
          "type": "bool"
        }
      ],
      "stateMutability": "nonpayable",
      "type": "function"
    },
    {
      "inputs": [],
      "name": "investFromMatic",
      "outputs": [
        {
          "internalType": "bool",
          "name": "",
          "type": "bool"
        }
      ],
      "stateMutability": "payable",
      "type": "function"
    },
    {
      "inputs": [
        {
          "internalType": "address",
          "name": "",
          "type": "address"
        }
      ],
      "name": "investorData",
      "outputs": [
        {
          "internalType": "bool",
          "name": "isWhiteListed",
          "type": "bool"
        },
        {
          "internalType": "bool",
          "name": "isQualifiedInvestor",
          "type": "bool"
        },
        {
          "internalType": "uint256",
          "name": "totalHyaxBoughtByInvestor",
          "type": "uint256"
        },
        {
          "internalType": "uint256",
          "name": "totalUsdDepositedByInvestor",
          "type": "uint256"
        }
      ],
      "stateMutability": "view",
      "type": "function"
    },
    {
      "inputs": [],
      "name": "maticPriceFeedAddress",
      "outputs": [
        {
          "internalType": "address",
          "name": "",
          "type": "address"
        }
      ],
      "stateMutability": "view",
      "type": "function"
    },
    {
      "inputs": [],
      "name": "maximumInvestmentAllowedInUSD",
      "outputs": [
        {
          "internalType": "uint256",
          "name": "",
          "type": "uint256"
        }
      ],
      "stateMutability": "view",
      "type": "function"
    },
    {
      "inputs": [],
      "name": "minimumInvestmentAllowedInUSD",
      "outputs": [
        {
          "internalType": "uint256",
          "name": "",
          "type": "uint256"
        }
      ],
      "stateMutability": "view",
      "type": "function"
    },
    {
      "inputs": [],
      "name": "name",
      "outputs": [
        {
          "internalType": "string",
          "name": "",
          "type": "string"
        }
      ],
      "stateMutability": "view",
      "type": "function"
    },
    {
      "inputs": [],
      "name": "owner",
      "outputs": [
        {
          "internalType": "address",
          "name": "",
          "type": "address"
        }
      ],
      "stateMutability": "view",
      "type": "function"
    },
    {
      "inputs": [],
      "name": "pause",
      "outputs": [],
      "stateMutability": "nonpayable",
      "type": "function"
    },
    {
      "inputs": [],
      "name": "paused",
      "outputs": [
        {
          "internalType": "bool",
          "name": "",
          "type": "bool"
        }
      ],
      "stateMutability": "view",
      "type": "function"
    },
    {
      "inputs": [
        {
          "internalType": "address",
          "name": "_qualifiedInvestorAddress",
          "type": "address"
        }
      ],
      "name": "removeFromQualifiedInvestorList",
      "outputs": [],
      "stateMutability": "nonpayable",
      "type": "function"
    },
    {
      "inputs": [
        {
          "internalType": "address",
          "name": "_investorAddress",
          "type": "address"
        }
      ],
      "name": "removeFromWhiteList",
      "outputs": [],
      "stateMutability": "nonpayable",
      "type": "function"
    },
    {
      "inputs": [],
      "name": "renounceOwnership",
      "outputs": [],
      "stateMutability": "nonpayable",
      "type": "function"
    },
    {
      "inputs": [],
      "name": "symbol",
      "outputs": [
        {
          "internalType": "string",
          "name": "",
          "type": "string"
        }
      ],
      "stateMutability": "view",
      "type": "function"
    },
    {
      "inputs": [
        {
          "internalType": "uint256",
          "name": "_amount",
          "type": "uint256"
        }
      ],
      "name": "tokenIssuance",
      "outputs": [],
      "stateMutability": "nonpayable",
      "type": "function"
    },
    {
      "inputs": [],
      "name": "totalSupply",
      "outputs": [
        {
          "internalType": "uint256",
          "name": "",
          "type": "uint256"
        }
      ],
      "stateMutability": "view",
      "type": "function"
    },
    {
      "inputs": [
        {
          "internalType": "address",
          "name": "to",
          "type": "address"
        },
        {
          "internalType": "uint256",
          "name": "value",
          "type": "uint256"
        }
      ],
      "name": "transfer",
      "outputs": [
        {
          "internalType": "bool",
          "name": "",
          "type": "bool"
        }
      ],
      "stateMutability": "nonpayable",
      "type": "function"
    },
    {
      "inputs": [
        {
          "internalType": "address",
          "name": "from",
          "type": "address"
        },
        {
          "internalType": "address",
          "name": "to",
          "type": "address"
        },
        {
          "internalType": "uint256",
          "name": "value",
          "type": "uint256"
        }
      ],
      "name": "transferFrom",
      "outputs": [
        {
          "internalType": "bool",
          "name": "",
          "type": "bool"
        }
      ],
      "stateMutability": "nonpayable",
      "type": "function"
    },
    {
      "inputs": [
        {
          "internalType": "address",
          "name": "newOwner",
          "type": "address"
        }
      ],
      "name": "transferOwnership",
      "outputs": [],
      "stateMutability": "nonpayable",
      "type": "function"
    },
    {
      "inputs": [],
      "name": "treasuryAddress",
      "outputs": [
        {
          "internalType": "address",
          "name": "",
          "type": "address"
        }
      ],
      "stateMutability": "view",
      "type": "function"
    },
    {
      "inputs": [],
      "name": "unpause",
      "outputs": [],
      "stateMutability": "nonpayable",
      "type": "function"
    },
    {
      "inputs": [
        {
          "internalType": "uint256",
          "name": "_newHyaxPrice",
          "type": "uint256"
        }
      ],
      "name": "updateHyaxPrice",
      "outputs": [],
      "stateMutability": "nonpayable",
      "type": "function"
    },
    {
      "inputs": [
        {
          "internalType": "uint256",
          "name": "_newMaximumInvestmentAllowedInUSD",
          "type": "uint256"
        }
      ],
      "name": "updateMaximumInvestmentAllowedInUSD",
      "outputs": [],
      "stateMutability": "nonpayable",
      "type": "function"
    },
    {
      "inputs": [
        {
          "internalType": "uint256",
          "name": "_newMinimumInvestmentAllowedInUSD",
          "type": "uint256"
        }
      ],
      "name": "updateMinimumInvestmentAllowedInUSD",
      "outputs": [],
      "stateMutability": "nonpayable",
      "type": "function"
    },
    {
      "inputs": [
        {
          "internalType": "enum HYAXLocal.TokenType",
          "name": "tokenType",
          "type": "uint8"
        },
        {
          "internalType": "address",
          "name": "newPriceFeedAddress",
          "type": "address"
        }
      ],
      "name": "updatePriceFeedAddress",
      "outputs": [],
      "stateMutability": "nonpayable",
      "type": "function"
    },
    {
      "inputs": [
        {
          "internalType": "enum HYAXLocal.TokenType",
          "name": "tokenType",
          "type": "uint8"
        },
        {
          "internalType": "address",
          "name": "newTokenAddress",
          "type": "address"
        }
      ],
      "name": "updateTokenAddress",
      "outputs": [],
      "stateMutability": "nonpayable",
      "type": "function"
    },
    {
      "inputs": [
        {
          "internalType": "address",
          "name": "_newTreasuryAddress",
          "type": "address"
        }
      ],
      "name": "updateTreasuryAddress",
      "outputs": [],
      "stateMutability": "nonpayable",
      "type": "function"
    },
    {
      "inputs": [
        {
          "internalType": "address",
          "name": "_newWhiteListerAddress",
          "type": "address"
        }
      ],
      "name": "updateWhiteListerAddress",
      "outputs": [],
      "stateMutability": "nonpayable",
      "type": "function"
    },
    {
      "inputs": [],
      "name": "usdcPriceFeedAddress",
      "outputs": [
        {
          "internalType": "address",
          "name": "",
          "type": "address"
        }
      ],
      "stateMutability": "view",
      "type": "function"
    },
    {
      "inputs": [],
      "name": "usdcToken",
      "outputs": [
        {
          "internalType": "contract ERC20TokenInterface",
          "name": "",
          "type": "address"
        }
      ],
      "stateMutability": "view",
      "type": "function"
    },
    {
      "inputs": [],
      "name": "usdcTokenAddress",
      "outputs": [
        {
          "internalType": "address",
          "name": "",
          "type": "address"
        }
      ],
      "stateMutability": "view",
      "type": "function"
    },
    {
      "inputs": [],
      "name": "usdtPriceFeedAddress",
      "outputs": [
        {
          "internalType": "address",
          "name": "",
          "type": "address"
        }
      ],
      "stateMutability": "view",
      "type": "function"
    },
    {
      "inputs": [],
      "name": "usdtToken",
      "outputs": [
        {
          "internalType": "contract ERC20TokenInterface",
          "name": "",
          "type": "address"
        }
      ],
      "stateMutability": "view",
      "type": "function"
    },
    {
      "inputs": [],
      "name": "usdtTokenAddress",
      "outputs": [
        {
          "internalType": "address",
          "name": "",
          "type": "address"
        }
      ],
      "stateMutability": "view",
      "type": "function"
    },
    {
      "inputs": [
        {
          "internalType": "uint256",
          "name": "_totalInvestmentInUsd",
          "type": "uint256"
        },
        {
          "internalType": "address",
          "name": "_investorAddress",
          "type": "address"
        }
      ],
      "name": "validateMaximumInvestedAmountAndInvestorLimit",
      "outputs": [],
      "stateMutability": "view",
      "type": "function"
    },
    {
      "inputs": [],
      "name": "wbtcPriceFeedAddress",
      "outputs": [
        {
          "internalType": "address",
          "name": "",
          "type": "address"
        }
      ],
      "stateMutability": "view",
      "type": "function"
    },
    {
      "inputs": [],
      "name": "wbtcToken",
      "outputs": [
        {
          "internalType": "contract ERC20TokenInterface",
          "name": "",
          "type": "address"
        }
      ],
      "stateMutability": "view",
      "type": "function"
    },
    {
      "inputs": [],
      "name": "wbtcTokenAddress",
      "outputs": [
        {
          "internalType": "address",
          "name": "",
          "type": "address"
        }
      ],
      "stateMutability": "view",
      "type": "function"
    },
    {
      "inputs": [],
      "name": "wethPriceFeedAddress",
      "outputs": [
        {
          "internalType": "address",
          "name": "",
          "type": "address"
        }
      ],
      "stateMutability": "view",
      "type": "function"
    },
    {
      "inputs": [],
      "name": "wethToken",
      "outputs": [
        {
          "internalType": "contract ERC20TokenInterface",
          "name": "",
          "type": "address"
        }
      ],
      "stateMutability": "view",
      "type": "function"
    },
    {
      "inputs": [],
      "name": "wethTokenAddress",
      "outputs": [
        {
          "internalType": "address",
          "name": "",
          "type": "address"
        }
      ],
      "stateMutability": "view",
      "type": "function"
    },
    {
      "inputs": [],
      "name": "whiteListerAddress",
      "outputs": [
        {
          "internalType": "address",
          "name": "",
          "type": "address"
        }
      ],
      "stateMutability": "view",
      "type": "function"
    },
    {
      "stateMutability": "payable",
      "type": "receive"
    }
  ],
  "bytecode": "0x60806040523480156200001157600080fd5b503360405180604001604052806009815260200168242ca0ac2a37b5b2b760b91b81525060405180604001604052806004815260200163090b282b60e31b8152508160039081620000639190620005b1565b506004620000728282620005b1565b50506005805460ff19169055506001600160a01b038116620000af57604051631e4fbdf760e01b8152600060048201526024015b60405180910390fd5b620000ba81620002ff565b50620000e433620000ce6012600a62000792565b620000de90631dcd6500620007aa565b62000359565b620927c0603855620000f96012600a62000792565b62000106906001620007aa565b603955620001176012600a62000792565b6200012590612710620007aa565b603a55603b80546001600160a01b03199081167301c2f012de19e6436744c3f81f56e9e70c93a8c317909155603c8054821673350441f8a82680a785ffa9d3efea60bb4ca417f8179055603e80548216721382149eba3441043c1c66972b4772963f5d43908117909155603f80548316909117905560408054821673f68054bfe5d45432ffca28ffa1f3d685d0456ddc908117909155604180548316731b8739bb4cdf0089d07097a9ae5bd274b29c6f16908117909155604280548416909117905560438054831690911790556044805482167370e02fb82b6bc04f64099689b0599e14b44d4fbb908117909155604580548316733ac23dcb4ecfcbd24579e1f34542524d0e4edea890811790915560468054841690911790556047805483169091179055604880548216733c8df3c48b3884da2ff25e17524282d60f9c3b9390811790915560498054831673e7656e23fe8077d438aefbec2fabdf2d8e070c4f908117909155604a805484169091179055604b805483169091179055604c8054821673524a89ed77d5827320e35e12bca96830c6b7960a908117909155604d8054831673f0d50568e3a7e8259e16663972b11910f89bd8e7908117909155604e805484169091179055604f8054909216179055620007da565b600580546001600160a01b03838116610100818102610100600160a81b031985161790945560405193909204169182907f8be0079c531659141344cd1fd0a4f28419497f9722a3daafe3b4186f6b6457e090600090a35050565b6001600160a01b038216620003855760405163ec442f0560e01b815260006004820152602401620000a6565b620003936000838362000397565b5050565b620003a1620003b3565b620003ae838383620003da565b505050565b60055460ff1615620003d85760405163d93c066560e01b815260040160405180910390fd5b565b6001600160a01b03831662000409578060026000828254620003fd9190620007c4565b909155506200047d9050565b6001600160a01b038316600090815260208190526040902054818110156200045e5760405163391434e360e21b81526001600160a01b03851660048201526024810182905260448101839052606401620000a6565b6001600160a01b03841660009081526020819052604090209082900390555b6001600160a01b0382166200049b57600280548290039055620004ba565b6001600160a01b03821660009081526020819052604090208054820190555b816001600160a01b0316836001600160a01b03167fddf252ad1be2c89b69c2b068fc378daa952ba7f163c4a11628f55a4df523b3ef836040516200050091815260200190565b60405180910390a3505050565b634e487b7160e01b600052604160045260246000fd5b600181811c908216806200053857607f821691505b6020821081036200055957634e487b7160e01b600052602260045260246000fd5b50919050565b601f821115620003ae57600081815260208120601f850160051c81016020861015620005885750805b601f850160051c820191505b81811015620005a95782815560010162000594565b505050505050565b81516001600160401b03811115620005cd57620005cd6200050d565b620005e581620005de845462000523565b846200055f565b602080601f8311600181146200061d5760008415620006045750858301515b600019600386901b1c1916600185901b178555620005a9565b600085815260208120601f198616915b828110156200064e578886015182559484019460019091019084016200062d565b50858210156200066d5787850151600019600388901b60f8161c191681555b5050505050600190811b01905550565b634e487b7160e01b600052601160045260246000fd5b600181815b80851115620006d4578160001904821115620006b857620006b86200067d565b80851615620006c657918102915b93841c939080029062000698565b509250929050565b600082620006ed575060016200078c565b81620006fc575060006200078c565b8160018114620007155760028114620007205762000740565b60019150506200078c565b60ff8411156200073457620007346200067d565b50506001821b6200078c565b5060208310610133831016604e8410600b841016171562000765575081810a6200078c565b62000771838362000693565b80600019048211156200078857620007886200067d565b0290505b92915050565b6000620007a360ff841683620006dc565b9392505050565b80820281158282048414176200078c576200078c6200067d565b808201808211156200078c576200078c6200067d565b614b8c80620007ea6000396000f3fe6080604052600436106103385760003560e01c806365699d28116101b057806395d89b41116100ec578063bb6f98fb11610095578063de1f53461161006f578063de1f53461461094e578063f2fde38b146109b8578063f7a47f81146109d8578063fb2dc76e146109f857600080fd5b8063bb6f98fb146108c8578063c5f956af146108e8578063dd62ed3e1461090857600080fd5b8063a98ad46c116100c6578063a98ad46c14610868578063b2c568f314610888578063b40ed449146108a857600080fd5b806395d89b41146108135780639d741e5d14610828578063a9059cbb1461084857600080fd5b80638049bcb6116101595780638456cb59116101335780638456cb59146107865780638c945e631461079b5780638da5cb5b146107d05780638f7c7167146107f357600080fd5b80638049bcb6146107305780638116de2b14610746578063841e45611461076657600080fd5b8063731de5141161018a578063731de514146106d057806377b53ece146106f05780637ce5643a1461071057600080fd5b806365699d281461066557806370a0823114610685578063715018a6146106bb57600080fd5b8063313ce5671161027f57806347ee0394116102285780635ae9384e116102025780635ae9384e146105ed5780635c975abb1461060d5780635ec2562a14610625578063653c3a471461064557600080fd5b806347ee03941461058d5780634b57b0be146105ad5780634c526bdb146105cd57600080fd5b80633de6f379116102595780633de6f379146105385780633f4ba83a1461055857806340b5ea9c1461056d57600080fd5b8063313ce567146104fe578063377c779f1461051a5780633b14f3591461053057600080fd5b8063128ef022116102e157806323c66f9a116102bb57806323c66f9a146104a857806327614df8146104c85780632a241ad3146104e857600080fd5b8063128ef0221461044957806318160ddd1461046957806323b872dd1461048857600080fd5b8063095ea7b311610312578063095ea7b3146103d95780630f9dad711461040957806311eac8551461042957600080fd5b806301bf66481461035657806306fdde031461037657806308cd468f146103a157600080fd5b3661035157610345610a18565b61034f6001600655565b005b600080fd5b34801561036257600080fd5b5061034f6103713660046144ea565b610a76565b34801561038257600080fd5b5061038b610cd1565b6040516103989190614530565b60405180910390f35b3480156103ad57600080fd5b506045546103c1906001600160a01b031681565b6040516001600160a01b039091168152602001610398565b3480156103e557600080fd5b506103f96103f4366004614581565b610d63565b6040519015158152602001610398565b34801561041557600080fd5b50604c546103c1906001600160a01b031681565b34801561043557600080fd5b506043546103c1906001600160a01b031681565b34801561045557600080fd5b5061034f6104643660046145ab565b610d7d565b34801561047557600080fd5b506002545b604051908152602001610398565b34801561049457600080fd5b506103f96104a33660046145c4565b610fa1565b3480156104b457600080fd5b5061034f6104c336600461460f565b610fc5565b3480156104d457600080fd5b50604b546103c1906001600160a01b031681565b3480156104f457600080fd5b5061047a60395481565b34801561050a57600080fd5b5060405160128152602001610398565b34801561052657600080fd5b5061047a60385481565b6103f961195a565b34801561054457600080fd5b5061034f61055336600461460f565b611ceb565b34801561056457600080fd5b5061034f6121b6565b34801561057957600080fd5b506041546103c1906001600160a01b031681565b34801561059957600080fd5b5061034f6105a83660046144ea565b6121c8565b3480156105b957600080fd5b50604f546103c1906001600160a01b031681565b3480156105d957600080fd5b506048546103c1906001600160a01b031681565b3480156105f957600080fd5b50604d546103c1906001600160a01b031681565b34801561061957600080fd5b5060055460ff166103f9565b34801561063157600080fd5b5061034f6106403660046145ab565b612490565b34801561065157600080fd5b5061034f6106603660046144ea565b61267e565b34801561067157600080fd5b50603b546103c1906001600160a01b031681565b34801561069157600080fd5b5061047a6106a03660046144ea565b6001600160a01b031660009081526020819052604090205490565b3480156106c757600080fd5b5061034f6127ec565b3480156106dc57600080fd5b506103f96106eb366004614642565b6127fe565b3480156106fc57600080fd5b506040546103c1906001600160a01b031681565b34801561071c57600080fd5b5061034f61072b3660046144ea565b612e68565b34801561073c57600080fd5b5061047a603a5481565b34801561075257600080fd5b5061034f61076136600461465e565b6130e7565b34801561077257600080fd5b5061034f6107813660046144ea565b6131d7565b34801561079257600080fd5b5061034f613345565b3480156107a757600080fd5b506107bb6107b6366004614681565b613355565b60408051928352602083019190915201610398565b3480156107dc57600080fd5b5060055461010090046001600160a01b03166103c1565b3480156107ff57600080fd5b5061034f61080e3660046144ea565b6134e1565b34801561081f57600080fd5b5061038b6137f3565b34801561083457600080fd5b506044546103c1906001600160a01b031681565b34801561085457600080fd5b506103f9610863366004614581565b613802565b34801561087457600080fd5b506047546103c1906001600160a01b031681565b34801561089457600080fd5b5061034f6108a33660046145ab565b613810565b3480156108b457600080fd5b5061034f6108c33660046145ab565b6139fe565b3480156108d457600080fd5b5061047a6108e33660046146a3565b613bf2565b3480156108f457600080fd5b50603c546103c1906001600160a01b031681565b34801561091457600080fd5b5061047a6109233660046146be565b6001600160a01b03918216600090815260016020908152604080832093909416825291909152205490565b34801561095a57600080fd5b506109966109693660046144ea565b603d6020526000908152604090208054600182015460029092015460ff8083169361010090930416919084565b6040805194151585529215156020850152918301526060820152608001610398565b3480156109c457600080fd5b5061034f6109d33660046144ea565b613dc3565b3480156109e457600080fd5b506049546103c1906001600160a01b031681565b348015610a0457600080fd5b50603e546103c1906001600160a01b031681565b600260065403610a6f5760405162461bcd60e51b815260206004820152601f60248201527f5265656e7472616e637947756172643a207265656e7472616e742063616c6c0060448201526064015b60405180910390fd5b6002600655565b60055461010090046001600160a01b03166001600160a01b0316336001600160a01b03161480610ab05750603b546001600160a01b031633145b610b24576040805162461bcd60e51b81526020600482015260248101919091527f46756e6374696f6e207265736572766564206f6e6c7920666f7220746865207760448201527f68697465206c69737465722061646472657373206f7220746865206f776e65726064820152608401610a66565b6001600160a01b038116610bc65760405162461bcd60e51b815260206004820152604960248201527f496e766573746f72206164647265737320746f2072656d6f76652066726f6d2060448201527f746865207768697465206c6973742063616e6e6f7420626520746865207a657260648201527f6f20616464726573730000000000000000000000000000000000000000000000608482015260a401610a66565b6001600160a01b0381166000908152603d602052604090205460ff16610c545760405162461bcd60e51b815260206004820152603960248201527f5468617420696e766573746f722061646472657373206973206e6f742072656760448201527f69737465726564206f6e20746865207768697465206c697374000000000000006064820152608401610a66565b6001600160a01b0381166000818152603d602090815260409182902080547fffffffffffffffffffffffffffffffffffffffffffffffffffffffffffffff001690558151338152908101929092527f41b8ea78b0816bef99ff095d54fbe2cef1f50003e09ce81445df1f89d957994491015b60405180910390a150565b606060038054610ce0906146da565b80601f0160208091040260200160405190810160405280929190818152602001828054610d0c906146da565b8015610d595780601f10610d2e57610100808354040283529160200191610d59565b820191906000526020600020905b815481529060010190602001808311610d3c57829003601f168201915b5050505050905090565b600033610d71818585613ece565b60019150505b92915050565b610d85613edb565b610d8d610a18565b610d996012600a614876565b811015610e0e5760405162461bcd60e51b815260206004820152603760248201527f416d6f756e74206f66204859415820746f6b656e7320746f206973737565206d60448201527f757374206265206174206c65617374203120746f6b656e0000000000000000006064820152608401610a66565b610e1a6012600a614876565b610e2890633b9aca00614885565b811115610e9d5760405162461bcd60e51b815260206004820152603f60248201527f416d6f756e74206f66204859415820746f6b656e7320746f206973737565206160448201527f7420612074696d65206d757374206265206d6178696d756d2031303030204d006064820152608401610a66565b610ea96012600a614876565b610eb8906402540be400614885565b81610ec260025490565b610ecc919061489c565b1115610f405760405162461bcd60e51b815260206004820152603b60248201527f416d6f756e74206f66204859415820746f6b656e7320746f206973737565207360448201527f75727061736573207468652031302c303030204d20746f6b656e7300000000006064820152608401610a66565b600554610f5b9061010090046001600160a01b031682613f27565b60408051338152602081018390527f455064bbf1374d9e833b8d9db24c56b24dbf79cc1a94a30665cae7093963d5a8910160405180910390a1610f9e6001600655565b50565b600033610faf858285613f76565b610fba85858561402b565b506001949350505050565b610fcd613edb565b6001600160a01b0381166110495760405162461bcd60e51b815260206004820152603660248201527f5468652070726963652064617461206665656420616464726573732063616e6e60448201527f6f7420626520746865207a65726f2061646472657373000000000000000000006064820152608401610a66565b8060008080856004811115611060576110606148af565b0361113557603e546001600160a01b03908116908516036110eb576040805162461bcd60e51b81526020600482015260248101919091527f4d41544943207072696365206665656420616464726573732068617320616c7260448201527f65616479206265656e206d6f64696669656420746f20746861742076616c75656064820152608401610a66565b6040517f4d41544943202f205553440000000000000000000000000000000000000000006020820152602b015b6040516020818303038152906040528051906020012091506114b5565b6001856004811115611149576111496148af565b03611203576041546001600160a01b03908116908516036111d25760405162461bcd60e51b815260206004820152603f60248201527f55534443207072696365206665656420616464726573732068617320616c726560448201527f616479206265656e206d6f64696669656420746f20746861742076616c7565006064820152608401610a66565b6040517f55534443202f20555344000000000000000000000000000000000000000000006020820152602a01611118565b6002856004811115611217576112176148af565b036112d1576045546001600160a01b03908116908516036112a05760405162461bcd60e51b815260206004820152603f60248201527f55534454207072696365206665656420616464726573732068617320616c726560448201527f616479206265656e206d6f64696669656420746f20746861742076616c7565006064820152608401610a66565b6040517f55534454202f20555344000000000000000000000000000000000000000000006020820152602a01611118565b60038560048111156112e5576112e56148af565b0361139f576049546001600160a01b039081169085160361136e5760405162461bcd60e51b815260206004820152603f60248201527f57425443207072696365206665656420616464726573732068617320616c726560448201527f616479206265656e206d6f64696669656420746f20746861742076616c7565006064820152608401610a66565b6040517f57425443202f20555344000000000000000000000000000000000000000000006020820152602a01611118565b60048560048111156113b3576113b36148af565b0361146d57604d546001600160a01b039081169085160361143c5760405162461bcd60e51b815260206004820152603f60248201527f57455448207072696365206665656420616464726573732068617320616c726560448201527f616479206265656e206d6f64696669656420746f20746861742076616c7565006064820152608401610a66565b6040517f455448202f2055534400000000000000000000000000000000000000000000006020820152602901611118565b60405162461bcd60e51b815260206004820152601260248201527f496e76616c696420746f6b656e207479706500000000000000000000000000006044820152606401610a66565b826001600160a01b0316637284e4166040518163ffffffff1660e01b8152600401600060405180830381865afa92505050801561153257506040513d6000823e601f3d9081017fffffffffffffffffffffffffffffffffffffffffffffffffffffffffffffffe016820160405261152f919081019061490d565b60015b6115ca5760405162461bcd60e51b815260206004820152604660248201527f546865206e6577206164647265737320646f6573206e6f74207365656d20746f60448201527f2062656c6f6e6720746f2074686520636f72726563742070726963652064617460648201527f6120666565640000000000000000000000000000000000000000000000000000608482015260a401610a66565b806040516020016115db91906149d8565b60405160208183030381529060405280519060200120915081831461168e5760405162461bcd60e51b815260206004820152604660248201527f546865206e6577206164647265737320646f6573206e6f74207365656d20746f60448201527f2062656c6f6e6720746f2074686520636f72726563742070726963652064617460648201527f6120666565640000000000000000000000000000000000000000000000000000608482015260a401610a66565b5060008560048111156116a3576116a36148af565b0361172357603e80546001600160a01b0386167fffffffffffffffffffffffff00000000000000000000000000000000000000009182168117909255603f8054909116821790556040519081527fee9bc8d900b5d69f934ec4a3986b3bfda61add54821456c3f7e943e87cf48f52906020015b60405180910390a1611953565b6001856004811115611737576117376148af565b036117ae57604180546001600160a01b0386167fffffffffffffffffffffffff0000000000000000000000000000000000000000918216811790925560428054909116821790556040519081527f0a0bc5dadd9d9c881861f6da8998bebef8eabcb5f3d6651187c5d1899e32796590602001611716565b60028560048111156117c2576117c26148af565b0361183957604580546001600160a01b0386167fffffffffffffffffffffffff0000000000000000000000000000000000000000918216811790925560468054909116821790556040519081527f1e5bfe0b7fe6fcdc586b9e3a4fbdc0bdb1346d36173963ba38c897137ba1603190602001611716565b600385600481111561184d5761184d6148af565b036118c457604980546001600160a01b0386167fffffffffffffffffffffffff00000000000000000000000000000000000000009182168117909255604a8054909116821790556040519081527f2171c3cfa3d86551d618c9da7164a608dd795715bf61402d9ccb45cf5433a07690602001611716565b60048560048111156118d8576118d86148af565b0361195357604d80546001600160a01b0386167fffffffffffffffffffffffff00000000000000000000000000000000000000009182168117909255604e8054909116821790556040519081527fc21be1e8c8d6de83e19ad6de75cd885eefac75be87e532a0a04d02147004e5209060200160405180910390a15b5050505050565b336000908152603d602052604081205460ff166119df5760405162461bcd60e51b815260206004820152603560248201527f496e766573746f72206164647265737320686173206e6f74206265656e20616460448201527f64656420746f20746865207768697465206c69737400000000000000000000006064820152608401610a66565b6119e7610a18565b600080611a5c34306001600160a01b031663bb6f98fb60006040518263ffffffff1660e01b8152600401611a1b9190614a2f565b602060405180830381865afa158015611a38573d6000803e3d6000fd5b505050506040513d601f19601f820116820180604052508101906107b69190614a3d565b91509150611a6a82336130e7565b603c546040516001600160a01b03909116903480156108fc02916000818181858888f19350505050611b2a5760405162461bcd60e51b815260206004820152604260248201527f54686572652077617320616e206572726f72206f6e2073656e64696e6720746860448201527f65204d4154494320696e766573746d656e7420746f207468652074726561737560648201527f7279000000000000000000000000000000000000000000000000000000000000608482015260a401610a66565b6040517fa9059cbb00000000000000000000000000000000000000000000000000000000815233600482015260248101829052309063a9059cbb906044016020604051808303816000875af1158015611b87573d6000803e3d6000fd5b505050506040513d601f19601f82011682018060405250810190611bab9190614a56565b611c435760405162461bcd60e51b815260206004820152604160248201527f54686572652077617320616e206572726f72206f6e2073656e64696e6720626160448201527f636b20746865204859415820546f6b656e20746f2074686520696e766573746f60648201527f7200000000000000000000000000000000000000000000000000000000000000608482015260a401610a66565b336000908152603d602052604081206002018054849290611c6590849061489c565b9091555050336000908152603d602052604081206001018054839290611c8c90849061489c565b909155505060408051338152346020820152908101839052606081018290527fe036cb252631bb3e3fbcb1aa359dd09f94f0dac1fe6de828e8bae3f5028331c59060800160405180910390a1600192505050611ce86001600655565b90565b611cf3613edb565b6001600160a01b038116611d6f5760405162461bcd60e51b815260206004820152602c60248201527f54686520746f6b656e20616464726573732063616e6e6f74206265207468652060448201527f7a65726f206164647265737300000000000000000000000000000000000000006064820152608401610a66565b6001826004811115611d8357611d836148af565b03611e85576040546001600160a01b0390811690821603611e0c5760405162461bcd60e51b815260206004820152603a60248201527f5553444320746f6b656e20616464726573732068617320616c7265616479206260448201527f65656e206d6f64696669656420746f20746861742076616c75650000000000006064820152608401610a66565b604080546001600160a01b0383167fffffffffffffffffffffffff00000000000000000000000000000000000000009182168117835560438054909216811790915590519081527f8b3f52c1d10699944ebee74ee29dca11c9c86bb0dbedef4abd6e737f613d4d3a906020015b60405180910390a15050565b6002826004811115611e9957611e996148af565b03611f94576044546001600160a01b0390811690821603611f225760405162461bcd60e51b815260206004820152603a60248201527f5553445420746f6b656e20616464726573732068617320616c7265616479206260448201527f65656e206d6f64696669656420746f20746861742076616c75650000000000006064820152608401610a66565b604480546001600160a01b0383167fffffffffffffffffffffffff0000000000000000000000000000000000000000918216811790925560478054909116821790556040519081527f1c2d8a05be2c8eca524d44cc224513d7e19ca97ac309c3e23bee450f8578ca1990602001611e79565b6003826004811115611fa857611fa86148af565b036120a3576048546001600160a01b03908116908216036120315760405162461bcd60e51b815260206004820152603a60248201527f5742544320746f6b656e20616464726573732068617320616c7265616479206260448201527f65656e206d6f64696669656420746f20746861742076616c75650000000000006064820152608401610a66565b604880546001600160a01b0383167fffffffffffffffffffffffff00000000000000000000000000000000000000009182168117909255604b8054909116821790556040519081527f95082f719648371f180ca4f9bad55a2ae7c2d029bbf93e360584ca6ea06327ea90602001611e79565b60048260048111156120b7576120b76148af565b0361146d57604c546001600160a01b03908116908216036121405760405162461bcd60e51b815260206004820152603a60248201527f5745544820746f6b656e20616464726573732068617320616c7265616479206260448201527f65656e206d6f64696669656420746f20746861742076616c75650000000000006064820152608401610a66565b604c80546001600160a01b0383167fffffffffffffffffffffffff00000000000000000000000000000000000000009182168117909255604f8054909116821790556040519081527ff5fd160f565ac0e80215e9eced5afbfcd47389e99858fac6a3d93f2ec38ff6d690602001611e79565b5050565b6121be613edb565b6121c66140bc565b565b60055461010090046001600160a01b03166001600160a01b0316336001600160a01b031614806122025750603b546001600160a01b031633145b612276576040805162461bcd60e51b81526020600482015260248101919091527f46756e6374696f6e207265736572766564206f6e6c7920666f7220746865207760448201527f68697465206c69737465722061646472657373206f7220746865206f776e65726064820152608401610a66565b6001600160a01b0381166123195760405162461bcd60e51b8152602060048201526044602482018190527f496e766573746f72206164647265737320746f2061646420746f207468652077908201527f68697465206c6973742063616e6e6f7420626520746865207a65726f2061646460648201527f7265737300000000000000000000000000000000000000000000000000000000608482015260a401610a66565b6001600160a01b0381166000908152603d602052604090205460ff16156123a85760405162461bcd60e51b815260206004820152603e60248201527f5468617420696e766573746f7220616464726573732068617320616c7265616460448201527f79206265656e20616464656420746f20746865207768697465206c69737400006064820152608401610a66565b60408051608081018252600060208083018281528385018381526060850184815260018087526001600160a01b038916808752603d8652958890208751815495517fffffffffffffffffffffffffffffffffffffffffffffffffffffffffffff00009096169015157fffffffffffffffffffffffffffffffffffffffffffffffffffffffffffff00ff16176101009515159590950294909417845591519183019190915551600290910155835133815290810191909152825191927f8419b79dc227f7841e7bf32cea35c3f90fe5b3da68cde93adef3c32745c587de92918290030190a15050565b612498613edb565b6000811161250e5760405162461bcd60e51b815260206004820152603760248201527f4e6577206d6178696d756d20616d6f756e7420746f20696e766573742c206d7560448201527f73742062652067726561746572207468616e207a65726f0000000000000000006064820152608401610a66565b603a5481036125ab5760405162461bcd60e51b815260206004820152604560248201527f4e6577206d6178696d756d20616d6f756e7420746f20696e766573742c20686160448201527f7320616c7265616479206265656e206d6f64696669656420746f20746861742060648201527f76616c7565000000000000000000000000000000000000000000000000000000608482015260a401610a66565b6039548110156126495760405162461bcd60e51b815260206004820152605160248201527f4e6577206d6178696d756d20616d6f756e7420746f20696e766573742c206d7560448201527f73742062652067726561746572207468616e20746865206d696e696d756d206960648201527f6e766573746d656e7420616c6c6f776564000000000000000000000000000000608482015260a401610a66565b603a8190556040518181527f29d434ec19958e7ce86ca2870f5927ab4f948d916dcffc568c1343c1e1f7656690602001610cc6565b612686613edb565b6001600160a01b0381166127025760405162461bcd60e51b815260206004820152603360248201527f546865207768697465206c697374657220616464726573732063616e6e6f742060448201527f626520746865207a65726f2061646472657373000000000000000000000000006064820152608401610a66565b603b546001600160a01b03908116908216036127865760405162461bcd60e51b815260206004820152603c60248201527f5768697465206c697374657220616464726573732068617320616c726561647960448201527f206265656e206d6f64696669656420746f20746861742076616c7565000000006064820152608401610a66565b603b80547fffffffffffffffffffffffff0000000000000000000000000000000000000000166001600160a01b0383169081179091556040519081527f32359536720adedfb2b6c6dd7685519f09fdf93ce7824b68d5b2f56354fdebec90602001610cc6565b6127f4613edb565b6121c6600061412c565b336000908152603d602052604081205460ff166128835760405162461bcd60e51b815260206004820152603560248201527f496e766573746f72206164647265737320686173206e6f74206265656e20616460448201527f64656420746f20746865207768697465206c69737400000000000000000000006064820152608401610a66565b61288b610a18565b60008060018560048111156128a2576128a26148af565b0361293b576043546040517fbb6f98fb0000000000000000000000000000000000000000000000000000000081526001600160a01b039091169250309063bb6f98fb906128f3908890600401614a2f565b602060405180830381865afa158015612910573d6000803e3d6000fd5b505050506040513d601f19601f820116820180604052508101906129349190614a3d565b9050612a6a565b600285600481111561294f5761294f6148af565b036129a0576047546040517fbb6f98fb0000000000000000000000000000000000000000000000000000000081526001600160a01b039091169250309063bb6f98fb906128f3908890600401614a2f565b60038560048111156129b4576129b46148af565b03612a0557604b546040517fbb6f98fb0000000000000000000000000000000000000000000000000000000081526001600160a01b039091169250309063bb6f98fb906128f3908890600401614a2f565b6004856004811115612a1957612a196148af565b0361146d57604f546040517fbb6f98fb0000000000000000000000000000000000000000000000000000000081526001600160a01b039091169250309063bb6f98fb906128f3908890600401614a2f565b600080612a778684613355565b91509150612a8582336130e7565b6040517f23b872dd000000000000000000000000000000000000000000000000000000008152336004820152306024820152604481018790526001600160a01b038516906323b872dd906064016020604051808303816000875af1158015612af1573d6000803e3d6000fd5b505050506040513d601f19601f82011682018060405250810190612b159190614a56565b612b875760405162461bcd60e51b815260206004820152603460248201527f54686572652077617320616e206572726f72206f6e20726563656976696e672060448201527f74686520746f6b656e20696e766573746d656e740000000000000000000000006064820152608401610a66565b603c546040517fa9059cbb0000000000000000000000000000000000000000000000000000000081526001600160a01b039182166004820152602481018890529085169063a9059cbb906044016020604051808303816000875af1158015612bf3573d6000803e3d6000fd5b505050506040513d601f19601f82011682018060405250810190612c179190614a56565b612caf5760405162461bcd60e51b815260206004820152604260248201527f54686572652077617320616e206572726f72206f6e2073656e64696e6720746860448201527f6520746f6b656e20696e766573746d656e7420746f207468652074726561737560648201527f7279000000000000000000000000000000000000000000000000000000000000608482015260a401610a66565b6040517fa9059cbb00000000000000000000000000000000000000000000000000000000815233600482015260248101829052309063a9059cbb906044016020604051808303816000875af1158015612d0c573d6000803e3d6000fd5b505050506040513d601f19601f82011682018060405250810190612d309190614a56565b612dc85760405162461bcd60e51b815260206004820152604160248201527f54686572652077617320616e206572726f72206f6e2073656e64696e6720626160448201527f636b20746865204859415820546f6b656e20746f2074686520696e766573746f60648201527f7200000000000000000000000000000000000000000000000000000000000000608482015260a401610a66565b336000908152603d602052604081206002018054849290612dea90849061489c565b9091555050336000908152603d602052604081206001018054839290612e1190849061489c565b90915550506040517f3b60324b6db90922773bde8799e6d3b7d574474a0fb52a6d340bd2ee92b5edbc90612e4e90899033908a9087908790614a78565b60405180910390a16001945050505050610d776001600655565b60055461010090046001600160a01b03166001600160a01b0316336001600160a01b03161480612ea25750603b546001600160a01b031633145b612f16576040805162461bcd60e51b81526020600482015260248101919091527f46756e6374696f6e207265736572766564206f6e6c7920666f7220746865207760448201527f68697465206c69737465722061646472657373206f7220746865206f776e65726064820152608401610a66565b6001600160a01b038116612fb85760405162461bcd60e51b815260206004820152605660248201527f496e766573746f72206164647265737320746f2072656d6f76652066726f6d2060448201527f746865207175616c696669656420696e766573746f72206c6973742063616e6e60648201527f6f7420626520746865207a65726f206164647265737300000000000000000000608482015260a401610a66565b6001600160a01b0381166000908152603d6020526040902054610100900460ff166130715760405162461bcd60e51b815260206004820152604660248201527f5468617420696e766573746f722061646472657373206973206e6f742072656760448201527f69737465726564206f6e20746865207175616c696669656420696e766573746f60648201527f72206c6973740000000000000000000000000000000000000000000000000000608482015260a401610a66565b6001600160a01b0381166000818152603d602090815260409182902080547fffffffffffffffffffffffffffffffffffffffffffffffffffffffffffff00ff1690558151338152908101929092527f2ac92c349a800ca8b882e6d59e4f5c08ca2db952c08627c6cd4ab754a93b7ba39101610cc6565b6001600160a01b0381166000908152603d602052604081206002015461310d908461489c565b9050603a548111156131d2576001600160a01b0382166000908152603d6020526040902054610100900460ff166131d25760405162461bcd60e51b815260206004820152604260248201527f546f20627579207468617420616d6f756e74206f66204859415820697473207260448201527f6571756972656420746f2062652061207175616c696669656420696e7665737460648201527f6f72000000000000000000000000000000000000000000000000000000000000608482015260a401610a66565b505050565b6131df613edb565b6001600160a01b03811661325b5760405162461bcd60e51b815260206004820152602f60248201527f54686520747265617375727920616464726573732063616e6e6f74206265207460448201527f6865207a65726f206164647265737300000000000000000000000000000000006064820152608401610a66565b603c546001600160a01b03908116908216036132df5760405162461bcd60e51b815260206004820152603860248201527f547265617375727920616464726573732068617320616c72656164792062656560448201527f6e206d6f64696669656420746f20746861742076616c756500000000000000006064820152608401610a66565b603c80547fffffffffffffffffffffffff0000000000000000000000000000000000000000166001600160a01b0383169081179091556040519081527f2e1e696cfb265fa16e1170d24ef04cb2262772bde00ecf34d80bae6722487b7f90602001610cc6565b61334d613edb565b6121c661419d565b6000806305f5e1006133678486614885565b6133719190614ab1565b603854909250613385836305f5e100614885565b61338f9190614ab1565b905060395482101561342f5760405162461bcd60e51b815260206004820152604160248201527f54686520616d6f756e7420746f20696e76657374206d7573742062652067726560448201527f61746572207468616e20746865206d696e696d756d2065737461626c6973686560648201527f6400000000000000000000000000000000000000000000000000000000000000608482015260a401610a66565b306000908152602081905260409020548111156134da5760405162461bcd60e51b815260206004820152604860248201527f54686520696e766573746d656e74206d6164652072657475726e7320616e206160448201527f6d6f756e74206f6620485941582067726561746572207468616e20746865206160648201527f7661696c61626c65000000000000000000000000000000000000000000000000608482015260a401610a66565b9250929050565b60055461010090046001600160a01b03166001600160a01b0316336001600160a01b0316148061351b5750603b546001600160a01b031633145b61358f576040805162461bcd60e51b81526020600482015260248101919091527f46756e6374696f6e207265736572766564206f6e6c7920666f7220746865207760448201527f68697465206c69737465722061646472657373206f7220746865206f776e65726064820152608401610a66565b6001600160a01b0381166136315760405162461bcd60e51b815260206004820152605160248201527f496e766573746f72206164647265737320746f2061646420746f20746865207160448201527f75616c696669656420696e766573746f72206c6973742063616e6e6f7420626560648201527f20746865207a65726f2061646472657373000000000000000000000000000000608482015260a401610a66565b6001600160a01b0381166000908152603d602052604090205460ff166136bf5760405162461bcd60e51b815260206004820152603f60248201527f496e766573746f722061646472657373206d757374206265206669727374206160448201527f6464656420746f2074686520696e766573746f72207768697465206c697374006064820152608401610a66565b6001600160a01b0381166000908152603d6020526040902054610100900460ff16156137795760405162461bcd60e51b815260206004820152604b60248201527f5468617420696e766573746f7220616464726573732068617320616c7265616460448201527f79206265656e20616464656420746f20746865207175616c696669656420696e60648201527f766573746f72206c697374000000000000000000000000000000000000000000608482015260a401610a66565b6001600160a01b0381166000818152603d602090815260409182902080547fffffffffffffffffffffffffffffffffffffffffffffffffffffffffffff00ff166101001790558151338152908101929092527f037cd19042487ae926a661f12fdfb1b8737056255a7c1bcf9708313301a7aded9101610cc6565b606060048054610ce0906146da565b600033610d7181858561402b565b613818613edb565b6000811161388e5760405162461bcd60e51b815260206004820152603760248201527f4e6577206d696e696d756e20616d6f756e7420746f20696e766573742c206d7560448201527f73742062652067726561746572207468616e207a65726f0000000000000000006064820152608401610a66565b603954810361392b5760405162461bcd60e51b815260206004820152604960248201527f4d696e696d756d20696e766573746d656e7420616c6c6f77656420696e20555360448201527f442068617320616c7265616479206265656e206d6f64696669656420746f207460648201527f6861742076616c75650000000000000000000000000000000000000000000000608482015260a401610a66565b603a548111156139c95760405162461bcd60e51b815260206004820152604e60248201527f4e6577206d696e696d756e20616d6f756e7420746f20696e766573742c206d7560448201527f7374206265206c657373207468616e20746865206d6178696d756d20696e766560648201527f73746d656e7420616c6c6f776564000000000000000000000000000000000000608482015260a401610a66565b60398190556040518181527fee60eb8e40a2ec796bfe3ca896b9221af9764fc0987bf0508ca755266d9c85f890602001610cc6565b613a06613edb565b6038548103613a7d5760405162461bcd60e51b815260206004820152603260248201527f485941582070726963652068617320616c7265616479206265656e206d6f646960448201527f6669656420746f20746861742076616c756500000000000000000000000000006064820152608401610a66565b6207a120811015613b1c5760405162461bcd60e51b815260206004820152604e60248201527f5072696365206f66204859415820746f6b656e206d757374206265206174206c60448201527f656173742055534420302e3030352c207468617420697320353030303030207760648201527f697468203820646563696d616c73000000000000000000000000000000000000608482015260a401610a66565b64174876e800811115613bbd5760405162461bcd60e51b815260206004820152605560248201527f5072696365206f66204859415820746f6b656e206d757374206265206174206d60448201527f6178696d756d2055534420313030302c2074686174206973203130303030303060648201527f30303030302077697468203820646563696d616c730000000000000000000000608482015260a401610a66565b60388190556040518181527f4f6f7bbbb2b0dde2246ee6650672d1b55a5be5b52f8dd2e8d595f4bd47e1c91390602001610cc6565b60008080836004811115613c0857613c086148af565b03613c1f5750603f546001600160a01b0316613cc7565b6001836004811115613c3357613c336148af565b03613c4a57506042546001600160a01b0316613cc7565b6002836004811115613c5e57613c5e6148af565b03613c7557506046546001600160a01b0316613cc7565b6003836004811115613c8957613c896148af565b03613ca05750604a546001600160a01b0316613cc7565b6004836004811115613cb457613cb46148af565b0361146d5750604e546001600160a01b03165b806001600160a01b031663feaf968c6040518163ffffffff1660e01b815260040160a060405180830381865afa925050508015613d3f575060408051601f3d9081017fffffffffffffffffffffffffffffffffffffffffffffffffffffffffffffffe0168201909252613d3c91810190614b06565b60015b613db15760405162461bcd60e51b815260206004820152603660248201527f54686572652077617320616e206572726f72206f627461696e696e672074686560448201527f2070726963652066726f6d20746865206f7261636c65000000000000000000006064820152608401610a66565b50919695505050505050565b50919050565b613dcb613edb565b6001600160a01b038116613e475760405162461bcd60e51b815260206004820152602660248201527f4f776e61626c653a206e6577206f776e657220697320746865207a65726f206160448201527f64647265737300000000000000000000000000000000000000000000000000006064820152608401610a66565b306001600160a01b03821603613ec55760405162461bcd60e51b815260206004820152603660248201527f4f776e61626c653a206e6577206f776e65722063616e6e6f742062652074686560448201527f2073616d6520636f6e74726163742061646472657373000000000000000000006064820152608401610a66565b610f9e8161412c565b6131d283838360016141f8565b6005546001600160a01b036101009091041633146121c6576040517f118cdaa7000000000000000000000000000000000000000000000000000000008152336004820152602401610a66565b6001600160a01b038216613f6a576040517fec442f0500000000000000000000000000000000000000000000000000000000815260006004820152602401610a66565b6121b2600083836142ff565b6001600160a01b038381166000908152600160209081526040808320938616835292905220547fffffffffffffffffffffffffffffffffffffffffffffffffffffffffffffffff81146140255781811015614016576040517ffb8f41b20000000000000000000000000000000000000000000000000000000081526001600160a01b03841660048201526024810182905260448101839052606401610a66565b614025848484840360006141f8565b50505050565b6001600160a01b03831661406e576040517f96c6fd1e00000000000000000000000000000000000000000000000000000000815260006004820152602401610a66565b6001600160a01b0382166140b1576040517fec442f0500000000000000000000000000000000000000000000000000000000815260006004820152602401610a66565b6131d28383836142ff565b6140c4614312565b600580547fffffffffffffffffffffffffffffffffffffffffffffffffffffffffffffff001690557f5db9ee0a495bf2e6ff9c91a7834c1ba4fdd244a5e8aa4e537bd38aeae4b073aa335b6040516001600160a01b03909116815260200160405180910390a1565b600580546001600160a01b038381166101008181027fffffffffffffffffffffff0000000000000000000000000000000000000000ff85161790945560405193909204169182907f8be0079c531659141344cd1fd0a4f28419497f9722a3daafe3b4186f6b6457e090600090a35050565b6141a561434e565b600580547fffffffffffffffffffffffffffffffffffffffffffffffffffffffffffffff001660011790557f62e78cea01bee320cd4e420270b5ea74000d11b0c9f74754ebdbfc544b05a25861410f3390565b6001600160a01b03841661423b576040517fe602df0500000000000000000000000000000000000000000000000000000000815260006004820152602401610a66565b6001600160a01b03831661427e576040517f94280d6200000000000000000000000000000000000000000000000000000000815260006004820152602401610a66565b6001600160a01b038085166000908152600160209081526040808320938716835292905220829055801561402557826001600160a01b0316846001600160a01b03167f8c5be1e5ebec7d5bd14f71427d1e84f3dd0314c0f7b2291e5b200ac8c7c3b925846040516142f191815260200190565b60405180910390a350505050565b61430761434e565b6131d283838361438b565b60055460ff166121c6576040517f8dfc202b00000000000000000000000000000000000000000000000000000000815260040160405180910390fd5b60055460ff16156121c6576040517fd93c066500000000000000000000000000000000000000000000000000000000815260040160405180910390fd5b6001600160a01b0383166143b65780600260008282546143ab919061489c565b909155506144419050565b6001600160a01b03831660009081526020819052604090205481811015614422576040517fe450d38c0000000000000000000000000000000000000000000000000000000081526001600160a01b03851660048201526024810182905260448101839052606401610a66565b6001600160a01b03841660009081526020819052604090209082900390555b6001600160a01b03821661445d5760028054829003905561447c565b6001600160a01b03821660009081526020819052604090208054820190555b816001600160a01b0316836001600160a01b03167fddf252ad1be2c89b69c2b068fc378daa952ba7f163c4a11628f55a4df523b3ef836040516144c191815260200190565b60405180910390a3505050565b80356001600160a01b03811681146144e557600080fd5b919050565b6000602082840312156144fc57600080fd5b614505826144ce565b9392505050565b60005b8381101561452757818101518382015260200161450f565b50506000910152565b602081526000825180602084015261454f81604085016020870161450c565b601f017fffffffffffffffffffffffffffffffffffffffffffffffffffffffffffffffe0169190910160400192915050565b6000806040838503121561459457600080fd5b61459d836144ce565b946020939093013593505050565b6000602082840312156145bd57600080fd5b5035919050565b6000806000606084860312156145d957600080fd5b6145e2846144ce565b92506145f0602085016144ce565b9150604084013590509250925092565b8035600581106144e557600080fd5b6000806040838503121561462257600080fd5b61462b83614600565b9150614639602084016144ce565b90509250929050565b6000806040838503121561465557600080fd5b61459d83614600565b6000806040838503121561467157600080fd5b82359150614639602084016144ce565b6000806040838503121561469457600080fd5b50508035926020909101359150565b6000602082840312156146b557600080fd5b61450582614600565b600080604083850312156146d157600080fd5b61462b836144ce565b600181811c908216806146ee57607f821691505b602082108103613dbd577f4e487b7100000000000000000000000000000000000000000000000000000000600052602260045260246000fd5b7f4e487b7100000000000000000000000000000000000000000000000000000000600052601160045260246000fd5b600181815b808511156147af57817fffffffffffffffffffffffffffffffffffffffffffffffffffffffffffffffff0482111561479557614795614727565b808516156147a257918102915b93841c939080029061475b565b509250929050565b6000826147c657506001610d77565b816147d357506000610d77565b81600181146147e957600281146147f35761480f565b6001915050610d77565b60ff84111561480457614804614727565b50506001821b610d77565b5060208310610133831016604e8410600b8410161715614832575081810a610d77565b61483c8383614756565b807fffffffffffffffffffffffffffffffffffffffffffffffffffffffffffffffff0482111561486e5761486e614727565b029392505050565b600061450560ff8416836147b7565b8082028115828204841417610d7757610d77614727565b80820180821115610d7757610d77614727565b7f4e487b7100000000000000000000000000000000000000000000000000000000600052602160045260246000fd5b7f4e487b7100000000000000000000000000000000000000000000000000000000600052604160045260246000fd5b60006020828403121561491f57600080fd5b815167ffffffffffffffff8082111561493757600080fd5b818401915084601f83011261494b57600080fd5b81518181111561495d5761495d6148de565b604051601f82017fffffffffffffffffffffffffffffffffffffffffffffffffffffffffffffffe0908116603f011681019083821181831017156149a3576149a36148de565b816040528281528760208487010111156149bc57600080fd5b6149cd83602083016020880161450c565b979650505050505050565b600082516149ea81846020870161450c565b9190910192915050565b60058110614a2b577f4e487b7100000000000000000000000000000000000000000000000000000000600052602160045260246000fd5b9052565b60208101610d7782846149f4565b600060208284031215614a4f57600080fd5b5051919050565b600060208284031215614a6857600080fd5b8151801515811461450557600080fd5b60a08101614a8682886149f4565b6001600160a01b03861660208301528460408301528360608301528260808301529695505050505050565b600082614ae7577f4e487b7100000000000000000000000000000000000000000000000000000000600052601260045260246000fd5b500490565b805169ffffffffffffffffffff811681146144e557600080fd5b600080600080600060a08688031215614b1e57600080fd5b614b2786614aec565b9450602086015193506040860151925060608601519150614b4a60808701614aec565b9050929550929590935056fea2646970667358221220646de02f6daed6c836454f5c6c82dcd38a1dd9eaf9e96f8302d80b71ac820bc864736f6c63430008140033",
  "linkReferences": {},
  "deployedLinkReferences": {}
}