{
  "_format": "hh-sol-artifact-1",
  "contractName": "HYAXUpgradeableV2",
  "sourceName": "contracts/HYAXUpgradeableV2.sol",
  "abi": [
    {
      "anonymous": false,
      "inputs": [
        {
          "indexed": true,
          "internalType": "address",
          "name": "owner",
          "type": "address"
        },
        {
          "indexed": true,
          "internalType": "address",
          "name": "spender",
          "type": "address"
        },
        {
          "indexed": false,
          "internalType": "uint256",
          "name": "value",
          "type": "uint256"
        }
      ],
      "name": "Approval",
      "type": "event"
    },
    {
      "anonymous": false,
      "inputs": [
        {
          "indexed": false,
          "internalType": "address",
          "name": "sender",
          "type": "address"
        },
        {
          "indexed": false,
          "internalType": "address",
          "name": "_investorAddress",
          "type": "address"
        },
        {
          "indexed": false,
          "internalType": "bool",
          "name": "_isBlacklisted",
          "type": "bool"
        }
      ],
      "name": "BlacklistStatusUpdated",
      "type": "event"
    },
    {
      "anonymous": false,
      "inputs": [
        {
          "indexed": false,
          "internalType": "uint8",
          "name": "version",
          "type": "uint8"
        }
      ],
      "name": "Initialized",
      "type": "event"
    },
    {
      "anonymous": false,
      "inputs": [
        {
          "indexed": false,
          "internalType": "enum HYAXUpgradeableV2.TokenType",
          "name": "tokenType",
          "type": "uint8"
        },
        {
          "indexed": false,
          "internalType": "address",
          "name": "sender",
          "type": "address"
        },
        {
          "indexed": false,
          "internalType": "uint256",
          "name": "tokenAmount",
          "type": "uint256"
        },
        {
          "indexed": false,
          "internalType": "uint256",
          "name": "totalInvestmentInUsd",
          "type": "uint256"
        },
        {
          "indexed": false,
          "internalType": "uint256",
          "name": "hyaxAmount",
          "type": "uint256"
        }
      ],
      "name": "InvestFromCryptoToken",
      "type": "event"
    },
    {
      "anonymous": false,
      "inputs": [
        {
          "indexed": false,
          "internalType": "address",
          "name": "sender",
          "type": "address"
        },
        {
          "indexed": false,
          "internalType": "uint256",
          "name": "maticAmount",
          "type": "uint256"
        },
        {
          "indexed": false,
          "internalType": "uint256",
          "name": "totalInvestmentInUsd",
          "type": "uint256"
        },
        {
          "indexed": false,
          "internalType": "uint256",
          "name": "hyaxAmount",
          "type": "uint256"
        }
      ],
      "name": "InvestFromMatic",
      "type": "event"
    },
    {
      "anonymous": false,
      "inputs": [
        {
          "indexed": false,
          "internalType": "address",
          "name": "sender",
          "type": "address"
        },
        {
          "indexed": false,
          "internalType": "address",
          "name": "_investorAddress",
          "type": "address"
        }
      ],
      "name": "InvestorAddedToWhiteList",
      "type": "event"
    },
    {
      "anonymous": false,
      "inputs": [
        {
          "indexed": true,
          "internalType": "address",
          "name": "previousOwner",
          "type": "address"
        },
        {
          "indexed": true,
          "internalType": "address",
          "name": "newOwner",
          "type": "address"
        }
      ],
      "name": "OwnershipTransferred",
      "type": "event"
    },
    {
      "anonymous": false,
      "inputs": [
        {
          "indexed": false,
          "internalType": "address",
          "name": "account",
          "type": "address"
        }
      ],
      "name": "Paused",
      "type": "event"
    },
    {
      "anonymous": false,
      "inputs": [
        {
          "indexed": false,
          "internalType": "address",
          "name": "sender",
          "type": "address"
        },
        {
          "indexed": false,
          "internalType": "address",
          "name": "_QualifiedInvestorAddress",
          "type": "address"
        },
        {
          "indexed": false,
          "internalType": "bool",
          "name": "_isQualifiedInvestor",
          "type": "bool"
        }
      ],
      "name": "QualifiedInvestorStatusUpdated",
      "type": "event"
    },
    {
      "anonymous": false,
      "inputs": [
        {
          "indexed": false,
          "internalType": "address",
          "name": "sender",
          "type": "address"
        },
        {
          "indexed": false,
          "internalType": "uint256",
          "name": "amount",
          "type": "uint256"
        }
      ],
      "name": "TokenIssuance",
      "type": "event"
    },
    {
      "anonymous": false,
      "inputs": [
        {
          "indexed": true,
          "internalType": "address",
          "name": "from",
          "type": "address"
        },
        {
          "indexed": true,
          "internalType": "address",
          "name": "to",
          "type": "address"
        },
        {
          "indexed": false,
          "internalType": "uint256",
          "name": "value",
          "type": "uint256"
        }
      ],
      "name": "Transfer",
      "type": "event"
    },
    {
      "anonymous": false,
      "inputs": [
        {
          "indexed": false,
          "internalType": "address",
          "name": "account",
          "type": "address"
        }
      ],
      "name": "Unpaused",
      "type": "event"
    },
    {
      "anonymous": false,
      "inputs": [
        {
          "indexed": false,
          "internalType": "uint256",
          "name": "_newHyaxPrice",
          "type": "uint256"
        }
      ],
      "name": "UpdatedHyaxPrice",
      "type": "event"
    },
    {
      "anonymous": false,
      "inputs": [
        {
          "indexed": false,
          "internalType": "address",
          "name": "_newMaticPriceFeedAddress",
          "type": "address"
        }
      ],
      "name": "UpdatedMaticPriceFeedAddress",
      "type": "event"
    },
    {
      "anonymous": false,
      "inputs": [
        {
          "indexed": false,
          "internalType": "uint256",
          "name": "_newMaximumInvestmentAllowedInUSD",
          "type": "uint256"
        }
      ],
      "name": "UpdatedMaximumInvestmentAllowedInUSD",
      "type": "event"
    },
    {
      "anonymous": false,
      "inputs": [
        {
          "indexed": false,
          "internalType": "uint256",
          "name": "_newMinimumInvestmentAllowedInUSD",
          "type": "uint256"
        }
      ],
      "name": "UpdatedMinimumInvestmentAllowedInUSD",
      "type": "event"
    },
    {
      "anonymous": false,
      "inputs": [
        {
          "indexed": false,
          "internalType": "address",
          "name": "_newTreasuryAddress",
          "type": "address"
        }
      ],
      "name": "UpdatedTreasuryAddress",
      "type": "event"
    },
    {
      "anonymous": false,
      "inputs": [
        {
          "indexed": false,
          "internalType": "address",
          "name": "_newUsdcPriceFeedAddress",
          "type": "address"
        }
      ],
      "name": "UpdatedUsdcPriceFeedAddress",
      "type": "event"
    },
    {
      "anonymous": false,
      "inputs": [
        {
          "indexed": false,
          "internalType": "address",
          "name": "_newUsdcTokenAddress",
          "type": "address"
        }
      ],
      "name": "UpdatedUsdcTokenAddress",
      "type": "event"
    },
    {
      "anonymous": false,
      "inputs": [
        {
          "indexed": false,
          "internalType": "address",
          "name": "_newUsdtPriceFeedAddress",
          "type": "address"
        }
      ],
      "name": "UpdatedUsdtPriceFeedAddress",
      "type": "event"
    },
    {
      "anonymous": false,
      "inputs": [
        {
          "indexed": false,
          "internalType": "address",
          "name": "_newUsdtTokenAddress",
          "type": "address"
        }
      ],
      "name": "UpdatedUsdtTokenAddress",
      "type": "event"
    },
    {
      "anonymous": false,
      "inputs": [
        {
          "indexed": false,
          "internalType": "address",
          "name": "_newWbtcPriceFeedAddress",
          "type": "address"
        }
      ],
      "name": "UpdatedWbtcPriceFeedAddress",
      "type": "event"
    },
    {
      "anonymous": false,
      "inputs": [
        {
          "indexed": false,
          "internalType": "address",
          "name": "_newWbtcTokenAddress",
          "type": "address"
        }
      ],
      "name": "UpdatedWbtcTokenAddress",
      "type": "event"
    },
    {
      "anonymous": false,
      "inputs": [
        {
          "indexed": false,
          "internalType": "address",
          "name": "_newWethPriceFeedAddress",
          "type": "address"
        }
      ],
      "name": "UpdatedWethPriceFeedAddress",
      "type": "event"
    },
    {
      "anonymous": false,
      "inputs": [
        {
          "indexed": false,
          "internalType": "address",
          "name": "_newWethTokenAddress",
          "type": "address"
        }
      ],
      "name": "UpdatedWethTokenAddress",
      "type": "event"
    },
    {
      "anonymous": false,
      "inputs": [
        {
          "indexed": false,
          "internalType": "address",
          "name": "_newWhiteListerAddress",
          "type": "address"
        }
      ],
      "name": "UpdatedWhiteListerAddress",
      "type": "event"
    },
    {
      "anonymous": false,
      "inputs": [
        {
          "indexed": false,
          "internalType": "address",
          "name": "sender",
          "type": "address"
        },
        {
          "indexed": false,
          "internalType": "address",
          "name": "_investorAddress",
          "type": "address"
        },
        {
          "indexed": false,
          "internalType": "bool",
          "name": "_isWhiteListed",
          "type": "bool"
        }
      ],
      "name": "WhitelistStatusUpdated",
      "type": "event"
    },
    {
      "inputs": [],
      "name": "MAX_PRICE_AGE",
      "outputs": [
        {
          "internalType": "uint256",
          "name": "",
          "type": "uint256"
        }
      ],
      "stateMutability": "view",
      "type": "function"
    },
    {
      "inputs": [
        {
          "internalType": "address",
          "name": "_investorAddress",
          "type": "address"
        }
      ],
      "name": "addToWhiteList",
      "outputs": [],
      "stateMutability": "nonpayable",
      "type": "function"
    },
    {
      "inputs": [
        {
          "internalType": "address",
          "name": "owner",
          "type": "address"
        },
        {
          "internalType": "address",
          "name": "spender",
          "type": "address"
        }
      ],
      "name": "allowance",
      "outputs": [
        {
          "internalType": "uint256",
          "name": "",
          "type": "uint256"
        }
      ],
      "stateMutability": "view",
      "type": "function"
    },
    {
      "inputs": [
        {
          "internalType": "address",
          "name": "spender",
          "type": "address"
        },
        {
          "internalType": "uint256",
          "name": "amount",
          "type": "uint256"
        }
      ],
      "name": "approve",
      "outputs": [
        {
          "internalType": "bool",
          "name": "",
          "type": "bool"
        }
      ],
      "stateMutability": "nonpayable",
      "type": "function"
    },
    {
      "inputs": [
        {
          "internalType": "address",
          "name": "account",
          "type": "address"
        }
      ],
      "name": "balanceOf",
      "outputs": [
        {
          "internalType": "uint256",
          "name": "",
          "type": "uint256"
        }
      ],
      "stateMutability": "view",
      "type": "function"
    },
    {
      "inputs": [
        {
          "internalType": "uint256",
          "name": "_amount",
          "type": "uint256"
        },
        {
          "internalType": "uint256",
          "name": "_currentCryptocurrencyPrice",
          "type": "uint256"
        }
      ],
      "name": "calculateTotalHyaxTokenToReturn",
      "outputs": [
        {
          "internalType": "uint256",
          "name": "totalInvestmentInUsd",
          "type": "uint256"
        },
        {
          "internalType": "uint256",
          "name": "totalHyaxTokenToReturn",
          "type": "uint256"
        }
      ],
      "stateMutability": "view",
      "type": "function"
    },
    {
      "inputs": [],
      "name": "decimals",
      "outputs": [
        {
          "internalType": "uint8",
          "name": "",
          "type": "uint8"
        }
      ],
      "stateMutability": "view",
      "type": "function"
    },
    {
      "inputs": [
        {
          "internalType": "address",
          "name": "spender",
          "type": "address"
        },
        {
          "internalType": "uint256",
          "name": "subtractedValue",
          "type": "uint256"
        }
      ],
      "name": "decreaseAllowance",
      "outputs": [
        {
          "internalType": "bool",
          "name": "",
          "type": "bool"
        }
      ],
      "stateMutability": "nonpayable",
      "type": "function"
    },
    {
      "inputs": [
        {
          "internalType": "enum HYAXUpgradeableV2.TokenType",
          "name": "tokenType",
          "type": "uint8"
        }
      ],
      "name": "getCurrentTokenPrice",
      "outputs": [
        {
          "internalType": "uint256",
          "name": "",
          "type": "uint256"
        }
      ],
      "stateMutability": "view",
      "type": "function"
    },
    {
      "inputs": [],
      "name": "hyaxPrice",
      "outputs": [
        {
          "internalType": "uint256",
          "name": "",
          "type": "uint256"
        }
      ],
      "stateMutability": "view",
      "type": "function"
    },
    {
      "inputs": [
        {
          "internalType": "address",
          "name": "spender",
          "type": "address"
        },
        {
          "internalType": "uint256",
          "name": "addedValue",
          "type": "uint256"
        }
      ],
      "name": "increaseAllowance",
      "outputs": [
        {
          "internalType": "bool",
          "name": "",
          "type": "bool"
        }
      ],
      "stateMutability": "nonpayable",
      "type": "function"
    },
    {
      "inputs": [],
      "name": "initialize",
      "outputs": [],
      "stateMutability": "nonpayable",
      "type": "function"
    },
    {
      "inputs": [
        {
          "internalType": "enum HYAXUpgradeableV2.TokenType",
          "name": "tokenType",
          "type": "uint8"
        },
        {
          "internalType": "uint256",
          "name": "_amount",
          "type": "uint256"
        }
      ],
      "name": "investFromCryptoToken",
      "outputs": [
        {
          "internalType": "bool",
          "name": "",
          "type": "bool"
        }
      ],
      "stateMutability": "nonpayable",
      "type": "function"
    },
    {
      "inputs": [],
      "name": "investFromMatic",
      "outputs": [
        {
          "internalType": "bool",
          "name": "",
          "type": "bool"
        }
      ],
      "stateMutability": "payable",
      "type": "function"
    },
    {
      "inputs": [
        {
          "internalType": "address",
          "name": "",
          "type": "address"
        }
      ],
      "name": "investorData",
      "outputs": [
        {
          "internalType": "bool",
          "name": "isWhiteListed",
          "type": "bool"
        },
        {
          "internalType": "bool",
          "name": "isBlacklisted",
          "type": "bool"
        },
        {
          "internalType": "bool",
          "name": "isQualifiedInvestor",
          "type": "bool"
        },
        {
          "internalType": "uint256",
          "name": "totalHyaxBoughtByInvestor",
          "type": "uint256"
        },
        {
          "internalType": "uint256",
          "name": "totalUsdDepositedByInvestor",
          "type": "uint256"
        }
      ],
      "stateMutability": "view",
      "type": "function"
    },
    {
      "inputs": [],
      "name": "maticPriceFeedAddress",
      "outputs": [
        {
          "internalType": "address",
          "name": "",
          "type": "address"
        }
      ],
      "stateMutability": "view",
      "type": "function"
    },
    {
      "inputs": [],
      "name": "maximumInvestmentAllowedInUSD",
      "outputs": [
        {
          "internalType": "uint256",
          "name": "",
          "type": "uint256"
        }
      ],
      "stateMutability": "view",
      "type": "function"
    },
    {
      "inputs": [],
      "name": "minimumInvestmentAllowedInUSD",
      "outputs": [
        {
          "internalType": "uint256",
          "name": "",
          "type": "uint256"
        }
      ],
      "stateMutability": "view",
      "type": "function"
    },
    {
      "inputs": [],
      "name": "name",
      "outputs": [
        {
          "internalType": "string",
          "name": "",
          "type": "string"
        }
      ],
      "stateMutability": "view",
      "type": "function"
    },
    {
      "inputs": [],
      "name": "newFunction",
      "outputs": [
        {
          "internalType": "string",
          "name": "",
          "type": "string"
        }
      ],
      "stateMutability": "pure",
      "type": "function"
    },
    {
      "inputs": [],
      "name": "owner",
      "outputs": [
        {
          "internalType": "address",
          "name": "",
          "type": "address"
        }
      ],
      "stateMutability": "view",
      "type": "function"
    },
    {
      "inputs": [],
      "name": "pause",
      "outputs": [],
      "stateMutability": "nonpayable",
      "type": "function"
    },
    {
      "inputs": [],
      "name": "paused",
      "outputs": [
        {
          "internalType": "bool",
          "name": "",
          "type": "bool"
        }
      ],
      "stateMutability": "view",
      "type": "function"
    },
    {
      "inputs": [],
      "name": "renounceOwnership",
      "outputs": [],
      "stateMutability": "nonpayable",
      "type": "function"
    },
    {
      "inputs": [],
      "name": "symbol",
      "outputs": [
        {
          "internalType": "string",
          "name": "",
          "type": "string"
        }
      ],
      "stateMutability": "view",
      "type": "function"
    },
    {
      "inputs": [
        {
          "internalType": "uint256",
          "name": "_amount",
          "type": "uint256"
        }
      ],
      "name": "tokenIssuance",
      "outputs": [],
      "stateMutability": "nonpayable",
      "type": "function"
    },
    {
      "inputs": [],
      "name": "totalSupply",
      "outputs": [
        {
          "internalType": "uint256",
          "name": "",
          "type": "uint256"
        }
      ],
      "stateMutability": "view",
      "type": "function"
    },
    {
      "inputs": [
        {
          "internalType": "address",
          "name": "to",
          "type": "address"
        },
        {
          "internalType": "uint256",
          "name": "amount",
          "type": "uint256"
        }
      ],
      "name": "transfer",
      "outputs": [
        {
          "internalType": "bool",
          "name": "",
          "type": "bool"
        }
      ],
      "stateMutability": "nonpayable",
      "type": "function"
    },
    {
      "inputs": [
        {
          "internalType": "address",
          "name": "from",
          "type": "address"
        },
        {
          "internalType": "address",
          "name": "to",
          "type": "address"
        },
        {
          "internalType": "uint256",
          "name": "amount",
          "type": "uint256"
        }
      ],
      "name": "transferFrom",
      "outputs": [
        {
          "internalType": "bool",
          "name": "",
          "type": "bool"
        }
      ],
      "stateMutability": "nonpayable",
      "type": "function"
    },
    {
      "inputs": [
        {
          "internalType": "address",
          "name": "newOwner",
          "type": "address"
        }
      ],
      "name": "transferOwnership",
      "outputs": [],
      "stateMutability": "nonpayable",
      "type": "function"
    },
    {
      "inputs": [],
      "name": "treasuryAddress",
      "outputs": [
        {
          "internalType": "address",
          "name": "",
          "type": "address"
        }
      ],
      "stateMutability": "view",
      "type": "function"
    },
    {
      "inputs": [],
      "name": "unpause",
      "outputs": [],
      "stateMutability": "nonpayable",
      "type": "function"
    },
    {
      "inputs": [
        {
          "internalType": "address",
          "name": "_investorAddress",
          "type": "address"
        },
        {
          "internalType": "bool",
          "name": "_newStatus",
          "type": "bool"
        }
      ],
      "name": "updateBlacklistStatus",
      "outputs": [],
      "stateMutability": "nonpayable",
      "type": "function"
    },
    {
      "inputs": [
        {
          "internalType": "uint256",
          "name": "_newHyaxPrice",
          "type": "uint256"
        }
      ],
      "name": "updateHyaxPrice",
      "outputs": [],
      "stateMutability": "nonpayable",
      "type": "function"
    },
    {
      "inputs": [
        {
          "internalType": "uint256",
          "name": "_newMaximumInvestmentAllowedInUSD",
          "type": "uint256"
        }
      ],
      "name": "updateMaximumInvestmentAllowedInUSD",
      "outputs": [],
      "stateMutability": "nonpayable",
      "type": "function"
    },
    {
      "inputs": [
        {
          "internalType": "uint256",
          "name": "_newMinimumInvestmentAllowedInUSD",
          "type": "uint256"
        }
      ],
      "name": "updateMinimumInvestmentAllowedInUSD",
      "outputs": [],
      "stateMutability": "nonpayable",
      "type": "function"
    },
    {
      "inputs": [
        {
          "internalType": "enum HYAXUpgradeableV2.TokenType",
          "name": "tokenType",
          "type": "uint8"
        },
        {
          "internalType": "address",
          "name": "newPriceFeedAddress",
          "type": "address"
        }
      ],
      "name": "updatePriceFeedAddress",
      "outputs": [],
      "stateMutability": "nonpayable",
      "type": "function"
    },
    {
      "inputs": [
        {
          "internalType": "address",
          "name": "_qualifiedInvestorAddress",
          "type": "address"
        },
        {
          "internalType": "bool",
          "name": "_newStatus",
          "type": "bool"
        }
      ],
      "name": "updateQualifiedInvestorStatus",
      "outputs": [],
      "stateMutability": "nonpayable",
      "type": "function"
    },
    {
      "inputs": [
        {
          "internalType": "enum HYAXUpgradeableV2.TokenType",
          "name": "tokenType",
          "type": "uint8"
        },
        {
          "internalType": "address",
          "name": "newTokenAddress",
          "type": "address"
        }
      ],
      "name": "updateTokenAddress",
      "outputs": [],
      "stateMutability": "nonpayable",
      "type": "function"
    },
    {
      "inputs": [
        {
          "internalType": "address",
          "name": "_newTreasuryAddress",
          "type": "address"
        }
      ],
      "name": "updateTreasuryAddress",
      "outputs": [],
      "stateMutability": "nonpayable",
      "type": "function"
    },
    {
      "inputs": [
        {
          "internalType": "address",
          "name": "_newWhiteListerAddress",
          "type": "address"
        }
      ],
      "name": "updateWhiteListerAddress",
      "outputs": [],
      "stateMutability": "nonpayable",
      "type": "function"
    },
    {
      "inputs": [
        {
          "internalType": "address",
          "name": "_investorAddress",
          "type": "address"
        },
        {
          "internalType": "bool",
          "name": "_newStatus",
          "type": "bool"
        }
      ],
      "name": "updateWhitelistStatus",
      "outputs": [],
      "stateMutability": "nonpayable",
      "type": "function"
    },
    {
      "inputs": [],
      "name": "usdcPriceFeedAddress",
      "outputs": [
        {
          "internalType": "address",
          "name": "",
          "type": "address"
        }
      ],
      "stateMutability": "view",
      "type": "function"
    },
    {
      "inputs": [],
      "name": "usdcToken",
      "outputs": [
        {
          "internalType": "contract IERC20",
          "name": "",
          "type": "address"
        }
      ],
      "stateMutability": "view",
      "type": "function"
    },
    {
      "inputs": [],
      "name": "usdcTokenAddress",
      "outputs": [
        {
          "internalType": "address",
          "name": "",
          "type": "address"
        }
      ],
      "stateMutability": "view",
      "type": "function"
    },
    {
      "inputs": [],
      "name": "usdtPriceFeedAddress",
      "outputs": [
        {
          "internalType": "address",
          "name": "",
          "type": "address"
        }
      ],
      "stateMutability": "view",
      "type": "function"
    },
    {
      "inputs": [],
      "name": "usdtToken",
      "outputs": [
        {
          "internalType": "contract IERC20",
          "name": "",
          "type": "address"
        }
      ],
      "stateMutability": "view",
      "type": "function"
    },
    {
      "inputs": [],
      "name": "usdtTokenAddress",
      "outputs": [
        {
          "internalType": "address",
          "name": "",
          "type": "address"
        }
      ],
      "stateMutability": "view",
      "type": "function"
    },
    {
      "inputs": [
        {
          "internalType": "uint256",
          "name": "_totalInvestmentInUsd",
          "type": "uint256"
        },
        {
          "internalType": "address",
          "name": "_investorAddress",
          "type": "address"
        }
      ],
      "name": "validateMaximumInvestedAmountAndInvestorLimit",
      "outputs": [],
      "stateMutability": "view",
      "type": "function"
    },
    {
      "inputs": [],
      "name": "wbtcPriceFeedAddress",
      "outputs": [
        {
          "internalType": "address",
          "name": "",
          "type": "address"
        }
      ],
      "stateMutability": "view",
      "type": "function"
    },
    {
      "inputs": [],
      "name": "wbtcToken",
      "outputs": [
        {
          "internalType": "contract IERC20",
          "name": "",
          "type": "address"
        }
      ],
      "stateMutability": "view",
      "type": "function"
    },
    {
      "inputs": [],
      "name": "wbtcTokenAddress",
      "outputs": [
        {
          "internalType": "address",
          "name": "",
          "type": "address"
        }
      ],
      "stateMutability": "view",
      "type": "function"
    },
    {
      "inputs": [],
      "name": "wethPriceFeedAddress",
      "outputs": [
        {
          "internalType": "address",
          "name": "",
          "type": "address"
        }
      ],
      "stateMutability": "view",
      "type": "function"
    },
    {
      "inputs": [],
      "name": "wethToken",
      "outputs": [
        {
          "internalType": "contract IERC20",
          "name": "",
          "type": "address"
        }
      ],
      "stateMutability": "view",
      "type": "function"
    },
    {
      "inputs": [],
      "name": "wethTokenAddress",
      "outputs": [
        {
          "internalType": "address",
          "name": "",
          "type": "address"
        }
      ],
      "stateMutability": "view",
      "type": "function"
    },
    {
      "inputs": [],
      "name": "whiteListerAddress",
      "outputs": [
        {
          "internalType": "address",
          "name": "",
          "type": "address"
        }
      ],
      "stateMutability": "view",
      "type": "function"
    },
    {
      "stateMutability": "payable",
      "type": "receive"
    }
  ],
  "bytecode": "0x608060405234801561001057600080fd5b50614a32806100206000396000f3fe60806040526004361061036f5760003560e01c806370a08231116101c6578063a457c2d7116100f7578063c07732a311610095578063de1f53461161006f578063de1f534614610a10578063f2fde38b14610a93578063f7a47f8114610ab3578063fb2dc76e14610ad457600080fd5b8063c07732a3146109af578063c5f956af146109cf578063dd62ed3e146109f057600080fd5b8063b2c568f3116100d1578063b2c568f31461092f578063b40ed4491461094f578063b83608061461096f578063bb6f98fb1461098f57600080fd5b8063a457c2d7146108ce578063a9059cbb146108ee578063a98ad46c1461090e57600080fd5b8063841e4561116101645780638da5cb5b1161013e5780638da5cb5b1461086457806395d89b41146108825780639d741e5d146108975780639d7f7e86146108b857600080fd5b8063841e4561146107fa5780638456cb591461081a5780638c945e631461082f57600080fd5b806377b53ece116101a057806377b53ece1461078d5780638049bcb6146107ae5780638116de2b146107c55780638129fc1c146107e557600080fd5b806370a0823114610722578063715018a614610758578063731de5141461076d57600080fd5b8063377c779f116102a05780634b57b0be1161023e5780635c975abb116102185780635c975abb146106a95780635ec2562a146106c1578063653c3a47146106e157806365699d281461070157600080fd5b80634b57b0be146106465780634c526bdb146106675780635ae9384e1461068857600080fd5b80633de6f3791161027a5780633de6f379146105d05780633f4ba83a146105f057806340b5ea9c1461060557806347ee03941461062657600080fd5b8063377c779f1461059157806339509351146105a85780633b14f359146105c857600080fd5b80631b28d63e1161030d57806327614df8116102e757806327614df81461051d5780632a241ad31461053e578063313ce56714610555578063367f44fb1461057157600080fd5b80631b28d63e146104a257806323b872dd146104dd57806323c66f9a146104fd57600080fd5b80630f9dad71116103495780630f9dad711461042157806311eac85514610442578063128ef0221461046357806318160ddd1461048357600080fd5b806306fdde031461038d57806308cd468f146103b8578063095ea7b3146103f157600080fd5b366103885761037c610af5565b610386600160fb55565b005b600080fd5b34801561039957600080fd5b506103a2610b5a565b6040516103af91906140bb565b60405180910390f35b3480156103c457600080fd5b5061013a546103d9906001600160a01b031681565b6040516001600160a01b0390911681526020016103af565b3480156103fd57600080fd5b5061041161040c36600461410a565b610bec565b60405190151581526020016103af565b34801561042d57600080fd5b50610141546103d9906001600160a01b031681565b34801561044e57600080fd5b50610138546103d9906001600160a01b031681565b34801561046f57600080fd5b5061038661047e366004614134565b610c06565b34801561048f57600080fd5b506035545b6040519081526020016103af565b3480156104ae57600080fd5b506040805180820190915260128152712732bb90333ab731ba34b7b71034b7102b1960711b60208201526103a2565b3480156104e957600080fd5b506104116104f836600461414d565b610e2a565b34801561050957600080fd5b50610386610518366004614198565b610e4e565b34801561052957600080fd5b50610140546103d9906001600160a01b031681565b34801561054a57600080fd5b5061049461012e5481565b34801561056157600080fd5b50604051601281526020016103af565b34801561057d57600080fd5b5061038661058c3660046141d9565b6115ab565b34801561059d57600080fd5b5061049461012d5481565b3480156105b457600080fd5b506104116105c336600461410a565b611825565b610411611847565b3480156105dc57600080fd5b506103866105eb366004614198565b611b0c565b3480156105fc57600080fd5b50610386611f66565b34801561061157600080fd5b50610136546103d9906001600160a01b031681565b34801561063257600080fd5b50610386610641366004614210565b611f78565b34801561065257600080fd5b50610144546103d9906001600160a01b031681565b34801561067357600080fd5b5061013d546103d9906001600160a01b031681565b34801561069457600080fd5b50610142546103d9906001600160a01b031681565b3480156106b557600080fd5b5060655460ff16610411565b3480156106cd57600080fd5b506103866106dc366004614134565b612196565b3480156106ed57600080fd5b506103866106fc366004614210565b61224b565b34801561070d57600080fd5b50610130546103d9906001600160a01b031681565b34801561072e57600080fd5b5061049461073d366004614210565b6001600160a01b031660009081526033602052604090205490565b34801561076457600080fd5b50610386612398565b34801561077957600080fd5b50610411610788366004614232565b6123aa565b34801561079957600080fd5b50610135546103d9906001600160a01b031681565b3480156107ba57600080fd5b5061049461012f5481565b3480156107d157600080fd5b506103866107e036600461424e565b6128ad565b3480156107f157600080fd5b50610386612986565b34801561080657600080fd5b50610386610815366004614210565b612d2e565b34801561082657600080fd5b50610386612e78565b34801561083b57600080fd5b5061084f61084a366004614271565b612e88565b604080519283526020830191909152016103af565b34801561087057600080fd5b5060c9546001600160a01b03166103d9565b34801561088e57600080fd5b506103a2612fe5565b3480156108a357600080fd5b50610139546103d9906001600160a01b031681565b3480156108c457600080fd5b50610494610e1081565b3480156108da57600080fd5b506104116108e936600461410a565b612ff4565b3480156108fa57600080fd5b5061041161090936600461410a565b61306f565b34801561091a57600080fd5b5061013c546103d9906001600160a01b031681565b34801561093b57600080fd5b5061038661094a366004614134565b61307d565b34801561095b57600080fd5b5061038661096a366004614134565b61312b565b34801561097b57600080fd5b5061038661098a3660046141d9565b6132ff565b34801561099b57600080fd5b506104946109aa366004614293565b613480565b3480156109bb57600080fd5b506103866109ca3660046141d9565b613631565b3480156109db57600080fd5b50610131546103d9906001600160a01b031681565b3480156109fc57600080fd5b50610494610a0b3660046142ae565b6137a6565b348015610a1c57600080fd5b50610a62610a2b366004614210565b6101326020526000908152604090208054600182015460029092015460ff8083169361010084048216936201000090049091169185565b6040516103af9594939291909415158552921515602085015290151560408401526060830152608082015260a00190565b348015610a9f57600080fd5b50610386610aae366004614210565b6137d1565b348015610abf57600080fd5b5061013e546103d9906001600160a01b031681565b348015610ae057600080fd5b50610133546103d9906001600160a01b031681565b600260fb5403610b4c5760405162461bcd60e51b815260206004820152601f60248201527f5265656e7472616e637947756172643a207265656e7472616e742063616c6c0060448201526064015b60405180910390fd5b600260fb55565b600160fb55565b606060368054610b69906142ca565b80601f0160208091040260200160405190810160405280929190818152602001828054610b95906142ca565b8015610be25780601f10610bb757610100808354040283529160200191610be2565b820191906000526020600020905b815481529060010190602001808311610bc557829003601f168201915b5050505050905090565b600033610bfa8185856138be565b60019150505b92915050565b610c0e6139e2565b610c16610af5565b610c226012600a6143f8565b811015610c975760405162461bcd60e51b815260206004820152603760248201527f416d6f756e74206f66204859415820746f6b656e7320746f206973737565206d60448201527f757374206265206174206c65617374203120746f6b656e0000000000000000006064820152608401610b43565b610ca36012600a6143f8565b610cb190633b9aca00614407565b811115610d265760405162461bcd60e51b815260206004820152603f60248201527f416d6f756e74206f66204859415820746f6b656e7320746f206973737565206160448201527f7420612074696d65206d757374206265206d6178696d756d2031303030204d006064820152608401610b43565b610d326012600a6143f8565b610d41906402540be400614407565b81610d4b60355490565b610d55919061441e565b1115610dc95760405162461bcd60e51b815260206004820152603b60248201527f416d6f756e74206f66204859415820746f6b656e7320746f206973737565207360448201527f75727061736573207468652031302c303030204d20746f6b656e7300000000006064820152608401610b43565b610de4610dde60c9546001600160a01b031690565b82613a3c565b60408051338152602081018390527f455064bbf1374d9e833b8d9db24c56b24dbf79cc1a94a30665cae7093963d5a8910160405180910390a1610e27600160fb55565b50565b600033610e38858285613b09565b610e43858585613b83565b506001949350505050565b610e566139e2565b6001600160a01b038116610ecb5760405162461bcd60e51b815260206004820152603660248201527f5468652070726963652064617461206665656420616464726573732063616e6e6044820152756f7420626520746865207a65726f206164647265737360501b6064820152608401610b43565b8060008080856004811115610ee257610ee2614431565b03610fa657610133546001600160a01b0390811690851603610f6e576040805162461bcd60e51b81526020600482015260248101919091527f4d41544943207072696365206665656420616464726573732068617320616c7260448201527f65616479206265656e206d6f64696669656420746f20746861742076616c75656064820152608401610b43565b6040516a1350551250c80bc81554d160aa1b6020820152602b015b60405160208183030381529060405280519060200120915061128a565b6001856004811115610fba57610fba614431565b0361105057610136546001600160a01b03908116908516036110325760405162461bcd60e51b815260206004820152603f60248201527f55534443207072696365206665656420616464726573732068617320616c726560448201526000805160206149dd8339815191526064820152608401610b43565b604051691554d110c80bc81554d160b21b6020820152602a01610f89565b600285600481111561106457611064614431565b036110fa5761013a546001600160a01b03908116908516036110dc5760405162461bcd60e51b815260206004820152603f60248201527f55534454207072696365206665656420616464726573732068617320616c726560448201526000805160206149dd8339815191526064820152608401610b43565b604051691554d115080bc81554d160b21b6020820152602a01610f89565b600385600481111561110e5761110e614431565b036111a45761013e546001600160a01b03908116908516036111865760405162461bcd60e51b815260206004820152603f60248201527f57425443207072696365206665656420616464726573732068617320616c726560448201526000805160206149dd8339815191526064820152608401610b43565b6040516915d09510c80bc81554d160b21b6020820152602a01610f89565b60048560048111156111b8576111b8614431565b0361124d57610142546001600160a01b03908116908516036112305760405162461bcd60e51b815260206004820152603f60248201527f57455448207072696365206665656420616464726573732068617320616c726560448201526000805160206149dd8339815191526064820152608401610b43565b60405168115512080bc81554d160ba1b6020820152602901610f89565b60405162461bcd60e51b8152602060048201526012602482015271496e76616c696420746f6b656e207479706560701b6044820152606401610b43565b826001600160a01b0316637284e4166040518163ffffffff1660e01b8152600401600060405180830381865afa9250505080156112e957506040513d6000823e601f3d908101601f191682016040526112e6919081019061445d565b60015b6113055760405162461bcd60e51b8152600401610b439061450a565b806040516020016113169190614576565b60405160208183030381529060405280519060200120915081831461134d5760405162461bcd60e51b8152600401610b439061450a565b50600085600481111561136257611362614431565b036113cc5761013380546001600160a01b0386166001600160a01b031991821681179092556101348054909116821790556040519081527fee9bc8d900b5d69f934ec4a3986b3bfda61add54821456c3f7e943e87cf48f52906020015b60405180910390a16115a4565b60018560048111156113e0576113e0614431565b036114415761013680546001600160a01b0386166001600160a01b031991821681179092556101378054909116821790556040519081527f0a0bc5dadd9d9c881861f6da8998bebef8eabcb5f3d6651187c5d1899e327965906020016113bf565b600285600481111561145557611455614431565b036114b65761013a80546001600160a01b0386166001600160a01b0319918216811790925561013b8054909116821790556040519081527f1e5bfe0b7fe6fcdc586b9e3a4fbdc0bdb1346d36173963ba38c897137ba16031906020016113bf565b60038560048111156114ca576114ca614431565b0361152b5761013e80546001600160a01b0386166001600160a01b0319918216811790925561013f8054909116821790556040519081527f2171c3cfa3d86551d618c9da7164a608dd795715bf61402d9ccb45cf5433a076906020016113bf565b600485600481111561153f5761153f614431565b036115a45761014280546001600160a01b0386166001600160a01b031991821681179092556101438054909116821790556040519081527fc21be1e8c8d6de83e19ad6de75cd885eefac75be87e532a0a04d02147004e5209060200160405180910390a15b5050505050565b60c9546001600160a01b03163314806115cf5750610130546001600160a01b031633145b6115eb5760405162461bcd60e51b8152600401610b4390614592565b6001600160a01b03821661167f5760405162461bcd60e51b815260206004820152604f60248201527f496e766573746f72206164647265737320746f20757064617465207175616c6960448201527f6669656420696e766573746f72207374617475732063616e6e6f74206265207460648201526e6865207a65726f206164647265737360881b608482015260a401610b43565b6001600160a01b0382166000908152610132602052604090205460ff1661170e5760405162461bcd60e51b815260206004820152603e60248201527f496e766573746f722061646472657373206d757374206265206669727374206160448201527f6464656420746f2074686520696e766573746f722077686974656c69737400006064820152608401610b43565b6001600160a01b038216600090815261013260205260409020548115156201000090910460ff161515036117aa5760405162461bcd60e51b815260206004820152603d60248201527f5468617420696e766573746f7220616464726573732068617320616c7265616460448201527f79206265656e207570646174656420746f2074686174207374617475730000006064820152608401610b43565b6001600160a01b03821660008181526101326020908152604091829020805462ff000019166201000086151590810291909117909155825133815291820193909352908101919091527f3c53852fbea2a3e8d261e1a5412fcd1099cd0af0faf615db2a4cab4831106256906060015b60405180910390a15050565b600033610bfa81858561183883836137a6565b611842919061441e565b6138be565b336000908152610132602052604081205460ff166118775760405162461bcd60e51b8152600401610b43906145ef565b3360009081526101326020526040902054610100900460ff16156118ad5760405162461bcd60e51b8152600401610b4390614643565b6118b5610af5565b60008061192a34306001600160a01b031663bb6f98fb60006040518263ffffffff1660e01b81526004016118e991906146b5565b602060405180830381865afa158015611906573d6000803e3d6000fd5b505050506040513d601f19601f8201168201806040525081019061084a91906146c3565b9150915061193882336128ad565b610131546040516001600160a01b03909116903480156108fc02916000818181858888f193505050506119de5760405162461bcd60e51b815260206004820152604260248201527f54686572652077617320616e206572726f72206f6e2073656e64696e6720746860448201527f65204d4154494320696e766573746d656e7420746f2074686520747265617375606482015261727960f01b608482015260a401610b43565b60405163a9059cbb60e01b815233600482015260248101829052309063a9059cbb906044016020604051808303816000875af1158015611a22573d6000803e3d6000fd5b505050506040513d601f19601f82011682018060405250810190611a4691906146dc565b611a625760405162461bcd60e51b8152600401610b43906146f9565b336000908152610132602052604081206002018054849290611a8590849061441e565b9091555050336000908152610132602052604081206001018054839290611aad90849061441e565b909155505060408051338152346020820152908101839052606081018290527fe036cb252631bb3e3fbcb1aa359dd09f94f0dac1fe6de828e8bae3f5028331c59060800160405180910390a1600192505050611b09600160fb55565b90565b611b146139e2565b6001600160a01b038116611b7f5760405162461bcd60e51b815260206004820152602c60248201527f54686520746f6b656e20616464726573732063616e6e6f74206265207468652060448201526b7a65726f206164647265737360a01b6064820152608401610b43565b6001826004811115611b9357611b93614431565b03611c7d57610135546001600160a01b0390811690821603611c1a5760405162461bcd60e51b815260206004820152603a60248201527f5553444320746f6b656e20616464726573732068617320616c7265616479206260448201527965656e206d6f64696669656420746f20746861742076616c756560301b6064820152608401610b43565b61013580546001600160a01b0383166001600160a01b031991821681179092556101388054909116821790556040519081527f8b3f52c1d10699944ebee74ee29dca11c9c86bb0dbedef4abd6e737f613d4d3a9060200160405180910390a15050565b6002826004811115611c9157611c91614431565b03611d7457610139546001600160a01b0390811690821603611d185760405162461bcd60e51b815260206004820152603a60248201527f5553445420746f6b656e20616464726573732068617320616c7265616479206260448201527965656e206d6f64696669656420746f20746861742076616c756560301b6064820152608401610b43565b61013980546001600160a01b0383166001600160a01b0319918216811790925561013c8054909116821790556040519081527f1c2d8a05be2c8eca524d44cc224513d7e19ca97ac309c3e23bee450f8578ca1990602001611819565b6003826004811115611d8857611d88614431565b03611e6b5761013d546001600160a01b0390811690821603611e0f5760405162461bcd60e51b815260206004820152603a60248201527f5742544320746f6b656e20616464726573732068617320616c7265616479206260448201527965656e206d6f64696669656420746f20746861742076616c756560301b6064820152608401610b43565b61013d80546001600160a01b0383166001600160a01b031991821681179092556101408054909116821790556040519081527f95082f719648371f180ca4f9bad55a2ae7c2d029bbf93e360584ca6ea06327ea90602001611819565b6004826004811115611e7f57611e7f614431565b0361124d57610141546001600160a01b0390811690821603611f065760405162461bcd60e51b815260206004820152603a60248201527f5745544820746f6b656e20616464726573732068617320616c7265616479206260448201527965656e206d6f64696669656420746f20746861742076616c756560301b6064820152608401610b43565b61014180546001600160a01b0383166001600160a01b031991821681179092556101448054909116821790556040519081527ff5fd160f565ac0e80215e9eced5afbfcd47389e99858fac6a3d93f2ec38ff6d690602001611819565b5050565b611f6e6139e2565b611f76613d39565b565b60c9546001600160a01b0316331480611f9c5750610130546001600160a01b031633145b611fb85760405162461bcd60e51b8152600401610b4390614592565b6001600160a01b0381166120405760405162461bcd60e51b815260206004820152604360248201527f496e766573746f72206164647265737320746f2061646420746f20746865207760448201527f686974656c6973742063616e6e6f7420626520746865207a65726f206164647260648201526265737360e81b608482015260a401610b43565b6001600160a01b0381166000908152610132602052604090205460ff16156120d05760405162461bcd60e51b815260206004820152603d60248201527f5468617420696e766573746f7220616464726573732068617320616c7265616460448201527f79206265656e20616464656420746f207468652077686974656c6973740000006064820152608401610b43565b6040805160a08101825260006020808301828152838501838152606085018481526080860185815260018088526001600160a01b038a1680885261013287529689902088518154965195511515620100000262ff0000199615156101000261ff00199215159290921661ffff19909816979097171794909416949094178355905192820192909255905160029091015583513381529081019190915290917f8419b79dc227f7841e7bf32cea35c3f90fe5b3da68cde93adef3c32745c587de9101611819565b61219e6139e2565b6000811161220e5760405162461bcd60e51b815260206004820152603760248201527f4e6577206d6178696d756d20616d6f756e7420746f20696e766573742c206d7560448201527673742062652067726561746572207468616e207a65726f60481b6064820152608401610b43565b61012f8190556040518181527f29d434ec19958e7ce86ca2870f5927ab4f948d916dcffc568c1343c1e1f76566906020015b60405180910390a150565b6122536139e2565b6001600160a01b0381166122c45760405162461bcd60e51b815260206004820152603260248201527f5468652077686974656c697374657220616464726573732063616e6e6f7420626044820152716520746865207a65726f206164647265737360701b6064820152608401610b43565b610130546001600160a01b03908116908216036123495760405162461bcd60e51b815260206004820152603b60248201527f77686974656c697374657220616464726573732068617320616c72656164792060448201527f6265656e206d6f64696669656420746f20746861742076616c756500000000006064820152608401610b43565b61013080546001600160a01b0319166001600160a01b0383169081179091556040519081527f32359536720adedfb2b6c6dd7685519f09fdf93ce7824b68d5b2f56354fdebec90602001612240565b6123a06139e2565b611f766000613d8b565b336000908152610132602052604081205460ff166123da5760405162461bcd60e51b8152600401610b43906145ef565b3360009081526101326020526040902054610100900460ff16156124105760405162461bcd60e51b8152600401610b4390614643565b612418610af5565b600080600185600481111561242f5761242f614431565b036124b0576101385460405163bb6f98fb60e01b81526001600160a01b039091169250309063bb6f98fb906124689088906004016146b5565b602060405180830381865afa158015612485573d6000803e3d6000fd5b505050506040513d601f19601f820116820180604052508101906124a991906146c3565b9050612597565b60028560048111156124c4576124c4614431565b036124fd5761013c5460405163bb6f98fb60e01b81526001600160a01b039091169250309063bb6f98fb906124689088906004016146b5565b600385600481111561251157612511614431565b0361254a576101405460405163bb6f98fb60e01b81526001600160a01b039091169250309063bb6f98fb906124689088906004016146b5565b600485600481111561255e5761255e614431565b0361124d576101445460405163bb6f98fb60e01b81526001600160a01b039091169250309063bb6f98fb906124689088906004016146b5565b6000806125a48684612e88565b915091506125b282336128ad565b6040516323b872dd60e01b8152336004820152306024820152604481018790526001600160a01b038516906323b872dd906064016020604051808303816000875af1158015612605573d6000803e3d6000fd5b505050506040513d601f19601f8201168201806040525081019061262991906146dc565b6126925760405162461bcd60e51b815260206004820152603460248201527f54686572652077617320616e206572726f72206f6e20726563656976696e67206044820152731d1a19481d1bdad95b881a5b9d995cdd1b595b9d60621b6064820152608401610b43565b6101315460405163a9059cbb60e01b81526001600160a01b039182166004820152602481018890529085169063a9059cbb906044016020604051808303816000875af11580156126e6573d6000803e3d6000fd5b505050506040513d601f19601f8201168201806040525081019061270a91906146dc565b6127875760405162461bcd60e51b815260206004820152604260248201527f54686572652077617320616e206572726f72206f6e2073656e64696e6720746860448201527f6520746f6b656e20696e766573746d656e7420746f2074686520747265617375606482015261727960f01b608482015260a401610b43565b60405163a9059cbb60e01b815233600482015260248101829052309063a9059cbb906044016020604051808303816000875af11580156127cb573d6000803e3d6000fd5b505050506040513d601f19601f820116820180604052508101906127ef91906146dc565b61280b5760405162461bcd60e51b8152600401610b43906146f9565b33600090815261013260205260408120600201805484929061282e90849061441e565b909155505033600090815261013260205260408120600101805483929061285690849061441e565b90915550506040517f3b60324b6db90922773bde8799e6d3b7d574474a0fb52a6d340bd2ee92b5edbc9061289390899033908a9087908790614760565b60405180910390a16001945050505050610c00600160fb55565b6001600160a01b038116600090815261013260205260408120600201546128d4908461441e565b905061012f54811115612981576001600160a01b0382166000908152610132602052604090205462010000900460ff166129815760405162461bcd60e51b815260206004820152604260248201527f546f20627579207468617420616d6f756e74206f66204859415820697473207260448201527f6571756972656420746f2062652061207175616c696669656420696e7665737460648201526137b960f11b608482015260a401610b43565b505050565b600054610100900460ff16158080156129a65750600054600160ff909116105b806129c05750303b1580156129c0575060005460ff166001145b612a235760405162461bcd60e51b815260206004820152602e60248201527f496e697469616c697a61626c653a20636f6e747261637420697320616c72656160448201526d191e481a5b9a5d1a585b1a5e995960921b6064820152608401610b43565b6000805460ff191660011790558015612a46576000805461ff0019166101001790555b612a8d60405180604001604052806009815260200168242ca0ac2a37b5b2b760b91b81525060405180604001604052806004815260200163090b282b60e31b815250613ddd565b612a95613e0e565b612a9d613e3d565b612aa5613e6c565b612ac833612ab56012600a6143f8565b612ac390631dcd6500614407565b613a3c565b620927c061012d55612adc6012600a6143f8565b612ae7906001614407565b61012e55612af76012600a6143f8565b612b0390612710614407565b61012f5561013080546001600160a01b03199081167301c2f012de19e6436744c3f81f56e9e70c93a8c3179091556101318054821673350441f8a82680a785ffa9d3efea60bb4ca417f817905561013380548216721382149eba3441043c1c66972b4772963f5d439081179091556101348054831690911790556101358054821673f68054bfe5d45432ffca28ffa1f3d685d0456ddc90811790915561013680548316731b8739bb4cdf0089d07097a9ae5bd274b29c6f16908117909155610137805484169091179055610138805483169091179055610139805482167370e02fb82b6bc04f64099689b0599e14b44d4fbb90811790915561013a80548316733ac23dcb4ecfcbd24579e1f34542524d0e4edea890811790915561013b80548416909117905561013c80548316909117905561013d80548216733c8df3c48b3884da2ff25e17524282d60f9c3b9390811790915561013e8054831673e7656e23fe8077d438aefbec2fabdf2d8e070c4f90811790915561013f8054841690911790556101408054831690911790556101418054821673524a89ed77d5827320e35e12bca96830c6b7960a9081179091556101428054831673f0d50568e3a7e8259e16663972b11910f89bd8e790811790915561014380548416909117905561014480549092161790558015610e27576000805461ff0019169055604051600181527f7f26b83ff96e1f2b6a682f133852f6798a09c465da95921460cefb384740249890602001612240565b612d366139e2565b6001600160a01b038116612da45760405162461bcd60e51b815260206004820152602f60248201527f54686520747265617375727920616464726573732063616e6e6f74206265207460448201526e6865207a65726f206164647265737360881b6064820152608401610b43565b610131546001600160a01b0390811690821603612e295760405162461bcd60e51b815260206004820152603860248201527f547265617375727920616464726573732068617320616c72656164792062656560448201527f6e206d6f64696669656420746f20746861742076616c756500000000000000006064820152608401610b43565b61013180546001600160a01b0319166001600160a01b0383169081179091556040519081527f2e1e696cfb265fa16e1170d24ef04cb2262772bde00ecf34d80bae6722487b7f90602001612240565b612e806139e2565b611f76613e9b565b6000806305f5e100612e9a8486614407565b612ea4919061479a565b61012d54909250612eb9836305f5e100614407565b612ec3919061479a565b905061012e54821015612f485760405162461bcd60e51b815260206004820152604160248201527f54686520616d6f756e7420746f20696e76657374206d7573742062652067726560448201527f61746572207468616e20746865206d696e696d756d2065737461626c697368656064820152601960fa1b608482015260a401610b43565b30600090815260336020526040902054811115612fde5760405162461bcd60e51b815260206004820152604860248201527f54686520696e766573746d656e74206d6164652072657475726e7320616e206160448201527f6d6f756e74206f6620485941582067726561746572207468616e2074686520616064820152677661696c61626c6560c01b608482015260a401610b43565b9250929050565b606060378054610b69906142ca565b6000338161300282866137a6565b9050838110156130625760405162461bcd60e51b815260206004820152602560248201527f45524332303a2064656372656173656420616c6c6f77616e63652062656c6f77604482015264207a65726f60d81b6064820152608401610b43565b610e4382868684036138be565b600033610bfa818585613b83565b6130856139e2565b600081116130f55760405162461bcd60e51b815260206004820152603760248201527f4e6577206d696e696d756e20616d6f756e7420746f20696e766573742c206d7560448201527673742062652067726561746572207468616e207a65726f60481b6064820152608401610b43565b61012e8190556040518181527fee60eb8e40a2ec796bfe3ca896b9221af9764fc0987bf0508ca755266d9c85f890602001612240565b6131336139e2565b61012d5481036131a05760405162461bcd60e51b815260206004820152603260248201527f485941582070726963652068617320616c7265616479206265656e206d6f64696044820152716669656420746f20746861742076616c756560701b6064820152608401610b43565b6207a1208110156132305760405162461bcd60e51b815260206004820152604e60248201527f5072696365206f66204859415820746f6b656e206d757374206265206174206c60448201527f656173742055534420302e3030352c207468617420697320353030303030207760648201526d697468203820646563696d616c7360901b608482015260a401610b43565b64174876e8008111156132c95760405162461bcd60e51b815260206004820152605560248201527f5072696365206f66204859415820746f6b656e206d757374206265206174206d60448201527f6178696d756d2055534420313030302c2074686174206973203130303030303060648201527430303030302077697468203820646563696d616c7360581b608482015260a401610b43565b61012d8190556040518181527f4f6f7bbbb2b0dde2246ee6650672d1b55a5be5b52f8dd2e8d595f4bd47e1c91390602001612240565b60c9546001600160a01b03163314806133235750610130546001600160a01b031633145b61333f5760405162461bcd60e51b8152600401610b4390614592565b6001600160a01b0382166133ca5760405162461bcd60e51b815260206004820152604660248201527f496e766573746f72206164647265737320746f2075706461746520626c61636b60448201527f6c697374207374617475732063616e6e6f7420626520746865207a65726f206160648201526564647265737360d01b608482015260a401610b43565b6001600160a01b0382166000908152610132602052604090205481151561010090910460ff1615150361340f5760405162461bcd60e51b8152600401610b43906147bc565b6001600160a01b03821660008181526101326020908152604091829020805461ff00191661010086151590810291909117909155825133815291820193909352908101919091527f89a9c56967d4535d54c90bffd7cbd09f6d2a4c8e26b9e7f033f199d144e12b4e90606001611819565b6000808083600481111561349657613496614431565b036134ae5750610134546001600160a01b031661355a565b60018360048111156134c2576134c2614431565b036134da5750610137546001600160a01b031661355a565b60028360048111156134ee576134ee614431565b03613506575061013b546001600160a01b031661355a565b600383600481111561351a5761351a614431565b03613532575061013f546001600160a01b031661355a565b600483600481111561354657613546614431565b0361124d5750610143546001600160a01b03165b806001600160a01b031663feaf968c6040518163ffffffff1660e01b815260040160a060405180830381865afa9250505080156135b4575060408051601f3d908101601f191682019092526135b191810190614833565b60015b61361f5760405162461bcd60e51b815260206004820152603660248201527f54686572652077617320616e206572726f72206f627461696e696e67207468656044820152752070726963652066726f6d20746865206f7261636c6560501b6064820152608401610b43565b50919695505050505050565b50919050565b60c9546001600160a01b03163314806136555750610130546001600160a01b031633145b6136715760405162461bcd60e51b8152600401610b4390614592565b6001600160a01b0382166136fc5760405162461bcd60e51b815260206004820152604660248201527f496e766573746f72206164647265737320746f2075706461746520776869746560448201527f6c697374207374617475732063616e6e6f7420626520746865207a65726f206160648201526564647265737360d01b608482015260a401610b43565b6001600160a01b0382166000908152610132602052604090205481151560ff90911615150361373d5760405162461bcd60e51b8152600401610b43906147bc565b6001600160a01b03821660008181526101326020908152604091829020805460ff1916851515908117909155825133815291820193909352908101919091527f70bbee4e66e3fd40f7da099410cfd723ed4a0b4fec11f6cc968e850db827a88b90606001611819565b6001600160a01b03918216600090815260346020908152604080832093909416825291909152205490565b6137d96139e2565b6001600160a01b03811661383e5760405162461bcd60e51b815260206004820152602660248201527f4f776e61626c653a206e6577206f776e657220697320746865207a65726f206160448201526564647265737360d01b6064820152608401610b43565b306001600160a01b038216036138b55760405162461bcd60e51b815260206004820152603660248201527f4f776e61626c653a206e6577206f776e65722063616e6e6f74206265207468656044820152752073616d6520636f6e7472616374206164647265737360501b6064820152608401610b43565b610e2781613d8b565b6001600160a01b0383166139205760405162461bcd60e51b8152602060048201526024808201527f45524332303a20617070726f76652066726f6d20746865207a65726f206164646044820152637265737360e01b6064820152608401610b43565b6001600160a01b0382166139815760405162461bcd60e51b815260206004820152602260248201527f45524332303a20617070726f766520746f20746865207a65726f206164647265604482015261737360f01b6064820152608401610b43565b6001600160a01b0383811660008181526034602090815260408083209487168084529482529182902085905590518481527f8c5be1e5ebec7d5bd14f71427d1e84f3dd0314c0f7b2291e5b200ac8c7c3b925910160405180910390a3505050565b60c9546001600160a01b03163314611f765760405162461bcd60e51b815260206004820181905260248201527f4f776e61626c653a2063616c6c6572206973206e6f7420746865206f776e65726044820152606401610b43565b6001600160a01b038216613a925760405162461bcd60e51b815260206004820152601f60248201527f45524332303a206d696e7420746f20746865207a65726f2061646472657373006044820152606401610b43565b613a9e60008383613ed8565b8060356000828254613ab0919061441e565b90915550506001600160a01b0382166000818152603360209081526040808320805486019055518481527fddf252ad1be2c89b69c2b068fc378daa952ba7f163c4a11628f55a4df523b3ef910160405180910390a35050565b6000613b1584846137a6565b90506000198114613b7d5781811015613b705760405162461bcd60e51b815260206004820152601d60248201527f45524332303a20696e73756666696369656e7420616c6c6f77616e63650000006044820152606401610b43565b613b7d84848484036138be565b50505050565b6001600160a01b038316613be75760405162461bcd60e51b815260206004820152602560248201527f45524332303a207472616e736665722066726f6d20746865207a65726f206164604482015264647265737360d81b6064820152608401610b43565b6001600160a01b038216613c495760405162461bcd60e51b815260206004820152602360248201527f45524332303a207472616e7366657220746f20746865207a65726f206164647260448201526265737360e81b6064820152608401610b43565b613c54838383613ed8565b6001600160a01b03831660009081526033602052604090205481811015613ccc5760405162461bcd60e51b815260206004820152602660248201527f45524332303a207472616e7366657220616d6f756e7420657863656564732062604482015265616c616e636560d01b6064820152608401610b43565b6001600160a01b0380851660008181526033602052604080822086860390559286168082529083902080548601905591517fddf252ad1be2c89b69c2b068fc378daa952ba7f163c4a11628f55a4df523b3ef90613d2c9086815260200190565b60405180910390a3613b7d565b613d41613f3e565b6065805460ff191690557f5db9ee0a495bf2e6ff9c91a7834c1ba4fdd244a5e8aa4e537bd38aeae4b073aa335b6040516001600160a01b03909116815260200160405180910390a1565b60c980546001600160a01b038381166001600160a01b0319831681179093556040519116919082907f8be0079c531659141344cd1fd0a4f28419497f9722a3daafe3b4186f6b6457e090600090a35050565b600054610100900460ff16613e045760405162461bcd60e51b8152600401610b4390614883565b611f628282613f87565b600054610100900460ff16613e355760405162461bcd60e51b8152600401610b4390614883565b611f76613fc7565b600054610100900460ff16613e645760405162461bcd60e51b8152600401610b4390614883565b611f76613ff7565b600054610100900460ff16613e935760405162461bcd60e51b8152600401610b4390614883565b611f7661401e565b613ea3614051565b6065805460ff191660011790557f62e78cea01bee320cd4e420270b5ea74000d11b0c9f74754ebdbfc544b05a258613d6e3390565b60655460ff16156129815760405162461bcd60e51b815260206004820152602a60248201527f45524332305061757361626c653a20746f6b656e207472616e736665722077686044820152691a5b19481c185d5cd95960b21b6064820152608401610b43565b60655460ff16611f765760405162461bcd60e51b815260206004820152601460248201527314185d5cd8589b194e881b9bdd081c185d5cd95960621b6044820152606401610b43565b600054610100900460ff16613fae5760405162461bcd60e51b8152600401610b4390614883565b6036613fba838261491c565b506037612981828261491c565b600054610100900460ff16613fee5760405162461bcd60e51b8152600401610b4390614883565b611f7633613d8b565b600054610100900460ff16610b535760405162461bcd60e51b8152600401610b4390614883565b600054610100900460ff166140455760405162461bcd60e51b8152600401610b4390614883565b6065805460ff19169055565b60655460ff1615611f765760405162461bcd60e51b815260206004820152601060248201526f14185d5cd8589b194e881c185d5cd95960821b6044820152606401610b43565b60005b838110156140b257818101518382015260200161409a565b50506000910152565b60208152600082518060208401526140da816040850160208701614097565b601f01601f19169190910160400192915050565b80356001600160a01b038116811461410557600080fd5b919050565b6000806040838503121561411d57600080fd5b614126836140ee565b946020939093013593505050565b60006020828403121561414657600080fd5b5035919050565b60008060006060848603121561416257600080fd5b61416b846140ee565b9250614179602085016140ee565b9150604084013590509250925092565b80356005811061410557600080fd5b600080604083850312156141ab57600080fd5b6141b483614189565b91506141c2602084016140ee565b90509250929050565b8015158114610e2757600080fd5b600080604083850312156141ec57600080fd5b6141f5836140ee565b91506020830135614205816141cb565b809150509250929050565b60006020828403121561422257600080fd5b61422b826140ee565b9392505050565b6000806040838503121561424557600080fd5b61412683614189565b6000806040838503121561426157600080fd5b823591506141c2602084016140ee565b6000806040838503121561428457600080fd5b50508035926020909101359150565b6000602082840312156142a557600080fd5b61422b82614189565b600080604083850312156142c157600080fd5b6141b4836140ee565b600181811c908216806142de57607f821691505b60208210810361362b57634e487b7160e01b600052602260045260246000fd5b634e487b7160e01b600052601160045260246000fd5b600181815b8085111561434f578160001904821115614335576143356142fe565b8085161561434257918102915b93841c9390800290614319565b509250929050565b60008261436657506001610c00565b8161437357506000610c00565b81600181146143895760028114614393576143af565b6001915050610c00565b60ff8411156143a4576143a46142fe565b50506001821b610c00565b5060208310610133831016604e8410600b84101617156143d2575081810a610c00565b6143dc8383614314565b80600019048211156143f0576143f06142fe565b029392505050565b600061422b60ff841683614357565b8082028115828204841417610c0057610c006142fe565b80820180821115610c0057610c006142fe565b634e487b7160e01b600052602160045260246000fd5b634e487b7160e01b600052604160045260246000fd5b60006020828403121561446f57600080fd5b815167ffffffffffffffff8082111561448757600080fd5b818401915084601f83011261449b57600080fd5b8151818111156144ad576144ad614447565b604051601f8201601f19908116603f011681019083821181831017156144d5576144d5614447565b816040528281528760208487010111156144ee57600080fd5b6144ff836020830160208801614097565b979650505050505050565b60208082526046908201527f546865206e6577206164647265737320646f6573206e6f74207365656d20746f60408201527f2062656c6f6e6720746f2074686520636f72726563742070726963652064617460608201526518481999595960d21b608082015260a00190565b60008251614588818460208701614097565b9190910192915050565b6020808252603f908201527f46756e6374696f6e207265736572766564206f6e6c7920666f7220746865207760408201527f686974656c69737465722061646472657373206f7220746865206f776e657200606082015260800190565b60208082526034908201527f496e766573746f72206164647265737320686173206e6f74206265656e206164604082015273191959081d1bc81d1a19481dda1a5d195b1a5cdd60621b606082015260800190565b60208082526030908201527f496e766573746f72206164647265737320686173206265656e2061646465642060408201526f1d1bc81d1a1948189b1858dadb1a5cdd60821b606082015260800190565b600581106146b157634e487b7160e01b600052602160045260246000fd5b9052565b60208101610c008284614693565b6000602082840312156146d557600080fd5b5051919050565b6000602082840312156146ee57600080fd5b815161422b816141cb565b60208082526041908201527f54686572652077617320616e206572726f72206f6e2073656e64696e6720626160408201527f636b20746865204859415820546f6b656e20746f2074686520696e766573746f6060820152603960f91b608082015260a00190565b60a0810161476e8288614693565b6001600160a01b0395909516602082015260408101939093526060830191909152608090910152919050565b6000826147b757634e487b7160e01b600052601260045260246000fd5b500490565b60208082526038908201527f496e766573746f7220616464726573732068617320616c72656164792062656560408201527f6e207570646174656420746f2074686174207374617475730000000000000000606082015260800190565b805169ffffffffffffffffffff8116811461410557600080fd5b600080600080600060a0868803121561484b57600080fd5b61485486614819565b945060208601519350604086015192506060860151915061487760808701614819565b90509295509295909350565b6020808252602b908201527f496e697469616c697a61626c653a20636f6e7472616374206973206e6f74206960408201526a6e697469616c697a696e6760a81b606082015260800190565b601f82111561298157600081815260208120601f850160051c810160208610156148f55750805b601f850160051c820191505b8181101561491457828155600101614901565b505050505050565b815167ffffffffffffffff81111561493657614936614447565b61494a8161494484546142ca565b846148ce565b602080601f83116001811461497f57600084156149675750858301515b600019600386901b1c1916600185901b178555614914565b600085815260208120601f198616915b828110156149ae5788860151825594840194600190910190840161498f565b50858210156149cc5787850151600019600388901b60f8161c191681555b5050505050600190811b0190555056fe616479206265656e206d6f64696669656420746f20746861742076616c756500a26469706673582212204c399be4730e04edeed641c6f06ed8865870d9416e0e867af4dcea70e6f0be7b64736f6c63430008140033",
  "linkReferences": {},
  "deployedLinkReferences": {}
}