{
  "_format": "hh-sol-artifact-1",
  "contractName": "HYAXUpgradeableV2",
  "sourceName": "contracts/HYAXUpgradeableV2.sol",
  "abi": [
    {
      "anonymous": false,
      "inputs": [
        {
          "indexed": true,
          "internalType": "address",
          "name": "owner",
          "type": "address"
        },
        {
          "indexed": true,
          "internalType": "address",
          "name": "spender",
          "type": "address"
        },
        {
          "indexed": false,
          "internalType": "uint256",
          "name": "value",
          "type": "uint256"
        }
      ],
      "name": "Approval",
      "type": "event"
    },
    {
      "anonymous": false,
      "inputs": [
        {
          "indexed": false,
          "internalType": "uint8",
          "name": "version",
          "type": "uint8"
        }
      ],
      "name": "Initialized",
      "type": "event"
    },
    {
      "anonymous": false,
      "inputs": [
        {
          "indexed": false,
          "internalType": "enum HYAXUpgradeableV2.TokenType",
          "name": "tokenType",
          "type": "uint8"
        },
        {
          "indexed": false,
          "internalType": "address",
          "name": "sender",
          "type": "address"
        },
        {
          "indexed": false,
          "internalType": "uint256",
          "name": "tokenAmount",
          "type": "uint256"
        },
        {
          "indexed": false,
          "internalType": "uint256",
          "name": "totalInvestmentInUsd",
          "type": "uint256"
        },
        {
          "indexed": false,
          "internalType": "uint256",
          "name": "hyaxAmount",
          "type": "uint256"
        }
      ],
      "name": "InvestFromCryptoToken",
      "type": "event"
    },
    {
      "anonymous": false,
      "inputs": [
        {
          "indexed": false,
          "internalType": "address",
          "name": "sender",
          "type": "address"
        },
        {
          "indexed": false,
          "internalType": "uint256",
          "name": "maticAmount",
          "type": "uint256"
        },
        {
          "indexed": false,
          "internalType": "uint256",
          "name": "totalInvestmentInUsd",
          "type": "uint256"
        },
        {
          "indexed": false,
          "internalType": "uint256",
          "name": "hyaxAmount",
          "type": "uint256"
        }
      ],
      "name": "InvestFromMatic",
      "type": "event"
    },
    {
      "anonymous": false,
      "inputs": [
        {
          "indexed": false,
          "internalType": "address",
          "name": "sender",
          "type": "address"
        },
        {
          "indexed": false,
          "internalType": "address",
          "name": "_QualifiedInvestorAddress",
          "type": "address"
        }
      ],
      "name": "InvestorAddedToQualifiedInvestorList",
      "type": "event"
    },
    {
      "anonymous": false,
      "inputs": [
        {
          "indexed": false,
          "internalType": "address",
          "name": "sender",
          "type": "address"
        },
        {
          "indexed": false,
          "internalType": "address",
          "name": "_investorAddress",
          "type": "address"
        }
      ],
      "name": "InvestorAddedToWhiteList",
      "type": "event"
    },
    {
      "anonymous": false,
      "inputs": [
        {
          "indexed": false,
          "internalType": "address",
          "name": "sender",
          "type": "address"
        },
        {
          "indexed": false,
          "internalType": "address",
          "name": "_QualifiedInvestorAddress",
          "type": "address"
        }
      ],
      "name": "InvestorRemovedFromQualifiedInvestorList",
      "type": "event"
    },
    {
      "anonymous": false,
      "inputs": [
        {
          "indexed": false,
          "internalType": "address",
          "name": "sender",
          "type": "address"
        },
        {
          "indexed": false,
          "internalType": "address",
          "name": "_investorAddress",
          "type": "address"
        }
      ],
      "name": "InvestorRemovedFromWhiteList",
      "type": "event"
    },
    {
      "anonymous": false,
      "inputs": [
        {
          "indexed": true,
          "internalType": "address",
          "name": "previousOwner",
          "type": "address"
        },
        {
          "indexed": true,
          "internalType": "address",
          "name": "newOwner",
          "type": "address"
        }
      ],
      "name": "OwnershipTransferred",
      "type": "event"
    },
    {
      "anonymous": false,
      "inputs": [
        {
          "indexed": false,
          "internalType": "address",
          "name": "account",
          "type": "address"
        }
      ],
      "name": "Paused",
      "type": "event"
    },
    {
      "anonymous": false,
      "inputs": [
        {
          "indexed": false,
          "internalType": "address",
          "name": "sender",
          "type": "address"
        },
        {
          "indexed": false,
          "internalType": "uint256",
          "name": "amount",
          "type": "uint256"
        }
      ],
      "name": "TokenIssuance",
      "type": "event"
    },
    {
      "anonymous": false,
      "inputs": [
        {
          "indexed": true,
          "internalType": "address",
          "name": "from",
          "type": "address"
        },
        {
          "indexed": true,
          "internalType": "address",
          "name": "to",
          "type": "address"
        },
        {
          "indexed": false,
          "internalType": "uint256",
          "name": "value",
          "type": "uint256"
        }
      ],
      "name": "Transfer",
      "type": "event"
    },
    {
      "anonymous": false,
      "inputs": [
        {
          "indexed": false,
          "internalType": "address",
          "name": "account",
          "type": "address"
        }
      ],
      "name": "Unpaused",
      "type": "event"
    },
    {
      "anonymous": false,
      "inputs": [
        {
          "indexed": false,
          "internalType": "uint256",
          "name": "_newHyaxPrice",
          "type": "uint256"
        }
      ],
      "name": "UpdatedHyaxPrice",
      "type": "event"
    },
    {
      "anonymous": false,
      "inputs": [
        {
          "indexed": false,
          "internalType": "address",
          "name": "_newMaticPriceFeedAddress",
          "type": "address"
        }
      ],
      "name": "UpdatedMaticPriceFeedAddress",
      "type": "event"
    },
    {
      "anonymous": false,
      "inputs": [
        {
          "indexed": false,
          "internalType": "uint256",
          "name": "_newMaximumInvestmentAllowedInUSD",
          "type": "uint256"
        }
      ],
      "name": "UpdatedMaximumInvestmentAllowedInUSD",
      "type": "event"
    },
    {
      "anonymous": false,
      "inputs": [
        {
          "indexed": false,
          "internalType": "uint256",
          "name": "_newMinimumInvestmentAllowedInUSD",
          "type": "uint256"
        }
      ],
      "name": "UpdatedMinimumInvestmentAllowedInUSD",
      "type": "event"
    },
    {
      "anonymous": false,
      "inputs": [
        {
          "indexed": false,
          "internalType": "address",
          "name": "_newTreasuryAddress",
          "type": "address"
        }
      ],
      "name": "UpdatedTreasuryAddress",
      "type": "event"
    },
    {
      "anonymous": false,
      "inputs": [
        {
          "indexed": false,
          "internalType": "address",
          "name": "_newUsdcPriceFeedAddress",
          "type": "address"
        }
      ],
      "name": "UpdatedUsdcPriceFeedAddress",
      "type": "event"
    },
    {
      "anonymous": false,
      "inputs": [
        {
          "indexed": false,
          "internalType": "address",
          "name": "_newUsdcTokenAddress",
          "type": "address"
        }
      ],
      "name": "UpdatedUsdcTokenAddress",
      "type": "event"
    },
    {
      "anonymous": false,
      "inputs": [
        {
          "indexed": false,
          "internalType": "address",
          "name": "_newUsdtPriceFeedAddress",
          "type": "address"
        }
      ],
      "name": "UpdatedUsdtPriceFeedAddress",
      "type": "event"
    },
    {
      "anonymous": false,
      "inputs": [
        {
          "indexed": false,
          "internalType": "address",
          "name": "_newUsdtTokenAddress",
          "type": "address"
        }
      ],
      "name": "UpdatedUsdtTokenAddress",
      "type": "event"
    },
    {
      "anonymous": false,
      "inputs": [
        {
          "indexed": false,
          "internalType": "address",
          "name": "_newWbtcPriceFeedAddress",
          "type": "address"
        }
      ],
      "name": "UpdatedWbtcPriceFeedAddress",
      "type": "event"
    },
    {
      "anonymous": false,
      "inputs": [
        {
          "indexed": false,
          "internalType": "address",
          "name": "_newWbtcTokenAddress",
          "type": "address"
        }
      ],
      "name": "UpdatedWbtcTokenAddress",
      "type": "event"
    },
    {
      "anonymous": false,
      "inputs": [
        {
          "indexed": false,
          "internalType": "address",
          "name": "_newWethPriceFeedAddress",
          "type": "address"
        }
      ],
      "name": "UpdatedWethPriceFeedAddress",
      "type": "event"
    },
    {
      "anonymous": false,
      "inputs": [
        {
          "indexed": false,
          "internalType": "address",
          "name": "_newWethTokenAddress",
          "type": "address"
        }
      ],
      "name": "UpdatedWethTokenAddress",
      "type": "event"
    },
    {
      "anonymous": false,
      "inputs": [
        {
          "indexed": false,
          "internalType": "address",
          "name": "_newWhiteListerAddress",
          "type": "address"
        }
      ],
      "name": "UpdatedWhiteListerAddress",
      "type": "event"
    },
    {
      "inputs": [
        {
          "internalType": "address",
          "name": "_qualifiedInvestorAddress",
          "type": "address"
        }
      ],
      "name": "addToQualifiedInvestorList",
      "outputs": [],
      "stateMutability": "nonpayable",
      "type": "function"
    },
    {
      "inputs": [
        {
          "internalType": "address",
          "name": "_investorAddress",
          "type": "address"
        }
      ],
      "name": "addToWhiteList",
      "outputs": [],
      "stateMutability": "nonpayable",
      "type": "function"
    },
    {
      "inputs": [
        {
          "internalType": "address",
          "name": "owner",
          "type": "address"
        },
        {
          "internalType": "address",
          "name": "spender",
          "type": "address"
        }
      ],
      "name": "allowance",
      "outputs": [
        {
          "internalType": "uint256",
          "name": "",
          "type": "uint256"
        }
      ],
      "stateMutability": "view",
      "type": "function"
    },
    {
      "inputs": [
        {
          "internalType": "address",
          "name": "spender",
          "type": "address"
        },
        {
          "internalType": "uint256",
          "name": "amount",
          "type": "uint256"
        }
      ],
      "name": "approve",
      "outputs": [
        {
          "internalType": "bool",
          "name": "",
          "type": "bool"
        }
      ],
      "stateMutability": "nonpayable",
      "type": "function"
    },
    {
      "inputs": [
        {
          "internalType": "address",
          "name": "account",
          "type": "address"
        }
      ],
      "name": "balanceOf",
      "outputs": [
        {
          "internalType": "uint256",
          "name": "",
          "type": "uint256"
        }
      ],
      "stateMutability": "view",
      "type": "function"
    },
    {
      "inputs": [
        {
          "internalType": "uint256",
          "name": "_amount",
          "type": "uint256"
        },
        {
          "internalType": "uint256",
          "name": "_currentCryptocurrencyPrice",
          "type": "uint256"
        }
      ],
      "name": "calculateTotalHyaxTokenToReturn",
      "outputs": [
        {
          "internalType": "uint256",
          "name": "totalInvestmentInUsd",
          "type": "uint256"
        },
        {
          "internalType": "uint256",
          "name": "totalHyaxTokenToReturn",
          "type": "uint256"
        }
      ],
      "stateMutability": "view",
      "type": "function"
    },
    {
      "inputs": [],
      "name": "decimals",
      "outputs": [
        {
          "internalType": "uint8",
          "name": "",
          "type": "uint8"
        }
      ],
      "stateMutability": "view",
      "type": "function"
    },
    {
      "inputs": [
        {
          "internalType": "address",
          "name": "spender",
          "type": "address"
        },
        {
          "internalType": "uint256",
          "name": "subtractedValue",
          "type": "uint256"
        }
      ],
      "name": "decreaseAllowance",
      "outputs": [
        {
          "internalType": "bool",
          "name": "",
          "type": "bool"
        }
      ],
      "stateMutability": "nonpayable",
      "type": "function"
    },
    {
      "inputs": [
        {
          "internalType": "enum HYAXUpgradeableV2.TokenType",
          "name": "tokenType",
          "type": "uint8"
        }
      ],
      "name": "getCurrentTokenPrice",
      "outputs": [
        {
          "internalType": "uint256",
          "name": "",
          "type": "uint256"
        }
      ],
      "stateMutability": "view",
      "type": "function"
    },
    {
      "inputs": [],
      "name": "hyaxPrice",
      "outputs": [
        {
          "internalType": "uint256",
          "name": "",
          "type": "uint256"
        }
      ],
      "stateMutability": "view",
      "type": "function"
    },
    {
      "inputs": [
        {
          "internalType": "address",
          "name": "spender",
          "type": "address"
        },
        {
          "internalType": "uint256",
          "name": "addedValue",
          "type": "uint256"
        }
      ],
      "name": "increaseAllowance",
      "outputs": [
        {
          "internalType": "bool",
          "name": "",
          "type": "bool"
        }
      ],
      "stateMutability": "nonpayable",
      "type": "function"
    },
    {
      "inputs": [],
      "name": "initialize",
      "outputs": [],
      "stateMutability": "nonpayable",
      "type": "function"
    },
    {
      "inputs": [
        {
          "internalType": "enum HYAXUpgradeableV2.TokenType",
          "name": "tokenType",
          "type": "uint8"
        },
        {
          "internalType": "uint256",
          "name": "_amount",
          "type": "uint256"
        }
      ],
      "name": "investFromCryptoToken",
      "outputs": [
        {
          "internalType": "bool",
          "name": "",
          "type": "bool"
        }
      ],
      "stateMutability": "nonpayable",
      "type": "function"
    },
    {
      "inputs": [],
      "name": "investFromMatic",
      "outputs": [
        {
          "internalType": "bool",
          "name": "",
          "type": "bool"
        }
      ],
      "stateMutability": "payable",
      "type": "function"
    },
    {
      "inputs": [
        {
          "internalType": "address",
          "name": "",
          "type": "address"
        }
      ],
      "name": "investorData",
      "outputs": [
        {
          "internalType": "bool",
          "name": "isWhiteListed",
          "type": "bool"
        },
        {
          "internalType": "bool",
          "name": "isQualifiedInvestor",
          "type": "bool"
        },
        {
          "internalType": "uint256",
          "name": "totalHyaxBoughtByInvestor",
          "type": "uint256"
        },
        {
          "internalType": "uint256",
          "name": "totalUsdDepositedByInvestor",
          "type": "uint256"
        }
      ],
      "stateMutability": "view",
      "type": "function"
    },
    {
      "inputs": [],
      "name": "maticPriceFeedAddress",
      "outputs": [
        {
          "internalType": "address",
          "name": "",
          "type": "address"
        }
      ],
      "stateMutability": "view",
      "type": "function"
    },
    {
      "inputs": [],
      "name": "maximumInvestmentAllowedInUSD",
      "outputs": [
        {
          "internalType": "uint256",
          "name": "",
          "type": "uint256"
        }
      ],
      "stateMutability": "view",
      "type": "function"
    },
    {
      "inputs": [],
      "name": "minimumInvestmentAllowedInUSD",
      "outputs": [
        {
          "internalType": "uint256",
          "name": "",
          "type": "uint256"
        }
      ],
      "stateMutability": "view",
      "type": "function"
    },
    {
      "inputs": [],
      "name": "name",
      "outputs": [
        {
          "internalType": "string",
          "name": "",
          "type": "string"
        }
      ],
      "stateMutability": "view",
      "type": "function"
    },
    {
      "inputs": [],
      "name": "owner",
      "outputs": [
        {
          "internalType": "address",
          "name": "",
          "type": "address"
        }
      ],
      "stateMutability": "view",
      "type": "function"
    },
    {
      "inputs": [],
      "name": "pause",
      "outputs": [],
      "stateMutability": "nonpayable",
      "type": "function"
    },
    {
      "inputs": [],
      "name": "paused",
      "outputs": [
        {
          "internalType": "bool",
          "name": "",
          "type": "bool"
        }
      ],
      "stateMutability": "view",
      "type": "function"
    },
    {
      "inputs": [
        {
          "internalType": "address",
          "name": "_qualifiedInvestorAddress",
          "type": "address"
        }
      ],
      "name": "removeFromQualifiedInvestorList",
      "outputs": [],
      "stateMutability": "nonpayable",
      "type": "function"
    },
    {
      "inputs": [
        {
          "internalType": "address",
          "name": "_investorAddress",
          "type": "address"
        }
      ],
      "name": "removeFromWhiteList",
      "outputs": [],
      "stateMutability": "nonpayable",
      "type": "function"
    },
    {
      "inputs": [],
      "name": "renounceOwnership",
      "outputs": [],
      "stateMutability": "nonpayable",
      "type": "function"
    },
    {
      "inputs": [],
      "name": "symbol",
      "outputs": [
        {
          "internalType": "string",
          "name": "",
          "type": "string"
        }
      ],
      "stateMutability": "view",
      "type": "function"
    },
    {
      "inputs": [
        {
          "internalType": "uint256",
          "name": "_amount",
          "type": "uint256"
        }
      ],
      "name": "tokenIssuance",
      "outputs": [],
      "stateMutability": "nonpayable",
      "type": "function"
    },
    {
      "inputs": [],
      "name": "totalSupply",
      "outputs": [
        {
          "internalType": "uint256",
          "name": "",
          "type": "uint256"
        }
      ],
      "stateMutability": "view",
      "type": "function"
    },
    {
      "inputs": [
        {
          "internalType": "address",
          "name": "to",
          "type": "address"
        },
        {
          "internalType": "uint256",
          "name": "amount",
          "type": "uint256"
        }
      ],
      "name": "transfer",
      "outputs": [
        {
          "internalType": "bool",
          "name": "",
          "type": "bool"
        }
      ],
      "stateMutability": "nonpayable",
      "type": "function"
    },
    {
      "inputs": [
        {
          "internalType": "address",
          "name": "from",
          "type": "address"
        },
        {
          "internalType": "address",
          "name": "to",
          "type": "address"
        },
        {
          "internalType": "uint256",
          "name": "amount",
          "type": "uint256"
        }
      ],
      "name": "transferFrom",
      "outputs": [
        {
          "internalType": "bool",
          "name": "",
          "type": "bool"
        }
      ],
      "stateMutability": "nonpayable",
      "type": "function"
    },
    {
      "inputs": [
        {
          "internalType": "address",
          "name": "newOwner",
          "type": "address"
        }
      ],
      "name": "transferOwnership",
      "outputs": [],
      "stateMutability": "nonpayable",
      "type": "function"
    },
    {
      "inputs": [],
      "name": "treasuryAddress",
      "outputs": [
        {
          "internalType": "address",
          "name": "",
          "type": "address"
        }
      ],
      "stateMutability": "view",
      "type": "function"
    },
    {
      "inputs": [],
      "name": "unpause",
      "outputs": [],
      "stateMutability": "nonpayable",
      "type": "function"
    },
    {
      "inputs": [
        {
          "internalType": "uint256",
          "name": "_newHyaxPrice",
          "type": "uint256"
        }
      ],
      "name": "updateHyaxPrice",
      "outputs": [],
      "stateMutability": "nonpayable",
      "type": "function"
    },
    {
      "inputs": [
        {
          "internalType": "uint256",
          "name": "_newMaximumInvestmentAllowedInUSD",
          "type": "uint256"
        }
      ],
      "name": "updateMaximumInvestmentAllowedInUSD",
      "outputs": [],
      "stateMutability": "nonpayable",
      "type": "function"
    },
    {
      "inputs": [
        {
          "internalType": "uint256",
          "name": "_newMinimumInvestmentAllowedInUSD",
          "type": "uint256"
        }
      ],
      "name": "updateMinimumInvestmentAllowedInUSD",
      "outputs": [],
      "stateMutability": "nonpayable",
      "type": "function"
    },
    {
      "inputs": [
        {
          "internalType": "enum HYAXUpgradeableV2.TokenType",
          "name": "tokenType",
          "type": "uint8"
        },
        {
          "internalType": "address",
          "name": "newPriceFeedAddress",
          "type": "address"
        }
      ],
      "name": "updatePriceFeedAddress",
      "outputs": [],
      "stateMutability": "nonpayable",
      "type": "function"
    },
    {
      "inputs": [
        {
          "internalType": "enum HYAXUpgradeableV2.TokenType",
          "name": "tokenType",
          "type": "uint8"
        },
        {
          "internalType": "address",
          "name": "newTokenAddress",
          "type": "address"
        }
      ],
      "name": "updateTokenAddress",
      "outputs": [],
      "stateMutability": "nonpayable",
      "type": "function"
    },
    {
      "inputs": [
        {
          "internalType": "address",
          "name": "_newTreasuryAddress",
          "type": "address"
        }
      ],
      "name": "updateTreasuryAddress",
      "outputs": [],
      "stateMutability": "nonpayable",
      "type": "function"
    },
    {
      "inputs": [
        {
          "internalType": "address",
          "name": "_newWhiteListerAddress",
          "type": "address"
        }
      ],
      "name": "updateWhiteListerAddress",
      "outputs": [],
      "stateMutability": "nonpayable",
      "type": "function"
    },
    {
      "inputs": [],
      "name": "usdcPriceFeedAddress",
      "outputs": [
        {
          "internalType": "address",
          "name": "",
          "type": "address"
        }
      ],
      "stateMutability": "view",
      "type": "function"
    },
    {
      "inputs": [],
      "name": "usdcToken",
      "outputs": [
        {
          "internalType": "contract ERC20TokenInterface",
          "name": "",
          "type": "address"
        }
      ],
      "stateMutability": "view",
      "type": "function"
    },
    {
      "inputs": [],
      "name": "usdcTokenAddress",
      "outputs": [
        {
          "internalType": "address",
          "name": "",
          "type": "address"
        }
      ],
      "stateMutability": "view",
      "type": "function"
    },
    {
      "inputs": [],
      "name": "usdtPriceFeedAddress",
      "outputs": [
        {
          "internalType": "address",
          "name": "",
          "type": "address"
        }
      ],
      "stateMutability": "view",
      "type": "function"
    },
    {
      "inputs": [],
      "name": "usdtToken",
      "outputs": [
        {
          "internalType": "contract ERC20TokenInterface",
          "name": "",
          "type": "address"
        }
      ],
      "stateMutability": "view",
      "type": "function"
    },
    {
      "inputs": [],
      "name": "usdtTokenAddress",
      "outputs": [
        {
          "internalType": "address",
          "name": "",
          "type": "address"
        }
      ],
      "stateMutability": "view",
      "type": "function"
    },
    {
      "inputs": [],
      "name": "wbtcPriceFeedAddress",
      "outputs": [
        {
          "internalType": "address",
          "name": "",
          "type": "address"
        }
      ],
      "stateMutability": "view",
      "type": "function"
    },
    {
      "inputs": [],
      "name": "wbtcToken",
      "outputs": [
        {
          "internalType": "contract ERC20TokenInterface",
          "name": "",
          "type": "address"
        }
      ],
      "stateMutability": "view",
      "type": "function"
    },
    {
      "inputs": [],
      "name": "wbtcTokenAddress",
      "outputs": [
        {
          "internalType": "address",
          "name": "",
          "type": "address"
        }
      ],
      "stateMutability": "view",
      "type": "function"
    },
    {
      "inputs": [],
      "name": "wethPriceFeedAddress",
      "outputs": [
        {
          "internalType": "address",
          "name": "",
          "type": "address"
        }
      ],
      "stateMutability": "view",
      "type": "function"
    },
    {
      "inputs": [],
      "name": "wethToken",
      "outputs": [
        {
          "internalType": "contract ERC20TokenInterface",
          "name": "",
          "type": "address"
        }
      ],
      "stateMutability": "view",
      "type": "function"
    },
    {
      "inputs": [],
      "name": "wethTokenAddress",
      "outputs": [
        {
          "internalType": "address",
          "name": "",
          "type": "address"
        }
      ],
      "stateMutability": "view",
      "type": "function"
    },
    {
      "inputs": [],
      "name": "whiteListerAddress",
      "outputs": [
        {
          "internalType": "address",
          "name": "",
          "type": "address"
        }
      ],
      "stateMutability": "view",
      "type": "function"
    },
    {
      "stateMutability": "payable",
      "type": "receive"
    }
  ],
  "bytecode": "0x608060405234801561001057600080fd5b506149a1806100206000396000f3fe60806040526004361061031e5760003560e01c806365699d28116101ab57806395d89b41116100f7578063bb6f98fb11610095578063de1f53461161006f578063de1f53461461094e578063f2fde38b146109b9578063f7a47f81146109d9578063fb2dc76e146109fa57600080fd5b8063bb6f98fb146108ed578063c5f956af1461090d578063dd62ed3e1461092e57600080fd5b8063a9059cbb116100d1578063a9059cbb1461086c578063a98ad46c1461088c578063b2c568f3146108ad578063b40ed449146108cd57600080fd5b806395d89b41146108165780639d741e5d1461082b578063a457c2d71461084c57600080fd5b80638049bcb6116101645780638456cb591161013e5780638456cb591461078e5780638c945e63146107a35780638da5cb5b146107d85780638f7c7167146107f657600080fd5b80638049bcb6146107425780638129fc1c14610759578063841e45611461076e57600080fd5b806365699d281461067557806370a0823114610696578063715018a6146106cc578063731de514146106e157806377b53ece146107015780637ce5643a1461072257600080fd5b8063377c779f1161026a57806347ee0394116102235780635ae9384e116101fd5780635ae9384e146105fc5780635c975abb1461061d5780635ec2562a14610635578063653c3a471461065557600080fd5b806347ee03941461059a5780634b57b0be146105ba5780634c526bdb146105db57600080fd5b8063377c779f14610505578063395093511461051c5780633b14f3591461053c5780633de6f379146105445780633f4ba83a1461056457806340b5ea9c1461057957600080fd5b8063128ef022116102d757806323c66f9a116102b157806323c66f9a1461049157806327614df8146104b15780632a241ad3146104d2578063313ce567146104e957600080fd5b8063128ef0221461043257806318160ddd1461045257806323b872dd1461047157600080fd5b806301bf66481461033c57806306fdde031461035c57806308cd468f14610387578063095ea7b3146103c05780630f9dad71146103f057806311eac8551461041157600080fd5b366103375761032b610a1b565b610335600160fb55565b005b600080fd5b34801561034857600080fd5b50610335610357366004614130565b610a80565b34801561036857600080fd5b50610371610c3d565b60405161037e9190614176565b60405180910390f35b34801561039357600080fd5b5061013a546103a8906001600160a01b031681565b6040516001600160a01b03909116815260200161037e565b3480156103cc57600080fd5b506103e06103db3660046141a9565b610ccf565b604051901515815260200161037e565b3480156103fc57600080fd5b50610141546103a8906001600160a01b031681565b34801561041d57600080fd5b50610138546103a8906001600160a01b031681565b34801561043e57600080fd5b5061033561044d3660046141d3565b610ce9565b34801561045e57600080fd5b506035545b60405190815260200161037e565b34801561047d57600080fd5b506103e061048c3660046141ec565b610f0d565b34801561049d57600080fd5b506103356104ac366004614237565b610f31565b3480156104bd57600080fd5b50610140546103a8906001600160a01b031681565b3480156104de57600080fd5b5061046361012e5481565b3480156104f557600080fd5b506040516012815260200161037e565b34801561051157600080fd5b5061046361012d5481565b34801561052857600080fd5b506103e06105373660046141a9565b61168e565b6103e06116b0565b34801561055057600080fd5b5061033561055f366004614237565b611935565b34801561057057600080fd5b50610335611d90565b34801561058557600080fd5b50610136546103a8906001600160a01b031681565b3480156105a657600080fd5b506103356105b5366004614130565b611da2565b3480156105c657600080fd5b50610144546103a8906001600160a01b031681565b3480156105e757600080fd5b5061013d546103a8906001600160a01b031681565b34801561060857600080fd5b50610142546103a8906001600160a01b031681565b34801561062957600080fd5b5060655460ff166103e0565b34801561064157600080fd5b506103356106503660046141d3565b611fab565b34801561066157600080fd5b50610335610670366004614130565b612172565b34801561068157600080fd5b50610130546103a8906001600160a01b031681565b3480156106a257600080fd5b506104636106b1366004614130565b6001600160a01b031660009081526033602052604090205490565b3480156106d857600080fd5b506103356122c0565b3480156106ed57600080fd5b506103e06106fc36600461426a565b6122d2565b34801561070d57600080fd5b50610135546103a8906001600160a01b031681565b34801561072e57600080fd5b5061033561073d366004614130565b612796565b34801561074e57600080fd5b5061046361012f5481565b34801561076557600080fd5b5061033561296e565b34801561077a57600080fd5b50610335610789366004614130565b612d16565b34801561079a57600080fd5b50610335612e60565b3480156107af57600080fd5b506107c36107be366004614286565b612e70565b6040805192835260208301919091520161037e565b3480156107e457600080fd5b5060c9546001600160a01b03166103a8565b34801561080257600080fd5b50610335610811366004614130565b612fcd565b34801561082257600080fd5b50610371613239565b34801561083757600080fd5b50610139546103a8906001600160a01b031681565b34801561085857600080fd5b506103e06108673660046141a9565b613248565b34801561087857600080fd5b506103e06108873660046141a9565b6132c3565b34801561089857600080fd5b5061013c546103a8906001600160a01b031681565b3480156108b957600080fd5b506103356108c83660046141d3565b6132d1565b3480156108d957600080fd5b506103356108e83660046141d3565b613499565b3480156108f957600080fd5b506104636109083660046142a8565b61366d565b34801561091957600080fd5b50610131546103a8906001600160a01b031681565b34801561093a57600080fd5b506104636109493660046142c3565b61381e565b34801561095a57600080fd5b50610997610969366004614130565b6101326020526000908152604090208054600182015460029092015460ff8083169361010090930416919084565b604080519415158552921515602085015291830152606082015260800161037e565b3480156109c557600080fd5b506103356109d4366004614130565b613849565b3480156109e557600080fd5b5061013e546103a8906001600160a01b031681565b348015610a0657600080fd5b50610133546103a8906001600160a01b031681565b600260fb5403610a725760405162461bcd60e51b815260206004820152601f60248201527f5265656e7472616e637947756172643a207265656e7472616e742063616c6c0060448201526064015b60405180910390fd5b600260fb55565b600160fb55565b60c9546001600160a01b0316331480610aa45750610130546001600160a01b031633145b610ac05760405162461bcd60e51b8152600401610a69906142df565b6001600160a01b038116610b4e5760405162461bcd60e51b815260206004820152604960248201527f496e766573746f72206164647265737320746f2072656d6f76652066726f6d2060448201527f746865207768697465206c6973742063616e6e6f7420626520746865207a65726064820152686f206164647265737360b81b608482015260a401610a69565b6001600160a01b0381166000908152610132602052604090205460ff16610bdd5760405162461bcd60e51b815260206004820152603960248201527f5468617420696e766573746f722061646472657373206973206e6f742072656760448201527f69737465726564206f6e20746865207768697465206c697374000000000000006064820152608401610a69565b6001600160a01b03811660008181526101326020908152604091829020805460ff191690558151338152908101929092527f41b8ea78b0816bef99ff095d54fbe2cef1f50003e09ce81445df1f89d957994491015b60405180910390a150565b606060368054610c4c9061433d565b80601f0160208091040260200160405190810160405280929190818152602001828054610c789061433d565b8015610cc55780601f10610c9a57610100808354040283529160200191610cc5565b820191906000526020600020905b815481529060010190602001808311610ca857829003601f168201915b5050505050905090565b600033610cdd818585613936565b60019150505b92915050565b610cf1613a5a565b610cf9610a1b565b610d056012600a61446b565b811015610d7a5760405162461bcd60e51b815260206004820152603760248201527f416d6f756e74206f66204859415820746f6b656e7320746f206973737565206d60448201527f757374206265206174206c65617374203120746f6b656e0000000000000000006064820152608401610a69565b610d866012600a61446b565b610d9490633b9aca0061447a565b811115610e095760405162461bcd60e51b815260206004820152603f60248201527f416d6f756e74206f66204859415820746f6b656e7320746f206973737565206160448201527f7420612074696d65206d757374206265206d6178696d756d2031303030204d006064820152608401610a69565b610e156012600a61446b565b610e24906402540be40061447a565b81610e2e60355490565b610e389190614491565b1115610eac5760405162461bcd60e51b815260206004820152603b60248201527f416d6f756e74206f66204859415820746f6b656e7320746f206973737565207360448201527f75727061736573207468652031302c303030204d20746f6b656e7300000000006064820152608401610a69565b610ec7610ec160c9546001600160a01b031690565b82613ab4565b60408051338152602081018390527f455064bbf1374d9e833b8d9db24c56b24dbf79cc1a94a30665cae7093963d5a8910160405180910390a1610f0a600160fb55565b50565b600033610f1b858285613b81565b610f26858585613bfb565b506001949350505050565b610f39613a5a565b6001600160a01b038116610fae5760405162461bcd60e51b815260206004820152603660248201527f5468652070726963652064617461206665656420616464726573732063616e6e6044820152756f7420626520746865207a65726f206164647265737360501b6064820152608401610a69565b8060008080856004811115610fc557610fc56144a4565b0361108957610133546001600160a01b0390811690851603611051576040805162461bcd60e51b81526020600482015260248101919091527f4d41544943207072696365206665656420616464726573732068617320616c7260448201527f65616479206265656e206d6f64696669656420746f20746861742076616c75656064820152608401610a69565b6040516a1350551250c80bc81554d160aa1b6020820152602b015b60405160208183030381529060405280519060200120915061136d565b600185600481111561109d5761109d6144a4565b0361113357610136546001600160a01b03908116908516036111155760405162461bcd60e51b815260206004820152603f60248201527f55534443207072696365206665656420616464726573732068617320616c7265604482015260008051602061494c8339815191526064820152608401610a69565b604051691554d110c80bc81554d160b21b6020820152602a0161106c565b6002856004811115611147576111476144a4565b036111dd5761013a546001600160a01b03908116908516036111bf5760405162461bcd60e51b815260206004820152603f60248201527f55534454207072696365206665656420616464726573732068617320616c7265604482015260008051602061494c8339815191526064820152608401610a69565b604051691554d115080bc81554d160b21b6020820152602a0161106c565b60038560048111156111f1576111f16144a4565b036112875761013e546001600160a01b03908116908516036112695760405162461bcd60e51b815260206004820152603f60248201527f57425443207072696365206665656420616464726573732068617320616c7265604482015260008051602061494c8339815191526064820152608401610a69565b6040516915d09510c80bc81554d160b21b6020820152602a0161106c565b600485600481111561129b5761129b6144a4565b0361133057610142546001600160a01b03908116908516036113135760405162461bcd60e51b815260206004820152603f60248201527f57455448207072696365206665656420616464726573732068617320616c7265604482015260008051602061494c8339815191526064820152608401610a69565b60405168115512080bc81554d160ba1b602082015260290161106c565b60405162461bcd60e51b8152602060048201526012602482015271496e76616c696420746f6b656e207479706560701b6044820152606401610a69565b826001600160a01b0316637284e4166040518163ffffffff1660e01b8152600401600060405180830381865afa9250505080156113cc57506040513d6000823e601f3d908101601f191682016040526113c991908101906144d0565b60015b6113e85760405162461bcd60e51b8152600401610a699061457d565b806040516020016113f991906145e9565b6040516020818303038152906040528051906020012091508183146114305760405162461bcd60e51b8152600401610a699061457d565b506000856004811115611445576114456144a4565b036114af5761013380546001600160a01b0386166001600160a01b031991821681179092556101348054909116821790556040519081527fee9bc8d900b5d69f934ec4a3986b3bfda61add54821456c3f7e943e87cf48f52906020015b60405180910390a1611687565b60018560048111156114c3576114c36144a4565b036115245761013680546001600160a01b0386166001600160a01b031991821681179092556101378054909116821790556040519081527f0a0bc5dadd9d9c881861f6da8998bebef8eabcb5f3d6651187c5d1899e327965906020016114a2565b6002856004811115611538576115386144a4565b036115995761013a80546001600160a01b0386166001600160a01b0319918216811790925561013b8054909116821790556040519081527f1e5bfe0b7fe6fcdc586b9e3a4fbdc0bdb1346d36173963ba38c897137ba16031906020016114a2565b60038560048111156115ad576115ad6144a4565b0361160e5761013e80546001600160a01b0386166001600160a01b0319918216811790925561013f8054909116821790556040519081527f2171c3cfa3d86551d618c9da7164a608dd795715bf61402d9ccb45cf5433a076906020016114a2565b6004856004811115611622576116226144a4565b036116875761014280546001600160a01b0386166001600160a01b031991821681179092556101438054909116821790556040519081527fc21be1e8c8d6de83e19ad6de75cd885eefac75be87e532a0a04d02147004e5209060200160405180910390a15b5050505050565b600033610cdd8185856116a1838361381e565b6116ab9190614491565b613936565b336000908152610132602052604081205460ff166116e05760405162461bcd60e51b8152600401610a6990614605565b6116e8610a1b565b60008061175d34306001600160a01b031663bb6f98fb60006040518263ffffffff1660e01b815260040161171c919061467c565b602060405180830381865afa158015611739573d6000803e3d6000fd5b505050506040513d601f19601f820116820180604052508101906107be919061468a565b610131546040519294509092506001600160a01b0316903480156108fc02916000818181858888f193505050506118075760405162461bcd60e51b815260206004820152604260248201527f54686572652077617320616e206572726f72206f6e2073656e64696e6720746860448201527f65204d4154494320696e766573746d656e7420746f2074686520747265617375606482015261727960f01b608482015260a401610a69565b60405163a9059cbb60e01b815233600482015260248101829052309063a9059cbb906044016020604051808303816000875af115801561184b573d6000803e3d6000fd5b505050506040513d601f19601f8201168201806040525081019061186f91906146a3565b61188b5760405162461bcd60e51b8152600401610a69906146c5565b3360009081526101326020526040812060020180548492906118ae908490614491565b90915550503360009081526101326020526040812060010180548392906118d6908490614491565b909155505060408051338152346020820152908101839052606081018290527fe036cb252631bb3e3fbcb1aa359dd09f94f0dac1fe6de828e8bae3f5028331c59060800160405180910390a1600192505050611932600160fb55565b90565b61193d613a5a565b6001600160a01b0381166119a85760405162461bcd60e51b815260206004820152602c60248201527f54686520746f6b656e20616464726573732063616e6e6f74206265207468652060448201526b7a65726f206164647265737360a01b6064820152608401610a69565b60018260048111156119bc576119bc6144a4565b03611aa757610135546001600160a01b0390811690821603611a435760405162461bcd60e51b815260206004820152603a60248201527f5553444320746f6b656e20616464726573732068617320616c7265616479206260448201527965656e206d6f64696669656420746f20746861742076616c756560301b6064820152608401610a69565b61013580546001600160a01b0383166001600160a01b031991821681179092556101388054909116821790556040519081527f8b3f52c1d10699944ebee74ee29dca11c9c86bb0dbedef4abd6e737f613d4d3a906020015b60405180910390a15050565b6002826004811115611abb57611abb6144a4565b03611b9e57610139546001600160a01b0390811690821603611b425760405162461bcd60e51b815260206004820152603a60248201527f5553445420746f6b656e20616464726573732068617320616c7265616479206260448201527965656e206d6f64696669656420746f20746861742076616c756560301b6064820152608401610a69565b61013980546001600160a01b0383166001600160a01b0319918216811790925561013c8054909116821790556040519081527f1c2d8a05be2c8eca524d44cc224513d7e19ca97ac309c3e23bee450f8578ca1990602001611a9b565b6003826004811115611bb257611bb26144a4565b03611c955761013d546001600160a01b0390811690821603611c395760405162461bcd60e51b815260206004820152603a60248201527f5742544320746f6b656e20616464726573732068617320616c7265616479206260448201527965656e206d6f64696669656420746f20746861742076616c756560301b6064820152608401610a69565b61013d80546001600160a01b0383166001600160a01b031991821681179092556101408054909116821790556040519081527f95082f719648371f180ca4f9bad55a2ae7c2d029bbf93e360584ca6ea06327ea90602001611a9b565b6004826004811115611ca957611ca96144a4565b0361133057610141546001600160a01b0390811690821603611d305760405162461bcd60e51b815260206004820152603a60248201527f5745544820746f6b656e20616464726573732068617320616c7265616479206260448201527965656e206d6f64696669656420746f20746861742076616c756560301b6064820152608401610a69565b61014180546001600160a01b0383166001600160a01b031991821681179092556101448054909116821790556040519081527ff5fd160f565ac0e80215e9eced5afbfcd47389e99858fac6a3d93f2ec38ff6d690602001611a9b565b5050565b611d98613a5a565b611da0613db1565b565b60c9546001600160a01b0316331480611dc65750610130546001600160a01b031633145b611de25760405162461bcd60e51b8152600401610a69906142df565b6001600160a01b038116611e6c5760405162461bcd60e51b8152602060048201526044602482018190527f496e766573746f72206164647265737320746f2061646420746f207468652077908201527f68697465206c6973742063616e6e6f7420626520746865207a65726f206164646064820152637265737360e01b608482015260a401610a69565b6001600160a01b0381166000908152610132602052604090205460ff1615611efc5760405162461bcd60e51b815260206004820152603e60248201527f5468617420696e766573746f7220616464726573732068617320616c7265616460448201527f79206265656e20616464656420746f20746865207768697465206c69737400006064820152608401610a69565b60408051608081018252600060208083018281528385018381526060850184815260018087526001600160a01b03891680875261013286529588902087518154955161ffff1990961690151561ff001916176101009515159590950294909417845591519183019190915551600290910155835133815290810191909152825191927f8419b79dc227f7841e7bf32cea35c3f90fe5b3da68cde93adef3c32745c587de92918290030190a15050565b611fb3613a5a565b600081116120235760405162461bcd60e51b815260206004820152603760248201527f4e6577206d6178696d756d20616d6f756e7420746f20696e766573742c206d7560448201527673742062652067726561746572207468616e207a65726f60481b6064820152608401610a69565b61012f5481036120a95760405162461bcd60e51b815260206004820152604560248201527f4e6577206d6178696d756d20616d6f756e7420746f20696e766573742c20686160448201527f7320616c7265616479206265656e206d6f64696669656420746f20746861742060648201526476616c756560d81b608482015260a401610a69565b61012e5481101561213c5760405162461bcd60e51b815260206004820152605160248201527f4e6577206d6178696d756d20616d6f756e7420746f20696e766573742c206d7560448201527f73742062652067726561746572207468616e20746865206d696e696d756d20696064820152701b9d995cdd1b595b9d08185b1b1bddd959607a1b608482015260a401610a69565b61012f8190556040518181527f29d434ec19958e7ce86ca2870f5927ab4f948d916dcffc568c1343c1e1f7656690602001610c32565b61217a613a5a565b6001600160a01b0381166121ec5760405162461bcd60e51b815260206004820152603360248201527f546865207768697465206c697374657220616464726573732063616e6e6f7420604482015272626520746865207a65726f206164647265737360681b6064820152608401610a69565b610130546001600160a01b03908116908216036122715760405162461bcd60e51b815260206004820152603c60248201527f5768697465206c697374657220616464726573732068617320616c726561647960448201527f206265656e206d6f64696669656420746f20746861742076616c7565000000006064820152608401610a69565b61013080546001600160a01b0319166001600160a01b0383169081179091556040519081527f32359536720adedfb2b6c6dd7685519f09fdf93ce7824b68d5b2f56354fdebec90602001610c32565b6122c8613a5a565b611da06000613e03565b336000908152610132602052604081205460ff166123025760405162461bcd60e51b8152600401610a6990614605565b61230a610a1b565b6000806001856004811115612321576123216144a4565b036123a2576101385460405163bb6f98fb60e01b81526001600160a01b039091169250309063bb6f98fb9061235a90889060040161467c565b602060405180830381865afa158015612377573d6000803e3d6000fd5b505050506040513d601f19601f8201168201806040525081019061239b919061468a565b9050612489565b60028560048111156123b6576123b66144a4565b036123ef5761013c5460405163bb6f98fb60e01b81526001600160a01b039091169250309063bb6f98fb9061235a90889060040161467c565b6003856004811115612403576124036144a4565b0361243c576101405460405163bb6f98fb60e01b81526001600160a01b039091169250309063bb6f98fb9061235a90889060040161467c565b6004856004811115612450576124506144a4565b03611330576101445460405163bb6f98fb60e01b81526001600160a01b039091169250309063bb6f98fb9061235a90889060040161467c565b6000806124968684612e70565b6040516323b872dd60e01b81523360048201523060248201526044810189905291935091506001600160a01b038516906323b872dd906064016020604051808303816000875af11580156124ee573d6000803e3d6000fd5b505050506040513d601f19601f8201168201806040525081019061251291906146a3565b61257b5760405162461bcd60e51b815260206004820152603460248201527f54686572652077617320616e206572726f72206f6e20726563656976696e67206044820152731d1a19481d1bdad95b881a5b9d995cdd1b595b9d60621b6064820152608401610a69565b6101315460405163a9059cbb60e01b81526001600160a01b039182166004820152602481018890529085169063a9059cbb906044016020604051808303816000875af11580156125cf573d6000803e3d6000fd5b505050506040513d601f19601f820116820180604052508101906125f391906146a3565b6126705760405162461bcd60e51b815260206004820152604260248201527f54686572652077617320616e206572726f72206f6e2073656e64696e6720746860448201527f6520746f6b656e20696e766573746d656e7420746f2074686520747265617375606482015261727960f01b608482015260a401610a69565b60405163a9059cbb60e01b815233600482015260248101829052309063a9059cbb906044016020604051808303816000875af11580156126b4573d6000803e3d6000fd5b505050506040513d601f19601f820116820180604052508101906126d891906146a3565b6126f45760405162461bcd60e51b8152600401610a69906146c5565b336000908152610132602052604081206002018054849290612717908490614491565b909155505033600090815261013260205260408120600101805483929061273f908490614491565b90915550506040517f3b60324b6db90922773bde8799e6d3b7d574474a0fb52a6d340bd2ee92b5edbc9061277c90899033908a908790879061472c565b60405180910390a16001945050505050610ce3600160fb55565b60c9546001600160a01b03163314806127ba5750610130546001600160a01b031633145b6127d65760405162461bcd60e51b8152600401610a69906142df565b6001600160a01b0381166128715760405162461bcd60e51b815260206004820152605660248201527f496e766573746f72206164647265737320746f2072656d6f76652066726f6d2060448201527f746865207175616c696669656420696e766573746f72206c6973742063616e6e6064820152756f7420626520746865207a65726f206164647265737360501b608482015260a401610a69565b6001600160a01b03811660009081526101326020526040902054610100900460ff166129145760405162461bcd60e51b815260206004820152604660248201527f5468617420696e766573746f722061646472657373206973206e6f742072656760448201527f69737465726564206f6e20746865207175616c696669656420696e766573746f6064820152651c881b1a5cdd60d21b608482015260a401610a69565b6001600160a01b03811660008181526101326020908152604091829020805461ff00191690558151338152908101929092527f2ac92c349a800ca8b882e6d59e4f5c08ca2db952c08627c6cd4ab754a93b7ba39101610c32565b600054610100900460ff161580801561298e5750600054600160ff909116105b806129a85750303b1580156129a8575060005460ff166001145b612a0b5760405162461bcd60e51b815260206004820152602e60248201527f496e697469616c697a61626c653a20636f6e747261637420697320616c72656160448201526d191e481a5b9a5d1a585b1a5e995960921b6064820152608401610a69565b6000805460ff191660011790558015612a2e576000805461ff0019166101001790555b612a7560405180604001604052806009815260200168242ca0ac2a37b5b2b760b91b81525060405180604001604052806004815260200163090b282b60e31b815250613e55565b612a7d613e86565b612a85613eb5565b612a8d613ee4565b612ab033612a9d6012600a61446b565b612aab90631dcd650061447a565b613ab4565b620927c061012d55612ac46012600a61446b565b612acf90600161447a565b61012e55612adf6012600a61446b565b612aeb9061271061447a565b61012f5561013080546001600160a01b03199081167301c2f012de19e6436744c3f81f56e9e70c93a8c3179091556101318054821673350441f8a82680a785ffa9d3efea60bb4ca417f817905561013380548216721382149eba3441043c1c66972b4772963f5d439081179091556101348054831690911790556101358054821673f68054bfe5d45432ffca28ffa1f3d685d0456ddc90811790915561013680548316731b8739bb4cdf0089d07097a9ae5bd274b29c6f16908117909155610137805484169091179055610138805483169091179055610139805482167370e02fb82b6bc04f64099689b0599e14b44d4fbb90811790915561013a80548316733ac23dcb4ecfcbd24579e1f34542524d0e4edea890811790915561013b80548416909117905561013c80548316909117905561013d80548216733c8df3c48b3884da2ff25e17524282d60f9c3b9390811790915561013e8054831673e7656e23fe8077d438aefbec2fabdf2d8e070c4f90811790915561013f8054841690911790556101408054831690911790556101418054821673524a89ed77d5827320e35e12bca96830c6b7960a9081179091556101428054831673f0d50568e3a7e8259e16663972b11910f89bd8e790811790915561014380548416909117905561014480549092161790558015610f0a576000805461ff0019169055604051600181527f7f26b83ff96e1f2b6a682f133852f6798a09c465da95921460cefb384740249890602001610c32565b612d1e613a5a565b6001600160a01b038116612d8c5760405162461bcd60e51b815260206004820152602f60248201527f54686520747265617375727920616464726573732063616e6e6f74206265207460448201526e6865207a65726f206164647265737360881b6064820152608401610a69565b610131546001600160a01b0390811690821603612e115760405162461bcd60e51b815260206004820152603860248201527f547265617375727920616464726573732068617320616c72656164792062656560448201527f6e206d6f64696669656420746f20746861742076616c756500000000000000006064820152608401610a69565b61013180546001600160a01b0319166001600160a01b0383169081179091556040519081527f2e1e696cfb265fa16e1170d24ef04cb2262772bde00ecf34d80bae6722487b7f90602001610c32565b612e68613a5a565b611da0613f13565b6000806305f5e100612e82848661447a565b612e8c9190614766565b61012d54909250612ea1836305f5e10061447a565b612eab9190614766565b905061012e54821015612f305760405162461bcd60e51b815260206004820152604160248201527f54686520616d6f756e7420746f20696e76657374206d7573742062652067726560448201527f61746572207468616e20746865206d696e696d756d2065737461626c697368656064820152601960fa1b608482015260a401610a69565b30600090815260336020526040902054811115612fc65760405162461bcd60e51b815260206004820152604860248201527f54686520696e766573746d656e74206d6164652072657475726e7320616e206160448201527f6d6f756e74206f6620485941582067726561746572207468616e2074686520616064820152677661696c61626c6560c01b608482015260a401610a69565b9250929050565b60c9546001600160a01b0316331480612ff15750610130546001600160a01b031633145b61300d5760405162461bcd60e51b8152600401610a69906142df565b6001600160a01b0381166130a35760405162461bcd60e51b815260206004820152605160248201527f496e766573746f72206164647265737320746f2061646420746f20746865207160448201527f75616c696669656420696e766573746f72206c6973742063616e6e6f7420626560648201527020746865207a65726f206164647265737360781b608482015260a401610a69565b6001600160a01b0381166000908152610132602052604090205460ff166131325760405162461bcd60e51b815260206004820152603f60248201527f496e766573746f722061646472657373206d757374206265206669727374206160448201527f6464656420746f2074686520696e766573746f72207768697465206c697374006064820152608401610a69565b6001600160a01b03811660009081526101326020526040902054610100900460ff16156131db5760405162461bcd60e51b815260206004820152604b60248201527f5468617420696e766573746f7220616464726573732068617320616c7265616460448201527f79206265656e20616464656420746f20746865207175616c696669656420696e60648201526a1d995cdd1bdc881b1a5cdd60aa1b608482015260a401610a69565b6001600160a01b03811660008181526101326020908152604091829020805461ff0019166101001790558151338152908101929092527f037cd19042487ae926a661f12fdfb1b8737056255a7c1bcf9708313301a7aded9101610c32565b606060378054610c4c9061433d565b60003381613256828661381e565b9050838110156132b65760405162461bcd60e51b815260206004820152602560248201527f45524332303a2064656372656173656420616c6c6f77616e63652062656c6f77604482015264207a65726f60d81b6064820152608401610a69565b610f268286868403613936565b600033610cdd818585613bfb565b6132d9613a5a565b600081116133495760405162461bcd60e51b815260206004820152603760248201527f4e6577206d696e696d756e20616d6f756e7420746f20696e766573742c206d7560448201527673742062652067726561746572207468616e207a65726f60481b6064820152608401610a69565b61012e5481036133d35760405162461bcd60e51b815260206004820152604960248201527f4d696e696d756d20696e766573746d656e7420616c6c6f77656420696e20555360448201527f442068617320616c7265616479206265656e206d6f64696669656420746f20746064820152686861742076616c756560b81b608482015260a401610a69565b61012f548111156134635760405162461bcd60e51b815260206004820152604e60248201527f4e6577206d696e696d756e20616d6f756e7420746f20696e766573742c206d7560448201527f7374206265206c657373207468616e20746865206d6178696d756d20696e766560648201526d1cdd1b595b9d08185b1b1bddd95960921b608482015260a401610a69565b61012e8190556040518181527fee60eb8e40a2ec796bfe3ca896b9221af9764fc0987bf0508ca755266d9c85f890602001610c32565b6134a1613a5a565b61012d54810361350e5760405162461bcd60e51b815260206004820152603260248201527f485941582070726963652068617320616c7265616479206265656e206d6f64696044820152716669656420746f20746861742076616c756560701b6064820152608401610a69565b6207a12081101561359e5760405162461bcd60e51b815260206004820152604e60248201527f5072696365206f66204859415820746f6b656e206d757374206265206174206c60448201527f656173742055534420302e3030352c207468617420697320353030303030207760648201526d697468203820646563696d616c7360901b608482015260a401610a69565b64174876e8008111156136375760405162461bcd60e51b815260206004820152605560248201527f5072696365206f66204859415820746f6b656e206d757374206265206174206d60448201527f6178696d756d2055534420313030302c2074686174206973203130303030303060648201527430303030302077697468203820646563696d616c7360581b608482015260a401610a69565b61012d8190556040518181527f4f6f7bbbb2b0dde2246ee6650672d1b55a5be5b52f8dd2e8d595f4bd47e1c91390602001610c32565b60008080836004811115613683576136836144a4565b0361369b5750610134546001600160a01b0316613747565b60018360048111156136af576136af6144a4565b036136c75750610137546001600160a01b0316613747565b60028360048111156136db576136db6144a4565b036136f3575061013b546001600160a01b0316613747565b6003836004811115613707576137076144a4565b0361371f575061013f546001600160a01b0316613747565b6004836004811115613733576137336144a4565b036113305750610143546001600160a01b03165b806001600160a01b031663feaf968c6040518163ffffffff1660e01b815260040160a060405180830381865afa9250505080156137a1575060408051601f3d908101601f1916820190925261379e918101906147a2565b60015b61380c5760405162461bcd60e51b815260206004820152603660248201527f54686572652077617320616e206572726f72206f627461696e696e67207468656044820152752070726963652066726f6d20746865206f7261636c6560501b6064820152608401610a69565b50919695505050505050565b50919050565b6001600160a01b03918216600090815260346020908152604080832093909416825291909152205490565b613851613a5a565b6001600160a01b0381166138b65760405162461bcd60e51b815260206004820152602660248201527f4f776e61626c653a206e6577206f776e657220697320746865207a65726f206160448201526564647265737360d01b6064820152608401610a69565b306001600160a01b0382160361392d5760405162461bcd60e51b815260206004820152603660248201527f4f776e61626c653a206e6577206f776e65722063616e6e6f74206265207468656044820152752073616d6520636f6e7472616374206164647265737360501b6064820152608401610a69565b610f0a81613e03565b6001600160a01b0383166139985760405162461bcd60e51b8152602060048201526024808201527f45524332303a20617070726f76652066726f6d20746865207a65726f206164646044820152637265737360e01b6064820152608401610a69565b6001600160a01b0382166139f95760405162461bcd60e51b815260206004820152602260248201527f45524332303a20617070726f766520746f20746865207a65726f206164647265604482015261737360f01b6064820152608401610a69565b6001600160a01b0383811660008181526034602090815260408083209487168084529482529182902085905590518481527f8c5be1e5ebec7d5bd14f71427d1e84f3dd0314c0f7b2291e5b200ac8c7c3b925910160405180910390a3505050565b60c9546001600160a01b03163314611da05760405162461bcd60e51b815260206004820181905260248201527f4f776e61626c653a2063616c6c6572206973206e6f7420746865206f776e65726044820152606401610a69565b6001600160a01b038216613b0a5760405162461bcd60e51b815260206004820152601f60248201527f45524332303a206d696e7420746f20746865207a65726f2061646472657373006044820152606401610a69565b613b1660008383613f50565b8060356000828254613b289190614491565b90915550506001600160a01b0382166000818152603360209081526040808320805486019055518481527fddf252ad1be2c89b69c2b068fc378daa952ba7f163c4a11628f55a4df523b3ef910160405180910390a35050565b6000613b8d848461381e565b90506000198114613bf55781811015613be85760405162461bcd60e51b815260206004820152601d60248201527f45524332303a20696e73756666696369656e7420616c6c6f77616e63650000006044820152606401610a69565b613bf58484848403613936565b50505050565b6001600160a01b038316613c5f5760405162461bcd60e51b815260206004820152602560248201527f45524332303a207472616e736665722066726f6d20746865207a65726f206164604482015264647265737360d81b6064820152608401610a69565b6001600160a01b038216613cc15760405162461bcd60e51b815260206004820152602360248201527f45524332303a207472616e7366657220746f20746865207a65726f206164647260448201526265737360e81b6064820152608401610a69565b613ccc838383613f50565b6001600160a01b03831660009081526033602052604090205481811015613d445760405162461bcd60e51b815260206004820152602660248201527f45524332303a207472616e7366657220616d6f756e7420657863656564732062604482015265616c616e636560d01b6064820152608401610a69565b6001600160a01b0380851660008181526033602052604080822086860390559286168082529083902080548601905591517fddf252ad1be2c89b69c2b068fc378daa952ba7f163c4a11628f55a4df523b3ef90613da49086815260200190565b60405180910390a3613bf5565b613db9613fbb565b6065805460ff191690557f5db9ee0a495bf2e6ff9c91a7834c1ba4fdd244a5e8aa4e537bd38aeae4b073aa335b6040516001600160a01b03909116815260200160405180910390a1565b60c980546001600160a01b038381166001600160a01b0319831681179093556040519116919082907f8be0079c531659141344cd1fd0a4f28419497f9722a3daafe3b4186f6b6457e090600090a35050565b600054610100900460ff16613e7c5760405162461bcd60e51b8152600401610a69906147f2565b611d8c8282614004565b600054610100900460ff16613ead5760405162461bcd60e51b8152600401610a69906147f2565b611da0614044565b600054610100900460ff16613edc5760405162461bcd60e51b8152600401610a69906147f2565b611da0614074565b600054610100900460ff16613f0b5760405162461bcd60e51b8152600401610a69906147f2565b611da061409b565b613f1b6140ce565b6065805460ff191660011790557f62e78cea01bee320cd4e420270b5ea74000d11b0c9f74754ebdbfc544b05a258613de63390565b60655460ff1615613fb65760405162461bcd60e51b815260206004820152602a60248201527f45524332305061757361626c653a20746f6b656e207472616e736665722077686044820152691a5b19481c185d5cd95960b21b6064820152608401610a69565b505050565b60655460ff16611da05760405162461bcd60e51b815260206004820152601460248201527314185d5cd8589b194e881b9bdd081c185d5cd95960621b6044820152606401610a69565b600054610100900460ff1661402b5760405162461bcd60e51b8152600401610a69906147f2565b6036614037838261488b565b506037613fb6828261488b565b600054610100900460ff1661406b5760405162461bcd60e51b8152600401610a69906147f2565b611da033613e03565b600054610100900460ff16610a795760405162461bcd60e51b8152600401610a69906147f2565b600054610100900460ff166140c25760405162461bcd60e51b8152600401610a69906147f2565b6065805460ff19169055565b60655460ff1615611da05760405162461bcd60e51b815260206004820152601060248201526f14185d5cd8589b194e881c185d5cd95960821b6044820152606401610a69565b80356001600160a01b038116811461412b57600080fd5b919050565b60006020828403121561414257600080fd5b61414b82614114565b9392505050565b60005b8381101561416d578181015183820152602001614155565b50506000910152565b6020815260008251806020840152614195816040850160208701614152565b601f01601f19169190910160400192915050565b600080604083850312156141bc57600080fd5b6141c583614114565b946020939093013593505050565b6000602082840312156141e557600080fd5b5035919050565b60008060006060848603121561420157600080fd5b61420a84614114565b925061421860208501614114565b9150604084013590509250925092565b80356005811061412b57600080fd5b6000806040838503121561424a57600080fd5b61425383614228565b915061426160208401614114565b90509250929050565b6000806040838503121561427d57600080fd5b6141c583614228565b6000806040838503121561429957600080fd5b50508035926020909101359150565b6000602082840312156142ba57600080fd5b61414b82614228565b600080604083850312156142d657600080fd5b61425383614114565b602080825260409082018190527f46756e6374696f6e207265736572766564206f6e6c7920666f72207468652077908201527f68697465206c69737465722061646472657373206f7220746865206f776e6572606082015260800190565b600181811c9082168061435157607f821691505b60208210810361381857634e487b7160e01b600052602260045260246000fd5b634e487b7160e01b600052601160045260246000fd5b600181815b808511156143c25781600019048211156143a8576143a8614371565b808516156143b557918102915b93841c939080029061438c565b509250929050565b6000826143d957506001610ce3565b816143e657506000610ce3565b81600181146143fc576002811461440657614422565b6001915050610ce3565b60ff84111561441757614417614371565b50506001821b610ce3565b5060208310610133831016604e8410600b8410161715614445575081810a610ce3565b61444f8383614387565b806000190482111561446357614463614371565b029392505050565b600061414b60ff8416836143ca565b8082028115828204841417610ce357610ce3614371565b80820180821115610ce357610ce3614371565b634e487b7160e01b600052602160045260246000fd5b634e487b7160e01b600052604160045260246000fd5b6000602082840312156144e257600080fd5b815167ffffffffffffffff808211156144fa57600080fd5b818401915084601f83011261450e57600080fd5b815181811115614520576145206144ba565b604051601f8201601f19908116603f01168101908382118183101715614548576145486144ba565b8160405282815287602084870101111561456157600080fd5b614572836020830160208801614152565b979650505050505050565b60208082526046908201527f546865206e6577206164647265737320646f6573206e6f74207365656d20746f60408201527f2062656c6f6e6720746f2074686520636f72726563742070726963652064617460608201526518481999595960d21b608082015260a00190565b600082516145fb818460208701614152565b9190910192915050565b60208082526035908201527f496e766573746f72206164647265737320686173206e6f74206265656e206164604082015274191959081d1bc81d1a19481dda1a5d19481b1a5cdd605a1b606082015260800190565b6005811061467857634e487b7160e01b600052602160045260246000fd5b9052565b60208101610ce3828461465a565b60006020828403121561469c57600080fd5b5051919050565b6000602082840312156146b557600080fd5b8151801515811461414b57600080fd5b60208082526041908201527f54686572652077617320616e206572726f72206f6e2073656e64696e6720626160408201527f636b20746865204859415820546f6b656e20746f2074686520696e766573746f6060820152603960f91b608082015260a00190565b60a0810161473a828861465a565b6001600160a01b0395909516602082015260408101939093526060830191909152608090910152919050565b60008261478357634e487b7160e01b600052601260045260246000fd5b500490565b805169ffffffffffffffffffff8116811461412b57600080fd5b600080600080600060a086880312156147ba57600080fd5b6147c386614788565b94506020860151935060408601519250606086015191506147e660808701614788565b90509295509295909350565b6020808252602b908201527f496e697469616c697a61626c653a20636f6e7472616374206973206e6f74206960408201526a6e697469616c697a696e6760a81b606082015260800190565b601f821115613fb657600081815260208120601f850160051c810160208610156148645750805b601f850160051c820191505b8181101561488357828155600101614870565b505050505050565b815167ffffffffffffffff8111156148a5576148a56144ba565b6148b9816148b3845461433d565b8461483d565b602080601f8311600181146148ee57600084156148d65750858301515b600019600386901b1c1916600185901b178555614883565b600085815260208120601f198616915b8281101561491d578886015182559484019460019091019084016148fe565b508582101561493b5787850151600019600388901b60f8161c191681555b5050505050600190811b0190555056fe616479206265656e206d6f64696669656420746f20746861742076616c756500a264697066735822122064f97dccb7d30780803afbe22b45942eaed4c89a64c9de9a14b6d22b480069d964736f6c63430008140033",
  "linkReferences": {},
  "deployedLinkReferences": {}
}