{
  "_format": "hh-sol-artifact-1",
  "contractName": "HYAXUpgradeableToken",
  "sourceName": "contracts/HYAXUpgradeableToken.sol",
  "abi": [
    {
      "anonymous": false,
      "inputs": [
        {
          "indexed": true,
          "internalType": "address",
          "name": "owner",
          "type": "address"
        },
        {
          "indexed": true,
          "internalType": "address",
          "name": "spender",
          "type": "address"
        },
        {
          "indexed": false,
          "internalType": "uint256",
          "name": "value",
          "type": "uint256"
        }
      ],
      "name": "Approval",
      "type": "event"
    },
    {
      "anonymous": false,
      "inputs": [
        {
          "indexed": false,
          "internalType": "address",
          "name": "sender",
          "type": "address"
        },
        {
          "indexed": false,
          "internalType": "address",
          "name": "_investorAddress",
          "type": "address"
        },
        {
          "indexed": false,
          "internalType": "bool",
          "name": "_isBlacklisted",
          "type": "bool"
        }
      ],
      "name": "BlacklistStatusUpdated",
      "type": "event"
    },
    {
      "anonymous": false,
      "inputs": [
        {
          "indexed": false,
          "internalType": "uint8",
          "name": "version",
          "type": "uint8"
        }
      ],
      "name": "Initialized",
      "type": "event"
    },
    {
      "anonymous": false,
      "inputs": [
        {
          "indexed": true,
          "internalType": "enum HYAXUpgradeableToken.TokenType",
          "name": "tokenType",
          "type": "uint8"
        },
        {
          "indexed": true,
          "internalType": "address",
          "name": "sender",
          "type": "address"
        },
        {
          "indexed": false,
          "internalType": "uint256",
          "name": "tokenAmount",
          "type": "uint256"
        },
        {
          "indexed": false,
          "internalType": "uint256",
          "name": "totalInvestmentInUsd",
          "type": "uint256"
        },
        {
          "indexed": false,
          "internalType": "uint256",
          "name": "hyaxAmount",
          "type": "uint256"
        }
      ],
      "name": "InvestFromCryptoToken",
      "type": "event"
    },
    {
      "anonymous": false,
      "inputs": [
        {
          "indexed": true,
          "internalType": "address",
          "name": "sender",
          "type": "address"
        },
        {
          "indexed": false,
          "internalType": "uint256",
          "name": "maticAmount",
          "type": "uint256"
        },
        {
          "indexed": false,
          "internalType": "uint256",
          "name": "totalInvestmentInUsd",
          "type": "uint256"
        },
        {
          "indexed": false,
          "internalType": "uint256",
          "name": "hyaxAmount",
          "type": "uint256"
        }
      ],
      "name": "InvestFromMatic",
      "type": "event"
    },
    {
      "anonymous": false,
      "inputs": [
        {
          "indexed": true,
          "internalType": "address",
          "name": "sender",
          "type": "address"
        },
        {
          "indexed": true,
          "internalType": "address",
          "name": "_investorAddress",
          "type": "address"
        }
      ],
      "name": "InvestorAddedToWhiteList",
      "type": "event"
    },
    {
      "anonymous": false,
      "inputs": [
        {
          "indexed": true,
          "internalType": "address",
          "name": "sender",
          "type": "address"
        },
        {
          "indexed": false,
          "internalType": "uint256",
          "name": "amount",
          "type": "uint256"
        }
      ],
      "name": "MaticReceived",
      "type": "event"
    },
    {
      "anonymous": false,
      "inputs": [
        {
          "indexed": true,
          "internalType": "address",
          "name": "previousOwner",
          "type": "address"
        },
        {
          "indexed": true,
          "internalType": "address",
          "name": "newOwner",
          "type": "address"
        }
      ],
      "name": "OwnershipTransferred",
      "type": "event"
    },
    {
      "anonymous": false,
      "inputs": [
        {
          "indexed": false,
          "internalType": "address",
          "name": "account",
          "type": "address"
        }
      ],
      "name": "Paused",
      "type": "event"
    },
    {
      "anonymous": false,
      "inputs": [
        {
          "indexed": false,
          "internalType": "address",
          "name": "sender",
          "type": "address"
        },
        {
          "indexed": false,
          "internalType": "address",
          "name": "_QualifiedInvestorAddress",
          "type": "address"
        },
        {
          "indexed": false,
          "internalType": "bool",
          "name": "_isQualifiedInvestor",
          "type": "bool"
        }
      ],
      "name": "QualifiedInvestorStatusUpdated",
      "type": "event"
    },
    {
      "anonymous": false,
      "inputs": [
        {
          "indexed": true,
          "internalType": "address",
          "name": "sender",
          "type": "address"
        },
        {
          "indexed": false,
          "internalType": "uint256",
          "name": "amount",
          "type": "uint256"
        }
      ],
      "name": "TokenIssuance",
      "type": "event"
    },
    {
      "anonymous": false,
      "inputs": [
        {
          "indexed": true,
          "internalType": "address",
          "name": "from",
          "type": "address"
        },
        {
          "indexed": true,
          "internalType": "address",
          "name": "to",
          "type": "address"
        },
        {
          "indexed": false,
          "internalType": "uint256",
          "name": "value",
          "type": "uint256"
        }
      ],
      "name": "Transfer",
      "type": "event"
    },
    {
      "anonymous": false,
      "inputs": [
        {
          "indexed": false,
          "internalType": "address",
          "name": "account",
          "type": "address"
        }
      ],
      "name": "Unpaused",
      "type": "event"
    },
    {
      "anonymous": false,
      "inputs": [
        {
          "indexed": false,
          "internalType": "uint256",
          "name": "_newHyaxPrice",
          "type": "uint256"
        }
      ],
      "name": "UpdatedHyaxPrice",
      "type": "event"
    },
    {
      "anonymous": false,
      "inputs": [
        {
          "indexed": false,
          "internalType": "address",
          "name": "_newMaticPriceFeedAddress",
          "type": "address"
        }
      ],
      "name": "UpdatedMaticPriceFeedAddress",
      "type": "event"
    },
    {
      "anonymous": false,
      "inputs": [
        {
          "indexed": false,
          "internalType": "uint256",
          "name": "_newMaximumInvestmentAllowedInUSD",
          "type": "uint256"
        }
      ],
      "name": "UpdatedMaximumInvestmentAllowedInUSD",
      "type": "event"
    },
    {
      "anonymous": false,
      "inputs": [
        {
          "indexed": false,
          "internalType": "uint256",
          "name": "_newMinimumInvestmentAllowedInUSD",
          "type": "uint256"
        }
      ],
      "name": "UpdatedMinimumInvestmentAllowedInUSD",
      "type": "event"
    },
    {
      "anonymous": false,
      "inputs": [
        {
          "indexed": false,
          "internalType": "address",
          "name": "_newTreasuryAddress",
          "type": "address"
        }
      ],
      "name": "UpdatedTreasuryAddress",
      "type": "event"
    },
    {
      "anonymous": false,
      "inputs": [
        {
          "indexed": false,
          "internalType": "address",
          "name": "_newUsdcPriceFeedAddress",
          "type": "address"
        }
      ],
      "name": "UpdatedUsdcPriceFeedAddress",
      "type": "event"
    },
    {
      "anonymous": false,
      "inputs": [
        {
          "indexed": false,
          "internalType": "address",
          "name": "_newUsdcTokenAddress",
          "type": "address"
        }
      ],
      "name": "UpdatedUsdcTokenAddress",
      "type": "event"
    },
    {
      "anonymous": false,
      "inputs": [
        {
          "indexed": false,
          "internalType": "address",
          "name": "_newUsdtPriceFeedAddress",
          "type": "address"
        }
      ],
      "name": "UpdatedUsdtPriceFeedAddress",
      "type": "event"
    },
    {
      "anonymous": false,
      "inputs": [
        {
          "indexed": false,
          "internalType": "address",
          "name": "_newUsdtTokenAddress",
          "type": "address"
        }
      ],
      "name": "UpdatedUsdtTokenAddress",
      "type": "event"
    },
    {
      "anonymous": false,
      "inputs": [
        {
          "indexed": false,
          "internalType": "address",
          "name": "_newWbtcPriceFeedAddress",
          "type": "address"
        }
      ],
      "name": "UpdatedWbtcPriceFeedAddress",
      "type": "event"
    },
    {
      "anonymous": false,
      "inputs": [
        {
          "indexed": false,
          "internalType": "address",
          "name": "_newWbtcTokenAddress",
          "type": "address"
        }
      ],
      "name": "UpdatedWbtcTokenAddress",
      "type": "event"
    },
    {
      "anonymous": false,
      "inputs": [
        {
          "indexed": false,
          "internalType": "address",
          "name": "_newWethPriceFeedAddress",
          "type": "address"
        }
      ],
      "name": "UpdatedWethPriceFeedAddress",
      "type": "event"
    },
    {
      "anonymous": false,
      "inputs": [
        {
          "indexed": false,
          "internalType": "address",
          "name": "_newWethTokenAddress",
          "type": "address"
        }
      ],
      "name": "UpdatedWethTokenAddress",
      "type": "event"
    },
    {
      "anonymous": false,
      "inputs": [
        {
          "indexed": false,
          "internalType": "address",
          "name": "_newWhiteListerAddress",
          "type": "address"
        }
      ],
      "name": "UpdatedWhiteListerAddress",
      "type": "event"
    },
    {
      "anonymous": false,
      "inputs": [
        {
          "indexed": false,
          "internalType": "address",
          "name": "sender",
          "type": "address"
        },
        {
          "indexed": false,
          "internalType": "address",
          "name": "_investorAddress",
          "type": "address"
        },
        {
          "indexed": false,
          "internalType": "bool",
          "name": "_isWhiteListed",
          "type": "bool"
        }
      ],
      "name": "WhitelistStatusUpdated",
      "type": "event"
    },
    {
      "inputs": [],
      "name": "MAX_PRICE_AGE",
      "outputs": [
        {
          "internalType": "uint256",
          "name": "",
          "type": "uint256"
        }
      ],
      "stateMutability": "view",
      "type": "function"
    },
    {
      "inputs": [
        {
          "internalType": "address",
          "name": "_investorAddress",
          "type": "address"
        }
      ],
      "name": "addToWhiteList",
      "outputs": [],
      "stateMutability": "nonpayable",
      "type": "function"
    },
    {
      "inputs": [
        {
          "internalType": "address",
          "name": "owner",
          "type": "address"
        },
        {
          "internalType": "address",
          "name": "spender",
          "type": "address"
        }
      ],
      "name": "allowance",
      "outputs": [
        {
          "internalType": "uint256",
          "name": "",
          "type": "uint256"
        }
      ],
      "stateMutability": "view",
      "type": "function"
    },
    {
      "inputs": [
        {
          "internalType": "address",
          "name": "spender",
          "type": "address"
        },
        {
          "internalType": "uint256",
          "name": "amount",
          "type": "uint256"
        }
      ],
      "name": "approve",
      "outputs": [
        {
          "internalType": "bool",
          "name": "",
          "type": "bool"
        }
      ],
      "stateMutability": "nonpayable",
      "type": "function"
    },
    {
      "inputs": [
        {
          "internalType": "address",
          "name": "account",
          "type": "address"
        }
      ],
      "name": "balanceOf",
      "outputs": [
        {
          "internalType": "uint256",
          "name": "",
          "type": "uint256"
        }
      ],
      "stateMutability": "view",
      "type": "function"
    },
    {
      "inputs": [
        {
          "internalType": "uint256",
          "name": "_amount",
          "type": "uint256"
        },
        {
          "internalType": "uint256",
          "name": "_currentCryptocurrencyPrice",
          "type": "uint256"
        }
      ],
      "name": "calculateTotalHyaxTokenToReturn",
      "outputs": [
        {
          "internalType": "uint256",
          "name": "totalInvestmentInUsd",
          "type": "uint256"
        },
        {
          "internalType": "uint256",
          "name": "totalHyaxTokenToReturn",
          "type": "uint256"
        }
      ],
      "stateMutability": "view",
      "type": "function"
    },
    {
      "inputs": [],
      "name": "decimals",
      "outputs": [
        {
          "internalType": "uint8",
          "name": "",
          "type": "uint8"
        }
      ],
      "stateMutability": "view",
      "type": "function"
    },
    {
      "inputs": [
        {
          "internalType": "address",
          "name": "spender",
          "type": "address"
        },
        {
          "internalType": "uint256",
          "name": "subtractedValue",
          "type": "uint256"
        }
      ],
      "name": "decreaseAllowance",
      "outputs": [
        {
          "internalType": "bool",
          "name": "",
          "type": "bool"
        }
      ],
      "stateMutability": "nonpayable",
      "type": "function"
    },
    {
      "inputs": [
        {
          "internalType": "enum HYAXUpgradeableToken.TokenType",
          "name": "tokenType",
          "type": "uint8"
        }
      ],
      "name": "getCurrentTokenPrice",
      "outputs": [
        {
          "internalType": "uint256",
          "name": "",
          "type": "uint256"
        }
      ],
      "stateMutability": "view",
      "type": "function"
    },
    {
      "inputs": [],
      "name": "hyaxPrice",
      "outputs": [
        {
          "internalType": "uint256",
          "name": "",
          "type": "uint256"
        }
      ],
      "stateMutability": "view",
      "type": "function"
    },
    {
      "inputs": [
        {
          "internalType": "address",
          "name": "spender",
          "type": "address"
        },
        {
          "internalType": "uint256",
          "name": "addedValue",
          "type": "uint256"
        }
      ],
      "name": "increaseAllowance",
      "outputs": [
        {
          "internalType": "bool",
          "name": "",
          "type": "bool"
        }
      ],
      "stateMutability": "nonpayable",
      "type": "function"
    },
    {
      "inputs": [],
      "name": "initialize",
      "outputs": [],
      "stateMutability": "nonpayable",
      "type": "function"
    },
    {
      "inputs": [
        {
          "internalType": "enum HYAXUpgradeableToken.TokenType",
          "name": "tokenType",
          "type": "uint8"
        },
        {
          "internalType": "uint256",
          "name": "_amount",
          "type": "uint256"
        }
      ],
      "name": "investFromCryptoToken",
      "outputs": [
        {
          "internalType": "bool",
          "name": "",
          "type": "bool"
        }
      ],
      "stateMutability": "nonpayable",
      "type": "function"
    },
    {
      "inputs": [],
      "name": "investFromMatic",
      "outputs": [
        {
          "internalType": "bool",
          "name": "",
          "type": "bool"
        }
      ],
      "stateMutability": "payable",
      "type": "function"
    },
    {
      "inputs": [
        {
          "internalType": "address",
          "name": "",
          "type": "address"
        }
      ],
      "name": "investorData",
      "outputs": [
        {
          "internalType": "bool",
          "name": "isWhiteListed",
          "type": "bool"
        },
        {
          "internalType": "bool",
          "name": "isBlacklisted",
          "type": "bool"
        },
        {
          "internalType": "bool",
          "name": "isQualifiedInvestor",
          "type": "bool"
        },
        {
          "internalType": "uint256",
          "name": "totalHyaxBoughtByInvestor",
          "type": "uint256"
        },
        {
          "internalType": "uint256",
          "name": "totalUsdDepositedByInvestor",
          "type": "uint256"
        }
      ],
      "stateMutability": "view",
      "type": "function"
    },
    {
      "inputs": [],
      "name": "maticPriceFeedAddress",
      "outputs": [
        {
          "internalType": "address",
          "name": "",
          "type": "address"
        }
      ],
      "stateMutability": "view",
      "type": "function"
    },
    {
      "inputs": [],
      "name": "maximumInvestmentAllowedInUSD",
      "outputs": [
        {
          "internalType": "uint256",
          "name": "",
          "type": "uint256"
        }
      ],
      "stateMutability": "view",
      "type": "function"
    },
    {
      "inputs": [],
      "name": "minimumInvestmentAllowedInUSD",
      "outputs": [
        {
          "internalType": "uint256",
          "name": "",
          "type": "uint256"
        }
      ],
      "stateMutability": "view",
      "type": "function"
    },
    {
      "inputs": [],
      "name": "name",
      "outputs": [
        {
          "internalType": "string",
          "name": "",
          "type": "string"
        }
      ],
      "stateMutability": "view",
      "type": "function"
    },
    {
      "inputs": [],
      "name": "owner",
      "outputs": [
        {
          "internalType": "address",
          "name": "",
          "type": "address"
        }
      ],
      "stateMutability": "view",
      "type": "function"
    },
    {
      "inputs": [],
      "name": "pause",
      "outputs": [],
      "stateMutability": "nonpayable",
      "type": "function"
    },
    {
      "inputs": [],
      "name": "paused",
      "outputs": [
        {
          "internalType": "bool",
          "name": "",
          "type": "bool"
        }
      ],
      "stateMutability": "view",
      "type": "function"
    },
    {
      "inputs": [],
      "name": "renounceOwnership",
      "outputs": [],
      "stateMutability": "nonpayable",
      "type": "function"
    },
    {
      "inputs": [],
      "name": "symbol",
      "outputs": [
        {
          "internalType": "string",
          "name": "",
          "type": "string"
        }
      ],
      "stateMutability": "view",
      "type": "function"
    },
    {
      "inputs": [
        {
          "internalType": "uint256",
          "name": "_amount",
          "type": "uint256"
        }
      ],
      "name": "tokenIssuance",
      "outputs": [],
      "stateMutability": "nonpayable",
      "type": "function"
    },
    {
      "inputs": [],
      "name": "totalSupply",
      "outputs": [
        {
          "internalType": "uint256",
          "name": "",
          "type": "uint256"
        }
      ],
      "stateMutability": "view",
      "type": "function"
    },
    {
      "inputs": [
        {
          "internalType": "address",
          "name": "to",
          "type": "address"
        },
        {
          "internalType": "uint256",
          "name": "amount",
          "type": "uint256"
        }
      ],
      "name": "transfer",
      "outputs": [
        {
          "internalType": "bool",
          "name": "",
          "type": "bool"
        }
      ],
      "stateMutability": "nonpayable",
      "type": "function"
    },
    {
      "inputs": [
        {
          "internalType": "address",
          "name": "from",
          "type": "address"
        },
        {
          "internalType": "address",
          "name": "to",
          "type": "address"
        },
        {
          "internalType": "uint256",
          "name": "amount",
          "type": "uint256"
        }
      ],
      "name": "transferFrom",
      "outputs": [
        {
          "internalType": "bool",
          "name": "",
          "type": "bool"
        }
      ],
      "stateMutability": "nonpayable",
      "type": "function"
    },
    {
      "inputs": [
        {
          "internalType": "address",
          "name": "newOwner",
          "type": "address"
        }
      ],
      "name": "transferOwnership",
      "outputs": [],
      "stateMutability": "nonpayable",
      "type": "function"
    },
    {
      "inputs": [],
      "name": "treasuryAddress",
      "outputs": [
        {
          "internalType": "address",
          "name": "",
          "type": "address"
        }
      ],
      "stateMutability": "view",
      "type": "function"
    },
    {
      "inputs": [],
      "name": "unpause",
      "outputs": [],
      "stateMutability": "nonpayable",
      "type": "function"
    },
    {
      "inputs": [
        {
          "internalType": "address",
          "name": "_investorAddress",
          "type": "address"
        },
        {
          "internalType": "bool",
          "name": "_newStatus",
          "type": "bool"
        }
      ],
      "name": "updateBlacklistStatus",
      "outputs": [],
      "stateMutability": "nonpayable",
      "type": "function"
    },
    {
      "inputs": [
        {
          "internalType": "uint256",
          "name": "_newHyaxPrice",
          "type": "uint256"
        }
      ],
      "name": "updateHyaxPrice",
      "outputs": [],
      "stateMutability": "nonpayable",
      "type": "function"
    },
    {
      "inputs": [
        {
          "internalType": "uint256",
          "name": "_newMaximumInvestmentAllowedInUSD",
          "type": "uint256"
        }
      ],
      "name": "updateMaximumInvestmentAllowedInUSD",
      "outputs": [],
      "stateMutability": "nonpayable",
      "type": "function"
    },
    {
      "inputs": [
        {
          "internalType": "uint256",
          "name": "_newMinimumInvestmentAllowedInUSD",
          "type": "uint256"
        }
      ],
      "name": "updateMinimumInvestmentAllowedInUSD",
      "outputs": [],
      "stateMutability": "nonpayable",
      "type": "function"
    },
    {
      "inputs": [
        {
          "internalType": "enum HYAXUpgradeableToken.TokenType",
          "name": "tokenType",
          "type": "uint8"
        },
        {
          "internalType": "address",
          "name": "newPriceFeedAddress",
          "type": "address"
        }
      ],
      "name": "updatePriceFeedAddress",
      "outputs": [],
      "stateMutability": "nonpayable",
      "type": "function"
    },
    {
      "inputs": [
        {
          "internalType": "address",
          "name": "_qualifiedInvestorAddress",
          "type": "address"
        },
        {
          "internalType": "bool",
          "name": "_newStatus",
          "type": "bool"
        }
      ],
      "name": "updateQualifiedInvestorStatus",
      "outputs": [],
      "stateMutability": "nonpayable",
      "type": "function"
    },
    {
      "inputs": [
        {
          "internalType": "enum HYAXUpgradeableToken.TokenType",
          "name": "tokenType",
          "type": "uint8"
        },
        {
          "internalType": "address",
          "name": "newTokenAddress",
          "type": "address"
        }
      ],
      "name": "updateTokenAddress",
      "outputs": [],
      "stateMutability": "nonpayable",
      "type": "function"
    },
    {
      "inputs": [
        {
          "internalType": "address",
          "name": "_newTreasuryAddress",
          "type": "address"
        }
      ],
      "name": "updateTreasuryAddress",
      "outputs": [],
      "stateMutability": "nonpayable",
      "type": "function"
    },
    {
      "inputs": [
        {
          "internalType": "address",
          "name": "_newWhiteListerAddress",
          "type": "address"
        }
      ],
      "name": "updateWhiteListerAddress",
      "outputs": [],
      "stateMutability": "nonpayable",
      "type": "function"
    },
    {
      "inputs": [
        {
          "internalType": "address",
          "name": "_investorAddress",
          "type": "address"
        },
        {
          "internalType": "bool",
          "name": "_newStatus",
          "type": "bool"
        }
      ],
      "name": "updateWhitelistStatus",
      "outputs": [],
      "stateMutability": "nonpayable",
      "type": "function"
    },
    {
      "inputs": [],
      "name": "usdcPriceFeedAddress",
      "outputs": [
        {
          "internalType": "address",
          "name": "",
          "type": "address"
        }
      ],
      "stateMutability": "view",
      "type": "function"
    },
    {
      "inputs": [],
      "name": "usdcToken",
      "outputs": [
        {
          "internalType": "contract IERC20",
          "name": "",
          "type": "address"
        }
      ],
      "stateMutability": "view",
      "type": "function"
    },
    {
      "inputs": [],
      "name": "usdcTokenAddress",
      "outputs": [
        {
          "internalType": "address",
          "name": "",
          "type": "address"
        }
      ],
      "stateMutability": "view",
      "type": "function"
    },
    {
      "inputs": [],
      "name": "usdtPriceFeedAddress",
      "outputs": [
        {
          "internalType": "address",
          "name": "",
          "type": "address"
        }
      ],
      "stateMutability": "view",
      "type": "function"
    },
    {
      "inputs": [],
      "name": "usdtToken",
      "outputs": [
        {
          "internalType": "contract IERC20",
          "name": "",
          "type": "address"
        }
      ],
      "stateMutability": "view",
      "type": "function"
    },
    {
      "inputs": [],
      "name": "usdtTokenAddress",
      "outputs": [
        {
          "internalType": "address",
          "name": "",
          "type": "address"
        }
      ],
      "stateMutability": "view",
      "type": "function"
    },
    {
      "inputs": [],
      "name": "wbtcPriceFeedAddress",
      "outputs": [
        {
          "internalType": "address",
          "name": "",
          "type": "address"
        }
      ],
      "stateMutability": "view",
      "type": "function"
    },
    {
      "inputs": [],
      "name": "wbtcToken",
      "outputs": [
        {
          "internalType": "contract IERC20",
          "name": "",
          "type": "address"
        }
      ],
      "stateMutability": "view",
      "type": "function"
    },
    {
      "inputs": [],
      "name": "wbtcTokenAddress",
      "outputs": [
        {
          "internalType": "address",
          "name": "",
          "type": "address"
        }
      ],
      "stateMutability": "view",
      "type": "function"
    },
    {
      "inputs": [],
      "name": "wethPriceFeedAddress",
      "outputs": [
        {
          "internalType": "address",
          "name": "",
          "type": "address"
        }
      ],
      "stateMutability": "view",
      "type": "function"
    },
    {
      "inputs": [],
      "name": "wethToken",
      "outputs": [
        {
          "internalType": "contract IERC20",
          "name": "",
          "type": "address"
        }
      ],
      "stateMutability": "view",
      "type": "function"
    },
    {
      "inputs": [],
      "name": "wethTokenAddress",
      "outputs": [
        {
          "internalType": "address",
          "name": "",
          "type": "address"
        }
      ],
      "stateMutability": "view",
      "type": "function"
    },
    {
      "inputs": [],
      "name": "whiteListerAddress",
      "outputs": [
        {
          "internalType": "address",
          "name": "",
          "type": "address"
        }
      ],
      "stateMutability": "view",
      "type": "function"
    },
    {
      "stateMutability": "payable",
      "type": "receive"
    }
  ],
  "bytecode": "0x608060405234801561001057600080fd5b50614d1c806100206000396000f3fe6080604052600436106103395760003560e01c806370a08231116101ab578063a457c2d7116100f7578063c07732a311610095578063de1f53461161006f578063de1f5346146109bc578063f2fde38b14610a3f578063f7a47f8114610a5f578063fb2dc76e14610a8057600080fd5b8063c07732a31461095b578063c5f956af1461097b578063dd62ed3e1461099c57600080fd5b8063b2c568f3116100d1578063b2c568f3146108db578063b40ed449146108fb578063b83608061461091b578063bb6f98fb1461093b57600080fd5b8063a457c2d71461087a578063a9059cbb1461089a578063a98ad46c146108ba57600080fd5b8063841e4561116101645780638da5cb5b1161013e5780638da5cb5b1461081057806395d89b411461082e5780639d741e5d146108435780639d7f7e861461086457600080fd5b8063841e4561146107a65780638456cb59146107c65780638c945e63146107db57600080fd5b806370a08231146106ee578063715018a614610724578063731de5141461073957806377b53ece146107595780638049bcb61461077a5780638129fc1c1461079157600080fd5b8063377c779f116102855780634b57b0be116102235780635c975abb116101fd5780635c975abb146106755780635ec2562a1461068d578063653c3a47146106ad57806365699d28146106cd57600080fd5b80634b57b0be146106125780634c526bdb146106335780635ae9384e1461065457600080fd5b80633de6f3791161025f5780633de6f3791461059c5780633f4ba83a146105bc57806340b5ea9c146105d157806347ee0394146105f257600080fd5b8063377c779f1461055d57806339509351146105745780633b14f3591461059457600080fd5b806318160ddd116102f257806327614df8116102cc57806327614df8146104e95780632a241ad31461050a578063313ce56714610521578063367f44fb1461053d57600080fd5b806318160ddd1461048a57806323b872dd146104a957806323c66f9a146104c957600080fd5b806306fdde031461039457806308cd468f146103bf578063095ea7b3146103f85780630f9dad711461042857806311eac85514610449578063128ef0221461046a57600080fd5b3661038f57610346610aa1565b61034e610aff565b60405134815233907fecb865883ec69b0d00ee1bed3b735ecf8dec2e91e6ce400100c5e3fad740abb49060200160405180910390a261038d600160fb55565b005b600080fd5b3480156103a057600080fd5b506103a9610b62565b6040516103b691906143f7565b60405180910390f35b3480156103cb57600080fd5b5061013a546103e0906001600160a01b031681565b6040516001600160a01b0390911681526020016103b6565b34801561040457600080fd5b50610418610413366004614446565b610bf4565b60405190151581526020016103b6565b34801561043457600080fd5b50610141546103e0906001600160a01b031681565b34801561045557600080fd5b50610138546103e0906001600160a01b031681565b34801561047657600080fd5b5061038d610485366004614470565b610c0e565b34801561049657600080fd5b506035545b6040519081526020016103b6565b3480156104b557600080fd5b506104186104c4366004614489565b610e2e565b3480156104d557600080fd5b5061038d6104e43660046144d4565b610e52565b3480156104f557600080fd5b50610140546103e0906001600160a01b031681565b34801561051657600080fd5b5061049b61012e5481565b34801561052d57600080fd5b50604051601281526020016103b6565b34801561054957600080fd5b5061038d610558366004614515565b6115af565b34801561056957600080fd5b5061049b61012d5481565b34801561058057600080fd5b5061041861058f366004614446565b611829565b61041861184b565b3480156105a857600080fd5b5061038d6105b73660046144d4565b611b14565b3480156105c857600080fd5b5061038d611f6e565b3480156105dd57600080fd5b50610136546103e0906001600160a01b031681565b3480156105fe57600080fd5b5061038d61060d36600461454c565b611f7e565b34801561061e57600080fd5b50610144546103e0906001600160a01b031681565b34801561063f57600080fd5b5061013d546103e0906001600160a01b031681565b34801561066057600080fd5b50610142546103e0906001600160a01b031681565b34801561068157600080fd5b5060655460ff16610418565b34801561069957600080fd5b5061038d6106a8366004614470565b612194565b3480156106b957600080fd5b5061038d6106c836600461454c565b612362565b3480156106d957600080fd5b50610130546103e0906001600160a01b031681565b3480156106fa57600080fd5b5061049b61070936600461454c565b6001600160a01b031660009081526033602052604090205490565b34801561073057600080fd5b5061038d6124af565b34801561074557600080fd5b5061041861075436600461456e565b6124c1565b34801561076557600080fd5b50610135546103e0906001600160a01b031681565b34801561078657600080fd5b5061049b61012f5481565b34801561079d57600080fd5b5061038d6129b1565b3480156107b257600080fd5b5061038d6107c136600461454c565b612d59565b3480156107d257600080fd5b5061038d612ea3565b3480156107e757600080fd5b506107fb6107f636600461458a565b612eb3565b604080519283526020830191909152016103b6565b34801561081c57600080fd5b5060c9546001600160a01b03166103e0565b34801561083a57600080fd5b506103a9613010565b34801561084f57600080fd5b50610139546103e0906001600160a01b031681565b34801561087057600080fd5b5061049b610e1081565b34801561088657600080fd5b50610418610895366004614446565b61301f565b3480156108a657600080fd5b506104186108b5366004614446565b61309a565b3480156108c657600080fd5b5061013c546103e0906001600160a01b031681565b3480156108e757600080fd5b5061038d6108f6366004614470565b6130a8565b34801561090757600080fd5b5061038d610916366004614470565b613270565b34801561092757600080fd5b5061038d610936366004614515565b613444565b34801561094757600080fd5b5061049b6109563660046145ac565b6135c5565b34801561096757600080fd5b5061038d610976366004614515565b6138cc565b34801561098757600080fd5b50610131546103e0906001600160a01b031681565b3480156109a857600080fd5b5061049b6109b73660046145c7565b613a41565b3480156109c857600080fd5b50610a0e6109d736600461454c565b6101326020526000908152604090208054600182015460029092015460ff8083169361010084048216936201000090049091169185565b6040516103b69594939291909415158552921515602085015290151560408401526060830152608082015260a00190565b348015610a4b57600080fd5b5061038d610a5a36600461454c565b613a6c565b348015610a6b57600080fd5b5061013e546103e0906001600160a01b031681565b348015610a8c57600080fd5b50610133546103e0906001600160a01b031681565b600260fb5403610af85760405162461bcd60e51b815260206004820152601f60248201527f5265656e7472616e637947756172643a207265656e7472616e742063616c6c0060448201526064015b60405180910390fd5b600260fb55565b60c9546001600160a01b03163314610b595760405162461bcd60e51b815260206004820181905260248201527f4f776e61626c653a2063616c6c6572206973206e6f7420746865206f776e65726044820152606401610aef565b565b600160fb55565b606060368054610b71906145e3565b80601f0160208091040260200160405190810160405280929190818152602001828054610b9d906145e3565b8015610bea5780601f10610bbf57610100808354040283529160200191610bea565b820191906000526020600020905b815481529060010190602001808311610bcd57829003601f168201915b5050505050905090565b600033610c02818585613b59565b60019150505b92915050565b610c16610aff565b610c1e610aa1565b610c2a6012600a614711565b811015610c9f5760405162461bcd60e51b815260206004820152603760248201527f416d6f756e74206f66204859415820746f6b656e7320746f206973737565206d60448201527f757374206265206174206c65617374203120746f6b656e0000000000000000006064820152608401610aef565b610cab6012600a614711565b610cb990633b9aca00614720565b811115610d2e5760405162461bcd60e51b815260206004820152603f60248201527f416d6f756e74206f66204859415820746f6b656e7320746f206973737565206160448201527f7420612074696d65206d757374206265206d6178696d756d2031303030204d006064820152608401610aef565b610d3a6012600a614711565b610d49906402540be400614720565b81610d5360355490565b610d5d9190614737565b1115610dd15760405162461bcd60e51b815260206004820152603b60248201527f416d6f756e74206f66204859415820746f6b656e7320746f206973737565207360448201527f75727061736573207468652031302c303030204d20746f6b656e7300000000006064820152608401610aef565b610dec610de660c9546001600160a01b031690565b82613c7d565b60405181815233907f455064bbf1374d9e833b8d9db24c56b24dbf79cc1a94a30665cae7093963d5a89060200160405180910390a2610e2b600160fb55565b50565b600033610e3c858285613d4a565b610e47858585613dc4565b506001949350505050565b610e5a610aff565b6001600160a01b038116610ecf5760405162461bcd60e51b815260206004820152603660248201527f5468652070726963652064617461206665656420616464726573732063616e6e6044820152756f7420626520746865207a65726f206164647265737360501b6064820152608401610aef565b8060008080856004811115610ee657610ee661474a565b03610faa57610133546001600160a01b0390811690851603610f72576040805162461bcd60e51b81526020600482015260248101919091527f4d41544943207072696365206665656420616464726573732068617320616c7260448201527f65616479206265656e206d6f64696669656420746f20746861742076616c75656064820152608401610aef565b6040516a1350551250c80bc81554d160aa1b6020820152602b015b60405160208183030381529060405280519060200120915061128e565b6001856004811115610fbe57610fbe61474a565b0361105457610136546001600160a01b03908116908516036110365760405162461bcd60e51b815260206004820152603f60248201527f55534443207072696365206665656420616464726573732068617320616c72656044820152600080516020614cc78339815191526064820152608401610aef565b604051691554d110c80bc81554d160b21b6020820152602a01610f8d565b60028560048111156110685761106861474a565b036110fe5761013a546001600160a01b03908116908516036110e05760405162461bcd60e51b815260206004820152603f60248201527f55534454207072696365206665656420616464726573732068617320616c72656044820152600080516020614cc78339815191526064820152608401610aef565b604051691554d115080bc81554d160b21b6020820152602a01610f8d565b60038560048111156111125761111261474a565b036111a85761013e546001600160a01b039081169085160361118a5760405162461bcd60e51b815260206004820152603f60248201527f57425443207072696365206665656420616464726573732068617320616c72656044820152600080516020614cc78339815191526064820152608401610aef565b6040516915d09510c80bc81554d160b21b6020820152602a01610f8d565b60048560048111156111bc576111bc61474a565b0361125157610142546001600160a01b03908116908516036112345760405162461bcd60e51b815260206004820152603f60248201527f57455448207072696365206665656420616464726573732068617320616c72656044820152600080516020614cc78339815191526064820152608401610aef565b60405168115512080bc81554d160ba1b6020820152602901610f8d565b60405162461bcd60e51b8152602060048201526012602482015271496e76616c696420746f6b656e207479706560701b6044820152606401610aef565b826001600160a01b0316637284e4166040518163ffffffff1660e01b8152600401600060405180830381865afa9250505080156112ed57506040513d6000823e601f3d908101601f191682016040526112ea9190810190614776565b60015b6113095760405162461bcd60e51b8152600401610aef90614823565b8060405160200161131a919061488f565b6040516020818303038152906040528051906020012091508183146113515760405162461bcd60e51b8152600401610aef90614823565b5060008560048111156113665761136661474a565b036113d05761013380546001600160a01b0386166001600160a01b031991821681179092556101348054909116821790556040519081527fee9bc8d900b5d69f934ec4a3986b3bfda61add54821456c3f7e943e87cf48f52906020015b60405180910390a16115a8565b60018560048111156113e4576113e461474a565b036114455761013680546001600160a01b0386166001600160a01b031991821681179092556101378054909116821790556040519081527f0a0bc5dadd9d9c881861f6da8998bebef8eabcb5f3d6651187c5d1899e327965906020016113c3565b60028560048111156114595761145961474a565b036114ba5761013a80546001600160a01b0386166001600160a01b0319918216811790925561013b8054909116821790556040519081527f1e5bfe0b7fe6fcdc586b9e3a4fbdc0bdb1346d36173963ba38c897137ba16031906020016113c3565b60038560048111156114ce576114ce61474a565b0361152f5761013e80546001600160a01b0386166001600160a01b0319918216811790925561013f8054909116821790556040519081527f2171c3cfa3d86551d618c9da7164a608dd795715bf61402d9ccb45cf5433a076906020016113c3565b60048560048111156115435761154361474a565b036115a85761014280546001600160a01b0386166001600160a01b031991821681179092556101438054909116821790556040519081527fc21be1e8c8d6de83e19ad6de75cd885eefac75be87e532a0a04d02147004e5209060200160405180910390a15b5050505050565b60c9546001600160a01b03163314806115d35750610130546001600160a01b031633145b6115ef5760405162461bcd60e51b8152600401610aef906148ab565b6001600160a01b0382166116835760405162461bcd60e51b815260206004820152604f60248201527f496e766573746f72206164647265737320746f20757064617465207175616c6960448201527f6669656420696e766573746f72207374617475732063616e6e6f74206265207460648201526e6865207a65726f206164647265737360881b608482015260a401610aef565b6001600160a01b0382166000908152610132602052604090205460ff166117125760405162461bcd60e51b815260206004820152603e60248201527f496e766573746f722061646472657373206d757374206265206669727374206160448201527f6464656420746f2074686520696e766573746f722077686974656c69737400006064820152608401610aef565b6001600160a01b038216600090815261013260205260409020548115156201000090910460ff161515036117ae5760405162461bcd60e51b815260206004820152603d60248201527f5468617420696e766573746f7220616464726573732068617320616c7265616460448201527f79206265656e207570646174656420746f2074686174207374617475730000006064820152608401610aef565b6001600160a01b03821660008181526101326020908152604091829020805462ff000019166201000086151590810291909117909155825133815291820193909352908101919091527f3c53852fbea2a3e8d261e1a5412fcd1099cd0af0faf615db2a4cab4831106256906060015b60405180910390a15050565b600033610c0281858561183c8383613a41565b6118469190614737565b613b59565b336000908152610132602052604081205460ff1661187b5760405162461bcd60e51b8152600401610aef90614908565b3360009081526101326020526040902054610100900460ff16156118b15760405162461bcd60e51b8152600401610aef9061495c565b6118b9610aa1565b60008061192e34306001600160a01b031663bb6f98fb60006040518263ffffffff1660e01b81526004016118ed91906149ac565b602060405180830381865afa15801561190a573d6000803e3d6000fd5b505050506040513d601f19601f820116820180604052508101906107f691906149d4565b9150915061193c8233613f7a565b610131546040516000916001600160a01b03169034908381818185875af1925050503d806000811461198a576040519150601f19603f3d011682016040523d82523d6000602084013e61198f565b606091505b5050905080611a115760405162461bcd60e51b815260206004820152604260248201527f54686572652077617320616e206572726f72206f6e2073656e64696e6720746860448201527f65204d4154494320696e766573746d656e7420746f2074686520747265617375606482015261727960f01b608482015260a401610aef565b60405163a9059cbb60e01b815233600482015260248101839052309063a9059cbb906044016020604051808303816000875af1158015611a55573d6000803e3d6000fd5b505050506040513d601f19601f82011682018060405250810190611a7991906149ed565b611a955760405162461bcd60e51b8152600401610aef90614a0a565b336000908152610132602052604081206001018054849290611ab8908490614737565b9091555050604080513481526020810185905290810183905233907fe036cb252631bb3e3fbcb1aa359dd09f94f0dac1fe6de828e8bae3f5028331c59060600160405180910390a260019350505050611b11600160fb55565b90565b611b1c610aff565b6001600160a01b038116611b875760405162461bcd60e51b815260206004820152602c60248201527f54686520746f6b656e20616464726573732063616e6e6f74206265207468652060448201526b7a65726f206164647265737360a01b6064820152608401610aef565b6001826004811115611b9b57611b9b61474a565b03611c8557610135546001600160a01b0390811690821603611c225760405162461bcd60e51b815260206004820152603a60248201527f5553444320746f6b656e20616464726573732068617320616c7265616479206260448201527965656e206d6f64696669656420746f20746861742076616c756560301b6064820152608401610aef565b61013580546001600160a01b0383166001600160a01b031991821681179092556101388054909116821790556040519081527f8b3f52c1d10699944ebee74ee29dca11c9c86bb0dbedef4abd6e737f613d4d3a9060200160405180910390a15050565b6002826004811115611c9957611c9961474a565b03611d7c57610139546001600160a01b0390811690821603611d205760405162461bcd60e51b815260206004820152603a60248201527f5553445420746f6b656e20616464726573732068617320616c7265616479206260448201527965656e206d6f64696669656420746f20746861742076616c756560301b6064820152608401610aef565b61013980546001600160a01b0383166001600160a01b0319918216811790925561013c8054909116821790556040519081527f1c2d8a05be2c8eca524d44cc224513d7e19ca97ac309c3e23bee450f8578ca199060200161181d565b6003826004811115611d9057611d9061474a565b03611e735761013d546001600160a01b0390811690821603611e175760405162461bcd60e51b815260206004820152603a60248201527f5742544320746f6b656e20616464726573732068617320616c7265616479206260448201527965656e206d6f64696669656420746f20746861742076616c756560301b6064820152608401610aef565b61013d80546001600160a01b0383166001600160a01b031991821681179092556101408054909116821790556040519081527f95082f719648371f180ca4f9bad55a2ae7c2d029bbf93e360584ca6ea06327ea9060200161181d565b6004826004811115611e8757611e8761474a565b0361125157610141546001600160a01b0390811690821603611f0e5760405162461bcd60e51b815260206004820152603a60248201527f5745544820746f6b656e20616464726573732068617320616c7265616479206260448201527965656e206d6f64696669656420746f20746861742076616c756560301b6064820152608401610aef565b61014180546001600160a01b0383166001600160a01b031991821681179092556101448054909116821790556040519081527ff5fd160f565ac0e80215e9eced5afbfcd47389e99858fac6a3d93f2ec38ff6d69060200161181d565b5050565b611f76610aff565b610b59614070565b60c9546001600160a01b0316331480611fa25750610130546001600160a01b031633145b611fbe5760405162461bcd60e51b8152600401610aef906148ab565b6001600160a01b0381166120465760405162461bcd60e51b815260206004820152604360248201527f496e766573746f72206164647265737320746f2061646420746f20746865207760448201527f686974656c6973742063616e6e6f7420626520746865207a65726f206164647260648201526265737360e81b608482015260a401610aef565b6001600160a01b0381166000908152610132602052604090205460ff16156120d65760405162461bcd60e51b815260206004820152603d60248201527f5468617420696e766573746f7220616464726573732068617320616c7265616460448201527f79206265656e20616464656420746f207468652077686974656c6973740000006064820152608401610aef565b6040805160a08101825260006020808301828152838501838152606085018481526080860185815260018088526001600160a01b038a1680885261013290965288872088518154965195511515620100000262ff0000199615156101000261ff00199215159290921661ffff199098169790971717949094169490941783559051928201929092559051600290910155925191929133917f8419b79dc227f7841e7bf32cea35c3f90fe5b3da68cde93adef3c32745c587de91a35050565b61219c610aff565b6000811161220c5760405162461bcd60e51b815260206004820152603760248201527f4e6577206d6178696d756d20616d6f756e7420746f20696e766573742c206d7560448201527673742062652067726561746572207468616e207a65726f60481b6064820152608401610aef565b61012f5481036122925760405162461bcd60e51b815260206004820152604560248201527f4e6577206d6178696d756d20616d6f756e7420746f20696e766573742c20686160448201527f7320616c7265616479206265656e206d6f64696669656420746f20746861742060648201526476616c756560d81b608482015260a401610aef565b61012e548110156123255760405162461bcd60e51b815260206004820152605160248201527f4e6577206d6178696d756d20616d6f756e7420746f20696e766573742c206d7560448201527f73742062652067726561746572207468616e20746865206d696e696d756d20696064820152701b9d995cdd1b595b9d08185b1b1bddd959607a1b608482015260a401610aef565b61012f8190556040518181527f29d434ec19958e7ce86ca2870f5927ab4f948d916dcffc568c1343c1e1f76566906020015b60405180910390a150565b61236a610aff565b6001600160a01b0381166123db5760405162461bcd60e51b815260206004820152603260248201527f5468652077686974656c697374657220616464726573732063616e6e6f7420626044820152716520746865207a65726f206164647265737360701b6064820152608401610aef565b610130546001600160a01b03908116908216036124605760405162461bcd60e51b815260206004820152603b60248201527f77686974656c697374657220616464726573732068617320616c72656164792060448201527f6265656e206d6f64696669656420746f20746861742076616c756500000000006064820152608401610aef565b61013080546001600160a01b0319166001600160a01b0383169081179091556040519081527f32359536720adedfb2b6c6dd7685519f09fdf93ce7824b68d5b2f56354fdebec90602001612357565b6124b7610aff565b610b5960006140c2565b336000908152610132602052604081205460ff166124f15760405162461bcd60e51b8152600401610aef90614908565b3360009081526101326020526040902054610100900460ff16156125275760405162461bcd60e51b8152600401610aef9061495c565b61252f610aa1565b60008060018560048111156125465761254661474a565b036125c7576101385460405163bb6f98fb60e01b81526001600160a01b039091169250309063bb6f98fb9061257f9088906004016149ac565b602060405180830381865afa15801561259c573d6000803e3d6000fd5b505050506040513d601f19601f820116820180604052508101906125c091906149d4565b90506126ae565b60028560048111156125db576125db61474a565b036126145761013c5460405163bb6f98fb60e01b81526001600160a01b039091169250309063bb6f98fb9061257f9088906004016149ac565b60038560048111156126285761262861474a565b03612661576101405460405163bb6f98fb60e01b81526001600160a01b039091169250309063bb6f98fb9061257f9088906004016149ac565b60048560048111156126755761267561474a565b03611251576101445460405163bb6f98fb60e01b81526001600160a01b039091169250309063bb6f98fb9061257f9088906004016149ac565b6000806126bb8684612eb3565b915091506126c98233613f7a565b6040516323b872dd60e01b8152336004820152306024820152604481018790526001600160a01b038516906323b872dd906064016020604051808303816000875af115801561271c573d6000803e3d6000fd5b505050506040513d601f19601f8201168201806040525081019061274091906149ed565b6127a95760405162461bcd60e51b815260206004820152603460248201527f54686572652077617320616e206572726f72206f6e20726563656976696e67206044820152731d1a19481d1bdad95b881a5b9d995cdd1b595b9d60621b6064820152608401610aef565b6101315460405163a9059cbb60e01b81526001600160a01b039182166004820152602481018890529085169063a9059cbb906044016020604051808303816000875af11580156127fd573d6000803e3d6000fd5b505050506040513d601f19601f8201168201806040525081019061282191906149ed565b61289e5760405162461bcd60e51b815260206004820152604260248201527f54686572652077617320616e206572726f72206f6e2073656e64696e6720746860448201527f6520746f6b656e20696e766573746d656e7420746f2074686520747265617375606482015261727960f01b608482015260a401610aef565b60405163a9059cbb60e01b815233600482015260248101829052309063a9059cbb906044016020604051808303816000875af11580156128e2573d6000803e3d6000fd5b505050506040513d601f19601f8201168201806040525081019061290691906149ed565b6129225760405162461bcd60e51b8152600401610aef90614a0a565b336000908152610132602052604081206001018054839290612945908490614737565b9091555033905087600481111561295e5761295e61474a565b60408051898152602081018690529081018490527f3b60324b6db90922773bde8799e6d3b7d574474a0fb52a6d340bd2ee92b5edbc9060600160405180910390a36001945050505050610c08600160fb55565b600054610100900460ff16158080156129d15750600054600160ff909116105b806129eb5750303b1580156129eb575060005460ff166001145b612a4e5760405162461bcd60e51b815260206004820152602e60248201527f496e697469616c697a61626c653a20636f6e747261637420697320616c72656160448201526d191e481a5b9a5d1a585b1a5e995960921b6064820152608401610aef565b6000805460ff191660011790558015612a71576000805461ff0019166101001790555b612ab860405180604001604052806009815260200168242ca0ac2a37b5b2b760b91b81525060405180604001604052806004815260200163090b282b60e31b815250614114565b612ac0614145565b612ac8614174565b612ad06141a3565b612af333612ae06012600a614711565b612aee90631dcd6500614720565b613c7d565b620927c061012d55612b076012600a614711565b612b12906001614720565b61012e55612b226012600a614711565b612b2e90612710614720565b61012f5561013080546001600160a01b03199081167301c2f012de19e6436744c3f81f56e9e70c93a8c3179091556101318054821673350441f8a82680a785ffa9d3efea60bb4ca417f817905561013380548216721382149eba3441043c1c66972b4772963f5d439081179091556101348054831690911790556101358054821673f68054bfe5d45432ffca28ffa1f3d685d0456ddc90811790915561013680548316731b8739bb4cdf0089d07097a9ae5bd274b29c6f16908117909155610137805484169091179055610138805483169091179055610139805482167370e02fb82b6bc04f64099689b0599e14b44d4fbb90811790915561013a80548316733ac23dcb4ecfcbd24579e1f34542524d0e4edea890811790915561013b80548416909117905561013c80548316909117905561013d80548216733c8df3c48b3884da2ff25e17524282d60f9c3b9390811790915561013e8054831673e7656e23fe8077d438aefbec2fabdf2d8e070c4f90811790915561013f8054841690911790556101408054831690911790556101418054821673524a89ed77d5827320e35e12bca96830c6b7960a9081179091556101428054831673f0d50568e3a7e8259e16663972b11910f89bd8e790811790915561014380548416909117905561014480549092161790558015610e2b576000805461ff0019169055604051600181527f7f26b83ff96e1f2b6a682f133852f6798a09c465da95921460cefb384740249890602001612357565b612d61610aff565b6001600160a01b038116612dcf5760405162461bcd60e51b815260206004820152602f60248201527f54686520747265617375727920616464726573732063616e6e6f74206265207460448201526e6865207a65726f206164647265737360881b6064820152608401610aef565b610131546001600160a01b0390811690821603612e545760405162461bcd60e51b815260206004820152603860248201527f547265617375727920616464726573732068617320616c72656164792062656560448201527f6e206d6f64696669656420746f20746861742076616c756500000000000000006064820152608401610aef565b61013180546001600160a01b0319166001600160a01b0383169081179091556040519081527f2e1e696cfb265fa16e1170d24ef04cb2262772bde00ecf34d80bae6722487b7f90602001612357565b612eab610aff565b610b596141d2565b6000806305f5e100612ec58486614720565b612ecf9190614a71565b61012d54909250612ee4836305f5e100614720565b612eee9190614a71565b905061012e54821015612f735760405162461bcd60e51b815260206004820152604160248201527f54686520616d6f756e7420746f20696e76657374206d7573742062652067726560448201527f61746572207468616e20746865206d696e696d756d2065737461626c697368656064820152601960fa1b608482015260a401610aef565b306000908152603360205260409020548111156130095760405162461bcd60e51b815260206004820152604860248201527f54686520696e766573746d656e74206d6164652072657475726e7320616e206160448201527f6d6f756e74206f6620485941582067726561746572207468616e2074686520616064820152677661696c61626c6560c01b608482015260a401610aef565b9250929050565b606060378054610b71906145e3565b6000338161302d8286613a41565b90508381101561308d5760405162461bcd60e51b815260206004820152602560248201527f45524332303a2064656372656173656420616c6c6f77616e63652062656c6f77604482015264207a65726f60d81b6064820152608401610aef565b610e478286868403613b59565b600033610c02818585613dc4565b6130b0610aff565b600081116131205760405162461bcd60e51b815260206004820152603760248201527f4e6577206d696e696d756e20616d6f756e7420746f20696e766573742c206d7560448201527673742062652067726561746572207468616e207a65726f60481b6064820152608401610aef565b61012e5481036131aa5760405162461bcd60e51b815260206004820152604960248201527f4d696e696d756d20696e766573746d656e7420616c6c6f77656420696e20555360448201527f442068617320616c7265616479206265656e206d6f64696669656420746f20746064820152686861742076616c756560b81b608482015260a401610aef565b61012f5481111561323a5760405162461bcd60e51b815260206004820152604e60248201527f4e6577206d696e696d756e20616d6f756e7420746f20696e766573742c206d7560448201527f7374206265206c657373207468616e20746865206d6178696d756d20696e766560648201526d1cdd1b595b9d08185b1b1bddd95960921b608482015260a401610aef565b61012e8190556040518181527fee60eb8e40a2ec796bfe3ca896b9221af9764fc0987bf0508ca755266d9c85f890602001612357565b613278610aff565b61012d5481036132e55760405162461bcd60e51b815260206004820152603260248201527f485941582070726963652068617320616c7265616479206265656e206d6f64696044820152716669656420746f20746861742076616c756560701b6064820152608401610aef565b6207a1208110156133755760405162461bcd60e51b815260206004820152604e60248201527f5072696365206f66204859415820746f6b656e206d757374206265206174206c60448201527f656173742055534420302e3030352c207468617420697320353030303030207760648201526d697468203820646563696d616c7360901b608482015260a401610aef565b64174876e80081111561340e5760405162461bcd60e51b815260206004820152605560248201527f5072696365206f66204859415820746f6b656e206d757374206265206174206d60448201527f6178696d756d2055534420313030302c2074686174206973203130303030303060648201527430303030302077697468203820646563696d616c7360581b608482015260a401610aef565b61012d8190556040518181527f4f6f7bbbb2b0dde2246ee6650672d1b55a5be5b52f8dd2e8d595f4bd47e1c91390602001612357565b60c9546001600160a01b03163314806134685750610130546001600160a01b031633145b6134845760405162461bcd60e51b8152600401610aef906148ab565b6001600160a01b03821661350f5760405162461bcd60e51b815260206004820152604660248201527f496e766573746f72206164647265737320746f2075706461746520626c61636b60448201527f6c697374207374617475732063616e6e6f7420626520746865207a65726f206160648201526564647265737360d01b608482015260a401610aef565b6001600160a01b0382166000908152610132602052604090205481151561010090910460ff161515036135545760405162461bcd60e51b8152600401610aef90614a93565b6001600160a01b03821660008181526101326020908152604091829020805461ff00191661010086151590810291909117909155825133815291820193909352908101919091527f89a9c56967d4535d54c90bffd7cbd09f6d2a4c8e26b9e7f033f199d144e12b4e9060600161181d565b600080808360048111156135db576135db61474a565b036135f35750610134546001600160a01b031661369f565b60018360048111156136075761360761474a565b0361361f5750610137546001600160a01b031661369f565b60028360048111156136335761363361474a565b0361364b575061013b546001600160a01b031661369f565b600383600481111561365f5761365f61474a565b03613677575061013f546001600160a01b031661369f565b600483600481111561368b5761368b61474a565b036112515750610143546001600160a01b03165b806001600160a01b031663feaf968c6040518163ffffffff1660e01b815260040160a060405180830381865afa9250505080156136f9575060408051601f3d908101601f191682019092526136f691810190614b0a565b60015b61376b5760405162461bcd60e51b815260206004820152603c60248201527f54686572652077617320616e206572726f72206f627461696e696e672074686560448201527f20746f6b656e2070726963652066726f6d20746865206f7261636c65000000006064820152608401610aef565b600084136137bb5760405162461bcd60e51b815260206004820152601e60248201527f496e76616c696420707269636520646174612066726f6d206f7261636c6500006044820152606401610aef565b6000821180156137cb5750428211155b61380a5760405162461bcd60e51b815260206004820152601060248201526f5374616c65207072696365206461746160801b6044820152606401610aef565b8469ffffffffffffffffffff168169ffffffffffffffffffff16101561386a5760405162461bcd60e51b8152602060048201526015602482015274496e636f6d706c65746520726f756e64206461746160581b6044820152606401610aef565b610e106138778342614b5a565b11156138ba5760405162461bcd60e51b8152602060048201526012602482015271141c9a58d94819185d18481d1bdbc81bdb1960721b6044820152606401610aef565b50919695505050505050565b50919050565b60c9546001600160a01b03163314806138f05750610130546001600160a01b031633145b61390c5760405162461bcd60e51b8152600401610aef906148ab565b6001600160a01b0382166139975760405162461bcd60e51b815260206004820152604660248201527f496e766573746f72206164647265737320746f2075706461746520776869746560448201527f6c697374207374617475732063616e6e6f7420626520746865207a65726f206160648201526564647265737360d01b608482015260a401610aef565b6001600160a01b0382166000908152610132602052604090205481151560ff9091161515036139d85760405162461bcd60e51b8152600401610aef90614a93565b6001600160a01b03821660008181526101326020908152604091829020805460ff1916851515908117909155825133815291820193909352908101919091527f70bbee4e66e3fd40f7da099410cfd723ed4a0b4fec11f6cc968e850db827a88b9060600161181d565b6001600160a01b03918216600090815260346020908152604080832093909416825291909152205490565b613a74610aff565b6001600160a01b038116613ad95760405162461bcd60e51b815260206004820152602660248201527f4f776e61626c653a206e6577206f776e657220697320746865207a65726f206160448201526564647265737360d01b6064820152608401610aef565b306001600160a01b03821603613b505760405162461bcd60e51b815260206004820152603660248201527f4f776e61626c653a206e6577206f776e65722063616e6e6f74206265207468656044820152752073616d6520636f6e7472616374206164647265737360501b6064820152608401610aef565b610e2b816140c2565b6001600160a01b038316613bbb5760405162461bcd60e51b8152602060048201526024808201527f45524332303a20617070726f76652066726f6d20746865207a65726f206164646044820152637265737360e01b6064820152608401610aef565b6001600160a01b038216613c1c5760405162461bcd60e51b815260206004820152602260248201527f45524332303a20617070726f766520746f20746865207a65726f206164647265604482015261737360f01b6064820152608401610aef565b6001600160a01b0383811660008181526034602090815260408083209487168084529482529182902085905590518481527f8c5be1e5ebec7d5bd14f71427d1e84f3dd0314c0f7b2291e5b200ac8c7c3b925910160405180910390a3505050565b6001600160a01b038216613cd35760405162461bcd60e51b815260206004820152601f60248201527f45524332303a206d696e7420746f20746865207a65726f2061646472657373006044820152606401610aef565b613cdf6000838361420f565b8060356000828254613cf19190614737565b90915550506001600160a01b0382166000818152603360209081526040808320805486019055518481527fddf252ad1be2c89b69c2b068fc378daa952ba7f163c4a11628f55a4df523b3ef910160405180910390a35050565b6000613d568484613a41565b90506000198114613dbe5781811015613db15760405162461bcd60e51b815260206004820152601d60248201527f45524332303a20696e73756666696369656e7420616c6c6f77616e63650000006044820152606401610aef565b613dbe8484848403613b59565b50505050565b6001600160a01b038316613e285760405162461bcd60e51b815260206004820152602560248201527f45524332303a207472616e736665722066726f6d20746865207a65726f206164604482015264647265737360d81b6064820152608401610aef565b6001600160a01b038216613e8a5760405162461bcd60e51b815260206004820152602360248201527f45524332303a207472616e7366657220746f20746865207a65726f206164647260448201526265737360e81b6064820152608401610aef565b613e9583838361420f565b6001600160a01b03831660009081526033602052604090205481811015613f0d5760405162461bcd60e51b815260206004820152602660248201527f45524332303a207472616e7366657220616d6f756e7420657863656564732062604482015265616c616e636560d01b6064820152608401610aef565b6001600160a01b0380851660008181526033602052604080822086860390559286168082529083902080548601905591517fddf252ad1be2c89b69c2b068fc378daa952ba7f163c4a11628f55a4df523b3ef90613f6d9086815260200190565b60405180910390a3613dbe565b6001600160a01b03811660009081526101326020526040812060020154613fa2908490614737565b905061012f5481111561404f576001600160a01b0382166000908152610132602052604090205462010000900460ff1661404f5760405162461bcd60e51b815260206004820152604260248201527f546f20627579207468617420616d6f756e74206f66204859415820697473207260448201527f6571756972656420746f2062652061207175616c696669656420696e7665737460648201526137b960f11b608482015260a401610aef565b6001600160a01b039091166000908152610132602052604090206002015550565b61407861427a565b6065805460ff191690557f5db9ee0a495bf2e6ff9c91a7834c1ba4fdd244a5e8aa4e537bd38aeae4b073aa335b6040516001600160a01b03909116815260200160405180910390a1565b60c980546001600160a01b038381166001600160a01b0319831681179093556040519116919082907f8be0079c531659141344cd1fd0a4f28419497f9722a3daafe3b4186f6b6457e090600090a35050565b600054610100900460ff1661413b5760405162461bcd60e51b8152600401610aef90614b6d565b611f6a82826142c3565b600054610100900460ff1661416c5760405162461bcd60e51b8152600401610aef90614b6d565b610b59614303565b600054610100900460ff1661419b5760405162461bcd60e51b8152600401610aef90614b6d565b610b59614333565b600054610100900460ff166141ca5760405162461bcd60e51b8152600401610aef90614b6d565b610b5961435a565b6141da61438d565b6065805460ff191660011790557f62e78cea01bee320cd4e420270b5ea74000d11b0c9f74754ebdbfc544b05a2586140a53390565b60655460ff16156142755760405162461bcd60e51b815260206004820152602a60248201527f45524332305061757361626c653a20746f6b656e207472616e736665722077686044820152691a5b19481c185d5cd95960b21b6064820152608401610aef565b505050565b60655460ff16610b595760405162461bcd60e51b815260206004820152601460248201527314185d5cd8589b194e881b9bdd081c185d5cd95960621b6044820152606401610aef565b600054610100900460ff166142ea5760405162461bcd60e51b8152600401610aef90614b6d565b60366142f68382614c06565b5060376142758282614c06565b600054610100900460ff1661432a5760405162461bcd60e51b8152600401610aef90614b6d565b610b59336140c2565b600054610100900460ff16610b5b5760405162461bcd60e51b8152600401610aef90614b6d565b600054610100900460ff166143815760405162461bcd60e51b8152600401610aef90614b6d565b6065805460ff19169055565b60655460ff1615610b595760405162461bcd60e51b815260206004820152601060248201526f14185d5cd8589b194e881c185d5cd95960821b6044820152606401610aef565b60005b838110156143ee5781810151838201526020016143d6565b50506000910152565b60208152600082518060208401526144168160408501602087016143d3565b601f01601f19169190910160400192915050565b80356001600160a01b038116811461444157600080fd5b919050565b6000806040838503121561445957600080fd5b6144628361442a565b946020939093013593505050565b60006020828403121561448257600080fd5b5035919050565b60008060006060848603121561449e57600080fd5b6144a78461442a565b92506144b56020850161442a565b9150604084013590509250925092565b80356005811061444157600080fd5b600080604083850312156144e757600080fd5b6144f0836144c5565b91506144fe6020840161442a565b90509250929050565b8015158114610e2b57600080fd5b6000806040838503121561452857600080fd5b6145318361442a565b9150602083013561454181614507565b809150509250929050565b60006020828403121561455e57600080fd5b6145678261442a565b9392505050565b6000806040838503121561458157600080fd5b614462836144c5565b6000806040838503121561459d57600080fd5b50508035926020909101359150565b6000602082840312156145be57600080fd5b614567826144c5565b600080604083850312156145da57600080fd5b6144f08361442a565b600181811c908216806145f757607f821691505b6020821081036138c657634e487b7160e01b600052602260045260246000fd5b634e487b7160e01b600052601160045260246000fd5b600181815b8085111561466857816000190482111561464e5761464e614617565b8085161561465b57918102915b93841c9390800290614632565b509250929050565b60008261467f57506001610c08565b8161468c57506000610c08565b81600181146146a257600281146146ac576146c8565b6001915050610c08565b60ff8411156146bd576146bd614617565b50506001821b610c08565b5060208310610133831016604e8410600b84101617156146eb575081810a610c08565b6146f5838361462d565b806000190482111561470957614709614617565b029392505050565b600061456760ff841683614670565b8082028115828204841417610c0857610c08614617565b80820180821115610c0857610c08614617565b634e487b7160e01b600052602160045260246000fd5b634e487b7160e01b600052604160045260246000fd5b60006020828403121561478857600080fd5b815167ffffffffffffffff808211156147a057600080fd5b818401915084601f8301126147b457600080fd5b8151818111156147c6576147c6614760565b604051601f8201601f19908116603f011681019083821181831017156147ee576147ee614760565b8160405282815287602084870101111561480757600080fd5b6148188360208301602088016143d3565b979650505050505050565b60208082526046908201527f546865206e6577206164647265737320646f6573206e6f74207365656d20746f60408201527f2062656c6f6e6720746f2074686520636f72726563742070726963652064617460608201526518481999595960d21b608082015260a00190565b600082516148a18184602087016143d3565b9190910192915050565b6020808252603f908201527f46756e6374696f6e207265736572766564206f6e6c7920666f7220746865207760408201527f686974656c69737465722061646472657373206f7220746865206f776e657200606082015260800190565b60208082526034908201527f496e766573746f72206164647265737320686173206e6f74206265656e206164604082015273191959081d1bc81d1a19481dda1a5d195b1a5cdd60621b606082015260800190565b60208082526030908201527f496e766573746f72206164647265737320686173206265656e2061646465642060408201526f1d1bc81d1a1948189b1858dadb1a5cdd60821b606082015260800190565b60208101600583106149ce57634e487b7160e01b600052602160045260246000fd5b91905290565b6000602082840312156149e657600080fd5b5051919050565b6000602082840312156149ff57600080fd5b815161456781614507565b60208082526041908201527f54686572652077617320616e206572726f72206f6e2073656e64696e6720626160408201527f636b20746865204859415820546f6b656e20746f2074686520696e766573746f6060820152603960f91b608082015260a00190565b600082614a8e57634e487b7160e01b600052601260045260246000fd5b500490565b60208082526038908201527f496e766573746f7220616464726573732068617320616c72656164792062656560408201527f6e207570646174656420746f2074686174207374617475730000000000000000606082015260800190565b805169ffffffffffffffffffff8116811461444157600080fd5b600080600080600060a08688031215614b2257600080fd5b614b2b86614af0565b9450602086015193506040860151925060608601519150614b4e60808701614af0565b90509295509295909350565b81810381811115610c0857610c08614617565b6020808252602b908201527f496e697469616c697a61626c653a20636f6e7472616374206973206e6f74206960408201526a6e697469616c697a696e6760a81b606082015260800190565b601f82111561427557600081815260208120601f850160051c81016020861015614bdf5750805b601f850160051c820191505b81811015614bfe57828155600101614beb565b505050505050565b815167ffffffffffffffff811115614c2057614c20614760565b614c3481614c2e84546145e3565b84614bb8565b602080601f831160018114614c695760008415614c515750858301515b600019600386901b1c1916600185901b178555614bfe565b600085815260208120601f198616915b82811015614c9857888601518255948401946001909101908401614c79565b5085821015614cb65787850151600019600388901b60f8161c191681555b5050505050600190811b0190555056fe616479206265656e206d6f64696669656420746f20746861742076616c756500a2646970667358221220edcc6112aefc68fa35feb4ad75f383f929a557a52ce1b8a013d85f263c3fdd4564736f6c63430008140033",
  "linkReferences": {},
  "deployedLinkReferences": {}
}