{
  "_format": "hh-sol-artifact-1",
  "contractName": "HYAXLocalUpgradeableV2",
  "sourceName": "contracts/HYAXLocalUpgradeableV2.sol",
  "abi": [
    {
      "anonymous": false,
      "inputs": [
        {
          "indexed": true,
          "internalType": "address",
          "name": "owner",
          "type": "address"
        },
        {
          "indexed": true,
          "internalType": "address",
          "name": "spender",
          "type": "address"
        },
        {
          "indexed": false,
          "internalType": "uint256",
          "name": "value",
          "type": "uint256"
        }
      ],
      "name": "Approval",
      "type": "event"
    },
    {
      "anonymous": false,
      "inputs": [
        {
          "indexed": false,
          "internalType": "uint8",
          "name": "version",
          "type": "uint8"
        }
      ],
      "name": "Initialized",
      "type": "event"
    },
    {
      "anonymous": false,
      "inputs": [
        {
          "indexed": false,
          "internalType": "enum HYAXLocalUpgradeableV2.TokenType",
          "name": "tokenType",
          "type": "uint8"
        },
        {
          "indexed": false,
          "internalType": "address",
          "name": "sender",
          "type": "address"
        },
        {
          "indexed": false,
          "internalType": "uint256",
          "name": "tokenAmount",
          "type": "uint256"
        },
        {
          "indexed": false,
          "internalType": "uint256",
          "name": "totalInvestmentInUsd",
          "type": "uint256"
        },
        {
          "indexed": false,
          "internalType": "uint256",
          "name": "hyaxAmount",
          "type": "uint256"
        }
      ],
      "name": "InvestFromCryptoToken",
      "type": "event"
    },
    {
      "anonymous": false,
      "inputs": [
        {
          "indexed": false,
          "internalType": "address",
          "name": "sender",
          "type": "address"
        },
        {
          "indexed": false,
          "internalType": "uint256",
          "name": "maticAmount",
          "type": "uint256"
        },
        {
          "indexed": false,
          "internalType": "uint256",
          "name": "totalInvestmentInUsd",
          "type": "uint256"
        },
        {
          "indexed": false,
          "internalType": "uint256",
          "name": "hyaxAmount",
          "type": "uint256"
        }
      ],
      "name": "InvestFromMatic",
      "type": "event"
    },
    {
      "anonymous": false,
      "inputs": [
        {
          "indexed": false,
          "internalType": "address",
          "name": "sender",
          "type": "address"
        },
        {
          "indexed": false,
          "internalType": "address",
          "name": "_QualifiedInvestorAddress",
          "type": "address"
        }
      ],
      "name": "InvestorAddedToQualifiedInvestorList",
      "type": "event"
    },
    {
      "anonymous": false,
      "inputs": [
        {
          "indexed": false,
          "internalType": "address",
          "name": "sender",
          "type": "address"
        },
        {
          "indexed": false,
          "internalType": "address",
          "name": "_investorAddress",
          "type": "address"
        }
      ],
      "name": "InvestorAddedToWhiteList",
      "type": "event"
    },
    {
      "anonymous": false,
      "inputs": [
        {
          "indexed": false,
          "internalType": "address",
          "name": "sender",
          "type": "address"
        },
        {
          "indexed": false,
          "internalType": "address",
          "name": "_QualifiedInvestorAddress",
          "type": "address"
        }
      ],
      "name": "InvestorRemovedFromQualifiedInvestorList",
      "type": "event"
    },
    {
      "anonymous": false,
      "inputs": [
        {
          "indexed": false,
          "internalType": "address",
          "name": "sender",
          "type": "address"
        },
        {
          "indexed": false,
          "internalType": "address",
          "name": "_investorAddress",
          "type": "address"
        }
      ],
      "name": "InvestorRemovedFromWhiteList",
      "type": "event"
    },
    {
      "anonymous": false,
      "inputs": [
        {
          "indexed": true,
          "internalType": "address",
          "name": "previousOwner",
          "type": "address"
        },
        {
          "indexed": true,
          "internalType": "address",
          "name": "newOwner",
          "type": "address"
        }
      ],
      "name": "OwnershipTransferred",
      "type": "event"
    },
    {
      "anonymous": false,
      "inputs": [
        {
          "indexed": false,
          "internalType": "address",
          "name": "account",
          "type": "address"
        }
      ],
      "name": "Paused",
      "type": "event"
    },
    {
      "anonymous": false,
      "inputs": [
        {
          "indexed": false,
          "internalType": "address",
          "name": "sender",
          "type": "address"
        },
        {
          "indexed": false,
          "internalType": "uint256",
          "name": "amount",
          "type": "uint256"
        }
      ],
      "name": "TokenIssuance",
      "type": "event"
    },
    {
      "anonymous": false,
      "inputs": [
        {
          "indexed": true,
          "internalType": "address",
          "name": "from",
          "type": "address"
        },
        {
          "indexed": true,
          "internalType": "address",
          "name": "to",
          "type": "address"
        },
        {
          "indexed": false,
          "internalType": "uint256",
          "name": "value",
          "type": "uint256"
        }
      ],
      "name": "Transfer",
      "type": "event"
    },
    {
      "anonymous": false,
      "inputs": [
        {
          "indexed": false,
          "internalType": "address",
          "name": "account",
          "type": "address"
        }
      ],
      "name": "Unpaused",
      "type": "event"
    },
    {
      "anonymous": false,
      "inputs": [
        {
          "indexed": false,
          "internalType": "uint256",
          "name": "_newHyaxPrice",
          "type": "uint256"
        }
      ],
      "name": "UpdatedHyaxPrice",
      "type": "event"
    },
    {
      "anonymous": false,
      "inputs": [
        {
          "indexed": false,
          "internalType": "address",
          "name": "_newMaticPriceFeedAddress",
          "type": "address"
        }
      ],
      "name": "UpdatedMaticPriceFeedAddress",
      "type": "event"
    },
    {
      "anonymous": false,
      "inputs": [
        {
          "indexed": false,
          "internalType": "uint256",
          "name": "_newMaximumInvestmentAllowedInUSD",
          "type": "uint256"
        }
      ],
      "name": "UpdatedMaximumInvestmentAllowedInUSD",
      "type": "event"
    },
    {
      "anonymous": false,
      "inputs": [
        {
          "indexed": false,
          "internalType": "uint256",
          "name": "_newMinimumInvestmentAllowedInUSD",
          "type": "uint256"
        }
      ],
      "name": "UpdatedMinimumInvestmentAllowedInUSD",
      "type": "event"
    },
    {
      "anonymous": false,
      "inputs": [
        {
          "indexed": false,
          "internalType": "address",
          "name": "_newTreasuryAddress",
          "type": "address"
        }
      ],
      "name": "UpdatedTreasuryAddress",
      "type": "event"
    },
    {
      "anonymous": false,
      "inputs": [
        {
          "indexed": false,
          "internalType": "address",
          "name": "_newUsdcPriceFeedAddress",
          "type": "address"
        }
      ],
      "name": "UpdatedUsdcPriceFeedAddress",
      "type": "event"
    },
    {
      "anonymous": false,
      "inputs": [
        {
          "indexed": false,
          "internalType": "address",
          "name": "_newUsdcTokenAddress",
          "type": "address"
        }
      ],
      "name": "UpdatedUsdcTokenAddress",
      "type": "event"
    },
    {
      "anonymous": false,
      "inputs": [
        {
          "indexed": false,
          "internalType": "address",
          "name": "_newUsdtPriceFeedAddress",
          "type": "address"
        }
      ],
      "name": "UpdatedUsdtPriceFeedAddress",
      "type": "event"
    },
    {
      "anonymous": false,
      "inputs": [
        {
          "indexed": false,
          "internalType": "address",
          "name": "_newUsdtTokenAddress",
          "type": "address"
        }
      ],
      "name": "UpdatedUsdtTokenAddress",
      "type": "event"
    },
    {
      "anonymous": false,
      "inputs": [
        {
          "indexed": false,
          "internalType": "address",
          "name": "_newWbtcPriceFeedAddress",
          "type": "address"
        }
      ],
      "name": "UpdatedWbtcPriceFeedAddress",
      "type": "event"
    },
    {
      "anonymous": false,
      "inputs": [
        {
          "indexed": false,
          "internalType": "address",
          "name": "_newWbtcTokenAddress",
          "type": "address"
        }
      ],
      "name": "UpdatedWbtcTokenAddress",
      "type": "event"
    },
    {
      "anonymous": false,
      "inputs": [
        {
          "indexed": false,
          "internalType": "address",
          "name": "_newWethPriceFeedAddress",
          "type": "address"
        }
      ],
      "name": "UpdatedWethPriceFeedAddress",
      "type": "event"
    },
    {
      "anonymous": false,
      "inputs": [
        {
          "indexed": false,
          "internalType": "address",
          "name": "_newWethTokenAddress",
          "type": "address"
        }
      ],
      "name": "UpdatedWethTokenAddress",
      "type": "event"
    },
    {
      "anonymous": false,
      "inputs": [
        {
          "indexed": false,
          "internalType": "address",
          "name": "_newWhiteListerAddress",
          "type": "address"
        }
      ],
      "name": "UpdatedWhiteListerAddress",
      "type": "event"
    },
    {
      "inputs": [
        {
          "internalType": "address",
          "name": "_qualifiedInvestorAddress",
          "type": "address"
        }
      ],
      "name": "addToQualifiedInvestorList",
      "outputs": [],
      "stateMutability": "nonpayable",
      "type": "function"
    },
    {
      "inputs": [
        {
          "internalType": "address",
          "name": "_investorAddress",
          "type": "address"
        }
      ],
      "name": "addToWhiteList",
      "outputs": [],
      "stateMutability": "nonpayable",
      "type": "function"
    },
    {
      "inputs": [
        {
          "internalType": "address",
          "name": "owner",
          "type": "address"
        },
        {
          "internalType": "address",
          "name": "spender",
          "type": "address"
        }
      ],
      "name": "allowance",
      "outputs": [
        {
          "internalType": "uint256",
          "name": "",
          "type": "uint256"
        }
      ],
      "stateMutability": "view",
      "type": "function"
    },
    {
      "inputs": [
        {
          "internalType": "address",
          "name": "spender",
          "type": "address"
        },
        {
          "internalType": "uint256",
          "name": "amount",
          "type": "uint256"
        }
      ],
      "name": "approve",
      "outputs": [
        {
          "internalType": "bool",
          "name": "",
          "type": "bool"
        }
      ],
      "stateMutability": "nonpayable",
      "type": "function"
    },
    {
      "inputs": [
        {
          "internalType": "address",
          "name": "account",
          "type": "address"
        }
      ],
      "name": "balanceOf",
      "outputs": [
        {
          "internalType": "uint256",
          "name": "",
          "type": "uint256"
        }
      ],
      "stateMutability": "view",
      "type": "function"
    },
    {
      "inputs": [
        {
          "internalType": "uint256",
          "name": "_amount",
          "type": "uint256"
        },
        {
          "internalType": "uint256",
          "name": "_currentCryptocurrencyPrice",
          "type": "uint256"
        }
      ],
      "name": "calculateTotalHyaxTokenToReturn",
      "outputs": [
        {
          "internalType": "uint256",
          "name": "totalInvestmentInUsd",
          "type": "uint256"
        },
        {
          "internalType": "uint256",
          "name": "totalHyaxTokenToReturn",
          "type": "uint256"
        }
      ],
      "stateMutability": "view",
      "type": "function"
    },
    {
      "inputs": [],
      "name": "decimals",
      "outputs": [
        {
          "internalType": "uint8",
          "name": "",
          "type": "uint8"
        }
      ],
      "stateMutability": "view",
      "type": "function"
    },
    {
      "inputs": [
        {
          "internalType": "address",
          "name": "spender",
          "type": "address"
        },
        {
          "internalType": "uint256",
          "name": "subtractedValue",
          "type": "uint256"
        }
      ],
      "name": "decreaseAllowance",
      "outputs": [
        {
          "internalType": "bool",
          "name": "",
          "type": "bool"
        }
      ],
      "stateMutability": "nonpayable",
      "type": "function"
    },
    {
      "inputs": [
        {
          "internalType": "enum HYAXLocalUpgradeableV2.TokenType",
          "name": "tokenType",
          "type": "uint8"
        }
      ],
      "name": "getCurrentTokenPrice",
      "outputs": [
        {
          "internalType": "uint256",
          "name": "",
          "type": "uint256"
        }
      ],
      "stateMutability": "view",
      "type": "function"
    },
    {
      "inputs": [],
      "name": "hyaxPrice",
      "outputs": [
        {
          "internalType": "uint256",
          "name": "",
          "type": "uint256"
        }
      ],
      "stateMutability": "view",
      "type": "function"
    },
    {
      "inputs": [
        {
          "internalType": "address",
          "name": "spender",
          "type": "address"
        },
        {
          "internalType": "uint256",
          "name": "addedValue",
          "type": "uint256"
        }
      ],
      "name": "increaseAllowance",
      "outputs": [
        {
          "internalType": "bool",
          "name": "",
          "type": "bool"
        }
      ],
      "stateMutability": "nonpayable",
      "type": "function"
    },
    {
      "inputs": [],
      "name": "initialize",
      "outputs": [],
      "stateMutability": "nonpayable",
      "type": "function"
    },
    {
      "inputs": [
        {
          "internalType": "enum HYAXLocalUpgradeableV2.TokenType",
          "name": "tokenType",
          "type": "uint8"
        },
        {
          "internalType": "uint256",
          "name": "_amount",
          "type": "uint256"
        }
      ],
      "name": "investFromCryptoToken",
      "outputs": [
        {
          "internalType": "bool",
          "name": "",
          "type": "bool"
        }
      ],
      "stateMutability": "nonpayable",
      "type": "function"
    },
    {
      "inputs": [],
      "name": "investFromMatic",
      "outputs": [
        {
          "internalType": "bool",
          "name": "",
          "type": "bool"
        }
      ],
      "stateMutability": "payable",
      "type": "function"
    },
    {
      "inputs": [
        {
          "internalType": "address",
          "name": "",
          "type": "address"
        }
      ],
      "name": "investorData",
      "outputs": [
        {
          "internalType": "bool",
          "name": "isWhiteListed",
          "type": "bool"
        },
        {
          "internalType": "bool",
          "name": "isQualifiedInvestor",
          "type": "bool"
        },
        {
          "internalType": "uint256",
          "name": "totalHyaxBoughtByInvestor",
          "type": "uint256"
        },
        {
          "internalType": "uint256",
          "name": "totalUsdDepositedByInvestor",
          "type": "uint256"
        }
      ],
      "stateMutability": "view",
      "type": "function"
    },
    {
      "inputs": [],
      "name": "maticPriceFeedAddress",
      "outputs": [
        {
          "internalType": "address",
          "name": "",
          "type": "address"
        }
      ],
      "stateMutability": "view",
      "type": "function"
    },
    {
      "inputs": [],
      "name": "maximumInvestmentAllowedInUSD",
      "outputs": [
        {
          "internalType": "uint256",
          "name": "",
          "type": "uint256"
        }
      ],
      "stateMutability": "view",
      "type": "function"
    },
    {
      "inputs": [],
      "name": "minimumInvestmentAllowedInUSD",
      "outputs": [
        {
          "internalType": "uint256",
          "name": "",
          "type": "uint256"
        }
      ],
      "stateMutability": "view",
      "type": "function"
    },
    {
      "inputs": [],
      "name": "name",
      "outputs": [
        {
          "internalType": "string",
          "name": "",
          "type": "string"
        }
      ],
      "stateMutability": "view",
      "type": "function"
    },
    {
      "inputs": [],
      "name": "owner",
      "outputs": [
        {
          "internalType": "address",
          "name": "",
          "type": "address"
        }
      ],
      "stateMutability": "view",
      "type": "function"
    },
    {
      "inputs": [],
      "name": "pause",
      "outputs": [],
      "stateMutability": "nonpayable",
      "type": "function"
    },
    {
      "inputs": [],
      "name": "paused",
      "outputs": [
        {
          "internalType": "bool",
          "name": "",
          "type": "bool"
        }
      ],
      "stateMutability": "view",
      "type": "function"
    },
    {
      "inputs": [
        {
          "internalType": "address",
          "name": "_qualifiedInvestorAddress",
          "type": "address"
        }
      ],
      "name": "removeFromQualifiedInvestorList",
      "outputs": [],
      "stateMutability": "nonpayable",
      "type": "function"
    },
    {
      "inputs": [
        {
          "internalType": "address",
          "name": "_investorAddress",
          "type": "address"
        }
      ],
      "name": "removeFromWhiteList",
      "outputs": [],
      "stateMutability": "nonpayable",
      "type": "function"
    },
    {
      "inputs": [],
      "name": "renounceOwnership",
      "outputs": [],
      "stateMutability": "nonpayable",
      "type": "function"
    },
    {
      "inputs": [],
      "name": "symbol",
      "outputs": [
        {
          "internalType": "string",
          "name": "",
          "type": "string"
        }
      ],
      "stateMutability": "view",
      "type": "function"
    },
    {
      "inputs": [
        {
          "internalType": "uint256",
          "name": "_amount",
          "type": "uint256"
        }
      ],
      "name": "tokenIssuance",
      "outputs": [],
      "stateMutability": "nonpayable",
      "type": "function"
    },
    {
      "inputs": [],
      "name": "totalSupply",
      "outputs": [
        {
          "internalType": "uint256",
          "name": "",
          "type": "uint256"
        }
      ],
      "stateMutability": "view",
      "type": "function"
    },
    {
      "inputs": [
        {
          "internalType": "address",
          "name": "to",
          "type": "address"
        },
        {
          "internalType": "uint256",
          "name": "amount",
          "type": "uint256"
        }
      ],
      "name": "transfer",
      "outputs": [
        {
          "internalType": "bool",
          "name": "",
          "type": "bool"
        }
      ],
      "stateMutability": "nonpayable",
      "type": "function"
    },
    {
      "inputs": [
        {
          "internalType": "address",
          "name": "from",
          "type": "address"
        },
        {
          "internalType": "address",
          "name": "to",
          "type": "address"
        },
        {
          "internalType": "uint256",
          "name": "amount",
          "type": "uint256"
        }
      ],
      "name": "transferFrom",
      "outputs": [
        {
          "internalType": "bool",
          "name": "",
          "type": "bool"
        }
      ],
      "stateMutability": "nonpayable",
      "type": "function"
    },
    {
      "inputs": [
        {
          "internalType": "address",
          "name": "newOwner",
          "type": "address"
        }
      ],
      "name": "transferOwnership",
      "outputs": [],
      "stateMutability": "nonpayable",
      "type": "function"
    },
    {
      "inputs": [],
      "name": "treasuryAddress",
      "outputs": [
        {
          "internalType": "address",
          "name": "",
          "type": "address"
        }
      ],
      "stateMutability": "view",
      "type": "function"
    },
    {
      "inputs": [],
      "name": "unpause",
      "outputs": [],
      "stateMutability": "nonpayable",
      "type": "function"
    },
    {
      "inputs": [
        {
          "internalType": "uint256",
          "name": "_newHyaxPrice",
          "type": "uint256"
        }
      ],
      "name": "updateHyaxPrice",
      "outputs": [],
      "stateMutability": "nonpayable",
      "type": "function"
    },
    {
      "inputs": [
        {
          "internalType": "uint256",
          "name": "_newMaximumInvestmentAllowedInUSD",
          "type": "uint256"
        }
      ],
      "name": "updateMaximumInvestmentAllowedInUSD",
      "outputs": [],
      "stateMutability": "nonpayable",
      "type": "function"
    },
    {
      "inputs": [
        {
          "internalType": "uint256",
          "name": "_newMinimumInvestmentAllowedInUSD",
          "type": "uint256"
        }
      ],
      "name": "updateMinimumInvestmentAllowedInUSD",
      "outputs": [],
      "stateMutability": "nonpayable",
      "type": "function"
    },
    {
      "inputs": [
        {
          "internalType": "enum HYAXLocalUpgradeableV2.TokenType",
          "name": "tokenType",
          "type": "uint8"
        },
        {
          "internalType": "address",
          "name": "newPriceFeedAddress",
          "type": "address"
        }
      ],
      "name": "updatePriceFeedAddress",
      "outputs": [],
      "stateMutability": "nonpayable",
      "type": "function"
    },
    {
      "inputs": [
        {
          "internalType": "enum HYAXLocalUpgradeableV2.TokenType",
          "name": "tokenType",
          "type": "uint8"
        },
        {
          "internalType": "address",
          "name": "newTokenAddress",
          "type": "address"
        }
      ],
      "name": "updateTokenAddress",
      "outputs": [],
      "stateMutability": "nonpayable",
      "type": "function"
    },
    {
      "inputs": [
        {
          "internalType": "address",
          "name": "_newTreasuryAddress",
          "type": "address"
        }
      ],
      "name": "updateTreasuryAddress",
      "outputs": [],
      "stateMutability": "nonpayable",
      "type": "function"
    },
    {
      "inputs": [
        {
          "internalType": "address",
          "name": "_newWhiteListerAddress",
          "type": "address"
        }
      ],
      "name": "updateWhiteListerAddress",
      "outputs": [],
      "stateMutability": "nonpayable",
      "type": "function"
    },
    {
      "inputs": [],
      "name": "usdcPriceFeedAddress",
      "outputs": [
        {
          "internalType": "address",
          "name": "",
          "type": "address"
        }
      ],
      "stateMutability": "view",
      "type": "function"
    },
    {
      "inputs": [],
      "name": "usdcToken",
      "outputs": [
        {
          "internalType": "contract ERC20TokenInterface",
          "name": "",
          "type": "address"
        }
      ],
      "stateMutability": "view",
      "type": "function"
    },
    {
      "inputs": [],
      "name": "usdcTokenAddress",
      "outputs": [
        {
          "internalType": "address",
          "name": "",
          "type": "address"
        }
      ],
      "stateMutability": "view",
      "type": "function"
    },
    {
      "inputs": [],
      "name": "usdtPriceFeedAddress",
      "outputs": [
        {
          "internalType": "address",
          "name": "",
          "type": "address"
        }
      ],
      "stateMutability": "view",
      "type": "function"
    },
    {
      "inputs": [],
      "name": "usdtToken",
      "outputs": [
        {
          "internalType": "contract ERC20TokenInterface",
          "name": "",
          "type": "address"
        }
      ],
      "stateMutability": "view",
      "type": "function"
    },
    {
      "inputs": [],
      "name": "usdtTokenAddress",
      "outputs": [
        {
          "internalType": "address",
          "name": "",
          "type": "address"
        }
      ],
      "stateMutability": "view",
      "type": "function"
    },
    {
      "inputs": [],
      "name": "wbtcPriceFeedAddress",
      "outputs": [
        {
          "internalType": "address",
          "name": "",
          "type": "address"
        }
      ],
      "stateMutability": "view",
      "type": "function"
    },
    {
      "inputs": [],
      "name": "wbtcToken",
      "outputs": [
        {
          "internalType": "contract ERC20TokenInterface",
          "name": "",
          "type": "address"
        }
      ],
      "stateMutability": "view",
      "type": "function"
    },
    {
      "inputs": [],
      "name": "wbtcTokenAddress",
      "outputs": [
        {
          "internalType": "address",
          "name": "",
          "type": "address"
        }
      ],
      "stateMutability": "view",
      "type": "function"
    },
    {
      "inputs": [],
      "name": "wethPriceFeedAddress",
      "outputs": [
        {
          "internalType": "address",
          "name": "",
          "type": "address"
        }
      ],
      "stateMutability": "view",
      "type": "function"
    },
    {
      "inputs": [],
      "name": "wethToken",
      "outputs": [
        {
          "internalType": "contract ERC20TokenInterface",
          "name": "",
          "type": "address"
        }
      ],
      "stateMutability": "view",
      "type": "function"
    },
    {
      "inputs": [],
      "name": "wethTokenAddress",
      "outputs": [
        {
          "internalType": "address",
          "name": "",
          "type": "address"
        }
      ],
      "stateMutability": "view",
      "type": "function"
    },
    {
      "inputs": [],
      "name": "whiteListerAddress",
      "outputs": [
        {
          "internalType": "address",
          "name": "",
          "type": "address"
        }
      ],
      "stateMutability": "view",
      "type": "function"
    },
    {
      "stateMutability": "payable",
      "type": "receive"
    }
  ],
  "bytecode": "0x608060405234801561001057600080fd5b5061573380620000216000396000f3fe60806040526004361061034e5760003560e01c806365699d28116101bb57806395d89b41116100f7578063bb6f98fb11610095578063de1f53461161006f578063de1f5346146109a4578063f2fde38b14610a0f578063f7a47f8114610a2f578063fb2dc76e14610a5057600080fd5b8063bb6f98fb1461091d578063c5f956af1461093d578063dd62ed3e1461095e57600080fd5b8063a9059cbb116100d1578063a9059cbb1461089c578063a98ad46c146108bc578063b2c568f3146108dd578063b40ed449146108fd57600080fd5b806395d89b41146108465780639d741e5d1461085b578063a457c2d71461087c57600080fd5b80638049bcb6116101645780638456cb591161013e5780638456cb59146107be5780638c945e63146107d35780638da5cb5b146108085780638f7c71671461082657600080fd5b80638049bcb6146107725780638129fc1c14610789578063841e45611461079e57600080fd5b8063731de51411610195578063731de5141461071157806377b53ece146107315780637ce5643a1461075257600080fd5b806365699d28146106a557806370a08231146106c6578063715018a6146106fc57600080fd5b8063377c779f1161028a57806347ee0394116102335780635ae9384e1161020d5780635ae9384e1461062c5780635c975abb1461064d5780635ec2562a14610665578063653c3a471461068557600080fd5b806347ee0394146105ca5780634b57b0be146105ea5780634c526bdb1461060b57600080fd5b80633de6f379116102645780633de6f379146105745780633f4ba83a1461059457806340b5ea9c146105a957600080fd5b8063377c779f14610535578063395093511461054c5780633b14f3591461056c57600080fd5b8063128ef022116102f757806323c66f9a116102d157806323c66f9a146104c157806327614df8146104e15780632a241ad314610502578063313ce5671461051957600080fd5b8063128ef0221461046257806318160ddd1461048257806323b872dd146104a157600080fd5b8063095ea7b311610328578063095ea7b3146103f05780630f9dad711461042057806311eac8551461044157600080fd5b806301bf66481461036c57806306fdde031461038c57806308cd468f146103b757600080fd5b366103675761035b610a71565b610365600160fb55565b005b600080fd5b34801561037857600080fd5b50610365610387366004614f4c565b610ad6565b34801561039857600080fd5b506103a1610d1d565b6040516103ae9190614f92565b60405180910390f35b3480156103c357600080fd5b5061013a546103d8906001600160a01b031681565b6040516001600160a01b0390911681526020016103ae565b3480156103fc57600080fd5b5061041061040b366004614fe3565b610daf565b60405190151581526020016103ae565b34801561042c57600080fd5b50610141546103d8906001600160a01b031681565b34801561044d57600080fd5b50610138546103d8906001600160a01b031681565b34801561046e57600080fd5b5061036561047d36600461500d565b610dc9565b34801561048e57600080fd5b506035545b6040519081526020016103ae565b3480156104ad57600080fd5b506104106104bc366004615026565b610fed565b3480156104cd57600080fd5b506103656104dc366004615071565b611011565b3480156104ed57600080fd5b50610140546103d8906001600160a01b031681565b34801561050e57600080fd5b5061049361012e5481565b34801561052557600080fd5b50604051601281526020016103ae565b34801561054157600080fd5b5061049361012d5481565b34801561055857600080fd5b50610410610567366004614fe3565b6119b5565b6104106119f4565b34801561058057600080fd5b5061036561058f366004615071565b611d7f565b3480156105a057600080fd5b50610365612257565b3480156105b557600080fd5b50610136546103d8906001600160a01b031681565b3480156105d657600080fd5b506103656105e5366004614f4c565b612269565b3480156105f657600080fd5b50610144546103d8906001600160a01b031681565b34801561061757600080fd5b5061013d546103d8906001600160a01b031681565b34801561063857600080fd5b50610142546103d8906001600160a01b031681565b34801561065957600080fd5b5060655460ff16610410565b34801561067157600080fd5b5061036561068036600461500d565b61251d565b34801561069157600080fd5b506103656106a0366004614f4c565b61270e565b3480156106b157600080fd5b50610130546103d8906001600160a01b031681565b3480156106d257600080fd5b506104936106e1366004614f4c565b6001600160a01b031660009081526033602052604090205490565b34801561070857600080fd5b5061036561287e565b34801561071d57600080fd5b5061041061072c3660046150a4565b612890565b34801561073d57600080fd5b50610135546103d8906001600160a01b031681565b34801561075e57600080fd5b5061036561076d366004614f4c565b612ef9565b34801561077e57600080fd5b5061049361012f5481565b34801561079557600080fd5b50610365613164565b3480156107aa57600080fd5b506103656107b9366004614f4c565b6135b8565b3480156107ca57600080fd5b50610365613728565b3480156107df57600080fd5b506107f36107ee3660046150c0565b613738565b604080519283526020830191909152016103ae565b34801561081457600080fd5b5060c9546001600160a01b03166103d8565b34801561083257600080fd5b50610365610841366004614f4c565b6138c6565b34801561085257600080fd5b506103a1613bc5565b34801561086757600080fd5b50610139546103d8906001600160a01b031681565b34801561088857600080fd5b50610410610897366004614fe3565b613bd4565b3480156108a857600080fd5b506104106108b7366004614fe3565b613c7e565b3480156108c857600080fd5b5061013c546103d8906001600160a01b031681565b3480156108e957600080fd5b506103656108f836600461500d565b613c8c565b34801561090957600080fd5b5061036561091836600461500d565b613e7d565b34801561092957600080fd5b506104936109383660046150e2565b614073565b34801561094957600080fd5b50610131546103d8906001600160a01b031681565b34801561096a57600080fd5b506104936109793660046150fd565b6001600160a01b03918216600090815260346020908152604080832093909416825291909152205490565b3480156109b057600080fd5b506109ed6109bf366004614f4c565b6101326020526000908152604090208054600182015460029092015460ff8083169361010090930416919084565b60408051941515855292151560208501529183015260608201526080016103ae565b348015610a1b57600080fd5b50610365610a2a366004614f4c565b614249565b348015610a3b57600080fd5b5061013e546103d8906001600160a01b031681565b348015610a5c57600080fd5b50610133546103d8906001600160a01b031681565b600260fb5403610ac85760405162461bcd60e51b815260206004820152601f60248201527f5265656e7472616e637947756172643a207265656e7472616e742063616c6c0060448201526064015b60405180910390fd5b600260fb55565b600160fb55565b60c9546001600160a01b0316331480610afa5750610130546001600160a01b031633145b610b6e576040805162461bcd60e51b81526020600482015260248101919091527f46756e6374696f6e207265736572766564206f6e6c7920666f7220746865207760448201527f68697465206c69737465722061646472657373206f7220746865206f776e65726064820152608401610abf565b6001600160a01b038116610c105760405162461bcd60e51b815260206004820152604960248201527f496e766573746f72206164647265737320746f2072656d6f76652066726f6d2060448201527f746865207768697465206c6973742063616e6e6f7420626520746865207a657260648201527f6f20616464726573730000000000000000000000000000000000000000000000608482015260a401610abf565b6001600160a01b0381166000908152610132602052604090205460ff16610c9f5760405162461bcd60e51b815260206004820152603960248201527f5468617420696e766573746f722061646472657373206973206e6f742072656760448201527f69737465726564206f6e20746865207768697465206c697374000000000000006064820152608401610abf565b6001600160a01b0381166000818152610132602090815260409182902080547fffffffffffffffffffffffffffffffffffffffffffffffffffffffffffffff001690558151338152908101929092527f41b8ea78b0816bef99ff095d54fbe2cef1f50003e09ce81445df1f89d957994491015b60405180910390a150565b606060368054610d2c90615119565b80601f0160208091040260200160405190810160405280929190818152602001828054610d5890615119565b8015610da55780601f10610d7a57610100808354040283529160200191610da5565b820191906000526020600020905b815481529060010190602001808311610d8857829003601f168201915b5050505050905090565b600033610dbd818585614354565b60019150505b92915050565b610dd16144ac565b610dd9610a71565b610de56012600a6152b5565b811015610e5a5760405162461bcd60e51b815260206004820152603760248201527f416d6f756e74206f66204859415820746f6b656e7320746f206973737565206d60448201527f757374206265206174206c65617374203120746f6b656e0000000000000000006064820152608401610abf565b610e666012600a6152b5565b610e7490633b9aca006152c4565b811115610ee95760405162461bcd60e51b815260206004820152603f60248201527f416d6f756e74206f66204859415820746f6b656e7320746f206973737565206160448201527f7420612074696d65206d757374206265206d6178696d756d2031303030204d006064820152608401610abf565b610ef56012600a6152b5565b610f04906402540be4006152c4565b81610f0e60355490565b610f1891906152db565b1115610f8c5760405162461bcd60e51b815260206004820152603b60248201527f416d6f756e74206f66204859415820746f6b656e7320746f206973737565207360448201527f75727061736573207468652031302c303030204d20746f6b656e7300000000006064820152608401610abf565b610fa7610fa160c9546001600160a01b031690565b82614506565b60408051338152602081018390527f455064bbf1374d9e833b8d9db24c56b24dbf79cc1a94a30665cae7093963d5a8910160405180910390a1610fea600160fb55565b50565b600033610ffb8582856145d3565b611006858585614683565b506001949350505050565b6110196144ac565b6001600160a01b0381166110955760405162461bcd60e51b815260206004820152603660248201527f5468652070726963652064617461206665656420616464726573732063616e6e60448201527f6f7420626520746865207a65726f2061646472657373000000000000000000006064820152608401610abf565b80600080808560048111156110ac576110ac6152ee565b0361118257610133546001600160a01b0390811690851603611138576040805162461bcd60e51b81526020600482015260248101919091527f4d41544943207072696365206665656420616464726573732068617320616c7260448201527f65616479206265656e206d6f64696669656420746f20746861742076616c75656064820152608401610abf565b6040517f4d41544943202f205553440000000000000000000000000000000000000000006020820152602b015b604051602081830303815290604052805190602001209150611506565b6001856004811115611196576111966152ee565b0361125157610136546001600160a01b03908116908516036112205760405162461bcd60e51b815260206004820152603f60248201527f55534443207072696365206665656420616464726573732068617320616c726560448201527f616479206265656e206d6f64696669656420746f20746861742076616c7565006064820152608401610abf565b6040517f55534443202f20555344000000000000000000000000000000000000000000006020820152602a01611165565b6002856004811115611265576112656152ee565b036113205761013a546001600160a01b03908116908516036112ef5760405162461bcd60e51b815260206004820152603f60248201527f55534454207072696365206665656420616464726573732068617320616c726560448201527f616479206265656e206d6f64696669656420746f20746861742076616c7565006064820152608401610abf565b6040517f55534454202f20555344000000000000000000000000000000000000000000006020820152602a01611165565b6003856004811115611334576113346152ee565b036113ef5761013e546001600160a01b03908116908516036113be5760405162461bcd60e51b815260206004820152603f60248201527f57425443207072696365206665656420616464726573732068617320616c726560448201527f616479206265656e206d6f64696669656420746f20746861742076616c7565006064820152608401610abf565b6040517f57425443202f20555344000000000000000000000000000000000000000000006020820152602a01611165565b6004856004811115611403576114036152ee565b036114be57610142546001600160a01b039081169085160361148d5760405162461bcd60e51b815260206004820152603f60248201527f57455448207072696365206665656420616464726573732068617320616c726560448201527f616479206265656e206d6f64696669656420746f20746861742076616c7565006064820152608401610abf565b6040517f455448202f2055534400000000000000000000000000000000000000000000006020820152602901611165565b60405162461bcd60e51b815260206004820152601260248201527f496e76616c696420746f6b656e207479706500000000000000000000000000006044820152606401610abf565b826001600160a01b0316637284e4166040518163ffffffff1660e01b8152600401600060405180830381865afa92505050801561158357506040513d6000823e601f3d9081017fffffffffffffffffffffffffffffffffffffffffffffffffffffffffffffffe0168201604052611580919081019061534c565b60015b61161b5760405162461bcd60e51b815260206004820152604660248201527f546865206e6577206164647265737320646f6573206e6f74207365656d20746f60448201527f2062656c6f6e6720746f2074686520636f72726563742070726963652064617460648201527f6120666565640000000000000000000000000000000000000000000000000000608482015260a401610abf565b8060405160200161162c9190615417565b6040516020818303038152906040528051906020012091508183146116df5760405162461bcd60e51b815260206004820152604660248201527f546865206e6577206164647265737320646f6573206e6f74207365656d20746f60448201527f2062656c6f6e6720746f2074686520636f72726563742070726963652064617460648201527f6120666565640000000000000000000000000000000000000000000000000000608482015260a401610abf565b5060008560048111156116f4576116f46152ee565b036117765761013380546001600160a01b0386167fffffffffffffffffffffffff000000000000000000000000000000000000000091821681179092556101348054909116821790556040519081527fee9bc8d900b5d69f934ec4a3986b3bfda61add54821456c3f7e943e87cf48f52906020015b60405180910390a16119ae565b600185600481111561178a5761178a6152ee565b036118035761013680546001600160a01b0386167fffffffffffffffffffffffff000000000000000000000000000000000000000091821681179092556101378054909116821790556040519081527f0a0bc5dadd9d9c881861f6da8998bebef8eabcb5f3d6651187c5d1899e32796590602001611769565b6002856004811115611817576118176152ee565b036118905761013a80546001600160a01b0386167fffffffffffffffffffffffff0000000000000000000000000000000000000000918216811790925561013b8054909116821790556040519081527f1e5bfe0b7fe6fcdc586b9e3a4fbdc0bdb1346d36173963ba38c897137ba1603190602001611769565b60038560048111156118a4576118a46152ee565b0361191d5761013e80546001600160a01b0386167fffffffffffffffffffffffff0000000000000000000000000000000000000000918216811790925561013f8054909116821790556040519081527f2171c3cfa3d86551d618c9da7164a608dd795715bf61402d9ccb45cf5433a07690602001611769565b6004856004811115611931576119316152ee565b036119ae5761014280546001600160a01b0386167fffffffffffffffffffffffff000000000000000000000000000000000000000091821681179092556101438054909116821790556040519081527fc21be1e8c8d6de83e19ad6de75cd885eefac75be87e532a0a04d02147004e5209060200160405180910390a15b5050505050565b3360008181526034602090815260408083206001600160a01b0387168452909152812054909190610dbd90829086906119ef9087906152db565b614354565b336000908152610132602052604081205460ff16611a7a5760405162461bcd60e51b815260206004820152603560248201527f496e766573746f72206164647265737320686173206e6f74206265656e20616460448201527f64656420746f20746865207768697465206c69737400000000000000000000006064820152608401610abf565b611a82610a71565b600080611af734306001600160a01b031663bb6f98fb60006040518263ffffffff1660e01b8152600401611ab6919061546e565b602060405180830381865afa158015611ad3573d6000803e3d6000fd5b505050506040513d601f19601f820116820180604052508101906107ee919061547c565b610131546040519294509092506001600160a01b0316903480156108fc02916000818181858888f19350505050611bbc5760405162461bcd60e51b815260206004820152604260248201527f54686572652077617320616e206572726f72206f6e2073656e64696e6720746860448201527f65204d4154494320696e766573746d656e7420746f207468652074726561737560648201527f7279000000000000000000000000000000000000000000000000000000000000608482015260a401610abf565b6040517fa9059cbb00000000000000000000000000000000000000000000000000000000815233600482015260248101829052309063a9059cbb906044016020604051808303816000875af1158015611c19573d6000803e3d6000fd5b505050506040513d601f19601f82011682018060405250810190611c3d9190615495565b611cd55760405162461bcd60e51b815260206004820152604160248201527f54686572652077617320616e206572726f72206f6e2073656e64696e6720626160448201527f636b20746865204859415820546f6b656e20746f2074686520696e766573746f60648201527f7200000000000000000000000000000000000000000000000000000000000000608482015260a401610abf565b336000908152610132602052604081206002018054849290611cf89084906152db565b9091555050336000908152610132602052604081206001018054839290611d209084906152db565b909155505060408051338152346020820152908101839052606081018290527fe036cb252631bb3e3fbcb1aa359dd09f94f0dac1fe6de828e8bae3f5028331c59060800160405180910390a1600192505050611d7c600160fb55565b90565b611d876144ac565b6001600160a01b038116611e035760405162461bcd60e51b815260206004820152602c60248201527f54686520746f6b656e20616464726573732063616e6e6f74206265207468652060448201527f7a65726f206164647265737300000000000000000000000000000000000000006064820152608401610abf565b6001826004811115611e1757611e176152ee565b03611f1d57610135546001600160a01b0390811690821603611ea15760405162461bcd60e51b815260206004820152603a60248201527f5553444320746f6b656e20616464726573732068617320616c7265616479206260448201527f65656e206d6f64696669656420746f20746861742076616c75650000000000006064820152608401610abf565b61013580546001600160a01b0383167fffffffffffffffffffffffff000000000000000000000000000000000000000091821681179092556101388054909116821790556040519081527f8b3f52c1d10699944ebee74ee29dca11c9c86bb0dbedef4abd6e737f613d4d3a906020015b60405180910390a15050565b6002826004811115611f3157611f316152ee565b0361202f57610139546001600160a01b0390811690821603611fbb5760405162461bcd60e51b815260206004820152603a60248201527f5553445420746f6b656e20616464726573732068617320616c7265616479206260448201527f65656e206d6f64696669656420746f20746861742076616c75650000000000006064820152608401610abf565b61013980546001600160a01b0383167fffffffffffffffffffffffff0000000000000000000000000000000000000000918216811790925561013c8054909116821790556040519081527f1c2d8a05be2c8eca524d44cc224513d7e19ca97ac309c3e23bee450f8578ca1990602001611f11565b6003826004811115612043576120436152ee565b036121415761013d546001600160a01b03908116908216036120cd5760405162461bcd60e51b815260206004820152603a60248201527f5742544320746f6b656e20616464726573732068617320616c7265616479206260448201527f65656e206d6f64696669656420746f20746861742076616c75650000000000006064820152608401610abf565b61013d80546001600160a01b0383167fffffffffffffffffffffffff000000000000000000000000000000000000000091821681179092556101408054909116821790556040519081527f95082f719648371f180ca4f9bad55a2ae7c2d029bbf93e360584ca6ea06327ea90602001611f11565b6004826004811115612155576121556152ee565b036114be57610141546001600160a01b03908116908216036121df5760405162461bcd60e51b815260206004820152603a60248201527f5745544820746f6b656e20616464726573732068617320616c7265616479206260448201527f65656e206d6f64696669656420746f20746861742076616c75650000000000006064820152608401610abf565b61014180546001600160a01b0383167fffffffffffffffffffffffff000000000000000000000000000000000000000091821681179092556101448054909116821790556040519081527ff5fd160f565ac0e80215e9eced5afbfcd47389e99858fac6a3d93f2ec38ff6d690602001611f11565b5050565b61225f6144ac565b612267614882565b565b60c9546001600160a01b031633148061228d5750610130546001600160a01b031633145b612301576040805162461bcd60e51b81526020600482015260248101919091527f46756e6374696f6e207265736572766564206f6e6c7920666f7220746865207760448201527f68697465206c69737465722061646472657373206f7220746865206f776e65726064820152608401610abf565b6001600160a01b0381166123a45760405162461bcd60e51b8152602060048201526044602482018190527f496e766573746f72206164647265737320746f2061646420746f207468652077908201527f68697465206c6973742063616e6e6f7420626520746865207a65726f2061646460648201527f7265737300000000000000000000000000000000000000000000000000000000608482015260a401610abf565b6001600160a01b0381166000908152610132602052604090205460ff16156124345760405162461bcd60e51b815260206004820152603e60248201527f5468617420696e766573746f7220616464726573732068617320616c7265616460448201527f79206265656e20616464656420746f20746865207768697465206c69737400006064820152608401610abf565b60408051608081018252600060208083018281528385018381526060850184815260018087526001600160a01b0389168087526101328652958890208751815495517fffffffffffffffffffffffffffffffffffffffffffffffffffffffffffff00009096169015157fffffffffffffffffffffffffffffffffffffffffffffffffffffffffffff00ff16176101009515159590950294909417845591519183019190915551600290910155835133815290810191909152825191927f8419b79dc227f7841e7bf32cea35c3f90fe5b3da68cde93adef3c32745c587de92918290030190a15050565b6125256144ac565b6000811161259b5760405162461bcd60e51b815260206004820152603760248201527f4e6577206d6178696d756d20616d6f756e7420746f20696e766573742c206d7560448201527f73742062652067726561746572207468616e207a65726f0000000000000000006064820152608401610abf565b61012f5481036126395760405162461bcd60e51b815260206004820152604560248201527f4e6577206d6178696d756d20616d6f756e7420746f20696e766573742c20686160448201527f7320616c7265616479206265656e206d6f64696669656420746f20746861742060648201527f76616c7565000000000000000000000000000000000000000000000000000000608482015260a401610abf565b61012e548110156126d85760405162461bcd60e51b815260206004820152605160248201527f4e6577206d6178696d756d20616d6f756e7420746f20696e766573742c206d7560448201527f73742062652067726561746572207468616e20746865206d696e696d756d206960648201527f6e766573746d656e7420616c6c6f776564000000000000000000000000000000608482015260a401610abf565b61012f8190556040518181527f29d434ec19958e7ce86ca2870f5927ab4f948d916dcffc568c1343c1e1f7656690602001610d12565b6127166144ac565b6001600160a01b0381166127925760405162461bcd60e51b815260206004820152603360248201527f546865207768697465206c697374657220616464726573732063616e6e6f742060448201527f626520746865207a65726f2061646472657373000000000000000000000000006064820152608401610abf565b610130546001600160a01b03908116908216036128175760405162461bcd60e51b815260206004820152603c60248201527f5768697465206c697374657220616464726573732068617320616c726561647960448201527f206265656e206d6f64696669656420746f20746861742076616c7565000000006064820152608401610abf565b61013080547fffffffffffffffffffffffff0000000000000000000000000000000000000000166001600160a01b0383169081179091556040519081527f32359536720adedfb2b6c6dd7685519f09fdf93ce7824b68d5b2f56354fdebec90602001610d12565b6128866144ac565b61226760006148f2565b336000908152610132602052604081205460ff166129165760405162461bcd60e51b815260206004820152603560248201527f496e766573746f72206164647265737320686173206e6f74206265656e20616460448201527f64656420746f20746865207768697465206c69737400000000000000000000006064820152608401610abf565b61291e610a71565b6000806001856004811115612935576129356152ee565b036129cf57610138546040517fbb6f98fb0000000000000000000000000000000000000000000000000000000081526001600160a01b039091169250309063bb6f98fb9061298790889060040161546e565b602060405180830381865afa1580156129a4573d6000803e3d6000fd5b505050506040513d601f19601f820116820180604052508101906129c8919061547c565b9050612b01565b60028560048111156129e3576129e36152ee565b03612a355761013c546040517fbb6f98fb0000000000000000000000000000000000000000000000000000000081526001600160a01b039091169250309063bb6f98fb9061298790889060040161546e565b6003856004811115612a4957612a496152ee565b03612a9b57610140546040517fbb6f98fb0000000000000000000000000000000000000000000000000000000081526001600160a01b039091169250309063bb6f98fb9061298790889060040161546e565b6004856004811115612aaf57612aaf6152ee565b036114be57610144546040517fbb6f98fb0000000000000000000000000000000000000000000000000000000081526001600160a01b039091169250309063bb6f98fb9061298790889060040161546e565b600080612b0e8684613738565b6040517f23b872dd0000000000000000000000000000000000000000000000000000000081523360048201523060248201526044810189905291935091506001600160a01b038516906323b872dd906064016020604051808303816000875af1158015612b7f573d6000803e3d6000fd5b505050506040513d601f19601f82011682018060405250810190612ba39190615495565b612c155760405162461bcd60e51b815260206004820152603460248201527f54686572652077617320616e206572726f72206f6e20726563656976696e672060448201527f74686520746f6b656e20696e766573746d656e740000000000000000000000006064820152608401610abf565b610131546040517fa9059cbb0000000000000000000000000000000000000000000000000000000081526001600160a01b039182166004820152602481018890529085169063a9059cbb906044016020604051808303816000875af1158015612c82573d6000803e3d6000fd5b505050506040513d601f19601f82011682018060405250810190612ca69190615495565b612d3e5760405162461bcd60e51b815260206004820152604260248201527f54686572652077617320616e206572726f72206f6e2073656e64696e6720746860448201527f6520746f6b656e20696e766573746d656e7420746f207468652074726561737560648201527f7279000000000000000000000000000000000000000000000000000000000000608482015260a401610abf565b6040517fa9059cbb00000000000000000000000000000000000000000000000000000000815233600482015260248101829052309063a9059cbb906044016020604051808303816000875af1158015612d9b573d6000803e3d6000fd5b505050506040513d601f19601f82011682018060405250810190612dbf9190615495565b612e575760405162461bcd60e51b815260206004820152604160248201527f54686572652077617320616e206572726f72206f6e2073656e64696e6720626160448201527f636b20746865204859415820546f6b656e20746f2074686520696e766573746f60648201527f7200000000000000000000000000000000000000000000000000000000000000608482015260a401610abf565b336000908152610132602052604081206002018054849290612e7a9084906152db565b9091555050336000908152610132602052604081206001018054839290612ea29084906152db565b90915550506040517f3b60324b6db90922773bde8799e6d3b7d574474a0fb52a6d340bd2ee92b5edbc90612edf90899033908a90879087906154b7565b60405180910390a16001945050505050610dc3600160fb55565b60c9546001600160a01b0316331480612f1d5750610130546001600160a01b031633145b612f91576040805162461bcd60e51b81526020600482015260248101919091527f46756e6374696f6e207265736572766564206f6e6c7920666f7220746865207760448201527f68697465206c69737465722061646472657373206f7220746865206f776e65726064820152608401610abf565b6001600160a01b0381166130335760405162461bcd60e51b815260206004820152605660248201527f496e766573746f72206164647265737320746f2072656d6f76652066726f6d2060448201527f746865207175616c696669656420696e766573746f72206c6973742063616e6e60648201527f6f7420626520746865207a65726f206164647265737300000000000000000000608482015260a401610abf565b6001600160a01b03811660009081526101326020526040902054610100900460ff166130ed5760405162461bcd60e51b815260206004820152604660248201527f5468617420696e766573746f722061646472657373206973206e6f742072656760448201527f69737465726564206f6e20746865207175616c696669656420696e766573746f60648201527f72206c6973740000000000000000000000000000000000000000000000000000608482015260a401610abf565b6001600160a01b0381166000818152610132602090815260409182902080547fffffffffffffffffffffffffffffffffffffffffffffffffffffffffffff00ff1690558151338152908101929092527f2ac92c349a800ca8b882e6d59e4f5c08ca2db952c08627c6cd4ab754a93b7ba39101610d12565b600054610100900460ff16158080156131845750600054600160ff909116105b8061319e5750303b15801561319e575060005460ff166001145b6132105760405162461bcd60e51b815260206004820152602e60248201527f496e697469616c697a61626c653a20636f6e747261637420697320616c72656160448201527f647920696e697469616c697a65640000000000000000000000000000000000006064820152608401610abf565b600080547fffffffffffffffffffffffffffffffffffffffffffffffffffffffffffffff00166001179055801561326e57600080547fffffffffffffffffffffffffffffffffffffffffffffffffffffffffffff00ff166101001790555b6132e26040518060400160405280600981526020017f48594158546f6b656e00000000000000000000000000000000000000000000008152506040518060400160405280600481526020017f485941580000000000000000000000000000000000000000000000000000000081525061495c565b6132ea6149e3565b6132f2614a68565b6132fa614aed565b61331d3361330a6012600a6152b5565b61331890631dcd65006152c4565b614506565b620927c061012d556133316012600a6152b5565b61333c9060016152c4565b61012e5561334c6012600a6152b5565b613358906127106152c4565b61012f5561013080547fffffffffffffffffffffffff00000000000000000000000000000000000000009081167301c2f012de19e6436744c3f81f56e9e70c93a8c3179091556101318054821673350441f8a82680a785ffa9d3efea60bb4ca417f817905561013380548216721382149eba3441043c1c66972b4772963f5d439081179091556101348054831690911790556101358054821673f68054bfe5d45432ffca28ffa1f3d685d0456ddc90811790915561013680548316731b8739bb4cdf0089d07097a9ae5bd274b29c6f16908117909155610137805484169091179055610138805483169091179055610139805482167370e02fb82b6bc04f64099689b0599e14b44d4fbb90811790915561013a80548316733ac23dcb4ecfcbd24579e1f34542524d0e4edea890811790915561013b80548416909117905561013c80548316909117905561013d80548216733c8df3c48b3884da2ff25e17524282d60f9c3b9390811790915561013e8054831673e7656e23fe8077d438aefbec2fabdf2d8e070c4f90811790915561013f8054841690911790556101408054831690911790556101418054821673524a89ed77d5827320e35e12bca96830c6b7960a9081179091556101428054831673f0d50568e3a7e8259e16663972b11910f89bd8e790811790915561014380548416909117905561014480549092161790558015610fea57600080547fffffffffffffffffffffffffffffffffffffffffffffffffffffffffffff00ff169055604051600181527f7f26b83ff96e1f2b6a682f133852f6798a09c465da95921460cefb384740249890602001610d12565b6135c06144ac565b6001600160a01b03811661363c5760405162461bcd60e51b815260206004820152602f60248201527f54686520747265617375727920616464726573732063616e6e6f74206265207460448201527f6865207a65726f206164647265737300000000000000000000000000000000006064820152608401610abf565b610131546001600160a01b03908116908216036136c15760405162461bcd60e51b815260206004820152603860248201527f547265617375727920616464726573732068617320616c72656164792062656560448201527f6e206d6f64696669656420746f20746861742076616c756500000000000000006064820152608401610abf565b61013180547fffffffffffffffffffffffff0000000000000000000000000000000000000000166001600160a01b0383169081179091556040519081527f2e1e696cfb265fa16e1170d24ef04cb2262772bde00ecf34d80bae6722487b7f90602001610d12565b6137306144ac565b612267614b72565b6000806305f5e10061374a84866152c4565b61375491906154f0565b61012d54909250613769836305f5e1006152c4565b61377391906154f0565b905061012e548210156138145760405162461bcd60e51b815260206004820152604160248201527f54686520616d6f756e7420746f20696e76657374206d7573742062652067726560448201527f61746572207468616e20746865206d696e696d756d2065737461626c6973686560648201527f6400000000000000000000000000000000000000000000000000000000000000608482015260a401610abf565b306000908152603360205260409020548111156138bf5760405162461bcd60e51b815260206004820152604860248201527f54686520696e766573746d656e74206d6164652072657475726e7320616e206160448201527f6d6f756e74206f6620485941582067726561746572207468616e20746865206160648201527f7661696c61626c65000000000000000000000000000000000000000000000000608482015260a401610abf565b9250929050565b60c9546001600160a01b03163314806138ea5750610130546001600160a01b031633145b61395e576040805162461bcd60e51b81526020600482015260248101919091527f46756e6374696f6e207265736572766564206f6e6c7920666f7220746865207760448201527f68697465206c69737465722061646472657373206f7220746865206f776e65726064820152608401610abf565b6001600160a01b038116613a005760405162461bcd60e51b815260206004820152605160248201527f496e766573746f72206164647265737320746f2061646420746f20746865207160448201527f75616c696669656420696e766573746f72206c6973742063616e6e6f7420626560648201527f20746865207a65726f2061646472657373000000000000000000000000000000608482015260a401610abf565b6001600160a01b0381166000908152610132602052604090205460ff16613a8f5760405162461bcd60e51b815260206004820152603f60248201527f496e766573746f722061646472657373206d757374206265206669727374206160448201527f6464656420746f2074686520696e766573746f72207768697465206c697374006064820152608401610abf565b6001600160a01b03811660009081526101326020526040902054610100900460ff1615613b4a5760405162461bcd60e51b815260206004820152604b60248201527f5468617420696e766573746f7220616464726573732068617320616c7265616460448201527f79206265656e20616464656420746f20746865207175616c696669656420696e60648201527f766573746f72206c697374000000000000000000000000000000000000000000608482015260a401610abf565b6001600160a01b0381166000818152610132602090815260409182902080547fffffffffffffffffffffffffffffffffffffffffffffffffffffffffffff00ff166101001790558151338152908101929092527f037cd19042487ae926a661f12fdfb1b8737056255a7c1bcf9708313301a7aded9101610d12565b606060378054610d2c90615119565b3360008181526034602090815260408083206001600160a01b038716845290915281205490919083811015613c715760405162461bcd60e51b815260206004820152602560248201527f45524332303a2064656372656173656420616c6c6f77616e63652062656c6f7760448201527f207a65726f0000000000000000000000000000000000000000000000000000006064820152608401610abf565b6110068286868403614354565b600033610dbd818585614683565b613c946144ac565b60008111613d0a5760405162461bcd60e51b815260206004820152603760248201527f4e6577206d696e696d756e20616d6f756e7420746f20696e766573742c206d7560448201527f73742062652067726561746572207468616e207a65726f0000000000000000006064820152608401610abf565b61012e548103613da85760405162461bcd60e51b815260206004820152604960248201527f4d696e696d756d20696e766573746d656e7420616c6c6f77656420696e20555360448201527f442068617320616c7265616479206265656e206d6f64696669656420746f207460648201527f6861742076616c75650000000000000000000000000000000000000000000000608482015260a401610abf565b61012f54811115613e475760405162461bcd60e51b815260206004820152604e60248201527f4e6577206d696e696d756e20616d6f756e7420746f20696e766573742c206d7560448201527f7374206265206c657373207468616e20746865206d6178696d756d20696e766560648201527f73746d656e7420616c6c6f776564000000000000000000000000000000000000608482015260a401610abf565b61012e8190556040518181527fee60eb8e40a2ec796bfe3ca896b9221af9764fc0987bf0508ca755266d9c85f890602001610d12565b613e856144ac565b61012d548103613efd5760405162461bcd60e51b815260206004820152603260248201527f485941582070726963652068617320616c7265616479206265656e206d6f646960448201527f6669656420746f20746861742076616c756500000000000000000000000000006064820152608401610abf565b6207a120811015613f9c5760405162461bcd60e51b815260206004820152604e60248201527f5072696365206f66204859415820746f6b656e206d757374206265206174206c60448201527f656173742055534420302e3030352c207468617420697320353030303030207760648201527f697468203820646563696d616c73000000000000000000000000000000000000608482015260a401610abf565b64174876e80081111561403d5760405162461bcd60e51b815260206004820152605560248201527f5072696365206f66204859415820746f6b656e206d757374206265206174206d60448201527f6178696d756d2055534420313030302c2074686174206973203130303030303060648201527f30303030302077697468203820646563696d616c730000000000000000000000608482015260a401610abf565b61012d8190556040518181527f4f6f7bbbb2b0dde2246ee6650672d1b55a5be5b52f8dd2e8d595f4bd47e1c91390602001610d12565b60008080836004811115614089576140896152ee565b036140a15750610134546001600160a01b031661414d565b60018360048111156140b5576140b56152ee565b036140cd5750610137546001600160a01b031661414d565b60028360048111156140e1576140e16152ee565b036140f9575061013b546001600160a01b031661414d565b600383600481111561410d5761410d6152ee565b03614125575061013f546001600160a01b031661414d565b6004836004811115614139576141396152ee565b036114be5750610143546001600160a01b03165b806001600160a01b031663feaf968c6040518163ffffffff1660e01b815260040160a060405180830381865afa9250505080156141c5575060408051601f3d9081017fffffffffffffffffffffffffffffffffffffffffffffffffffffffffffffffe01682019092526141c291810190615545565b60015b6142375760405162461bcd60e51b815260206004820152603660248201527f54686572652077617320616e206572726f72206f627461696e696e672074686560448201527f2070726963652066726f6d20746865206f7261636c65000000000000000000006064820152608401610abf565b50919695505050505050565b50919050565b6142516144ac565b6001600160a01b0381166142cd5760405162461bcd60e51b815260206004820152602660248201527f4f776e61626c653a206e6577206f776e657220697320746865207a65726f206160448201527f64647265737300000000000000000000000000000000000000000000000000006064820152608401610abf565b306001600160a01b0382160361434b5760405162461bcd60e51b815260206004820152603660248201527f4f776e61626c653a206e6577206f776e65722063616e6e6f742062652074686560448201527f2073616d6520636f6e74726163742061646472657373000000000000000000006064820152608401610abf565b610fea816148f2565b6001600160a01b0383166143cf5760405162461bcd60e51b8152602060048201526024808201527f45524332303a20617070726f76652066726f6d20746865207a65726f2061646460448201527f72657373000000000000000000000000000000000000000000000000000000006064820152608401610abf565b6001600160a01b03821661444b5760405162461bcd60e51b815260206004820152602260248201527f45524332303a20617070726f766520746f20746865207a65726f20616464726560448201527f73730000000000000000000000000000000000000000000000000000000000006064820152608401610abf565b6001600160a01b0383811660008181526034602090815260408083209487168084529482529182902085905590518481527f8c5be1e5ebec7d5bd14f71427d1e84f3dd0314c0f7b2291e5b200ac8c7c3b925910160405180910390a3505050565b60c9546001600160a01b031633146122675760405162461bcd60e51b815260206004820181905260248201527f4f776e61626c653a2063616c6c6572206973206e6f7420746865206f776e65726044820152606401610abf565b6001600160a01b03821661455c5760405162461bcd60e51b815260206004820152601f60248201527f45524332303a206d696e7420746f20746865207a65726f2061646472657373006044820152606401610abf565b61456860008383614bcd565b806035600082825461457a91906152db565b90915550506001600160a01b0382166000818152603360209081526040808320805486019055518481527fddf252ad1be2c89b69c2b068fc378daa952ba7f163c4a11628f55a4df523b3ef910160405180910390a35050565b6001600160a01b038381166000908152603460209081526040808320938616835292905220547fffffffffffffffffffffffffffffffffffffffffffffffffffffffffffffffff811461467d57818110156146705760405162461bcd60e51b815260206004820152601d60248201527f45524332303a20696e73756666696369656e7420616c6c6f77616e63650000006044820152606401610abf565b61467d8484848403614354565b50505050565b6001600160a01b0383166146ff5760405162461bcd60e51b815260206004820152602560248201527f45524332303a207472616e736665722066726f6d20746865207a65726f20616460448201527f64726573730000000000000000000000000000000000000000000000000000006064820152608401610abf565b6001600160a01b03821661477b5760405162461bcd60e51b815260206004820152602360248201527f45524332303a207472616e7366657220746f20746865207a65726f206164647260448201527f65737300000000000000000000000000000000000000000000000000000000006064820152608401610abf565b614786838383614bcd565b6001600160a01b038316600090815260336020526040902054818110156148155760405162461bcd60e51b815260206004820152602660248201527f45524332303a207472616e7366657220616d6f756e742065786365656473206260448201527f616c616e636500000000000000000000000000000000000000000000000000006064820152608401610abf565b6001600160a01b0380851660008181526033602052604080822086860390559286168082529083902080548601905591517fddf252ad1be2c89b69c2b068fc378daa952ba7f163c4a11628f55a4df523b3ef906148759086815260200190565b60405180910390a361467d565b61488a614c4b565b606580547fffffffffffffffffffffffffffffffffffffffffffffffffffffffffffffff001690557f5db9ee0a495bf2e6ff9c91a7834c1ba4fdd244a5e8aa4e537bd38aeae4b073aa335b6040516001600160a01b03909116815260200160405180910390a1565b60c980546001600160a01b038381167fffffffffffffffffffffffff0000000000000000000000000000000000000000831681179093556040519116919082907f8be0079c531659141344cd1fd0a4f28419497f9722a3daafe3b4186f6b6457e090600090a35050565b600054610100900460ff166149d95760405162461bcd60e51b815260206004820152602b60248201527f496e697469616c697a61626c653a20636f6e7472616374206973206e6f74206960448201527f6e697469616c697a696e670000000000000000000000000000000000000000006064820152608401610abf565b6122538282614c9d565b600054610100900460ff16614a605760405162461bcd60e51b815260206004820152602b60248201527f496e697469616c697a61626c653a20636f6e7472616374206973206e6f74206960448201527f6e697469616c697a696e670000000000000000000000000000000000000000006064820152608401610abf565b612267614d33565b600054610100900460ff16614ae55760405162461bcd60e51b815260206004820152602b60248201527f496e697469616c697a61626c653a20636f6e7472616374206973206e6f74206960448201527f6e697469616c697a696e670000000000000000000000000000000000000000006064820152608401610abf565b612267614db9565b600054610100900460ff16614b6a5760405162461bcd60e51b815260206004820152602b60248201527f496e697469616c697a61626c653a20636f6e7472616374206973206e6f74206960448201527f6e697469616c697a696e670000000000000000000000000000000000000000006064820152608401610abf565b612267614e36565b614b7a614edd565b606580547fffffffffffffffffffffffffffffffffffffffffffffffffffffffffffffff001660011790557f62e78cea01bee320cd4e420270b5ea74000d11b0c9f74754ebdbfc544b05a2586148d53390565b60655460ff1615614c465760405162461bcd60e51b815260206004820152602a60248201527f45524332305061757361626c653a20746f6b656e207472616e7366657220776860448201527f696c6520706175736564000000000000000000000000000000000000000000006064820152608401610abf565b505050565b60655460ff166122675760405162461bcd60e51b815260206004820152601460248201527f5061757361626c653a206e6f74207061757365640000000000000000000000006044820152606401610abf565b600054610100900460ff16614d1a5760405162461bcd60e51b815260206004820152602b60248201527f496e697469616c697a61626c653a20636f6e7472616374206973206e6f74206960448201527f6e697469616c697a696e670000000000000000000000000000000000000000006064820152608401610abf565b6036614d2683826155e3565b506037614c4682826155e3565b600054610100900460ff16614db05760405162461bcd60e51b815260206004820152602b60248201527f496e697469616c697a61626c653a20636f6e7472616374206973206e6f74206960448201527f6e697469616c697a696e670000000000000000000000000000000000000000006064820152608401610abf565b612267336148f2565b600054610100900460ff16610acf5760405162461bcd60e51b815260206004820152602b60248201527f496e697469616c697a61626c653a20636f6e7472616374206973206e6f74206960448201527f6e697469616c697a696e670000000000000000000000000000000000000000006064820152608401610abf565b600054610100900460ff16614eb35760405162461bcd60e51b815260206004820152602b60248201527f496e697469616c697a61626c653a20636f6e7472616374206973206e6f74206960448201527f6e697469616c697a696e670000000000000000000000000000000000000000006064820152608401610abf565b606580547fffffffffffffffffffffffffffffffffffffffffffffffffffffffffffffff00169055565b60655460ff16156122675760405162461bcd60e51b815260206004820152601060248201527f5061757361626c653a20706175736564000000000000000000000000000000006044820152606401610abf565b80356001600160a01b0381168114614f4757600080fd5b919050565b600060208284031215614f5e57600080fd5b614f6782614f30565b9392505050565b60005b83811015614f89578181015183820152602001614f71565b50506000910152565b6020815260008251806020840152614fb1816040850160208701614f6e565b601f017fffffffffffffffffffffffffffffffffffffffffffffffffffffffffffffffe0169190910160400192915050565b60008060408385031215614ff657600080fd5b614fff83614f30565b946020939093013593505050565b60006020828403121561501f57600080fd5b5035919050565b60008060006060848603121561503b57600080fd5b61504484614f30565b925061505260208501614f30565b9150604084013590509250925092565b803560058110614f4757600080fd5b6000806040838503121561508457600080fd5b61508d83615062565b915061509b60208401614f30565b90509250929050565b600080604083850312156150b757600080fd5b614fff83615062565b600080604083850312156150d357600080fd5b50508035926020909101359150565b6000602082840312156150f457600080fd5b614f6782615062565b6000806040838503121561511057600080fd5b61508d83614f30565b600181811c9082168061512d57607f821691505b602082108103614243577f4e487b7100000000000000000000000000000000000000000000000000000000600052602260045260246000fd5b7f4e487b7100000000000000000000000000000000000000000000000000000000600052601160045260246000fd5b600181815b808511156151ee57817fffffffffffffffffffffffffffffffffffffffffffffffffffffffffffffffff048211156151d4576151d4615166565b808516156151e157918102915b93841c939080029061519a565b509250929050565b60008261520557506001610dc3565b8161521257506000610dc3565b816001811461522857600281146152325761524e565b6001915050610dc3565b60ff84111561524357615243615166565b50506001821b610dc3565b5060208310610133831016604e8410600b8410161715615271575081810a610dc3565b61527b8383615195565b807fffffffffffffffffffffffffffffffffffffffffffffffffffffffffffffffff048211156152ad576152ad615166565b029392505050565b6000614f6760ff8416836151f6565b8082028115828204841417610dc357610dc3615166565b80820180821115610dc357610dc3615166565b7f4e487b7100000000000000000000000000000000000000000000000000000000600052602160045260246000fd5b7f4e487b7100000000000000000000000000000000000000000000000000000000600052604160045260246000fd5b60006020828403121561535e57600080fd5b815167ffffffffffffffff8082111561537657600080fd5b818401915084601f83011261538a57600080fd5b81518181111561539c5761539c61531d565b604051601f82017fffffffffffffffffffffffffffffffffffffffffffffffffffffffffffffffe0908116603f011681019083821181831017156153e2576153e261531d565b816040528281528760208487010111156153fb57600080fd5b61540c836020830160208801614f6e565b979650505050505050565b60008251615429818460208701614f6e565b9190910192915050565b6005811061546a577f4e487b7100000000000000000000000000000000000000000000000000000000600052602160045260246000fd5b9052565b60208101610dc38284615433565b60006020828403121561548e57600080fd5b5051919050565b6000602082840312156154a757600080fd5b81518015158114614f6757600080fd5b60a081016154c58288615433565b6001600160a01b03861660208301528460408301528360608301528260808301529695505050505050565b600082615526577f4e487b7100000000000000000000000000000000000000000000000000000000600052601260045260246000fd5b500490565b805169ffffffffffffffffffff81168114614f4757600080fd5b600080600080600060a0868803121561555d57600080fd5b6155668661552b565b94506020860151935060408601519250606086015191506155896080870161552b565b90509295509295909350565b601f821115614c4657600081815260208120601f850160051c810160208610156155bc5750805b601f850160051c820191505b818110156155db578281556001016155c8565b505050505050565b815167ffffffffffffffff8111156155fd576155fd61531d565b6156118161560b8454615119565b84615595565b602080601f831160018114615664576000841561562e5750858301515b7fffffffffffffffffffffffffffffffffffffffffffffffffffffffffffffffff600386901b1c1916600185901b1785556155db565b6000858152602081207fffffffffffffffffffffffffffffffffffffffffffffffffffffffffffffffe08616915b828110156156b157888601518255948401946001909101908401615692565b50858210156156ed57878501517fffffffffffffffffffffffffffffffffffffffffffffffffffffffffffffffff600388901b60f8161c191681555b5050505050600190811b0190555056fea264697066735822122065639d6b68cf640b3f87de3b1193a3808db3f7279ea1797ee0f61119eee27f6b64736f6c63430008140033",
  "linkReferences": {},
  "deployedLinkReferences": {}
}