{
  "_format": "hh-sol-artifact-1",
  "contractName": "HYAXUpgradeableTokenV2",
  "sourceName": "contracts/HYAXUpgradeableTokenV2.sol",
  "abi": [
    {
      "anonymous": false,
      "inputs": [
        {
          "indexed": true,
          "internalType": "address",
          "name": "owner",
          "type": "address"
        },
        {
          "indexed": true,
          "internalType": "address",
          "name": "spender",
          "type": "address"
        },
        {
          "indexed": false,
          "internalType": "uint256",
          "name": "value",
          "type": "uint256"
        }
      ],
      "name": "Approval",
      "type": "event"
    },
    {
      "anonymous": false,
      "inputs": [
        {
          "indexed": false,
          "internalType": "address",
          "name": "sender",
          "type": "address"
        },
        {
          "indexed": false,
          "internalType": "address",
          "name": "_investorAddress",
          "type": "address"
        },
        {
          "indexed": false,
          "internalType": "bool",
          "name": "_isBlacklisted",
          "type": "bool"
        }
      ],
      "name": "BlacklistStatusUpdated",
      "type": "event"
    },
    {
      "anonymous": false,
      "inputs": [
        {
          "indexed": false,
          "internalType": "uint8",
          "name": "version",
          "type": "uint8"
        }
      ],
      "name": "Initialized",
      "type": "event"
    },
    {
      "anonymous": false,
      "inputs": [
        {
          "indexed": true,
          "internalType": "enum HYAXUpgradeableTokenV2.TokenType",
          "name": "tokenType",
          "type": "uint8"
        },
        {
          "indexed": true,
          "internalType": "address",
          "name": "sender",
          "type": "address"
        },
        {
          "indexed": false,
          "internalType": "uint256",
          "name": "tokenAmount",
          "type": "uint256"
        },
        {
          "indexed": false,
          "internalType": "uint256",
          "name": "totalInvestmentInUsd",
          "type": "uint256"
        },
        {
          "indexed": false,
          "internalType": "uint256",
          "name": "hyaxAmount",
          "type": "uint256"
        }
      ],
      "name": "InvestFromCryptoToken",
      "type": "event"
    },
    {
      "anonymous": false,
      "inputs": [
        {
          "indexed": true,
          "internalType": "address",
          "name": "sender",
          "type": "address"
        },
        {
          "indexed": false,
          "internalType": "uint256",
          "name": "maticAmount",
          "type": "uint256"
        },
        {
          "indexed": false,
          "internalType": "uint256",
          "name": "totalInvestmentInUsd",
          "type": "uint256"
        },
        {
          "indexed": false,
          "internalType": "uint256",
          "name": "hyaxAmount",
          "type": "uint256"
        }
      ],
      "name": "InvestFromMatic",
      "type": "event"
    },
    {
      "anonymous": false,
      "inputs": [
        {
          "indexed": true,
          "internalType": "address",
          "name": "sender",
          "type": "address"
        },
        {
          "indexed": true,
          "internalType": "address",
          "name": "_investorAddress",
          "type": "address"
        }
      ],
      "name": "InvestorAddedToWhiteList",
      "type": "event"
    },
    {
      "anonymous": false,
      "inputs": [
        {
          "indexed": true,
          "internalType": "address",
          "name": "sender",
          "type": "address"
        },
        {
          "indexed": false,
          "internalType": "uint256",
          "name": "amount",
          "type": "uint256"
        }
      ],
      "name": "MaticReceived",
      "type": "event"
    },
    {
      "anonymous": false,
      "inputs": [
        {
          "indexed": true,
          "internalType": "address",
          "name": "previousOwner",
          "type": "address"
        },
        {
          "indexed": true,
          "internalType": "address",
          "name": "newOwner",
          "type": "address"
        }
      ],
      "name": "OwnershipTransferred",
      "type": "event"
    },
    {
      "anonymous": false,
      "inputs": [
        {
          "indexed": false,
          "internalType": "address",
          "name": "account",
          "type": "address"
        }
      ],
      "name": "Paused",
      "type": "event"
    },
    {
      "anonymous": false,
      "inputs": [
        {
          "indexed": false,
          "internalType": "address",
          "name": "sender",
          "type": "address"
        },
        {
          "indexed": false,
          "internalType": "address",
          "name": "_QualifiedInvestorAddress",
          "type": "address"
        },
        {
          "indexed": false,
          "internalType": "bool",
          "name": "_isQualifiedInvestor",
          "type": "bool"
        }
      ],
      "name": "QualifiedInvestorStatusUpdated",
      "type": "event"
    },
    {
      "anonymous": false,
      "inputs": [
        {
          "indexed": true,
          "internalType": "address",
          "name": "sender",
          "type": "address"
        },
        {
          "indexed": false,
          "internalType": "uint256",
          "name": "amount",
          "type": "uint256"
        }
      ],
      "name": "TokenIssuance",
      "type": "event"
    },
    {
      "anonymous": false,
      "inputs": [
        {
          "indexed": true,
          "internalType": "address",
          "name": "from",
          "type": "address"
        },
        {
          "indexed": true,
          "internalType": "address",
          "name": "to",
          "type": "address"
        },
        {
          "indexed": false,
          "internalType": "uint256",
          "name": "value",
          "type": "uint256"
        }
      ],
      "name": "Transfer",
      "type": "event"
    },
    {
      "anonymous": false,
      "inputs": [
        {
          "indexed": false,
          "internalType": "address",
          "name": "account",
          "type": "address"
        }
      ],
      "name": "Unpaused",
      "type": "event"
    },
    {
      "anonymous": false,
      "inputs": [
        {
          "indexed": false,
          "internalType": "uint256",
          "name": "_newHyaxPrice",
          "type": "uint256"
        }
      ],
      "name": "UpdatedHyaxPrice",
      "type": "event"
    },
    {
      "anonymous": false,
      "inputs": [
        {
          "indexed": false,
          "internalType": "address",
          "name": "_newMaticPriceFeedAddress",
          "type": "address"
        }
      ],
      "name": "UpdatedMaticPriceFeedAddress",
      "type": "event"
    },
    {
      "anonymous": false,
      "inputs": [
        {
          "indexed": false,
          "internalType": "uint256",
          "name": "_newMaximumInvestmentAllowedInUSD",
          "type": "uint256"
        }
      ],
      "name": "UpdatedMaximumInvestmentAllowedInUSD",
      "type": "event"
    },
    {
      "anonymous": false,
      "inputs": [
        {
          "indexed": false,
          "internalType": "uint256",
          "name": "_newMinimumInvestmentAllowedInUSD",
          "type": "uint256"
        }
      ],
      "name": "UpdatedMinimumInvestmentAllowedInUSD",
      "type": "event"
    },
    {
      "anonymous": false,
      "inputs": [
        {
          "indexed": false,
          "internalType": "address",
          "name": "_newTreasuryAddress",
          "type": "address"
        }
      ],
      "name": "UpdatedTreasuryAddress",
      "type": "event"
    },
    {
      "anonymous": false,
      "inputs": [
        {
          "indexed": false,
          "internalType": "address",
          "name": "_newUsdcPriceFeedAddress",
          "type": "address"
        }
      ],
      "name": "UpdatedUsdcPriceFeedAddress",
      "type": "event"
    },
    {
      "anonymous": false,
      "inputs": [
        {
          "indexed": false,
          "internalType": "address",
          "name": "_newUsdcTokenAddress",
          "type": "address"
        }
      ],
      "name": "UpdatedUsdcTokenAddress",
      "type": "event"
    },
    {
      "anonymous": false,
      "inputs": [
        {
          "indexed": false,
          "internalType": "address",
          "name": "_newUsdtPriceFeedAddress",
          "type": "address"
        }
      ],
      "name": "UpdatedUsdtPriceFeedAddress",
      "type": "event"
    },
    {
      "anonymous": false,
      "inputs": [
        {
          "indexed": false,
          "internalType": "address",
          "name": "_newUsdtTokenAddress",
          "type": "address"
        }
      ],
      "name": "UpdatedUsdtTokenAddress",
      "type": "event"
    },
    {
      "anonymous": false,
      "inputs": [
        {
          "indexed": false,
          "internalType": "address",
          "name": "_newWbtcPriceFeedAddress",
          "type": "address"
        }
      ],
      "name": "UpdatedWbtcPriceFeedAddress",
      "type": "event"
    },
    {
      "anonymous": false,
      "inputs": [
        {
          "indexed": false,
          "internalType": "address",
          "name": "_newWbtcTokenAddress",
          "type": "address"
        }
      ],
      "name": "UpdatedWbtcTokenAddress",
      "type": "event"
    },
    {
      "anonymous": false,
      "inputs": [
        {
          "indexed": false,
          "internalType": "address",
          "name": "_newWethPriceFeedAddress",
          "type": "address"
        }
      ],
      "name": "UpdatedWethPriceFeedAddress",
      "type": "event"
    },
    {
      "anonymous": false,
      "inputs": [
        {
          "indexed": false,
          "internalType": "address",
          "name": "_newWethTokenAddress",
          "type": "address"
        }
      ],
      "name": "UpdatedWethTokenAddress",
      "type": "event"
    },
    {
      "anonymous": false,
      "inputs": [
        {
          "indexed": false,
          "internalType": "address",
          "name": "_newWhiteListerAddress",
          "type": "address"
        }
      ],
      "name": "UpdatedWhiteListerAddress",
      "type": "event"
    },
    {
      "anonymous": false,
      "inputs": [
        {
          "indexed": false,
          "internalType": "address",
          "name": "sender",
          "type": "address"
        },
        {
          "indexed": false,
          "internalType": "address",
          "name": "_investorAddress",
          "type": "address"
        },
        {
          "indexed": false,
          "internalType": "bool",
          "name": "_isWhiteListed",
          "type": "bool"
        }
      ],
      "name": "WhitelistStatusUpdated",
      "type": "event"
    },
    {
      "inputs": [],
      "name": "MAX_PRICE_AGE",
      "outputs": [
        {
          "internalType": "uint256",
          "name": "",
          "type": "uint256"
        }
      ],
      "stateMutability": "view",
      "type": "function"
    },
    {
      "inputs": [
        {
          "internalType": "address",
          "name": "_investorAddress",
          "type": "address"
        }
      ],
      "name": "addToWhiteList",
      "outputs": [],
      "stateMutability": "nonpayable",
      "type": "function"
    },
    {
      "inputs": [
        {
          "internalType": "address",
          "name": "owner",
          "type": "address"
        },
        {
          "internalType": "address",
          "name": "spender",
          "type": "address"
        }
      ],
      "name": "allowance",
      "outputs": [
        {
          "internalType": "uint256",
          "name": "",
          "type": "uint256"
        }
      ],
      "stateMutability": "view",
      "type": "function"
    },
    {
      "inputs": [
        {
          "internalType": "address",
          "name": "spender",
          "type": "address"
        },
        {
          "internalType": "uint256",
          "name": "amount",
          "type": "uint256"
        }
      ],
      "name": "approve",
      "outputs": [
        {
          "internalType": "bool",
          "name": "",
          "type": "bool"
        }
      ],
      "stateMutability": "nonpayable",
      "type": "function"
    },
    {
      "inputs": [
        {
          "internalType": "address",
          "name": "account",
          "type": "address"
        }
      ],
      "name": "balanceOf",
      "outputs": [
        {
          "internalType": "uint256",
          "name": "",
          "type": "uint256"
        }
      ],
      "stateMutability": "view",
      "type": "function"
    },
    {
      "inputs": [
        {
          "internalType": "uint256",
          "name": "_amount",
          "type": "uint256"
        },
        {
          "internalType": "uint256",
          "name": "_currentCryptocurrencyPrice",
          "type": "uint256"
        }
      ],
      "name": "calculateTotalHyaxTokenToReturn",
      "outputs": [
        {
          "internalType": "uint256",
          "name": "totalInvestmentInUsd",
          "type": "uint256"
        },
        {
          "internalType": "uint256",
          "name": "totalHyaxTokenToReturn",
          "type": "uint256"
        }
      ],
      "stateMutability": "view",
      "type": "function"
    },
    {
      "inputs": [],
      "name": "decimals",
      "outputs": [
        {
          "internalType": "uint8",
          "name": "",
          "type": "uint8"
        }
      ],
      "stateMutability": "view",
      "type": "function"
    },
    {
      "inputs": [
        {
          "internalType": "address",
          "name": "spender",
          "type": "address"
        },
        {
          "internalType": "uint256",
          "name": "subtractedValue",
          "type": "uint256"
        }
      ],
      "name": "decreaseAllowance",
      "outputs": [
        {
          "internalType": "bool",
          "name": "",
          "type": "bool"
        }
      ],
      "stateMutability": "nonpayable",
      "type": "function"
    },
    {
      "inputs": [
        {
          "internalType": "enum HYAXUpgradeableTokenV2.TokenType",
          "name": "tokenType",
          "type": "uint8"
        }
      ],
      "name": "getCurrentTokenPrice",
      "outputs": [
        {
          "internalType": "uint256",
          "name": "",
          "type": "uint256"
        }
      ],
      "stateMutability": "view",
      "type": "function"
    },
    {
      "inputs": [],
      "name": "hyaxPrice",
      "outputs": [
        {
          "internalType": "uint256",
          "name": "",
          "type": "uint256"
        }
      ],
      "stateMutability": "view",
      "type": "function"
    },
    {
      "inputs": [
        {
          "internalType": "address",
          "name": "spender",
          "type": "address"
        },
        {
          "internalType": "uint256",
          "name": "addedValue",
          "type": "uint256"
        }
      ],
      "name": "increaseAllowance",
      "outputs": [
        {
          "internalType": "bool",
          "name": "",
          "type": "bool"
        }
      ],
      "stateMutability": "nonpayable",
      "type": "function"
    },
    {
      "inputs": [],
      "name": "initialize",
      "outputs": [],
      "stateMutability": "nonpayable",
      "type": "function"
    },
    {
      "inputs": [
        {
          "internalType": "enum HYAXUpgradeableTokenV2.TokenType",
          "name": "tokenType",
          "type": "uint8"
        },
        {
          "internalType": "uint256",
          "name": "_amount",
          "type": "uint256"
        }
      ],
      "name": "investFromCryptoToken",
      "outputs": [
        {
          "internalType": "bool",
          "name": "",
          "type": "bool"
        }
      ],
      "stateMutability": "nonpayable",
      "type": "function"
    },
    {
      "inputs": [],
      "name": "investFromMatic",
      "outputs": [
        {
          "internalType": "bool",
          "name": "",
          "type": "bool"
        }
      ],
      "stateMutability": "payable",
      "type": "function"
    },
    {
      "inputs": [
        {
          "internalType": "address",
          "name": "",
          "type": "address"
        }
      ],
      "name": "investorData",
      "outputs": [
        {
          "internalType": "bool",
          "name": "isWhiteListed",
          "type": "bool"
        },
        {
          "internalType": "bool",
          "name": "isBlacklisted",
          "type": "bool"
        },
        {
          "internalType": "bool",
          "name": "isQualifiedInvestor",
          "type": "bool"
        },
        {
          "internalType": "uint256",
          "name": "totalHyaxBoughtByInvestor",
          "type": "uint256"
        },
        {
          "internalType": "uint256",
          "name": "totalUsdDepositedByInvestor",
          "type": "uint256"
        }
      ],
      "stateMutability": "view",
      "type": "function"
    },
    {
      "inputs": [],
      "name": "maticPriceFeedAddress",
      "outputs": [
        {
          "internalType": "address",
          "name": "",
          "type": "address"
        }
      ],
      "stateMutability": "view",
      "type": "function"
    },
    {
      "inputs": [],
      "name": "maximumInvestmentAllowedInUSD",
      "outputs": [
        {
          "internalType": "uint256",
          "name": "",
          "type": "uint256"
        }
      ],
      "stateMutability": "view",
      "type": "function"
    },
    {
      "inputs": [],
      "name": "minimumInvestmentAllowedInUSD",
      "outputs": [
        {
          "internalType": "uint256",
          "name": "",
          "type": "uint256"
        }
      ],
      "stateMutability": "view",
      "type": "function"
    },
    {
      "inputs": [],
      "name": "name",
      "outputs": [
        {
          "internalType": "string",
          "name": "",
          "type": "string"
        }
      ],
      "stateMutability": "view",
      "type": "function"
    },
    {
      "inputs": [],
      "name": "newFunction",
      "outputs": [
        {
          "internalType": "string",
          "name": "",
          "type": "string"
        }
      ],
      "stateMutability": "pure",
      "type": "function"
    },
    {
      "inputs": [],
      "name": "owner",
      "outputs": [
        {
          "internalType": "address",
          "name": "",
          "type": "address"
        }
      ],
      "stateMutability": "view",
      "type": "function"
    },
    {
      "inputs": [],
      "name": "pause",
      "outputs": [],
      "stateMutability": "nonpayable",
      "type": "function"
    },
    {
      "inputs": [],
      "name": "paused",
      "outputs": [
        {
          "internalType": "bool",
          "name": "",
          "type": "bool"
        }
      ],
      "stateMutability": "view",
      "type": "function"
    },
    {
      "inputs": [],
      "name": "renounceOwnership",
      "outputs": [],
      "stateMutability": "nonpayable",
      "type": "function"
    },
    {
      "inputs": [],
      "name": "symbol",
      "outputs": [
        {
          "internalType": "string",
          "name": "",
          "type": "string"
        }
      ],
      "stateMutability": "view",
      "type": "function"
    },
    {
      "inputs": [
        {
          "internalType": "uint256",
          "name": "_amount",
          "type": "uint256"
        }
      ],
      "name": "tokenIssuance",
      "outputs": [],
      "stateMutability": "nonpayable",
      "type": "function"
    },
    {
      "inputs": [],
      "name": "totalSupply",
      "outputs": [
        {
          "internalType": "uint256",
          "name": "",
          "type": "uint256"
        }
      ],
      "stateMutability": "view",
      "type": "function"
    },
    {
      "inputs": [
        {
          "internalType": "address",
          "name": "to",
          "type": "address"
        },
        {
          "internalType": "uint256",
          "name": "amount",
          "type": "uint256"
        }
      ],
      "name": "transfer",
      "outputs": [
        {
          "internalType": "bool",
          "name": "",
          "type": "bool"
        }
      ],
      "stateMutability": "nonpayable",
      "type": "function"
    },
    {
      "inputs": [
        {
          "internalType": "address",
          "name": "from",
          "type": "address"
        },
        {
          "internalType": "address",
          "name": "to",
          "type": "address"
        },
        {
          "internalType": "uint256",
          "name": "amount",
          "type": "uint256"
        }
      ],
      "name": "transferFrom",
      "outputs": [
        {
          "internalType": "bool",
          "name": "",
          "type": "bool"
        }
      ],
      "stateMutability": "nonpayable",
      "type": "function"
    },
    {
      "inputs": [
        {
          "internalType": "address",
          "name": "newOwner",
          "type": "address"
        }
      ],
      "name": "transferOwnership",
      "outputs": [],
      "stateMutability": "nonpayable",
      "type": "function"
    },
    {
      "inputs": [],
      "name": "treasuryAddress",
      "outputs": [
        {
          "internalType": "address",
          "name": "",
          "type": "address"
        }
      ],
      "stateMutability": "view",
      "type": "function"
    },
    {
      "inputs": [],
      "name": "unpause",
      "outputs": [],
      "stateMutability": "nonpayable",
      "type": "function"
    },
    {
      "inputs": [
        {
          "internalType": "address",
          "name": "_investorAddress",
          "type": "address"
        },
        {
          "internalType": "bool",
          "name": "_newStatus",
          "type": "bool"
        }
      ],
      "name": "updateBlacklistStatus",
      "outputs": [],
      "stateMutability": "nonpayable",
      "type": "function"
    },
    {
      "inputs": [
        {
          "internalType": "uint256",
          "name": "_newHyaxPrice",
          "type": "uint256"
        }
      ],
      "name": "updateHyaxPrice",
      "outputs": [],
      "stateMutability": "nonpayable",
      "type": "function"
    },
    {
      "inputs": [
        {
          "internalType": "uint256",
          "name": "_newMaximumInvestmentAllowedInUSD",
          "type": "uint256"
        }
      ],
      "name": "updateMaximumInvestmentAllowedInUSD",
      "outputs": [],
      "stateMutability": "nonpayable",
      "type": "function"
    },
    {
      "inputs": [
        {
          "internalType": "uint256",
          "name": "_newMinimumInvestmentAllowedInUSD",
          "type": "uint256"
        }
      ],
      "name": "updateMinimumInvestmentAllowedInUSD",
      "outputs": [],
      "stateMutability": "nonpayable",
      "type": "function"
    },
    {
      "inputs": [
        {
          "internalType": "enum HYAXUpgradeableTokenV2.TokenType",
          "name": "tokenType",
          "type": "uint8"
        },
        {
          "internalType": "address",
          "name": "newPriceFeedAddress",
          "type": "address"
        }
      ],
      "name": "updatePriceFeedAddress",
      "outputs": [],
      "stateMutability": "nonpayable",
      "type": "function"
    },
    {
      "inputs": [
        {
          "internalType": "address",
          "name": "_qualifiedInvestorAddress",
          "type": "address"
        },
        {
          "internalType": "bool",
          "name": "_newStatus",
          "type": "bool"
        }
      ],
      "name": "updateQualifiedInvestorStatus",
      "outputs": [],
      "stateMutability": "nonpayable",
      "type": "function"
    },
    {
      "inputs": [
        {
          "internalType": "enum HYAXUpgradeableTokenV2.TokenType",
          "name": "tokenType",
          "type": "uint8"
        },
        {
          "internalType": "address",
          "name": "newTokenAddress",
          "type": "address"
        }
      ],
      "name": "updateTokenAddress",
      "outputs": [],
      "stateMutability": "nonpayable",
      "type": "function"
    },
    {
      "inputs": [
        {
          "internalType": "address",
          "name": "_newTreasuryAddress",
          "type": "address"
        }
      ],
      "name": "updateTreasuryAddress",
      "outputs": [],
      "stateMutability": "nonpayable",
      "type": "function"
    },
    {
      "inputs": [
        {
          "internalType": "address",
          "name": "_newWhiteListerAddress",
          "type": "address"
        }
      ],
      "name": "updateWhiteListerAddress",
      "outputs": [],
      "stateMutability": "nonpayable",
      "type": "function"
    },
    {
      "inputs": [
        {
          "internalType": "address",
          "name": "_investorAddress",
          "type": "address"
        },
        {
          "internalType": "bool",
          "name": "_newStatus",
          "type": "bool"
        }
      ],
      "name": "updateWhitelistStatus",
      "outputs": [],
      "stateMutability": "nonpayable",
      "type": "function"
    },
    {
      "inputs": [],
      "name": "usdcPriceFeedAddress",
      "outputs": [
        {
          "internalType": "address",
          "name": "",
          "type": "address"
        }
      ],
      "stateMutability": "view",
      "type": "function"
    },
    {
      "inputs": [],
      "name": "usdcToken",
      "outputs": [
        {
          "internalType": "contract IERC20",
          "name": "",
          "type": "address"
        }
      ],
      "stateMutability": "view",
      "type": "function"
    },
    {
      "inputs": [],
      "name": "usdcTokenAddress",
      "outputs": [
        {
          "internalType": "address",
          "name": "",
          "type": "address"
        }
      ],
      "stateMutability": "view",
      "type": "function"
    },
    {
      "inputs": [],
      "name": "usdtPriceFeedAddress",
      "outputs": [
        {
          "internalType": "address",
          "name": "",
          "type": "address"
        }
      ],
      "stateMutability": "view",
      "type": "function"
    },
    {
      "inputs": [],
      "name": "usdtToken",
      "outputs": [
        {
          "internalType": "contract IERC20",
          "name": "",
          "type": "address"
        }
      ],
      "stateMutability": "view",
      "type": "function"
    },
    {
      "inputs": [],
      "name": "usdtTokenAddress",
      "outputs": [
        {
          "internalType": "address",
          "name": "",
          "type": "address"
        }
      ],
      "stateMutability": "view",
      "type": "function"
    },
    {
      "inputs": [],
      "name": "wbtcPriceFeedAddress",
      "outputs": [
        {
          "internalType": "address",
          "name": "",
          "type": "address"
        }
      ],
      "stateMutability": "view",
      "type": "function"
    },
    {
      "inputs": [],
      "name": "wbtcToken",
      "outputs": [
        {
          "internalType": "contract IERC20",
          "name": "",
          "type": "address"
        }
      ],
      "stateMutability": "view",
      "type": "function"
    },
    {
      "inputs": [],
      "name": "wbtcTokenAddress",
      "outputs": [
        {
          "internalType": "address",
          "name": "",
          "type": "address"
        }
      ],
      "stateMutability": "view",
      "type": "function"
    },
    {
      "inputs": [],
      "name": "wethPriceFeedAddress",
      "outputs": [
        {
          "internalType": "address",
          "name": "",
          "type": "address"
        }
      ],
      "stateMutability": "view",
      "type": "function"
    },
    {
      "inputs": [],
      "name": "wethToken",
      "outputs": [
        {
          "internalType": "contract IERC20",
          "name": "",
          "type": "address"
        }
      ],
      "stateMutability": "view",
      "type": "function"
    },
    {
      "inputs": [],
      "name": "wethTokenAddress",
      "outputs": [
        {
          "internalType": "address",
          "name": "",
          "type": "address"
        }
      ],
      "stateMutability": "view",
      "type": "function"
    },
    {
      "inputs": [],
      "name": "whiteListerAddress",
      "outputs": [
        {
          "internalType": "address",
          "name": "",
          "type": "address"
        }
      ],
      "stateMutability": "view",
      "type": "function"
    },
    {
      "stateMutability": "payable",
      "type": "receive"
    }
  ],
  "bytecode": "0x608060405234801561001057600080fd5b50614d0f806100206000396000f3fe6080604052600436106103545760003560e01c806365699d28116101c6578063a457c2d7116100f7578063c07732a311610095578063de1f53461161006f578063de1f534614610a12578063f2fde38b14610a95578063f7a47f8114610ab5578063fb2dc76e14610ad657600080fd5b8063c07732a3146109b1578063c5f956af146109d1578063dd62ed3e146109f257600080fd5b8063b2c568f3116100d1578063b2c568f314610931578063b40ed44914610951578063b836080614610971578063bb6f98fb1461099157600080fd5b8063a457c2d7146108d0578063a9059cbb146108f0578063a98ad46c1461091057600080fd5b8063841e4561116101645780638da5cb5b1161013e5780638da5cb5b1461086657806395d89b41146108845780639d741e5d146108995780639d7f7e86146108ba57600080fd5b8063841e4561146107fc5780638456cb591461081c5780638c945e631461083157600080fd5b8063731de514116101a0578063731de5141461078f57806377b53ece146107af5780638049bcb6146107d05780638129fc1c146107e757600080fd5b806365699d281461072357806370a0823114610744578063715018a61461077a57600080fd5b8063367f44fb116102a057806347ee03941161023e5780635ae9384e116102185780635ae9384e146106aa5780635c975abb146106cb5780635ec2562a146106e3578063653c3a471461070357600080fd5b806347ee0394146106485780634b57b0be146106685780634c526bdb1461068957600080fd5b80633b14f3591161027a5780633b14f359146105ea5780633de6f379146105f25780633f4ba83a1461061257806340b5ea9c1461062757600080fd5b8063367f44fb14610593578063377c779f146105b357806339509351146105ca57600080fd5b806318160ddd1161030d57806323c66f9a116102e757806323c66f9a1461051f57806327614df81461053f5780632a241ad314610560578063313ce5671461057757600080fd5b806318160ddd146104a55780631b28d63e146104c457806323b872dd146104ff57600080fd5b806306fdde03146103af57806308cd468f146103da578063095ea7b3146104135780630f9dad711461044357806311eac85514610464578063128ef0221461048557600080fd5b366103aa57610361610af7565b610369610b55565b60405134815233907fecb865883ec69b0d00ee1bed3b735ecf8dec2e91e6ce400100c5e3fad740abb49060200160405180910390a26103a8600160fb55565b005b600080fd5b3480156103bb57600080fd5b506103c4610bb8565b6040516103d191906143fd565b60405180910390f35b3480156103e657600080fd5b5061013a546103fb906001600160a01b031681565b6040516001600160a01b0390911681526020016103d1565b34801561041f57600080fd5b5061043361042e36600461444c565b610c4a565b60405190151581526020016103d1565b34801561044f57600080fd5b50610141546103fb906001600160a01b031681565b34801561047057600080fd5b50610138546103fb906001600160a01b031681565b34801561049157600080fd5b506103a86104a0366004614476565b610c64565b3480156104b157600080fd5b506035545b6040519081526020016103d1565b3480156104d057600080fd5b506040805180820190915260128152712732bb90333ab731ba34b7b71034b7102b1960711b60208201526103c4565b34801561050b57600080fd5b5061043361051a36600461448f565b610e84565b34801561052b57600080fd5b506103a861053a3660046144da565b610ea8565b34801561054b57600080fd5b50610140546103fb906001600160a01b031681565b34801561056c57600080fd5b506104b661012e5481565b34801561058357600080fd5b50604051601281526020016103d1565b34801561059f57600080fd5b506103a86105ae36600461451b565b611605565b3480156105bf57600080fd5b506104b661012d5481565b3480156105d657600080fd5b506104336105e536600461444c565b61187f565b6104336118a1565b3480156105fe57600080fd5b506103a861060d3660046144da565b611b6a565b34801561061e57600080fd5b506103a8611fc4565b34801561063357600080fd5b50610136546103fb906001600160a01b031681565b34801561065457600080fd5b506103a8610663366004614552565b611fd4565b34801561067457600080fd5b50610144546103fb906001600160a01b031681565b34801561069557600080fd5b5061013d546103fb906001600160a01b031681565b3480156106b657600080fd5b50610142546103fb906001600160a01b031681565b3480156106d757600080fd5b5060655460ff16610433565b3480156106ef57600080fd5b506103a86106fe366004614476565b6121ea565b34801561070f57600080fd5b506103a861071e366004614552565b6123b8565b34801561072f57600080fd5b50610130546103fb906001600160a01b031681565b34801561075057600080fd5b506104b661075f366004614552565b6001600160a01b031660009081526033602052604090205490565b34801561078657600080fd5b506103a8612505565b34801561079b57600080fd5b506104336107aa366004614574565b612517565b3480156107bb57600080fd5b50610135546103fb906001600160a01b031681565b3480156107dc57600080fd5b506104b661012f5481565b3480156107f357600080fd5b506103a8612a07565b34801561080857600080fd5b506103a8610817366004614552565b612daf565b34801561082857600080fd5b506103a8612ef9565b34801561083d57600080fd5b5061085161084c366004614590565b612f09565b604080519283526020830191909152016103d1565b34801561087257600080fd5b5060c9546001600160a01b03166103fb565b34801561089057600080fd5b506103c4613066565b3480156108a557600080fd5b50610139546103fb906001600160a01b031681565b3480156108c657600080fd5b506104b6610e1081565b3480156108dc57600080fd5b506104336108eb36600461444c565b613075565b3480156108fc57600080fd5b5061043361090b36600461444c565b6130f0565b34801561091c57600080fd5b5061013c546103fb906001600160a01b031681565b34801561093d57600080fd5b506103a861094c366004614476565b6130fe565b34801561095d57600080fd5b506103a861096c366004614476565b6132c6565b34801561097d57600080fd5b506103a861098c36600461451b565b61349a565b34801561099d57600080fd5b506104b66109ac3660046145b2565b61361b565b3480156109bd57600080fd5b506103a86109cc36600461451b565b6138d2565b3480156109dd57600080fd5b50610131546103fb906001600160a01b031681565b3480156109fe57600080fd5b506104b6610a0d3660046145cd565b613a47565b348015610a1e57600080fd5b50610a64610a2d366004614552565b6101326020526000908152604090208054600182015460029092015460ff8083169361010084048216936201000090049091169185565b6040516103d19594939291909415158552921515602085015290151560408401526060830152608082015260a00190565b348015610aa157600080fd5b506103a8610ab0366004614552565b613a72565b348015610ac157600080fd5b5061013e546103fb906001600160a01b031681565b348015610ae257600080fd5b50610133546103fb906001600160a01b031681565b600260fb5403610b4e5760405162461bcd60e51b815260206004820152601f60248201527f5265656e7472616e637947756172643a207265656e7472616e742063616c6c0060448201526064015b60405180910390fd5b600260fb55565b60c9546001600160a01b03163314610baf5760405162461bcd60e51b815260206004820181905260248201527f4f776e61626c653a2063616c6c6572206973206e6f7420746865206f776e65726044820152606401610b45565b565b600160fb55565b606060368054610bc7906145e9565b80601f0160208091040260200160405190810160405280929190818152602001828054610bf3906145e9565b8015610c405780601f10610c1557610100808354040283529160200191610c40565b820191906000526020600020905b815481529060010190602001808311610c2357829003601f168201915b5050505050905090565b600033610c58818585613b5f565b60019150505b92915050565b610c6c610b55565b610c74610af7565b610c806012600a614717565b811015610cf55760405162461bcd60e51b815260206004820152603760248201527f416d6f756e74206f66204859415820746f6b656e7320746f206973737565206d60448201527f757374206265206174206c65617374203120746f6b656e0000000000000000006064820152608401610b45565b610d016012600a614717565b610d0f90633b9aca00614726565b811115610d845760405162461bcd60e51b815260206004820152603f60248201527f416d6f756e74206f66204859415820746f6b656e7320746f206973737565206160448201527f7420612074696d65206d757374206265206d6178696d756d2031303030204d006064820152608401610b45565b610d906012600a614717565b610d9f906402540be400614726565b81610da960355490565b610db3919061473d565b1115610e275760405162461bcd60e51b815260206004820152603b60248201527f416d6f756e74206f66204859415820746f6b656e7320746f206973737565207360448201527f75727061736573207468652031302c303030204d20746f6b656e7300000000006064820152608401610b45565b610e42610e3c60c9546001600160a01b031690565b82613c83565b60405181815233907f455064bbf1374d9e833b8d9db24c56b24dbf79cc1a94a30665cae7093963d5a89060200160405180910390a2610e81600160fb55565b50565b600033610e92858285613d50565b610e9d858585613dca565b506001949350505050565b610eb0610b55565b6001600160a01b038116610f255760405162461bcd60e51b815260206004820152603660248201527f5468652070726963652064617461206665656420616464726573732063616e6e6044820152756f7420626520746865207a65726f206164647265737360501b6064820152608401610b45565b8060008080856004811115610f3c57610f3c614750565b0361100057610133546001600160a01b0390811690851603610fc8576040805162461bcd60e51b81526020600482015260248101919091527f4d41544943207072696365206665656420616464726573732068617320616c7260448201527f65616479206265656e206d6f64696669656420746f20746861742076616c75656064820152608401610b45565b6040516a1350551250c80bc81554d160aa1b6020820152602b015b6040516020818303038152906040528051906020012091506112e4565b600185600481111561101457611014614750565b036110aa57610136546001600160a01b039081169085160361108c5760405162461bcd60e51b815260206004820152603f60248201527f55534443207072696365206665656420616464726573732068617320616c72656044820152600080516020614cba8339815191526064820152608401610b45565b604051691554d110c80bc81554d160b21b6020820152602a01610fe3565b60028560048111156110be576110be614750565b036111545761013a546001600160a01b03908116908516036111365760405162461bcd60e51b815260206004820152603f60248201527f55534454207072696365206665656420616464726573732068617320616c72656044820152600080516020614cba8339815191526064820152608401610b45565b604051691554d115080bc81554d160b21b6020820152602a01610fe3565b600385600481111561116857611168614750565b036111fe5761013e546001600160a01b03908116908516036111e05760405162461bcd60e51b815260206004820152603f60248201527f57425443207072696365206665656420616464726573732068617320616c72656044820152600080516020614cba8339815191526064820152608401610b45565b6040516915d09510c80bc81554d160b21b6020820152602a01610fe3565b600485600481111561121257611212614750565b036112a757610142546001600160a01b039081169085160361128a5760405162461bcd60e51b815260206004820152603f60248201527f57455448207072696365206665656420616464726573732068617320616c72656044820152600080516020614cba8339815191526064820152608401610b45565b60405168115512080bc81554d160ba1b6020820152602901610fe3565b60405162461bcd60e51b8152602060048201526012602482015271496e76616c696420746f6b656e207479706560701b6044820152606401610b45565b826001600160a01b0316637284e4166040518163ffffffff1660e01b8152600401600060405180830381865afa92505050801561134357506040513d6000823e601f3d908101601f19168201604052611340919081019061477c565b60015b61135f5760405162461bcd60e51b8152600401610b4590614829565b806040516020016113709190614895565b6040516020818303038152906040528051906020012091508183146113a75760405162461bcd60e51b8152600401610b4590614829565b5060008560048111156113bc576113bc614750565b036114265761013380546001600160a01b0386166001600160a01b031991821681179092556101348054909116821790556040519081527fee9bc8d900b5d69f934ec4a3986b3bfda61add54821456c3f7e943e87cf48f52906020015b60405180910390a16115fe565b600185600481111561143a5761143a614750565b0361149b5761013680546001600160a01b0386166001600160a01b031991821681179092556101378054909116821790556040519081527f0a0bc5dadd9d9c881861f6da8998bebef8eabcb5f3d6651187c5d1899e32796590602001611419565b60028560048111156114af576114af614750565b036115105761013a80546001600160a01b0386166001600160a01b0319918216811790925561013b8054909116821790556040519081527f1e5bfe0b7fe6fcdc586b9e3a4fbdc0bdb1346d36173963ba38c897137ba1603190602001611419565b600385600481111561152457611524614750565b036115855761013e80546001600160a01b0386166001600160a01b0319918216811790925561013f8054909116821790556040519081527f2171c3cfa3d86551d618c9da7164a608dd795715bf61402d9ccb45cf5433a07690602001611419565b600485600481111561159957611599614750565b036115fe5761014280546001600160a01b0386166001600160a01b031991821681179092556101438054909116821790556040519081527fc21be1e8c8d6de83e19ad6de75cd885eefac75be87e532a0a04d02147004e5209060200160405180910390a15b5050505050565b60c9546001600160a01b03163314806116295750610130546001600160a01b031633145b6116455760405162461bcd60e51b8152600401610b45906148b1565b6001600160a01b0382166116d95760405162461bcd60e51b815260206004820152604f60248201527f496e766573746f72206164647265737320746f20757064617465207175616c6960448201527f6669656420696e766573746f72207374617475732063616e6e6f74206265207460648201526e6865207a65726f206164647265737360881b608482015260a401610b45565b6001600160a01b0382166000908152610132602052604090205460ff166117685760405162461bcd60e51b815260206004820152603e60248201527f496e766573746f722061646472657373206d757374206265206669727374206160448201527f6464656420746f2074686520696e766573746f722077686974656c69737400006064820152608401610b45565b6001600160a01b038216600090815261013260205260409020548115156201000090910460ff161515036118045760405162461bcd60e51b815260206004820152603d60248201527f5468617420696e766573746f7220616464726573732068617320616c7265616460448201527f79206265656e207570646174656420746f2074686174207374617475730000006064820152608401610b45565b6001600160a01b03821660008181526101326020908152604091829020805462ff000019166201000086151590810291909117909155825133815291820193909352908101919091527f3c53852fbea2a3e8d261e1a5412fcd1099cd0af0faf615db2a4cab4831106256906060015b60405180910390a15050565b600033610c588185856118928383613a47565b61189c919061473d565b613b5f565b336000908152610132602052604081205460ff166118d15760405162461bcd60e51b8152600401610b459061490e565b3360009081526101326020526040902054610100900460ff16156119075760405162461bcd60e51b8152600401610b4590614962565b61190f610af7565b60008061198434306001600160a01b031663bb6f98fb60006040518263ffffffff1660e01b815260040161194391906149b2565b602060405180830381865afa158015611960573d6000803e3d6000fd5b505050506040513d601f19601f8201168201806040525081019061084c91906149da565b915091506119928233613f80565b610131546040516000916001600160a01b03169034908381818185875af1925050503d80600081146119e0576040519150601f19603f3d011682016040523d82523d6000602084013e6119e5565b606091505b5050905080611a675760405162461bcd60e51b815260206004820152604260248201527f54686572652077617320616e206572726f72206f6e2073656e64696e6720746860448201527f65204d4154494320696e766573746d656e7420746f2074686520747265617375606482015261727960f01b608482015260a401610b45565b60405163a9059cbb60e01b815233600482015260248101839052309063a9059cbb906044016020604051808303816000875af1158015611aab573d6000803e3d6000fd5b505050506040513d601f19601f82011682018060405250810190611acf91906149f3565b611aeb5760405162461bcd60e51b8152600401610b4590614a10565b336000908152610132602052604081206001018054849290611b0e90849061473d565b9091555050604080513481526020810185905290810183905233907fe036cb252631bb3e3fbcb1aa359dd09f94f0dac1fe6de828e8bae3f5028331c59060600160405180910390a260019350505050611b67600160fb55565b90565b611b72610b55565b6001600160a01b038116611bdd5760405162461bcd60e51b815260206004820152602c60248201527f54686520746f6b656e20616464726573732063616e6e6f74206265207468652060448201526b7a65726f206164647265737360a01b6064820152608401610b45565b6001826004811115611bf157611bf1614750565b03611cdb57610135546001600160a01b0390811690821603611c785760405162461bcd60e51b815260206004820152603a60248201527f5553444320746f6b656e20616464726573732068617320616c7265616479206260448201527965656e206d6f64696669656420746f20746861742076616c756560301b6064820152608401610b45565b61013580546001600160a01b0383166001600160a01b031991821681179092556101388054909116821790556040519081527f8b3f52c1d10699944ebee74ee29dca11c9c86bb0dbedef4abd6e737f613d4d3a9060200160405180910390a15050565b6002826004811115611cef57611cef614750565b03611dd257610139546001600160a01b0390811690821603611d765760405162461bcd60e51b815260206004820152603a60248201527f5553445420746f6b656e20616464726573732068617320616c7265616479206260448201527965656e206d6f64696669656420746f20746861742076616c756560301b6064820152608401610b45565b61013980546001600160a01b0383166001600160a01b0319918216811790925561013c8054909116821790556040519081527f1c2d8a05be2c8eca524d44cc224513d7e19ca97ac309c3e23bee450f8578ca1990602001611873565b6003826004811115611de657611de6614750565b03611ec95761013d546001600160a01b0390811690821603611e6d5760405162461bcd60e51b815260206004820152603a60248201527f5742544320746f6b656e20616464726573732068617320616c7265616479206260448201527965656e206d6f64696669656420746f20746861742076616c756560301b6064820152608401610b45565b61013d80546001600160a01b0383166001600160a01b031991821681179092556101408054909116821790556040519081527f95082f719648371f180ca4f9bad55a2ae7c2d029bbf93e360584ca6ea06327ea90602001611873565b6004826004811115611edd57611edd614750565b036112a757610141546001600160a01b0390811690821603611f645760405162461bcd60e51b815260206004820152603a60248201527f5745544820746f6b656e20616464726573732068617320616c7265616479206260448201527965656e206d6f64696669656420746f20746861742076616c756560301b6064820152608401610b45565b61014180546001600160a01b0383166001600160a01b031991821681179092556101448054909116821790556040519081527ff5fd160f565ac0e80215e9eced5afbfcd47389e99858fac6a3d93f2ec38ff6d690602001611873565b5050565b611fcc610b55565b610baf614076565b60c9546001600160a01b0316331480611ff85750610130546001600160a01b031633145b6120145760405162461bcd60e51b8152600401610b45906148b1565b6001600160a01b03811661209c5760405162461bcd60e51b815260206004820152604360248201527f496e766573746f72206164647265737320746f2061646420746f20746865207760448201527f686974656c6973742063616e6e6f7420626520746865207a65726f206164647260648201526265737360e81b608482015260a401610b45565b6001600160a01b0381166000908152610132602052604090205460ff161561212c5760405162461bcd60e51b815260206004820152603d60248201527f5468617420696e766573746f7220616464726573732068617320616c7265616460448201527f79206265656e20616464656420746f207468652077686974656c6973740000006064820152608401610b45565b6040805160a08101825260006020808301828152838501838152606085018481526080860185815260018088526001600160a01b038a1680885261013290965288872088518154965195511515620100000262ff0000199615156101000261ff00199215159290921661ffff199098169790971717949094169490941783559051928201929092559051600290910155925191929133917f8419b79dc227f7841e7bf32cea35c3f90fe5b3da68cde93adef3c32745c587de91a35050565b6121f2610b55565b600081116122625760405162461bcd60e51b815260206004820152603760248201527f4e6577206d6178696d756d20616d6f756e7420746f20696e766573742c206d7560448201527673742062652067726561746572207468616e207a65726f60481b6064820152608401610b45565b61012f5481036122e85760405162461bcd60e51b815260206004820152604560248201527f4e6577206d6178696d756d20616d6f756e7420746f20696e766573742c20686160448201527f7320616c7265616479206265656e206d6f64696669656420746f20746861742060648201526476616c756560d81b608482015260a401610b45565b61012e5481101561237b5760405162461bcd60e51b815260206004820152605160248201527f4e6577206d6178696d756d20616d6f756e7420746f20696e766573742c206d7560448201527f73742062652067726561746572207468616e20746865206d696e696d756d20696064820152701b9d995cdd1b595b9d08185b1b1bddd959607a1b608482015260a401610b45565b61012f8190556040518181527f29d434ec19958e7ce86ca2870f5927ab4f948d916dcffc568c1343c1e1f76566906020015b60405180910390a150565b6123c0610b55565b6001600160a01b0381166124315760405162461bcd60e51b815260206004820152603260248201527f5468652077686974656c697374657220616464726573732063616e6e6f7420626044820152716520746865207a65726f206164647265737360701b6064820152608401610b45565b610130546001600160a01b03908116908216036124b65760405162461bcd60e51b815260206004820152603b60248201527f77686974656c697374657220616464726573732068617320616c72656164792060448201527f6265656e206d6f64696669656420746f20746861742076616c756500000000006064820152608401610b45565b61013080546001600160a01b0319166001600160a01b0383169081179091556040519081527f32359536720adedfb2b6c6dd7685519f09fdf93ce7824b68d5b2f56354fdebec906020016123ad565b61250d610b55565b610baf60006140c8565b336000908152610132602052604081205460ff166125475760405162461bcd60e51b8152600401610b459061490e565b3360009081526101326020526040902054610100900460ff161561257d5760405162461bcd60e51b8152600401610b4590614962565b612585610af7565b600080600185600481111561259c5761259c614750565b0361261d576101385460405163bb6f98fb60e01b81526001600160a01b039091169250309063bb6f98fb906125d59088906004016149b2565b602060405180830381865afa1580156125f2573d6000803e3d6000fd5b505050506040513d601f19601f8201168201806040525081019061261691906149da565b9050612704565b600285600481111561263157612631614750565b0361266a5761013c5460405163bb6f98fb60e01b81526001600160a01b039091169250309063bb6f98fb906125d59088906004016149b2565b600385600481111561267e5761267e614750565b036126b7576101405460405163bb6f98fb60e01b81526001600160a01b039091169250309063bb6f98fb906125d59088906004016149b2565b60048560048111156126cb576126cb614750565b036112a7576101445460405163bb6f98fb60e01b81526001600160a01b039091169250309063bb6f98fb906125d59088906004016149b2565b6000806127118684612f09565b9150915061271f8233613f80565b6040516323b872dd60e01b8152336004820152306024820152604481018790526001600160a01b038516906323b872dd906064016020604051808303816000875af1158015612772573d6000803e3d6000fd5b505050506040513d601f19601f8201168201806040525081019061279691906149f3565b6127ff5760405162461bcd60e51b815260206004820152603460248201527f54686572652077617320616e206572726f72206f6e20726563656976696e67206044820152731d1a19481d1bdad95b881a5b9d995cdd1b595b9d60621b6064820152608401610b45565b6101315460405163a9059cbb60e01b81526001600160a01b039182166004820152602481018890529085169063a9059cbb906044016020604051808303816000875af1158015612853573d6000803e3d6000fd5b505050506040513d601f19601f8201168201806040525081019061287791906149f3565b6128f45760405162461bcd60e51b815260206004820152604260248201527f54686572652077617320616e206572726f72206f6e2073656e64696e6720746860448201527f6520746f6b656e20696e766573746d656e7420746f2074686520747265617375606482015261727960f01b608482015260a401610b45565b60405163a9059cbb60e01b815233600482015260248101829052309063a9059cbb906044016020604051808303816000875af1158015612938573d6000803e3d6000fd5b505050506040513d601f19601f8201168201806040525081019061295c91906149f3565b6129785760405162461bcd60e51b8152600401610b4590614a10565b33600090815261013260205260408120600101805483929061299b90849061473d565b909155503390508760048111156129b4576129b4614750565b60408051898152602081018690529081018490527f3b60324b6db90922773bde8799e6d3b7d574474a0fb52a6d340bd2ee92b5edbc9060600160405180910390a36001945050505050610c5e600160fb55565b600054610100900460ff1615808015612a275750600054600160ff909116105b80612a415750303b158015612a41575060005460ff166001145b612aa45760405162461bcd60e51b815260206004820152602e60248201527f496e697469616c697a61626c653a20636f6e747261637420697320616c72656160448201526d191e481a5b9a5d1a585b1a5e995960921b6064820152608401610b45565b6000805460ff191660011790558015612ac7576000805461ff0019166101001790555b612b0e60405180604001604052806009815260200168242ca0ac2a37b5b2b760b91b81525060405180604001604052806004815260200163090b282b60e31b81525061411a565b612b1661414b565b612b1e61417a565b612b266141a9565b612b4933612b366012600a614717565b612b4490631dcd6500614726565b613c83565b620927c061012d55612b5d6012600a614717565b612b68906001614726565b61012e55612b786012600a614717565b612b8490612710614726565b61012f5561013080546001600160a01b03199081167301c2f012de19e6436744c3f81f56e9e70c93a8c3179091556101318054821673350441f8a82680a785ffa9d3efea60bb4ca417f817905561013380548216721382149eba3441043c1c66972b4772963f5d439081179091556101348054831690911790556101358054821673f68054bfe5d45432ffca28ffa1f3d685d0456ddc90811790915561013680548316731b8739bb4cdf0089d07097a9ae5bd274b29c6f16908117909155610137805484169091179055610138805483169091179055610139805482167370e02fb82b6bc04f64099689b0599e14b44d4fbb90811790915561013a80548316733ac23dcb4ecfcbd24579e1f34542524d0e4edea890811790915561013b80548416909117905561013c80548316909117905561013d80548216733c8df3c48b3884da2ff25e17524282d60f9c3b9390811790915561013e8054831673e7656e23fe8077d438aefbec2fabdf2d8e070c4f90811790915561013f8054841690911790556101408054831690911790556101418054821673524a89ed77d5827320e35e12bca96830c6b7960a9081179091556101428054831673f0d50568e3a7e8259e16663972b11910f89bd8e790811790915561014380548416909117905561014480549092161790558015610e81576000805461ff0019169055604051600181527f7f26b83ff96e1f2b6a682f133852f6798a09c465da95921460cefb3847402498906020016123ad565b612db7610b55565b6001600160a01b038116612e255760405162461bcd60e51b815260206004820152602f60248201527f54686520747265617375727920616464726573732063616e6e6f74206265207460448201526e6865207a65726f206164647265737360881b6064820152608401610b45565b610131546001600160a01b0390811690821603612eaa5760405162461bcd60e51b815260206004820152603860248201527f547265617375727920616464726573732068617320616c72656164792062656560448201527f6e206d6f64696669656420746f20746861742076616c756500000000000000006064820152608401610b45565b61013180546001600160a01b0319166001600160a01b0383169081179091556040519081527f2e1e696cfb265fa16e1170d24ef04cb2262772bde00ecf34d80bae6722487b7f906020016123ad565b612f01610b55565b610baf6141d8565b6000806305f5e100612f1b8486614726565b612f259190614a77565b61012d54909250612f3a836305f5e100614726565b612f449190614a77565b905061012e54821015612fc95760405162461bcd60e51b815260206004820152604160248201527f54686520616d6f756e7420746f20696e76657374206d7573742062652067726560448201527f61746572207468616e20746865206d696e696d756d2065737461626c697368656064820152601960fa1b608482015260a401610b45565b3060009081526033602052604090205481111561305f5760405162461bcd60e51b815260206004820152604860248201527f54686520696e766573746d656e74206d6164652072657475726e7320616e206160448201527f6d6f756e74206f6620485941582067726561746572207468616e2074686520616064820152677661696c61626c6560c01b608482015260a401610b45565b9250929050565b606060378054610bc7906145e9565b600033816130838286613a47565b9050838110156130e35760405162461bcd60e51b815260206004820152602560248201527f45524332303a2064656372656173656420616c6c6f77616e63652062656c6f77604482015264207a65726f60d81b6064820152608401610b45565b610e9d8286868403613b5f565b600033610c58818585613dca565b613106610b55565b600081116131765760405162461bcd60e51b815260206004820152603760248201527f4e6577206d696e696d756e20616d6f756e7420746f20696e766573742c206d7560448201527673742062652067726561746572207468616e207a65726f60481b6064820152608401610b45565b61012e5481036132005760405162461bcd60e51b815260206004820152604960248201527f4d696e696d756d20696e766573746d656e7420616c6c6f77656420696e20555360448201527f442068617320616c7265616479206265656e206d6f64696669656420746f20746064820152686861742076616c756560b81b608482015260a401610b45565b61012f548111156132905760405162461bcd60e51b815260206004820152604e60248201527f4e6577206d696e696d756e20616d6f756e7420746f20696e766573742c206d7560448201527f7374206265206c657373207468616e20746865206d6178696d756d20696e766560648201526d1cdd1b595b9d08185b1b1bddd95960921b608482015260a401610b45565b61012e8190556040518181527fee60eb8e40a2ec796bfe3ca896b9221af9764fc0987bf0508ca755266d9c85f8906020016123ad565b6132ce610b55565b61012d54810361333b5760405162461bcd60e51b815260206004820152603260248201527f485941582070726963652068617320616c7265616479206265656e206d6f64696044820152716669656420746f20746861742076616c756560701b6064820152608401610b45565b6207a1208110156133cb5760405162461bcd60e51b815260206004820152604e60248201527f5072696365206f66204859415820746f6b656e206d757374206265206174206c60448201527f656173742055534420302e3030352c207468617420697320353030303030207760648201526d697468203820646563696d616c7360901b608482015260a401610b45565b64174876e8008111156134645760405162461bcd60e51b815260206004820152605560248201527f5072696365206f66204859415820746f6b656e206d757374206265206174206d60448201527f6178696d756d2055534420313030302c2074686174206973203130303030303060648201527430303030302077697468203820646563696d616c7360581b608482015260a401610b45565b61012d8190556040518181527f4f6f7bbbb2b0dde2246ee6650672d1b55a5be5b52f8dd2e8d595f4bd47e1c913906020016123ad565b60c9546001600160a01b03163314806134be5750610130546001600160a01b031633145b6134da5760405162461bcd60e51b8152600401610b45906148b1565b6001600160a01b0382166135655760405162461bcd60e51b815260206004820152604660248201527f496e766573746f72206164647265737320746f2075706461746520626c61636b60448201527f6c697374207374617475732063616e6e6f7420626520746865207a65726f206160648201526564647265737360d01b608482015260a401610b45565b6001600160a01b0382166000908152610132602052604090205481151561010090910460ff161515036135aa5760405162461bcd60e51b8152600401610b4590614a99565b6001600160a01b03821660008181526101326020908152604091829020805461ff00191661010086151590810291909117909155825133815291820193909352908101919091527f89a9c56967d4535d54c90bffd7cbd09f6d2a4c8e26b9e7f033f199d144e12b4e90606001611873565b6000808083600481111561363157613631614750565b036136495750610134546001600160a01b03166136f5565b600183600481111561365d5761365d614750565b036136755750610137546001600160a01b03166136f5565b600283600481111561368957613689614750565b036136a1575061013b546001600160a01b03166136f5565b60038360048111156136b5576136b5614750565b036136cd575061013f546001600160a01b03166136f5565b60048360048111156136e1576136e1614750565b036112a75750610143546001600160a01b03165b806001600160a01b031663feaf968c6040518163ffffffff1660e01b815260040160a060405180830381865afa92505050801561374f575060408051601f3d908101601f1916820190925261374c91810190614b10565b60015b6137c15760405162461bcd60e51b815260206004820152603c60248201527f54686572652077617320616e206572726f72206f627461696e696e672074686560448201527f20746f6b656e2070726963652066726f6d20746865206f7261636c65000000006064820152608401610b45565b600084136138115760405162461bcd60e51b815260206004820152601e60248201527f496e76616c696420707269636520646174612066726f6d206f7261636c6500006044820152606401610b45565b6000821180156138215750428211155b6138605760405162461bcd60e51b815260206004820152601060248201526f5374616c65207072696365206461746160801b6044820152606401610b45565b8469ffffffffffffffffffff168169ffffffffffffffffffff1610156138c05760405162461bcd60e51b8152602060048201526015602482015274496e636f6d706c65746520726f756e64206461746160581b6044820152606401610b45565b50919695505050505050565b50919050565b60c9546001600160a01b03163314806138f65750610130546001600160a01b031633145b6139125760405162461bcd60e51b8152600401610b45906148b1565b6001600160a01b03821661399d5760405162461bcd60e51b815260206004820152604660248201527f496e766573746f72206164647265737320746f2075706461746520776869746560448201527f6c697374207374617475732063616e6e6f7420626520746865207a65726f206160648201526564647265737360d01b608482015260a401610b45565b6001600160a01b0382166000908152610132602052604090205481151560ff9091161515036139de5760405162461bcd60e51b8152600401610b4590614a99565b6001600160a01b03821660008181526101326020908152604091829020805460ff1916851515908117909155825133815291820193909352908101919091527f70bbee4e66e3fd40f7da099410cfd723ed4a0b4fec11f6cc968e850db827a88b90606001611873565b6001600160a01b03918216600090815260346020908152604080832093909416825291909152205490565b613a7a610b55565b6001600160a01b038116613adf5760405162461bcd60e51b815260206004820152602660248201527f4f776e61626c653a206e6577206f776e657220697320746865207a65726f206160448201526564647265737360d01b6064820152608401610b45565b306001600160a01b03821603613b565760405162461bcd60e51b815260206004820152603660248201527f4f776e61626c653a206e6577206f776e65722063616e6e6f74206265207468656044820152752073616d6520636f6e7472616374206164647265737360501b6064820152608401610b45565b610e81816140c8565b6001600160a01b038316613bc15760405162461bcd60e51b8152602060048201526024808201527f45524332303a20617070726f76652066726f6d20746865207a65726f206164646044820152637265737360e01b6064820152608401610b45565b6001600160a01b038216613c225760405162461bcd60e51b815260206004820152602260248201527f45524332303a20617070726f766520746f20746865207a65726f206164647265604482015261737360f01b6064820152608401610b45565b6001600160a01b0383811660008181526034602090815260408083209487168084529482529182902085905590518481527f8c5be1e5ebec7d5bd14f71427d1e84f3dd0314c0f7b2291e5b200ac8c7c3b925910160405180910390a3505050565b6001600160a01b038216613cd95760405162461bcd60e51b815260206004820152601f60248201527f45524332303a206d696e7420746f20746865207a65726f2061646472657373006044820152606401610b45565b613ce560008383614215565b8060356000828254613cf7919061473d565b90915550506001600160a01b0382166000818152603360209081526040808320805486019055518481527fddf252ad1be2c89b69c2b068fc378daa952ba7f163c4a11628f55a4df523b3ef910160405180910390a35050565b6000613d5c8484613a47565b90506000198114613dc45781811015613db75760405162461bcd60e51b815260206004820152601d60248201527f45524332303a20696e73756666696369656e7420616c6c6f77616e63650000006044820152606401610b45565b613dc48484848403613b5f565b50505050565b6001600160a01b038316613e2e5760405162461bcd60e51b815260206004820152602560248201527f45524332303a207472616e736665722066726f6d20746865207a65726f206164604482015264647265737360d81b6064820152608401610b45565b6001600160a01b038216613e905760405162461bcd60e51b815260206004820152602360248201527f45524332303a207472616e7366657220746f20746865207a65726f206164647260448201526265737360e81b6064820152608401610b45565b613e9b838383614215565b6001600160a01b03831660009081526033602052604090205481811015613f135760405162461bcd60e51b815260206004820152602660248201527f45524332303a207472616e7366657220616d6f756e7420657863656564732062604482015265616c616e636560d01b6064820152608401610b45565b6001600160a01b0380851660008181526033602052604080822086860390559286168082529083902080548601905591517fddf252ad1be2c89b69c2b068fc378daa952ba7f163c4a11628f55a4df523b3ef90613f739086815260200190565b60405180910390a3613dc4565b6001600160a01b03811660009081526101326020526040812060020154613fa890849061473d565b905061012f54811115614055576001600160a01b0382166000908152610132602052604090205462010000900460ff166140555760405162461bcd60e51b815260206004820152604260248201527f546f20627579207468617420616d6f756e74206f66204859415820697473207260448201527f6571756972656420746f2062652061207175616c696669656420696e7665737460648201526137b960f11b608482015260a401610b45565b6001600160a01b039091166000908152610132602052604090206002015550565b61407e614280565b6065805460ff191690557f5db9ee0a495bf2e6ff9c91a7834c1ba4fdd244a5e8aa4e537bd38aeae4b073aa335b6040516001600160a01b03909116815260200160405180910390a1565b60c980546001600160a01b038381166001600160a01b0319831681179093556040519116919082907f8be0079c531659141344cd1fd0a4f28419497f9722a3daafe3b4186f6b6457e090600090a35050565b600054610100900460ff166141415760405162461bcd60e51b8152600401610b4590614b60565b611fc082826142c9565b600054610100900460ff166141725760405162461bcd60e51b8152600401610b4590614b60565b610baf614309565b600054610100900460ff166141a15760405162461bcd60e51b8152600401610b4590614b60565b610baf614339565b600054610100900460ff166141d05760405162461bcd60e51b8152600401610b4590614b60565b610baf614360565b6141e0614393565b6065805460ff191660011790557f62e78cea01bee320cd4e420270b5ea74000d11b0c9f74754ebdbfc544b05a2586140ab3390565b60655460ff161561427b5760405162461bcd60e51b815260206004820152602a60248201527f45524332305061757361626c653a20746f6b656e207472616e736665722077686044820152691a5b19481c185d5cd95960b21b6064820152608401610b45565b505050565b60655460ff16610baf5760405162461bcd60e51b815260206004820152601460248201527314185d5cd8589b194e881b9bdd081c185d5cd95960621b6044820152606401610b45565b600054610100900460ff166142f05760405162461bcd60e51b8152600401610b4590614b60565b60366142fc8382614bf9565b50603761427b8282614bf9565b600054610100900460ff166143305760405162461bcd60e51b8152600401610b4590614b60565b610baf336140c8565b600054610100900460ff16610bb15760405162461bcd60e51b8152600401610b4590614b60565b600054610100900460ff166143875760405162461bcd60e51b8152600401610b4590614b60565b6065805460ff19169055565b60655460ff1615610baf5760405162461bcd60e51b815260206004820152601060248201526f14185d5cd8589b194e881c185d5cd95960821b6044820152606401610b45565b60005b838110156143f45781810151838201526020016143dc565b50506000910152565b602081526000825180602084015261441c8160408501602087016143d9565b601f01601f19169190910160400192915050565b80356001600160a01b038116811461444757600080fd5b919050565b6000806040838503121561445f57600080fd5b61446883614430565b946020939093013593505050565b60006020828403121561448857600080fd5b5035919050565b6000806000606084860312156144a457600080fd5b6144ad84614430565b92506144bb60208501614430565b9150604084013590509250925092565b80356005811061444757600080fd5b600080604083850312156144ed57600080fd5b6144f6836144cb565b915061450460208401614430565b90509250929050565b8015158114610e8157600080fd5b6000806040838503121561452e57600080fd5b61453783614430565b915060208301356145478161450d565b809150509250929050565b60006020828403121561456457600080fd5b61456d82614430565b9392505050565b6000806040838503121561458757600080fd5b614468836144cb565b600080604083850312156145a357600080fd5b50508035926020909101359150565b6000602082840312156145c457600080fd5b61456d826144cb565b600080604083850312156145e057600080fd5b6144f683614430565b600181811c908216806145fd57607f821691505b6020821081036138cc57634e487b7160e01b600052602260045260246000fd5b634e487b7160e01b600052601160045260246000fd5b600181815b8085111561466e5781600019048211156146545761465461461d565b8085161561466157918102915b93841c9390800290614638565b509250929050565b60008261468557506001610c5e565b8161469257506000610c5e565b81600181146146a857600281146146b2576146ce565b6001915050610c5e565b60ff8411156146c3576146c361461d565b50506001821b610c5e565b5060208310610133831016604e8410600b84101617156146f1575081810a610c5e565b6146fb8383614633565b806000190482111561470f5761470f61461d565b029392505050565b600061456d60ff841683614676565b8082028115828204841417610c5e57610c5e61461d565b80820180821115610c5e57610c5e61461d565b634e487b7160e01b600052602160045260246000fd5b634e487b7160e01b600052604160045260246000fd5b60006020828403121561478e57600080fd5b815167ffffffffffffffff808211156147a657600080fd5b818401915084601f8301126147ba57600080fd5b8151818111156147cc576147cc614766565b604051601f8201601f19908116603f011681019083821181831017156147f4576147f4614766565b8160405282815287602084870101111561480d57600080fd5b61481e8360208301602088016143d9565b979650505050505050565b60208082526046908201527f546865206e6577206164647265737320646f6573206e6f74207365656d20746f60408201527f2062656c6f6e6720746f2074686520636f72726563742070726963652064617460608201526518481999595960d21b608082015260a00190565b600082516148a78184602087016143d9565b9190910192915050565b6020808252603f908201527f46756e6374696f6e207265736572766564206f6e6c7920666f7220746865207760408201527f686974656c69737465722061646472657373206f7220746865206f776e657200606082015260800190565b60208082526034908201527f496e766573746f72206164647265737320686173206e6f74206265656e206164604082015273191959081d1bc81d1a19481dda1a5d195b1a5cdd60621b606082015260800190565b60208082526030908201527f496e766573746f72206164647265737320686173206265656e2061646465642060408201526f1d1bc81d1a1948189b1858dadb1a5cdd60821b606082015260800190565b60208101600583106149d457634e487b7160e01b600052602160045260246000fd5b91905290565b6000602082840312156149ec57600080fd5b5051919050565b600060208284031215614a0557600080fd5b815161456d8161450d565b60208082526041908201527f54686572652077617320616e206572726f72206f6e2073656e64696e6720626160408201527f636b20746865204859415820546f6b656e20746f2074686520696e766573746f6060820152603960f91b608082015260a00190565b600082614a9457634e487b7160e01b600052601260045260246000fd5b500490565b60208082526038908201527f496e766573746f7220616464726573732068617320616c72656164792062656560408201527f6e207570646174656420746f2074686174207374617475730000000000000000606082015260800190565b805169ffffffffffffffffffff8116811461444757600080fd5b600080600080600060a08688031215614b2857600080fd5b614b3186614af6565b9450602086015193506040860151925060608601519150614b5460808701614af6565b90509295509295909350565b6020808252602b908201527f496e697469616c697a61626c653a20636f6e7472616374206973206e6f74206960408201526a6e697469616c697a696e6760a81b606082015260800190565b601f82111561427b57600081815260208120601f850160051c81016020861015614bd25750805b601f850160051c820191505b81811015614bf157828155600101614bde565b505050505050565b815167ffffffffffffffff811115614c1357614c13614766565b614c2781614c2184546145e9565b84614bab565b602080601f831160018114614c5c5760008415614c445750858301515b600019600386901b1c1916600185901b178555614bf1565b600085815260208120601f198616915b82811015614c8b57888601518255948401946001909101908401614c6c565b5085821015614ca95787850151600019600388901b60f8161c191681555b5050505050600190811b0190555056fe616479206265656e206d6f64696669656420746f20746861742076616c756500a26469706673582212204a28ec1df7534a5f03621ef1956464f41f2cdef3e5d87b76784ef1129d054b8264736f6c63430008140033",
  "linkReferences": {},
  "deployedLinkReferences": {}
}