{
  "_format": "hh-sol-artifact-1",
  "contractName": "WbtcPriceDataFeedMock",
  "sourceName": "contracts/WbtcPriceDataFeedMock.sol",
  "abi": [
    {
      "inputs": [],
      "stateMutability": "nonpayable",
      "type": "constructor"
    },
    {
      "inputs": [],
      "name": "description",
      "outputs": [
        {
          "internalType": "string",
          "name": "",
          "type": "string"
        }
      ],
      "stateMutability": "pure",
      "type": "function"
    },
    {
      "inputs": [],
      "name": "latestRoundData",
      "outputs": [
        {
          "internalType": "uint80",
          "name": "_roundId",
          "type": "uint80"
        },
        {
          "internalType": "int256",
          "name": "_answer",
          "type": "int256"
        },
        {
          "internalType": "uint256",
          "name": "_startedAt",
          "type": "uint256"
        },
        {
          "internalType": "uint256",
          "name": "_updatedAt",
          "type": "uint256"
        },
        {
          "internalType": "uint80",
          "name": "_answeredInRound",
          "type": "uint80"
        }
      ],
      "stateMutability": "view",
      "type": "function"
    },
    {
      "inputs": [
        {
          "internalType": "int256",
          "name": "_answer",
          "type": "int256"
        }
      ],
      "name": "setLatestRoundDataAnswer",
      "outputs": [],
      "stateMutability": "nonpayable",
      "type": "function"
    }
  ],
  "bytecode": "0x608060405234801561001057600080fd5b5060008054680200000000000316e76001600160501b031991821681178355650550b73bc470600155636555489160028190556003556004805490921617905561017490819061006090396000f3fe608060405234801561001057600080fd5b50600436106100415760003560e01c80637284e416146100465780637ab418381461007b578063feaf968c14610090575b600080fd5b604080518082018252600a81526915d09510c80bc81554d160b21b6020820152905161007291906100d7565b60405180910390f35b61008e610089366004610125565b600155565b005b6000546001546002546003546004546040805169ffffffffffffffffffff96871681526020810195909552840192909252606083015291909116608082015260a001610072565b600060208083528351808285015260005b81811015610104578581018301518582016040015282016100e8565b506000604082860101526040601f19601f8301168501019250505092915050565b60006020828403121561013757600080fd5b503591905056fea264697066735822122046ad0bde9f36493c26c3b37168e34114c3a7c571037832fe824139d44425c46964736f6c63430008140033",
  "linkReferences": {},
  "deployedLinkReferences": {}
}